:100000000C94D2010C9419020C9419020C9419024C
:100010000C9419020C9419020C9419020C941902F4
:100020000C9419020C9419020C9419020C949C1C47
:100030000C944D1D0C94D5170C9419020C941902B4
:100040000C9419020C9419020C9419020C942C189B
:100050000C9419020C9419020C9419020C941902B4
:100060000C9419020C9419020C9419020C941902A4
:100070000C9419022D002E00000014001A0000003C
:1000800016000700000027002600000012001300E1
:10009000000014001A000800150017001C001800CA
:1000A0000C001200130004441600070009000A00A7
:1000B0000B000D000E000F0028431D621B00060000
:1000C00019000500110010003600370038720000DA
:1000D000E000E2002C4200002C4100003374347137
:1000E00000001E001F002000210022002300240029
:1000F0002500260027000551AE00AA00A900AC008B
:10010000AB002D002E002F0030000000000000008A
:1001100000000000000000000000000031000000AE
:10012000000001004C00000001000000010001007F
:1001300000001E021F0220022102220223022402CA
:100140002502260227023A003B003C003D003E000B
:100150003F002D022E022F023002400041004200DB
:100160004300440045000000000000003102000090
:10017000E300010000000000010000000100010098
:100180000000350035020000000000000000000003
:100190000000000000002B00000000000000000034
:1001A0000000000000000000000039000000000016
:1001B000000000000000000000000000000000003F
:1001C000000000000000000000000000000000002F
:1001D00000000000000000000000000000004A00D5
:1001E00052004D004B000000000000000000000025
:1001F0000000500051004F004E00000000000000C1
:1002000000000000000000000000000031000000BD
:1002100000000000000000000000000000000000DE
:100220000000005C0000000000000000B2000000C0
:1002300000000000000000000000000000000000BE
:1002400000000000000000000000000000000000AE
:10025000000000000000000000000000000000009E
:10026000000000000000000000000000000000008E
:1002700000001A0375006E006400650072007300D0
:1002800063006F0072006500330033000000160346
:1002900074006F006D0069006E00610062006F0005
:1002A0007800310000000403090409023B00020148
:1002B00000A0FA0904000001030101000921110155
:1002C00000012240000705810308000A090401001B
:1002D0000103000000092111010001226D00070542
:1002E000820320000A12011001000000083174028C
:1002F0003302000102000105010980A101850319F3
:10030000012AB700150126B700950175108100C0BC
:10031000050C0901A101850419012AA00215012675
:10032000A002950175108100C005010906A1018593
:1003300005050719E029E7150025019508750181D4
:10034000020507190029EF1500250195F0750181B7
:100350000205081901290595057501910295017598
:10036000039101C005010906A101050719E029E76C
:100370001500250195087501810295017508810117
:100380000507190029FF150026FF0095067508814D
:10039000000508190129059505750191029501755A
:1003A000039101C011241FBECFEFD4E0DEBFCDBF4B
:1003B00004B603FE27C08091960290919702A09107
:1003C0009802B09199028730904BA740B04BD1F47E
:1003D000109296021092970210929802109299022F
:1003E00014BE84B7877F84BF0FB6F894A895809118
:1003F0006000886180936000109260000FBEE0E0B2
:10040000F8E3099511E0A0E0B1E0E4E9FFE302C000
:1004100005900D92A839B107D9F722E0A8E9B1E01B
:1004200001C01D92A639B207E1F70E94F2190C949F
:10043000611F0C940000CF93DF939C013A95211526
:100440003F4168F5EC01CC27D170DC01AA27B270DE
:10045000AC01442754709C012227387094FF11C0CE
:1004600080E1CD2B09F480E0AB2B09F08062452BB5
:1004700009F08064232B09F08068FB01DF91CF91A4
:10048000099481E0CD2B09F480E0AB2B09F0826068
:10049000452B09F08460232B81F38860EECFDF9138
:1004A000CF910895CF93DF93EC01805E9109089777
:1004B00020F062E87FE0209711F460E37DE0CE0158
:1004C0000E941B028C2FDF91CF910C94330CCF93A1
:1004D000DF93EC010E94C20CCE01805E9109089767
:1004E00020F069E87FE0209711F467E37DE0CE011A
:1004F000DF91CF910C941B0281E0089581E0089573
:100500000C947E0208950C9482021F93CF93DF9384
:1005100000D000D00F92CDB7DEB749835A836B83EA
:100520003091D00189819A8131111DC06623B9F0C3
:100530002223A9F00E94CF14182F682F89819A8155
:100540000E946C1469817A81812F0F900F900F9017
:100550000F900F90DF91CF911F910C943F030E9459
:10056000A314182FEFCF0E94CF1469817A81EDCFA9
:10057000FC01262F408151816281738184810C941A
:100580008502CF93DF93EC0160E00E94B802BE01C8
:10059000DF91CF910C9483020E947B180E941B165E
:1005A000811102C00E94BF160C944F050E946C0975
:1005B0000C94520508950E94A20F0E94DA022FEFB8
:1005C00084E39CE0215080409040E1F700C00000AF
:1005D0000C9450180F931F93CF93DF93EC0161E0BD
:1005E0000E94B8028C01BE010E948002882359F14A
:1005F000BE01C8010E949809882329F1BE01C801E3
:100600000E94AD078823F9F0BE01C8010E94FF07D0
:100610008823C9F0BE01C8010E942209882399F0ED
:100620008A81882339F001158CE5180751F00F3DB8
:100630001C4579F0CE01DF91CF911F910F910C9461
:100640007C020E94DB0280E0DF91CF911F910F912D
:1006500008950E94BF16F7CF08950C942C0381E0F3
:1006600008950C942F03CF93C82F0E942D038C2F35
:10067000CF910C94310390E080E008950895282FE5
:10068000E62F872F90E06AE070E00E94081FE80FD5
:10069000F92FF11D822F90E068E270E00E94081FA0
:1006A000E80FF91FEE0FFF1FEE56FF4F8591949153
:1006B0000895FC01EE0FFF1FEE58FD4F85919491B8
:1006C0000895CF93DF930E943F030E947404EC01CE
:1006D000811520E5920708F041C0811530E49307A9
:1006E00008F0B6C0803E910518F5803C910508F0F1
:1006F000A0C0883A910570F4853A910508F091C040
:100700008130910501F10097F1F00497E0F4D0E019
:10071000C0E019C08F3B9105D0F7C85AD0E0CC0F8C
:10072000DD1FC95DDE4F0990D881C02DD4640BC098
:10073000811540E2940758F4C11581E0D80718F4F8
:10074000C83ED10520F7CE01DF91CF9108958115E4
:1007500020E3920708F073C09F706DC0811535E5E6
:10076000930770F5811544E5940708F0A5C0C115FD
:1007700082E5D80750F4C11521E5D20708F46BC013
:10078000DC2FCC27C16FD06ADECF9C2F9695969533
:100790009E0123703327C115D34508F07BC0C1E00B
:1007A000D0E002C0CC0FDD1F2A95E2F7892F90E040
:1007B000E5E0880F991FEA95E1F7C82BD92B68C0AF
:1007C000C11589E5D807A8F4C11528E5D20708F0B6
:1007D00078C0C11536E5D30708F099CF8C2F0E9459
:1007E0000B05C82FD0E0DC2FCC27CC27DF71D062DF
:1007F000AACFC1154AE5D40708F468C0CE019056C7
:100800008115904208F083CF8D2F8F710E940B05C8
:1008100090E0982F882788279F719C012C2BE90155
:10082000E6CFC55AD0E0CB5ADE4FC881D0E0D064C5
:100830008ACF805C91090E945903EC0184CF9927EB
:10084000D3FF03C0EC01D86C7ECFEC01D06C7BCF22
:10085000DF70D06A78CFCE01A4E096958795AA95EF
:10086000E1F783702C2F26952695237030E0B5E0B4
:10087000220F331FBA95E1F7382B8C2F8370C1E01C
:10088000D0E002C0CC0FDD1F8A95E2F7C22BD32B3C
:10089000DC6859CFC1E0D0E002C0CC0FDD1F2A9543
:1008A000E2F7892F90E075E0880F991F7A95E1F7BC
:1008B000C82BD92BDA6847CFD82FCC27C46FD06A82
:1008C00042CFDC2FCC27C06FD06A3DCF8C2F8F70EA
:1008D0000E940B0534E0D695C7953A95E1F7CF70A5
:1008E0009C2FEC01D0692FCF82389105B1F1B0F483
:1008F0008133910509F475C048F48932910509F4F2
:1009000069C08A32910509F473C008958533910551
:1009100009F459C08933910501F10895833E910589
:10092000A9F138F4803E9105F9F0823E910549F134
:100930000895863E9105A9F1873E9105C9F1843E4F
:10094000910519F52091880221FF1FC0809187022F
:1009500084FD14C087EE90E00895209187022370F3
:10096000A1F080EE90E008952091870220FD47C01D
:100970003091880230FF09C024FF44C090E080E03D
:1009800004C02091870222FDF7CF089520918702AD
:1009900022FD3BC03091880230FDE3CF24FFF5CF2C
:1009A000EDCF2091870223FFF0CF24FDE7CFD2CFF8
:1009B0002091870223FD2CC03091880231FFEECFB9
:1009C00084EE90E008952091870225FFDECF89E232
:1009D00090E008952091870225FFD7CF85E390E02E
:1009E00008952091870226FFD0CF8AE290E00895F3
:1009F0002091870226FFC9CF81E390E0089589E323
:100A000090E0089583EE90E0089582EE90E00895DE
:100A100086EE90E008959091870292FF06C0282FFD
:100A200028712830F9F4877F846093FF06C0282F4F
:100A300028712831F1F4877E84612091880220FF9B
:100A400006C0382F38713830D9F4877F816021FF94
:100A500006C0282F28712831D1F4877E816194FD4A
:100A6000877E0895282F24712430F9F68B7F8860C3
:100A7000DCCF282F2471243101F78B7E8861DDCFF4
:100A8000382F3171313019F78E7F8860E0CF282FF1
:100A90002171213121F78E7E8861E1CF08950C9478
:100AA0004E0508950C945105E82FF0E0EE0FFF1F5E
:100AB000E558FD4F808191810895089580EA8A95D7
:100AC000F1F7089500C008950C945E05F894E82F9E
:100AD000E295EF70F0E031A1282F2F7081E090E0D7
:100AE00001C0880F2A95EAF7982F9095932391A338
:100AF00092A1892B82A378940895CF93DF93C8E5C0
:100B0000D1E089910E94660581E0C236D807C9F715
:100B100084E60E94660580E30E94660581E30E94E8
:100B2000660582E30E9466051092740210927302B9
:100B300010927C0210927B02109276021092750243
:100B400010927E0210927D0210927802109277022B
:100B50001092800210927F0210927A021092790213
:100B6000109282021092810284E00E945406DF916A
:100B7000CF910C94CC026F927F929F92AF92BF92D2
:100B8000CF92DF92EF92FF920F931F93CF93DF9359
:100B900098E5E92E91E0F92ED0E0C0E010E0CC24F9
:100BA000C394D12C3BE7A32E32E0B32ED7018D9115
:100BB0007D01F894E82FE295EF70F0E021A18F70AD
:100BC000A60102C0440F551F8A95E2F7CA01922F71
:100BD000982B91A392A18095892382A378940E9457
:100BE0006205A6010C2E02C0440F551F0A94E2F7BD
:100BF000BA0160957095E3E7F2E082E6682E81E045
:100C0000782E00E021913191D3019D903D01892DF5
:100C100082958F7090E0DC0190968C9190E0B92DD8
:100C2000BF7002C095958795BA95E2F780FD38C0F0
:100C3000C901842B952B2817390739F09F012250C1
:100C40003109D9018D939C9301E0AE16BF06D1F610
:100C5000F701319780810E946605C93011F00E942A
:100C60006405102B2196CA30D10509F09FCF212FA2
:100C700044E06BE772E083E792E00E9455060E9431
:100C8000D602812FDF91CF911F910F91FF90EF90AE
:100C9000DF90CF90BF90AF909F907F906F9008951E
:100CA000C90186239723C7CF0895FF920F931F93FF
:100CB000CF93DF93F82E092F162FD72FC42F22237F
:100CC00049F081E080939C010E94051890939B015C
:100CD00080939A0180919C018823A1F080919A01D0
:100CE00090919B010E941D18069760F0EF2DF02F48
:100CF000A12FBD2F90E080E0D0E08C179D0744F03D
:100D000010929C01DF91CF911F910F91FF90089558
:100D1000219131912D933D930196EFCF0F931F9326
:100D200041E050E060E070E08A019B0104C0000FE8
:100D3000111F221F331F8A95D2F7C901B8010E94E3
:100D40006E131F910F910C94A20FEBEFE80FEF338E
:100D500008F05AC0F0E0ED59F04E0C94191F0E94B3
:100D6000BF1681E0089580914F02807F80934F02EB
:100D700081E080939D0108950E94DB02F2CF909163
:100D80004F02892F8E7F90FF816080934F0280FDFC
:100D9000E8CF817F80934F02E4CF90914F02892F5B
:100DA0008D7F91FF826080934F0281FFDACF809127
:100DB0004F028160EFCF90914F02892F8B7F92FF7E
:100DC000846080934F0282FDF2CFCBCF90914F028F
:100DD000892F877F93FF886080934F0283FDE7CF41
:100DE000C0CF0E94A20F90918702892F97FB87F9AD
:100DF000805880938702B5CF80E00E948E06B1CFE5
:100E00008953FBCF8D51F9CF80E0089580E008959C
:100E10000C940607CF93C82F80919D01882331F051
:100E2000813099F010929D0180E00DC00E94641500
:100E30008232D1F78C2F0E940607811116C08C2FA9
:100E40000E94A5068170CF9108950E946415823298
:100E500089F38C2F0E940807811105C0C43171F0FD
:100E600038F4CB3079F781E0EDCF81E090E0EACF44
:100E7000C93221F0C833B9F380E0E4CF10929D016C
:100E8000FBCF0F931F93CF93DF93C42FD22FFC017F
:100E900082818823C9F04093A0010E940518909395
:100EA0009F0180939E0180E28C0F883008F050C033
:100EB000C77081E001C0880FCA95EAF7DF91CF9132
:100EC0001F910F910C94300D1091A001141335C097
:100ED00080919E0190919F010E941D18893B910570
:100EE00060F5C0E2CD0F1D17B9F080E2810F8830A8
:100EF00040F4177081E001C0880F1A95EAF70E944C
:100F0000370DC83048F481E09D2F977001C0880FDD
:100F10009A95EAF70E94300D802F0E94280DC83064
:100F2000B8F4D77081E001C0880FDA95EAF7DF9155
:100F3000CF911F910F910C94370D80E28C0F883068
:100F400038F4C77081E001C0880FCA95EAF7EFCF87
:100F5000DF91CF911F910F9108950F939C01CB01C9
:100F6000243F4CE5340759F1A8F4293DFCE53F073F
:100F700001F12A3D4CE53407D1F1283D3C4591F47F
:100F800006E221EE41EE68ED7CE50E94410780E03B
:100F90000F910895263FFCE53F07E9F0B0F0273FA9
:100FA0003C45F9F0FC018281882339F11092A001BF
:100FB000EFCF07E225EE45EE69ED7CE5E6CF06E2F0
:100FC00021EE40EE64EF7CE5E0CF07E225EE44EE53
:100FD00065EF7CE5DACF06E221EE42EE66EF7CE5D6
:100FE000D4CF07E225EE46EE67EF7CE5CECF08E2F0
:100FF00021E045EE6AED7CE5C8CF81E0C9CFCF9313
:10100000DF93EC01FB018281882309F419C1C2300E
:10101000FCE5DF07C0F1C6319CE5D90730F09E0141
:101020002B5F3C452930310570F50E942E169093B8
:10103000880280938702C031ECE5DE0709F4CFC057
:1010400008F05BC0C8308CE5D80709F4B6C088F555
:10105000C430ECE5DE0709F4A8C0C0F4C2308CE56A
:10106000D80709F49CC0809187028260C330DC45B8
:1010700009F498C080918702909188020E943C16E2
:101080000E94A20F80E0DF91CF91089580918702A6
:101090008061C630ECE5DE0709F484C080918702E8
:1010A0008860C730DC4508F47DC08091870280628B
:1010B00079C0CC308CE5D80709F489C070F48091F0
:1010C00087028C60CA30ECE5DE0709F46BC008F4D7
:1010D00078C0809187028E7F65C0CE308CE5D807BE
:1010E00009F479C0809187028B7FCF30DC4508F40A
:1010F00059C0809187028F7E55C0CC3FECE5DE075A
:1011000009F457C030F5C3318CE5D80709F46FC036
:1011100078F4C131ECE5DE0709F465C0C231DC4585
:1011200009F0A8CF0E94A20F809187028F773AC062
:10113000C5318CE5D80709F462C008F476C0809107
:1011400088028160CB3FDC4509F094CF8093880210
:1011500091CFC115FDE5DF0709F44DC088F48091FA
:1011600088028D7FCE3F9CE5D90781F3809188026C
:101170008E7FCF3FDC4550F3809188028360E6CFBD
:10118000C230FDE5DF0709F459C008F444C080E02F
:10119000C330DD4509F06ECF0E94C1166BCF809140
:1011A000870281608093870265CF80918702846087
:1011B000F9CF809188028260C9CF809187028064D4
:1011C000F1CF0E94A20F809187028068EBCF8091BF
:1011D00087028D7FE7CF80918702877FE3CF809161
:1011E00087028F7DDFCF809187028F7BDBCF80915D
:1011F0008702837FD7CF809188028C7FA7CF809191
:10120000870282FB992790F921E0922790FB82F9CF
:1012100090FB83F9C7CF80918802982F90959170A9
:101220008E7F892B90FB81F991CF0E94A20F909124
:101230008702892F97FB87F98058B4CF81E0ACCF24
:1012400081E021CFCF93DF93EB0186319C4511F5EF
:101250000E9464159A81992399F08A7A91E009F4A1
:1012600090E09093A101811109C089E20E943F158D
:101270000E94B01580E0DF91CF91089585E3F6CF0D
:101280008091A101811104C089E20E944615F0CF2E
:1012900085E3FBCF81E0EFCFCF939091B20199230B
:1012A00021F0811116C01092B201CF910895EC2F58
:1012B000F0E0EE0FFF1FEE55FE4F808191810E94FE
:1012C00052020E94B015CF5F8091B201C81778F327
:1012D000EACFC0E0F9CF089580911901882399F0F1
:1012E0008091B301882379F08091B7019091B80182
:1012F000009749F00E941D184A9728F01092B301F8
:1013000081E00C944C0908951092B30110921901D8
:101310001092B8011092B70181E00C944C098091B1
:10132000190181110C94840981E0809319010895B9
:101330006F927F928F929F92AF92BF92CF92DF92E5
:10134000EF92FF920F931F93CF93DF937C016B017A
:101350001092B401883F4CE59407B9F4FB01C281B7
:10136000CC2341F181E0809319018C2FDF91CF9143
:101370001F910F91FF90EF90DF90CF90BF90AF90B3
:101380009F908F907F906F900895893FFCE59F0715
:1013900039F4FB01C281CC2369F00E948409E5CFB6
:1013A0008A3F9C4539F4FB01C281CC2319F00E948D
:1013B0008F09DBCFD0911901C1E0DD23B1F210928A
:1013C000B6011092B501C0E088248394912C772453
:1013D00073940091B5011091B6010530110588F0A4
:1013E0008091B401882309F49BC00E940518909352
:1013F000B8018093B70180E00E944C0981E0C827C2
:10140000B4CFC80165E070E00E94081F80509F4F74
:10141000FC01808191813FEF20E0E22FF0E0EE0FB0
:10142000FF1FE80FF91F45915491E416F50609F4E2
:10143000322F452B11F02F5FF0CF3F3FD9F4612CB5
:10144000C629DD2359F0C80165E070E00E94081F3D
:1014500080509F4FD1E0FC0184818111D0E0D17098
:101460008091B5019091B60101969093B601809359
:10147000B501AFCF6090B301F6014281C80165E0CC
:1014800070E00E94081FFC01E050FF4F948154015E
:1014900001C0AA0C3A95EAF74423E1F0A92AA482F4
:1014A000662069F2C40102C0880F991F2A95E2F7ED
:1014B0000197A816190621F682819381009729F0D9
:1014C0000E9452027092B401BBCF61E0C8010E9439
:1014D0006B09F8CFA40102C0440F551F2A95E2F70B
:1014E0009A012150310992171306C1F48281938128
:1014F000009779F00E946702C80165E070E00E94E1
:10150000081FFC01E050FF4FA0949481A922A482FF
:1015100097CF60E0C8010E946B09EECF612CECCF41
:10152000C1110EC081E00E944C09DD2309F466CF91
:101530001092B8011092B70181E08093B3015ECFA1
:10154000F6018281882309F459CF8091B301882361
:1015500009F454CF0E9405189093B8018093B70105
:10156000E091B201E83008F049CF81E08E0F80931E
:10157000B201F0E0EE0FFF1FEE55FE4FF182E08268
:101580003DCF9093BE018093BD010895E091BD01D0
:10159000F091BE01309721F00190F081E02D099487
:1015A00080E00895E091BD01F091BE01309799F07F
:1015B00020912601222359F02091870227FF07C09E
:1015C000DC012C9111962C93119725E02C9302802D
:1015D000F381E02D099408952091BB013091BC0165
:1015E0002817390771F09093BC018093BB01E091FB
:1015F000BD01F091BE01309721F00680F781E02D0A
:10160000099408952091B9013091BA01281739073A
:1016100071F09093BA018093B901E091BD01F0910E
:10162000BE01309721F00084F185E02D09940895E2
:101630000E9411186093CC017093CD018093CE016C
:101640009093CF016093C8017093C9018093CA0140
:101650009093CB010895089508950C942B0B089551
:101660000C942F0B83E196E10E9474180E942C0BBE
:101670000C942D0B81E008950C943A0B0895089575
:101680000E94FC170E947D050E948F180C94300B5D
:101690008F929F92AF92BF92CF92DF92EF92FF9282
:1016A0000F931F93CF93DF93CDB7DEB72A970FB673
:1016B000F894DEBF0FBECDBF0E943E0B0E943F0BD1
:1016C0000E94BB0581110E94180B50EC852E51E041
:1016D000952E10E000E0A02E802F0E9454056C0192
:1016E000F401E190F1904F01E816F90609F45AC0AF
:1016F00080914F0281FD0E945D05C7018C259D25CB
:10170000B12CEE24E394F12C9C012E213F21232BBC
:1017100009F442C00E943C0B8823A9F0BE82AF822C
:10172000CE20DF2081E0CD2809F480E088870E9468
:1017300005188160782F9A8789874E815F81688537
:101740008A850E94FC0B000F111FF801E054FE4F28
:1017500080819181E826F926F182E0820E94C60A02
:101760009091BF018917A9F10E94C60A8093BF0119
:101770002A960FB6F894DEBF0FBECDBFDF91CF9192
:101780001F910F91FF90EF90DF90CF90BF90AF909F
:101790009F908F900C943303B394EE0CFF1CFAE0EF
:1017A000BF12B2CF0F5F1F4F0430110509F093CF66
:1017B0008FEF89838A831B820E9405188160782FAE
:1017C0009D838C8349815A816B818D810E94FC0BA2
:1017D000C5CF2A960FB6F894DEBF0FBECDBFDF91FE
:1017E000CF911F910F91FF90EF90DF90CF90BF901E
:1017F000AF909F908F900895DF92EF92FF920F939A
:101800001F93CF93DF93CDB7DEB72B970FB6F89426
:10181000DEBF0FBECDBF7A878B87F42E052F162F24
:10182000E72ED82E61110E9484151E821D827E2D06
:10183000EC82DD824F2D502F612F8D2D9E812B96B6
:101840000FB6F894DEBF0FBECDBFDF91CF911F91D1
:101850000F91FF90EF90DF900C944812FC01808173
:1018600091810C941115CF93C82F882309F488C057
:101870008238C1F40E94C60A81FD82C089E30E94B9
:101880003F150E94B0152FEF81EE94E0215080406B
:101890009040E1F700C0000089E30E944615CF9117
:1018A0000C94B0158338A1F40E94C60A80FD68C06C
:1018B00083E50E943F150E94B0152FEF81EE94E062
:1018C000215080409040E1F700C0000083E5E5CF63
:1018D0008438A1F40E94C60A82FD52C087E40E94A7
:1018E0003F150E94B0152FEF81EE94E0215080400B
:1018F0009040E1F700C0000087E4CFCF8CEF8C0F61
:10190000813AB8F48C2F0E940A07811139C06C2FDC
:1019100080911A0190911B010E94DA16882329F008
:101920008C2F0E9446150E94B0158C2F0E943F15E7
:10193000B6CF80E28C0F883048F4C77081E001C0D8
:10194000880FCA95EAF70E946715A9CFEBE5EC0F5F
:10195000E33040F4F0E0EC56FE4F808190E0CF9110
:101960000C94EC0AC85AC73158F4EC2FF0E0EE0F93
:10197000FF1FEA59FE4F80819181CF910C94020B99
:10198000CF910895882309F44BC0823871F40E94E6
:10199000C60A81FF45C089E30E943F150E94B01529
:1019A00089E30E9446150C94B015833859F40E94BF
:1019B000C60A80FF35C083E50E943F150E94B0151E
:1019C00083E5EFCF843859F40E94C60A82FF28C00D
:1019D00087E40E943F150E94B01587E4E2CF9CEF98
:1019E000980F913AF0F290E2980F983050F4877087
:1019F00091E001C0990F8A95EAF7892F0E946D1531
:101A0000D2CF9BE5980F933020F490E080E00C94C7
:101A1000EC0A885A873120F490E080E00C94020BA5
:101A200008951F93CF93DF93182FEB010E94330C7F
:101A3000209731F4812FDF91CF911F910C94C20C2C
:101A40008FE99FE00197F1F700C000002197F0CFE8
:101A500070E060E0893311F460E570E00C94110DE2
:101A6000882321F00E9467150C94B01508958823EF
:101A700021F00E946D150C94B0150895BF92CF927D
:101A8000DF92EF92FF920F931F93CF93DF937C012E
:101A9000D62FC72FFC011281058102950F700E947D
:101AA0005D15D82E8823A1F0D12E112389F08C2F1B
:101AB000807F803429F080E28D0FD12C883040F077
:101AC00082E00E94FB150E945D1591E0D82ED92678
:101AD000CC2EC2949FE0C922EC2DF0E0EE55F04EE2
:101AE0000C94191F0C2F0F70C07F11F00295007F0E
:101AF0001123A9F0002359F080E28D0F883010F0F7
:101B0000D11109C0802F0E9467150E94B0158D2F3A
:101B10000E94330C14C0802F0E947715F6CF8D2FB2
:101B20000E94C20C002359F080E28D0F883010F023
:101B3000D1112CC0802F0E946D150E94B0152C2D44
:101B40002850330B2430310520F40E94C60A0E942D
:101B50003303DD2009F48DC10E94591580FD89C130
:101B6000F70112820E9453150E94D013C7010E94F0
:101B70005A0F0E945315DF91CF911F910F91FF9043
:101B8000EF90DF90CF90BF900C94F113802F0E94C4
:101B90007D15D3CFFC2FFF70BF2EC07FC03219F050
:101BA000B29480EFB822DD2339F0D13019F111233E
:101BB00061F1002321F1ABCF112381F0011106C0A7
:101BC0000E9497158B290E94300DB9CF0130C1F7C3
:101BD0000E9497158B290E949D15B1CF011106C057
:101BE0000E94A6158B2D0E94370DA9CF013009F454
:101BF000A6CFF6CF112329F0063008F0A0CF8B2D09
:101C0000E2CF053008F09BCFEDCF002359F3D93355
:101C100049F42FEF37EE83E0215030408040E1F768
:101C200000C000008D2F0E94C20C89CF8C2F86959A
:101C30008695837069F0813009F081CF8D2F9C2FBC
:101C40009370111102C090E080E00E94020B77CFE8
:101C50008D2F9C2F9370111102C090E080E00E94A4
:101C6000EC0A6DCF8C2F837009F041C0111167CF42
:101C70004D2F429546954770440F440F0D2F0F701E
:101C800010E030E020E0042E04C0000F111F221FDE
:101C9000331F0A94D2F760E070E0CB01D4FF0FC08D
:101CA0006FE070E080E090E004C0660F771F881F4F
:101CB000991F4A95D2F76095709580959095C69535
:101CC000C695C370602B712B822B932BC23049F0C9
:101CD00058F4C13019F00E94821331CF0E94701362
:101CE0002ECF0E9494132BCF0E946E1328CF86957F
:101CF000112311F08C2F8170882309F420CF4D2FF0
:101D0000429546954770440F440F0D2F0F7010E019
:101D100030E020E0042E04C0000F111F221F331FEB
:101D20000A94D2F760E070E0CB01D4FF0FC06FE0FF
:101D300070E080E090E004C0660F771F881F991F55
:101D40004A95D2F76095709580959095C695C69501
:101D5000C370602B712B822B932BC23049F058F447
:101D6000C13019F00E944714EACE0E943514E7CE24
:101D70000E945914E4CE0E94AA13E1CECF70112321
:101D800029F08C2F0E94D0138D2F1DCF8D2F0E94F4
:101D9000370D8C2F0E94F113D2CED23F89F160F41F
:101DA000D03FC9F0D13F29F1112309F442C00111FC
:101DB000AECE8C2F8F7121C0D33F39F1D43FA1F724
:101DC000112369F1CF718C2F0E94D01363E08C2F07
:101DD0000E94E615B4CE112341F0053008F0AFCED5
:101DE0008C2F8F710E941414AACE063008F0A7CE53
:101DF000F7CF8C2F8F71112369F20E94D0139FCEE1
:101E00008C2F8F711123C9F3C5CF112329F08C2F8B
:101E10008F710E94BB1393CE0E94B61390CE81E0C7
:101E20000E94FB15023008F48ACE82E00E94FB1566
:101E300086CE002359F0D93309F0F4CE9FEFE7EEB8
:101E4000F3E09150E040F040E1F7EACE8C2F8F7143
:101E5000A1CF4C2F4F706D2FC7010E943B030E94F2
:101E6000E6126DCE4C2F4F706D2FC7010E943E03BE
:101E700066CEDF91CF911F910F91FF90EF90DF9091
:101E8000CF90BF9008950F931F93CF93DF93EC01F2
:101E9000688179818A810E941B158C010E946B14D4
:101EA0000E946D13B801CE01DF91CF911F910F9168
:101EB0000C943E0DCF93DF93EC018B819C81892B99
:101EC00029F08881998189238F3F59F4DF91CF913F
:101ED0000895CE010E94430FCE01DF91CF910C9463
:101EE000C102CE010E94EA028111F3CF0E945D156A
:101EF000882361F38A81882349F382E0DF91CF91BF
:101F00000C94FB15882321F00E9477150C94B015D2
:101F10000895882321F00E947D150C94B015089532
:101F200090E080E00E94EC0A90E080E00E94020BCA
:101F30000E9484150E9494150C94B0150E944D15B2
:101F40000C94900F0E9474150C949E0FE92FE2954B
:101F5000EF70E250EE3070F4F0E0EE54F04E0C947E
:101F6000191F803F19F020F4883E20F481E0089585
:101F7000843FE1F380E00895883EC0F3813FD1F7CC
:101F8000F5CF93FB882780F908950E9411150C94D2
:101F9000A60FCF93DF9300D000D00F92CDB7DEB75E
:101FA0000F900F900F900F900F90DF91CF910895A9
:101FB000CF93DF9300D000D000D0CDB7DEB7269608
:101FC0000FB6F894DEBF0FBECDBFDF91CF9108955D
:101FD000CF93DF93C091D1018091D2018C1303C0C4
:101FE000DF91CF910895D0E0CE0166E070E00E94CD
:101FF000081FFC01ED52FE4F4081518162817381C7
:10200000848195810E94D80F2196C770E5CF4091B9
:1020100003025091040260910502709106028091C2
:102020000702909108020C94D80FCF93B82FC62FB7
:102030002091D101A091D2012A1303C080E0CF9159
:10204000089530E0C90166E070E00E94081FFC01BD
:10205000ED52FE4F81818C1306C080818B1303C02B
:102060008281841304C02F5F3F4F2770E5CF81E04A
:10207000E6CF1F93CF93DF9380910802807FA1F476
:1020800080910502882381F02091D101B091D20185
:1020900040910302A0910402C0910602D091070270
:1020A000142F1A23B21304C0DF91CF911F9108950A
:1020B00030E0209711F01F3F21F42F5F3F4F277032
:1020C000F1CFC90166E070E00E94081FFC01ED52EB
:1020D000FE4F81818A13F1CF80818413EECF8281FC
:1020E0008111EBCF838194818C1B9D0B893B9105E2
:1020F00020F7809108028F70806180930802C901E7
:1021000066E070E00E94081FFC01E852FE4F9081DB
:102110009F709061908383E092E00E945A0FDF915C
:10212000CF911F910C94E80F8F929F92AF92BF9224
:10213000CF92DF92EF92FF920F931F93CF93DF9393
:10214000CDB7DEB761970FB6F894DEBF0FBECDBF37
:102150008C0185E0F801DE011D9601900D928A95B3
:10216000E1F7D801EC901196FC9011971296CC9063
:10217000129783E0A82E82E0B82E4091060250917B
:1021800007024115510509F461C1909103022091A4
:102190000402892F82238F3F09F458C113968D9032
:1021A0009C901497D0900502F401E41BF50BDD2000
:1021B00009F419C180910802382F307FE93BF105FD
:1021C00008F0D0C0311189C0DC2C2F1126C09E111F
:1021D00024C0C11022C08F708061809308020E94C9
:1021E0000710C5010E945A0F80910802D801159668
:1021F0008C938D2D61960FB6F894DEBF0FBECDBFC8
:10220000DF91CF911F910F91FF90EF90DF90CF90D2
:10221000BF90AF909F908F9008958114910429F002
:102220008F2D8E218F3F09F030C180E080FF15C0D7
:102230004C2D6F2D8E2D0E941510882371F083E098
:1022400092E00E945A0F86E0E3E0F2E0DF011D9287
:102250008A95E9F70E9407103EC0892829F08F2D42
:102260008E218F3F09F00EC180E0B82FB170AB2EE8
:1022700080FF29C04C2D6F2D8E2D0E941510B82E79
:10228000811121C0ED86FE868D859E850E941115E7
:10229000292F22952F70223050F0243078F49F702F
:1022A00051F0F8019581907F31F4DB2CA2CF9F7023
:1022B00011F08823D1F3805E8830B8F3C8010E9402
:1022C0005A0FBA2CF2CFCC2009F493CF8091080298
:1022D000816080930802D12C8CCF2F1114C09E11E5
:1022E00012C0C11010C015968C93C8010E945A0FDD
:1022F00086E0F801A3E0B2E001900D928A95E1F743
:102300000E94071076CFED86FE868D859E850E9401
:10231000C50F882319F1CC2009F180910802803281
:1023200070F0209103023091040238872F831986C0
:102330009B868A868C87CE0107960E945A0F86E07C
:10234000F801A3E0B2E001900D928A95E1F70E94B6
:1023500039100E940710DD24D3944BCFC8010E948E
:102360005A0FF9CF311112C0782D998A888AA701A6
:102370006C2D89890E94C90F83E092E00E945A0F58
:1023800086E0F50111928A95E9F764CF2F110FC00D
:102390009E110DC0C1100BC015968C93C8010E94F0
:1023A0005A0F86E0F50111928A95E9F722CFED8662
:1023B000FE868D859E850E94C50F882379F2CC20EC
:1023C00069F280910802803208F4B9CF20910302AB
:1023D000309104023A8329831B829D828C828E83F2
:1023E000CE010196AACFE93BF10510F5DC2CCC20FB
:1023F00009F4B4CF2F110BC09E1109C086E0F8017B
:10240000A3E0B2E001900D928A95E1F7F2CEED865D
:10241000FE868D859E850E94C50F811190CF80918B
:102420000802816080930802C8010E945A0FE1CE21
:10243000782D998A888AA7016C2D89890E94C90FF5
:1024400086E0D5011D928A95E9F75ACFCC2009F490
:1024500085CFED86FE868D859E850E94C50FD82E80
:10246000882309F47BCF86E0F801A3E0B2E0019075
:102470000D928A95E1F783E092E00E942E0C0E9473
:1024800039103ECF81E08C25F0CE81E08C25CECE78
:10249000CF93DF93CDB7DEB72C970FB6F894DEBF9E
:1024A0000FBECDBF4F83588769877A878B879C87FC
:1024B000CE0107960E9494108823D1F08A859B85CF
:1024C000892B39F04F815885842F85238F3F09F060
:1024D00076C08091D1019091D201891349C02C9688
:1024E0000FB6F894DEBF0FBECDBFDF91CF91089538
:1024F00086E0FE013796DE01119601900D928A95D5
:10250000E1F78A859B85892B21F38F819885892323
:102510008F3FF9F28091D20190E09C012F5F3F4FF5
:10252000277033274091D1014217130671F40E949E
:10253000A20F1092D2011092D10186E0E3E0F2E006
:10254000DF011D928A95E9F7C4CF66E070E00E9432
:10255000081FDC01AD52BE4F96E0FE01319601909E
:102560000D929A95E1F72093D2010E94E80FB1CF26
:1025700090E066E070E00E94081F8D529E4F0E941E
:102580009410882309F4ABCF8091D10190E066E0EC
:1025900070E00E94081FFC01ED52FE4F4081518106
:1025A00062817381848195810E94D80F8091D101CD
:1025B00090E00196877099278093D1018ACF698531
:1025C0007A858B859C850E94D80F83CFEF92FF92EE
:1025D0000F931F93CF93DF938C01892B81F0F12C04
:1025E000EE24E394E8012196F8018491843770F495
:1025F000843008F05FC08130B1F08230A1F1DF910A
:10260000CF911F910F91FF90EF900895853709F4B6
:102610004CC008F43DC09CE7980F903780F78F7747
:102620000E94C20C49C00E5F1F4FFE01849190E2D0
:10263000980F983060F48770FE2D01C0FF0F8A95C7
:10264000EAF78F2F0E9487150E94B01502C00E94E2
:10265000330C8F2D815030F2EFE9FFE03197F1F725
:1026600000C00000F7CF0E5F1F4FFE01849190E283
:10267000980F983050F48770FE2D01C0FF0F8A9597
:10268000EAF78F2F0E948D15DFCF0E94C20CE1CF99
:102690000E5F1F4FFE01C491C150D8F28FE99FE039
:1026A0000197F1F700C00000F7CF0E5F1F4FFE014A
:1026B000F490CFCF0E94330C8E01CBCF08950C94B1
:1026C0005E130E945F13609326027093270280932B
:1026D0002802909329020C94900F08950C94611392
:1026E0000F931F9300912602109127022091280238
:1026F00030912902602B712B822B932B1F910F910C
:102700000C9461130F931F930091260210912702DE
:102710002091280230912902602371238223932380
:102720001F910F910C9461130F931F930091260238
:1027300010912702209128023091290260277127E9
:10274000822793271F910F910C9461130C945E13B1
:102750000C94A6130E94A813609322027093230284
:1027600080932402909325020C94900F60E070E017
:10277000CB010C94AA130F931F9341E050E060E04B
:1027800070E08A019B0104C0000F111F221F331F3C
:102790008A95D2F7C901B8011F910F910C94AA1321
:1027A0000F931F9341E050E060E070E004C0440FDD
:1027B000551F661F771F8A95D2F78091220290914C
:1027C0002302A0912402B09125028A019B01082BCB
:1027D000192B2A2B3B2BC901B8011F910F910C9487
:1027E000AA130F931F9341E050E060E070E004C033
:1027F000440F551F661F771F8A95D2F7CB01BA0188
:102800006095709580959095009122021091230219
:102810002091240230912502602371238223932387
:102820001F910F910C94AA130F931F9341E050E056
:1028300060E070E004C0440F551F661F771F8A9543
:10284000D2F78091220290912302A0912402B091AC
:1028500025028A019B01082719272A273B27C9013E
:10286000B8011F910F910C94AA130F931F9300911D
:102870002202109123022091240230912502602B24
:10288000712B822B932B1F910F910C94AA130F93F2
:102890001F93009122021091230220912402309173
:1028A000250260237123822393231F910F910C949F
:1028B000AA130F931F9300912202109123022091DB
:1028C00024023091250260277127822793271F91C8
:1028D0000F910C94AA130895CF93DF93282F362FCE
:1028E000892F6AE00E94FF1E820F982F9770E1E007
:1028F00001C0EE0F9A95EAF786958695869590E049
:1029000065E070E00E94081FDC01A75FBD4F50E04A
:1029100040E0632F70E08D91ED0121979B01042E23
:1029200002C0369527950A94E2F721702195282751
:102930002E23282728834F5F5F4F4530510559F7D5
:10294000DF91CF910895282F892F6AE00E94FF1E02
:10295000820FA82FA77086958695869590E065E0F2
:1029600070E00E94081FFC01E75FFD4F50E040E06F
:1029700080E0219130E00A2E02C0369527950A9416
:10298000E2F721703327042E01C0220F0A94EAF7E0
:10299000822B4F5F5F4F4530510559F70895BF9225
:1029A000CF92DF92EF92FF920F931F93CF93DF931B
:1029B0008C01C0902202D0902302E0902402F0907B
:1029C00025028091260290912702A0912802B091C1
:1029D0002902C82AD92AEA2AFB2ACFE1D0E0BC2E54
:1029E000D701C6010C2E04C0B695A795979587957B
:1029F0000A94D2F780FD0EC0219788F7B12C8B2D59
:102A0000DF91CF911F910F91FF90EF90DF90CF90CA
:102A1000BF900895B8018C2F0E946103019761F364
:102A2000EECFCF93DF93EC010E94CF14BE01DF9174
:102A3000CF910C9461031F93CF93DF93EB0190919F
:102A4000D001992331F0CB01DF91CF911F910C94EC
:102A50001115882379F0CB010E94CF14182F682F0D
:102A6000CE010E946C14BE01812FDF91CF911F9186
:102A70000C946103CB010E94A314182FF4CF682F8C
:102A800080911A0190911B010C945A17682F809124
:102A90001A0190911B010C94651780911A01909175
:102AA0001B010C94701780912A0285958595859558
:102AB000089580912A028770089590912A02977054
:102AC00081E009F480E0089580914E02089590918C
:102AD0004E02892B80934E020895809590914E026C
:102AE000982390934E02089510924E02089590916B
:102AF0004D02892B80934D020895809590914D024F
:102B0000982390934D02089510924D02089590914C
:102B10004C02892B80934C020895809590914C0231
:102B2000982390934C02089510924C02089580913E
:102B30002B02089508950C949A1590912B029817E2
:102B400021F080932B020C949B15089580912B0209
:102B5000882329F010922B0280E00C949B15089595
:102B6000E0911A01F0911B0180914E028083E09167
:102B70001A01F0911B01808190914D02892B808375
:102B8000E0911A01F0911B01808190914C02892BF8
:102B9000808390912B02992381F0E0911A01F091AA
:102BA0001B018081892B808380911A0190911B01E8
:102BB0000E94C61681110E94A61580911A0190915B
:102BC0001B010C94D20A08950C94E315982F990FC9
:102BD000990F990F962B90932A020E94D0138091FF
:102BE0002A028595859585950C94E41510922A0204
:102BF00080E00C94E41590912A02809589238093BB
:102C00002A02282F277071F4282F082E000C330B6E
:102C10009217130639F08595859585950E94F113D5
:102C20000C94F615089580E008956FEF7FEF90E023
:102C300080E00C944B1F90E080E00E94271F21E071
:102C40008B3E9E4F09F020E0822F089582E090E0B5
:102C50000C941F1F83E090E00C941F1FCF9384E01F
:102C600090E00E941F1FC82F81E290E00E941F1F6A
:102C7000982F8C2FCF910895CF93C92F682F84E080
:102C800090E00E942D1F6C2F81E290E0CF910C9478
:102C90002D1FAB01BC018FE090E00C943F1FAB01F6
:102CA000BC0183E190E00C943F1F60E070E0CB0139
:102CB0000C944F1660E070E0CB010E9449160C9412
:102CC00055166BEE7EEF90E080E00E944B1F60E0B7
:102CD00082E090E00E942D1F60E083E090E00E947F
:102CE0002D1F109226021092270210922802109295
:102CF000290260E084E090E00E942D1F60E081E204
:102D000090E00E942D1F60E085E090E00E942D1F62
:102D100060E086E090E00E942D1F6FEF87E090E07A
:102D20000E942D1F40E050E0BA0188E090E00E9430
:102D30003F1F60E08DE090E00E942D1F40E050E0DA
:102D4000BA0188E190E00E943F1F60E087E190E0D7
:102D50000E942D1F40E050E0BA018CE190E00E94FB
:102D60003F1F60E080E290E00E942D1F40E050E0B5
:102D7000BA0188E190E00E943F1F0C945A160C940F
:102D80006116682F8EE090E00C942D1FFC013296A6
:102D900080912601882321F0809187029EE187FFA0
:102DA00096E080E0915008F4089521912223D1F318
:102DB0008F5FF8CF662301F1209126012223F1F0E5
:102DC0002091870227FF1AC0462F469546954695C3
:102DD0004E3190F4677021E030E002C0220F331FC3
:102DE0006A95E2F7840F911DFC01828190E028230F
:102DF000392381E0232B69F480E00895FC013296A9
:102E000008962191261721F0E817F907D1F7F4CF9A
:102E100081E008959C01FC0132969FEF80E0419192
:102E2000461751F09F3F19F4411101C0982F8F5F51
:102E30008630A9F79F3F09F40895290F311D97FDAA
:102E40003A95F90162830895FC0132960896219122
:102E5000261303C0DF0111971C92E817F907B9F791
:102E60000895E62FE695E695E695EE3168F4E80FCD
:102E7000F92FF11D677021E030E001C0220F6A9543
:102E8000EAF78281822B82830895E62FE695E69504
:102E9000E695EE3170F4E80FF92FF11D677021E02F
:102EA00030E001C0220F6A95EAF72095828128233D
:102EB0002283089520912601222329F02091870260
:102EC00027FD0C9431170C940A1720912601222318
:102ED00029F02091870227FD0C9445170C942417A4
:102EE000FC01329680912601882351F0809187025F
:102EF00087FF06C08EE1DF011D928A95E9F70895EC
:102F000086E0F9CF089508950C94831780918D027F
:102F1000843049F10E94841780E00E9433031092AC
:102F2000500288E190E020E40FB6F894A8958093D1
:102F300060000FBE2093600083B7817F846083BFF1
:102F400083B7816083BF7894889583B78E7F83BF72
:102F50000FB6F894A8958091600088618093600016
:102F6000109260000FBE08950895CF930E948217BB
:102F70000E94BB050E94B417C0E08C2F0E9454052C
:102F8000892B31F4CF5FC430C1F780E0CF91089531
:102F900081E0FCCF08950C94CA170E94A20F0E94F2
:102FA000C60A0E9433030C94CB171F921FB61F92C0
:102FB00011248F939F93AF93BF93809150028111FF
:102FC00013C08091830290918402A0918502B091F8
:102FD00086024196A11DB11D8093830290938402C5
:102FE000A0938502B0938602BF91AF919F918F917C
:102FF0001F901FBE1F90189582E084BD93E095BD81
:103000009AEF97BD80936E0008952FB7F894809142
:10301000830290918402A0918502B09186022FBF15
:1030200008952FB7F8946091830270918402809183
:103030008502909186022FBF08959C014FB7F894A6
:103040008091830290918402A0918502B0918602C2
:103050004FBF821B930B089578941F921FB61F9247
:1030600011248F939F93AF93BF938091830290918C
:103070008402A0918502B09186020196A11DB11D26
:103080008093830290938402A0938502B09386027A
:10309000BF91AF919F918F911F901FBE1F90189568
:1030A00081E08093E00080E28093D8001092C90014
:1030B0008FE19EE40197F1F700C0000087E090EBFC
:1030C000DC018093960290939702A0939802B093AC
:1030D000990288E19CE00FB6F894A895809360006F
:1030E0000FBE90936000FFCF909399018093980159
:1030F00008950C9415160E94BB058FE39CE9019777
:10310000F1F700C000000E94BB0580E00E9454055A
:1031100080FF04C00E9479180C94501808950E94F2
:103120001B16811102C00E94BF160E9426168093B2
:103130004F020E942E1690938802809387020E946D
:103140002A16682F70E090E080E00E946E13609174
:1031500022027091230280912402909125020C9406
:10316000A8138091710208950895CF93DF9300D042
:103170000F92CDB7DEB790918D02943019F5898307
:103180007B836A8382E08093E9008FEF9091E8006F
:10319000815095FD06C095ED9A95F1F700008111DB
:1031A000F5CF8091E80085FF0DC050E040E063E07E
:1031B00070E0CE0101960E94AD1A8091E8008E77F2
:1031C0008093E8000F900F900F90DF91CF910895BA
:1031D000BC0184E00C94B518BC0183E00C94B518D4
:1031E000CF93DF93EC01809126018823B1F1809188
:1031F000870287FF32C060E282E08093E9008FEFB0
:103200009091E800815095FD06C095ED9A95F1F7F3
:1032100000008111F5CF8091E80085FF1BC08091EF
:10322000260170E050E040E0811104C050E040E031
:1032300068E070E0CE010E94AD1A8091E8008E77C0
:103240008093E80080E2FE01A1E5B2E001900D92DA
:103250008A95E1F7DF91CF91089568E081E0CDCFC5
:1032600008950895089542E061EC81E00E94B51B45
:1032700042E261EC82E00C94B51B80918F028330B6
:1032800009F45DC030F48130B1F1823009F499C0A5
:1032900008958A3009F485C08B3009F46BC08930F9
:1032A00009F04CC080918E02813209F047C08091B4
:1032B000920290919302029708F040C08091E8003A
:1032C000877F8093E8008091E80082FF33C080917F
:1032D000F200823029F48091F1008B7F813021F45B
:1032E0008091F100809371028091E8008B77809348
:1032F000E8000C94E91B80918E02813AF9F48091E8
:10330000E800877F8093E800809192029091930279
:10331000892B61F460E281E592E070E00E94FC1A82
:103320008091E8008B778093E800089560E090E05A
:1033300080E0F3CF80918D028111C5CF08958091F7
:103340008E02813AD9F78091920290919302892B53
:10335000A9F78091E800877F8093E8008091E800DA
:1033600080FFFCCF809126018093F1008091E800DE
:103370008E77BDCF80918E02813201F780919202CB
:1033800090919302892BD1F68091E800877F8093FA
:10339000E8000E94E91B80919002809326010C9422
:1033A000A20F80918E02813249F68091E800877FDA
:1033B0008093E8000E94E91B809191028093720241
:1033C000089580918E02813A09F0B8CF8091E8008B
:1033D000877F8093E8008091E80080FFFCCF809198
:1033E0007202C2CF84B7877F84BF0FB6F894A895C6
:1033F00080916000886180936000109260000FBE31
:1034000080E890E00FB6F89480936100909361009B
:103410000FBE0E94320B0E94391C0E948C1C8091AE
:10342000E20084608093E20078940E94E41E0E948F
:10343000400B8CE191E00E94C10A80918D028530A1
:10344000A9F00E94480B0E943E0B0E943F0BF5CF53
:103450000E94861780918B02882341F00E94B51745
:10346000882321F00E94971A0E94A20F80918D025A
:10347000853071F30E94CD17E4CF0C943F1A292FA9
:1034800033272330310519F168F42130310509F46F
:1034900044C02230310509F445C090E080E030E0BE
:1034A00020E025C02132310549F122323105A9F74A
:1034B00080E490E024E633E061157105C1F08DE60B
:1034C00090E027EF32E06130710589F0E6CF99276F
:1034D0008130910581F0009729F00297F1F6E2E73B
:1034E000F2E002C0E6EAF2E0849190E09F01FA0186
:1034F000318320830895EEE8F2E0F6CF89E090E092
:103500002CEB32E06115710591F389E090E025ED37
:1035100032E06130710559F3C0CF82E190E025EED1
:1035200032E0E5CF8BE390E02AEA32E0E0CF84E0BE
:1035300089BD86E089BD09B400FEFDCF8091D80029
:103540008F7D8093D8008091E00082608093E000BE
:103550008091E00081FDFCCF0895AF92BF92CF92A1
:10356000DF92FF920F931F93CF93DF936C01EB01D8
:103570008A010E94081CF82E811123C00115110533
:1035800039F0F80180819181C81BD90BC80ED91E72
:10359000B12CA12C2097A9F08091E80085FD22C0D4
:1035A0008091E8008E778093E80001151105A1F065
:1035B000F80180819181A80EB91EB182A08285E0B8
:1035C000F82E8F2DDF91CF911F910F91FF90DF90FB
:1035D000CF90BF90AF9008950E94081C8823D1F22D
:1035E000F82EEFCFF60181916F018093F1002197C2
:1035F000FFEFAF1ABF0ACECFFC01809194029091E9
:10360000950286179707A0F06115710529F490912E
:10361000E8009E779093E80090E06115710551F401
:10362000911108C08091E80082FF32C080E00895C7
:10363000BC01F2CF80918D028823B1F18530B1F1C8
:103640008091E80083FD2EC08091E80082FDEACFE2
:103650008091E80080FFE1CF2091F20030E0611519
:10366000710519F02830310558F091E02830310506
:1036700009F090E02091E8002E772093E800CDCF6C
:1036800081918093F100615071092F5F3F4FE7CF27
:1036900080918D02882341F0853041F08091E800CF
:1036A00083FFC0CF81E0089582E0089583E008950C
:1036B000FC01809194029091950286179707A0F0E3
:1036C0006115710529F48091E8008E778093E800F8
:1036D00090E06115710551F4911108C08091E800E6
:1036E00082FF33C080E00895BC01F2CF80918D024B
:1036F0008823B9F18530B9F18091E80083FD2FC0AE
:103700008091E80082FDEACF8091E80080FFE1CF60
:103710002091F20030E06115710519F02830310573
:1037200058F091E02830310509F090E08091E800F0
:103730008E778093E800CDCF84918093F10031960D
:10374000615071092F5F3F4FE6CF80918D02882332
:1037500041F0853041F08091E80083FFBFCF81E0E8
:10376000089582E0089583E00895982F953028F019
:103770008F708093E90081E008959093E900242FF1
:10378000762F50E0981731F07091EC002091ED0009
:103790005091F00021FD02C09F5FE8CF3091EB0017
:1037A0003E7F3093EB003091ED003D7F3093ED0094
:1037B0003091EB0031603093EB007093EC0020937C
:1037C000ED005093F0002091EE0027FDE5CF80E062
:1037D000089580918E0287FF13C08091E80082FFD8
:1037E00006C08091E8008B778093E80004C0809148
:1037F0008D028111F2CF089580918D028823D9F333
:103800008091E80080FFF8CF8091E8008E77ECCFC0
:103810002091E4003091E50095E6A9012091EC00AB
:10382000822F817020FF06C08091E80080FF06C0D3
:1038300080E008952091E80022FD1AC080918D0259
:10384000882389F0853089F08091EB0085FD0FC0D9
:103850002091E4003091E50042175307F9F29150AE
:10386000E1F684E0089582E0089583E0089581E020
:1038700008950E94961C0E94991CE0EEF0E0808161
:1038800081608083E8EDF0E080818F77808319BCD0
:10389000E3E6F0E080818160808310928C020895DD
:1038A0000E94961C0E94991C8091D8008F7780936B
:1038B000D8008091D80080688093D8008091D8008B
:1038C0008F7D8093D80084E089BD86E089BD09B4EE
:1038D00000FEFDCF10928D021092890210928B0291
:1038E00010928A0242E060E080E00E94B51B809165
:1038F000E1008E7F8093E1008091E20081608093FF
:10390000E2008091E20088608093E2008091E00014
:103910008E7F8093E0000895E3E6F0E080818E7F63
:10392000808381E080938C020C94501C1092E20002
:1039300008951092E10008951F920F920FB60F9212
:1039400011242F933F934F935F936F937F938F93A4
:103950009F93AF93BF93EF93FF938091E10082FF1A
:103960000BC08091E20082FF07C08091E1008B7F55
:103970008093E1000E94E31E8091E10080FF19C066
:103980008091E20080FF15C08091E2008E7F8093DD
:10399000E2008091E20080618093E2008091D80093
:1039A00080628093D80019BC85E080938D020E94CC
:1039B00031198091E10084FF2BC08091E20084FFE7
:1039C00027C084E089BD86E089BD89B5982F9170B4
:1039D00080FFFBCF8091D8008F7D8093D8008091AD
:1039E000E1008F7E8093E1008091E2008F7E8093E2
:1039F000E2008091E20081608093E2008091890280
:103A0000882309F443C084E080938D020E94321918
:103A10008091E10083FF29C08091E20083FF25C0EF
:103A20008091E100877F8093E10082E080938D02A6
:103A3000109289028091E1008E7F8093E100809155
:103A4000E2008E7F8093E2008091E20080618093AB
:103A5000E20042E060E080E00E94B51B8091F0004F
:103A600088608093F0000E943019FF91EF91BF9120
:103A7000AF919F918F917F916F915F914F913F9106
:103A80002F910F900FBE0F901F9018958091E3001B
:103A900087FD93E090938D02B9CF1F920F920FB6DE
:103AA0000F9211242F933F934F935F936F937F93C4
:103AB0008F939F93AF93BF93CF93DF93EF93FF9336
:103AC000D091E900DF708091EC00C82FC17080FDBB
:103AD000C0E81092E9008091F000877F8093F000A9
:103AE00078940E94911D1092E9008091F000886006
:103AF0008093F000CD2BCF70C093E900FF91EF9140
:103B0000DF91CF91BF91AF919F918F917F916F91F5
:103B10005F914F913F912F910F900FBE0F901F908B
:103B200018951F93CF93DF93CDB7DEB7AA970FB643
:103B3000F894DEBF0FBECDBF8EE892E02091F10079
:103B4000FC012193CF01F2E086399F07B9F70E946B
:103B50003D198091E80083FF1EC180918E029091F3
:103B60008F029A3008F017C1E92FF0E0E054F04ED0
:103B70000C94191F803899F0823809F00CC180919B
:103B800092028F70853008F006C18093E900809121
:103B9000EB0085FB882780F91092E90006C0809130
:103BA0008A0290918B02911182609091E800977F38
:103BB0009093E8008093F1001092F1008091E8006A
:103BC0008E77E5C0882309F4D3C0823009F0E3C0C2
:103BD000809190028111D6C0809192028F702FEF58
:103BE000280F243008F0D7C08093E9002091EB0023
:103BF00020FFC8C0933031F48091EB008062809345
:103C0000EB00C0C09091EB0090619093EB0021E03D
:103C100030E001C0220F8A95EAF72093EA00109263
:103C2000EA008091EB008860EACF8111B4C0109166
:103C300090021F778091E3008078812B8093E300CE
:103C40008091E800877F8093E8000E94E91B8091C3
:103C5000E80080FFFCCF8091E30080688093E30060
:103C600082E0111183E080938D0295C080588230EC
:103C700008F091C080919002909191028C3D23E0D8
:103C80009207A1F583E08A838AE289834FB7F8948B
:103C9000DE01139620E03EE051E2E32FF0E0509386
:103CA0005700E49120FF03C0E295EF703F5FEF7093
:103CB0008E2F90E0EA30C0F0C7968D939D932F5FD2
:103CC000243159F74FBF8091E800877F8093E80047
:103CD0006AE270E0CE0101960E94FC1A8091E80031
:103CE0008B778093E80057C0C096E7CF609192022F
:103CF00070919302AE014F5F5F4F0E943D1ABC016D
:103D0000892B09F448C09091E800977F9093E800D0
:103D100089819A810E94581BE1CF8038E1F580911A
:103D2000E800877F8093E800809189028093F1000A
:103D300045CF811130C090919002923060F5809112
:103D4000E800877F8093E800909389020E94E91B36
:103D500080918902882311F084E005C08091E300FE
:103D600087FDFACF81E080938D020E94331913C042
:103D700080919002813079F481E0933009F080E005
:103D800080938B021092E9008091E800877F8093F6
:103D9000E8000E94E91B8091E80083FF0AC080913F
:103DA000E800877F8093E8008091EB008062809339
:103DB000EB00AA960FB6F894DEBF0FBECDBFDF9121
:103DC000CF911F9108950895CF9380918D028823FC
:103DD000A1F0C091E900CF709091EC00892F817023
:103DE00090FD80E8C82B1092E9008091E80083FDE7
:103DF0000E94911DCF70C093E900CF9108950024D7
:103E000080FD060E660F11F08695D1F7802D08957E
:103E10000024552704C0080E591F880F991F0097CA
:103E200029F076956795B8F37105B9F7802D952F30
:103E30000895EE0FFF1F0590F491E02D0994F99974
:103E4000FECF92BD81BDF89A992780B50895A8E16B
:103E5000B0E042E050E00C94531F262FF999FECFBA
:103E600092BD81BDF89A019700B4021639F01FBACD
:103E700020BD0FB6F894FA9AF99A0FBE08950396EA
:103E8000272F0E942E1F0E942D1F252F0E942E1FBC
:103E9000242F0C942E1F0196272F0E942E1F0C9466
:103EA0002D1FDC01CB01FC01F999FECF06C0F2BD4C
:103EB000E1BDF89A319600B40D9241505040B8F7E8
:103EC0000895F894FFCFBC06B306BF06B1060407F9
:103ED0000407B10604070407DB060407E606F1063B
:103EE0000407040704070407B10604070407B10622
:103EF0000407CD06040704070207020702070207AA
:103F000002070207020702070207FC060407BC06B5
:103F1000AF0604070407040704070407040704079F
:103F2000040704070407FC0604070407B106040796
:103F30000007000700070007000700070007000749
:103F40000007FC06720D720DCA0DCA0D160E9F0DEC
:103F50009F0D9F0D320EBE0ECD0ECD0E290F9F0D63
:103F60009F0D320FB10FB10FBA0FBA0FBC0FBA0FBE
:103F7000BA0FBA0FB10FB10FC10FBA0FBA0FC10FFD
:103F8000BA1DE21DCB1EE21DCB1E151E361ECB1E1A
:043F90008D1E991ECB
:103F94008C002A000086002A000080002B00007A92
:103FA4000029000074004C0000012C02B118F01824
:103FB400B418EC18E81801E200E900EA00B500B60C
:103FC40000B700CD008301CC008A01920194012145
:103FD40002230224022502260227022A02B300B485
:103FE400006F00700081828365666737363534332D
:103FF400629064303132E200E900EA00B500B600B4
:10400400B700CD008301CC008A0192019401210202
:10401400230224022502260227022A02B300B40046
:084024006F007000818283002F
:00000001FF
