:100000000C94D2010C9419020C9419020C9419024C
:100010000C9419020C9419020C9419020C941902F4
:100020000C9419020C9419020C9419020C94551C8E
:100030000C94061D0C94F3160C9419020C941902DE
:100040000C9419020C9419020C9419020C943E178A
:100050000C9419020C9419020C9419020C941902B4
:100060000C9419020C9419020C9419020C941902A4
:100070000C9419022D002E00000014001A0000003C
:1000800016000700000027002600000012001300E1
:10009000000014001A000800150017001C001800CA
:1000A0000C001200130004441600070009000A00A7
:1000B0000B000D000E000F0028431D621B00060000
:1000C00019000500110010003600370038720000DA
:1000D000E000E2002C4200002C410000330034001C
:1000E00000001E001F002000210022002300240029
:1000F0002500260027000551AE00AA00A900AC008B
:10010000AB002D002E002F0030000000000000008A
:1001100000000000000000000000000031000000AE
:10012000000001004C00000001000000010001007F
:1001300000001E021F0220022102220223022402CA
:100140002502260227023A003B003C003D003E000B
:100150003F002D022E022F023002400041004200DB
:100160004300440045000000000000003102000090
:10017000E300010000000000010000000100010098
:100180000000350035020000000000000000000003
:100190000000000000002B00000000000000000034
:1001A0000000000000000000000039000000000016
:1001B000000000000000000000000000000000003F
:1001C000000000000000000000000000000000002F
:1001D00000000000000000000000000000004A00D5
:1001E00052004D004B000000000000000000000025
:1001F0000000500051004F004E00000000000000C1
:1002000000000000000000000000000031000000BD
:1002100000000000000000000000000000000000DE
:100220000000005C0000000000000000B2000000C0
:1002300000000000000000000000000000000000BE
:1002400000000000000000000000000000000000AE
:10025000000000000000000000000000000000009E
:10026000000000000000000000000000000000008E
:1002700000001A0375006E006400650072007300D0
:1002800063006F0072006500330033000000160346
:1002900074006F006D0069006E00610062006F0005
:1002A0007800310000000403090409023B00020148
:1002B00000A0FA0904000001030101000921110155
:1002C00000012240000705810308000A090401001B
:1002D0000103000000092111010001226D00070542
:1002E000820320000A12011001000000083174028C
:1002F0003302000102000105010980A101850319F3
:10030000012AB700150126B700950175108100C0BC
:10031000050C0901A101850419012AA00215012675
:10032000A002950175108100C005010906A1018593
:1003300005050719E029E7150025019508750181D4
:10034000020507190029EF1500250195F0750181B7
:100350000205081901290595057501910295017598
:10036000039101C005010906A101050719E029E76C
:100370001500250195087501810295017508810117
:100380000507190029FF150026FF0095067508814D
:10039000000508190129059505750191029501755A
:1003A000039101C011241FBECFEFD4E0DEBFCDBF4B
:1003B00004B603FE27C080918C0290918D02A0911B
:1003C0008E02B0918F028730904BA740B04BD1F492
:1003D00010928C0210928D0210928E0210928F0257
:1003E00014BE84B7877F84BF0FB6F894A895809118
:1003F0006000886180936000109260000FBEE0E0B2
:10040000F8E3099511E0A0E0B1E0E6E0FFE302C007
:1004100005900D92A839B107D9F722E0A8E9B1E01B
:1004200001C01D92AC38B207E1F70E94B3190C94D9
:100430001A1F0C940000CF93DF939C013A9521156D
:100440003F4168F5EC01CC27D170DC01AA27B270DE
:10045000AC01442754709C012227387094FF11C0CE
:1004600080E1CD2B09F480E0AB2B09F08062452BB5
:1004700009F08064232B09F08068FB01DF91CF91A4
:10048000099481E0CD2B09F480E0AB2B09F0826068
:10049000452B09F08460232B81F38860EECFDF9138
:1004A000CF910895CF93DF93EC01805E9109089777
:1004B00020F060EA7EE0209711F46BE47CE0CE014E
:1004C0000E941B028C2FDF91CF910C945A0BCF937B
:1004D000DF93EC010E94E90BCE01805E9109089741
:1004E00020F067EA7EE0209711F462E57CE0CE011F
:1004F000DF91CF910C941B0281E0089581E0089573
:100500000C947E0208950C9482021F93CF93DF9384
:1005100000D000D00F92CDB7DEB749835A836B83EA
:100520003091C50189819A8131111DC06623B9F0CE
:100530002223A9F00E94ED13182F682F89819A8138
:100540000E948A1369817A81812F0F900F900F90FA
:100550000F900F90DF91CF911F910C943F030E9459
:10056000C113182FEFCF0E94ED1369817A81EDCF6F
:10057000FC01262F408151816281738184810C941A
:100580008502CF93DF93EC0160E00E94B802BE01C8
:10059000DF91CF910C9483020E9488170E94371537
:1005A000811102C00E94DB150C944F050E94B20815
:1005B0000C94520508950E94C00E0E94DA022FEF9B
:1005C00084E39CE0215080409040E1F700C00000AF
:1005D0000C9462170F931F93CF93DF93EC0161E0AC
:1005E0000E94B8028C01BE010E948002882359F14A
:1005F000BE01C8010E94DE08882329F1BE01C8019E
:100600000E94F3068823F9F0BE01C8010E94450745
:100610008823C9F0BE01C8010E946808882399F0A8
:100620008A81882339F001158CE5180751F00F3DB8
:100630001C4579F0CE01DF91CF911F910F910C9461
:100640007C020E94DB0280E0DF91CF911F910F912D
:1006500008950E94DB15F7CF08950C942C0381E0D8
:1006600008950C942F03CF93C82F0E942D038C2F35
:10067000CF910C94310390E080E008950895282FE5
:10068000E62F872F90E06AE070E00E94C11EE80F1D
:10069000F92FF11D822F90E068E270E00E94C11EE8
:1006A000E80FF91FEE0FFF1FEE56FF4F8591949153
:1006B0000895FC01EE0FFF1FEE58FD4F85919491B8
:1006C0000895CF93DF930E943F030E947404EC01CE
:1006D000811520E5920708F041C0811530E49307A9
:1006E00008F0B6C0803E910518F5803C910508F0F1
:1006F000A0C0883A910570F4853A910508F091C040
:100700008130910501F10097F1F00497E0F4D0E019
:10071000C0E019C08F3B9105D0F7C85AD0E0CC0F8C
:10072000DD1FC95DDE4F0990D881C02DD4640BC098
:10073000811540E2940758F4C11581E0D80718F4F8
:10074000C83ED10520F7CE01DF91CF9108958115E4
:1007500020E3920708F073C09F706DC0811535E5E6
:10076000930770F5811544E5940708F0A5C0C115FD
:1007700082E5D80750F4C11521E5D20708F46BC013
:10078000DC2FCC27C16FD06ADECF9C2F9695969533
:100790009E0123703327C115D34508F07BC0C1E00B
:1007A000D0E002C0CC0FDD1F2A95E2F7892F90E040
:1007B000E5E0880F991FEA95E1F7C82BD92B68C0AF
:1007C000C11589E5D807A8F4C11528E5D20708F0B6
:1007D00078C0C11536E5D30708F099CF8C2F0E9459
:1007E0000B05C82FD0E0DC2FCC27CC27DF71D062DF
:1007F000AACFC1154AE5D40708F468C0CE019056C7
:100800008115904208F083CF8D2F8F710E940B05C8
:1008100090E0982F882788279F719C012C2BE90155
:10082000E6CFC55AD0E0CB5ADE4FC881D0E0D064C5
:100830008ACF805C91090E945903EC0184CF9927EB
:10084000D3FF03C0EC01D86C7ECFEC01D06C7BCF22
:10085000DF70D06A78CFCE01A4E096958795AA95EF
:10086000E1F783702C2F26952695237030E0B5E0B4
:10087000220F331FBA95E1F7382B8C2F8370C1E01C
:10088000D0E002C0CC0FDD1F8A95E2F7C22BD32B3C
:10089000DC6859CFC1E0D0E002C0CC0FDD1F2A9543
:1008A000E2F7892F90E075E0880F991F7A95E1F7BC
:1008B000C82BD92BDA6847CFD82FCC27C46FD06A82
:1008C00042CFDC2FCC27C06FD06A3DCF8C2F8F70EA
:1008D0000E940B0534E0D695C7953A95E1F7CF70A5
:1008E0009C2FEC01D0692FCF82389105B1F1B0F483
:1008F0008133910509F475C048F48932910509F4F2
:1009000069C08A32910509F473C008958533910551
:1009100009F459C08933910501F10895833E910589
:10092000A9F138F4803E9105F9F0823E910549F134
:100930000895863E9105A9F1873E9105C9F1843E4F
:10094000910519F520917E0221FF1FC080917D0243
:1009500084FD14C087EE90E0089520917D022370FD
:10096000A1F080EE90E0089520917D0220FD47C027
:1009700030917E0230FF09C024FF44C090E080E047
:1009800004C020917D0222FDF7CF089520917D02C1
:1009900022FD3BC030917E0230FDE3CF24FFF5CF36
:1009A000EDCF20917D0223FFF0CF24FDE7CFD2CF02
:1009B00020917D0223FD2CC030917E0231FFEECFCD
:1009C00084EE90E0089520917D0225FFDECF89E23C
:1009D00090E0089520917D0225FFD7CF85E390E038
:1009E000089520917D0226FFD0CF8AE290E00895FD
:1009F00020917D0226FFC9CF81E390E0089589E32D
:100A000090E0089583EE90E0089582EE90E00895DE
:100A100086EE90E0089590917D0292FF06C0282F07
:100A200028712830F9F4877F846093FF06C0282F4F
:100A300028712831F1F4877E846120917E0220FFA5
:100A400006C0382F38713830D9F4877F816021FF94
:100A500006C0282F28712831D1F4877E816194FD4A
:100A6000877E0895282F24712430F9F68B7F8860C3
:100A7000DCCF282F2471243101F78B7E8861DDCFF4
:100A8000382F3171313019F78E7F8860E0CF282FF1
:100A90002171213121F78E7E8861E1CF08950C9478
:100AA0004E0508950C945105E82FF0E0EE0FFF1F5E
:100AB000EF58FD4F808191810895089580EA8A95CD
:100AC000F1F70895F894E82FE295EF70F0E031A186
:100AD000282F2F7081E090E001C0880F2A95EAF757
:100AE000982F9095932391A392A1892B82A3789418
:100AF0000895CF93DF93C8E5D1E089910E94620504
:100B000081E0C236D807C9F784E60E94620580E317
:100B10000E94620581E30E94620582E30E946205F1
:100B200010926A021092690210927202109271027F
:100B300010926C0210926B02109274021092730267
:100B400010926E0210926D0210927602109275024F
:100B50001092700210926F02109278021092770237
:100B600084E00E944D06DF91CF910C94CC026F92ED
:100B70007F929F92AF92BF92CF92DF92EF92FF92BD
:100B80000F931F93CF93DF9398E5E92E91E0F92E11
:100B900010E000E0C0E0CC24C394D12C31E7A32EB8
:100BA00032E0B32ED7018D917D01F894E82FE295C4
:100BB000EF70F0E021A18F70A60102C0440F551F15
:100BC0008A95E2F7CA01922F982B91A392A1809562
:100BD000892382A378940E945E05A601002E02C09C
:100BE000440F551F0A94E2F7BA0160957095E9E643
:100BF000F2E082E6682E81E0782ED0E021913191FA
:100C0000D3019D903D01892D82958F7090E0DC018C
:100C100090968C9190E0B92DBF7002C09595879504
:100C2000BA95E2F780FD35C0C901842B952B2817B2
:100C3000390739F09F0122503109D9018D939C93D6
:100C4000D1E0AE16BF06D1F6F701319780810E9440
:100C50006205CD2B0F5F1F4F0A30110509F0A2CF9F
:100C60002C2F44E061E772E089E692E00E944E0694
:100C70000E94D6028C2FDF91CF911F910F91FF9090
:100C8000EF90DF90CF90BF90AF909F907F906F904C
:100C90000895C90186239723CACF0895FF920F9321
:100CA0001F93CF93DF93F82E092F162FD72FC42F22
:100CB000222349F081E080939A010E9423179093A8
:100CC00099018093980180919A018823A1F08091E5
:100CD0009801909199010E942F17069760F0EF2DCF
:100CE000F02FA12FBD2F90E080E0D0E08C179D0762
:100CF00044F010929A01DF91CF911F910F91FF90D4
:100D00000895219131912D933D930196EFCF0F934B
:100D10001F93CF93DF93C42FD22FFC0182818823AE
:100D2000C9F040939D010E94231790939C018093EA
:100D30009B0180E28C0F883008F050C0C77081E0C2
:100D400001C0880FCA95EAF7DF91CF911F910F91EB
:100D50000C944B0C10919D01141335C080919B0194
:100D600090919C010E942F17893B910560F5C0E28C
:100D7000CD0F1D17B9F080E2810F883040F4177055
:100D800081E001C0880F1A95EAF70E94520CC83022
:100D900048F481E09D2F977001C0880F9A95EAF77B
:100DA0000E944B0C802F0E94380CC830B8F4D770CA
:100DB00081E001C0880FDA95EAF7DF91CF911F91AA
:100DC0000F910C94520C80E28C0F883038F4C7706D
:100DD00081E001C0880FCA95EAF7EFCFDF91CF918C
:100DE0001F910F9108950F939C01CB01243F4CE577
:100DF000340759F1A8F4293DFCE53F0701F12A3DEC
:100E00004CE53407D1F1283D3C4591F406E221EE52
:100E100041EE68ED7CE50E94870680E00F91089521
:100E2000263FFCE53F07E9F0B0F0273F3C45F9F0ED
:100E3000FC018281882339F110929D01EFCF07E2F6
:100E400025EE45EE69ED7CE5E6CF06E221EE40EECB
:100E500064EF7CE5E0CF07E225EE44EE65EF7CE54C
:100E6000DACF06E221EE42EE66EF7CE5D4CF07E270
:100E700025EE46EE67EF7CE5CECF08E221E045EEB9
:100E80006AED7CE5C8CF81E0C9CFCF93DF93EC0159
:100E9000FB018281882309F419C1C230FCE5DF0718
:100EA000C0F1C6319CE5D90730F09E012B5F3C456F
:100EB0002930310570F50E944A1590937E02809387
:100EC0007D02C031ECE5DE0709F4CFC008F05BC05D
:100ED000C8308CE5D80709F4B6C088F5C430ECE515
:100EE000DE0709F4A8C0C0F4C2308CE5D80709F4C5
:100EF0009CC080917D028260C330DC4509F498C0BB
:100F000080917D0290917E020E9458150E94C00E31
:100F100080E0DF91CF91089580917D028061C6309D
:100F2000ECE5DE0709F484C080917D028860C7305B
:100F3000DC4508F47DC080917D02806279C0CC30B0
:100F40008CE5D80709F489C070F480917D028C602B
:100F5000CA30ECE5DE0709F46BC008F478C0809174
:100F60007D028E7F65C0CE308CE5D80709F479C04C
:100F700080917D028B7FCF30DC4508F459C0809191
:100F80007D028F7E55C0CC3FECE5DE0709F457C0EB
:100F900030F5C3318CE5D80709F46FC078F4C1315E
:100FA000ECE5DE0709F465C0C231DC4509F0A8CFE5
:100FB0000E94C00E80917D028F773AC0C5318CE5CA
:100FC000D80709F462C008F476C080917E0281607F
:100FD000CB3FDC4509F094CF80937E0291CFC115C1
:100FE000FDE5DF0709F44DC088F480917E028D7F16
:100FF000CE3F9CE5D90781F380917E028E7FCF3F63
:10100000DC4550F380917E028360E6CFC230FDE57F
:10101000DF0709F459C008F444C080E0C330DD455F
:1010200009F06ECF0E94DD156BCF80917D0281604B
:1010300080937D0265CF80917D028460F9CF80919D
:101040007E028260C9CF80917D028064F1CF0E94D0
:10105000C00E80917D028068EBCF80917D028D7FF4
:10106000E7CF80917D02877FE3CF80917D028F7DE6
:10107000DFCF80917D028F7BDBCF80917D02837FEC
:10108000D7CF80917E028C7FA7CF80917D0282FB9B
:10109000992790F921E0922790FB82F990FB83F940
:1010A000C7CF80917E02982F909591708E7F892B6B
:1010B00090FB81F991CF0E94C00E90917D02892F03
:1010C00097FB87F98058B4CF81E0ACCF81E021CF86
:1010D000CF93DF93EB0186319C4511F50E9482147A
:1010E0009A81992399F08A7A91E009F490E090939B
:1010F0009E01811109C089E20E945D140E94CE14F4
:1011000080E0DF91CF91089585E3F6CF80919E0135
:10111000811104C089E20E946414F0CF85E3FBCF03
:1011200081E0EFCFCF939091AF01992321F081110E
:1011300016C01092AF01CF910895EC2FF0E0EE0FA2
:10114000FF1FE156FE4F808191810E9452020E9452
:10115000CE14CF5F8091AF01C81778F3EACFC0E01B
:10116000F9CF089580911901882399F08091B001F9
:10117000882379F08091B4019091B501009749F0EE
:101180000E942F174A9728F01092B00181E00C942A
:10119000920808951092B001109219011092B501B1
:1011A0001092B40181E00C94920880911901811190
:1011B0000C94CA0881E08093190108956F927F9280
:1011C0008F929F92AF92BF92CF92DF92EF92FF9257
:1011D0000F931F93CF93DF937C016B011092B101AA
:1011E000883F4CE59407B9F4FB01C281CC2341F15F
:1011F00081E0809319018C2FDF91CF911F910F9186
:10120000FF90EF90DF90CF90BF90AF909F908F9026
:101210007F906F900895893FFCE59F0739F4FB01AB
:10122000C281CC2369F00E94CA08E5CF8A3F9C4561
:1012300039F4FB01C281CC2319F00E94D508DBCF21
:10124000D0911901C1E0DD23B1F21092B3011092E7
:10125000B201C0E088248394912C77247394009188
:10126000B2011091B3010530110588F08091B101F0
:10127000882309F49BC00E9423179093B5018093A3
:10128000B40180E00E94920881E0C827B4CFC80171
:1012900065E070E00E94C11E80509F4FFC0180817C
:1012A00091813FEF20E0E22FF0E0EE0FFF1FE80F0B
:1012B000F91F45915491E416F50609F4322F452B98
:1012C00011F02F5FF0CF3F3FD9F4612CC629DD2309
:1012D00059F0C80165E070E00E94C11E80509F4F28
:1012E000D1E0FC0184818111D0E0D1708091B20104
:1012F0009091B30101969093B3018093B201AFCF67
:101300006090B001F6014281C80165E070E00E9482
:10131000C11EFC01E050FF4F9481540101C0AA0C92
:101320003A95EAF74423E1F0A92AA482662069F2FB
:10133000C40102C0880F991F2A95E2F70197A816E9
:10134000190621F682819381009729F00E945202AA
:101350007092B101BBCF61E0C8010E94B108F8CF23
:10136000A40102C0440F551F2A95E2F79A012150AB
:10137000310992171306C1F482819381009779F0A5
:101380000E946702C80165E070E00E94C11EFC0176
:10139000E050FF4FA0949481A922A48297CF60E0EF
:1013A000C8010E94B108EECF612CECCFC1110EC074
:1013B00081E00E949208DD2309F466CF1092B50106
:1013C0001092B40181E08093B0015ECFF60182817A
:1013D000882309F459CF8091B001882309F454CFB0
:1013E0000E9423179093B5018093B401E091AF015F
:1013F000E83008F049CF81E08E0F8093AF01F0E034
:10140000EE0FFF1FE156FE4FF182E0823DCF909339
:10141000BB018093BA010895E091BA01F091BB013C
:10142000309721F00190F081E02D099480E008953B
:10143000E091BA01F091BB01309799F0209126011B
:10144000222359F020917D0227FF07C0DC012C9157
:1014500011962C93119725E02C930280F381E02DB7
:10146000099408952091B8013091B90128173907DE
:1014700071F09093B9018093B801E091BA01F091B5
:10148000BB01309721F00680F781E02D0994089583
:101490002091B6013091B7012817390771F0909368
:1014A000B7018093B601E091BA01F091BB0130978A
:1014B00021F00084F185E02D0994089508950895A0
:1014C0000C945E0A08950C94620A0E945F0A0C94C0
:1014D000600A81E008950C94690A089508950E94B5
:1014E0001A170E9479050E949C170C94630A7F9238
:1014F0008F929F92AF92BF92CF92DF92EF92FF9224
:101500000F931F93CF93DF93CDB7DEB72A970FB614
:10151000F894DEBF0FBECDBF0E946D0A0E946E0A16
:101520000E94B7050E946B0A882309F46FC04DEB37
:10153000A42E41E0B42E10E000E0702E802F0E9417
:1015400054056C01F501819091905F018816990610
:1015500009F456C08091440281FD0E945D0580E03F
:10156000EE24E394F12C8C249D2494012E213F2120
:10157000232B09F43FC08E837F82CE20DF2081E0C1
:10158000CD2809F480E088870E9423178160782F96
:101590009A8789874E815F8168858A850E942B0B97
:1015A000000F111FF801E354FE4F80819181E8265E
:1015B000F926F182E0820E940C0A9091BC01891701
:1015C000B1F10E940C0A8093BC012A960FB6F894E0
:1015D000DEBF0FBECDBFDF91CF911F910F91FF9066
:1015E000EF90DF90CF90BF90AF909F908F907F90C3
:1015F0000C9433038F5FEE0CFF1C8A3009F0B5CFDB
:101600000F5F1F4F0430110509F097CF8FEF8983CB
:101610008A831B820E9423178160782F9D838C838D
:1016200049815A816B818D810E942B0BC4CF2A96F0
:101630000FB6F894DEBF0FBECDBFDF91CF911F91E3
:101640000F91FF90EF90DF90CF90BF90AF909F9061
:101650008F907F900895CF93DF93CDB7DEB72B9710
:101660000FB6F894DEBF0FBECDBF4F835887698792
:101670007A878B871E821D8285E0FE013796DE0108
:10168000119601900D928A95E1F749815A816B81FB
:101690007C818D819E812B960FB6F894DEBF0FBEA4
:1016A000CDBFDF91CF910C946611FC0180819181B7
:1016B0000C942F14CF93C82F882309F488C0823844
:1016C000C1F40E940C0A81FD82C089E30E945D146E
:1016D0000E94CE142FEF81EE94E021508040904084
:1016E000E1F700C0000089E30E946414CF910C94DC
:1016F000CE148338A1F40E940C0A80FD68C083E5F3
:101700000E945D140E94CE142FEF81EE94E02150D0
:1017100080409040E1F700C0000083E5E5CF8438C9
:10172000A1F40E940C0A82FD52C087E40E945D145D
:101730000E94CE142FEF81EE94E021508040904023
:10174000E1F700C0000087E4CFCF8CEF8C0F813A27
:10175000B8F48C2F0E943A18811139C06C2F8091F7
:101760001A0190911B010E94F615882329F08C2FF5
:101770000E9464140E94CE148C2F0E945D14B6CF78
:1017800080E28C0F883048F4C77081E001C0880F78
:10179000CA95EAF70E948514A9CFEBE5EC0FE33078
:1017A00040F4F0E0EC56FE4F808190E0CF910C9435
:1017B000320AC85AC73158F4EC2FF0E0EE0FFF1F81
:1017C000EA59FE4F80819181CF910C94480ACF91C4
:1017D0000895882309F44BC0823871F40E940C0AE2
:1017E00081FF45C089E30E945D140E94CE1489E305
:1017F0000E9464140C94CE14833859F40E940C0A8D
:1018000080FF35C083E50E945D140E94CE1483E5FD
:10181000EFCF843859F40E940C0A82FF28C087E475
:101820000E945D140E94CE1487E4E2CF9CEF980FD3
:10183000913AF0F290E2980F983050F4877091E06E
:1018400001C0990F8A95EAF7892F0E948B14D2CF95
:101850009BE5980F933020F490E080E00C94320ADE
:10186000885A873120F490E080E00C94480A08956B
:10187000CF93C82F0E945A0BC93349F42FEF87EE3C
:1018800093E0215080409040E1F700C000008C2F91
:10189000CF910C94E90B882321F00E9485140C94BD
:1018A000CE140895882321F00E948B140C94CE143A
:1018B0000895BF92CF92DF92EF92FF920F931F9302
:1018C000CF93DF937C01D62FC72FFC0105810295B2
:1018D0000F70128111110E94A2140E947B14D82E45
:1018E000882391F01123D1F08C2F807F803421F058
:1018F00080E28D0F883090F082E00E9419150E94DE
:101900007B1491E0D82ED926CC2EC2949FE0C92218
:10191000EC2DF0E0E45EF04E0C94D21ED12CF4CF0E
:101920000C2F0F70C07F11F00295007F1123A9F0DA
:10193000002359F080E28D0F883010F0D11109C0DA
:10194000802F0E9485140E94CE148D2F0E945A0B66
:1019500014C0802F0E949514F6CF8D2F0E94E90BA2
:10196000002359F080E28D0F883010F0D1112CC087
:10197000802F0E948B140E94CE142C2D2850330BE4
:101980002430310520F40E940C0A0E943303DD202C
:1019900009F48DC10E94771480FD89C1F70112827C
:1019A0000E9471140E94EE12C7010E94780E0E94DC
:1019B0007114DF91CF911F910F91FF90EF90DF9005
:1019C000CF90BF900C940F13802F0E949B14D3CF05
:1019D000FC2FFF70BF2EC07FC03219F0B29480EF91
:1019E000B822DD2339F0D13019F1112361F1002340
:1019F00021F1ABCF112381F0011106C00E94B51473
:101A00008B290E944B0CB9CF0130C1F70E94B5144D
:101A10008B290E94BB14B1CF011106C00E94C414CF
:101A20008B2D0E94520CA9CF013009F4A6CFF6CF1E
:101A3000112329F0063008F0A0CF8B2DE2CF05301E
:101A400008F09BCFEDCF002359F3D93349F42FEFA2
:101A500037EE83E0215030408040E1F700C00000C5
:101A60008D2F0E94E90B89CF8C2F869586958370E8
:101A700069F0813009F081CF8D2F9C2F9370111167
:101A800002C090E080E00E94480A77CF8D2F9C2F03
:101A90009370111102C090E080E00E94320A6DCF75
:101AA0008C2F837009F041C0111167CF4D2F4295E3
:101AB00046954770440F440F0D2F0F7010E030E033
:101AC00020E0042E04C0000F111F221F331F0A94B0
:101AD000D2F760E070E0CB01D4FF0FC06FE070E0A0
:101AE00080E090E004C0660F771F881F991F4A9519
:101AF000D2F76095709580959095C695C695C37000
:101B0000602B712B822B932BC23049F058F4C130DB
:101B100019F00E94A01231CF0E948E122ECF0E9487
:101B2000B2122BCF0E948C1228CF8695112311F070
:101B30008C2F8170882309F420CF4D2F4295469534
:101B40004770440F440F0D2F0F7010E030E020E07D
:101B5000042E04C0000F111F221F331F0A94D2F756
:101B600060E070E0CB01D4FF0FC06FE070E080E078
:101B700090E004C0660F771F881F991F4A95D2F71F
:101B80006095709580959095C695C695C370602BAD
:101B9000712B822B932BC23049F058F4C13019F0CD
:101BA0000E946513EACE0E945313E7CE0E9477137A
:101BB000E4CE0E94C812E1CECF70112329F08C2F01
:101BC0000E94EE128D2F1DCF8D2F0E94520C8C2F54
:101BD0000E940F13D2CED23F89F160F4D03FC9F0FA
:101BE000D13F29F1112309F442C00111AECE8C2F4F
:101BF0008F7121C0D33F39F1D43FA1F7112369F18F
:101C0000CF718C2F0E94EE1263E08C2F0E9404157E
:101C1000B4CE112341F0053008F0AFCE8C2F8F7178
:101C20000E943213AACE063008F0A7CEF7CF8C2F31
:101C30008F71112369F20E94EE129FCE8C2F8F714B
:101C40001123C9F3C5CF112329F08C2F8F710E9466
:101C5000D91293CE0E94D41290CE81E00E94191521
:101C6000023008F48ACE82E00E94191586CE002345
:101C700059F0D93309F0F4CE9FEFE7EEF3E091503D
:101C8000E040F040E1F7EACE8C2F8F71A1CF4C2FCE
:101C90004F706D2FC7010E943B030E9404126DCE4E
:101CA0004C2F4F706D2FC7010E943E0366CEDF910F
:101CB000CF911F910F91FF90EF90DF90CF90BF9049
:101CC00008950F931F93CF93DF93EC01688179817F
:101CD0008A810E9439148C010E9489130E948B1200
:101CE000B801CE01DF91CF911F910F910C94590C47
:101CF000CF93DF93EC018B819C81892B29F0888124
:101D0000998189238F3F59F4DF91CF910895CE01B6
:101D10000E94610ECE01DF91CF910C94C102CE01E1
:101D20000E94EA028111F3CF0E947B14882361F3A1
:101D30008A81882349F382E0DF91CF910C941915B1
:101D4000882321F00E9495140C94CE1408958823C2
:101D500021F00E949B140C94CE1408950E94A214AA
:101D60000E94B2140E94CE1490E080E00E94320AD9
:101D700090E080E00C94480A0E946B140C94AE0E24
:101D80000E9492140C94BC0EE92FE295EF70E25081
:101D9000EE3070F4F0E0E45DF04E0C94D21E803F23
:101DA00019F020F4883E20F481E00895843FE1F3A7
:101DB00080E00895883EC0F3813FD1F7F5CF93FBD3
:101DC000882780F908950E942F140C94C40ECF9395
:101DD000DF9300D000D00F92CDB7DEB70F900F90F9
:101DE0000F900F900F90DF91CF910895CF93DF93D5
:101DF00000D000D000D0CDB7DEB726960FB6F8944D
:101E0000DEBF0FBECDBFDF91CF910895CF93DF939B
:101E1000C091C6018091C7018C1303C0DF91CF919F
:101E20000895D0E0CE0166E070E00E94C11EFC0182
:101E3000E853FE4F40815181628173818481958195
:101E40000E94F60E2196C770E5CF4091F80150919F
:101E5000F9016091FA017091FB018091FC01909170
:101E6000FD010C94F60ECF93B82FC62F2091C6011A
:101E7000A091C7012A1303C080E0CF91089530E0FC
:101E8000C90166E070E00E94C11EFC01E853FE4FEC
:101E900081818C1306C080818B1303C082818413DF
:101EA00004C02F5F3F4F2770E5CF81E0E6CF1F933F
:101EB000CF93DF938091FD01807FA1F48091FA019F
:101EC000882381F02091C601B091C7014091F801AB
:101ED000A091F901C091FB01D091FC01142F1A23AC
:101EE000B21304C0DF91CF911F91089530E0209785
:101EF00011F01F3F21F42F5F3F4F2770F1CFC90131
:101F000066E070E00E94C11EFC01E853FE4F818133
:101F10008A13F1CF80818413EECF82818111EBCFC0
:101F2000838194818C1B9D0B893B910520F78091C7
:101F3000FD018F7080618093FD01C90166E070E052
:101F40000E94C11EFC01E353FE4F90819F7090617F
:101F5000908388EF91E00E94780EDF91CF911F91DE
:101F60000C94060F8F929F92AF92BF92CF92DF9206
:101F7000EF92FF920F931F93CF93DF93CDB7DEB70E
:101F800061970FB6F894DEBF0FBECDBF8C0185E020
:101F9000F801DE011D9601900D928A95E1F7D801B6
:101FA000EC901196FC9011971296CC90129788EFB6
:101FB000A82E81E0B82E4091FB015091FC01411503
:101FC000510509F461C19091F8012091F901892F1F
:101FD00082238F3F09F458C113968D909C901497DB
:101FE000D090FA01F401E41BF50BDD2009F419C1CE
:101FF0008091FD01382F307FE93BF10508F0D0C01A
:10200000311189C0DC2C2F1126C09E1124C0C110B3
:1020100022C08F7080618093FD010E94250FC50151
:102020000E94780E8091FD01D80115968C938D2D1C
:1020300061960FB6F894DEBF0FBECDBFDF91CF9192
:102040001F910F91FF90EF90DF90CF90BF90AF90D6
:102050009F908F9008958114910429F08F2D8E21E7
:102060008F3F09F030C180E080FF15C04C2D6F2DEF
:102070008E2D0E94330F882371F088EF91E00E942B
:10208000780E86E0E8EFF1E0DF011D928A95E9F72E
:102090000E94250F3EC0892829F08F2D8E218F3F69
:1020A00009F00EC180E0B82FB170AB2E80FF29C0BF
:1020B0004C2D6F2D8E2D0E94330FB82E811121C013
:1020C000ED86FE868D859E850E942F14292F2295F0
:1020D0002F70223050F0243078F49F7051F0F801C6
:1020E0009581907F31F4DB2CA2CF9F7011F0882373
:1020F000D1F3805E8830B8F3C8010E94780EBA2C04
:10210000F2CFCC2009F493CF8091FD0181608093C0
:10211000FD01D12C8CCF2F1114C09E1112C0C11003
:1021200010C015968C93C8010E94780E86E0F801C5
:10213000A8EFB1E001900D928A95E1F70E94250F7A
:1021400076CFED86FE868D859E850E94E30E8823E0
:1021500019F1CC2009F18091FD01803270F02091BD
:10216000F8013091F90138872F8319869B868A867A
:102170008C87CE0107960E94780E86E0F801A8EFC2
:10218000B1E001900D928A95E1F70E94570F0E94ED
:10219000250FDD24D3944BCFC8010E94780EF9CFD0
:1021A000311112C0782D998A888AA7016C2D8989EE
:1021B0000E94E70E88EF91E00E94780E86E0F5011C
:1021C00011928A95E9F764CF2F110FC09E110DC0AF
:1021D000C1100BC015968C93C8010E94780E86E042
:1021E000F50111928A95E9F722CFED86FE868D855D
:1021F0009E850E94E30E882379F2CC2069F28091BB
:10220000FD01803208F4B9CF2091F8013091F90135
:102210003A8329831B829D828C828E83CE01019614
:10222000AACFE93BF10510F5DC2CCC2009F4B4CFA2
:102230002F110BC09E1109C086E0F801A8EFB1E094
:1022400001900D928A95E1F7F2CEED86FE868D859E
:102250009E850E94E30E811190CF8091FD018160E7
:102260008093FD01C8010E94780EE1CE782D998AF5
:10227000888AA7016C2D89890E94E70E86E0D50126
:102280001D928A95E9F75ACFCC2009F485CFED86C7
:10229000FE868D859E850E94E30ED82E882309F444
:1022A0007BCF86E0F801A8EFB1E001900D928A950E
:1022B000E1F788EF91E00E94550B0E94570F3ECF47
:1022C00081E08C25F0CE81E08C25CECECF93DF93BC
:1022D000CDB7DEB72C970FB6F894DEBF0FBECDBFDB
:1022E0004F83588769877A878B879C87CE010796AB
:1022F0000E94B20F8823D1F08A859B85892B39F003
:102300004F815885842F85238F3F09F076C08091B7
:10231000C6019091C701891349C02C960FB6F89455
:10232000DEBF0FBECDBFDF91CF91089586E0FE01E5
:102330003796DE01119601900D928A95E1F78A8514
:102340009B85892B21F388859F8189238F3FF9F213
:102350008091C70190E09C012F5F3F4F277033278A
:102360004091C6014217130671F40E94C00E1092EC
:10237000C7011092C60186E0E8EFF1E0DF011D928F
:102380008A95E9F7C4CF66E070E00E94C11EDC01C7
:10239000A853BE4F96E0FE01319601900D929A959A
:1023A000E1F72093C7010E94060FB1CF90E066E0ED
:1023B00070E00E94C11E88539E4F0E94B20F882376
:1023C00009F4ABCF8091C60190E066E070E00E9416
:1023D000C11EFC01E853FE4F40815181628173812F
:1023E000848195810E94F60E8091C60190E001964D
:1023F000877099278093C6018ACF69857A858B85F6
:102400009C850E94F60E83CFEF92FF920F931F934D
:10241000CF93DF938C01892B81F0F12CEE24E39490
:10242000E8012196F8018491843770F4843008F033
:102430005FC08130B1F08230A1F1DF91CF911F9167
:102440000F91FF90EF900895853709F44CC008F480
:102450003DC09CE7980F903780F78F770E94E90B7B
:1024600049C00E5F1F4FFE01849190E2980F983093
:1024700060F48770FE2D01C0FF0F8A95EAF78F2F59
:102480000E94A5140E94CE1402C00E945A0B8F2DE8
:10249000815030F2EFE9FFE03197F1F700C0000022
:1024A000F7CF0E5F1F4FFE01849190E2980F983096
:1024B00050F48770FE2D01C0FF0F8A95EAF78F2F29
:1024C0000E94AB14DFCF0E94E90BE1CF0E5F1F4FDC
:1024D000FE01C491C150D8F28FE99FE00197F1F756
:1024E00000C00000F7CF0E5F1F4FFE01F490CFCF6A
:1024F0000E945A0B8E01CBCF08950C947C120E943F
:102500007D1260931B0270931C0280931D029093B6
:102510001E020C94AE0E08950C947F120F931F931D
:1025200000911B0210911C0220911D0230911E028D
:10253000602B712B822B932B1F910F910C947F1288
:102540000F931F9300911B0210911C0220911D02FA
:1025500030911E0260237123822393231F910F91D8
:102560000C947F120F931F9300911B0210911C0279
:1025700020911D0230911E02602771278227932728
:102580001F910F910C947F120C947C120C94C41226
:102590000E94C6126093170270931802809319026A
:1025A00090931A020C94AE0E60E070E0CB010C9494
:1025B000C8120F931F9341E050E060E070E08A0181
:1025C0009B0104C0000F111F221F331F8A95D2F7F1
:1025D000C901B8011F910F910C94C8120F931F935A
:1025E00041E050E060E070E004C0440F551F661FFA
:1025F000771F8A95D2F78091170290911802A091C7
:102600001902B0911A028A019B01082B192B2A2B5F
:102610003B2BC901B8011F910F910C94C8120F9365
:102620001F9341E050E060E070E004C0440F551F8C
:10263000661F771F8A95D2F7CB01BA016095709516
:10264000809590950091170210911802209119021F
:1026500030911A0260237123822393231F910F91DB
:102660000C94C8120F931F9341E050E060E070E0BB
:1026700004C0440F551F661F771F8A95D2F78091BB
:10268000170290911802A0911902B0911A028A01C2
:102690009B01082719272A273B27C901B8011F9149
:1026A0000F910C94C8120F931F9300911702109171
:1026B00018022091190230911A02602B712B822B83
:1026C000932B1F910F910C94C8120F931F9300919D
:1026D0001702109118022091190230911A026023FA
:1026E0007123822393231F910F910C94C8120F938F
:1026F0001F93009117021091180220911902309136
:102700001A0260277127822793271F910F910C943B
:10271000C8120895CF93DF93282F362F892F6AE0B0
:102720000E94B81E820F982F9770E1E001C0EE0F53
:102730009A95EAF786958695869590E065E070E033
:102740000E94C11EDC01A250BE4F50E040E0632F4A
:1027500070E08D91ED0121979B01042E02C036950A
:1027600027950A94E2F72170219528272E23282700
:1027700028834F5F5F4F4530510559F7DF91CF9167
:102780000895282F892F6AE00E94B81E820FA82F73
:10279000A77086958695869590E065E070E00E942A
:1027A000C11EFC01E250FE4F50E040E080E021916C
:1027B00030E00A2E02C0369527950A94E2F7217080
:1027C0003327042E01C0220F0A94EAF7822B4F5FB1
:1027D0005F4F4530510559F70895BF92CF92DF9270
:1027E000EF92FF920F931F93CF93DF938C01C090D2
:1027F0001702D0901802E0901902F0901A0280910E
:102800001B0290911C02A0911D02B0911E02C82AC9
:10281000D92AEA2AFB2ACFE1D0E0BC2ED701C60193
:102820000C2E04C0B695A795979587950A94D2F774
:1028300080FD0EC0219788F7B12C8B2DDF91CF91B1
:102840001F910F91FF90EF90DF90CF90BF90089570
:10285000B8018C2F0E946103019761F3EECFCF93F3
:10286000DF93EC010E94ED13BE01DF91CF910C9438
:1028700061031F93CF93DF93EB019091C5019923DF
:1028800031F0CB01DF91CF911F910C942F1488234D
:1028900079F0CB010E94ED13182F682FCE010E9412
:1028A0008A13BE01812FDF91CF911F910C94610398
:1028B000CB010E94C113182FF4CF682F80911A0109
:1028C00090911B010C947616682F80911A019091BB
:1028D0001B010C94811680911A0190911B010C949C
:1028E0008C1680911F028595859585950895809118
:1028F0001F028770089590911F02977081E009F47C
:1029000080E0089580914302089590914302892BBD
:102910008093430208958095909143029823909369
:102920004302089510924302089590914202892B28
:10293000809342020895809590914202982390934B
:102940004202089510924202089590914102892B0B
:10295000809341020895809590914102982390932D
:102960004102089510924102089580912002089535
:1029700008950C94B81490912002981721F0809338
:1029800020020C94B914089580912002882329F024
:102990001092200280E00C94B9140895E0911A017D
:1029A000F0911B01809143028083E0911A01F09124
:1029B0001B01808190914202892B8083E0911A0152
:1029C000F0911B01808190914102892B808390912D
:1029D0002002992381F0E0911A01F0911B0180817E
:1029E000892B808380911A0190911B010E94E2152E
:1029F00081110E94C41480911A0190911B010C94C2
:102A0000180A08950C940115982F990F990F990F92
:102A1000962B90931F020E94EE1280911F028595C3
:102A2000859585950C94021510921F0280E00C94F8
:102A3000021590911F028095892380931F02282FF1
:102A4000277071F4282F082E000C330B92171306F1
:102A500039F08595859585950E940F130C94141572
:102A600008956FEF7FEF90E080E00C94041F90E0FA
:102A700080E00E94E01E21E08C3E9E4F09F020E0A5
:102A8000822F089582E090E00C94D81E83E090E0BD
:102A90000C94D81ECF9384E090E00E94D81EC82FDB
:102AA00081E290E00E94D81E982F8C2FCF9108953C
:102AB000CF93C92F682F84E090E00E94E61E6C2F10
:102AC00081E290E0CF910C94E61EAB01BC018FE057
:102AD00090E00C94F81EAB01BC0183E190E00C94F3
:102AE000F81E60E070E0CB010C946B1560E070E0C4
:102AF000CB010E9465150C9471156CEE7EEF90E091
:102B000080E00E94041F60E082E090E00E94E61EE8
:102B100060E083E090E00E94E61E10921B0210929B
:102B20001C0210921D0210921E0260E084E090E0F0
:102B30000E94E61E60E081E290E00E94E61E60E0F6
:102B400085E090E00E94E61E60E086E090E00E9452
:102B5000E61E6FEF87E090E00E94E61E40E050E046
:102B6000BA0188E090E00E94F81E60E08DE090E0FD
:102B70000E94E61E40E050E0BA0188E190E00E9429
:102B8000F81E60E087E190E00E94E61E40E050E021
:102B9000BA018CE190E00E94F81E60E080E290E0D3
:102BA0000E94E61E40E050E0BA0188E190E00E94F9
:102BB000F81E0C9476150C947D15682F8EE090E02D
:102BC0000C94E61EFC01329680912601882321F0A8
:102BD00080917D029EE187FF96E080E0915008F4AD
:102BE000089521912223D1F38F5FF8CF662301F15D
:102BF000209126012223F1F020917D0227FF1AC0A7
:102C0000462F4695469546954E3190F4677021E0E3
:102C100030E002C0220F331F6A95E2F7840F911D46
:102C2000FC01828190E02823392381E0232B69F481
:102C300080E00895FC01329608962191261721F034
:102C4000E817F907D1F7F4CF81E008959C01FC0162
:102C500032969FEF80E04191461751F09F3F19F463
:102C6000411101C0982F8F5F8630A9F79F3F09F46B
:102C70000895290F311D97FD3A95F9016283089552
:102C8000FC01329608962191261303C0DF011197AB
:102C90001C92E817F907B9F70895E62FE695E6952F
:102CA000E695EE3168F4E80FF92FF11D677021E029
:102CB00030E001C0220F6A95EAF78281822B82837D
:102CC0000895E62FE695E695E695EE3170F4E80F67
:102CD000F92FF11D677021E030E001C0220F6A95E5
:102CE000EAF72095828128232283089520912601E6
:102CF000222329F020917D0227FD0C944D160C947F
:102D0000261620912601222329F020917D0227FDFD
:102D10000C9461160C944016FC01329680912601A9
:102D2000882351F080917D0287FF06C08EE1DF018C
:102D30001D928A95E9F7089586E0F9CF08950895E0
:102D40000C949F160E94A01680918302843049F152
:102D50001092450288E190E020E40FB6F894A8951F
:102D6000809360000FBE2093600080E00E943303D8
:102D70000E94A01683B7817F846083BF83B7816080
:102D800083BF7894889583B78E7F83BF0FB6F894FE
:102D9000A895809160008861809360001092600027
:102DA0000FBE08950895CF930E949E160E94B70506
:102DB0000E94D216C0E08C2F0E945405892B31F45A
:102DC000CF5FC430C1F780E0CF91089581E0FCCFA0
:102DD00008950C94E8160E94C00E0E940C0A0E94EE
:102DE00033030C94E9161F921FB61F9211248F9380
:102DF0009F93AF93BF9380914502811113C080913F
:102E0000790290917A02A0917B02B0917C02419666
:102E1000A11DB11D8093790290937A02A0937B0249
:102E2000B0937C02BF91AF919F918F911F901FBE75
:102E30001F90189582E084BD93E095BD9AEF97BDF1
:102E400080936E0008952FB7F89480917902909145
:102E50007A02A0917B02B0917C022FBF08959C0161
:102E60004FB7F8948091790290917A02A0917B02F9
:102E7000B0917C024FBF821B930B089578941F92F0
:102E80001FB61F9211248F939F93AF93BF9380918E
:102E9000790290917A02A0917B02B0917C02019616
:102EA000A11DB11D8093790290937A02A0937B02B9
:102EB000B0937C02BF91AF919F918F911F901FBEE5
:102EC0001F90189581E08093E00080E28093D80005
:102ED0001092C9008FE19EE40197F1F700C0000055
:102EE00087E090EBDC0180938C0290938D02A0939D
:102EF0008E02B0938F0288E19CE00FB6F894A895FB
:102F0000809360000FBE90936000FFCF0C9431154A
:102F10000E94B7058FE39CE90197F1F700C000001C
:102F20000E94B70580E00E94540580FF04C00E9403
:102F300086170C94621708950E943715811102C0FC
:102F40000E94DB150E944215809344020E944A159C
:102F500090937E0280937D020E944615682F70E058
:102F600090E080E00E948C1260911702709118022C
:102F70008091190290911A020C94C6120F931F931C
:102F800041E050E060E070E08A019B0104C0000F66
:102F9000111F221F331F8A95D2F7C901B8010E9461
:102FA0008C121F910F910C94C00EEBEFE80FEF33D2
:102FB00008F05AC0F0E0E65CF04E0C94D21E0E947D
:102FC000DB1581E0089580914402807F8093440264
:102FD00081E08093460208950E94DB02F2CF909137
:102FE0004402892F8E7F90FF81608093440280FD90
:102FF000E8CF817F80934402E4CF90914402892FEF
:103000008D7F91FF82608093440281FFDACF8091AF
:1030100044028160EFCF90914402892F8B7F92FF11
:1030200084608093440282FDF2CFCBCF9091440222
:10303000892F877F93FF88608093440283FDE7CFC9
:10304000C0CF0E94C00E90917D02892F97FB87F917
:10305000805880937D02B5CF80E00E94BE17B1CF2B
:103060008953FBCF8D51F9CF80E0089580E008951A
:103070000C943618CF93C82F80914602882331F0E4
:10308000813099F01092460280E00DC00E948214B7
:103090008232D1F78C2F0E943618811116C08C2FE6
:1030A0000E94D5178170CF9108950E9482148232B8
:1030B00089F38C2F0E943818811105C0C43171F03A
:1030C00038F4CB3079F781E0EDCF81E090E0EACFC2
:1030D000C93221F0C833B9F380E0E4CF1092460240
:1030E000FBCF8091670208950895CF93DF9300D0BE
:1030F0000F92CDB7DEB790918302943019F5898392
:103100007B836A8382E08093E9008FEF9091E800EF
:10311000815095FD06C095ED9A95F1F7000081115B
:10312000F5CF8091E80085FF0DC050E040E063E0FE
:1031300070E0CE0101960E94661A8091E8008E77B9
:103140008093E8000F900F900F90DF91CF9108953A
:10315000BC0184E00C947518BC0183E00C947518D4
:10316000CF93DF93EC01809126018823B1F1809108
:103170007D0287FF32C060E282E08093E9008FEF3A
:103180009091E800815095FD06C095ED9A95F1F774
:1031900000008111F5CF8091E80085FF1BC0809170
:1031A000260170E050E040E0811104C050E040E0B2
:1031B00068E070E0CE010E94661A8091E8008E7788
:1031C0008093E80080E2FE01A7E4B2E001900D9256
:1031D0008A95E1F7DF91CF91089568E081E0CDCF46
:1031E000089508950C94EB1642E061EC81E00E9492
:1031F0006E1B42E261EC82E00C946E1B80918502B2
:10320000833009F45DC030F48130B1F1823009F4CB
:1032100099C008958A3009F485C08B3009F46BC0D9
:10322000893009F04CC080918402813209F047C096
:103230008091880290918902029708F040C08091A5
:10324000E800877F8093E8008091E80082FF33C028
:103250008091F200823029F48091F1008B7F8130DF
:1032600021F48091F100809367028091E8008B77D0
:103270008093E8000C94A21B80918402813AF9F4B7
:103280008091E800877F8093E80080918802909188
:103290008902892B61F460E287E492E070E00E9489
:1032A000B51A8091E8008B778093E800089560E07C
:1032B00090E080E0F3CF809183028111C5CF089523
:1032C00080918402813AD9F7809188029091890295
:1032D000892BA9F78091E800877F8093E80080918F
:1032E000E80080FFFCCF809126018093F10080915F
:1032F000E8008E77BDCF80918402813201F7809102
:10330000880290918902892BD1F68091E800877F0D
:103310008093E8000E94A21B809186028093260180
:103320000C94C00E80918402813249F68091E800AD
:10333000877F8093E8000E94A21B80918702809380
:103340006802089580918402813A09F0B8CF809193
:10335000E800877F8093E8008091E80080FFFCCF41
:1033600080916802C2CF84B7877F84BF0FB6F8947C
:10337000A895809160008861809360001092600041
:103380000FBE80E890E00FB6F894809361009093B0
:1033900061000FBE0E94650A0E94F21B0E94451C3C
:1033A0008091E20084608093E20078940E949D1EE8
:1033B0000E946F0A8CE191E00E94070A80918302CB
:1033C000853039F00E94770A0E946D0A0E946E0AC9
:1033D000F5CF0E94A21680918102882379F30E9482
:1033E000D316882359F30E94501AE8CF0C94F81989
:1033F000292F33272330310519F168F421303105A5
:1034000009F444C02230310509F445C090E080E061
:1034100030E020E025C02132310549F1223231056A
:10342000A9F780E490E024E633E061157105C1F06E
:103430008DE690E027EF32E06130710589F0E6CF4C
:1034400099278130910581F0009729F00297F1F6D4
:10345000E2E7F2E002C0E6EAF2E0849190E09F0148
:10346000FA01318320830895EEE8F2E0F6CF89E097
:1034700090E02CEB32E06115710591F389E090E06A
:1034800025ED32E06130710559F3C0CF82E190E063
:1034900025EE32E0E5CF8BE390E02AEA32E0E0CFA0
:1034A00084E089BD86E089BD09B400FEFDCF80912E
:1034B000D8008F7D8093D8008091E0008260809357
:1034C000E0008091E00081FDFCCF0895AF92BF92B3
:1034D000CF92DF92FF920F931F93CF93DF936C01F4
:1034E000EB018A010E94C11BF82E811123C0011536
:1034F000110539F0F80180819181C81BD90BC80EE4
:10350000D91EB12CA12C2097A9F08091E80085FD4F
:1035100022C08091E8008E778093E80001151105A4
:10352000A1F0F80180819181A80EB91EB182A0821C
:1035300085E0F82E8F2DDF91CF911F910F91FF9095
:10354000DF90CF90BF90AF9008950E94C11B882359
:10355000D1F2F82EEFCFF60181916F018093F10047
:103560002197FFEFAF1ABF0ACECFFC0180918A02EC
:1035700090918B0286179707A0F06115710529F4C9
:103580009091E8009E779093E80090E061157105B6
:1035900051F4911108C08091E80082FF32C080E0B0
:1035A0000895BC01F2CF809183028823B1F1853068
:1035B000B1F18091E80083FD2EC08091E80082FD8A
:1035C000EACF8091E80080FFE1CF2091F20030E067
:1035D0006115710519F02830310558F091E0283057
:1035E000310509F090E02091E8002E772093E80063
:1035F000CDCF81918093F100615071092F5F3F4FD2
:10360000E7CF80918302882341F0853041F080919B
:10361000E80083FFC0CF81E0089582E0089583E051
:103620000895FC0180918A0290918B02861797077A
:10363000A0F06115710529F48091E8008E778093E0
:10364000E80090E06115710551F4911108C0809176
:10365000E80082FF33C080E00895BC01F2CF809182
:1036600083028823B9F18530B9F18091E80083FDA8
:103670002FC08091E80082FDEACF8091E80080FFB2
:10368000E1CF2091F20030E06115710519F028308A
:10369000310558F091E02830310509F090E0809133
:1036A000E8008E778093E800CDCF84918093F1007D
:1036B0003196615071092F5F3F4FE6CF80918302B1
:1036C000882341F0853041F08091E80083FFBFCF2F
:1036D00081E0089582E0089583E00895982F953061
:1036E00028F08F708093E90081E008959093E900BD
:1036F000242F762F50E0981731F07091EC00209134
:10370000ED005091F00021FD02C09F5FE8CF3091A5
:10371000EB003E7F3093EB003091ED003D7F309326
:10372000ED003091EB0031603093EB007093EC00D2
:103730002093ED005093F0002091EE0027FDE5CF9F
:1037400080E008958091840287FF13C08091E80093
:1037500082FF06C08091E8008B778093E80004C068
:10376000809183028111F2CF089580918302882392
:10377000D9F38091E80080FFF8CF8091E8008E7740
:10378000ECCF2091E4003091E50095E6A90120916D
:10379000EC00822F817020FF06C08091E80080FF3E
:1037A00006C080E008952091E80022FD1AC08091B3
:1037B0008302882389F0853089F08091EB0085FDB4
:1037C0000FC02091E4003091E50042175307F9F251
:1037D0009150E1F684E0089582E0089583E0089531
:1037E00081E008950E944F1C0E94521CE0EEF0E020
:1037F000808181608083E8EDF0E080818F77808335
:1038000019BCE3E6F0E0808181608083109282023F
:1038100008950E944F1C0E94521C8091D8008F77FF
:103820008093D8008091D80080688093D8008091E0
:10383000D8008F7D8093D80084E089BD86E089BD63
:1038400009B400FEFDCF1092830210927F02109205
:1038500081021092800242E060E080E00E946E1BD4
:103860008091E1008E7F8093E1008091E200816091
:103870008093E2008091E20088608093E200809172
:10388000E0008E7F8093E0000895E3E6F0E0808121
:103890008E7F808381E0809382020C94091C1092B9
:1038A000E20008951092E10008951F920F920FB662
:1038B0000F9211242F933F934F935F936F937F93B6
:1038C0008F939F93AF93BF93EF93FF938091E1000A
:1038D00082FF0BC08091E20082FF07C08091E1006F
:1038E0008B7F8093E1000E949C1E8091E10080FF0D
:1038F00019C08091E20080FF15C08091E2008E7FA8
:103900008093E2008091E20080618093E2008091E8
:10391000D80080628093D80019BC85E08093830230
:103920000E94F1188091E10084FF2BC08091E20099
:1039300084FF27C084E089BD86E089BD89B5982FC2
:10394000917080FFFBCF8091D8008F7D8093D8004D
:103950008091E1008F7E8093E1008091E2008F7E74
:103960008093E2008091E20081608093E200809188
:103970007F02882309F443C084E0809383020E947D
:10398000F2188091E10083FF29C08091E20083FF5B
:1039900025C08091E100877F8093E10082E08093E1
:1039A000830210927F028091E1008E7F8093E1007C
:1039B0008091E2008E7F8093E2008091E20080613E
:1039C0008093E20042E060E080E00E946E1B809104
:1039D000F00088608093F0000E94F018FF91EF9152
:1039E000BF91AF919F918F917F916F915F914F9117
:1039F0003F912F910F900FBE0F901F9018958091BF
:103A0000E30087FD93E090938302B9CF1F920F925A
:103A10000FB60F9211242F933F934F935F936F93A1
:103A20007F938F939F93AF93BF93CF93DF93EF9346
:103A3000FF93D091E900DF708091EC00C82FC17036
:103A400080FDC0E81092E9008091F000877F8093AC
:103A5000F00078940E944A1D1092E9008091F000D5
:103A600088608093F000CD2BCF70C093E900FF9168
:103A7000EF91DF91CF91BF91AF919F918F917F9106
:103A80006F915F914F913F912F910F900FBE0F90CB
:103A90001F9018951F93CF93DF93CDB7DEB7AA97EA
:103AA0000FB6F894DEBF0FBECDBF84E892E0209140
:103AB000F100FC012193CF01F2E08C389F07B9F7A8
:103AC0000E94FE188091E80083FF1EC1809184024D
:103AD000909185029A3008F017C1E92FF0E0E7587D
:103AE000F04E0C94D21E803899F0823809F00CC147
:103AF000809188028F70853008F006C18093E900BC
:103B00008091EB0085FB882780F91092E90006C0C0
:103B10008091800290918102911182609091E800E1
:103B2000977F9093E8008093F1001092F1008091CC
:103B3000E8008E77E5C0882309F4D3C0823009F00D
:103B4000E3C0809186028111D6C0809188028F7077
:103B50002FEF280F243008F0D7C08093E900209180
:103B6000EB0020FFC8C0933031F48091EB008062FD
:103B70008093EB00C0C09091EB0090619093EB00BC
:103B800021E030E001C0220F8A95EAF72093EA0095
:103B90001092EA008091EB008860EACF8111B4C0F6
:103BA000109186021F778091E3008078812B8093AB
:103BB000E3008091E800877F8093E8000E94A21BC9
:103BC0008091E80080FFFCCF8091E30080688093C3
:103BD000E30082E0111183E08093830295C0805856
:103BE000823008F091C080918602909187028C3DCE
:103BF00023E09207A1F583E08A838AE289834FB7A5
:103C0000F894DE01139620E03EE051E2E32FF0E06D
:103C100050935700E49120FF03C0E295EF703F5F9F
:103C2000EF708E2F90E0EA30C0F0C7968D939D9391
:103C30002F5F243159F74FBF8091E800877F809331
:103C4000E8006AE270E0CE0101960E94B51A809108
:103C5000E8008B778093E80057C0C096E7CF60916B
:103C6000880270918902AE014F5F5F4F0E94F61982
:103C7000BC01892B09F448C09091E800977F90938C
:103C8000E80089819A810E94111BE1CF8038E1F51B
:103C90008091E800877F8093E80080917F02809385
:103CA000F10045CF811130C090918602923060F5CD
:103CB0008091E800877F8093E80090937F020E94C4
:103CC000A21B80917F02882311F084E005C08091BF
:103CD000E30087FDFACF81E0809383020E94F4180D
:103CE00013C080918602813079F481E0933009F02D
:103CF00080E0809381021092E9008091E800877F44
:103D00008093E8000E94A21B8091E80083FF0AC014
:103D10008091E800877F8093E8008091EB008062CB
:103D20008093EB00AA960FB6F894DEBF0FBECDBF0E
:103D3000DF91CF911F9108950895CF9380918302D1
:103D40008823A1F0C091E900CF709091EC00892FF9
:103D5000817090FD80E8C82B1092E9008091E80006
:103D600083FD0E944A1DCF70C093E900CF91089552
:103D7000002480FD060E660F11F08695D1F7802D88
:103D800008950024552704C0080E591F880F991F55
:103D9000009729F076956795B8F37105B9F7802DEE
:103DA000952F0895EE0FFF1F0590F491E02D0994D3
:103DB000F999FECF92BD81BDF89A992780B50895F3
:103DC000A8E1B0E042E050E00C940C1F262FF999D6
:103DD000FECF92BD81BDF89A019700B4021639F06A
:103DE0001FBA20BD0FB6F894FA9AF99A0FBE08953B
:103DF0000396272F0E94E71E0E94E61E252F0E9491
:103E0000E71E242F0C94E71E0196272F0E94E71E21
:103E10000C94E61EDC01CB01FC01F999FECF06C033
:103E2000F2BDE1BDF89A319600B40D924150504078
:103E3000B8F70895F894FFCF900C900CE80CE80CBC
:103E4000340DBD0CBD0CBD0C500DDC0DEB0DEB0DA0
:103E5000470EBD0CBD0C500ECF0ECF0ED80ED80E97
:103E6000DA0ED80ED80ED80ECF0ECF0EDF0ED80E2B
:103E7000D80EDF0EEC17E317EF17E11734183418DC
:103E8000E117341834180B18341816182118341880
:103E9000341834183418E11734183418E11734186A
:103EA000FD173418341832183218321832183218F4
:103EB00032183218321832182C183418EC17DF1751
:103EC0003418341834183418341834183418341892
:103ED000341834182C1834183418E11734183018E2
:103EE0003018301830183018301830183018301892
:103EF0002C18731D9B1D841E9B1D841ECE1DEF1D43
:063F0000841E461E521E45
:103F06008C002A000086002A000080002B00007A20
:103F16000029000074004C00000121027118B0183D
:103F26007418AC18A81801E200E900EA00B500B65A
:103F360000B700CD008301CC008A019201940121D3
:103F460002230224022502260227022A02B300B413
:103F5600006F0070008182836566673736353433BB
:103F6600629064303132E200E900EA00B500B60042
:103F7600B700CD008301CC008A0192019401210291
:103F8600230224022502260227022A02B300B400D5
:083F96006F00700081828300BE
:00000001FF
