:100000000C94A6030C94DE030C94DE030C94DE0324
:100010000C94DE030C94DE030C94DE030C94DE03DC
:100020000C94DE030C94DE030C94DE030C94A829DC
:100030000C9464290C94772A0C94DE030C94DE0350
:100040000C94DE030C94DE030C94DE030C94532A10
:100050000C94DE030C94DE030C94DE030C94DE039C
:100060000C94DE030C94DE030C94DE030C94DE038C
:100070000C94DE0305010902A10185020901A1001A
:10008000050919012905150025019505750181024C
:100090009501750381010501093009311581257F1D
:1000A00095027508810609381581257F9501750827
:1000B0008106050C0A38021581257F950175088196
:1000C00006C0C005010980A101850319012AB700F6
:1000D000150126B700950175108100C0050C0901B6
:1000E000A101850419012AA002150126A00295018B
:1000F00075108100C005010906A1018506050719D3
:10010000E029E71500250195087501810205071909
:100110000029EF1500250195F075018102050819E8
:10012000012905950575019102950175039101C09D
:100130000660FF0961A1010962150026FF009520F4
:10014000750881020963150026FF00952075089146
:1001500002C005010906A101050719E029E71500FC
:100160002501950875018102950175088101050732
:10017000190029FF150026FF009506750881000566
:1001800008190129059505750191029501750391DD
:1001900001C000000000000000000000000000009E
:1001A000000000000000000000000000000000004F
:1001B0000000000000007E0F00D4FFFFFFC700001A
:1001C000007800000000000000002A2B280000003A
:1001D00000000000000000000000000000290000F6
:1001E00000002C1E3420212224342627252E362DD3
:1001F0003738271E1F202122232425263333362E6D
:1002000037381F0405060708090A0B0C0D0E0F10DE
:100210001112131415161718191A1B1C1D2F313023
:10022000232D350405060708090A0B0C0D0E0F10C7
:100230001112131415161718191A1B1C1D2F313003
:10024000354CFD377A585A000004E6D6B446020011
:10025000210116000000742FE5A3E0058A01605D0E
:10026000003D888986D3DC0AE842C324925842586C
:100270008FD8E75CA0D2616E26E888019A676C7817
:1002800087BC8D3709EA0E1459A53C79858663BA77
:10029000247445A3F020FF20B3687235CC77FE5755
:1002A000F71DCDC486FDE5E8F629B306CB2F5B3DEF
:1002B0000D56B72F5C68F9430A643EE3DE834509B7
:1002C00063E435A31C6153020DCAEDFA0A7DBDF744
:1002D000D187339876458A13A3AFF0009EE401FBE3
:1002E00003BCB1F50C7953F35A6080E569FE181729
:1002F000C7807C4D701D9C68660351E27007D084F6
:10030000FB9902822F589394A625737B67B2119FA5
:10031000A92EAF2C7C7CCEAC72DEE50D50D8289394
:10032000119E18D2EB189D77C6794A7F9A290E2024
:100330009C65DE532B3740AA49B91283453F2A9367
:10034000CDE6205DDCAE40EEC0E863DF9DFC27BD5E
:100350000B1045747CD0F7F4268F831591552861D6
:10036000F526CF9205906B29262C15EE4A9571C281
:1003700078233F9B01E06BCAFBFA2097C8A8CF21E6
:1003800080FAC976B67B29D23E129E21CD2684BA48
:10039000D914E751AD5955EC577F322EDA6E297DCD
:1003A000CD713984997D8C70AC37D23AACD5B365B8
:1003B00093F63383FB40AC95FA85978F67F41E93D1
:1003C0008A008B2802DB517E5B740001FC028B0BE0
:1003D00000000480C8EDB1C467FB02000000000407
:1003E000595AAA00A9000100010001000100010002
:1003F0000100290014001A000800150017001C0055
:1004000018000C00120013002A0000002B0004004A
:100410001600070009000A000B000D000E000F0077
:10042000330028000000E1001D001B000600190039
:10043000050011001000360037003800E50000000C
:10044000E000E200E30001512C002C002C002C0005
:100450002C000251E700E600E40001000100010069
:100460000100010001000100010001000100010084
:100470000100000001000100010001000100010075
:100480000100010001000100010001000000010065
:100490000100010001000100010001000100010054
:1004A0000100010001000000010001000100010045
:1004B0000100010001000100010001000100010034
:1004C0000100010001000100010001000100010024
:1004D0000100010001000100010000000100010015
:1004E0000100010001000100010001000100010004
:1004F00001000100000001000100010001000100F5
:1005000001000100010001000100010001000000E4
:1005100001000100010001000100010001000100D3
:1005200001000100010001000100010001000100C3
:1005300001000100010001000100010001000100B3
:1005400001000000010001000100010001000100A4
:100550000100010001000100010001000000010094
:100560000100010001000100010001000100010083
:100570000100010001000000010001000100010074
:100580000100010001000100010001000100010063
:100590000100010001005C036C0D9F0D00000200D2
:1005A000020058036C0D9F0D0000030001005D0365
:1005B0006C0D9F0D00000400020042036C0D9F0DA6
:1005C0008D06050001005E036C0D9F0D0000060006
:1005D000020044036C0D9F0D0000070002005A0347
:1005E0006C0D9F0D0000080001005F036C0D9F0D56
:1005F00000000900020046036C0D9F0D68060A000A
:10060000020048036C0D9F0D68060B0002004A03B0
:100610006C0D9F0D68060C0002004C036C0D9F0DC5
:1006200068060D0002004E036C0D9F0D68060E005B
:10063000020050036C0D9F0D68060F00020052036C
:100640006C0D9F0D68061000020054036C0D9F0D89
:1006500068061100020056036C0D9F0D680612001B
:10066000020060036C0D9F0D000013000200620386
:100670006C0D9F0D00001400010064036C0D9F0DB4
:100680000000150000000000E5055E1500000902ED
:100690005B00030100A0FA0904000001030101004E
:1006A0000921110100012240000705810308000112
:1006B00009040100020300000009211101000122C8
:1006C0002200070582032000010705030320000123
:1006D00009040200010300000009211101000122A8
:1006E000BC00070584032000011201000200000085
:1006F00008726F6B720001010203011C037600692E
:100700000061006C003A006600360034006300327D
:1007100000620033006300000016036F0072007473
:100720000068006F006D006F0072006F006E0000C7
:100730000014037200610069006E006B00650065C3
:1007400000620073000000040309040011241FBEAE
:10075000CFEFD4E0DEBFCDBF04B603FE18C080915A
:10076000EE039091EF03A091F003B091F103873075
:10077000904BA740B04B59F41092EE031092EF0348
:100780001092F0031092F103E0E0F8E3099523E002
:10079000A6E8B1E001C01D92AE3EB207E1F711E05C
:1007A000A0E0B1E0E8E7F6E602C005900D92A638B9
:1007B000B107D9F70E949E2A0C9416330C940000BE
:1007C0002091E4003091E50095E6A9012091EC002C
:1007D000822F817020FF06C08091E80080FF06C054
:1007E00080E008952091E80022FD1AC08091E10385
:1007F000882389F0853089F08091EB0085FD0FC05A
:100800002091E4003091E50042175307F9F291502E
:10081000E1F684E0089582E0089583E0089581E0A0
:100820000895EF92FF920F931F93CF937C018B015A
:100830000E94E003C82F811117C08091E80085FD58
:100840000BC08091E8008E778093E8000E94E0035F
:10085000882399F3C82F08C0F70181917F01809305
:10086000F1000150110949F78C2FCF911F910F9181
:10087000FF90EF9008958091E30387FF13C080916C
:10088000E80082FF06C08091E8008B778093E80043
:1008900004C08091E1038111F2CF08958091E103BA
:1008A0008823D9F38091E80080FFF8CF8091E80099
:1008B0008E77ECCF982F9093E900242F762F50E07D
:1008C000891731F07091EC002091ED005091F0000B
:1008D00021FD07C09F5F953071F78093E90081E0AB
:1008E00008953091EB003E7F3093EB003091ED00A6
:1008F0003D7F3093ED003091EB0031603093EB00A1
:100900007093EC002093ED005093F0002091EE00E6
:1009100027FDE0CF80E00895FC018091E9039091EC
:10092000EA0386179707A0F06115710529F49091E5
:10093000E8009E779093E80090E06115710551F40E
:10094000911108C08091E80082FF32C080E00895D4
:10095000BC01F2CF8091E1038823B1F18530B1F180
:100960008091E80083FD2EC08091E80082FDEACFEF
:100970008091E80080FFE1CF2091F20030E0611526
:10098000710519F02830310558F091E02830310513
:1009900009F090E02091E8002E772093E800CDCF79
:1009A00081918093F100615071092F5F3F4FE7CF34
:1009B0008091E103882341F0853041F08091E80087
:1009C00083FFC0CF81E0089582E0089583E0089519
:1009D00008958091BE0308959C014FB7F8948091CB
:1009E000B4039091B503A091B603B091B7034FBF84
:1009F000821B930B08952FB7F8948091B4039091C4
:100A0000B503A091B603B091B7032FBF089520910D
:100A10001C012223C9F02091B80327FF15C0E62F3F
:100A2000E695E695E695EE31D8F4E80FF92FF11D3D
:100A3000677021E030E001C0220F6A95EAF7209547
:100A40008281282322830895FC0132960896219101
:100A5000621303C0DF0111971C92E817F907B9F779
:100A6000089520911C012223C1F02091B80327FF93
:100A700014C0E62FE695E695E695EE31F8F4E80F1A
:100A8000F92FF11D677021E030E001C0220F6A9557
:100A9000EAF78281822B82830895FC0132962FEF40
:100AA00030E04191641751F02F3F19F4411101C01A
:100AB000232F3F5F3630A9F72F3F09F40895820FA7
:100AC000911D27FD9A95FC01628308952091B10341
:100AD0003091B2032817390771F09093B2038093D5
:100AE000B103E091AF03F091B003309721F000849F
:100AF000F185E02D099408952091AD033091AE0366
:100B00002817390771F09093AE038093AD03E091FD
:100B1000AF03F091B003309721F00680F781E02D0C
:100B200009940895E091AF03F091B003309721F05C
:100B30000190F081E02D099480E00895452B39F073
:100B4000682381E06F3F09F080E08170089581E0C3
:100B5000FCCFA0913E0350913F034A2F541301C094
:100B60000895242F30E0F901EE0FFF1FEA5CFC4FDF
:100B7000608171816817790791F467E070E00E94E5
:100B800050328F5D9C4F51E0FC0154834A13E8CFF3
:100B90002F5F3F4F2370332720933E0308952F5F2D
:100BA0003F4F422F4370DACF1092BE021092BD0227
:100BB000E1E2F3E08581811102C01482168237964A
:100BC00083E0E633F807B1F70895AF92BF92CF9272
:100BD000DF92EF92FF920F931F93CF93DF938FEFEC
:100BE0009FEF4430510508F468C04091B80341FBC1
:100BF000882780F990E0880F991F42FB002700F9B1
:100C000010E0000F111F000F111F802B912B40FBD4
:100C1000CC24C0F8D12C8C299D2943FB222720F914
:100C2000C22FE0E0DE2F53E0CC0FDD1F5A95E1F735
:100C30008C2B9D2B44FBAA27A0F9B0E0E4E0AA0F7F
:100C4000BB1FEA95E1F78A2B9B2B45FBEE27E0F9CA
:100C5000F0E0A5E0EE0FFF1FAA95E1F78E2B9F2B8A
:100C600046FB222720F930E0B6E0220F331FBA9569
:100C7000E1F7822B932B47FB222720F930E03695B2
:100C8000322F222737952795822B932B2091B9035A
:100C9000322F3170F32EF92A26952170B22EBB0C1B
:100CA000A82EBF28C501BB0CAA0BBB0BFB01808380
:100CB0009183A283B38390E080E0DF91CF911F9175
:100CC0000F91FF90EF90DF90CF90BF90AF9008957D
:100CD000E2E4F3E0848195812AE030E0B9010E94EA
:100CE000613260931701868180931601828580931B
:100CF000150184858093140186859785B9010E942A
:100D000061326093130180898093120182898093FC
:100D1000110184898093100108958091420390917C
:100D200043039093190180931801089581152CE5D0
:100D3000920741F420910E0130910F01232B11F401
:100D400090E080E008950E94FB049C019091650270
:100D500080916602982B21F0309362022093610209
:100D60009091670280916802982B21F03093600285
:100D700020935F02E091AF03F091B003309749F008
:100D800082E0809363020480F581E02D83E692E0A7
:100D90000994089590916502803F59F4809166020C
:100DA00087FF0DC01092660291110BC010925D0278
:100DB00008C0813F81F48091660218169CF3992344
:100DC00081F08091670290916802892B09F064C0DC
:100DD00010925C020895823F49F497FFF0CF109281
:100DE0006502809166028111ECCFE0CF833F19F458
:100DF0001916ACF3E4CF20916702893F29F412164B
:100E0000F4F610926702DBCF8A3F19F427FFD7CFA1
:100E1000F8CF209168028B3F29F427FFD0CF1092A2
:100E20006802CDCF8C3F19F41216CCF3C8CF843FA3
:100E300031F4809164028E7F80936402C0CF853F3D
:100E400021F4809164028D7FF7CF863F21F4809159
:100E500064028B7FF1CF873F21F480916402877F0A
:100E6000EBCF883F21F4809164028F7EE5CF8D3FE8
:100E700031F480915E028E7F80935E02A0CF8E3F20
:100E800021F480915E028D7FF7CF8F3F09F097CFDD
:100E900080915E028B7FF0CF089580915E0280FF8B
:100EA0000CC06091110170E0759567957595679517
:100EB0006115710559F1862F089581FF06C0609173
:100EC000110170E075956795F3CF6091110170E0A5
:100ED00082FD0CC060915C026623A9F02091100194
:100EE0008091110190E0621730F0BC01603871050B
:100EF000F8F28FE7089570E00E945032622F70E0A0
:100F00000E947532F3CF61E070E0D5CF81E00895A3
:100F100080915E0220914A0330914B0380FF13C001
:100F20008091150190E0B9010E9450329C013695E4
:100F300027953695279520383105A0F521153105DF
:100F400099F1822F089581FF0AC08091150190E0E8
:100F5000B9010E9450329C0136952795ECCF82FF53
:100F600008C08091150190E0B9010E9450329C01A7
:100F7000E2CF80915D028823F1F2409114016091EB
:100F8000150170E0841710F0C901EFCF90E00E94C6
:100F90005032B9010E945032642F70E00E946132D9
:100FA0009B01C9CF8FE7089581E00895803F31F418
:100FB0000E9488078195809366020895813F19F405
:100FC0000E948807F8CF823F31F40E9488078195FC
:100FD000809365020895833F19F40E948807F8CF33
:100FE000893F29F40E944D078093670208958A3F44
:100FF00021F40E944D078195F7CF8B3F31F40E9479
:101000004D0781958093680208958C3F19F40E94E2
:101010004D07F8CF843F31F4809164028160809362
:1010200064020895853F21F4809164028260F7CFC5
:10103000863F21F4809164028460F1CF873F21F4E0
:10104000809164028860EBCF883F21F48091640234
:101050008061E5CF8D3F31F480915E0281608093A5
:101060005E0208958E3F21F480915E028260F7CF88
:101070008F3FB9F780915E028460F1CF80E00895E0
:10108000F894E82FE295EF70F0E031A1282F2F704F
:1010900081E090E001C0880F2A95EAF7982F90959B
:1010A000932391A392A1892B82A378940895909180
:1010B000B80392FF06C0282F28712830F9F4877FE3
:1010C000846093FF06C0282F28712831F1F4877EB1
:1010D00084612091B90320FF06C0382F3871383061
:1010E000D9F4877F816021FF06C0282F287128311D
:1010F000D1F4877E816194FD877E0895282F247125
:101100002430F9F68B7F8860DCCF282F24712431BE
:1011100001F78B7E8861DDCF382F3171313019F7BF
:101120008E7F8860E0CF282F2171213121F78E7EBC
:101130008861E1CFCF93DF93EC0182389105A9F16B
:10114000D8F58133910509F496C048F589329105A7
:1011500009F48AC08A9709F495C0C11521E5D20720
:1011600008F0BCC0C11530E5D30708F016C1C83E71
:10117000D10508F09CC0C03ED10560F5C83AD10544
:1011800008F087C0C53AD10508F0FFC0C130D105CD
:1011900009F12097F9F0C430D105E0F440C085335F
:1011A000910509F45AC0C997C1F68091B8038370BC
:1011B00089F0C0EED0E00EC0833E910599F170F445
:1011C000803E910501F1823E910539F68091B80388
:1011D00082FD21C0CE01DF91CF910895863E910519
:1011E00061F1873E910571F1843E910509F0B5CF1B
:1011F0008091B90381FFEECF8091B803C7EED0E0B4
:1012000084FD0DC0E7CF8091B80380FD18C1909197
:10121000B90390FFDFCFC3EED0E084FFDBCFD0E097
:10122000C0E0D8CF8091B80382FD0CC19091B90382
:1012300090FDBFCF84FFCECFF2CF8091B80383FD66
:10124000DDCFC8CF8091B80383FDFFC09091B90373
:1012500091FFF0CFC4EED0E0BDCF8091B80385FF01
:10126000B9CFC9E2D0E0B6CF8091B80385FFB2CF45
:10127000C5E3D0E0AFCF8091B80386FFABCFCAE221
:10128000D0E0A8CF8091B80386FFA4CFC1E3D0E01F
:10129000A1CFCF3BD10518F6C85AD0E0CC0FDD1F47
:1012A000C85DDE4F0990D881C02DD46493CFC1159D
:1012B00040E2D40758F4C11581E0D80708F08ACF7E
:1012C000C03FD10508F4ABCFD06584CFC11520E471
:1012D000D20708F4A4CFDF70D06A7CCFC11535E502
:1012E000D30710F5C11544E5D40708F090C0C11527
:1012F00083E5D80708F075C0C11522E5D20708F4C8
:101300006BC0CE018370992721E030E002C0220F2C
:10131000331F8A95E2F7C695C695D0E0E5E0CC0F7D
:10132000DD1FEA95E1F754C0C11539E5D307A8F4EC
:10133000C11548E5D40708F06FC0C11586E5D80788
:1013400008F06DCF8C2F0E945708C82FD0E0DC2FFB
:10135000CC27CC27DF71D0623DCFC1152AE5D2075B
:1013600008F45FC0CE0190568115904208F057CF27
:101370008D2F8F710E94570890E0982F882788271B
:101380009F719C012C2BE901E6CFC55AD0E0CB5DC3
:10139000DE4FC881D0E0D0641DCFCE01A4E0969589
:1013A0008795AA95E1F783702C2F269526952370B3
:1013B00030E0B5E0220F331FBA95E1F7382B8C2FC0
:1013C0008370C1E0D0E002C0CC0FDD1F8A95E2F748
:1013D000C22BD32BDC68FECEDC2FCC27C16FD06AAA
:1013E000F9CECE018370992721E030E002C0220FB0
:1013F000331F8A95E2F7C695C695D0E075E0CC0F0D
:10140000DD1F7A95E1F7C22BD32BDA68E3CEDC2F10
:10141000CC27C46FD06ADECEDC2FCC27C06FD06A59
:10142000D9CE8C2F8F700E94570834E0D695C7957F
:101430003A95E1F7CF709C2FEC01D069CBCEC9E390
:10144000D0E0C8CEC2EED0E0C5CEC6EED0E0C2CE6F
:1014500080913002882331F01092300210922F02D6
:1014600010922E020895CF93C82F8091B90382FD68
:101470000CC0809130028C1741F00E94FB049093C5
:101480002F0280932E02C0933002CF910895809551
:101490009091ED0398239093ED030895809590919A
:1014A0009802982390939802089590919802892B1E
:1014B00080939802089510920D0210920C021092DF
:1014C0000B0208958091440390914503892B89F084
:1014D0000E94FB0420912E0230912F02AC01421B8E
:1014E000530B81E020914403309145034217530789
:1014F00008F480E08170089580910A0281111092B1
:101500000A020895209109029091C801291302C08E
:1015100080E0089530E0F90153E0EE0FFF1F5A9587
:10152000E1F7E753FE4F5181561306C0508158131F
:1015300003C05281541304C02F5F3F4F2770E6CF82
:1015400081E00895809109029091C801981301C02B
:1015500008958F5F8770FACF282F892F9E3F51F112
:101560006DE00E944732820FA82FA770869586955E
:10157000869590E063E070E00E945032FC01E555F2
:10158000FE4F50E040E080E0219130E00A2E02C0A2
:10159000369527950A94E2F721703327042E01C06F
:1015A000220F0A94EAF7822B4F5F5F4F43305105B9
:1015B00059F7089580E00895CF93DF93282F892F5E
:1015C000362F9E3F79F16DE00E944732820F982FAF
:1015D0009770E1E001C0EE0F9A95EAF7869586953F
:1015E000869590E063E070E00E945032DC01A555E2
:1015F000BE4F50E040E0632F70E08D91ED012197E8
:101600009B01042E02C0369527950A94E2F72170BB
:10161000219528272E23282728834F5F5F4F4330AB
:10162000510559F7DF91CF91089592959F709630AB
:1016300091F058F4925F9F70923058F4803F19F007
:1016400030F4883E30F481E008959A5FF4CF843F0F
:10165000D1F380E00895883EB0F3813FD1F7F3CF16
:101660009C013A9521153F4150F5FC01EE27F170A0
:10167000BC0166277270AC01442754709C0122277C
:10168000387094FF0EC080E1EF2B09F480E0672BE7
:1016900009F08062452B09F08064232B89F0806873
:1016A000089581E0EF2B09F480E0672B09F0826058
:1016B000452B09F08460232B19F08860089580E0A1
:1016C00008958093BA037093BC036093BB03809129
:1016D000E1038430F9F48093E9008FEF9091E80002
:1016E000815095FD06C095ED9A95F1F700008111A6
:1016F000F5CF8091E80085FF0DC050E040E063E049
:1017000070E08AEB93E00E9411048091E8008E77EC
:101710008093E8000895BC0184E00C94610BBC0147
:1017200083E00C94610B9C0184E08093E9009FEFBF
:101730008091E800915085FD06C085ED8A95F1F70E
:1017400000009111F5CF8091E80085FF0CC050E0BA
:1017500040E066E070E0C9010E9411048091E80059
:101760008E778093E8000895CF93DF93EC0180910A
:101770001C018823B1F18091B80387FF32C060E279
:1017800084E08093E9008FEF9091E800815095FD0F
:1017900006C095ED9A95F1F700008111F5CF809183
:1017A000E80085FF1BC080911C0170E050E040E024
:1017B000811104C050E040E068E070E0CE010E947A
:1017C00011048091E8008E778093E80080E2FE01AA
:1017D000AFEBB3E001900D928A95E1F7DF91CF91E5
:1017E000089568E081E0CDCF81E08093E00080E261
:1017F0008093D8001092C9008FE19EE40197F1F721
:1018000000C0000087E090EBDC018093EE03909332
:10181000EF03A093F003B093F10388E19CE00FB6CF
:10182000F894A895809360000FBE90936000FFCF5E
:10183000019708F40895EFE9FFE03197F1F700C050
:101840000000F6CF0F931F93CF93DF9302E413E0D2
:10185000C7EDD1E0CE010E94CC32F80181938F0117
:101860002196CB3FF1E0DF07A9F7CCE9D5E0FE01F7
:1018700085919491009711F0FC0109952C96F6E062
:10188000C839DF07A1F7DF91CF911F910F9108951C
:101890000F931F93CF93DF93843010F5611120C015
:1018A000C82FD0E0CC0FDD1FCC0FDD1F50E0440F60
:1018B000551FC40FD51FC953DE4FCE010E94CC3235
:1018C000082F10E0102F0027CE0101960E94CC3285
:1018D0009801282BC901DF91CF911F910F91089595
:1018E00090E080E0F8CF0F931F93CF93DF93282FE2
:1018F000843060F5643050F54D3040F5862F90E02F
:101900006AE170E00E945032C42FD0E0CC0FDD1F9E
:10191000C80FD91F822F90E068E670E00E94503215
:10192000C80FD91FCE0187960E94CC32082F10E035
:10193000102F0027CE0188960E94CC329801282BC8
:10194000C901DF91CF911F910F91089590E080E040
:10195000F8CF462F2091960230919702232B91F4D5
:101960007E3F39F46E3F71F480919402909195021C
:101970000895843038F4743028F46D3018F4672FEB
:101980000C94730C90E080E00895CF92DF92FF9268
:101990000F931F93CF93DF936C010091EC03809121
:1019A000EB03082BC7E0D0E010E0FC2EC8010C2EA2
:1019B00002C0959587950A94E2F780FD0CC02197A7
:1019C000A0F7F12C8F2DDF91CF911F910F91FF90F8
:1019D000DF90CF900895B6018C2F0E94A90C0E9431
:1019E0009A08019761F3EECFCF93DF93EC010E9449
:1019F000C50CBE010E94A90CDF91CF910C949A08EE
:101A0000FC0186819781009721F00E949A080C942E
:101A1000150B808191810E94F40CF9CF1F93CF9315
:101A2000DF9300D000D00F92CDB7DEB749835A8341
:101A300089819A816623B9F02223A9F00E94C50CFE
:101A4000182F682F89819A810E94DC0A69817A8126
:101A5000812F0F900F900F900F900F90DF91CF91EB
:101A60001F910C94A90C0E94AC0A182FEFCFFC0117
:101A7000262F86819781009739F4408151816281B8
:101A8000738184810C940E0D089583E290E00E948E
:101A9000CC32823289F484E290E00E94CC32833BE3
:101AA00059F485E290E00E94CC3291E08F3009F049
:101AB00090E0892F8170089580E0FCCFCF9384E07F
:101AC00090E00E94CC32C82F82E290E00E94CC329B
:101AD000982F8C2FCF910895DB01FC013296259130
:101AE00034914217530758F0FC0134966591749174
:101AF000A901CD010E94AC3290E080E008958FEF03
:101B00009FEF08950F931F93CF93DF9302E413E0A9
:101B1000C7EDD1E0CE010E94CC32F80161918F0176
:101B2000681719F0CE010E94DA322196CB3FF1E01E
:101B3000DF0781F7DF91CF911F910F910895DA01AF
:101B40009C012E5F3F4FF90145915491F901259178
:101B50003491A217B30758F0FC0134968591949103
:101B60000E94AC320E94820D90E080E008958FEFD9
:101B70009FEF0895CF93DF93C7E3D2E060E0CE01FB
:101B80000E94DA322196C11584E0D807B9F7DF91B7
:101B9000CF9108951F93CF93DF93122F8430E8F4F1
:101BA00061111BC04230C8F4C82FD0E0CC0FDD1F3C
:101BB000CC0FDD1F50E0440F551FC40FD51FC95374
:101BC000DE4F632FCE010E94DA32612FCE010196E3
:101BD000DF91CF911F910C94DA32DF91CF911F9159
:101BE00008950F931F93CF93DF93E82F89018430DB
:101BF00078F5643068F54D3058F521153C4531F4E1
:101C000080910E0190910F01892B11F1862F90E0A8
:101C10006AE170E00E945032C42FD0E0CC0FDD1F8B
:101C2000C80FD91F8E2F90E068E670E00E945032F6
:101C3000C80FD91F612FCE0187960E94DA32602F1C
:101C4000CE018896DF91CF911F910F910C94DA32DB
:101C5000DF91CF911F910F910895CF93C82F6FEF10
:101C6000811162E283E290E00E94DA326FEFC111EB
:101C700063EB84E290E00E94DA326FEFC1116FE013
:101C800085E290E0CF910C94DA32CF93C92F682F80
:101C900084E090E00E94DA326C2F82E290E0CF91F3
:101CA0000C94DA329B01833080F490E06AE070E0BB
:101CB0000E945032BC0165507E4F4AE050E0C9019D
:101CC0000E94BC3290E080E008958FEF9FEF08956E
:101CD0008F929F92AF92BF92CF92DF92EF92FF923C
:101CE0000F931F93CF93DF93CDB7DEB72A970FB62D
:101CF000F894DEBF0FBECDBF0BE613E0F12CE12C54
:101D00008EEBC82E88E2D82E98EEA92E98E2B92E36
:101D100026ED822E27E2922EF801D182C082B38274
:101D2000A28295828482F58AE48ABE016F5F7F4F2A
:101D30008E2D0E94520E892B29F489859A85F801EF
:101D4000938B828BFFEFEF1AFF0A0A5E1F4F83E02F
:101D5000E816F10409F72A960FB6F894DEBF0FBE15
:101D6000CDBFDF91CF911F910F91FF90EF90DF904A
:101D7000CF90BF90AF909F908F900895CF92DF92B9
:101D8000EF92FF920F931F93CF93DF93CDB7DEB700
:101D90002A970FB6F894DEBF0FBECDBFE6E7F2E09C
:101DA0008EE1DF011D928A95E9F7E1E2F3E085E13A
:101DB000DF011D928A95E9F786E7C82E82E0D82ECA
:101DC0007F0109E112E0F701D182C0824AE050E0D0
:101DD000B801CE0101960E94BC3288E0FE01319626
:101DE000D60101900D928A95E1F789859A85D701F0
:101DF00013969C938E931297BAE0CB0ED11CE7E01A
:101E0000EE0EF11C065F1F4F0733F2E01F07D9F6F5
:101E10002A960FB6F894DEBF0FBECDBFDF91CF91EB
:101E20001F910F91FF90EF90DF90CF9008958F92C8
:101E30009F92AF92BF92CF92DF92EF92FF920F9359
:101E40001F93CF93DF93CDB7DEB728970FB6F894E3
:101E5000DEBF0FBECDBF8E010F5F1F4F88E0F801C0
:101E600011928A95E9F796E5E92E91E0F92E68013D
:101E7000AA24A394B12CF70181917F018F3F09F42B
:101E800046C0F894E82FE295EF70F0E021A18F7042
:101E9000A50102C0440F551F8A95E2F7CA01922F8F
:101EA000982B91A392A18095892382A3789400C056
:101EB000EAE5F1E021E030E0912C812C41914F3FA7
:101EC00009F479C0A42FA295AF70B0E090968C91E0
:101ED00090E04F7002C0959587954A95E2F780FD96
:101EE0006AC0C901882A992A220F331F51E0E736B8
:101EF000F50721F7F701319780818F3F11F00E949C
:101F0000400880EA8A95F1F7F60191828082F2E03A
:101F1000CF0ED11C4AE5E41641E0F40609F0ABCF40
:101F200048E050E0B80185E392E00E949F32FF2430
:101F3000F394009709F4F12C892B09F43FC088E051
:101F4000F801A5E3B2E001900D928A95E1F781E0F6
:101F5000809333020E94FB049093320280933102FB
:101F600080913102909132020E94EC04059750F169
:101F700080913502909136029093550280935402DD
:101F800080913702909138029093570280935602C5
:101F90008091390290913A029093590280935802AD
:101FA00080913B0290913C0290935B0280935A0295
:101FB0001092330207C090E080E094CF809133020A
:101FC0008111CECF8F2D28960FB6F894DEBF0FBEAD
:101FD000CDBFDF91CF911F910F91FF90EF90DF90D8
:101FE000CF90BF90AF909F908F900895809198026E
:101FF0009091ED03892B8093880180913002882392
:1020000019F18091440390914503892B29F00E9496
:10201000620A81110E94280A809188019091300201
:10202000892B8093880180911C018823D9F18091AC
:10203000B80387FF37C08EE1EAE8F1E090E0815015
:1020400098F591110E94280A40E250E06EE072E09B
:1020500088E891E00E949F32892B59F180E2E8E8FC
:10206000F1E0AEE0B2E001900D928A95E1F7E091E7
:10207000AF03F091B0033097E1F080911C01882309
:1020800059F08091B80387FF07C080918801809341
:10209000890186E0809388010280F381E02D88E841
:1020A00091E0099486E0C8CF2191222341F29F5FFD
:1020B000C6CF08950F931F93CF93DF93EC018A85CA
:1020C000811132C00B811C811755C80166E170E097
:1020D0000E945032DC01A559BC4F1496ED91FC9141
:1020E0001597309731F054966D917C918F589C4F95
:1020F0000995C80166E170E00E9450328C010559D3
:102100001C4FF80187810E944E0AF80180850E94C9
:10211000470A0E94F60F188219861B861E821D82AE
:1021200010926A0310926903DF91CF911F910F9172
:102130000895CF93DF93EC018989811118C081E064
:10214000898B8F810E94550A8091ED039885892B98
:102150008093ED030E94F60FEA81FB81309739F0FE
:102160006C897D89CE010696DF91CF910994DF912C
:10217000CF91089580911A01877F80931A0182E0A0
:102180000E94470A80911A0184FF06C08F7E8093C7
:102190001A0182E00E94550A80911A0185FF06C04B
:1021A0008F7D80931A0180E20E94550A0C94F60FED
:1021B00090E080E00E947C0590E080E00E9466054F
:1021C0001092ED030E94F60F86E0E3E6F2E0DF01F5
:1021D0001D928A95E9F710925D0210925C021092AE
:1021E0005E020C94A3068093EC030C94D8108091AB
:1021F000EC03982F9670963019F488600C94F310C5
:10220000877FFCCF21E030E001C0220F8A95EAF7FA
:1022100020958091EC0382230C94F31090910D0291
:102220008095892380930D02282F277091F4282F01
:10223000082E000C330B9217130659F09091B90336
:1022400092FD07C08595859585950E9402110C9495
:102250005B0A08959091B90392FB222720F9281771
:1022600069F080FB92F99093B9038091B803909143
:10227000B9030E94450E82E00C940E11089521E0EE
:1022800030E001C0220F8A95EAF78091EC03822B9F
:102290000C94F3109091B90392FD10C0982F990FF0
:1022A000990F990F962B90930D020E943F110E9457
:1022B000FB0490930C0280930B0208950C943F1141
:1022C0008093EB030C94D8101092980280911C011B
:1022D000EAE8F1E0882359F08091B80387FF07C04E
:1022E0008EE1DF011D928A95E9F70C94D81086E003
:1022F000F8CF1F93CF93DF93CDB7DEB7AA970FB672
:10230000F894DEBF0FBECDBF83EE93E02091F100C5
:10231000DC012D93CD01B3E08B3E9B07B9F7809193
:10232000E403833009F470C0B8F4813009F447C085
:10233000823009F4B1C08091E80083FF93C280919C
:10234000E3039091E4039A3008F08CC2E92FF0E0A7
:10235000E85EFC4C0C9489328A3009F48CC08B30D6
:1023600009F46FC0893039F78091E303813219F79E
:102370008091E7039091E803009711F00297D9F656
:102380008091E800877F8093E8008091E80082FFD9
:1023900036C08091F200823031F48091F1008130BA
:1023A00011F0863021F48091F1008093BE0380917A
:1023B000E8008B778093E8000E943B04BCCF8091BB
:1023C000E303813A09F0B7CF8091E800877F8093DB
:1023D000E8008091E7039091E803892B61F460E2C3
:1023E0008FEB93E070E00E948C048091E8008B7783
:1023F0008093E800A0CF60E090E080E0F3CF809190
:10240000E1038111C2CF97CF8091E303813A09F0B4
:1024100092CF8091E7039091E803892B09F08BCF4D
:102420008091E800877F8093E8008091E80080FF3A
:10243000FCCF80911C018093F1008091E8008E77A1
:10244000B9CF8091E303813209F075CF8091E70322
:102450009091E803892B09F06ECF8091E800877F87
:102460008093E8000E943B048091E50380931C0167
:102470000E94641160CF8091E303813209F05BCF49
:102480008091E800877F8093E8000E943B04809160
:10249000E6038093BD034FCF8091E303813A09F0B7
:1024A0004ACF8091E800877F8093E8008091E80020
:1024B00080FFFCCF8091BD03BECF803899F0823879
:1024C00009F0D0C18091E7038F70853008F0CAC150
:1024D0008093E9008091EB0085FB882780F91092BA
:1024E000E90006C08091DF039091E00391118260C2
:1024F0009091E800977F9093E8008093F10010920C
:10250000F1008091E8008E77A9C1882309F497C172
:10251000823009F0A7C18091E50381119AC18091B1
:10252000E7038F702FEF280F243008F09BC18093B2
:10253000E9002091EB0020FF8CC1933031F48091B1
:10254000EB0080628093EB0084C19091EB0090617E
:102550009093EB0021E030E001C0220F8A95EAF76A
:102560002093EA001092EA008091EB008860EACFA5
:10257000811178C11091E5031F778091E300807885
:10258000812B8093E3008091E800877F8093E800AF
:102590000E943B048091E80080FFFCCF8091E30023
:1025A00080688093E30082E0111183E08093E1036F
:1025B00059C18058823008F055C12091E50330910F
:1025C000E6032C3DE3E03E07A1F583E08A838AE23F
:1025D00089834FB7F894DE01139620E03EE051E284
:1025E000E32FF0E050935700E49120FF03C0E29501
:1025F000EF703F5FEF708E2F90E0EA30C0F0C7962B
:102600008D939D932F5F243159F74FBF8091E80040
:10261000877F8093E8006AE270E0CE0101960E9415
:102620008C048091E8008B778093E8001BC1C096F2
:10263000E7CF8091E7039091E803432F552743307C
:10264000510509F44AC078F54130510509F485C0B7
:102650008BE590E0EEE8F6E04230510509F002C16A
:102660002091E800277F2093E8002091E903309132
:10267000EA038217930708F49C0140E02115310515
:1026800009F070C041116EC08091E80082FDC9CF91
:102690008091E103882329F2853019F28091E800C6
:1026A00083FFF2CFBECF4132510509F447C0423219
:1026B000510509F0D7C08330910508F0D3C0FC0163
:1026C000EE0FFF1FE658FE4F0190F081E02D895874
:1026D0009E4FDC018C9190E01DC0332721303105E5
:1026E000E9F02115310579F022303105F9F0233078
:1026F000310509F0B7C0EBEFF6E0E4918E2F90E0E2
:10270000EBEFF6E007C0E7E4F7E0E4918E2F90E00E
:10271000E7E4F7E0009709F4A5C0A2CFE1E3F7E012
:10272000E4918E2F90E0E1E3F7E0F4CFE9E1F7E008
:10273000E4918E2F90E0E9E1F7E0ECCF8330910552
:1027400008F090C0880F991FFC01E058FE4F0190DF
:10275000F081E02D89E090E083CF82E190E0E9EE26
:10276000F6E07ECF8091E103882309F45ACF8530CB
:1027700009F457CF8091E80083FD53CF8091E800A2
:1027800082FD82CF8091E80080FF78CF8091F200B7
:1027900090E02115310519F08830910550F041E0A5
:1027A000089709F040E08091E8008E778093E80078
:1027B00065CF44914093F100319621503109019643
:1027C000E8CF803809F04EC08091E800877F809381
:1027D000E8008091E2038093F10093CE811142C022
:1027E0001091E5031230F0F58091E800877F809327
:1027F000E8001093E2030E943B04112311F084E0EF
:1028000005C08091E30087FDFACF81E08093E1036A
:1028100042E061EC81E00E945A0442E261EC84E013
:102820000E945A0442E261EC82E00E945A0442E2B1
:1028300060EC83E00E945A048091E10313C0809110
:10284000E503813079F481E0933009F080E08093F2
:10285000E0031092E9008091E800877F8093E80010
:102860000E943B048091E80083FF0AC08091E80049
:10287000877F8093E8008091EB0080628093EB007B
:10288000AA960FB6F894DEBF0FBECDBFDF91CF91F1
:102890001F910895E2E4F3E0128E138E8FEA90E028
:1028A0009183808325E0248F88E893E1938382835A
:1028B0008AE090E09583848344E150E05783468327
:1028C00068E070E071876087938782874EE150E00F
:1028D000558744879787868740E550E0518B408B2A
:1028E000738B628B68E270E0758B648B62E370E0DF
:1028F000778B668B68EC70E0718F608F158E978F89
:10290000868F51A340A322A30E94820D0E946411CE
:102910001092B9031092B80390E080E00E94450E37
:102920000C94220C5F926F927F928F929F92AF9243
:10293000BF92CF92DF92EF92FF920F931F93CF93AC
:10294000DF93CDB7DEB764970FB6F894DEBF0FBE46
:10295000CDBFC0900E01D0900F0181E090E0909328
:102960000F0180930E0182EEE82E83E0F82E92EFA5
:10297000A92E93E0B92E10E0450100E015C0F30147
:1029800025913491452D602F812F0E94F10D82E019
:10299000680E711C5394EDE05E12F1CFFAE18F0ED8
:1029A000911C0F5F043019F03401512CE8CFF7016E
:1029B0002591349140E060E0812F0E94CA0DF7011B
:1029C00032962591349141E060E0812F0E94CA0D3A
:1029D00084E0E80EF11C1F5FE8E6AE0EB11C143077
:1029E00009F0CACF0E944A141A8219821C821B82E3
:1029F0001E821D8218861F8288EC90E09A87898744
:102A00004AE050E06BEF71E0CE0101960E94FE3289
:102A10004AE050E065E072E0CE0101960E94FE328D
:102A20004AE050E06FE072E0CE0101960E94FE3273
:102A30008E01055F1F4F8AE0F80111928A95E9F730
:102A40004AE050E069E172E0C8010E94FE324AE0CB
:102A500050E063E272E0C8010E94FE324AE050E0BA
:102A60006DE272E0C8010E94FE32D0920F01C09266
:102A70000E0164960FB6F894DEBF0FBECDBFDF9196
:102A8000CF911F910F91FF90EF90DF90CF90BF906B
:102A9000AF909F908F907F906F905F90089580E0AF
:102AA0000E942D0E60E086E290E00E94DA320E94E1
:102AB00092140E94BA0D81E00C942D0ECF92DF92F9
:102AC000EF92FF928FEF9FEF4430510508F46AC0F8
:102AD000FB01C080D180E280F3800E94641180916C
:102AE000B803C0FA80F9B701A601769567955795A6
:102AF000479540FB81F9B701A60122E076956795DD
:102B0000579547952A95D1F740FB82F9B701A60161
:102B100033E076956795579547953A95D1F740FB01
:102B200083F9B701A601E4E0769567955795479537
:102B3000EA95D1F740FB84F9B701A601F5E0769557
:102B4000679557954795FA95D1F740FB85F9B701F9
:102B5000A601A6E07695679557954795AA95D1F772
:102B600040FB86F9B701A601B7E0769567955795C2
:102B70004795BA95D1F740FB87F98093B8038091C8
:102B8000B903D0FA80F9D1FACC24C0F8C0FA81F99F
:102B90008093B9038091B8039091B9030E94450EC8
:102BA00090E080E0FF90EF90DF90CF900895882331
:102BB00021F00E94470A0C94F60F0895882339F0FB
:102BC0009091ED03982B9093ED030C94F60F0895DC
:102BD000882321F00E944E0A0C94F60F0895882352
:102BE00021F00E94550A0C94F60F0895882379F17C
:102BF0009CEF980F913A38F4682F88E891E00E9492
:102C000007050C94F60F90E2980F983050F48770F7
:102C100091E001C0990F8A95EAF7892F0E944E0A28
:102C2000F0CF9BE5980F933020F490E080E00C9477
:102C30007C0598E5980F973120F490E080E00C94A3
:102C40006605803F20F00E94CA060C94A3060895F2
:102C5000CF93DF93EC010E94F615CE010E94300B5A
:102C60009E01205E31092830310510F0CD2B21F472
:102C7000DF91CF910C94E815DF91CF910C94D7158B
:102C8000CF93C82F882309F46AC08CEF8C0F813A48
:102C9000B8F580911C01882311F18091B80387FF5A
:102CA0001EC0EC2FE695E695E695F0E0E857FE4F5E
:102CB000828190E04C2F477021E030E002C0220F6B
:102CC000331F4A95E2F782239323892B89F06C2FD7
:102CD00088E891E00E9407050E94F60F09C0EAE823
:102CE000F1E08191C81799F381E0E039F807C9F75D
:102CF0006C2F88E891E00E943105CF910C94F60F7B
:102D000080E28C0F883048F4C77081E001C0880FE2
:102D1000CA95EAF70E94550AF0CFEBE5EC0FE330D5
:102D200040F4F0E0EB5DFE4F808190E0CF910C9499
:102D30007C05E8E5EC0FE73150F4F0E0EE0FFF1F03
:102D4000E85DFE4F80819181CF910C946605C03F74
:102D500030F08C2F0E94D607CF910C94A306CF9110
:102D600008951F93CF93DF93182FC0916203D091E2
:102D70006303893321F0C0916003D0916103812FF7
:102D80000E944016209731F4812FDF91CF911F913F
:102D90000C94F6158FE99FE00197F1F700C0000051
:102DA0002197F0CF0F931F93CF93DF93C42FD22F90
:102DB000FC0182818823A1F0409368030E94FB04F8
:102DC0009093670380936603C77081E001C0880F0A
:102DD000CA95EAF7DF91CF911F910F910C94EF15EF
:102DE00010916803141339C08091660390916703B2
:102DF0000E94EC0420915A0330915B0382179307E1
:102E000060F5C0E2CD0F1D17B9F080E2810F883068
:102E100040F4177081E001C0880F1A95EAF70E940C
:102E2000E815C83048F481E09D2F977001C0880FE5
:102E30009A95EAF70E94EF15802F0E94B116C830CC
:102E400098F4D77081E001C0880FDA95EAF7DF9136
:102E5000CF911F910F910C94E815C77081E001C0CC
:102E6000880FCA95EAF7F3CFDF91CF911F910F91A9
:102E70000895BF92CF92DF92EF92FF920F931F932C
:102E8000CF93DF93EC012881222309F48DC02130F8
:102E9000D1F599818A81913021F422960E94B11650
:102EA00005C0923029F422960E9440162196EBCF5D
:102EB000933021F422960E94F615F8CF943011F049
:102EC0002196F4CF229650E040E0FE013196682F23
:102ED0006053770B9B016A30710550F041505109E6
:102EE00028F38FE99FE00197F1F700C00000F6CFCB
:102EF000CA016AE070E00E945032A901480F591FD0
:102F00008981EF01E2CFE22FF0E0EE53FE4FB49063
:102F1000822F86958695869590E0FC01EE54FE4FB3
:102F2000E4902770F12C022E02C0F594E7940A94E5
:102F3000E2F731E0E322FF24FC01EE55FE4FC4909E
:102F4000D12C022E02C0D594C7940A94E2F761E016
:102F5000C622DD24FC01EE56FE4F049110E002C0B3
:102F6000159507952A95E2F701701127E114F104F0
:102F700019F081EE0E944016C114D10419F086EEBA
:102F80000E9440168B2D0E94B116CD2819F086EEB6
:102F90000E94F615EF2819F081EE0E94F615012B1C
:102FA00009F484CF8CE27ACFDF91CF911F910F91FA
:102FB000FF90EF90DF90CF90BF900895CF93DF9375
:102FC000EC010E94300B9E01205E31092830310552
:102FD00010F0209739F40E94EF158C2FDF91CF91DC
:102FE0000C9440160E94DE15F8CF662329F020913C
:102FF000ED0322602093ED039C013056211540E241
:10300000340720F0305E2115304108F499270C94E4
:10301000DE17DF92EF92FF920F931F93CF93DF9310
:103020007C018B01D42E80911A0182FF8CC0C0914B
:10303000BB02D091BC02CE15DF0521F0E114F104F2
:1030400009F081C080911A018B7F80931A0181FD64
:1030500073C08091B9029091BA02A801481B590B24
:1030600081E020911801309119014217530708F4AB
:1030700080E08170F82E80911A01F0FA81F9809336
:103080001A01FE0183E0F695E7958A95E1F7EE7166
:10309000FF27E756FD4F20813181AE014F70552744
:1030A00081E090E002C0880F991F4A95E2F7FF2067
:1030B00009F444C0822B932B9183808380919802E2
:1030C00081FF08C080911A01806180931A0182E01B
:1030D0000E944E0A8091980285FF08C080911A01D3
:1030E000806280931A0180E20E944E0A6F2DCE0109
:1030F0000E94F517DD2031F080915D0385FF02C04D
:1031000086FF3BC080916003909161030E94180C80
:103110008091BB029091BC029C013056211540E287
:10312000340720F0305E2115304108F499270E94C1
:1031300028160E94BA101DC081E09BCF8095909503
:1031400082239323B9CFC7019927970130562115C0
:1031500040E2340728F0305E2115304108F0C70105
:103160000E9428168091BB029091BC028E159F058B
:1031700001F31093BA020093B902DF91CF911F912E
:103180000F91FF90EF90DF90089569EE7EEF90E051
:1031900080E00E94F83260E082E090E00E94DA3243
:1031A00060E083E090E00E94DA321092EB0360E08E
:1031B00084E090E00E94DA3260E082E290E00E94D7
:1031C000DA3260E085E090E00E94DA3260E086E08A
:1031D00090E00E94DA326FEF87E090E00E94DA32EE
:1031E00040E050E0BA0188E090E00E94EC3260E0FC
:1031F0008DE090E00E94DA3240E050E0BA0188E1D0
:1032000090E00E94EC3260E087E190E00E94DA32C8
:1032100040E050E0BA018CE190E00E94EC3270E0B6
:1032200060E080E290E00E94F83240E050E0BA01B5
:1032300088E190E00E94EC3280E00E942D0E0E9416
:103240004F1540E050E0BA018FE090E00E94EC3270
:1032500040E050E0BA0183E190E00C94EC329F92A0
:10326000AF92BF92CF92DF92EF92FF920F931F9394
:10327000CF93DF9300D000D0CDB7DEB77C01DC0167
:1032800013964D915C91149711966C9111978C91B6
:103290000E949E05811179C061E0C7010E94370D2F
:1032A0008C01F7018281811111C0D70112968C9196
:1032B000811149C00031FFE51F0709F413C1013135
:1032C0002FE5120709F06BC782E00DC180910C0158
:1032D00090910D01019649F37BE6C72E73E0D72E3E
:1032E000B12CA12C9924939480910C0190910D0103
:1032F0008A159B05D4F2F60186818823E9F0818541
:1033000092850817190739F48091690390916A032F
:103310000817190789F0D6011F969C921F971C96D3
:103320001C930E931B97C6010E949910C601069626
:103330000E945A101092ED03BFEFAB1ABB0AE6E1F0
:10334000CE0ED11CD1CF980122513F4520313105FD
:1033500008F01BC78FEF93E00E94CC326EEED62EA2
:10336000D00E07E312E0882361F180910D0287708F
:1033700061F0D70112968C91882339F08091B903BE
:1033800082FD03C082E00E940E110F900F900F90FB
:103390000F90DF91CF911F910F91FF90EF90DF90F1
:1033A000CF90BF90AF909F9008950115F4E01F0754
:1033B000E1F2C8010E94CC32811101C0DA940F5FA2
:1033C0001F4FD110F2CF19821A821B821C82580122
:1033D0002FEFA21AB20AC8010E94CC3289831A8246
:1033E000882319F2813009F071C0680132E0C30E00
:1033F000D11CC5010E94CC32A82E8A83882309F4EF
:10340000B4CFC6010E94CC32B82E8FEF8A0D833024
:1034100068F4680143E0C40ED11CBB82BB2021F0DC
:10342000CE0101960E9439178601D1CF8BEF8A0D0C
:10343000833030F5C8010396BB826C01BB20A1F339
:10344000680154E0C50ED11C0E94CC328C838823C5
:1034500059F38B819C818130AFEF9A0710F0982F40
:103460008827B6E0AB1631F0E7E0AE1631F00E94E7
:10347000AE28DACF0E942D28D7CF0E94A727D4CF1D
:10348000F4E0AF12D1CF680124E0C20ED11CC80114
:1034900003960E94CC32BB2009F467CF882309F43D
:1034A00064CF8150990B6FEF70E00E9450324B2D2A
:1034B0004150550B840F951F019708F4B5CFAFE924
:1034C000BFE01197F1F700C00000F6CFCE010196E2
:1034D0000E9439176501A8CF81E00E943F110E9428
:1034E000F71043CF81E00E940211F9CF82E0F5CFBF
:1034F0002FEFC216D10411F008F05DC66CE672E041
:103500008C2D0E94520E892B31F5C60166E170E0C8
:103510000E94503285599C4FDC0116968C91813067
:1035200009F066C080916C0290916D02892B99F030
:1035300080916E0290916F02892B69F080917002E8
:10354000909171022091720230917302822B932B21
:10355000892B09F457C080910C0190910D018C15B5
:103560009D0524F4D0920D01C0920C01D701129652
:103570002C911297C60166E170E00E945032855985
:103580009C4F5C01FC01208B12969C9186819923B3
:1035900009F444C0128701878F5F86830E94FB0471
:1035A000D5011E969C938E931D978091300217969D
:1035B0008C9317978091ED0390919802892B189620
:1035C0008C931897ED91FC911197309761F0549678
:1035D0002D913C91C60166E170E00E945032B90124
:1035E0008F589C4F099510936A0300936903E3C5B4
:1035F000823009F0B0CF8091700290917102892BD6
:1036000009F4A9CFC60166E170E00E9450328559E5
:103610009C4FFC01108A0E9499109DCF882309F4C9
:10362000CAC58189882309F4C6C5C60166E170E070
:103630000E9450328F589C4F0E945A10BCC58091F6
:103640001A01816080931A01E4C580911A018E7F6E
:1036500080931A010E94BA10DCC580911A018F7EF6
:10366000013E110531F0053E1105C9F480911A01A2
:103670008F7D80931A0180911A0180FFD9C5D701EF
:1036800012968C910832110528F50E31110508F0BB
:1036900074C00430110580F58111C6C5C9C5C801C3
:1036A0009056811540E2940720F0905E811590417C
:1036B00010F780911A0182FFBBC580915F0381FDE5
:1036C000B7C526E432E040E0B60190E080E00E9419
:1036D0000918AEC50933110558F40D32110518F457
:1036E0000B321105C9F690915D0392FDD5CF08C04C
:1036F00004361105C1F3D0CF90915D0394FDCCCF7A
:10370000882309F4A1C09091980280913002282F5B
:10371000292B322F3D7FB1F11092BC021092BB02D7
:1037200030915D0331FD2EC0F80143E0F695E79539
:103730004A95E1F7EE71FF27E756FD4F98012F708C
:10374000332781E090E002C0880F991F2A95E2F7A5
:10375000809590952081318182239323918380836A
:1037600060E0C8010E94F517809130028D7F0E94B1
:10377000330A82E00E940E11F8CD90915D0393FD13
:103780008BCFBECF38E0F701A6E4B2E001900D92F6
:103790003A95E1F71092480210924A0210924902BB
:1037A000A090BB02B090BC020A151B05B1F5309188
:1037B0005D0335FF32C040911A0141FB992490F816
:1037C00041FF02C036FF29C04091B9025091BA02B0
:1037D000B601641B750B40915A0350915B0364174B
:1037E0007507D8F491FF08C080911A018061809319
:1037F0001A0182E00E944E0A8091980285FF08C05B
:1038000080911A01806280931A0180E20E944E0A20
:10381000692DC5010E94F517A8CD90911A0121FBD1
:1038200091F990931A018D7F0E94330A1093BC0284
:103830000093BB02D092BA02C092B90280911A01E1
:10384000846080931A0195CF970140E0B601C801CA
:103850000E9409188ACD053F4CE5140709F462C09F
:1038600008F45AC0063F8CE5180709F461C0D70177
:1038700012963C91332309F4FAC410926803033082
:10388000BDE51B0708F060C00A3FECE51E0730F4F9
:10389000C80182509C45449708F060C00E945E0DAC
:1038A0009093B9038093B80301313CE5130709F401
:1038B0004AC108F0C7C009305CE5150709F431C1F9
:1038C00008F094C005309CE5190709F422C108F0FE
:1038D0007AC00330BCE51B0709F411C108F015C11B
:1038E0008091B803816002301C4509F40BC18091BE
:1038F000B8039091B9030E94450E0E94641135CD22
:1039000007E225EE45EE68ED7CE5ADC406E221EE6A
:1039100040EE63EF7CE5A7C407E225EE44EE64EFDA
:103920007CE5A1C406E221EE42EE65EF7CE59BC496
:1039300007E225EE46EE66EF7CE595C408E221E05D
:1039400045EE69ED7CE58FC40136FDE51F0709F4FE
:10395000A5CF053A2DE5120709F4A0CF06314CE5B5
:10396000140709F024C180919802982F9A7A209127
:103970005C0320FF04C0482F447409F090E021FF4D
:1039800004C0482F417109F090E022FF04C0482F85
:10399000487809F090E023FF03C0827209F090E0BC
:1039A000332309F4FAC081E0911101C080E08093D3
:1039B000A80169E2911165E388E891E00E94310570
:1039C0000E94F60FD2CC8091B803806207302CE5BC
:1039D000120709F497C08091B803806108301C4534
:1039E00008F490C08091B80380648CC08091B803C3
:1039F0008B7F0D304CE5140709F484C080F40B3044
:103A00008CE5180709F493C08091B8038C600C30E2
:103A10001C4508F477C08091B8038D7F73C08091F6
:103A2000B8038F7E0F30ACE51A0709F46BC08091A4
:103A3000B803877F00311C4508F464C08091B80347
:103A40008F7D60C00D3FECE51E0709F478C050F58E
:103A500005312CE5120709F480C098F48091B80371
:103A6000837F03314CE5140709F44CC008F46FC0A0
:103A70000E9464119091B803892F97FB87F98058B1
:103A800041C00B3F8CE5180709F447C008F053C04C
:103A90008091B90381600A3F1C4509F028CF8093CB
:103AA000B90325CF0130BDE51B0709F462C0B8F4A6
:103AB0008091B9038C7F0F3FFCE51F0781F3809154
:103AC000B903836001151D4550F38091B903982F08
:103AD000909591708E7F892B90FB81F9E0CF013614
:103AE0003DE5130709F44BC0053A4DE5140709F409
:103AF0004DC002301D4509F0FACE60E03BC0809118
:103B0000B80382608093B803F2CE8091B8038460DA
:103B1000F9CF8091B8038860F5CF8091B9038260B6
:103B2000BECF0E9464118091B8038068EBCF809172
:103B3000B8038E7FE7CF8091B9038E7FB0CF80919D
:103B4000B9038D7FACCF8091B8038F7BDBCF0E9410
:103B500064118091B8038F77D5CF8091B80382FB31
:103B6000992790F921E0922790FB82F990FB83F945
:103B7000C9CF61E08EE090E00E94DA32B8CE909139
:103B8000B803892F8F7E94FF8061BCCF9091B803DA
:103B9000892F8E7F90FF8160B5CF8091A80169E267
:103BA000811165E388E891E00E94070509CF0A3595
:103BB0008DE5180709F468C008F044C00115ACE5AC
:103BC0001A0709F451C00E3D1C4509F45AC0F7010B
:103BD00086819781009709F45BC00E949A08182F8C
:103BE000092FF701D280C580C2943FE0C3228091A3
:103BF0000D028770C1F0AD2CDD20B1F0892F807FE0
:103C0000803421F080E2810F883068F08091B90320
:103C100082FD09C082E00E940E1180910D02877022
:103C2000AA24A3948111A12C902E92942FE0922289
:103C3000FBE0F91508F4B9C0E92DF0E0EE5DFC4CAD
:103C40000C9489320B35EDE51E0701F10C351D454D
:103C500009F0BDCF8091B90382FB882780F991E0FC
:103C600089270E942A11B3CF0E9464112FEF34E3F9
:103C70004CE0215030404040E1F700C000000E947D
:103C8000F40B0E94C51871CB81E0EBCF80E0E9CF47
:103C9000828100811181882369F0C8010E94C50CCE
:103CA000D82E682FC8010E94DC0AB8018D2D0E9411
:103CB000A90C93CFC8010E94AC0AD82EF6CF202FB2
:103CC0002F70B22E802F807F19F0B29490EFB9221E
:103CD000DD20A9F0BB2059F080E2810F883010F080
:103CE000111107C08B2D0E94550A0E94F60F812FDB
:103CF0005AC08091ED03B82AB092ED03F6CF812F20
:103D00000E94F615BB2009F450C080E2810F883074
:103D100010F0111104C08B2D0E944E0A03C08B2D90
:103D20000E94470A0E94F60F40C0302F3F70B32E0A
:103D3000802F807F803219F0B29480EFB822112357
:103D400021F1113009F4A4C0DD2009F4ADC0CC206C
:103D500009F47DC020E0D7014C9111965C91119738
:103D600012966C91129713967C91139714968C91DE
:103D70000E940E0D80915F0381FDB9CFF70185810F
:103D800080FFB5CF8F70858362C08091B90382FFB9
:103D900040C0DD20C1F1BB2029F08B2D0E94550AC7
:103DA0000E94F60F80E00E944016A92DA850BB0B80
:103DB000149710F40E949205812F902F0E94150BEA
:103DC0008111C4C11092AA011092A901AA20B1F0D8
:103DD00080910D0280FD12C0D70112961C9285952C
:103DE000859585950E943F11C7010E942F198091EA
:103DF0000D028595859585950E94021160E0C701A9
:103E00000E94370DC2CA80E00E94F615BB2069F2FD
:103E100082CFDD2001F1C11004C0809130028B29D6
:103E200017C041E0C41206C0809130028B290E9465
:103E3000330ABBCF80915E03823078F3C812EDCF96
:103E40000E94280A80910A02B812B0920A028B2DB1
:103E50000E94EF15AACFC11006C00E94280A8B2D20
:103E60000E94E815A2CF80915E0351E0C5120BC0FD
:103E7000823008F49ACF809198028B2109F495CF73
:103E80000E947C0AEACF823040F3C812E6CF8DCF81
:103E900080916403DD2021F08C1508F486CFD7CF04
:103EA000C81608F082CFDBCFCC20C9F28091620324
:103EB00090916303193321F0809160039091610325
:103EC0000E94180C812F0E94F6156FCF802F8695C7
:103ED0008695837069F0813009F067CF812F902F2C
:103EE0009370D11002C090E080E00E9466055DCF23
:103EF000812F902F9370D11002C090E080E00E943B
:103F00007C0553CF812FDD2029F00E94D6070E9427
:103F1000A3064BCF0E94CA06FACF802F837091F57B
:103F2000D11043CF412F429546954770440F440F1F
:103F3000812F8F70042E01C0880F0A94EAF7212F79
:103F4000207114FF07C02FE030E001C0220F4A9516
:103F5000EAF72095302F369536953370323069F078
:103F600050F44091EB03313029F0822B84230E94DE
:103F700060111BCF842B822BFACF282B8091EB036F
:103F80008227F5CF8695DD2011F0802F8170882360
:103F900009F40BCF412F429546954770440F440FCB
:103FA000812F8F70042E01C0880F0A94EAF7212F09
:103FB000207114FF07C02FE030E001C0220F4A95A6
:103FC000EAF72095302F369536953370323069F008
:103FD00050F44091EC03313029F0822B84230E946D
:103FE000F310E3CE842B822BFACF282B8091EC03A5
:103FF0008227F5CFF02FFF70BF2EDD2029F08F2F05
:104000000E943F11812F24CF812F0E94E8158B2D14
:104010000E940211CACE123F89F160F4103FB9F03C
:10402000113F81F0DD2009F48CC0C11060CE802FDB
:104030008F7128C0133F49F1143FA1F78091B90354
:1040400082FF2FC0802F8F71DD2011F31BC0809164
:104050006403DD2079F0C81608F0A7CE202F2F7159
:1040600081E090E001C0880F2A95EAF79091EC0377
:104070008927B5CF8C1508F498CEF0CF802F8F719B
:10408000D110C6CF0E943F1190CE80E0DD2009F410
:10409000A6CF81E0902F9F7101C0880F9A95EAF713
:1040A0009ECF80915E038230A0F180910A02DD20D4
:1040B000F1F00E944E0A80910D028770843041F425
:1040C0000E945B0A802F8F710E940211A12C6DCE7D
:1040D00080915E03C816D0F7202F2F71B22E822F49
:1040E0000E943F1163E08B2D0E944A11EFCF0E9486
:1040F000550A80915E03C81640F00E945B0A0E9438
:104100007C0A64E0802F8F71EFCF81E00E940E1156
:10411000DDCFDD2059F0302F3F71B32E832F0E9469
:104120003F1163E08B2D0E944A113FCE81E00E9437
:104130000E1141E04C1508F038CE82E00E940E11BD
:1041400034CEC110B3CE802F8F7162CFDD2019F035
:10415000C11038CE3BCEC11035CE20E0F7014081F2
:1041600051816281738184810E940E0D80915F0371
:1041700083FF28CE8091A9019091AA01029709F0AE
:1041800021CE812F0E94B1161DCE0031BFE51B0745
:1041900009F4A2C90131EFE51E0709F4A7C96801B6
:1041A000E7E5DE1A882309F4A3C9FFEFCF16D1048F
:1041B00009F008F4D0C980915D0380FF39C00E94E6
:1041C000FB046C01D70112968C91882309F445CA2F
:1041D00080911A0182FF08C026E432E040E0B60177
:1041E00090E080E00E9409180B31BCE51B0709F440
:1041F00026CA0C31ECE51E0709F427CA90911A0172
:10420000892F8E7F90FF81600A31FCE51F0709F43A
:104210001FCAC8019056811520E2920728F0905ECF
:104220008115904108F027CA1092BC021092BB027F
:10423000033FBCE51B0709F469CB08F00CCB083D34
:10424000FCE51F0709F45CCB093D2CE5120709F4D6
:1042500075CB073D3CE5130709F009CB06E221EEDB
:1042600041EE67ED7CE5C7010E94D2167EC806319B
:104270001C4509F0ACCC77CBCF92DF92EF92FF9246
:104280000F931F93CF93DF938091C501807F31F40B
:104290008091C201C091090281110BC0DF91CF91C1
:1042A0001F910F91FF90EF90DF90CF90089521968E
:1042B000C7708091C8018C1789F3F090C001E0901D
:1042C000C101C090C301D090C401A6016E2D8F2DF5
:1042D0000E949E05D0E08111EACF8E0183E0000F9D
:1042E000111F8A95E1F7F801E753FE4F81818E1186
:1042F000DECF80818F11DBCF82818111D8CFE38027
:10430000F480EC18FD0860E080EC91E00E94370D2D
:1043100080915A0390915B03E816F90640F680916C
:10432000C5018F7080618093C501F801E253FE4F93
:1043300080818F708061808380EC91E00E942F19D2
:10434000DF91CF911F910F91FF90EF90DF90CF9071
:104350000C94A20A3F924F925F926F927F928F923B
:104360009F92AF92BF92CF92DF92EF92FF920F9304
:104370001F93CF93DF93CDB7DEB765970FB6F89451
:10438000DEBF0FBECDBF8C0185E0F801DE01519686
:1043900001900D928A95E1F7D8014C9011965C90AE
:1043A00011971296EC9012971396CD90DC9060E0E6
:1043B00080EC91E00E94370D80ECA82E81E0B82EB1
:1043C0008090C3019090C401A4016091C1018091CB
:1043D000C0010E949E058111CAC1F090C201F60180
:1043E000E819F9094F0160E0FF2009F46DC1C5012A
:1043F0000E94370D60905A0370905B033090C501A6
:104400008614970408F013C14091C3015091C40170
:10441000B090C001A090C101832D807F6A2D09F06A
:10442000ADC08B2D0E949E05FE2C81113BC0D80192
:1044300011968C9111978A1135C08C918B1132C0D5
:104440002091C6013091C70116968D919C91281735
:10445000390741F5E11026C0832D8F70806180936C
:10446000C50180EC91E00E942F198091C501F801EF
:1044700085838F2D65960FB6F894DEBF0FBECDBF36
:10448000DF91CF911F910F91FF90EF90DF90CF9030
:10449000BF90AF909F908F907F906F905F904F9064
:1044A0003F900895F4EF6F16F1E07F0620F48091BD
:1044B0005F0380FF21C0A601652D842D0E949E050B
:1044C000811118C081E08E2580FF16C04E2D652D0C
:1044D000842D0E94820A882379F080EC91E00E946A
:1044E0002F1988E0E0ECF1E0DF011D928A95E9F7F1
:1044F000F12CBFCF80E0E8CFA601652D842D0E946E
:104500009E05811124C081E08E25B82FB170CB2E7D
:1045100080FF2BC04E2D652D842D0E94820AD82E3F
:10452000811123C0498A5A8A89899A890E94F40C88
:10453000292F22952F70223060F0243088F49F704C
:1045400061F0F8019581907F41F4FD2C92CF80E0DD
:10455000DCCF9F7011F08823C1F3805E8830A8F310
:10456000C8010E942F19DC2CF0CFEE2009F481CF76
:104570008091C50181608093C501BACF8B2D0E94C7
:104580009E05811124C0D80111968C9111978A1132
:104590001EC08C918B111BC02091C6013091C701A8
:1045A00016968D919C9117972817390781F4E11081
:1045B0000EC015963C92C8010E942F1988E0F801A0
:1045C000A0ECB1E001900D928A95E1F752CFC801BD
:1045D0000E94000D882339F1EE2029F18091C50158
:1045E0008032A0F02091C0013091C1013A87298723
:1045F0001B86DD86CC868E878091C6019091C7018F
:10460000988B8F87CE0109960E942F1988E0F801B8
:10461000A0ECB1E001900D928A95E1F70E943C2157
:10462000FF24F39426CFC8010E942F19F9CF832DC0
:10463000807F09F452CF9090C0018090C1014091D9
:10464000C3015091C401682D892D0E949E058111DE
:104650001CC0F8018181881118C08081891115C0A2
:104660002091C6013091C7018681978128173907AB
:1046700061F4E1100AC03582C8010E942F1988E058
:10468000D5011D928A95E9F7F4CEC8010E94000D6C
:10469000882349F2EE2039F28091C501803208F476
:1046A000B5CF2091C0013091C1013A8329831B828B
:1046B000DD82CC828E838091C6019091C70198875C
:1046C0008F83CE010196A0CF80EC91E00E94370D40
:1046D00080915A0390915B038816990680F6FE2C10
:1046E000EE2009F4A0CFE090C001D090C10140912C
:1046F000C3015091C4016D2D8E2D0E949E05811124
:1047000028C0F80181818D1124C080818E1121C0C3
:104710002091C6013091C7018681978128173907FA
:10472000C1F480915F0382FD49CF9091C50190FD56
:1047300045CF907F09F442CF8091C5018583903F9A
:1047400009F439CF982F907F905F8F70892B8583E4
:1047500032CFC8010E94000D811158CF8091C50150
:1047600081608093C501C8010E942F1982CEEE207E
:1047700009F459CFC8010E94000DF82E882309F4CE
:1047800052CF88E0F801A0ECB1E001900D928A953B
:10479000E1F78091C0019091C1010E94F40C0E9448
:1047A0003C2167CECF93DF93CDB7DEB760970FB6CE
:1047B000F894DEBF0FBECDBF29873A874B875C8751
:1047C0006D877E878F87988BCE0109960E94AA21DC
:1047D00081112FC088E0FE013996DE01119601900B
:1047E0000D928A95E1F74C855D856A8589850E94E1
:1047F0009E0581111EC0A091C801B0E0CD010196B7
:1048000087709927209109022817190609F133E0CA
:10481000AA0FBB1F3A95E1F7A753BE4F98E0FE01E0
:10482000319601900D929A95E1F78093C8010E940C
:10483000A20A809109029091C801891317C060965D
:104840000FB6F894DEBF0FBECDBFDF91CF910895B4
:104850000E9464111092C8011092090288E0E0ECF5
:10486000F1E0DF011D928A95E9F7E3CF90E023E0C4
:10487000880F991F2A95E1F787539E4F0E94AA211E
:104880008823E9F28091090290E0019687709927C8
:1048900080930902CECFFF920F931F93CF93DF93A4
:1048A0008091C0020091BF0281113BC0DF91CF9186
:1048B0001F910F91FF900895FF24F394F00EF09252
:1048C000BF0210E0C8016CE070E00E945032EC01C1
:1048D000CF53DD4F4B815C81698188810E949E05A9
:1048E00081111EC08E819F81892B21F48885998535
:1048F000019651F4288139814A815B816C817D81E7
:104900008E819F810E94D223C8016CE070E00E94DA
:1049100050328F539D4FFC01148213821092ED038D
:104920000F2D8091C002081738F21092C002109229
:10493000BF02BCCF109241031092400310921B01A2
:1049400080913F0380933E030E94D4050C944B2436
:104950004F925F927F928F929F92AF92BF92CF922F
:10496000DF92EF92FF920F931F93CF93DF93C0914B
:104970003E0301E010E08EEFA82E882483948091FE
:104980003F038C1313C00E944B24DF91CF911F91E2
:104990000F91FF90EF90DF90CF90BF90AF909F90DE
:1049A0008F907F905F904F900C94D4054C2E512C9B
:1049B000F201EE0FFF1FEA5CFC4F20813181C9013B
:1049C00067E070E00E9450328F5D9C4FEC018C815B
:1049D000811162C09090C002A1ECB2E0F0E0E0E092
:1049E000B12CE91508F055C01A96ED90FC901B9774
:1049F000C90167E070E00E9450328F5D9C4FEC016E
:104A0000C880D9804FEF5FEF712C872D90E0BC01FB
:104A1000660F771F6C0D7D1DEB0168817981611533
:104A2000710531F0E616F70609F4AC017394EDCF89
:104A30004F3F5407C9F1B80102C0660F771F4A956E
:104A4000E2F7B62AE80102C0CC0FDD1F7A94E2F744
:104A5000CE010197B816190619F5CF016CE070E088
:104A60000E945032FC01EF53FD4FC90167E070E036
:104A70000E945032DC01AF5DBC4F12968D919C912B
:104A8000139797838683A082A1823187208715960A
:104A90008C92C9010E94A905E2012196C3706FCFD3
:104AA00014961C921E92139731961C969ACF2F92B1
:104AB0003F924F925F926F927F928F929F92AF92AE
:104AC000BF92CF92DF92EF92FF920F931F93CF93FB
:104AD000DF93CDB7DEB767970FB6F894DEBF0FBE92
:104AE000CDBF942F498B252F5A8B6B8B7C8B8D8B55
:104AF0004C895D89622F892F0E949E05811109C012
:104B00008091A9019091AA0101969093AA018093A6
:104B1000A9018B8981111092ED031D861E861F86C7
:104B2000188A85E0FE017196DE01199601900D92BA
:104B30008A95E1F78091B90382FD1EC080914403FC
:104B400090914503892BC1F00E94FB0420910B0238
:104B500030910C02821B930B20914403309145034A
:104B60008217930720F080910D0282FFECC10E9412
:104B7000620A81110E94280A4C855D856A858985B3
:104B80000E949E05811111C061E0CE0109960E942C
:104B9000370D7C018B8537EFE3163CE5F30681F496
:104BA000882321F181E080931B0129853A854B857B
:104BB0005C856D857E858F8598890E94D223C4C0CF
:104BC00048EFE4164CE5F40629F4882379F00E94B6
:104BD0009A24EBCF69EFE6166CE5F60639F48823E4
:104BE00029F080911B018111F2CFDCCF01E213E0AB
:104BF000412CD12CC12C88248394912CF801408124
:104C00005181AA24AA94BA2C20E0822F90E0FC01C2
:104C1000EE0FFF1FE40FF51F6081718161157105B3
:104C200031F0E616F70609F45C012F5FEECF512C48
:104C3000FFEFAF16BF0609F448C0F8014481509059
:104C40001B01852D411180E0F82FF1705F2EF801D6
:104C5000358086819B85992309F404C1552009F488
:104C600001C16090580370905903311012C0A40123
:104C700001C0440FAA94EAF7842B86838091BD0279
:104C80009091BE028615970520F47092BE02609244
:104C9000BD02C40102C0880F991F2A95E2F701974F
:104CA000F80126812817190681F48091400390911C
:104CB0004103009709F461C00E94EC04681679066C
:104CC00008F05BC031E0F80134834528FFEFCF1ACC
:104CD000DF0A095F1F4F33E0C316D10409F08ECFFE
:104CE0008B85882309F41AC1442009F417C10E9456
:104CF000FB0490934103809340038091C00288306D
:104D000018F591E0980F9093C00298E0FE01399653
:104D1000DE01119601900D929A95E1F790E06CE01A
:104D200070E00E9450328F539D4F28E0FE01319673
:104D3000DC0101900D922A95E1F72FEF3FEFFC0186
:104D400031872087F386E28667960FB6F894DEBF38
:104D50000FBECDBFDF91CF911F910F91FF90EF90CC
:104D6000DF90CF90BF90AF909F908F907F906F908B
:104D70005F904F903F902F90089520913E03409177
:104D80003F034F8B322FF0E0E0E04F89241315C032
:104D900030933E03E017F10709F497CF30E0F901B3
:104DA000EE0FFF1FEA5CFC4FD182C0822F5F3F4FA6
:104DB0002370332720933F0388CFA22FB0E0FD015B
:104DC000EE0FFF1FEA5CFC4F8081918167E070E08D
:104DD0000E9450328F5D9C4FFC01608071801E8A62
:104DE000B12CA12CEA2DF0E0EE0FFF1FE60DF71D10
:104DF0004081518141155105B9F0F8012080318081
:104E0000B12C05C04617570709F45E8AB394EB2D01
:104E1000F0E0EE0FFF1FE20DF31D6081718161155F
:104E2000710581F7A394DECFFE89FF23C1F0F8015D
:104E3000BA1408F0FC0141E044830E171F0721F467
:104E400030933E035E8841CF321305C08E179F0713
:104E500011F43F5F337011962A2F237096CFF0E044
:104E6000E0E0F9CF90E031101FC0B40102C0660F3E
:104E7000771F2A95E2F79B0121503109821793078A
:104E800031F4442309F448C0C6010E94A905C401B5
:104E900001C0880FAA94EAF7982F9095F8018681AF
:104EA00089238683532C11CF9C010A2C02C035958F
:104EB00027950A94E2F7A90141705527BC0161507A
:104EC000710986239723892B19F5452B09F1F801E0
:104ED00082819381892BC9F01B821C821D821E82D4
:104EE000FEEFF983FA830E94FB048160582F9D83B3
:104EF0008C83F801828193818F83988729813A81FD
:104F00004B816D817E810E94D223F8011582BFCF33
:104F1000F22FF1703F2EBBCF352CB9CF90913E03CD
:104F200080913F03981731F00E94A824442009F48F
:104F30003CCE0ACF0E944B241092410310924003B2
:104F40000E94D405F3CF82E00E940E1110CECF93C1
:104F5000DF9300D000D00F92CDB7DEB790939502CB
:104F600080939402811520E2920748F40F900F90ED
:104F70000F900F900F90DF91CF910C9428168EEF29
:104F800089838A831B820E94FB048160782F9D8322
:104F90008C8349815A816B818D810F900F900F9086
:104FA0000F900F90DF91CF910C9457250F931F9383
:104FB000CF93DF938C01EB016CE672E08C2F0E94A3
:104FC000520E892BA1F480916003909161030E949D
:104FD000180CDD27C759DD4F8881F801108218822F
:104FE000833009F148F4813059F0823081F0DF914B
:104FF000CF911F910F9108958430D1F08530B9F78A
:1050000080916C0290916D02009789F306C08091A7
:105010006E0290916F02009799F3DF91CF911F91EB
:105020000F910C94A7278091700290917102F3CF99
:105030008091720290917302009779F720916C022F
:1050400030916D0280916E0290916F0221153105B1
:10505000D9F2009711F7C901E0CFCF93DF9300D0C9
:1050600000D00F92CDB7DEB7909395028093940253
:10507000811520E2920748F40F900F900F900F9047
:105080000F90DF91CF910C94DE178EEF89838A8386
:1050900081E08B830E94FB048160782F9D838C8349
:1050A00049815A816B818D810F900F900F900F90E5
:1050B0000F90DF91CF910C945725BF92CF92DF9242
:1050C000EF92FF920F931F93CF93DF93B82EC09070
:1050D000EC038091EB03C82AC7E0D0E0D12CF12C7F
:1050E000E12CD701C6010C2E04C0B695A795979563
:1050F00087950A94D2F780FF1FC04B2D60E08C2F5C
:105100000E94480C8C0181309105B1F00E942D283D
:105110008FE39CE90197F1F700C00000C8010E94ED
:10512000A72781E0DF91CF911F910F91FF90EF9022
:10513000DF90CF90BF900895219798F64B2D60E0B7
:1051400080E00E94480CEC010E942D288FE39CE92E
:105150000197F1F700C00000CE01E1CFCF93DF93BC
:10516000EC010E942D2880916003909161030E94C0
:10517000180CCE01DF91CF910C94A7270F931F93AA
:10518000CF93DF938C01862F6CE672E00E94520E63
:10519000892BC9F4C0916C02D0916D02209799F0CF
:1051A000F8018081833069F4CE010E94AE28CE01DF
:1051B0000E94AE28CE01DF91CF911F910F910C94E8
:1051C000AE288430B8F7DF91CF911F910F910895E9
:1051D0000F931F93CF93DF938C01EB016CE672E08A
:1051E0008C2F0E94520E892B09F064C0FE01FF270C
:1051F000D8018C91E759FD4F8130D9F419969C91D3
:105200001997992311F080830CC01A969C919923C9
:10521000D1F382E0808380916E0290916F020097BB
:10522000D9F480916C0290916D02009709F442C00C
:1052300013C08230E9F519968C91199781112DC010
:105240001A968C9181110EC083E080838091700248
:1052500090917102009719F1DF91CF911F910F91F9
:105260000C942D2884E080838091720290917302C7
:10527000009791F780916C0290916D020097F9F080
:105280000E94AE2880916E0290916F02009721F7E4
:1052900080916C0290916D02DFCF85E080838091D8
:1052A0006C0290916D02009729F00E94AE28F0CF19
:1052B00086E08083DF91CF911F910F9108958091B7
:1052C0006E0290916F02B1CF1F920F920FB60F92A4
:1052D00011242F933F934F935F936F937F938F93FB
:1052E0009F93AF93BF93CF93DF93EF93FF93D091AF
:1052F000E900DF708091EC00C82FC17080FDC0E82C
:105300001092E9008091F000877F8093F0007894FC
:105310000E9479111092E9008091F00088608093DA
:10532000F000CD2BCF70C093E900FF91EF91DF919A
:10533000CF91BF91AF919F918F917F916F915F912D
:105340004F913F912F910F900FBE0F901F90189586
:105350001F920F920FB60F9211242F933F934F93EA
:105360005F936F937F938F939F93AF93BF93EF93CD
:10537000FF938091E10082FF09C08091E20082FFEB
:1053800005C08091E1008B7F8093E1008091E10076
:1053900080FF17C08091E20080FF13C08091E2007F
:1053A0008E7F8093E2008091E20080618093E20032
:1053B0008091D80080628093D80019BC85E08093EA
:1053C000E1038091E10084FF2BC08091E20084FF23
:1053D00027C084E089BD86E089BD89B5982F91708A
:1053E00080FFFBCF8091D8008F7D8093D800809183
:1053F000E1008F7E8093E1008091E2008F7E8093B8
:10540000E2008091E20081608093E2008091E203FB
:10541000882309F441C084E08093E1038091E10393
:105420008091E10083FF27C08091E20083FF23C0C9
:105430008091E100877F8093E10082E08093E10327
:105440001092E2038091E1008E7F8093E1008091D1
:10545000E2008E7F8093E2008091E2008061809381
:10546000E20042E060E080E00E945A048091F00097
:1054700088608093F000FF91EF91BF91AF919F9171
:105480008F917F916F915F914F913F912F910F90ED
:105490000FBE0F901F9018958091E30087FD93E059
:1054A0009093E103BBCF78941F921FB61F921124F3
:1054B0008F939F93AF93BF938091B4039091B50363
:1054C000A091B603B091B7030196A11DB11D8093C1
:1054D000B4039093B503A093B603B093B703BF9101
:1054E000AF919F918F911F901FBE1F9018951F9293
:1054F0001FB61F9211248F939F93AF93BF938091F8
:10550000B303811113C08091B4039091B503A091AE
:10551000B603B091B7034196A11DB11D8093B403AA
:105520009093B503A093B603B093B703BF91AF9127
:105530009F918F911F901FBE1F901895CDB7DEB71A
:10554000E4970FB6F894DEBF0FBECDBF84B7877F58
:1055500084BF0FB6F894A89580916000886180930D
:105560006000109260000FBE80E890E00FB6F894E3
:1055700080936100909361000FBE8EE398E090935A
:105580008701809386010E94680E0E94BE0E0E94D1
:10559000220C1092E2001092E1008091E000816004
:1055A0008093E0008091D8008F778093D80019BC59
:1055B0008091630081608093630010923402809137
:1055C00063008E7F8093630081E0809334021092A9
:1055D000E2001092E1008091D8008F778093D8008C
:1055E0008091D80080688093D8008091D8008F7D0A
:1055F0008093D80084E089BD86E089BD89B5282FD5
:105600002170922E80FFFACF1092E1031092E203F4
:105610001092E0031092DF0342E060E080E00E941D
:105620005A048091E1008E7F8093E1008091E20036
:1056300081608093E2008091E20088608093E200C4
:105640008091E0008E7F8093E0008091E200846092
:105650008093E20078948091E1038823A1F0109177
:10566000E9001F709091EC00892F817090FD80E817
:10567000182B1092E9008091E80083FD0E947911B7
:105680001F701093E90082E084BD93E095BD9AEF0E
:1056900097BD80936E000E94450D811102C00E944B
:1056A0004F1586E90E94400885E90E94400884E978
:1056B0000E94400883E90E9440080AE511E0A7E63D
:1056C000EA2EA1E0FA2ED8018D918D018F3F11F0C5
:1056D0000E944008E016F106B1F788E0E4E5F2E048
:1056E000DF01282F1D922A95E9F7E5E3F2E0DF01BB
:1056F0001D928A95E9F790E080E00E94D432893EBD
:105700009E4F21F40E94450D811102C00E94C518D0
:1057100082E090E00E94CC3280933D020E945E0DB8
:105720009093B9038093B8030E94170FEFEFF6E749
:1057300021E0E150F0402040E1F700C000000E946D
:10574000170F8091540280FF08C06FEF7FEF90E049
:1057500080E00E94F8320E94F40B83E090E00E9407
:10576000CC320E9460115198599A5098589A8FE8FB
:1057700091E00197F1F700C0000089B18695817032
:10578000489982C190E0892B8093500280E091E09B
:105790009093B0038093AF0378E1472E512CE0E45F
:1057A0008E2EFCE5CF2EF2E0DF2E8E010F5F1F4F15
:1057B0008091E10354E0E52E66E0F62E853009F491
:1057C0009AC10E94170F882359F08FB7F89440911F
:1057D000B4035091B5036091B6037091B7038FBFC6
:1057E000A4E5B2E0EEE3F2E0F12CE12C7E2D8D9108
:1057F0009D91219131912817390709F48CC160E0FE
:10580000AA24A394B12C28273927A9014A215B2176
:10581000452B09F47AC16BA77CA79501282339236E
:1058200091E0232B09F490E09DA70E94FB04816086
:10583000782F9FA78EA74BA55CA56DA58FA50E946D
:105840005725F701EE0FFF1FE25CFD4F808191812C
:10585000A826B926B182A08280910C0190910D01F9
:10586000712C019609F0A4C180911B018111AAC17C
:1058700080915D0380FF1EC080911A0182FF1AC0D3
:105880000E94FB042091B9023091BA02AC01421B84
:10589000530B20911801309119014217530750F012
:1058A00026E432E041E0BC018091BB029091BC0251
:1058B0000E940918E0915002EE0FEE0FE0935002A3
:1058C00089B181FB222420F84899A7C180E0822970
:1058D000E82BE0935002EF70F0E0E959FE4F808131
:1058E00090914F02890F80934F0220E084304CF05A
:1058F00080914E028F5F80934E0280E00E945D286F
:1059000021E080914F028D3F4CF480914E028150F6
:1059100080934E0281E00E945D2821E080914F0239
:10592000082E000C990B64E070E00E9475328093A1
:105930004F02222359F08FB7F8944091B40350914D
:10594000B5036091B6037091B7038FBF86E0E3E6BD
:10595000F2E0D80101900D928A95E1F7A0906502DE
:10596000B0906602E0906702F090680210926502C3
:105970001092660210926702109268028A2D8B299B
:1059800091F080916102909162020E94EC04FC010E
:1059900020915D02222309F443C1809116018E17E4
:1059A0001F0608F44CC18E2D8F2991F080915F0263
:1059B000909160020E94EC04FC0120915C02222381
:1059C00009F480C1809112018E171F0608F489C165
:1059D0008091650290916602892B90916702892BD4
:1059E00090916802892B11F00E94A30686E0F801CD
:1059F000A3E6B2E001900D928A95E1F70E9492052C
:105A0000909151028913809351028091E103843077
:105A100009F0CECE83E08093E9008091E80082FF18
:105A2000C7CE8091E80090E085FF0AC00E94E003A5
:105A300060E2A62EB12C7801882309F49FC191E081
:105A40008091E8008B778093E800992309F4B0CE29
:105A5000E0909602F09097028981E114F10409F434
:105A60009BC18E3F09F0E3C18A81833020F08550CD
:105A7000833008F0DCC1EA81EE3008F0D8C1F0E0F4
:105A8000E25DFC4C0C94893292E07DCE8091E10382
:105A9000843009F11092B3030FB6F894A8954092A0
:105AA00060000FBE8092600083B7817F846083BFF7
:105AB00083B7816083BF7894889583B78E7F83BFD7
:105AC0000FB6F894A895809160008861809360007B
:105AD000109260000FBE8091E003882361F00E9465
