:100000000C94DA030C9421040C9421040C94210424
:100010000C9421040C9421040C9421040C942104CC
:100020000C9421040C9421040C9421040C94CF25ED
:100030000C948B250C94F42D0C9421040C94210425
:100040000C9421040C9421040C9421040C94D02DC4
:100050000C9421040C9421040C9421040C9421048C
:100060000C9421040C9421040C9421040C9421047C
:100070000C94210405010902A10185020901A100D6
:10008000050919012905150025019505750181024C
:100090009501750381010501093009311581257F1D
:1000A00095027508810609381581257F9501750827
:1000B0008106050C0A38021581257F950175088196
:1000C00006C0C005010980A101850319012AB700F6
:1000D000150126B700950175108100C0050C0901B6
:1000E000A101850419012AA002150126A00295018B
:1000F00075108100C005010906A1018505050719D4
:10010000E029E71500250195087501810205071909
:100110000029EF1500250195F075018102050819E8
:10012000012905950575019102950175039101C09D
:100130000660FF0961A1010962150026FF009520F4
:10014000750881020963150026FF00952075089146
:1001500002C005010906A101050719E029E71500FC
:100160002501950875018102950175088101050732
:10017000190029FF150026FF009506750881000566
:1001800008190129059505750191029501750391DD
:1001900001C000000000000000000000000000009E
:1001A000000000000000000000000000000000004F
:1001B0000000000000007E0F00D4FFFFFFC700001A
:1001C000007800000000000000002A2B280000003A
:1001D00000000000000000000000000000290000F6
:1001E00000002C1E3420212224342627252E362DD3
:1001F0003738271E1F202122232425263333362E6D
:1002000037381F0405060708090A0B0C0D0E0F10DE
:100210001112131415161718191A1B1C1D2F313023
:10022000232D350405060708090A0B0C0D0E0F10C7
:100230001112131415161718191A1B1C1D2F313003
:10024000354CAA00A90001000100010001000100D5
:100250000100290014001A000800150017001C00F6
:1002600018000C00120013002A002B0004001600D6
:10027000070009000A000B000D000E000F003300FC
:100280002800E10038001D001B00060019000500D1
:100290001100100036003700E500E000E300E20046
:1002A0000000015100002C0000000251E600E700B0
:1002B000E400010001000100010001000100010053
:1002C0000100010001000100010001000100010026
:1002D0000100010001000100010001000100010016
:1002E0000100010001000100010001000100010006
:1002F00001000100010001000100010001000100F6
:1003000000000100000001000000010001000100E8
:1003100001000100010001000100010001000100D5
:1003200001000100010001000100010001000100C5
:1003300001000100010001000100010001000100B5
:1003400001000100010001000100010001000100A5
:100350000100010001000100010001000100010095
:100360000000010000000100000001000100010088
:100370000100010001000100010001000100010075
:100380000100010001000100010001000100010065
:100390000100010001000100010001000100010055
:1003A0000100010001000100010001000100010045
:1003B0000100010001000100010001000100010035
:1003C0000000010000000100000001000100010028
:1003D000010001000100040300000200020000030C
:1003E0000000030001000503000004000200EA020F
:1003F000F007050001000603000006000200EC0201
:1004000000000700020002030000080001000703CB
:10041000000009000200EE02CB070A000200F00211
:10042000CB070B000200F202CB070C000200F40223
:10043000CB070D000200F602CB070E000200F80207
:10044000CB070F000200FA02CB0710000200FC02EB
:10045000CB0711000200FE02CB07120002000803C6
:100460000000130002000A030000FD377A585A000A
:100470000004E6D6B4460200210116000000742FE5
:10048000E5A3E007AA024F5D003D8889C65436C344
:10049000174FE4E3D6259A9B2A87C28AAE102A5EBC
:1004A00095EF07D437D7BB1FDAFC33D83B90959A2A
:1004B00086299B8071FD2A2D4764B701507B4D2909
:1004C000B41891C899E56FC0AC20886043B867F64E
:1004D0004E5ECA6144A8C1B370AC580BA27E5430C2
:1004E0004370C95D1015C8B10FCBE5E61AF404528C
:1004F0006A3403948B0531B54FA015E71E66C10B16
:10050000F7B19800B4F10E86B494824B8F0C8AE850
:10051000F09F5B471597A7BB9F8403742A7976B831
:10052000B19C465C693E330C0444984BE19135B272
:10053000B8C5162475890DE817EE825E95338912C9
:100540004932ECB8FBC5E092B061F345AF42F56AC1
:100550001D9875A9F5ACC46282E428F5D9F1FB0CAD
:100560004D12825C8D3BC2348842A4CD587B2E90C4
:10057000C7FEE39F8379F6C12E0E8E8116CC97704D
:10058000226D70AB706BC0C30344FDAEC843F11065
:100590005C627017433E36CFD98C6EA45D9EAB046F
:1005A0005B19CDDDD4ECB69BAF14A26893EDC1AC62
:1005B0009CEB81C4836F9831FB6D1BFC47204194F9
:1005C000B032B619B58F4B2F7A26FDF8FD1FCE52EB
:1005D000AD2D4D38D6FFBD9BF7A86F1A4EFF05C94C
:1005E000843470F0B4284AC51946918442E3DC8E05
:1005F0008D9B3964E190480727E76C2A67C376BD75
:1006000034D3D4A1275A6F6DE0328869D9D6F50F5B
:10061000EA37AADB79EC34CDFBCFB4C6E21D6A928F
:100620003B39E1358BE737EC63502C2DB34B5583C9
:10063000541CC5020A009AD65FD035B39350D382BA
:100640004F7ADF545951B57B5CB67D76BF360D08C5
:10065000E7914EE6B7D1CB1FBF467C08652BE76814
:100660001014242F85F9170819F56FDE190753CBDD
:100670006815F67AD31C331016D899A4937EBB1252
:1006800021BE5D1ADE77298D55759ABB741A5D2DD2
:10069000FCABAB0DFE80110BDCA120B7CD77824007
:1006A000D2301C5DE5936F83D99B761A2F75642831
:1006B000042005B0DB074EC8CFB3AD9670EA7F3B90
:1006C000C31266200951C049B4EFD7013C8B3C628C
:1006D000E1A99D54D0971B9B00001C02EA6DAE8BD4
:1006E0000C880001EB04AB0F0000654060DBB1C477
:1006F00067FB020000000004595A09025B00030175
:1007000000A0FA0904000001030101000921110100
:1007100000012240000705810308000109040100CF
:100720000203000000092111010001222200070537
:1007300082032000010705030320000109040200D1
:10074000010300000009211101000122BC0007057E
:10075000840320000112011001000000086B726D7B
:100760006F0100010203011C037600690061006C47
:10077000003A006600360034006300320062003345
:10078000006300000012034F00780079006D006FD5
:100790000072006F006E00000014037200610069B7
:1007A000006E006B006500650062007300000004CD
:1007B0000309040011241FBECFEFD4E0DEBFCDBF7C
:1007C00004B603FE27C08091A7039091A803A091CF
:1007D000A903B091AA038730904BA740B04BD1F446
:1007E0001092A7031092A8031092A9031092AA03D3
:1007F00014BE84B7877F84BF0FB6F894A895809104
:100800006000886180936000109260000FBEE0E09D
:10081000F8E3099523E0A2E8B1E001C01D92A73AF0
:10082000B207E1F711E0A0E0B1E0E2E2FEE502C0CC
:1008300005900D92A238B107D9F70E9478260C9442
:10084000DD2E0C9400002091E4003091E50095E647
:10085000A9012091EC00822F817020FF06C08091B9
:10086000E80080FF06C080E008952091E80022FDA6
:100870001AC080919503882389F0853089F0809192
:10088000EB0085FD0FC02091E4003091E500421798
:100890005307F9F29150E1F684E0089582E008955B
:1008A00083E0089581E00895EF92FF920F931F93E4
:1008B000CF937C018B010E942304C82F811117C0A4
:1008C0008091E80085FD0BC08091E8008E778093D1
:1008D000E8000E942304882399F3C82F08C0F70179
:1008E00081917F018093F1000150110949F78C2F0C
:1008F000CF911F910F91FF90EF90089580919703F2
:1009000087FF13C08091E80082FF06C08091E80055
:100910008B778093E80004C0809195038111F2CF1A
:100920000895809195038823D9F38091E80080FF92
:10093000F8CF8091E8008E77ECCF982F9093E90064
:10094000242F762F50E0891731F07091EC00209120
:10095000ED005091F00021FD07C09F5F953071F7C9
:100960008093E90081E008953091EB003E7F309361
:10097000EB003091ED003D7F3093ED003091EB00C6
:1009800031603093EB007093EC002093ED005093B6
:10099000F0002091EE0027FDE0CF80E00895FC01FB
:1009A00080919D0390919E0386179707A0F0611593
:1009B000710529F49091E8009E779093E80090E00B
:1009C0006115710551F4911108C08091E80082FF12
:1009D00032C080E00895BC01F2CF80919503882356
:1009E000B1F18530B1F18091E80083FD2EC0809196
:1009F000E80082FDEACF8091E80080FFE1CF2091FE
:100A0000F20030E06115710519F02830310558F019
:100A100091E02830310509F090E02091E8002E7730
:100A20002093E800CDCF81918093F100615071094E
:100A30002F5F3F4FE7CF80919503882341F08530AA
:100A400041F08091E80083FFC0CF81E0089582E00B
:100A5000089583E0089580E00895809172030895D9
:100A60009C014FB7F89480916B0390916C03A09117
:100A70006D03B0916E034FBF821B930B08952FB788
:100A8000F89480916B0390916C03A0916D03B091E9
:100A90006E032FBF0895209119012223C9F02091E0
:100AA0003B0327FF15C0E62FE695E695E695EE3168
:100AB000D8F4E80FF92FF11D677021E030E001C094
:100AC000220F6A95EAF720958281282322830895D0
:100AD000FC01329608962191621303C0DF01119741
:100AE0001C92E817F907B9F70895209119012223FC
:100AF000C1F020913B0327FF14C0E62FE695E69551
:100B0000E695EE31F8F4E80FF92FF11D677021E05A
:100B100030E001C0220F6A95EAF78281822B82833E
:100B20000895FC0132962FEF30E04191641751F0A7
:100B30002F3F19F4411101C0232F3F5F3630A9F731
:100B40002F3F09F40895820F911D27FD9A95FC010E
:100B50006283089580911103882331F0109211036C
:100B60001092100310920F030895809590910E0338
:100B7000982390930E030895809590910D039823E8
:100B800090930D0308951092E9021092E8021092DA
:100B9000E70208958091EC029091ED02892B89F093
:100BA0000E943F0520910F0330911003AC01421BBE
:100BB000530B81E02091EC023091ED024217530774
:100BC00008F480E08170089580910D0390910E03E8
:100BD000892B90910C03892B8093840180911103C0
:100BE000882319F18091EC029091ED02892B29F074
:100BF0000E94CA0581110E94AA05809184019091EA
:100C00001103892B8093840180911901882341F17C
:100C100080913B0387FF24C08EE1E6E8F1E090E09D
:100C2000815000F591110E94AA05E0914503F091D1
:100C300046033097E1F080911901882359F08091A3
:100C40003B0387FF07C0809184018093850185E085
:100C5000809384010280F381E02D84E891E009947F
:100C600086E0DBCF21912223D9F29F5FD9CF08956F
:100C70008091E60281111092E6020895282F892FB3
:100C80009E3F51F16CE00E941B2E820FA82FA7708F
:100C900086958695869590E065E070E00E94242E0A
:100CA000FC01E853FD4F50E040E080E0219130E04E
:100CB0000A2E02C0369527950A94E2F72170332751
:100CC000042E01C0220F0A94EAF7822B4F5F5F4F78
:100CD0004530510559F7089580E00895CF93DF938B
:100CE000282F892F362F9E3F79F16CE00E941B2E12
:100CF000820F982F9770E1E001C0EE0F9A95EAF706
:100D000086958695869590E065E070E00E94242E99
:100D1000DC01A853BD4F50E040E0632F70E08D919F
:100D2000ED0121979B01042E02C0369527950A9468
:100D3000E2F72170219528272E23282728834F5F4B
:100D40005F4F4530510559F7DF91CF910895CF930B
:100D5000B82FC62F2091C702A09196022A1303C074
:100D600080E0CF91089530E0C90166E070E00E9414
:100D7000242EFC01E956FD4F81818C1306C0808131
:100D80008B1303C08281841304C02F5F3F4F2770F1
:100D9000E5CF81E0E6CF452B39F0682381E06F3F56
:100DA00009F080E08170089581E0FCCF8091C70256
:100DB00090919602981301C008958F5F8770FACFC3
:100DC000E92FE295EF70E250EE3070F4F0E0E1527E
:100DD000F14D0C945D2E803F19F020F4883E20F4F4
:100DE00081E00895843FE1F380E00895883EC0F3F8
:100DF000813FD1F7F5CF93FB882780F908958823A9
:100E000021F00E94B5050C94E4050895882339F07B
:100E100090910E03982B90930E030C94E405089583
:100E2000882321F00E94BC050C94E40508958823D2
:100E300039F090910D03982B90930D030C94E405D9
:100E400008952091BF013091C0012817390771F032
:100E50009093C0018093BF01E0914503F091460358
:100E6000309721F00084F185E02D099408952091B8
:100E7000BD013091BE012817390771F09093BE0172
:100E80008093BD01E0914503F0914603309721F036
:100E90000680F781E02D09940895E0914503F091D3
:100EA0004603309721F00190F081E02D099480E015
:100EB0000895CF93DF93EC0181E0898B80910D033E
:100EC0009F81892B80930D0380910E039885892B38
:100ED00080930E030E94E405EA81FB81309739F08C
:100EE0006C897D89CE010696DF91CF910994DF91BF
:100EF000CF9108950F931F93CF93DF93EC018A85D1
:100F0000811132C00B811C811755C80166E170E068
:100F10000E94242EDC01AD53BE4F1496ED91FC913E
:100F20001597309731F054966D917C9187539E4F71
:100F30000995C80166E170E00E94242E8C010D53D2
:100F40001E4FF80187810E94BC05F80180850E9430
:100F5000B5050E94E405188219861B861E821D8233
:100F60001092C2011092C101DF91CF911F910F9198
:100F70000895E2E1F3E083E0EA33F80739F488E02A
:100F800090E090938602809385020895848187FF84
:100F900014823596F0CFEAEEF2E0848195812AE062
:100FA00030E0B9010E94352E60930B018681809359
:100FB0000C018285809303018485809302018685DC
:100FC0009785B9010E94352E60930901808980932D
:100FD0000A01828980930101848980930001089528
:100FE0008091EA029091EB029093050180930401B5
:100FF00008950E943F059C019091530380915403F2
:10100000982B21F03093500320934F039091550378
:1010100080915603982B21F030934D0320934C037D
:10102000E0914503F0914603309749F082E08093C8
:1010300051030480F581E02D81E593E00994089542
:1010400090E080E00E94370790E080E00E94210756
:1010500010920E0310920C030E94E40586E0E1E575
:10106000F3E0DF011D928A95E9F710924E0310928A
:101070004B0310928F020C94F9076093A3037093B3
:10108000A4038093A5039093A6030C9420080F93C8
:101090001F936091A3037091A4038091A503909185
:1010A000A6038B019C0106701127222733270630E7
:1010B00011052105310529F468601F910F910C94E9
:1010C0003D08677FFACF0F931F9341E050E060E047
:1010D00070E004C0440F551F661F771F8A95D2F732
:1010E000CB01BA0160957095809590950091A3030E
:1010F0001091A4032091A5033091A60360237123CE
:10110000822393231F910F910C943D089091E90243
:10111000809589238093E902282F277039F4282F9E
:10112000082E000C330B9217130621F490913C0308
:1011300092FF07C08595859585950E9463080C945C
:10114000C30508950F931F9341E050E060E070E005
:1011500004C0440F551F661F771F8A95D2F78091F0
:10116000A3039091A403A091A503B091A6038A01C3
:101170009B01082B192B2A2B3B2BC901B8011F916E
:101180000F910C943D0890913C0392FD10C0982F54
:10119000990F990F990F962B9093E9020E94A2083C
:1011A0000E943F059093E8028093E70208950C9413
:1011B000A20860939F037093A0038093A103909370
:1011C000A2030C94200890915303803F59F480911E
:1011D000540387FF0DC01092540391110BC010925D
:1011E0004E0308C0813F81F48091540318169CF38C
:1011F000992381F08091550390915603892B09F032
:1012000064C010924B030895823F49F497FFF0CFDA
:1012100010925303809154038111ECCFE0CF833FB0
:1012200019F41916ACF3E4CF20915503893F29F442
:101230001216F4F610925503DBCF8A3F19F427FFFC
:10124000D7CFF8CF209156038B3F29F427FFD0CF7B
:1012500010925603CDCF8C3F19F41216CCF3C8CFA1
:10126000843F31F4809152038E7F80935203C0CF2C
:10127000853F21F4809152038D7FF7CF863F21F483
:10128000809152038B7FF1CF873F21F480915203ED
:10129000877FEBCF883F21F4809152038F7EE5CF8B
:1012A0008D3F31F480918F028E7F80938F02A0CF8B
:1012B0008E3F21F480918F028D7FF7CF8F3F09F011
:1012C00097CF80918F028B7FF0CF0895882379F19B
:1012D0009CEF980F913A38F4682F84E891E00E94CF
:1012E0004B050C94E40590E2980F983050F4877009
:1012F00091E001C0990F8A95EAF7892F0E94BC05F9
:10130000F0CF9BE5980F933020F490E080E00C94B0
:10131000370798E5980F973120F490E080E00C941F
:101320002107803F20F00E94E3080C94F9070895FC
:1013300080918F0280FF0CC06091010170E0759573
:101340006795759567956115710559F1862F089513
:1013500081FF06C06091010170E075956795F3CF3C
:101360006091010170E082FD0CC060914B03662327
:10137000A9F0209100018091010190E0621730F006
:10138000BC0160387105F8F28FE7089570E00E94A3
:10139000242E622F70E00E94492EF3CF61E070E0AE
:1013A000D5CF81E0089580918F022091F202309193
:1013B000F30280FF13C08091030190E0B9010E9405
:1013C000242E9C0136952795369527952038310592
:1013D000A0F52115310599F1822F089581FF0AC0EA
:1013E0008091030190E0B9010E94242E9C01369562
:1013F0002795ECCF82FF08C08091030190E0B901EE
:101400000E94242E9C01E2CF80914E038823F1F2AA
:10141000409102016091030170E0841710F0C9014E
:10142000EFCF90E00E94242EB9010E94242E642F59
:1014300070E00E94352E9B01C9CF8FE7089581E0AF
:101440000895803F31F40E94D3098195809354031D
:101450000895813F19F40E94D309F8CF823F31F4F7
:101460000E94D3098195809353030895833F19F413
:101470000E94D309F8CF893F29F40E9498098093EC
:10148000550308958A3F21F40E9498098195F7CF6A
:101490008B3F31F40E9498098195809356030895FB
:1014A0008C3F19F40E949809F8CF843F31F4809161
:1014B00052038160809352030895853F21F4809107
:1014C00052038260F7CF863F21F4809152038460FB
:1014D000F1CF873F21F4809152038860EBCF883FA2
:1014E00021F4809152038061E5CF8D3F31F48091EA
:1014F0008F02816080938F0208958E3F21F4809146
:101500008F028260F7CF8F3FB9F780918F0284609E
:10151000F1CFCF93C82F882309F46FC08CEF8C0FC5
:10152000813AC0F580911901882311F180913B0324
:1015300087FF1EC0EC2FE695E695E695F0E0EC57A8
:10154000FE4F828190E04C2F477021E030E002C0D6
:10155000220F331F4A95E2F782239323892B91F0C0
:101560006C2F84E891E00E944B050E94E4050AC0BC
:10157000E6E8F1E08CE891E02191C21789F38E173B
:101580009F07D1F76C2F84E891E00E947505CF91F9
:101590000C94E40580E28C0F883068F4C77021E079
:1015A00030E001C0220FCA95EAF780910D03822B2B
:1015B00080930D03ECCFEBE5EC0FE33040F4F0E06B
:1015C000EE5DFE4F808190E0CF910C943707E8E507
:1015D000EC0FE73150F4F0E0EE0FFF1FEB5DFE4F34
:1015E00080819181CF910C942107C03F30F08C2FE6
:1015F0000E94210ACF910C94F907CF910895F89495
:10160000E82FE295EF70F0E031A1282F2F7081E0F4
:1016100090E001C0880F2A95EAF7982F90959323C0
:1016200091A392A1892B82A37894089590913B0372
:1016300092FF06C0282F28712830F9F4877F846034
:1016400093FF06C0282F28712831F1F4877E84612A
:1016500020913C0320FF06C0382F38713830D9F470
:10166000877F816021FF06C0282F28712831D1F49F
:10167000877E816194FD877E0895282F2471243010
:10168000F9F68B7F8860DCCF282F2471243101F795
:101690008B7E8861DDCF382F3171313019F78E7F25
:1016A0008860E0CF282F2171213121F78E7E88615B
:1016B000E1CF81FF02C05A9A08955A980895CF93B6
:1016C000DF939C013A9521153F4168F5EC01CC2749
:1016D000D170DC01AA27B270AC01442754709C0180
:1016E0002227387094FF11C080E1CD2B09F480E0EF
:1016F000AB2B09F08062452B09F08064232B09F0A5
:101700008068FB01DF91CF91099481E0CD2B09F432
:1017100080E0AB2B09F08260452B09F08460232B1D
:1017200081F38860EECFDF91CF910895CF93DF935F
:10173000EC010E946609CE01805E9109089720F0B5
:101740006FEF76E0209711F460E177E0CE01DF9152
:10175000CF910C945F0BCF93DF93EC01805E9109E6
:10176000089720F066E077E0209711F467E177E0D2
:10177000CE010E945F0B8C2FDF91CF910C94890AD0
:10178000CF9390918102992321F0811116C010927C
:101790008102CF910895EC2FF0E0EE0FFF1FED587E
:1017A000FD4F808191810E94AB0B0E94E405CF5FC9
:1017B00080918102C81778F3EACFC0E0F9CFCF93C8
:1017C000DF9300D00F92CDB7DEB7909195039430A0
:1017D00011F589837B836A839093E9008FEF909161
:1017E000E800815095FD06C095ED9A95F1F700004F
:1017F0008111F5CF8091E80085FF0DC050E040E0F9
:1018000063E070E0CE0101960E9454048091E800EC
:101810008E778093E8000F900F900F90DF91CF911B
:101820000895BC0184E00C94DF0BBC0183E00C94B0
:10183000DF0B9C0184E08093E9009FEF8091E8003A
:10184000915085FD06C085ED8A95F1F70000911154
:10185000F5CF8091E80085FF0CC050E040E066E0E5
:1018600070E0C9010E9454048091E8008E77809353
:10187000E8000895CF93DF93EC018091190188234C
:10188000B1F180913B0387FF32C060E284E0809336
:10189000E9008FEF9091E800815095FD06C095ED2D
:1018A0009A95F1F700008111F5CF8091E80085FF4E
:1018B0001BC08091190170E050E040E0811104C02C
:1018C00050E040E068E070E0CE010E945404809156
:1018D000E8008E778093E80080E2FE01A3E7B3E0A2
:1018E00001900D928A95E1F7DF91CF91089568E01C
:1018F00081E0CDCF81E08093E00080E28093D8004A
:101900001092C9008FE19EE40197F1F700C000003A
:1019100087E090EBDC018093A7039093A803A0934A
:10192000A903B093AA0388E19CE00FB6F894A895A8
:10193000809360000FBE90936000FFCF1F93CF9302
:10194000DF93182FC0910A03D0910B03893321F044
:10195000C0910803D0910903812F0E94890A209722
:1019600031F4812FDF91CF911F910C9466098FE99B
:101970009FE00197F1F700C000002197F0CF0F938F
:101980001F93CF93DF93C42FD22FFC018281882332
:10199000A1F040938B020E943F059093BC0180937D
:1019A000BB01C77081E001C0880FCA95EAF7DF91DB
:1019B000CF911F910F910C94170710918B02141364
:1019C00039C08091BB019091BC010E9430052091EB
:1019D0000203309103038217930760F5C0E2CD0F35
:1019E0001D17B9F080E2810F883040F4177081E054
:1019F00001C0880F1A95EAF70E941007C83048F412
:101A000081E09D2F977001C0880F9A95EAF70E9498
:101A10001707802F0E949E0CC83098F4D77081E081
:101A200001C0880FDA95EAF7DF91CF911F910F91EE
:101A30000C941007C77081E001C0880FCA95EAF7BF
:101A4000F3CFDF91CF911F910F910895019708F483
:101A50000895EFE9FFE03197F1F700C00000F6CFFD
:101A6000FF920F931F93CF93DF938C01EB01F42E22
:101A70008091080182FF43C08B7F80930801809191
:101A800087022091890230918A02AB01421B530BDD
:101A90009A01409104015091050124173507A8F4DB
:101AA0000E94890A809108018D7F809308018091AE
:101AB0000803909109030E94260D809187020E94DD
:101AC000660982E00E94B50524C090910E039260E1
:101AD00090930E030E94890A80910801826080938E
:101AE00008018091050385FFE2CF86FDE0CFFF204E
:101AF000F1F2DF91CF911F910F91FF900895802F08
:101B00000E94660980918702909188028017910750
:101B1000C1F20E94E405D0938A02C0938902E9CF02
:101B20008F929F92BF92CF92DF92EF92FF920F938C
:101B30001F93CF93DF93C3E5D1E00DE313E087E577
:101B4000E82E81E0F82EB12CCC24C394D12C8991BD
:101B5000F894E82FE295EF70F0E021A18F70A601D4
:101B600002C0440F551F8A95E2F7CA01922F982BA5
:101B700091A392A18095892382A3789400C0E7E580
:101B8000F1E030E020E0912C812C4191A42FA2952E
:101B9000AF70B0E090968C9190E04F7002C0959538
:101BA00087954A95E2F780FD5DC0C601022E02C00E
:101BB000880F991F0A94E2F7882A992A2F5F3F4FCE
:101BC0002C30310511F7FE01319780810E94FF0A08
:101BD00050EA5A95F1F7F8018081918188169906AB
:101BE00009F443C09182808281E0B82A0E5F1F4FC2
:101BF000EC16FD0609F0ABCFBB20C9F181E0809364
:101C0000A6010E943F059093A5018093A4018091B5
:101C1000A4019091A5010E943005069760F1809182
:101C20003D0390913E0390936403809363038091FE
:101C30003F039091400390936603809365038091E6
:101C400041039091420390936803809367038091CE
:101C500043039091440390936A0380936903109225
:101C6000A60109C090E080E0A7CF80E0BECF8091C0
:101C7000A6018111CCCF8091060110E08F3F09F0C1
:101C800069C080910701811171C08091050380FFB7
:101C90001CC08091080182FF18C00E943F0520915E
:101CA000890230918A02AC01421B530B209104013E
:101CB000309105014217530740F041E0BC0180918B
:101CC0008702909188020E94300D8B2DDF91CF9179
:101CD0001F910F91FF90EF90DF90CF90BF909F905A
:101CE0008F900895CE0166E170E00E94242E8D53FE
:101CF0009E4FFC01E288F388E114F10421F4E090A6
:101D00000203F0900303CE0166E170E00E94242EEE
:101D1000FC01ED53FE4F86818823D9F08585968599
:101D20000E943005E816F906A0F4CE0166E170E0E5
:101D30000E94242E7C018D539E4FFC0181898111CC
:101D400003C0CF010E945907C70187539E4F0E94CD
:101D50007A071F5FC12FD0E080910601082E000C8A
:101D6000990B8C179D070CF0BDCF8BCF8091820211
:101D700090918302009709F488CF0E94300520914A
:101D80000003309101032817390708F07ECF81E066
:101D90000E94C00B0E94B90778CFBF92CF92DF920A
:101DA000EF92FF920F931F93CF93DF93EC01288163
:101DB000222309F48DC02130D1F599818A81913097
:101DC00021F422960E949E0C05C0923029F422969E
:101DD0000E94890A2196EBCF933021F422960E942B
:101DE0006609F8CF943011F02196F4CF229650E096
:101DF00040E0FE013196682F6053770B9B016A30FB
:101E0000710550F04150510928F38FE99FE0019787
:101E1000F1F700C00000F6CFCA016AE070E00E944E
:101E2000242EA901480F591F8981EF01E2CFE22F2B
:101E3000F0E0EE53FE4FB490822F869586958695FE
:101E400090E0FC01EE54FE4FE4902770F12C022E3E
:101E500002C0F594E7940A94E2F731E0E322FF240C
:101E6000FC01EE55FE4FC490D12C022E02C0D59439
:101E7000C7940A94E2F761E0C622DD24FC01EE5625
:101E8000FE4F049110E002C0159507952A95E2F7E0
:101E900001701127E114F10419F081EE0E94890A02
:101EA000C114D10419F086EE0E94890A8B2D0E947C
:101EB0009E0CCD2819F086EE0E946609EF2819F0D5
:101EC00081EE0E946609012B09F484CF8CE27ACF5F
:101ED000DF91CF911F910F91FF90EF90DF90CF9006
:101EE000BF900895CF9384E090E00E94932EC82F76
:101EF00082E290E00E94932E982F8C2FCF9108952C
:101F00000F931F93CF93DF930AEE12E0C7EBD1E05C
:101F1000CE010E94932EF80181938F012196C93D35
:101F2000F1E0DF07A9F7C8EDD3E0FE0185919491B8
:101F3000009711F0FC0109952896F4E0C037DF07FF
:101F4000A1F7DF91CF911F910F9108950F931F93E8
:101F5000CF93DF93843010F5611120C0C82FD0E0FB
:101F6000CC0FDD1FCC0FDD1F50E0440F551FC40FF9
:101F7000D51FC955DE4FCE010E94932E082F10E0C9
:101F8000102F0027CE0101960E94932E9801282B36
:101F9000C901DF91CF911F910F91089590E080E0EA
:101FA000F8CF0F931F93CF93DF93282F843060F5E2
:101FB000643050F54C3040F5862F90E068E170E0D9
:101FC0000E94242EC42FD0E0CC0FDD1FC80FD91FD4
:101FD000822F90E060E670E00E94242EC80FD91F87
:101FE000CE0187960E94932E082F10E0102F002715
:101FF000CE0188960E94932E9801282BC901DF916B
:10200000CF911F910F91089590E080E0F8CF462F77
:1020100020916F0330917003232B91F47E3F39F4AC
:102020006E3F71F48091B9019091BA0108958430A6
:1020300038F4743028F46C3018F4672F0C94D10FF6
:1020400090E080E00895CF93DF930E940710EC01A9
:1020500082389105A9F1D8F58133910509F496C02C
:1020600048F58932910509F48AC08A9709F495C028
:10207000C11521E5D20708F0BCC0C11530E5D30772
:1020800008F016C1C83ED10508F09CC0C03ED1057D
:1020900060F5C83AD10508F087C0C53AD10508F007
:1020A000FFC0C130D10509F12097F9F0C430D10546
:1020B000E0F440C08533910509F45AC0C997C1F6D0
:1020C00080913B03837089F0C0EED0E00EC0833E68
:1020D000910599F170F4803E910501F1823E9105E0
:1020E00039F680913B0382FD21C0CE01DF91CF9173
:1020F0000895863E910561F1873E910571F1843E18
:10210000910509F0B5CF80913C0381FFEECF80911E
:102110003B03C7EED0E084FD0DC0E7CF80913B03C9
:1021200080FD18C190913C0390FFDFCFC3EED0E05B
:1021300084FFDBCFD0E0C0E0D8CF80913B0382FDAD
:102140000CC190913C0390FDBFCF84FFCECFF2CF66
:1021500080913B0383FDDDCFC8CF80913B0383FD9E
:10216000FFC090913C0391FFF0CFC4EED0E0BDCF13
:1021700080913B0385FFB9CFC9E2D0E0B6CF809113
:102180003B0385FFB2CFC5E3D0E0AFCF80913B03E7
:1021900086FFABCFCAE2D0E0A8CF80913B0386FF99
:1021A000A4CFC1E3D0E0A1CFCF3BD10518F6C85AE8
:1021B000D0E0CC0FDD1FCB5DDE4F0990D881C02D64
:1021C000D46493CFC11540E2D40758F4C11581E01F
:1021D000D80708F08ACFC03FD10508F4ABCFD0654F
:1021E00084CFC11520E4D20708F4A4CFDF70D06AF1
:1021F0007CCFC11535E5D30710F5C11544E5D407EB
:1022000008F090C0C11583E5D80708F075C0C11566
:1022100022E5D20708F46BC0CE018370992721E034
:1022200030E002C0220F331F8A95E2F7C695C695AB
:10223000D0E0E5E0CC0FDD1FEA95E1F754C0C11511
:1022400039E5D307A8F4C11548E5D40708F06FC0F5
:10225000C11586E5D80708F06DCF8C2F0E94160BAC
:10226000C82FD0E0DC2FCC27CC27DF71D0623DCF48
:10227000C1152AE5D20708F45FC0CE01905681153A
:10228000904208F057CF8D2F8F710E94160B90E06F
:10229000982F882788279F719C012C2BE901E6CF76
:1022A000C55AD0E0CE5DDE4FC881D0E0D0641DCFEE
:1022B000CE01A4E096958795AA95E1F783702C2F1F
:1022C00026952695237030E0B5E0220F331FBA958E
:1022D000E1F7382B8C2F8370C1E0D0E002C0CC0F27
:1022E000DD1F8A95E2F7C22BD32BDC68FECEDC2FF4
:1022F000CC27C16FD06AF9CECE018370992721E037
:1023000030E002C0220F331F8A95E2F7C695C695CA
:10231000D0E075E0CC0FDD1F7A95E1F7C22BD32B0F
:10232000DA68E3CEDC2FCC27C46FD06ADECEDC2F98
:10233000CC27C06FD06AD9CE8C2F8F700E94160B1D
:1023400034E0D695C7953A95E1F7CF709C2FEC0114
:10235000D069CBCEC9E3D0E0C8CEC2EED0E0C5CEC6
:10236000C6EED0E0C2CEBF92CF92DF92EF92FF9244
:102370000F931F93CF93DF938C01C090A303D09052
:10238000A403E090A503F090A60380919F03909191
:10239000A003A091A103B091A203C82AD92AEA2AD6
:1023A000FB2ACFE1D0E0BC2ED701C6010C2E04C021
:1023B000B695A795979587950A94D2F780FD0EC09C
:1023C000219788F7B12C8B2DDF91CF911F910F9121
:1023D000FF90EF90DF90CF90BF900895B8018C2FC1
:1023E0000E942310019761F3EECFCF93DF93EC01AE
:1023F0000E94B311BE01DF91CF910C9423100E9473
:10240000F5110C94E0061F93CF93DF9300D000D01A
:102410000F92CDB7DEB749835A8389819A816623AB
:10242000B9F02223A9F00E94B311182F682F8981D7
:102430009A810E946E0669817A81812F0F900F9098
:102440000F900F900F90DF91CF911F910C94071078
:102450000E943E06182FEFCFCF93C0913C03C2FBE2
:10246000992790F9981781F080FBC2F9C0933C033B
:1024700060913B0384E090E00E94A12E6C2F82E2E9
:1024800090E0CF910C94A12ECF9108950F931F93BC
:10249000CF93DF930AEE12E0C7EBD1E0CE010E94AA
:1024A000932EF80161918F01681719F0CE010E94F7
:1024B000A12E2196C93DF1E0DF0781F7DF91CF9191
:1024C0001F910F910895EAEEF2E0128E138E8FEABB
:1024D00090E09183808385E0848F88E893E1938303
:1024E00082832CE231E03583248382E390E097837A
:1024F000868385E090E0918780878AE090E09387EB
:10250000828744E150E0558744873787268724E651
:1025100030E0318B208B28E030E0338B228B28E2B7
:1025200030E0358B248B28EC30E0378B268B318FD5
:10253000208F158E978F868F80E590E091A380A3E2
:102540000E9446120C94800FCF93DF93C9E7D2E02C
:1025500060E0CE010E94A12E2196C11584E0D8072B
:10256000B9F7DF91CF9108950F931F93CF93DF9326
:102570008901843038F5611125C0423018F52115E4
:102580003C4531F420910D0130910E01232BD1F007
:10259000C82FD0E0CC0FDD1FCC0FDD1F50E0440F63
:1025A000551FC40FD51FC955DE4F612FCE010E94A4
:1025B000A12E602FCE010196DF91CF911F910F9137
:1025C0000C94A12EDF91CF911F910F9108950F933D
:1025D0001F93CF93DF93E82F8901843078F564301F
:1025E00068F54C3058F521153C4531F480910D01CA
:1025F00090910E01892B11F1862F90E068E170E037
:102600000E94242EC42FD0E0CC0FDD1FC80FD91F8D
:102610008E2F90E060E670E00E94242EC80FD91F34
:10262000612FCE0187960E94A12E602FCE01889641
:10263000DF91CF911F910F910C94A12EDF91CF913B
:102640001F910F91089510920D0380911901E6E8F2
:10265000F1E0882359F080913B0387FF07C08EE1AA
:10266000DF011D928A95E9F70C94200886E0F8CFE7
:102670001F93CF93DF93CDB7DEB7AA970FB6F89429
:10268000DEBF0FBECDBF87E993E02091F100DC01F2
:102690002D93CD01B3E08F399B07B9F78091980353
:1026A000833009F46FC0B8F4813009F446C0823039
:1026B00009F4B0C08091E80083FF38C1809197038E
:1026C000909198039A3008F031C1E92FF0E0E3517E
:1026D000F14D0C945D2E8A3009F48BC08B3009F4D7
:1026E0006EC0893039F780919703813219F7809154
:1026F0009B0390919C03009711F00297D9F680916B
:10270000E800877F8093E8008091E80082FF35C071
:102710008091F200823029F48091F1008B7F81302A
:1027200021F48091F100809372038091E8008B770F
:102730008093E8000E947E04BDCF80919703813A88
:1027400009F0B8CF8091E800877F8093E8008091FE
:102750009B0390919C03892B61F460E283E793E0F3
:1027600070E00E94CF048091E8008B778093E800AE
:10277000A1CF60E090E080E0F3CF809195038111DC
:10278000C3CF98CF80919703813A09F093CF80917E
:102790009B0390919C03892B09F08CCF8091E800DA
:1027A000877F8093E8008091E80080FFFCCF8091D4
:1027B00019018093F1008091E8008E77B9CF809164
:1027C0009703813209F076CF80919B0390919C030F
:1027D000892B09F06FCF8091E800877F8093E80014
:1027E0000E947E0480919903809319010E94231313
:1027F00061CF80919703813209F05CCF8091E8002E
:10280000877F8093E8000E947E0480919A038093E2
:10281000710350CF80919703813A09F04BCF80919B
:10282000E800877F8093E8008091E80080FFFCCF7C
:1028300080917103BECF803899F0823809F076C05C
:1028400080919B038F70853008F070C08093E90001
:102850008091EB0085FB882780F91092E90006C083
:102860008091930390919403911182609091E8007C
:10287000977F9093E8008093F1001092F10080918F
:10288000E8008E77BFC1882309F4ACC1823009F01B
:102890004DC0809199038111B0C180919B038F70CD
:1028A0002FEF280F243008F041C08093E9002091D9
:1028B000EB0020FFA2C1933031F48091EB008062E5
:1028C0008093EB009AC19091EB0090619093EB00A4
:1028D00021E030E001C0220F8A95EAF72093EA0058
:1028E0001092EA008091EB008860EACF81111EC04F
:1028F000109199031F778091E3008078812B80935A
:10290000E3008091E800877F8093E8000E947E04C6
:102910008091E80080FFFCCF8091E3008068809385
:10292000E30082E0111183E0809395038091E80039
:1029300083FF0AC08091E800877F8093E800809140
:10294000EB0080628093EB00AA960FB6F894DEBF8E
:102950000FBECDBFDF91CF911F9108958058823077
:1029600028F72091990330919A032C3DE3E03E072C
:10297000A1F583E08A838AE289834FB7F894DE0168
:10298000139620E03EE051E2E32FF0E05093570031
:10299000E49120FF03C0E295EF703F5FEF708E2F50
:1029A00090E0EA30C0F0C7968D939D932F5F24315D
:1029B00059F74FBF8091E800877F8093E8006AE273
:1029C00070E0CE0101960E94CF048091E8008B77E1
:1029D0008093E800ABCFC096E7CF80919B039091A6
:1029E0009C03432F55274330510509F44AC078F51D
:1029F0004130510509F485C08BE590E0EAEFF6E03F
:102A00004230510509F092CF2091E800277F2093B2
:102A1000E80020919D0330919E038217930708F4EC
:102A20009C0140E02115310509F070C041116EC0D4
:102A30008091E80082FDC9CF80919503882329F217
:102A4000853019F28091E80083FFF2CFBECF41328A
:102A5000510509F447C04232510509F067CF833070
:102A6000910508F063CFFC01EE0FFF1FEA58FE4FFF
:102A70000190F081E02D8D589E4FDC018C9190E00B
:102A80001DC0332721303105E9F02115310579F0DA
:102A900022303105F9F02330310509F047CFE7E660
:102AA000F7E0E4918E2F90E0E7E6F7E007C0EFEA69
:102AB000F7E0E4918E2F90E0EFEAF7E0009709F459
:102AC00035CFA2CFE9E9F7E0E4918E2F90E0E9E974
:102AD000F7E0F4CFE5E8F7E0E4918E2F90E0E5E849
:102AE000F7E0ECCF8330910508F020CF880F991FD5
:102AF000FC01E458FE4F0190F081E02D89E090E068
:102B000083CF82E190E0E5E5F7E07ECF8091950309
:102B1000882309F45ACF853009F457CF8091E80013
:102B200083FD53CF8091E80082FD82CF8091E80041
:102B300080FF78CF8091F20090E02115310519F0E7
:102B40008830910550F041E0089709F040E080910D
:102B5000E8008E778093E80065CF44914093F100C0
:102B60003196215031090196E8CF803809F0DECE48
:102B70008091E800877F8093E8008091960380939E
:102B8000F1007DCE8111D2CE10919903123008F060
:102B9000CDCE8091E800877F8093E8001093960364
:102BA0000E947E04112311F084E005C08091E300AF
:102BB00087FDFACF81E08093950342E061EC81E0EC
:102BC0000E949D0442E261EC84E00E949D0442E286
:102BD00061EC82E00E949D0442E260EC83E00E948E
:102BE0009D04A4CE80919903813009F09FCE81E0AD
:102BF000933009F080E0809394031092E900809173
:102C0000E800877F8093E8000E947E048FCE5F9269
:102C10006F927F928F929F92AF92BF92CF92DF92EC
:102C2000EF92FF920F931F93CF93DF93CDB7DEB751
:102C300064970FB6F894DEBF0FBECDBFC0900D01F4
:102C4000D0900E0181E090E090930E0180930D01F1
:102C500082E4E82E82E0F82E92E5A92E92E0B92EC9
:102C600010E0450100E015C0F30125913491452D98
:102C7000602F812F0E94E71282E0680E711C53942E
:102C8000ECE05E12F1CFF8E18F0E911C0F5F043083
:102C900019F03401512CE8CFF7012591349140E02F
:102CA00060E0812F0E94B412F70132962591349191
:102CB00041E060E0812F0E94B41284E0E80EF11C34
:102CC0001F5FE0E6AE0EB11C143009F0CACF0E94BF
:102CD00063121A8219821C821B821E821D82188630
:102CE0001F8288EC90E09A87898709ED11E04AE01D
:102CF00050E0B801CE0101960E94C52E065F1F4F1D
:102D00000932F2E01F0799F77E018BE0E80EF11C13
:102D10008AE0F70111928A95E9F74AE050E0B8019C
:102D2000C7010E94C52E065F1F4F0937F2E01F073B
:102D3000A1F7D0920E01C0920D0164960FB6F894DF
:102D4000DEBF0FBECDBFDF91CF911F910F91FF90DE
:102D5000EF90DF90CF90BF90AF909F908F907F903B
:102D60006F905F9008956AEE7EEF90E080E00E94A1
:102D7000BF2E60E082E090E00E94A12E60E083E040
:102D800090E00E94A12E10929F031092A003109237
:102D9000A1031092A20360E084E090E00E94A12EC3
:102DA00060E082E290E00E94A12E60E085E090E089
:102DB0000E94A12E60E086E090E00E94A12E6FEFBD
:102DC00087E090E00E94A12E40E050E0BA0188E048
:102DD00090E00E94B32E60E08DE090E00E94A12E72
:102DE00040E050E0BA0188E190E00E94B32E60E03C
:102DF00087E190E00E94A12E40E050E0BA018CE112
:102E000090E00E94B32E70E060E080E290E00E94CB
:102E1000BF2E40E050E0BA0188E190E00E94B32E5E
:102E200040E050E0BA018FE090E00E94B32E40E015
:102E300050E0BA0183E190E00C94B32E9B018830FE
:102E400080F490E06AE070E00E94242EBC01675D8F
:102E50007D4F4AE050E0C9010E94832E90E080E05F
:102E600008958FEF9FEF08953F924F925F926F9278
:102E70007F928F929F92AF92BF92CF92DF92EF920A
:102E8000FF920F931F93CF93DF93CDB7DEB7649775
:102E90000FB6F894DEBF0FBECDBF7C01DC011396E8
:102EA0004D915C91149711966C9111978C910E94A1
:102EB000CB068111F9C021E0F70140815181628187
:102EC000738184810E9403128C01D70112968C9128
:102ED00081118DC0F70122812111C9C00031BFE5E8
:102EE0001B0709F46CC10131EFE51E0709F46BC142
:102EF0005801E7E5BE1AFFEFAF16B10411F008F074
:102F000076C180910601082E000C990B8A159B054D
:102F100014F4A0920601C50166E170E00E94242E1F
:102F20008D539E4F6C01DC0150962C935097F70106
:102F3000928116968C911697992309F446C11A9698
:102F40001C930E9319978F5F16968C930E943F05E2
:102F5000D6011E969C938E931D9780911103179610
:102F60008C93179780910E0390910D03892B1896DF
:102F70008C931897ED91FC911197309761F05496CE
:102F80002D913C91C50166E170E00E94242EB901AB
:102F900087539E4F09951093C2010093C101509031
:102FA0000701552009F42EC1109286021092850265
:102FB000612CAA24A394B12C44244394C09085028C
:102FC000D0908602F8E0CF16D10408F485C1809134
:102FD0008402882309F443C20E943F059093830230
:102FE0008093820210928402611052C00BC18091C2
:102FF00006018F3F09F46ECFE3ECCE2EE1E0DE2E2A
:10300000B12CA12C9924939480910601082E000CD8
:10301000990B8A159B050CF45DCFD60116968C9101
:1030200016978823E9F019968D919C910817190736
:1030300039F48091C1019091C2010817190781F0FC
:10304000F6019786148703878189811103C0C60121
:103050000E945907C60106960E947A0710920E0335
:10306000FFEFAF1ABF0A26E1C20ED11CCDCFC801B7
:1030700082519F45409708F01CC78FEF93E00E9454
:10308000932E7EEED72ED00E09E712E0882381F131
:103090008091E902877041F0D70112968C918823C4
:1030A00019F082E00E94860864960FB6F894DEBF9D
:1030B0000FBECDBFDF91CF911F910F91FF90EF9089
:1030C000DF90CF90BF90AF909F908F907F906F9048
:1030D0005F904F903F900895011534E01307C1F2BF
:1030E000C8010E94932E811101C0DA940F5F1F4F17
:1030F000D110F2CF19821A821B821C8258014FEF25
:10310000A41AB40AC8010E94932E89831A828823C4
:1031100009F4BECF813009F046C0680152E0C50E07
:10312000D11CC5010E94932EA82E8A83882309F4FE
:10313000AFCFC6010E94932EB82E8FEF8A0D833039
:1031400068F4680183E0C80ED11CBB82BB2021F06B
:10315000CE0101960E94CD0E8601D0CF94E0A91237
:10316000FBCF6801A4E0CA0ED11CC80103960E94DF
:10317000932EBB2009F48CCF882309F489CF81508A
:10318000990B6FEF70E00E94242EEB2DE150FF0BA6
:103190008E0F9F1F019700F3AFE9BFE01197F1F782
:1031A00000C00000F7CFCE0101960E94CD0E650150
:1031B000D3CF81E00E94A2080E94470869CF81E036
:1031C0000E946308F9CF82E0FBCF882309F4E7CEA1
:1031D000F6018189882309F4E2CEC50166E170E039
:1031E0000E94242E87539E4F0E947A07D8CE073F15
:1031F000FCE51F0709F05EC0222309F4D0CE81E070
:10320000809307018091050380FF35C00E943F0530
:103210006C01F7018281882311F18091080182FFFE
:1032200006C040E0B60190E080E00E94300D82E0F0
:103230000E94B5050B31FCE51F0709F435C10C31BF
:103240002CE5120709F482C190910801892F8E7F25
:1032500090FF81600A313CE5130709F47AC1083216
:10326000110508F07CC10E31110508F0BEC1043013
:10327000110508F087C1033FFCE51F0709F4EDC104
:1032800008F0D5C1083D3CE5130709F4E0C1093D4C
:103290004CE5140709F4F3C1073D5CE5150709F097
:1032A00008C106E221EE41EE67ED7CE5C7010E9410
:1032B000BF0CEECE083F3CE5130709F006C62223FB
:1032C00009F46DCE109207011092830210928202CF
:1032D00081E00E94C00B96CFC60165E070E00E94BD
:1032E000242E8E5E9C4FBE01655F7F4FDC018C916A
:1032F0000E941E17892B61F0712C6728809185022E
:10330000909186020196909386028093850256CE14
:10331000FE013B9690E080E033243A94282F4191BF
:1033200051914115510599F10417150709F4382EEB
:1033300001968430910591F724E0BFEF3B16E1F24E
:10334000F7017280C60165E070E00E94242E8E5E57
:103350009C4F4C01DC0114968C911497F50102C02E
:10336000EE0FFF1F2A95E2F79F01215031097720C8
:10337000D9F1A50101C0440F3A94EAF7842B1496C1
:103380008C938F778217130631F0752CB6CF82306D
:1033900008F4B2CFD2CF80E00E94C00BD4011496C3
:1033A0008C911497806814968C93C60165E070E048
:1033B0000E94242E8E5E9C4FFC0182819381009797
:1033C00029F00E94AB0B4092840297CFBE016F5F41
:1033D0007F4F809185020E941E17892BA1F7898556
:1033E0009A850E948523EFCF8F778217130639F4D1
:1033F00012968D919C91009721F10E94960BC60127
:1034000065E070E00E94242EFC01EE5EFC4F84819A
:10341000482F50E0032C02C0559547950A94E2F7D7
:1034200040FF6ACF950101C0220F3A94EAF7209538
:103430002823248327FF60CF203809F0A6CF1482E9
:10344000A4CFBE016F5F7F4F809185020E941E173F
:10345000892BA9F689859A850E945623D0CF6110C1
:1034600006C081E00E94C00B0E94B907CBCED701F5
:1034700012968C91882309F40BCE0E943F059093FD
:10348000830280938202E0918102E73008F000CE4F
:1034900081E08E0F80938102F0E0EE0FFF1FED5868
:1034A000FD4F11830083F4CD8091080181608093EA
:1034B0000801F7013281332309F414C510928B02FD
:1034C0000230FCE51F0708F441C506312CE5120760
:1034D00030F0C8018A5F9C45099708F037C50E9403
:1034E000720F90933C0380933B0300313CE513073C
:1034F00009F473C108F006C108305CE5150709F44A
:1035000062C108F0D5C004309CE5190709F453C125
:1035100008F0BBC00230BCE51B0709F446C180912E
:103520003B03826003301C4509F442C160913B03B8
:1035300010913C0384E090E00E94A12E612F82E272
:1035400090E00E94A12E0E942313A2CD8091080139
:103550008E7F8093080182E00E94B505AACF0933CF
:10356000110560F40D32110520F40B32110509F03C
:1035700082CE8091050382FD7ECE08C004361105FF
:10358000C1F379CE8091050384FD75CED7011296E3
:103590008C91882309F445C08091080180FF6BCE8F
:1035A0009091050391FD04C020910D03211163CE7C
:1035B00095FF26C096FD02C081FD22C020918902A0
:1035C00030918A02F601E21BF30BE83CF105C0F4EE
:1035D00020918702309188020217130789F481FD38
:1035E00009C0802F0E94890A53CD8091050383FD75
:1035F00042CECCCF80910E03826080930E03F1CF38
:103600001093880200938702D0928A02C0928902A6
:103610008091080184608093080182E00E948608FE
:1036200037CD40E0B601C8010E94300D31CD053FD5
:103630008CE51807F1F0B8F0063FACE51A0709F081
:1036400038CF07E225EE46EE66EF7CE52FCE07E2A7
:1036500025EE45EE68ED7CE529CE06E221EE40EE52
:1036600063EF7CE523CE07E225EE44EE64EF7CE5D4
:103670001DCE06E221EE42EE65EF7CE517CE08E2B4
:1036800021E045EE69ED7CE511CE80913B03806140
:103690000630FCE51F0709F48BC080913B0388606E
:1036A00007301C4508F484C080913B03806280C0D1
:1036B00080913B038D7F0C303CE5130709F478C003
:1036C00070F480913B038C600A305CE5150709F4C7
:1036D0006FC008F47CC080913B038E7F69C08091ED
:1036E0003B03877F0E309CE5190709F461C0809188
:1036F0003B038B7F0F301C4508F45AC080913B037D
:103700008F7E56C00B3FBCE51B0709F458C030F54F
:103710000331FCE51F0709F468C078F401313CE58A
:10372000130709F45EC002311C4509F0FFCE0E9468
:10373000231380913B038F773BC005315CE5150770
:1037400009F45BC008F46FC080913C0381600A3FBC
:103750001C4509F0EBCE80933C03E8CE0F3FACE56F
:103760001A0709F446C088F480913C038D7F0D3F11
:10377000ECE51E0781F380913C038E7F0E3F1C45D4
:1037800050F380913C038360E6CF01302DE51207B2
:1037900009F452C0F0F160E002301D4509F0C6CED8
:1037A0008EE090E00E94A12EC1CE80913B0381600B
:1037B00080933B03BBCE80913B038460F9CF809123
:1037C0003C038260C8CF80913B038064F1CF0E94AC
:1037D000231380913B038068EBCF80913B038F7D67
:1037E000E7CF80913B038F7BE3CF80913B03837FC7
:1037F000DFCF80913C038C7FAECF80913B0382FB77
:10380000992790F921E0922790FB82F990FB83F9A8
:10381000CFCF80913C03982F909591708E7F892B0C
:1038200090FB81F998CF0E94231390913B03892F3D
:1038300097FB87F98058BCCF61E0B2CF80918C02B2
:1038400069E2811165E384E891E00E944B057BC346
:103850000B35BDE51B0701F10C351D4509F08AC389
:1038600080913C0382FB882780F991E089270E94A0
:103870002C1280C30E942313FFEF24E33CE0F1509D
:1038800020403040E1F700C000000E947A0C0E9406
:10389000B316FECB81E0EBCF80E0E9CFC8010E94F8
:1038A0003E06D82E76C3E12FEF70BE2E812F807F8B
:1038B00019F0B29420EFB222CC20C9F0BB2069F0FD
:1038C00080E2800F883010F081100BC080910D03D2
:1038D000B82AB0920D030E94E405802F0E94890A45
:1038E00016C080910E03B82AB0920E03F4CF802F39
:1038F0000E946609BB2059F080E2800F883010F0EA
:10390000811040C08B2D0E94BC050E94E405492D0A
:103910004850550B4430510520F40E944D070E9439
:10392000590BC8010E94E00681119DC210928E02BF
:1039300010928D02AA20A9F08091E90280FD11C0A9
:10394000F70112828595859585950E94A208C70189
:103950000E9434178091E9028595859585950E948E
:10396000630820E0D7014C9111965C911197129653
:103970006C91129713967C91139714968C910E94D8
:10398000031292CB8B2D0E94B505BFCFF12FFF7094
:10399000BF2E812F807F803219F0B29490EFB92230
:1039A000882031F144244394841409F46FC0CC205E
:1039B00009F479C0DD2009F449C020E0D7014C9119
:1039C00011965C91119712966C91129713967C91B7
:1039D000139714968C910E9403128091070381FD26
:1039E0007CCFF701858180FF78CF8F7085832EC0D3
:1039F000CC2071F1D11006C0809111038B290E9457
:103A0000170785CF55245394D51013C080913C03DC
:103A100082FD7DCF80911103B82AB81609F477CFC3
:103A20000E943F059093100380930F03B0921103FF
:103A30006ECF809106038230F8F2D812DDCF0E945B
:103A4000AA058091E602B812B092E6028B2DD7CF7C
:103A5000D11006C00E94AA058B2D0E94100757CFD7
:103A60008091060366246394D6100BC0823008F45C
:103A70004ECF80910D038B2109F449CF0E94380667
:103A8000E9CF823038F3D812E5CF41CFCC2031F0E6
:103A900085E0782E7D1408F43ACFD8CF24E02D1598
:103AA00008F435CFD9CFDD20B9F2F9E38F12D3C1B5
:103AB00080910A0390910B030E94260D802F0E9493
:103AC000660925CF812F86958695837061F08130B8
:103AD00009F01DCFC8019370C11002C090E080E0D2
:103AE0000E94210714CFC8019370C11002C090E05A
:103AF00080E00E9437070BCF802FCC2039F00E9446
:103B0000210A0E94F9070E94F90701CF0E94E308E9
:103B1000FACF812F837009F067C0C110F8CE202F33
:103B2000229526952770220F220F402F4F7050E0CC
:103B300070E060E0022E04C0440F551F661F771F1F
:103B40000A94D2F780E090E0DC0104FF0FC08FE020
:103B500090E0A0E0B0E004C0880F991FAA1FBB1F2F
:103B60002A95D2F780959095A095B095212F26950E
:103B700026952370223029F1D8F440909F0350906D
:103B8000A0036090A1037090A203213069F0842B00
:103B9000952BA62BB72BBC01CD0164217521862165
:103BA00097210E94D908B3CE44295529662977293F
:103BB0002A013B01482A592A6A2A7B2AC301B201F9
:103BC000F0CF842B952BA62BB72B40909F035090C2
:103BD000A0036090A1037090A203BC01CD016425F5
:103BE000752586259725DDCF8695CC2011F0812F70
:103BF0008170882309F48BCE202F2295269527707B
:103C0000220F220F402F4F7050E070E060E0022E34
:103C100004C0440F551F661F771F0A94D2F780E037
:103C200090E0DC0104FF0FC08FE090E0A0E0B0E086
:103C300004C0880F991FAA1FBB1F2A95D2F7809531
:103C40009095A095B095212F26952695237022302A
:103C500029F1D8F44090A3035090A4036090A503E9
:103C60007090A603213069F0842B952BA62BB72BDF
:103C7000BC01CD0164217521862197210E943D0858
:103C800046CE44295529662977292A013B01482A2D
:103C9000592A6A2A7B2AC301B201F0CF842B952BC3
:103CA000A62BB72B4090A3035090A4036090A503CC
:103CB0007090A603BC01CD01642575258625972546
:103CC000DDCF212F2F70B22ECC2029F0822F0E9421
:103CD000A208802F94CE802F0E9410078B2D0E9467
:103CE000630815CE802F32EF831609F45BC03815B8
:103CF00078F040EF841669F151EF851609F44AC057
:103D0000CC2009F4A3C0D110E8CD812F8F7147C01A
:103D100093EF891609F44BC0A4EF8A12F1CF2091DA
:103D20000603223008F47AC08091E602CC2009F420
:103D300062C00E94BC058091E9028770843009F05E
:103D40004AC00E94C305812F8F710E946308A12C75
:103D5000DECDCC20D1F0B4E0BD1508F4D8CD212FB4
:103D60002F7161E070E080E090E004C0660F771F83
:103D7000881F991F2A95D2F74090A3035090A4035F
:103D80006090A5037090A60397CFE5E0ED1508F4C9
:103D9000BECDE5CF812F8F71CC2009F4A0CF0E943A
:103DA000A208B5CD812F8F71CC20C9F398CF60E0E8
:103DB00070E0CB01CC2009F461CF212F2F7161E09D
:103DC00070E080E090E004C0660F771F881F991FA5
:103DD0002A95D2F753CF80910603D81608F0B7CFB3
:103DE000F12FFF71BF2E8F2F0E94A20863E08B2D51
:103DF0000E94C308ACCF90910D03982B90930D03B4
:103E0000D21640F00E94C3050E94380664E0812F5C
:103E10008F71EECF81E00E94860899CFCC2059F0B7
:103E2000212F2F71B22E822F0E94A20863E08B2DCA
:103E30000E94C3086CCD81E00E94860831E03D15E8
:103E400008F065CD82E00E94860861CDDD2041F05A
:103E5000893309F42DCE80910803909109032CCE6B
:103E6000812F8F713CCFCC2019F0D1105FCD62CD66
:103E7000D1105CCD20E0D7014C9111965C91119747
:103E800012966C91129713967C91139714968C91BD
:103E90000E9403128091070383FF48CD80918D0219
:103EA00090918E02029709F041CD802F0E949E0CC6
:103EB0003DCD0031FFE51F0709F47BC901313FE526
:103EC000130709F015C882E075C9093F4CE51407CE
:103ED00009F065C8222309F462C8809107018111A5
:103EE000F1C98DC906311C4509F044C080910D030C
:103EF000982F9A7A2091040320FF04C0482F44741D
:103F000009F090E021FF04C0482F417109F090E0D2
:103F100022FF04C0482F487809F090E023FF03C037
:103F2000827209F090E0332309F488CC81E091118A
:103F300001C080E080938C0269E2911165E384E81E
:103F400091E00E9475050E94E405A2C806318CE547
:103F5000180761F20A355DE5150709F49BCC08F0F6
:103F600077CC01159CE5190709F484CC0E3D1C455E
:103F700009F48DCCF701828100811181882309F435
:103F80008DCCC8010E94B311D82E682FC8010E94A1
:103F90006E06B8018D2D0E9423108C01882ED7014A
:103FA0001296CC9012971596DC90D2944FE0D422C2
:103FB0008091E9028770A1F0AC2CCC2091F0812F88
:103FC000807F803421F080E2800F883048F082E0EA
:103FD0000E9486088091E9028770AA24A394811127
:103FE000A12C912E92943FE09322BBE0B91508F4E6
:103FF0008ECCE92DF0E0E950F14D0C945D2EEF925E
:10400000FF920F931F93CF93DF9380919502807F50
:1040100031F480919202C091C702811109C0DF91F1
:10402000CF911F910F91FF90EF9008952196C77047
:10403000809196028C1799F3109190020091910251
:10404000E0909302F0909402A701602F812F0E94CC
:10405000CB06D0E08111EACFCE0166E070E00E948D
:10406000242EFC01E956FD4F51815013DFCF4081D2
:104070004113DCCF82818111D9CF038114810E19C4
:104080001F0920E060919202709193028091940246
:104090000E940312809102039091030308171907ED
:1040A00028F6809195028F70806180939502CE01F1
:1040B00066E070E00E94242EFC01E456FD4F9081E2
:1040C0009F709061908380E992E00E943417DF91A5
:1040D000CF911F910F91FF90EF900C94D6065F92B5
:1040E0006F927F928F929F92AF92BF92CF92DF9208
:1040F000EF92FF920F931F93CF93DF93CDB7DEB76D
:1041000061970FB6F894DEBF0FBECDBF8C0185E07E
:10411000F801DE011D9601900D928A95E1F7D80114
:104120007C901196EC90119712966C9080E9A82ED5
:1041300082E0B82E8090930290909402A401609146
:104140009102809190020E94CB068111C7C1F801B3
:10415000C380D480F0909202C601881999094C015D
:1041600020E04091900250919102FF2009F45DC13E
:104170006F2D70919302809194020E94031280919E
:10418000020390910303509095028816990608F057
:104190000DC14091930250919402B0909002A09072
:1041A0009102852D807F6A2D09F0B9C08B2D0E9468
:1041B000CB06F62C81112BC0EA1029C07B1027C03A
:1041C000611025C0852D8F7080618093950280E9F4
:1041D00092E00E94341780919502D80115968C9335
:1041E0008F2D61960FB6F894DEBF0FBECDBFDF9165
:1041F000CF911F910F91FF90EF90DF90CF90BF90E4
:10420000AF909F908F907F906F905F90089520E087
:1042100040919002509191026091920270919302AC
:10422000809194020E9403128091020390910303F3
:10423000843F9140F8F0A6016E2D872D0E94CB0699
:10424000811154C081E0862580FF25C0462D6E2D4A
:10425000872D0E94A7068823F1F080E992E00E9452
:10426000341786E0E0E9F2E0DF011D928A95E9F774
:10427000F12CB6CF20E040919002509191026091D4
:10428000920270919302809194020E940312809195
:10429000070380FDD0CFA6016E2D872D0E94CB068F
:1042A000811126C081E08625B82FB170CB2E80FF0A
:1042B0002DC0462D6E2D872D0E94A706D82E811168
:1042C00025C07D86EE868D859E850E94F511292F5D
:1042D00022952F70223070F0243098F49F7071F086
:1042E000F8019581907F51F4FD2C7ACF80E0ACCF1E
:1042F00080E0DACF9F7011F08823B1F3805E8830C0
:1043000098F3C8010E943417DC2CEECF662009F424
:1043100067CF80919502816080939502A9CF8B2D04
:104320000E94CB06811115C0EA1013C07B1011C08A
:1043300061100FC0D80115965C92C8010E94341715
:1043400086E0F801A0E9B2E001900D928A95E1F7CC
:1043500047CF7D86EE868D859E850E94FF1188233E
:1043600009F16620F9F080919502803270F0209179
:1043700090023091910238872F831986DB86CA8696
:104380008C87CE0107960E94341786E0F801A0E9D9
:10439000B2E001900D928A95E1F70E94FF1FFF2481
:1043A000F3941ECFC8010E943417F9CF852D807F6A
:1043B00009F453CF90909002809091024091930223
:1043C00050919402682D892D0E94CB06811111C055
:1043D000E8100FC079100DC061100BC0F8015582B4
:1043E000C8010E94341786E0D5011D928A95E9F72D
:1043F000F7CE7D86EE868D859E850E94FF118823EF
:1044000089F2662079F280919502803208F4BDCF5E
:1044100020919002309191023A8329831B82DD82A0
:10442000CC828E83CE010196AECF60E07091930274
:10443000809194020E9403128091020390910303E1
:104440008816990680F6F62C662009F4ABCFD0903A
:104450009002C090910240919302509194026C2D71
:104460008D2D0E94CB06811128C0EC1026C07D1036
:1044700024C020E0472D5E2D60919202709193023E
:10448000809194020E9403128091070382FD58CF0D
:104490009091950290FD54CF907F09F451CF809177
:1044A0009502F8018583903F09F447CF982F907FBC
:1044B000905F8F70892B858340CF7D86EE868D85BA
:1044C0009E850E94FF11811160CF809195028160CD
:1044D00080939502C8010E94341782CE662009F4A9
:1044E00061CF7D86EE868D859E850E94FF11F82E18
:1044F000882309F457CF86E0F801A0E9B2E00190E3
:104500000D928A95E1F780919002909191020E941C
:10451000F5110E94FF1F64CECF92DF92FF920F939E
:104520001F93CF93DF93CDB7DEB767970FB6F8949D
:10453000DEBF0FBECDBFF42E4B8B052F5C8B162F2D
:104540006D8B7E8B8F8BCE88DF88A601602F8F2DA1
:104550000E94CB06811109C080918D0290918E023C
:10456000019690938E0280938D02111110920E038A
:104570001A8A198AFD860E871F87D98AC88A809170
:10458000EC029091ED02892BC1F00E943F05209131
:10459000E7023091E802821B930B2091EC023091EC
:1045A000ED028217930720F08091E90282FF7AC022
:1045B0000E94CA0581110E94AA0586E0FE013D966F
:1045C000DE01179601900D928A95E1F7CE010796CC
:1045D0000E946F20811130C086E0FE013796DE0117
:1045E000119601900D928A95E1F74A855B85688561
:1045F0008F810E94CB0681111FC08091960290E0AE
:104600009C012F5F3F4F277033274091C70242170D
:10461000130631F166E070E00E94242EDC01A956F9
:10462000BD4F96E0FE01319601900D929A95E1F70B
:10463000209396020E94D6068091C702909196021E
:1046400089131CC067960FB6F894DEBF0FBECDBFAE
:10465000DF91CF911F910F91FF90DF90CF90089540
:104660000E942313109296021092C70286E0E0E99E
:10467000F2E0DF011D928A95E9F7DECF90E066E077
:1046800070E00E94242E89569D4F0E946F2088233F
:10469000C9F28091C70290E00196877099278093B4
:1046A000C702CACF82E00E94860882CFCF93DF93F1
:1046B00000D000D00F92CDB7DEB79093BA018093AF
:1046C000B901811520E2920748F40F900F900F90E6
:1046D0000F900F90DF91CF910C94960B8EEF898302
:1046E0008A831B820E943F058160782F9D838C8383
:1046F00049815A816B818D810F900F900F900F909F
:104700000F90DF91CF910C948C22CF93DF9300D048
:1047100000D00F92CDB7DEB79093BA018093B90164
:10472000811520E2920748F40F900F900F900F90A0
:104730000F90DF91CF910C94AB0B8EEF89838A831E
:1047400081E08B830E943F058160782F9D838C835D
:1047500049815A816B818D810F900F900F900F903E
:104760000F90DF91CF910C948C22BF92CF92DF9269
:10477000EF92FF920F931F93CF93DF93B82EC090C9
:10478000A303D090A403E090A503F090A60380912A
:104790009F039091A003A091A103B091A203C82A06
:1047A000D92AEA2AFB2ACFE1D0E0D701C6010C2E94
:1047B00004C0B695A795979587950A94D2F780FF80
:1047C0001FC04B2D60E08C2F0E94A60F8C01813002
:1047D0009105B1F00E9485238FE39CE90197F1F7E1
:1047E00000C00000C8010E94562381E0DF91CF91F4
:1047F0001F910F91FF90EF90DF90CF90BF900895A1
:10480000219798F64B2D60E080E00E94A60FEC0106
:104810000E9485238FE39CE90197F1F700C0000017
:10482000CE01E1CFCF93DF93EC010E9485238091ED
:104830000803909109030E94260DCE01DF91CF91CC
:104840000C9456239B01883080F490E06AE070E07D
:104850000E94242EBC0167527E4F4AE050E0C901FD
:104860000E94832E90E080E008958FEF9FEF0895DF
:104870008F929F92AF92BF92CF92DF92EF92FF9270
:104880000F931F93CF93DF93CDB7DEB72A970FB661
:10489000F894DEBF0FBECDBF03EC11E0F12CE12C8C
:1048A0008EE8C82E84E2D82E98EBA92E94E2B92E79
:1048B00024E3822E25E2922EF801D182C082B382B7
:1048C000A28295828482F58AE48ABE016F5F7F4F5F
:1048D0008E2D0E942224892B29F489859A85F8013E
:1048E000938B828BFFEFEF1AFF0A0A5E1F4F88E05F
:1048F000E816F10409F72A960FB6F894DEBF0FBE4A
:10490000CDBFDF91CF911F910F91FF90EF90DF907E
:10491000CF90BF90AF909F908F9008950F931F936B
:10492000CF93DF938C01862F6FEA71E00E942224DF
:10493000892BC9F4C091AF01D091B001209799F0B3
:10494000F8018081833069F4CE010E941224CE01E7
:104950000E941224CE01DF91CF911F910F910C94F0
:1049600012248430B8F7DF91CF911F910F910895F1
:104970000F931F93CF93DF938C01EB016FEA71E0EC
:104980008C2F0E942224892B09F064C0FE01FF278E
:10499000D8018C91E955FE4F8130D9F419969C913C
:1049A0001997992311F080830CC01A969C91992332
:1049B000D1F382E080838091B1019091B2010097A0
:1049C000D9F48091AF019091B001009709F442C0F1
:1049D00013C08230E9F519968C91199781112DC079
:1049E0001A968C9181110EC083E080838091B3016F
:1049F0009091B401009719F1DF91CF911F910F9120
:104A00000C94852384E080838091B5019091B60158
:104A1000009791F78091AF019091B0010097F9F064
:104A20000E9412248091B1019091B201009721F768
:104A30008091AF019091B001DFCF85E080838091BC
:104A4000AF019091B001009729F00E941224F0CF9D
:104A500086E08083DF91CF911F910F91089580911F
:104A6000B1019091B201B1CF0F931F93CF93DF9318
:104A70008C01EB016FEA71E08C2F0E942224892BBC
:104A8000A1F480910803909109030E94260DDD276F
:104A9000C955DE4F8881F80110821882833009F1F0
:104AA00048F4813059F0823081F0DF91CF911F912D
:104AB0000F9108958430D1F08530B9F78091AF011E
:104AC0009091B001009789F306C08091B101909157
:104AD000B201009799F3DF91CF911F910F910C9440
:104AE00056238091B3019091B401F3CF8091B50129
:104AF0009091B601009779F72091AF013091B00104
:104B00008091B1019091B20121153105D9F2009740
:104B100011F7C901E0CF1F920F920FB60F92112427
:104B20002F933F934F935F936F937F938F939F93B5
:104B3000AF93BF93CF93DF93EF93FF93D091E900AF
:104B4000DF708091EC00C82FC17080FDC0E810922A
:104B5000E9008091F000877F8093F00078940E94B4
:104B600038131092E9008091F00088608093F00083
:104B7000CD2BCF70C093E900FF91EF91DF91CF91E2
:104B8000BF91AF919F918F917F916F915F914F9165
:104B90003F912F910F900FBE0F901F9018951F926D
:104BA0000F920FB60F9211242F933F934F935F9361
:104BB0006F937F938F939F93AF93BF93EF93FF93E5
:104BC0008091E10082FF09C08091E20082FF05C070
:104BD0008091E1008B7F8093E1008091E10080FF74
:104BE00017C08091E20080FF13C08091E2008E7FA9
:104BF0008093E2008091E20080618093E2008091E6
:104C0000D80080628093D80019BC85E0809395031A
:104C10008091E10084FF29C08091E20084FF25C0DB
:104C200084E089BD86E089BD89B5982F917080FFA9
:104C3000FBCF8091D8008F7D8093D8008091E100D8
:104C40008F7E8093E1008091E2008F7E8093E2006E
:104C50008091E20081608093E20080919603882336
:104C600009F43FC084E0809395038091E10083FFC5
:104C700027C08091E20083FF23C08091E100877FFD
:104C80008093E10082E080939503109296038091D7
:104C9000E1008E7F8093E1008091E2008E7F80931F
:104CA000E2008091E20080618093E20042E060E0F7
:104CB00080E00E949D048091F00088608093F00065
:104CC000FF91EF91BF91AF919F918F917F916F91E4
:104CD0005F914F913F912F910F900FBE0F901F90BA
:104CE00018958091E30087FD93E090939503BDCFE5
:104CF000CDB7DEB7E4970FB6F894DEBF0FBECDBFD9
:104D000084B7877F84BF0FB6F894A8958091600020
:104D1000886180936000109260000FBE80E890E090
:104D20000FB6F89480936100909361000FBE8BE200
:104D300095E090938301809382010E943824109221
:104D400013031092120381E090E090931803809374
:104D5000170382E090E090931D0380931C0383E08F
:104D600090E0909322038093210384E090E090935D
:104D700027038093260385E090E090932C03809393
:104D80002B0386E090E0909331038093300387E01B
:104D900090E090933603809335030E94800F109229
:104DA000E2001092E1008091E00081608093E000D9
:104DB0008091D8008F778093D80019BC80916300D0
:104DC00081608093630010923A03809163008E7F2C
:104DD0008093630081E080933A031092E200109286
:104DE000E1008091D8008F778093D8008091D8001F
:104DF00080688093D8008091D8008F7D8093D80000
:104E000084E089BD86E089BD89B5282F2170922E66
:104E100080FFFACF1092950310929603109294039C
:104E20001092930342E060E080E00E949D04809134
:104E3000E1008E7F8093E1008091E20081608093A9
:104E4000E2008091E20088608093E2008091E000BF
:104E50008E7F8093E0008091E20084608093E20086
:104E60007894809195038823A1F01091E9001F7038
:104E70009091EC00892F817090FD80E8182B1092A2
:104E8000E9008091E80083FD0E9438131F701093A1
:104E9000E90082E084BD93E095BD9AEF97BD8093D1
:104EA0006E0086E90E94FF0A85E90E94FF0A84E9F4
:104EB0000E94FF0A83E90E94FF0A07E511E0A3E6CA
:104EC000EA2EA1E0FA2ED8018D918D010E94FF0AF1
:104ED000E016F106C1F710923E0310923D031092C6
:104EE0006403109263031092400310923F031092E8
:104EF00066031092650310924203109241031092D0
:104F000068031092670310924403109243031092B7
:104F10006A031092690390E080E00E949B2E8A3E13
:104F20009E4F11F00E94B31682E090E00E94932EF3
:104F3000809358030E94720F90933C0380933B032D
:104F40000E94900DEFEFF6E721E0E150F0402040A5
:104F5000E1F700C000000E94900D8091630380FF84
:104F600017C06FEF83E290E00E94A12E6FEF84E202
:104F700090E00E94A12E6FEF85E290E00E94A12EAA
:104F80006FEF7FEF90E080E00E94BF2E0E947A0CCE
:104F900083E090E00E94932E682F70E090E080E024
:104FA0000E94D908529A5A9883E290E00E94932E68
:104FB000813009F0D3C584E290E00E94932E823ABA
:104FC00009F0CCC585E290E00E94932E853209F06D
:104FD000C5C55098589A5198599A89B18170499984
:104FE00059C190E0892B80934A038FE091E0909320
:104FF00046038093450378E1472E512CE0E48E2E42
:10500000FBE6CF2EF3E0DF2E8E010F5F1F4F809166
:10501000950354E0E52E66E0F62E853009F474C160
:105020000E94900D882359F08FB7F89440916B033C
:1050300050916C0360916D0370916E038FBFA3E676
:10504000B3E0E9E5F3E0F12CE12C7E2D8D919D910B
:10505000219131912817390709F468C12827392788
:1050600060E0AA24A394B12CA9014A215B21452B1D
:1050700009F456C16BA77CA79C012A213B2191E032
:10508000232B09F490E09DA70E943F058160782FB3
:105090009FA78EA74BA55CA56DA58FA50E948C220E
:1050A000F701EE0FFF1FE75AFC4F80819181A82680
:1050B000B926B182A082E0914A03EE0FEE0FE09391
:1050C0004A0389B180FB222420F8499948C180E035
:1050D0008229E82BE0934A03EF70F0E0ED59FE4F90
:1050E000808190914903890F8093490320E08430A7
:1050F0004CF0809148038F5F8093480380E00E94CA
:10510000B52321E0809149038D3F4CF48091480301
:1051100081508093480381E00E94B52321E0809173
:105120004903082E000C990B64E070E00E94492EA0
:1051300080934903222359F08FB7F89440916B0371
:1051400050916C0360916D0370916E038FBF86E088
:10515000E1E5F3E0D80101900D928A95E1F7A09086
:105160005303B0905403E0905503F090560310920F
:1051700053031092540310925503109256038A2D34
:105180008B2991F080914F03909150030E9430053C
:10519000FC0120914E03222309F4E4C080910C010C
:1051A0008E171F0608F4EDC08E2D8F2991F0809187
:1051B0004C0390914D030E943005FC0120914B035C
:1051C000222309F421C180910A018E171F0608F4D9
:1051D0002AC18091530390915403892B90915503D8
:1051E000892B90915603892B11F00E94F90786E0D4
:1051F000F801A1E5B3E001900D928A95E1F70E94D4
:105200004D0790915703891731F00E944D07809305
:1052100057030E94590B80919503843009F0F7CE13
:1052200083E08093E9008091E80082FFF0CE8091D6
:10523000E80090E085FF0AC00E94230470E2A72ED8
:10524000B12C7801882309F43BC191E08091E800FA
:105250008B778093E800992309F4D9CEE0906F030F
:10526000F09070038981E114F10409F437C18E3F95
:1052700009F07FC18A81833020F08550833008F0A7
:1052800078C1EA81EE3008F074C1F0E0ED5FF04DD6
:105290000C945D2E92E0A6CE80919503843021F18E
:1052A00080E00E94590B109247030FB6F894A8951E
:1052B000409260000FBE8092600083B7817F84605F
:1052C00083BF83B7816083BF7894889583B78E7FCF
:1052D00083BF0FB6F894A895809160008861809391
:1052E0006000109260000FBE80919403882361F0EB
:1052F0000E94900DE3E6F3E081919191892B09F0F2
:10530000DFC3CE16DF06C1F780919503853009F41F
:10531000C3CF0E9423130E944D070E94590B80CED9
:105320006F5FAA0CBB1C6C3009F09ECE4FEFE41AE5
:10533000F40A84E0E816F10409F087CE8FEF88AB19
:1053400089AB1AAA0E943F058160782F9CAB8BAB7A
:1053500048A959A96AA98CA90E948C22ACCE82E0E6
:1053600090E0B6CE80910B0190E06AE070E00E9480
:10537000242E8E179F0708F017CF2F5F20934E0320
:1053800002C02F3FD1F7AA2051F00E94D3096FEF3E
:105390001A140CF4692D0E941B2E80935303BB201A
:1053A00051F00E94D3096FEF1B140CF4692D0E9479
:1053B0001B2E8093540380915303882309F4F4CE69
:1053C00020915403222309F4EFCE082E000C990BF0
:1053D00065EB70E00E94242E992371F090935303A3
:1053E000822F220F990B65EB70E00E94242E9923E7
:1053F00039F090935403D8CE81E080935303F0CFDB
:1054000081E080935403D0CE8091090190E06AE05E
:1054100070E00E94242E8E179F0708F0DACE2F5FCF
:1054200020934B0302C02F3FD1F7EE2051F00E9492
:1054300098096FEF1E140CF4692D0E941B2E8093A7
:105440005503FF2051F00E9498096FEF1F140CF4D0
:10545000692D0E941B2E809356038091550388234B
:1054600009F4B7CE20915603222309F4B2CE082EB8
:10547000000C990B65EB70E00E94242E992371F0CB
:1054800090935503822F220F990B65EB70E00E94D9
:10549000242E992339F0909356039BCE81E080937C
:1054A0005503F0CF81E08093560393CE8091F100B5
:1054B000D7018D937D01B1E0AB1AB10809F4C5CED7
:1054C0008091E80085FDF2CF8091E8008B77809392
:1054D000E8000E942304882399F3B7CE8D3009F4A5
:1054E000C4C0B0F4843009F4A7C040F4823041F164
:1054F00008F093C0813001F18FEF0EC3863009F4BC
:10550000B1C008F4A4C08C30B9F780E18A8331C0FF
:10551000813109F405C140F48F3009F4D4C008F496
:10552000A8C00E94A41225C0833109F424C108F444
:10553000F9C08E3F09F7A5CE1A8289E08B8319C086
:105540008A81823009F423C38330E1F18130A1F6EE
:105550002FB7F89460916B0370916C0380916D0389
:1055600090916E032FBF0E94632E6B837C838D838B
:105570009E8380919503843009F049CDF090E90035
:10558000FF2DFF70FF2E9091EC00892F817090FD10
:1055900080E8F82A82E08093E9008091E80080FFAB
:1055A0000CC050E040E060E270E0C8010E9454048A
:1055B0008091E8008E778093E8008F2D8F70809324
:1055C000E90025CD80910D0190910E01892B89F282
:1055D00080916303909164039827892798279C837F
:1055E0008B8380916503909166039827892798277C
:1055F0009E838D8380916703909168039827892704
:10560000982798878F838091690390916A039827E0
:10561000892798279A878987ACCF8A81823009F0B9
:105620006BCF6B817C818D819E810E94632E86E28F
:1056300090E00E94A12E9DCF4C816B818A810E94B7
:10564000D10F9827892798279E838D8392CF2D810C
:105650003E813227232732274C816B818A810E9429
:10566000E71287CF0E94071684CF81E08A8387E8FC
:1056700065CFEC80F12CEDE1EE16F10408F079CF66
:10568000AA80BB80BA24AB24BA243801E00EF11EF4
:10569000C50187589D4FE614F70409F46ACFF7E86F
:1056A000AF16F1E0BF0660F40E94932ED30114966A
:1056B0008C93FFEFAF1ABF0A2FEF621A720AE8CF7E
:1056C000F3011482F6CF80910D0190910E01892B88
:1056D00009F44FCFAC80B12C4DE1A416B10408F011
:1056E00048CFEA80FB80FE24EF24FE243801AE0C74
:1056F000BF1CC70187589D4FAE14BF0409F439CFB2
:10570000A7E8EA16A1E0FA0620F4F30164810E94FA
:10571000A12EFFEF6F1A7F0A2FEFE21AF20AE9CFEC
:1057200084E0F4CEEC80F12C4DE1E416F10408F0B5
:1057300020CFAA80BB80BA24AB24BA243801E00E63
:10574000F11EC5018796E614F70409F412CFA0E80C
:10575000AA16A1E0BA0658F40E94932EF30184839E
:10576000BFEFAB1ABB0AEFEF6E1A7E0AEACFD30186
:1057700014961C92F5CFAC80B12CFDE1AF16B104AC
:1057800008F0F7CEEA80FB80FE24EF24FE2420E818
:10579000E21621E0F20608F0ECCE80E891E08E19E6
:1057A0009F098A159B0508F4E4CE3801AE0CBF1C96
:1057B000C7018796AE14BF0409F4DBCE40E8E416B7
:1057C00041E0F40628F4D30114966C910E94A12EB6
:1057D000BFEF6B1A7B0AEFEFEE1AFE0AE9CF88E003
:1057E000EAE1F1E0DE01919601900D928A95E1F7F0
:1057F00080E2D8011D928A95E9F784E0898388E0E8
:10580000FE01B196DE01159601900D928A95E1F7A1
:10581000B0CE80E9898382E08A831B821C82A9CE74
:105820008C81682F70E0762F66278B81860F972FEB
:10583000911D092E000CAA0BBB0B65E0880F991F68
:10584000AA1FBB1F6A95D1F7AC01BD01405E5F4F37
:105850006F4F7F4F481759076A077B0708F489CEB7
:105860008039E2E09E07A105B10508F082CE4139FA
:10587000F2E05F076105710520F040E952E060E069
:1058800070E0481B590BBC0166597B4FC8010E9450
:105890006A2E6FCEFB80EC8040E06E2D8F2D0E9433
:1058A000A60F9827892798279A83898341E06E2D30
:1058B0008F2D0E94A60F9827892798279C838B837A
:1058C00058CE2E813F813227232732274D816C818C
:1058D0008B810E94B4124DCE4EE150E06FEF70E02C
:1058E000CE0103960E947C2E80910D018983EA826D
:1058F00040CE81E090E09093700380936F0382E349
:1059000090E090936203809361030E943F0531CE43
:1059100080910D018983EA82809161030FCEEB8033
:10592000FC8040E250E06FEF70E0C8010E947C2EE6
:1059300022ED33E090E080E0AC014E5F5F4F4132FA
:10594000510508F016CEF90165917491E616F70637
:1059500030F4800F911FDC016D937C93CA01285FA6
:105960003F4FB4E02A363B0739F703CE4B815C81C9
:1059700082ED93E02AE634E0FC01659174914617CC
:10598000570709F4B3C0089628173907A9F7B4CD0B
:105990002B813C8142EDE42E43E0F42E8AE694E034
:1059A000F701459154912417350709F4B7C0E8E091
:1059B000EE0EF11C8E159F0599F79ECD0E94631285
:1059C000D8CD8B81823009F44AC0E8F48823E9F10C
:1059D000813009F0CECD8C812AE0B22E7E01B1E279
:1059E000EB0EF11CF7012B2D11922A95E9F7B70167
:1059F0000E9422248983F701DE01129601900D9204
:105A0000BA94E1F7B6CD833009F44AC0843009F086
:105A1000B0CD8C819AE0FE013596DE019196019021
:105A20000D929A95E1F7883008F066CD90E06AE033
:105A300070E00E94242EBC01675D7D4F4AE050E07B
:105A4000CE0181960E94C52E66C0FE0133968EE17E
:105A5000DF011D928A95E9F788E0898357CD8C8113
:105A60009AE0FE013596DE01919601900D929A958D
:105A7000E1F7883098F490E06AE070E00E94242E0C
:105A8000BC0167527E4F4AE050E0CE0181960E94F1
:105A9000C52E80E089830E9438246BCD8FEFFACF2A
:105AA0008C819AE0B92E7E0141E2E40EF11CD7010F
:105AB000EB2D1D92EA95E9F7B7010E941E179ACFC8
:105AC000E9BCF9BC09B400FEFDCF8091D8008F7D00
:105AD0008093D8008091E00082608093E000809104
