:100000000C9418020C945F020C945F020C945F0233
:100010000C945F020C945F020C945F020C945F02DC
:100020000C945F020C945F020C9436190C94F21835
:100030000C948A1E0C945F020C945F020C945F0275
:100040000C945F020C945F020C945F020C945F02AC
:100050000C945F020C94661E0C945F020C945F0279
:100060000C945F020C945F020C945F020C945F028C
:100070000C945F020C945F020C945F020C945F027C
:100080000C945F020C945F020C945F020C945F026C
:100090000C945F020C945F020C945F020C945F025C
:1000A0000C945F020C945F020C945F02050109023C
:1000B000A10185020901A100050919012905150001
:1000C00025019505750181029501750381010501E1
:1000D000093009311581257F950275088106093897
:1000E0001581257F950175088106050C0A380215D2
:1000F00081257F950175088106C0C005010980A191
:1001000001850319012AB700150126B7009501756D
:10011000108100C0050C0901A101850419012AA064
:1001200002150126A002950175108100C005010984
:1001300006A1018505050719E029E71500250195A8
:1001400008750181020507190029EF1500250195A1
:10015000F0750181020508190129059505750191C0
:1001600002950175039101C00660FF0961A10109B3
:1001700062150026FF0095207508810209631500AD
:1001800026FF00952075089102C005010906A1010E
:10019000050719E029E71500250195087501810279
:1001A0009501750881010507190029FF150026FF33
:1001B0000095067508810005081901290595057542
:1001C000019102950175039101C0290014001A00E4
:1001D0000800150017001C0018000C001200130086
:1001E0002A002B4204001600070009000A000B0039
:1001F0000D000E000F0034002800E1001D001B0060
:1002000006001900050011001000360037005200EA
:100210000251E0000000E300E6002C412C002C001D
:10022000500051004F000000000035001E001F006C
:1002300020002100220023002400250026002700A2
:100240000000005C3A003B003C003D003E003F00E7
:100250002D002E002F003000000000004000410063
:100260004200430044004500000000000000000080
:100270000000AA000000A800A90001000000010081
:10028000000000000000000000000000000000006E
:10029000000000000000000000000000000000005E
:1002A000000000000000000000000000000000004E
:1002B000000000000000000000000000000000003E
:1002C000000000000000000000000000000000002E
:1002D000000000000000000000000000000000001E
:1002E000000000000000000000000000000000000E
:1002F00000000000000000000000000000007E0F71
:1003000000D4FFFFFFC700000078000000000000DD
:1003100000002A2B28000000000000000000000060
:10032000000000000029000000002C1E34202122C3
:1003300024342627252E362D3738271E1F2021222C
:10034000232425263333362E37381F0405060708A5
:10035000090A0B0C0D0E0F10111213141516171895
:10036000191A1B1C1D2F3130232D350405060708D3
:10037000090A0B0C0D0E0F10111213141516171875
:10038000191A1B1C1D2F3130354C09025B0003016B
:1003900000A0FA0904000001030101000921110174
:1003A00000012240000705810308000A090401003A
:1003B00002030000000921110100012222000705AB
:1003C0008203200001070503032000010904020045
:1003D000010300000009211101000122BC000705F2
:1003E000840320000A1201100100000008444C4060
:1003F000000100010203010403300000000E034469
:100400000069006D0070006C00650000001C034C6A
:100410000061007A0079004400650073006900679C
:10042000006E006500720073000000040309040000
:1004300011241FBECFEFDAE0DEBFCDBF04B603FE4E
:1004400027C080914A0290914B02A0914C02B0913A
:100450004D028730904BA740B04BD1F410924A0226
:1004600010924B0210924C0210924D0214BE84B7AF
:10047000877F84BF0FB6F894A8958091600088614B
:1004800080936000109260000FBEE0E0F8E30995F1
:1004900011E0A0E0B1E0E2ECFEE302C005900D92B5
:1004A000AC35B107D9F722E0ACE5B1E001C01D924F
:1004B000AA34B207E1F70E94111A0C94281F0C9479
:1004C0000000E8EDF0E080818E7F80831092E200F2
:1004D0001092DA001092E100A0EEB0E08C91816001
:1004E0008C9380818F77808319BCA7EDB0E08C91CD
:1004F0008E7F8C9380818F7E808310921702089567
:100500002091E4003091E50095E6A9012091EC00EE
:10051000822F817020FF06C08091E80080FF06C016
:1005200080E008952091E80022FD1AC080914502E4
:10053000882389F0853089F08091EB0085FD0FC01C
:100540002091E4003091E50042175307F9F29150F1
:10055000E1F684E0089582E0089583E0089581E063
:100560000895EF92FF920F931F93CF937C018B011D
:100570000E948002C82F811117C08091E80085FD7C
:100580000BC08091E8008E778093E8000E94800283
:10059000882399F3C82F08C0F70181917F018093C8
:1005A000F1000150110949F78C2FCF911F910F9144
:1005B000FF90EF900895CF93FC0180914502843025
:1005C00001F5C091E900CF702091EC00922F91705D
:1005D00020FD90E8C92B82E08093E9008091E8003B
:1005E00080FF0CC050E040E060E270E0CF010E946C
:1005F000B1028091E8008E778093E800CF70C093BD
:10060000E900CF91089580913D0287FF13C080914A
:10061000E80082FF06C08091E8008B778093E800B5
:1006200004C0809145028111F2CF08958091450266
:100630008823D9F38091E80080FFF8CF8091E8000B
:100640008E77ECCF982F9093E900242F762F50E0EF
:10065000891731F07091EC002091ED005091F0007D
:1006600021FD07C09F5F973071F78093E90081E01B
:1006700008953091EB003E7F3093EB003091ED0018
:100680003D7F3093ED003091EB0031603093EB0013
:100690007093EC002093ED005093F0002091EE0059
:1006A00027FDE0CF80E00895CF92DF92EF92FF9296
:1006B0000F931F93CF93DF93C8EDD0E088818F7E97
:1006C0008883E7EDF0E080818160808384E082BFF1
:1006D00081E08093170288818E7F888302EE10E08C
:1006E000F80110821092DA0081EEC82ED12CF601AA
:1006F000108288818F778883888180688883888149
:100700008F7D888319BC1092450210923C02109292
:100710003B0210923A0290EEE92EF12CF701808113
:100720008B7F808388818160888342E060E080E005
:100730000E942203F60180818E7F8083F8018081F0
:1007400081608083808188608083F70180818E7FD3
:100750008083888180618883DF91CF911F910F9181
:10076000FF90EF90DF90CF900895FC0180914302BD
:100770009091440286179707A0F06115710529F43E
:100780009091E8009E779093E80090E061157105E4
:1007900051F4911108C08091E80082FF34C080E0DC
:1007A0000895BC01F2CF809145028823C1F18530C4
:1007B000C1F18091E80083FD30C08091E80082FDA6
:1007C000EACF8091E80080FFE1CF8091F300209193
:1007D000F200382F6115710519F02830310558F0F5
:1007E00091E02830310509F090E02091E8002E7763
:1007F0002093E800CBCF81918093F1006150710983
:100800002F5F3F4FE7CF80914502882341F085302D
:1008100041F08091E80083FFBECF81E0089582E03F
:10082000089583E0089580914502843011F482E0B8
:10083000089581E008958091190208959091FD0135
:10084000803F41F48091FE0187FD1092FE019923C3
:1008500071F00895813F29F48091FE011816ACF3E0
:10086000F6CF823F81F497FFF2CF1092FD01809185
:10087000FE019091FF01892B90910002892B49F78D
:100880001092F8010895833F19F4191674F3DFCF1D
:10089000893F39F48091FF011816CCF61092FF01C0
:1008A000D6CF8A3F29F48091FF0187FFD0CFF6CFC2
:1008B0008B3F39F48091000287FFC9CF109200026C
:1008C000C6CF8C3F29F4809100021816BCF3BFCF2D
:1008D000843F31F48091FC018E7F8093FC01B7CF7F
:1008E000853F21F48091FC018D7FF7CF863F21F475
:1008F0008091FC018B7FF1CF873F21F48091FC0137
:10090000877FEBCF883F21F48091FC018F7EE5CF7C
:100910008D3F31F48091E6018E7F8093E60197CF81
:100920008E3F21F48091E6018D7FF7CF8F3F09F054
:100930008ECF8091E6018B7FF0CF8091E60180FD24
:1009400016C081FD16C082FD16C08091F801882373
:10095000A1F0883280F428E0829FC001112468E26F
:1009600070E00E94B11E862F672B39F0089582E057
:10097000089584E0089588E0089581E008958091C5
:10098000E60180FD14C081FD14C082FD16C0809177
:10099000F801882381F0843180F422E3829FC00132
:1009A000112464E170E00E94B11E862F08958CE04E
:1009B000089589E1089585E0089582E30895803FD0
:1009C00031F40E94BF0481958093FE010895813F18
:1009D00019F40E94BF04F8CF823F31F40E94BF0493
:1009E00081958093FD010895833F19F40E94BF040F
:1009F000F8CF893F29F40E949D048093FF01089558
:100A00008A3F21F40E949D048195F7CF8B3F31F4FA
:100A10000E949D0481958093000208958C3F19F4F3
:100A20000E949D04F8CF843F31F48091FC018160E5
:100A30008093FC010895853F21F48091FC01826040
:100A4000F7CF863F21F48091FC018460F1CF873F8E
:100A500021F48091FC018860EBCF883F21F48091E4
:100A6000FC018061E5CF8D3F31F48091E60181602A
:100A70008093E60108958E3F21F48091E601826023
:100A8000F7CF8F3FB9F78091E6018460F1CF9C01E9
:100A90004FB7F8948091130290911402A09115021F
:100AA000B09116024FBF821B930B08952FB7F89495
:100AB0008091130290911402A0911502B091160238
:100AC0002FBF0895E091F101F091F201309749F0C4
:100AD00082E08093FB010480F581E02D8BEF91E0B3
:100AE00009950E9456059093F7018093F6010895A9
:100AF0008091E10181111092E10108958091E0015E
:100B00009091DF01892B9091DE01892B80935C010C
:100B10009091E1019923A1F0892B80935C01809150
:100B20000A01882341F18091EF0187FF24C08EE103
:100B3000EEE5F1E090E0815000F591110E9478051A
:100B4000E091F101F091F2013097E1F080910A011A
:100B5000882359F08091EF0187FF07C080915C01E5
:100B600080935D0185E080935C010280F381E02D3C
:100B70008CE591E0099486E0DBCF21912223D9F224
:100B80009F5FD9CF089590910A019923D1F0909158
:100B9000EF0197FF16C0E82FE695E695E695EE3152
:100BA000E0F4F0E0E45AFE4F282F277081E090E057
:100BB00001C0880F2A95EAF7809592818923828364
:100BC0000895EEE5F1E09191891303C0DF011197DB
:100BD0001C9291E0E436F907B1F7089590910A016B
:100BE0009923C1F09091EF0197FF14C0E82FE6958B
:100BF000E695E695EE31F8F4F0E0E45AFE4F8770A2
:100C000021E030E001C0220F8A95EAF78281822B31
:100C100082830895AEE5B1E0EFEF90E02D91821769
:100C200051F0EF3F19F4211101C0E92F9F5F963079
:100C3000A9F7EF3F09F408950E2E000CFF0BE45ABC
:100C4000FE4FE6CF2CE0929F800D1124982F9770D5
:100C500086958695869525E0829FF0011124E154C2
:100C6000FE4F50E040E080E0219130E0092E02C0CC
:100C7000369527950A94E2F721703327042E01C098
:100C8000220F0A94EAF7822B4F5F5F4F45305105E0
:100C900059F708952CE0929F800D1124982F97709A
:100CA00041E001C0440F9A95EAF7869586958695AE
:100CB00095E0899FF0011124E154FE4F90E080E01F
:100CC00070E05191DF0111979B01082E02C036950B
:100CD00027950A94E2F721702195252724232527BB
:100CE0002C9301968530910561F708958091BE019E
:100CF00090918D01981301C008958F5F8770FACF8E
:100D0000882341F080959091E00189238093E00150
:100D10000C947E050895882339F09091E001982B7A
:100D20009093E0010C947E05089520918301309109
:100D300084012817390771F090938401809383010F
:100D4000E091F101F091F201309721F00084F185FA
:100D5000E02D099408952091810130918201281796
:100D6000390771F09093820180938101E091F10144
:100D7000F091F201309721F00680F781E02D09947F
:100D800008951092DF011092DE010E947E0586E038
:100D9000EBEFF1E0DF011D928A95E9F71092F8017F
:100DA0001092E6010E94620590E080E00E94AB068E
:100DB00090E080E00C9495066093460270934702A1
:100DC00080934802909349020C94C1060F931F939D
:100DD00060914602709147028091480290914902C9
:100DE0008B019C010670112722273327063011053D
:100DF0002105310529F468601F910F910C94DC06E0
:100E0000677FFACF0F931F9341E050E060E070E0FE
:100E100004C0440F551F661F771F8A95D2F7CB0178
:100E2000BA01609570958095909500914602109159
:100E300047022091480230914902602371238223A6
:100E400093231F910F910C94DC069091DD01809506
:100E500089238093DD01282F277071F4282F082E15
:100E6000000C330B9217130639F0859585958595FF
:100E70000E9402071092DD0108950F931F9341E035
:100E800050E060E070E004C0440F551F661F771FFC
:100E90008A95D2F78091460290914702A09148022C
:100EA000B09149028A019B01082B192B2A2B3B2B5D
:100EB000C901B8011F910F910C94DC066093E20107
:100EC0007093E3018093E4019093E5010C94C106D3
:100ED000E091F101F091F201309721F00190F08161
:100EE000E02D099480E00895882309F459C08238E0
:100EF00071F40E94680781FF53C089E30E94EE05E8
:100F00000E947E0589E30E94C3050C947E05833808
:100F100059F40E94680780FF43C083E50E94EE05F4
:100F20000E947E0583E5EFCF843859F40E9468075C
:100F300082FF36C087E40E94EE050E947E0587E4AA
:100F4000E2CF9CEF980F913AF0F290E2980F983030
:100F500088F4877021E030E0A90102C0440F551FDA
:100F60008A95E2F7CA0180959091E00189238093E8
:100F7000E001CBCF9BE5980F933020F490E080E028
:100F80000C94AB0698E5980F973120F490E080E040
:100F90000C949506803F20F00E941E040C9462057C
:100FA00008959091EF0192FF06C0282F28712830F4
:100FB000F9F4877F846093FF06C0282F28712831B9
:100FC000F1F4877E84612091F00120FF06C0382F64
:100FD00038713830D9F4877F816021FF06C0282F0F
:100FE00028712831D1F4877E816194FD877E089530
:100FF000282F24712430F9F68B7F8860DCCF282FCE
:101000002471243101F78B7E8861DDCF382F317157
:10101000313019F78E7F8860E0CF282F2171213180
:1010200021F78E7E8861E1CFCF93DF9300D00F92BE
:10103000CDB7DEB790914502943011F589837B835B
:101040006A839093E9008FEF9091E800815095FDBD
:1010500006C095ED9A95F1F700008111F5CF8091CA
:10106000E80085FF0DC050E040E063E070E0CE0195
:1010700001960E94B1028091E8008E778093E8008B
:101080000F900F900F90DF91CF910895CF93DF9342
:10109000EC010E941304823011F0843031F4BE015F
:1010A00084E0DF91CF910C941408DF91CF910895E3
:1010B000BC0183E00C941408CF93DF93EC010E94F1
:1010C0001304823011F08430F9F484E08093E90055
:1010D0008FEF9091E800815095FD06C095ED9A95AF
:1010E000F1F700008111F5CF8091E80085FF0CC079
:1010F00050E040E066E070E0CE010E94B1028091D5
:10110000E8008E778093E800DF91CF910895CF9328
:10111000DF93EC010E941304823011F08430B9F5A2
:1011200080910A018823B1F18091EF0187FF32C0DD
:1011300060E284E08093E9008FEF9091E8008150B5
:1011400095FD06C095ED9A95F1F700008111F5CF58
:101150008091E80085FF1BC080910A0170E050E09B
:1011600040E0811104C050E040E068E070E0CE0152
:101170000E94B1028091E8008E778093E80080E2BF
:10118000FE01AAE1B2E001900D928A95E1F7DF91AC
:10119000CF91089568E081E0CDCF81E08093E000B9
:1011A00080E28093D8001092C9008FE19EE40197FD
:1011B000F1F700C0000087E090EBDC0180934A0269
:1011C00090934B02A0934C02B0934D0288E19CE0B7
:1011D0000FB6F894A895809360000FBE90936000BE
:1011E000FFCFCF93C82F882309F4AFC08238C1F452
:1011F0000E94680781FDA9C089E30E94EE050E9454
:101200007E052FEF81EE94E0215080409040E1F781
:1012100000C0000089E30E94C305CF910C947E05B5
:101220008338A1F40E94680780FD8FC083E50E9487
:10123000EE050E947E052FEF81EE94E02150804064
:101240009040E1F700C0000083E5E5CF8438A1F4C9
:101250000E94680782FD79C087E40E94EE050E9423
:101260007E052FEF81EE94E0215080409040E1F721
:1012700000C0000087E4CFCF8CEF8C0F813A90F54F
:1012800080910A01882301F18091EF0187FF1CC042
:10129000EC2FE695E695E695F0E0E45AFE4F828164
:1012A00090E04C2F477021E030E002C0220F331F46
:1012B0004A95E2F782239323892B81F08C2F0E9499
:1012C000C3050E947E050AC0EEE5F1E084E691E0E8
:1012D0002191C21799F38E179F07D1F78C2F0E9487
:1012E000EE059BCF80E28C0F883068F4C77021E058
:1012F00030E001C0220FCA95EAF78091E001822B0D
:101300008093E0018ACFEBE5EC0FE33040F4F0E0AE
:10131000E55FFE4F808190E0CF910C94AB06E8E54D
:10132000EC0FE73150F4F0E0EE0FFF1FE25FFE4FED
:1013300080819181CF910C949506C03F30F08C2F25
:101340000E94DF04CF910C946205CF910895CF9352
:10135000C82F0E94F108C93349F42FEF87EE93E0BC
:10136000215080409040E1F700C000008C2FCF91C9
:101370000C9474070F931F93CF93DF93C62FD42F32
:10138000022FFC0182818823A1F0609385010E94D5
:1013900056059093800180937F01C77081E001C062
:1013A000880FCA95EAF7DF91CF911F910F910C94A6
:1013B0008B0610918501161335C080917F019091A5
:1013C00080010E944705883C910560F5C0E2CD0F81
:1013D0001D17B9F080E2810F883040F4177081E06A
:1013E00001C0880F1A95EAF70E948006C83048F4B9
:1013F00081E09D2F977001C0880F9A95EAF70E94AF
:101400008B06802F0E94A709C83098F4D77081E01E
:1014100001C0880FDA95EAF7DF91CF911F910F9104
:101420000C948006C77081E001C0880FCA95EAF766
:10143000F3CFDF91CF911F910F9108957F928F92FB
:101440009F92AF92BF92CF92DF92EF92FF920F9353
:101450001F93CF93DF930CE311E0A7EEB1E0712C63
:10146000CC24C394D12CE80189918E01E82FE29518
:10147000EF70F0E091A18F70760101C0EE0C8A95BB
:10148000EAF7892F8E2981A392A17E2D709597234B
:1014900092A3D0EADA95F1F790E4A92E91E0B92E63
:1014A00050E040E030E020E0E50169915E01862EE9
:1014B00082948FE08822912CE40188A190E06F70E3
:1014C00002C0959587956A95E2F780FD5CC0C601DC
:1014D000042E02C0880F991F0A94E2F7282B392B9B
:1014E0004F5F5F4F4C305105F9F681A1872381A3EF
:1014F00082A1E82AE2A28D919C91119728173907C1
:1015000009F444C011963C932E9381E0782A1296F8
:10151000D1E000341D0709F0A6CF7720C9F181E0A2
:1015200080937E010E94560590937D0180937C01FB
:1015300080917C0190917D010E944705069760F1A2
:101540008091E7019091E80190930C0280930B0247
:101550008091E9019091EA0190930E0280930D022F
:101560008091EB019091EC019093100280930F0217
:101570008091ED019091EE019093120280931102FF
:1015800010927E0109C090E080E0A8CF80E0BECF3D
:1015900080917E018111CCCF872DDF91CF911F915A
:1015A0000F91FF90EF90DF90CF90BF90AF909F9002
:1015B0008F907F900895CF9384E090E00E94E61E84
:1015C000C82F81E290E00E94E61E982F8C2FCF91C9
:1015D00008950F931F93CF93DF93C42FD0E0CC0FC8
:1015E000DD1F28E1629FC00DD11D112430E6839FCD
:1015F000C00DD11D1124CE0186960E94E61E082F33
:1016000010E0102F0027CE0187960E94E61E980159
:10161000282BC901DF91CF911F910F910895462F7B
:10162000843038F4743028F46C3018F4672F0C943C
:10163000E90A90E080E00895CF93DF930E940F0BBA
:10164000EC0182389105A9F1D8F58133910509F4AF
:1016500096C048F58932910509F48AC08A9709F441
:1016600095C0C11521E5D20708F0BCC0C11530E511
:10167000D30708F014C1C83ED10508F09CC0C03E95
:10168000D10560F5C83AD10508F087C0C53AD10543
:1016900008F0FDC0C130D10509F12097F9F0C43040
:1016A000D105E0F440C08533910509F45AC0C997CB
:1016B000C1F68091EF01837089F0C0EED0E00EC0DA
:1016C000833E910599F170F4803E910501F1823ECF
:1016D000910539F68091EF0182FD21C0CE01DF91A5
:1016E000CF910895863E910561F1873E910571F194
:1016F000843E910509F0B5CF8091F00181FFEECFD6
:101700008091EF01C7EED0E084FD0DC0E7CF80915E
:10171000EF0180FD12C19091F00190FFDFCFC3EE89
:10172000D0E084FFDBCFD0E0C0E0D8CF8091EF01E4
:1017300082FD06C19091F00190FDBFCF84FFCECF16
:10174000F2CF8091EF0183FDDDCFC8CF8091EF0113
:1017500083FDF9C09091F00191FFF0CFC4EED0E08D
:10176000BDCF8091EF0185FFB9CFC9E2D0E0B6CF00
:101770008091EF0185FFB2CFC5E3D0E0AFCF80917C
:10178000EF0186FFABCFCAE2D0E0A8CF8091EF0196
:1017900086FFA4CFC1E3D0E0A1CFCF3BD10518F69F
:1017A000C85AD0E0CC0FDD1FC25FDE4F0990D88150
:1017B000C02DD46493CFC11540E2D40758F4C115AD
:1017C00081E0D80708F08ACFC03FD10508F4ABCF3D
:1017D000D06584CFC11590E4D90708F4A4CFDF7099
:1017E000D06A7CCFC11525E5D20700F5C11534E5D7
:1017F000D30708F08AC0C11543E5D40708F071C0CB
:10180000C11582E5D80708F467C0CE018370992717
:1018100021E030E002C0220F331F8A95E2F7C6951F
:10182000C69580E2C89FE001112452C0C11599E518
:10183000D907A8F4C11528E5D20708F06BC0C11577
:1018400036E5D30708F06FCF8C2F0E94D107C82F41
:10185000D0E0DC2FCC27CC27DF71D0623FCFC11581
:101860004AE5D40708F45BC0CE019056811590423A
:1018700008F059CF8D2F8F710E94D10790E0982FDB
:10188000882788279F719C012C2BE901E6CFC55A38
:10189000D0E0C55FDE4FC881D0E0D0641FCFCE015D
:1018A000E4E096958795EA95E1F783702C2F2695CD
:1018B0002695237040E2249F90011124382B8C2F11
:1018C0008370C1E0D0E002C0CC0FDD1F8A95E2F743
:1018D000C22BD32BDC6802CFDC2FCC27C16FD06AA0
:1018E000FDCECE018370992721E030E002C0220FA7
:1018F000331F8A95E2F7C695C69590E2C99FE0012D
:101900001124C22BD32BDA68E9CEDC2FCC27C46F8D
:10191000D06AE4CEDC2FCC27C06FD06ADFCE8C2F0C
:101920008F700E94D10734E0D695C7953A95E1F7BC
:10193000CF709C2FEC01D069D1CEC9E3D0E0CECEE0
:10194000C2EED0E0CBCEC6EED0E0C8CEBF92CF92F2
:10195000DF92EF92FF920F931F93CF93DF938C014F
:10196000C0904602D0904702E0904802F0904902B1
:101970008091E2019091E301A091E401B091E50131
:10198000C82AD92AEA2AFB2ACFE1D0E0BC2ED70107
:10199000C6010C2E04C0B695A795979587950A9415
:1019A000D2F780FD0EC0219788F7B12C8B2DDF91E7
:1019B000CF911F910F91FF90EF90DF90CF90BF904C
:1019C0000895B8018C2F0E941C0B019761F3EECF94
:1019D000CF93DF93EC010E94A60CBE01DF91CF9163
:1019E0000C941C0B0E94E80C292F2F7092959F706D
:1019F00092509E3078F4E92FF0E0E65DF04E0C94C2
:101A0000C51E803F19F020F4883E20F481E008953F
:101A1000843FE1F380E00895883EC0F3813FD1F731
:101A2000F5CF822F86958695869508956F927F9241
:101A30008F929F92AF92BF92CF92DF92EF92FF92DE
:101A40000F931F93CF93DF938AECC82E81E0D82E9B
:101A50009EE9E92EF12CE701C056D10936011BC0E1
:101A6000F50185909490692DC8010E94F41E682D9F
:101A7000C80101960E94F41E82E0A80EB11C0E5F00
:101A80001F4FC017D10761F788E1680E711C689677
:101A9000CE15DF0529F08E01085111095301E0CF61
:101AA0007E0180E6E80EF11C80E6C80ED11C8EE1B6
:101AB000E81682E0F80679F6DF91CF911F910F9139
:101AC000FF90EF90DF90CF90BF90AF909F908F905E
:101AD0007F906F900895CF93DF93C6EAD1E060E0E6
:101AE000CE010E94F41E2196C11584E0D807B9F7F3
:101AF000DF91CF910895CF93C82F6FEF811161E2ED
:101B000082E290E00E94F41E6FEFC11168E083E270
:101B100090E00E94F41E6FEFC11166E284E290E053
:101B2000CF910C94F41E6CEE7EEF90E080E00E946A
:101B3000121F60E082E090E00E94F41E60E083E00B
:101B400090E00E94F41E1092E2011092E3011092C4
:101B5000E4011092E50160E084E090E00E94F41E50
:101B600060E081E290E00E94F41E60E085E090E099
:101B70000E94F41E60E086E090E00E94F41E6FEF89
:101B800087E090E00E94F41E40E050E0BA0188E057
:101B900090E00E94061F60E08DE090E00E94F41E3D
:101BA00040E050E0BA0188E190E00E94061F60E04A
:101BB00087E190E00E94F41E40E050E0BA018CE121
:101BC00090E00E94061F60E080E290E00E94F41E18
:101BD00040E050E0BA018FE090E00E94061F40E034
:101BE00050E0BA0183E190E00C94061F1092E001EE
:101BF00080910A01EEE5F1E0882359F08091EF0130
:101C000087FF07C08EE1DF011D928A95E9F70C94EA
:101C1000C10686E0F8CF1F93CF93DF93CDB7DEB731
:101C2000AA970FB6F894DEBF0FBECDBF8DE392E04A
:101C30002091F100DC012D93CD01B2E085349B07AA
:101C4000B9F780913E02833009F471C0B8F4813055
:101C500009F448C0823009F4B2C08091E80083FFE3
:101C600093C280913D0290913E029A3008F08CC25E
:101C7000E92FF0E0E85CF04E0C94C51E8A3009F4C0
:101C80008DC08B3009F470C0893039F780913D02E6
:101C9000813219F78091410290914202009711F030
:101CA0000297D9F68091E800877F8093E8008091C1
:101CB000E80082FF37C09091F3008091F200029714
:101CC00029F48091F1008B7F813021F48091F10023
:101CD000809319028091E8008B778093E8000E943E
:101CE0000303BBCF80913D02813A09F0B6CF8091CA
:101CF000E800877F8093E800809141029091420242
:101D0000892B61F460E28AE192E070E00E94B50301
:101D10008091E8008B778093E8009FCF60E090E0AF
:101D200080E0F3CF809145028111C1CF96CF8091A1
:101D30003D02813A09F091CF809141029091420297
:101D4000892B09F08ACF8091E800877F8093E80093
:101D50008091E80080FFFCCF80910A018093F10020
:101D60008091E8008E77B9CF80913D02813209F0F1
:101D700074CF8091410290914202892B09F06DCF7E
:101D80008091E800877F8093E8000E9403038091A0
:101D90003F0280930A010E94F60D5FCF80913D02C1
:101DA000813209F05ACF8091E800877F8093E80064
:101DB0000E94030380914002809318024ECF8091CD
:101DC0003D02813A09F049CF8091E800877F8093F6
:101DD000E8008091E80080FFFCCF80911802BECF20
:101DE000803899F0823809F0CFC1809141028F701C
:101DF000873008F0C9C18093E9008091EB0085FB32
:101E0000882780F91092E90006C080913A029091EB
:101E10003B02911182609091E800977F9093E800D7
:101E20008093F1001092F1008091E8008E77A8C1B4
:101E3000882309F496C1823009F0A6C180913F023F
:101E4000811199C1809141028F702FEF280F2630A8
:101E500008F09AC18093E9002091EB0020FF8BC12C
:101E6000933031F48091EB0080628093EB0083C16A
:101E70009091EB0090619093EB0021E030E001C085
:101E8000220F8A95EAF72093EA001092EA008091E7
:101E9000EB008860EACF811177C110913F021F7774
:101EA0008091E3008078812B8093E3008091E800AB
:101EB000877F8093E8000E9403038091E80080FF01
:101EC000FCCF8091E30080688093E30082E01111F1
:101ED00083E08093450258C18058823008F054C195
:101EE00020913F02309140022C3DE3E03E07A1F5F6
:101EF00083E08A838AE289834FB7F894DE011396E0
:101F000020E03EE051E2E32FF0E050935700E491EF
:101F100020FF03C0E295EF703F5FEF708E2F90E0DF
:101F2000EA30C0F0C7968D939D932F5F243159F707
:101F30004FBF8091E800877F8093E8006AE270E0FD
:101F4000CE0101960E94B5038091E8008B778093C3
:101F5000E8001AC1C096E7CF8091410290914202F9
:101F6000432F55274330510509F44AC078F54130D5
:101F7000510509F485C08BE590E0EAE8F3E04230D2
:101F8000510509F001C12091E800277F2093E80066
:101F900020914302309144028217930708F49C0178
:101FA00040E02115310509F070C041116EC08091EB
:101FB000E80082FDC9CF80914502882329F285304F
:101FC00019F28091E80083FFF2CFBECF4132510574
:101FD00009F447C04232510509F0D6C0833091055B
:101FE00008F0D2C0FC01EE0FFF1FE15BFE4F019035
:101FF000F081E02D845B9E4FDC018C9190E01DC050
:10200000332721303105E9F02115310579F02230EF
:102010003105F9F02330310509F0B6C0E7EFF3E000
:10202000E4918E2F90E0E7EFF3E007C0EBE2F4E0FD
:10203000E4918E2F90E0EBE2F4E0009709F4A4C065
:10204000A2CFEDE0F4E0E4918E2F90E0EDE0F4E03B
:10205000F4CFEDEFF3E0E4918E2F90E0EDEFF3E0BD
:10206000ECCF8330910508F08FC0880F991FFC01D9
:10207000EB5AFE4F0190F081E02D89E090E083CF94
:1020800082E190E0E5EEF3E07ECF80914502882387
:1020900009F45ACF853009F457CF8091E80083FDC9
:1020A00053CF8091E80082FD82CF8091E80080FFCD
:1020B00078CF9091F3008091F2002115310519F04D
:1020C0008830910550F041E0089709F040E0809198
:1020D000E8008E778093E80064CF44914093F1004C
:1020E0003196215031090196E8CF803809F04CC073
:1020F0008091E800877F8093E80080913C02809384
:10210000F10092CE811140C010913F021230E0F5F3
:102110008091E800877F8093E80010933C020E9442
:102120000303112311F084E005C08091E30087FDD3
:10213000FACF81E08093450242E061EC81E00E94A9
:10214000220342E261EC84E00E94220342E261EC5D
:1021500082E00E94220342E260EC83E00E942203BC
:1021600013C080913F02813079F481E0933009F00F
:1021700080E080933B021092E9008091E800877F25
:102180008093E8000E9403038091E80083FF0AC067
:102190008091E800877F8093E8008091EB00806267
:1021A0008093EB00AA960FB6F894DEBF0FBECDBFAA
:1021B000DF91CF911F9108954F925F926F927F921E
:1021C0008F929F92AF92BF92CF92DF92EF92FF9247
:1021D0000F931F93CF93DF9300D000D00F92CDB712
:1021E000DEB77C01FC0183819481892B31F08081F1
:1021F000918189238F3F09F021C50F900F900F9097
:102200000F900F90DF91CF911F910F91FF90EF9062
:10221000DF90CF90BF90AF909F908F907F906F9006
:102220005F904F9008950E94A60C182F682F898107
:102230009A810E944A0669817A81812F0E940F0B40
:102240008C01F7018281882309F4EDC498012251A1
:102250003F452031310508F0BFC48FEF93E00E9465
:10226000E61E025156EAA52EBB24B394882379F1C9
:102270008091DD01877009F4C0CFF7018281882346
:1022800009F4BBCF82E00F900F900F900F900F904A
:10229000DF91CF911F910F91FF90EF90DF90CF9042
:1022A000BF90AF909F908F907F906F905F904F9076
:1022B0000C942507A114F4E0BF06D1F2C5010E94D9
:1022C000E61E811101C001502FEFA21AB20A0111BE
:1022D000F1CF1C821B82662463944AE0542E850150
:1022E0000F5F1F4FC5010E94E61E89831A82882353
:1022F00009F4BECF9FEF980F933008F58A83698267
:1023000032E0A30EB11CC8010E94E61E8B83882315
:1023100009F4AECF8E010F5F1F4FF80120812223F9
:10232000F1F2213009F043C091818281913049F46A
:102330000E5F1F4F0E94A7090F5F1F4FEECF58017E
:10234000E9CF923029F40E5F1F4F0E94F108F4CFBD
:10235000933029F40E5F1F4F0E947407EDCF943025
:1023600019F00F5F1F4FE8CF0E5F1F4F30E020E0E6
:10237000B8016F5F7F4FF80141818053990B8A301C
:10238000910550F021503109B8F28FE99FE0019793
:10239000F1F700C00000F6CF529EF001539EF00D01
:1023A00011249C012E0F3F1F842F8B01E1CFE22FC0
:1023B000F0E0E65FFC4F7490822F869586958695B7
:1023C00090E0FC01E650FD4F84902770912C022E86
:1023D00002C0959487940A94E2F7E1E08E22992452
:1023E000FC01E651FD4FC490D12C02C0D594C79496
:1023F0002A95E2F7F1E0CF22DD248114910419F04F
:1024000081EE0E94F108C114D10419F086EE0E94F9
:10241000F108872D0E94A709CD2819F086EE0E94A9
:102420007407892809F488CF81EE96CF81E00E9455
:102430003D070E94E6061CCF81E00E940207F9CF0B
:1024400082E0F5CF053F2CE5120709F461C008F4DE
:102450005BC027E245EE66EE063F9CE5190709F4EE
:10246000DEC3882309F4FBC3109285010230ECE53A
:102470001E0708F430C10631FCE51F0738F098014B
:102480002A5F3C452930310508F025C10E94DB0A4E
:102490009093F0018093EF0100312CE5120709F4CD
:1024A000E9C008F073C008308CE5180709F4D4C0FF
:1024B00008F045C00430ECE51E0709F4C1C078F50A
:1024C00002302CE5120709F4B5C08091EF0182605B
:1024D00003301C4509F4B1C06091EF011091F00187
:1024E00084E090E00E94F41E612F81E290E00E945F
:1024F000F41E0E94F60DBCCE27E245EE65EE8FC3BA
:1025000026E241EE60EE8BC327E245EE64EE87C320
:1025100026E241EE62EE83C328E241E0EFCF0630CF
:102520008CE5180709F494C08091EF0188600730AA
:102530001C4508F482C08091EF0180627EC08091CA
:10254000EF018D7F0C30ECE51E0709F476C070F4C6
:102550008091EF018C600A302CE5120709F46DC000
:1025600008F47EC08091EF018E7F67C00E308CE54D
:10257000180709F47BC08091EF018B7F0F301C4559
:1025800008F45BC08091EF018F7E57C00B3FECE5F4
:102590001E0709F459C030F503312CE5120709F480
:1025A00071C078F401318CE5180709F467C0023175
:1025B0001C4509F091CF0E94F60D8091EF018F77B5
:1025C0003CC00531ECE51E0709F464C008F478C08E
:1025D0008091F00181600A3F1C4509F07DCF809316
:1025E000F0017ACF0F3F3CE5130709F44FC088F4A0
:1025F0008091F0018D7F0D3F9CE5190781F380915B
:10260000F0018E7F0E3F1C4550F38091F0018360F6
:10261000E6CF0130FDE51F0709F45BC008F446C0B2
:1026200060E002301D4509F057CF8EE090E00E9437
:10263000F41E52CF8091EF0181608093EF014CCF67
:102640008091EF018460F9CF8091F0018260C7CF63
:102650008091EF018061F1CF8091EF018064EDCF37
:102660000E94F60D8091EF018068E7CF8091EF0125
:10267000877FE3CF8091EF018F7DDFCF8091EF01E6
:102680008F7BDBCF8091EF01837FD7CF8091F001EB
:102690008C7FA5CF8091EF0182FB992790F921E0F3
:1026A000922790FB82F990FB83F9C7CF8091F001CC
:1026B000982F909591708E7F892B90FB81F98FCF09
:1026C0000E94F60D9091EF01892F97FB87F98058B2
:1026D000B4CF61E0AACF06319CE5190709F0CAC260
:1026E0008091E0018A7A91E009F490E0909386016C
:1026F000811106C089E20E94EE050E947E05B8CDD8
:1027000085E3F9CF85E3B3C20E94F60DEFEFF4E362
:102710002CE0E150F0402040E1F700C000000E94B2
:10272000CD080E94930DA4CDC8010E942206D82E88
:10273000B8C2212F2F70A22E107F19F0A29490EF13
:10274000A922DD20C9F0AA2069F080E2800F88303C
:1027500010F081100BC08091E001A82AA092E00146
:102760000E947E05802F0E94F10818C08091DF0131
:10277000A82AA092DF01F4CF802F0E947407AA201C
:1027800069F0A094005E083010F081103BC0809189
:10279000E001A822A092E0010E947E05EB2DE85006
:1027A000FF0B349710F40E946807CC2009F425CD64
:1027B0008091DD0180FD21CDF701128285958595FF
:1027C00085950E943D07C7010E94DC108091DD01C4
:1027D0008595859585950F900F900F900F900F9090
:1027E000DF91CF911F910F91FF90EF90DF90CF90ED
:1027F000BF90AF909F908F907F906F905F904F9021
:102800000C9402078091DF01A822A092DF01C4CFBF
:10281000312F3F70932E107F103219F0929480EF79
:102820009822882071F081E0881661F1DD20B9F1ED
:10283000AA2071F1F701858180FF94CF8F70858385
:1028400027C0DD2091F09091E101892D892BA11005
:1028500003C00E948B06A2CFE1E0AE12FACF981718
:1028600009F49CCF8093E10199CFA11006C00E948A
:102870007805892D0E94800691CFF1E0AF1609F40A
:102880008DCFF5CFDD2031F025E02A1508F486CF75
:10289000892DDFCF34E03A1508F480CFEACFAA20A3
:1028A00041F3F9E38F1291C12FEF37EE83E021500E
:1028B00030408040E1F700C0000087C1812F86953D
:1028C0008695837061F0813009F068CFC8019370FC
:1028D000D11002C090E080E00E9495065FCFC80151
:1028E0009370D11002C090E080E00E94AB0656CFFA
:1028F000802FDD2029F00E94DF040E9462054ECF68
:102900000E941E04FACF812F837009F066C0D11097
:1029100045CF802F829586958770880F880F602F0E
:102920006F70462E512C712C612C082E04C0440C63
:10293000551C661C771C0A94D2F740E050E0BA019F
:1029400004FF0FC04FE050E060E070E004C0440FAF
:10295000551F661F771F8A95D2F740955095609551
:102960007095812F869586958370823019F1D8F401
:102970000091E2011091E3012091E4013091E50121
:10298000813069F04429552966297729CB01BA019C
:1029900060237123822393230E945E07FFCE402A87
:1029A000512A622A732ACB01BA0164297529862922
:1029B0009729F2CF44295529662977290091E20108
:1029C0001091E3012091E4013091E501CB01BA01BE
:1029D0006027712782279327DFCF8695DD2011F0AE
:1029E000812F8170882309F4D9CE802F8295869516
:1029F0008770880F880F602F6F70462E512C712CB6
:102A0000612C082E04C0440C551C661C771C0A94CB
:102A1000D2F740E050E0BA0104FF0FC04FE050E0B1
:102A200060E070E004C0440F551F661F771F8A9551
:102A3000D2F74095509560957095812F8695869533
:102A40008370823019F1D8F4009146021091470248
:102A50002091480230914902813069F0442955297A
:102A600066297729CB01BA0160237123822393233E
:102A70000E94DC0693CE402A512A622A732ACB0197
:102A8000BA016429752986299729F2CF4429552945
:102A90006629772900914602109147022091480249
:102AA00030914902CB01BA01602771278227932711
:102AB000DFCF1F70DD2029F0812F0E943D07802F7E
:102AC000C8CE802F0E948006812F0E94020766CE0A
:102AD000802F92EF891609F450C0981578F0E0EF36
:102AE0008E1619F1F1EF8F1609F43FC0DD2009F4BD
:102AF00067C0A11037CE812F8F713CC023EF8216A3
:102B000009F440C034EF8312F1CFDD2009F44DC049
:102B10001F71812F0E943D07E8E01E9FC001112414
:102B200083608093DD01812F25C0DD20C9F084E022
:102B30008A1508F433CE1F7161E070E080E090E008
:102B400004C0660F771F881F991F1A95D2F700914E
:102B50004602109147022091480230914902A4CFC9
:102B600095E09A1508F41ACEE6CF812F8F71DD20FB
:102B700009F4ABCF0E943D0711CE812F8F71DD206C
:102B8000C9F3A3CF60E070E0CB01DD2009F470CF82
:102B90001F7161E070E080E090E004C0660F771F75
:102BA000881F991F1A95D2F763CF81E00E942507ED
:102BB000F1E0FA1508F0F2CD82E00E942507EECD93
:102BC000AA2039F0893309F46FCE802F0E94740750
:102BD000E5CD812F8F7179CF0031FFE51F0709F413
:102BE00025CC01312FE5120709F42ACC033F2CE54F
:102BF000120709F485CC08F025CC083D9CE519079F
:102C000009F47ACC093DECE51E0709F485CC073DB3
:102C1000FCE51F0709F025CC26E241EE61EEC70175
:102C20000E94BA0925CB00313FE5130709F404CC13
:102C300001319FE51907D1F682E0FFCB85E0DE0187
:102C4000119601900D928A95E1F7F7012281898111
:102C50009A812111E8CA0E942206182FECCA063177
:102C60001C4589F48091860181114CCD89E20E9436
:102C7000C30543CD01152CE5120709F445CD0E3DE2
:102C80001C4509F44ECDF70100811181882309F418
:102C90004BCDC8010E94A60CD82E682FC8010E94F7
:102CA0004A06B8018D2D0E941C0B8C01882EF7015D
:102CB000A580A2943FE0A322D280D1101092DF0120
:102CC0008091DD01877099F0DD2089F0812F807F70
:102CD000803421F080E2800F883048F082E00E944A
:102CE00025078091DD018770CC24C3948111C12C0C
:102CF000B12EB2942FE0B222FBE0FB1508F44ECDCA
:102D0000EB2DF0E0EE5BF04E0C94C51E1F93CF93BD
:102D1000DF9380918C01807FA9F4809189018823C1
:102D200089F08091BE01D0918D01609187017091F1
:102D30008801A0918A01B0918B01C62FC72316E0AC
:102D4000D81304C0DF91CF911F91089590E01097A0
:102D500011F0CF3F19F401968770F2CF189F9001C0
:102D6000199F300D1124F901E257FE4F418147139D
:102D7000F2CF40814613EFCF42814111ECCF438126
:102D800054814A1B5B0B483C510528F780918C010C
:102D90008F70806180938C01F901ED56FE4F808128
:102DA0008F708061808387E891E00E94DC10DF9162
:102DB000CF911F910C947606AF92BF92CF92DF9283
:102DC000EF92FF920F931F93CF93DF93CDB7DEB7B0
:102DD00061970FB6F894DEBF0FBECDBF8C0185E0C2
:102DE000F801DE011D9601900D928A95E1F7F80138
:102DF00080819181E28027E8A22E21E0B22E6091AD
:102E00008A0170918B016115710509F43EC1309101
:102E1000870140918801232F24232F3F09F435C1D6
:102E2000C380D480F0908901F601E61BF70BFF20E8
:102E300009F4FBC020918C01522F507FE83CF10532
:102E400008F0BBC0511178C0FE2C491321C03813C3
:102E50001FC0E1101DC02F70206120938C01C5019F
:102E60000E94DC1080918C01F80185838F2D619682
:102E70000FB6F894DEBF0FBECDBFDF91CF911F918B
:102E80000F91FF90EF90DF90CF90BF90AF9008959B
:102E9000CD2829F0282F29232F3F09F014C120E045
:102EA000F22FF170DF2E20FF3DC02091BE01409136
:102EB0008D0156E0241315C08D879E878D859E85D4
:102EC0000E94E80C292F22952F702230F8F0243030
:102ED00020F59F70F9F0F8019581907FD9F4D12CFD
:102EE0001FC030E0529FF001539FF00D1124E257B4
:102EF000FE4F6181961306C06081861303C0628114
:102F0000E61210C02F5F3F4F2770D4CF9F7011F093
:102F1000882329F3805E883010F3C8010E94DC10FA
:102F2000FD2CA4CFEE2009F4A1CF80918C0181600B
:102F300080938C01F12C9ACF491312C0381310C022
:102F4000E1100EC0F8012583C8010E94DC1086E064
:102F5000F801A7E8B1E001900D928A95E1F786CFDC
:102F60008D879E878D859E850E94F20C882309F1AE
:102F7000EE20F9F080918C01803270F02091870171
:102F80003091880138872F831986DB86CA868C8723
:102F9000CE0107960E94DC1086E0F801A7E8B1E0B8
:102FA00001900D928A95E1F70E948616FF24F39412
:102FB0005DCFC8010E94DC10F9CF51110AC087E82B
:102FC00091E00E94DC1086E0F50111928A95E9F704
:102FD000B1CF49130FC038130DC0E1100BC0F80179
:102FE0002583C8010E94DC1086E0F50111928A95C4
:102FF000E9F73CCF8D879E878D859E850E94F20CD8
:103000008823B9F2EE20A9F280918C01803220F25F
:1030100020918701309188013A8329831B82DD82C8
:10302000CC828E83CE010196B5CFE83CF105E0F667
:10303000FE2CEE2009F4BDCF491316C0381314C07E
:1030400080918C0180FD83CF982F907F09F47FCFF2
:10305000F8018583903F09F477CF982F907F905F98
:103060008F70892B858370CF8D879E878D859E85F8
:103070000E94F20C811190CF80918C01816080932D
:103080008C01C8010E94DC10F1CEEE2009F491CF32
:103090008D879E878D859E850E94F20CF82E882351
:1030A00009F487CF86E0F801A7E8B1E001900D921E
:1030B0008A95E1F780918701909188010E94E80C40
:1030C0000E948616D3CE21E02E25EACE1F93CF9301
:1030D000DF93CDB7DEB767970FB6F894DEBF0FBEAC
:1030E000CDBF4B8B5C8B6D8B7E8B8F8B1A8A198A35
:1030F00085E0FE017396DE011D9601900D928A9582
:10310000E1F786E0FE013D96DE01179601900D92F3
:103110008A95E1F7CE0107960E94DC16811112C054
:1031200086E0FE013796DE01119601900D928A9598
:10313000E1F78A859B85892B29F08F8198858923E2
:103140008F3FB1F516E08091BE0190918D018913FA
:103150001DC067960FB6F894DEBF0FBECDBFDF91DE
:10316000CF911F91089596E0929FD001939FB00D4B
:103170001124A257BE4FFE01319601900D929A95EF
:10318000E1F780938D010E947606DCCF819FC0011C
:10319000112482579E4F0E94DC168823D1F2809121
:1031A000BE0190E00196877099278093BE01CBCF36
:1031B00020918D0130E0C9010196877099274091D7
:1031C000BE014817190679F60E94F60D10928D017E
:1031D0001092BE0186E0E7E8F1E0DF011D928A95DA
:1031E000E9F7B0CF1F920F920FB60F9211242F93D1
:1031F0003F934F935F936F937F938F939F93AF937F
:10320000BF93CF93DF93EF93FF93D091E900DF70EB
:103210008091EC00C82FC17080FDC0E81092E900D9
:103220008091F000877F8093F00078940E940B0ECD
:103230001092E9008091F00088608093F000CD2B1F
:10324000CF70C093E900FF91EF91DF91CF91BF91D3
:10325000AF919F918F917F916F915F914F913F912E
:103260002F910F900FBE0F901F9018951F920F92E5
:103270000FB60F9211242F933F934F935F936F9349
:103280007F938F939F93AF93BF93EF93FF9380911F
:10329000E10082FF09C08091E20082FF05C08091B9
:1032A000E1008B7F8093E1008091DA0080FF24C0F1
:1032B0008091D80080FF20C08091DA008E7F8093BB
:1032C000DA008091D90080FF9FC080E189BD82E152
:1032D00089BD09B400FEFDCF81E080934502809155
:1032E0001702811109C00E9461020E94540380915B
:1032F000E20084608093E2008091E10080FF17C0CB
:103300008091E20080FF13C08091E2008E7F809365
:10331000E2008091E20080618093E2008091D80019
:1033200080628093D80019BC85E08093450280912B
:10333000E10084FF2DC08091E20084FF29C080E17C
:1033400089BD82E189BD89B5982F917080FFFBCF3F
:103350008091D8008F7D8093D8008091E1008F7E8E
:103360008093E1008091E2008F7E8093E200809163
:10337000E20081608093E20080913C02882309F49E
:1033800049C084E0809345020E94F60D0E946807C0
:103390008091E10083FF27C08091E20083FF23C07A
:1033A0008091E100877F8093E10082E08093450275
:1033B00010923C028091E1008E7F8093E100809129
:1033C000E2008E7F8093E2008091E2008061809332
:1033D000E20042E060E080E00E9422038091F00081
:1033E00088608093F000FF91EF91BF91AF919F9122
:1033F0008F917F916F915F914F913F912F910F909E
:103400000FBE0F901F90189519BC10924502109294
:10341000170272CF8091E30087FD93E090934502FD
:10342000B3CFCDB7DEB7AA970FB6F894DEBF0FBE05
:10343000CDBF84B7877F84BF0FB6F894A8958091DD
:103440006000886180936000109260000FBE80E889
:1034500090E00FB6F89480936100909361000FBEE6
:1034600085B7806885BF85B7806885BF0E94610287
:103470000E9454038091E20084608093E20078947B
:10348000809145028823A1F01091E9001F7090916E
:10349000EC00892F817090FD80E8182B1092E900D4
:1034A0008091E80083FD0E940B0E1F701093E900CD
:1034B00082E084BD93E095BD9AEF97BD80936E0046
:1034C000ACE3B1E040E451E061E070E08D91E82FC1
:1034D000E295EF70F0E011A18F709B0101C0220F07
:1034E0008A95EAF7922F9095912391A382A1822B3E
:1034F00082A34A175B0751F7A0E4B1E061E070E0F6
:103500008D91E82FE295EF70F0E041A18F709B0163
:1035100001C0220F8A95EAF7922F9095942391A3E8
:1035200082A1822B82A321E0AC34B20749F710922A
:10353000E8011092E70110920C0210920B02109217
:10354000EA011092E90110920E0210920D021092FF
:10355000EC011092EB011092100210920F021092E7
:10356000EE011092ED0110921202109211020E94CF
:103570001E0A8FE39CE90197F1F700C000000E944A
:103580001E0A80910B0280FF0BC080E00E947B0D21
:103590006FEF7FEF90E080E00E94121F0E94CD0845
:1035A00090E080E00E94EE1E8C3E9E4F11F00E9443
:1035B000930D82E290E00E94E61E813209F066C31C
:1035C00083E290E00E94E61E883009F05FC384E247
:1035D00090E00E94E61E863209F058C390E080E039
:1035E0000E94EE1E8C3E9E4F11F00E94930D82E0D1
:1035F00090E00E94E61E809302020E94DB0A9093F4
:10360000F0018093EF0183E090E00E94E61E682FB6
:1036100070E090E080E00E945E0780E091E090938F
:10362000F2018093F101DD24DA9452E0252E6AE55F
:10363000362E70E1772EE0E64E2EF8E15F2EA9E0FF
:103640006A2ECC24C394B8E18B2E912C8091450234
:10365000853009F45EC10E941E0AABE0B2E0E3E0EF
:10366000F2E010E000E0702F8D919D912191319159
:103670002817390709F48CC160E0EE24E394F12C9B
:1036800028273927A9014E215F21452B09F47AC14A
:1036900069A37AA39C012E213F2191E0232B09F4F9
:1036A00090E09BA30E9456058160782F9DA38CA378
:1036B00049A15AA16BA18DA10E946618000F111F8C
:1036C000F801ED5FFD4F80819181E826F926F182B6
:1036D000E08286E0EBEFF1E0DE01119601900D92C1
:1036E0008A95E1F78091FD019091FE01892B09F403
:1036F00068C08091F9019091FA010E9447059C01F0
:103700009091F801992309F4DCC22333310508F4C0
:1037100058C09F3F19F09F5F9093F8011092FF01EE
:10372000109200028091FD01181624F40E94BF043B
:103730008093FD018091FD0187FF05C00E94BF04B9
:1037400081958093FD018091FE01181624F40E945A
:10375000BF048093FE018091FE0187FF05C00E9497
:10376000BF0481958093FE013091FD013323B1F0B8
:103770002091FE01222391F045EB3403C001112476
:10378000992309F41BC19093FD0145EB240390019B
:103790001124332309F415C13093FE010E94620500
:1037A0008091F6019091F7019093FA018093F901CD
:1037B00086E0FE013196ABEFB1E001900D928A9563
:1037C000E1F78091FF0190910002892B09F468C014
:1037D0008091F4019091F5010E9447059C01909120
:1037E000F801992309F468C22536310508F458C058
:1037F0009F3F19F09F5F9093F8011092FD01109286
:10380000FE018091FF01181624F40E949D0480930C
:10381000FF018091FF0187FF05C00E949D048195F3
:103820008093FF0180910002181624F40E949D04E9
:10383000809300028091000287FF05C00E949D04D2
:103840008195809300023091FF013323B1F02091E4
:103850000002222391F045EB3403C0011124992387
:1038600009F4B2C09093FF0145EB240390011124A9
:10387000332309F4ACC0309300020E9462058091AA
:10388000F6019091F7019093F5018093F40186E0A1
:10389000FE013196ABEFB1E001900D928A95E1F710
:1038A0000E94680790910102891721F00E94680721
:1038B0008093010280914502843009F0C7CE83E0F5
:1038C0008093E9008091E80082FFC0CE8091E800FB
:1038D00090E085FF0CC00E94800230E2E32EF12CC4
:1038E0008E010F5F1F4F882309F47EC091E0809105
:1038F000E8008B778093E800992309F4A7CEE9814B
:10390000E150E33108F0D3C0F0E0E25BF04E0C94FC
:10391000C51E80914502843011F11092F30180E4BC
:103920000FB6F894A895809260000FBE8093600057
:1039300083B7817F846083BF83B7816083BF7894BE
:10394000889583B78E7F83BF0FB6F894A895809132
:103950006000886180936000109260000FBE8091CB
:103960003B02882309F472CE0E941E0AEBE0F2E0CB
:1039700081919191892B09F074C122E0E331F20722
:10398000B9F764CE6F5FEE0CFF1C6C3009F07ACE95
:103990000F5F1F4F0430110509F065CEDEA2DFA2D4
:1039A00018A60E9456058160782F9AA789A74EA174
:1039B0005FA168A58AA50E9466188BCEC092FD0102
:1039C000E4CEC092FE01EACEC092FF014DCFC0927C
:1039D000000253CF8091F100F80181938F01F1E053
:1039E000EF1AF10809F482CF8091E80085FDF2CF4B
:1039F0008091E8008B778093E8000E948002882302
:103A000099F374CF1A826B82CE0101960E94DB0279
:103A10001DCE8A81823009F446C18330A9F08130FD
:103A200009F045C02FB7F894609113027091140209
:103A300080911502909116022FBF0E94CB1E6B83BE
:103A40007C838D839E83E0CF80910B0290910C024A
:103A50009827892798279C838B8380910D029091CA
:103A60000E029827892798279E838D8380910F02C5
:103A70009091100298278927982798878F838091A3
:103A80001102909112029827892798279A8789878F
:103A9000BBCF8A81823059F46B817C818D819E817C
:103AA0000E94CB1E85E290E00E94F41EADCFD98229
:103AB000ABCF4C816B818A810E94E90A98278927C4
:103AC00098279E838D83A0CF0D811E81102701270B
:103AD00010278A81EB80E59C70011124849DE00C05
:103AE000F11C11248C8190E0880F991FE80EF91EBB
:103AF000612FC70186960E94F41E602FC70187962A
:103B0000D3CF0E94160D80CF7A827ECF2A823B824D
:103B10007BCF0A811B81102701271027CE01019638
:103B20007C01AC80FC01EA0DF11D5F01C8018A55E2
:103B30009E4FAE14BF0409F467CF0A35F2E01F07A9
:103B400050F40E94E61EF70184830F5F1F4FFFEFC2
:103B5000EF1AFF0AEBCFF7011482F7CF0A811B811E
:103B6000102701271027CE0101965C01EC80E00EA2
:103B7000F12EF11CC8018A559E4FE016F10609F49A
:103B800043CF0A35E2E01E0720F4F50164810E946C
:103B9000F41EFFEFAF1ABF0A0F5F1F4FEBCF0E945B
:103BA0006B0D32CF24E02A832FCF0A811B8110278F
:103BB00001271027CE0101967C01AC80FC01EA0DA3
:103BC000F11D5F01C8018696EA14FB0409F41CCFBD
:103BD0000038F1E01F0750F40E94E61EF7018483CD
:103BE0000F5F1F4FFFEFEF1AFF0AECCFF7011482B0
:103BF000F7CF0A811B81102701271027CE010196DC
:103C00005C01EC80E00EF12EF11CC80186960E15C9
:103C10001F0509F4F9CE0038E1E01E0720F4F50194
:103C200064810E94F41EFFEFAF1ABF0A0F5F1F4F9F
:103C3000ECCF80E00E947B0D6FEF7FEF90E080E0A3
:103C40000E94121FE1CECE0101960E94DB022FEFEF
:103C500041EE84E0215040408040E1F700C0000088
:103C60009DCC79BC82E189BD09B400FEFDCF809175
:103C7000D8008F7D8093D8008091E000826080938F
:103C8000E0008091E00081FDFCCFE0CC60E085E2C7
:103C900090E00E94F41E0E94160D0E946B0D81E0C0
:103CA0000E947B0D9BCC85E290E00E94E61E1B8269
:103CB0001C821D828E83A8CE2D32314008F09ACD11
:103CC000EFCD2D32314008F026CD7BCD78941F9278
:103CD0001FB61F9211248F939F93AF93BF93809130
:103CE000130290911402A0911502B0911602019650
:103CF000A11DB11D8093130290931402A09315028D
:103D0000B0931602BF91AF919F918F911F901FBEEC
:103D10001F9018951F921FB61F9211248F939F9387
:103D2000AF93BF938091F301811113C0809113026F
:103D300090911402A0911502B09116024196A11D16
:103D4000B11D8093130290931402A0931502B093B7
:103D50001602BF91AF919F918F911F901FBE1F9030
:103D6000189597FB072E16F4009407D077FD09D01D
:103D70000E94D21E07FC05D03EF4909581959F4F7E
:103D80000895709561957F4F0895EE0FFF1F059080
:103D9000F491E02D099469279627692778278727CA
:103DA00078270895AA1BBB1B51E107C0AA1FBB1FA0
:103DB000A617B70710F0A61BB70B881F991F5A95B7
:103DC000A9F780959095BC01CD010895F999FECF92
:103DD00092BD81BDF89A992780B50895A8E1B0E019
:103DE00042E050E00C941A1F262FF999FECF92BDA5
:103DF00081BDF89A019700B4021639F01FBA20BDB0
:103E00000FB6F894FA9AF99A0FBE08950396272FE1
:103E10000E94F51E0E94F41E252F0E94F51E242FDD
:103E20000C94F51E0196272F0E94F51E0C94F41E8B
:103E3000DC01CB01FC01F999FECF06C0F2BDE1BD6A
:103E4000F89A319600B40D9241505040B8F7089559
:103E5000F894FFCF010D010D0A0D0A0D0C0D0A0D8E
:103E60000A0D0A0D010D010D110D0A0D0A0D110D9E
:103E7000F00E180FC410180FC4104B0F6C0FC410A5
:103E80007510821099139913081408145E1478148D
:103E9000CE13CE138314591568156815021D091D1C
:103EA000491D591D641D811D571D571D571D191E84
:103EB000231E841D861D891DAE1DCF1DD21DD51D3F
:023EC000F91DEA
:103EC2001B0487085C085808460801818283E200C7
:103ED200E900EA00B500B600B700CD008301CC00CE
:103EE2008A01920194012102230224022502260260
:103EF20027022A02B300B4006F00700090919293DF
:103F02003031323394969734353666674022BC8A14
:0C3F1200016801AC009C03B503D503005E
:00000001FF
