:100000000C94D1030C9418040C9418040C94180448
:100010000C9418040C9418040C9418040C941804F0
:100020000C9418040C9418040C9474270C94302726
:100030000C946F280C9418040C9418040C94180455
:100040000C9418040C9418040C9418040C941804C0
:100050000C9418040C944B280C9418040C94180459
:100060000C9418040C9418040C9418040C941804A0
:100070000C9418040C9418040C9418040C94180490
:100080000C9418040C9418040C9418040C94180480
:100090000C9418040C9418040C9418040C94180470
:1000A0000C9418040C9418040C941804050109020B
:1000B000A10185020901A100050919012905150001
:1000C00025019505750181029501750381010501E1
:1000D000093009311581257F950275088106093897
:1000E0001581257F950175088106050C0A380215D2
:1000F00081257F950175088106C0C005010980A191
:1001000001850319012AB700150126B7009501756D
:10011000108100C0050C0901A101850419012AA064
:1001200002150126A002950175108100C005010984
:1001300006A1018505050719E029E71500250195A8
:1001400008750181020507190029EF1500250195A1
:10015000F0750181020508190129059505750191C0
:1001600002950175039101C00660FF0961A10109B3
:1001700062150026FF0095207508810209631500AD
:1001800026FF00952075089102C005010906A1010E
:10019000050719E029E71500250195087501810279
:1001A0009501750881010507190029FF150026FF33
:1001B0000095067508810005081901290595057542
:1001C000019102950175039101C00000000000003B
:1001D000000000000000000000000000000000001F
:1001E00000000000000000000000000000007E0F82
:1001F00000D4FFFFFFC700000078000000000000EF
:1002000000002A2B28000000000000000000000071
:10021000000000000029000000002C1E34202122D4
:1002200024342627252E362D3738271E1F2021223D
:10023000232425263333362E37381F0405060708B6
:10024000090A0B0C0D0E0F101112131415161718A6
:10025000191A1B1C1D2F3130232D350405060708E4
:10026000090A0B0C0D0E0F10111213141516171886
:10027000191A1B1C1D2F3130354CFD377A585A0086
:100280000004E6D6B4460200210116000000742FD7
:10029000E5A3E0026F01125D003D8889C65436C3B4
:1002A000174FE4E2A55FD4C5BF32999C6352A1F415
:1002B000B0924826C995E0872BE283A0B64BFBACF1
:1002C0007B3AB574E0AFC63BD1E7CDAE5A7125326B
:1002D000B5B234E9271905DD8C38D1B11DF7C8C78F
:1002E0005671BE8F42833A6F2EE5BD0151ABED3C96
:1002F000BED4323F5F6D7669C28CF02EE31F31565B
:10030000D4B17F3431E510D868774D46779E3426D6
:100310004876656E2F58D46B7E9F809A59D71B2CD8
:10032000FC676BD3EC19E0624A9598F3B2D0A9351B
:10033000CB93DB61825241422DAC93D252A3F22087
:10034000CE604A52356D93C7FABAAC01664EF3647B
:10035000FA224962F0E57E4BFF557EDC56952C6211
:100360002AC58C79E5069D857F825D5220BC48F9BF
:100370006E83B3B0432D3A05D49A4B76F3B08B2DF0
:1003800017A6357E1A715C4B5010D338C74434BA67
:1003900092D74E95ADAC179B93081AD25421AD72EB
:1003A000C1DCF6D7CBD1309A5278F5000000CFBC33
:1003B0007D2193D9567C0001AE02F004000058491B
:1003C000EC1BB1C467FB020000000004595A000195
:1003D0000101010101010101020202020202020205
:1003E00002030303030303030304040404040404D7
:1003F000050505050506060606060707070707089B
:10040000080808090909090A0A0A0B0B0B0C0C0C4D
:100410000D0D0D0E0E0E0F0F0F10101111111212E7
:1004200013131414151516161717181819191A1A64
:100430001B1B1C1D1D1E1E1F2020212222232424C5
:10044000252626272829292A2B2C2D2D2E2F303101
:100450003232333435363738393A3B3C3D3E3F4013
:100460004142434445464748494A4C4D4E4F5051FE
:100470005354555658595A5B5D5E5F6162646566B8
:1004800068696B6C6D6F7072737577787A7B7D7E3F
:100490008082838587888A8C8E8F91939596989A8F
:1004A0009C9EA0A2A3A5A7A9ABADAFB1B3B5B7BAA7
:1004B000BCBEC0C2C4C6C9CBCDCFD1D4D6D8DBDD7B
:1004C000DFE2E4E7E9EBEEF0F3F5F8FAFDFF2B00ED
:1004D00014001A000800150017001C0018000C007A
:1004E000120013002A000100040016000700090092
:1004F0000A000B000D000E000F0033002800E10081
:100500001D001B0006001900050011001000360038
:10051000370038000100E0000100E300280000007F
:10052000000000002C00E60029000000010035005A
:100530001E021F022002210222022302240225029F
:10054000260227024C000100310034002D002E004D
:100550002F0030005100520050004F0001000100F8
:10056000290001004600010001000100AD00AE00BD
:10057000AC00AB00E5000100E30001000100000059
:100580000000000001000100010000000100010066
:10059000010001000100010001000100240025000C
:1005A0002600270001002900310234022D022E020C
:1005B00001000100210022002300A9002800010001
:1005C0000100010001000100010027001E001F00C2
:1005D0002000AA000100010001000100010000004C
:1005E0000000000001000100010000000100010006
:1005F0000100010001000100010001003A003B0080
:100600003C003D0001002900010001000100010043
:10061000010001003E003F00400041000100E100F8
:100620001E001F0020002100220023004200430082
:100630004400450001000100E10005002C0000001D
:1006400000000000060001000100000001000100A0
:1006500001005803000002000200540300000300E0
:10066000010059030000040002003E03910605004A
:1006700001005A03000006000200400300000700CA
:10068000020056030000080001005B03000009009F
:10069000020042036C060A00020044036C060B00D1
:1006A000020046036C060C00020048036C060D00B5
:1006B00002004A036C060E0002004C036C060F0099
:1006C00002004E036C061000020050036C0611007D
:1006D000020052036C06120002005C0300001300CB
:1006E00002005E03000009025B00030100A0FA099A
:1006F0000400000103010100092111010001224051
:10070000000705810308000A090401000203000034
:1007100000092111010001222200070582032000A7
:100720000107050303200001090402000103000082
:100730000009211101000122BC00070584032000EB
:100740000A1201000200000008AEFE448802000107
:100750000203011C037600690061006C003A006628
:100760000036003400630032006200330063000092
:100770000010034D0069006E006900760061006E94
:1007800000000018034500760061006E0020005351
:1007900000610069006C006500720000000403093C
:1007A000040011241FBECFEFDAE0DEBFCDBF04B6D8
:1007B00003FE27C08091A4039091A503A091A603F6
:1007C000B091A7038730904BA740B04BD1F4109263
:1007D000A4031092A5031092A6031092A70314BEBF
:1007E00084B7877F84BF0FB6F894A8958091600086
:1007F000886180936000109260000FBEE0E0F8E333
:10080000099511E0A0E0B1E0EAEDF1E602C0059043
:100810000D92A037B107D9F723E0A0E7B1E001C0FE
:100820001D92A43AB207E1F70E9496280C947A3000
:100830000C940000E8EDF0E080818E7F80831092C0
:10084000E2001092DA001092E100A0EEB0E08C918C
:1008500081608C9380818F77808319BCA7EDB0E095
:100860008C918E7F8C9380818F7E80831092740315
:1008700008952091E4003091E50095E6A9012091CA
:10088000EC00822F817020FF06C08091E80080FF7D
:1008900006C080E008952091E80022FD1AC08091F2
:1008A000A203882389F0853089F08091EB0085FDD3
:1008B0000FC02091E4003091E50042175307F9F290
:1008C0009150E1F684E0089582E0089583E0089570
:1008D00081E00895EF92FF920F931F93CF937C01D5
:1008E0008B010E943904C82F811117C08091E80044
:1008F00085FD0BC08091E8008E778093E8000E9410
:100900003904882399F3C82F08C0F70181917F012A
:100910008093F1000150110949F78C2FCF911F915D
:100920000F91FF90EF900895CF93FC018091A20367
:10093000843001F5C091E900CF702091EC00922F36
:10094000917020FD90E8C92B82E08093E9008091AE
:10095000E80080FF0CC050E040E060E270E0CF01B2
:100960000E946A048091E8008E778093E800CF703F
:10097000C093E900CF91089580919A0387FF13C037
:100980008091E80082FF06C08091E8008B77809319
:10099000E80004C08091A2038111F2CF08958091F4
:1009A000A2038823D9F38091E80080FFF8CF8091DB
:1009B000E8008E77ECCF982F9093E900242F762FC4
:1009C00050E0891731F07091EC002091ED005091CA
:1009D000F00021FD07C09F5F973071F78093E90019
:1009E00081E008953091EB003E7F3093EB00309131
:1009F000ED003D7F3093ED003091EB00316030939E
:100A0000EB007093EC002093ED005093F0002091E8
:100A1000EE0027FDE0CF80E00895CF92DF92EF92C5
:100A2000FF920F931F93CF93DF93C8EDD0E088819F
:100A30008F7E8883E7EDF0E080818160808384E0B1
:100A400082BF81E08093740388818E7F888302EE69
:100A500010E0F80110821092DA0081EEC82ED12C3D
:100A6000F601108288818F778883888180688883E7
:100A700088818F7D888319BC1092A20310929903FC
:100A8000109298031092970390EEE92EF12CF70143
:100A900080818B7F808388818160888342E060E0F1
:100AA00080E00E94DB04F60180818E7F8083F80164
:100AB000808181608083808188608083F70180816C
:100AC0008E7F8083888180618883DF91CF911F91A1
:100AD0000F91FF90EF90DF90CF900895FC018091EF
:100AE000A0039091A10386179707A0F061157105E7
:100AF00029F49091E8009E779093E80090E06115CA
:100B0000710551F4911108C08091E80082FF34C052
:100B100080E00895BC01F2CF8091A2038823C1F147
:100B20008530C1F18091E80083FD30C08091E800FC
:100B300082FDEACF8091E80080FFE1CF8091F30051
:100B40002091F200382F6115710519F02830310518
:100B500058F091E02830310509F090E02091E8004C
:100B60002E772093E800CBCF81918093F1006150E4
:100B700071092F5F3F4FE7CF8091A203882341F097
:100B8000853041F08091E80083FFBECF81E0089579
:100B900082E0089583E008958091760308959C0192
:100BA0004FB7F89480916B0390916C03A0916D0303
:100BB000B0916E034FBF821B930B08952FB7F8942B
:100BC00080916B0390916C03A0916D03B0916E03C3
:100BD0002FBF0895209168033091690328173907C2
:100BE00071F09093690380936803E0916603F0913C
:100BF0006703309721F00084F185E02D0994089572
:100C000020916403309165032817390771F09093A0
:100C1000650380936403E0916603F0916703309766
:100C200021F00680F781E02D09940895E091660394
:100C3000F0916703309721F00190F081E02D099445
:100C400080E00895452B39F0682381E06F3F09F07B
:100C500080E08170089581E0FCCFDC016091390370
:100C600080913A03962F891301C00895292F30E00F
:100C7000F901EE0FFF1FEF5CFC4F408151814A17D5
:100C80005B07A1F487E08A9FA0018B9F500D112480
:100C900047505D4F81E0FA0184839613E6CF2F5FC2
:100CA0003F4F237033272093390308952F5F3F4F21
:100CB000922F9370D8CF1092960210929502E9EF7E
:100CC000F2E08581811102C014821682379683E09A
:100CD000E133F807B1F70895EEE3F3E084819581FD
:100CE0002AE030E0B9010E94BF2F60931101868194
:100CF00080931001828580930F01848580930E017B
:100D000086859785B9010E94BF2F60930D01808968
:100D100080930C01828980930B01848980930A015E
:100D2000089580913E0390913F0390931401809326
:100D300013010895FA01811101C0FB01099480910A
:100D40003902982F9E7F39F4809139028170826038
:100D50008093390208958430B8F708950E94DE0523
:100D60009C0190912C0280912D02982B21F03093C0
:100D700029022093280290912E0280912F02982B15
:100D800021F03093270220932602E0916603F09130
:100D90006703309749F082E080932A020480F5814E
:100DA000E02D8AE292E00994089590912C02803F10
:100DB00059F480912D0287FF0DC010922D029111E0
:100DC0000BC01092240208C0813F81F480912D0253
:100DD00018169CF3992381F080912E0290912F0296
:100DE000892B09F064C0109223020895823F49F4D0
:100DF00097FFF0CF10922C0280912D028111ECCF41
:100E0000E0CF833F19F41916ACF3E4CF20912E0202
:100E1000893F29F41216F4F610922E02DBCF8A3F96
:100E200019F427FFD7CFF8CF20912F028B3F29F459
:100E300027FFD0CF10922F02CDCF8C3F19F412167E
:100E4000CCF3C8CF843F31F480912B028E7F809306
:100E50002B02C0CF853F21F480912B028D7FF7CFED
:100E6000863F21F480912B028B7FF1CF873F21F4C5
:100E700080912B02877FEBCF883F21F480912B025A
:100E80008F7EE5CF8D3F31F4809125028E7F809358
:100E90002502A0CF8E3F21F4809125028D7FF7CFD0
:100EA0008F3F09F097CF809125028B7FF0CF089577
:100EB0008091250280FF0CC060910B0170E0759558
:100EC0006795759567956115710549F1862F0895A8
:100ED00081FF06C060910B0170E075956795F3CFB7
:100EE00060910B0182FD0BC0909123029923A1F028
:100EF00060910A0180910B01961738F0682F70E01D
:100F00006038710500F38FE70895899FC0011124AF
:100F100070E00E94D32FF4CF61E070E0D7CF81E082
:100F2000089580912502609146037091470380FFE8
:100F300016C020910F01269FC001279F900D1124FC
:100F4000BC0176956795769567956038710508F0D0
:100F500043C06115710509F441C0862F089581FFD2
:100F60000BC020910F01269FC001279F900D1124D7
:100F7000BC0176956795E9CF82FF09C080910F018A
:100F80009B01829FB001839F700D1124DECF2091C1
:100F900024022223D1F290910E0180910F01482F5B
:100FA00050E0291748F0CB01849FB001859F700D58
:100FB000949F700D1124C9CF289F90011124269F62
:100FC000A001279F500D369F500D1124692F70E00E
:100FD000CA010E94BF2FB9CF8FE7089581E008951D
:100FE000803F31F40E949107819580932D020895EE
:100FF000813F19F40E949107F8CF823F31F40E949B
:101000009107819580932C020895833F19F40E94E3
:101010009107F8CF893F29F40E94580780932E0248
:1010200008958A3F21F40E9458078195F7CF8B3F9E
:1010300031F40E945807819580932F0208958C3FC8
:1010400019F40E945807F8CF843F31F480912B02A5
:10105000816080932B020895853F21F480912B02BB
:101060008260F7CF863F21F480912B028460F1CF1C
:10107000873F21F480912B028860EBCF883F21F4D9
:1010800080912B028061E5CF8D3F31F48091250264
:1010900081608093250208958E3F21F4809125027E
:1010A0008260F7CF8F3FB9F7809125028460F1CF3E
:1010B00080E00895F894E82FE295EF70F0E031A118
:1010C000282F2F7081E090E001C0880F2A95EAF761
:1010D000982F9095932391A392A1892B82A3789422
:1010E000089590916F0392FF06C0282F2871283031
:1010F000F9F4877F846093FF06C0282F2871283178
:10110000F1F4877E84612091700320FF06C0382FA0
:1011100038713830D9F4877F816021FF06C0282FCD
:1011200028712831D1F4877E816194FD877E0895EE
:10113000282F24712430F9F68B7F8860DCCF282F8C
:101140002471243101F78B7E8861DDCF382F317116
:10115000313019F78E7F8860E0CF282F217121313F
:1011600021F78E7E8861E1CFCF93DF93EC01823847
:101170009105A9F1D8F58133910509F496C048F598
:101180008932910509F48AC08A9709F495C0C1157E
:1011900021E5D20708F0BCC0C11530E5D30708F03F
:1011A00014C1C83ED10508F09CC0C03ED10560F511
:1011B000C83AD10508F087C0C53AD10508F0FDC08E
:1011C000C130D10509F12097F9F0C430D105E0F420
:1011D00040C08533910509F45AC0C997C1F6809182
:1011E0006F03837089F0C0EED0E00EC0833E91059E
:1011F00099F170F4803E910501F1823E910539F636
:1012000080916F0382FD21C0CE01DF91CF910895BF
:10121000863E910561F1873E910571F1843E91050D
:1012200009F0B5CF8091700381FFEECF80916F03FD
:10123000C7EED0E084FD0DC0E7CF80916F0380FD45
:1012400012C19091700390FFDFCFC3EED0E084FF16
:10125000DBCFD0E0C0E0D8CF80916F0382FD06C124
:101260009091700390FDBFCF84FFCECFF2CF8091DD
:101270006F0383FDDDCFC8CF80916F0383FDF9C07D
:101280009091700391FFF0CFC4EED0E0BDCF80917C
:101290006F0385FFB9CFC9E2D0E0B6CF80916F036D
:1012A00085FFB2CFC5E3D0E0AFCF80916F0386FF5B
:1012B000ABCFCAE2D0E0A8CF80916F0386FFA4CF66
:1012C000C1E3D0E0A1CFCF3BD10518F6C85AD0E09A
:1012D000CC0FDD1FCE5DDE4F0990D881C02DD464C8
:1012E00093CFC11540E2D40758F4C11581E0D80767
:1012F00008F08ACFC03FD10508F4ABCFD06584CFCA
:10130000C11590E4D90708F4A4CFDF70D06A7CCF70
:10131000C11525E5D20700F5C11534E5D30708F05E
:101320008AC0C11543E5D40708F071C0C11582E534
:10133000D80708F467C0CE018370992721E030E018
:1013400002C0220F331F8A95E2F7C695C69580E248
:10135000C89FE001112452C0C11599E5D907A8F42E
:10136000C11528E5D20708F06BC0C11536E5D307D3
:1013700008F06FCF8C2F0E947108C82FD0E0DC2FAF
:10138000CC27CC27DF71D0623FCFC1154AE5D40707
:1013900008F45BC0CE0190568115904208F059CFF9
:1013A0008D2F8F710E94710890E0982F88278827D1
:1013B0009F719C012C2BE901E6CFC55AD0E0C15E9C
:1013C000DE4FC881D0E0D0641FCFCE01E4E0969517
:1013D0008795EA95E1F783702C2F26952695237043
:1013E00040E2249F90011124382B8C2F8370C1E0A0
:1013F000D0E002C0CC0FDD1F8A95E2F7C22BD32BC1
:10140000DC6802CFDC2FCC27C16FD06AFDCECE01C5
:101410008370992721E030E002C0220F331F8A95A4
:10142000E2F7C695C69590E2C99FE0011124C22B50
:10143000D32BDA68E9CEDC2FCC27C46FD06AE4CE98
:10144000DC2FCC27C06FD06ADFCE8C2F8F700E942C
:10145000710834E0D695C7953A95E1F7CF709C2F87
:10146000EC01D069D1CEC9E3D0E0CECEC2EED0E05F
:10147000CBCEC6EED0E0C8CE8091FC01882331F0FF
:101480001092FC011092FB011092FA0108958095D0
:101490009091F90198239093F90108951092F70122
:1014A0001092F6011092F5010895809140039091F9
:1014B0004103892B89F00E94DE052091FA013091C9
:1014C000FB01AC01421B530B81E0209140033091A2
:1014D00041034217530708F480E08170089580911A
:1014E000F90190913D03892B9091F801892B80930C
:1014F00072018091FC01882319F180914003909141
:101500004103892B29F00E94550A81110E943C0A4F
:10151000809172019091FC01892B809372018091DE
:101520001601882341F180916F0387FF24C08EE16B
:10153000E4E7F1E090E0815000F591110E943C0A4F
:10154000E0916603F09167033097E1F08091160116
:10155000882359F080916F0387FF07C08091720143
:101560008093730185E0809372010280F381E02D06
:1015700082E791E0099486E0DBCF21912223D9F222
:101580009F5FD9CF08958091F40181111092F401E9
:101590000895909116019923D1F090916F0397FFD0
:1015A00016C0E82FE695E695E695EE31E0F4F0E01A
:1015B000EE58FE4F282F277081E090E001C0880F81
:1015C0002A95EAF780959281892382830895E4E73A
:1015D000F1E09191891303C0DF0111971C9291E012
:1015E000EA37F907B1F70895909116019923C1F0F0
:1015F00090916F0397FF14C0E82FE695E695E69566
:10160000EE31F8F4F0E0EE58FE4F877021E030E064
:1016100001C0220F8A95EAF78281822B8283089586
:10162000A4E7B1E0EFEF90E02D91821751F0EF3F8A
:1016300019F4211101C0E92F9F5F9630A9F7EF3F00
:1016400009F408950E2E000CFF0BEE58FE4FE6CF66
:101650002091F3019091B201291302C080E0089516
:1016600030E0F90153E0EE0FFF1F5A95E1F7ED541A
:10167000FE4F5181561306C05081581303C052814A
:10168000541304C02F5F3F4F2770E6CF81E00895C9
:101690008091F3019091B201981301C008958F5F7A
:1016A0008770FACF9E3F49F1E82F2CE0929FE00D22
:1016B00011249E2F9770E695E695E69583E0E89FC6
:1016C000F0011124E856FE4F50E040E080E0219107
:1016D00030E0092E02C0369527950A94E2F7217072
:1016E0003327042E01C0220F0A94EAF7822B4F5FA2
:1016F0005F4F4330510559F7089580E008959E3FAC
:1017000069F1E82F2CE0929FE00D11248E2F877055
:1017100041E001C0440F8A95EAF7E695E695E69523
:1017200083E0E89FF0011124E856FE4F30E020E00E
:1017300070E05191DF011197CB01022E02C0969506
:1017400087950A94E2F78170819585278423852700
:101750008C932F5F3F4F2330310559F70895E92FC0
:10176000E295EF70E250EE3070F4F0E0E458FF4C98
:101770000C94E72F803F19F020F4883E20F481E09C
:101780000895843FE1F380E00895883EC0F3813FEF
:10179000D1F7F5CF93FB882780F9089590E080E09A
:1017A0000E94000690E080E00E94EA0510923D034E
:1017B0001092F8010E946F0A86E0EAE2F2E0DF018F
:1017C0001D928A95E9F7109224021092230210923A
:1017D00025020C94AE068093A3030C94CE0B80914B
:1017E000A303982F9670963019F488600C94EB0B35
:1017F000877FFCCF21E030E001C0220F8A95EAF715
:1018000020958091A30382230C94EB0B9091F70118
:10181000809589238093F701282F277039F4282F8A
:10182000082E000C330B9217130621F490917003CD
:1018300092FF07C08595859585950E94FA0B0C94BB
:101840004E0A089521E030E001C0220F8A95EAF7A0
:101850008091A303822B0C94EB0B9091700392FD6B
:1018600010C098E0899F90011124622B6093F701CA
:101870000E94220C0E94DE059093F6018093F501F0
:1018800008950C94220C8093FD010C94CE0B8823B8
:1018900021F00E94470A0C946F0A0895882339F0BA
:1018A0009091F901982B9093F9010C946F0A089587
:1018B000882309F452C0823871F40E94160681FF11
:1018C0004CC089E30E94F40A0E946F0A89E30E94D7
:1018D000C90A0C946F0A833859F40E94160680FFD7
:1018E0003CC083E50E94F40A0E946F0A83E5EFCFB3
:1018F000843859F40E94160682FF2FC087E40E94A4
:10190000F40A0E946F0A87E4E2CF9CEF980F913AA5
:10191000F0F290E2980F983050F4877091E001C097
:10192000990F8A95EAF7892F0E94470AD2CF9BE543
:10193000980F933020F490E080E00C94000698E536
:10194000980F973120F490E080E00C94EA05803FF6
:1019500020F00E94D5060C94AE0608959091A20343
:10196000943029F58093710370937303609372032D
:101970009093E9008FEF9091E800815095FD06C0AB
:1019800095ED9A95F1F700008111F5CF8091E8006F
:1019900085FF0DC050E040E063E070E081E793E038
:1019A0000E946A048091E8008E778093E800089591
:1019B000BC0184E00C94AE0CBC0183E00C94AE0C32
:1019C0009C0184E08093E9009FEF8091E8009150B2
:1019D00085FD06C085ED8A95F1F700009111F5CFE0
:1019E0008091E80085FF0CC050E040E066E070E0C8
:1019F000C9010E946A048091E8008E778093E80014
:101A00000895CF93DF93EC01809116018823B1F103
:101A100080916F0387FF32C060E284E08093E90029
:101A20008FEF9091E800815095FD06C095ED9A9555
:101A3000F1F700008111F5CF8091E80085FF1BC010
:101A40008091160170E050E040E0811104C050E048
:101A500040E068E070E0CE010E946A048091E800F6
:101A60008E778093E80080E2FE01A7E7B3E0019063
:101A70000D928A95E1F7DF91CF91089568E081E0BA
:101A8000CDCF81E08093E00080E28093D800109277
:101A9000C9008FE19EE40197F1F700C0000087E0E4
:101AA00090EBDC018093A4039093A503A093A6037D
:101AB000B093A70388E19CE00FB6F894A8958093B3
:101AC00060000FBE90936000FFCF019708F4089567
:101AD000EFE9FFE03197F1F700C00000F6CF809109
:101AE000390280FD12C01092310210923002109221
:101AF0003202109234021092330210923502109288
:101B000037021092360210923802509A3BB13E7F53
:101B10002BB121604FB7F89480E392E0FC01519122
:101B2000CF0168E02BB9000000C057FF3BB9550F4B
:101B3000000000C000C000C03BB900C06A9591F72A
:101B4000F2E089339F0751F74FBF8FE594E001978B
:101B5000F1F700C0000008950F931F93CF93DF9318
:101B60000EE313E0C7EAD1E0CE010E942A30F8016B
:101B700081938F012196C93CF1E0DF07A9F7C4E505
:101B8000D6E0FE0185919491009711F0FC01099532
:101B90002896F6E0CC3EDF07A1F7DF91CF911F91A9
:101BA0000F9108950F931F93CF93DF93843030F5F7
:101BB000643020F54C3010F5C42FD0E0CC0FDD1F81
:101BC00028E1629FC00DD11D112430E6839FC00D16
:101BD000D11D1124CE0187960E942A30082F10E0D3
:101BE000102F0027CE0188960E942A309801282BBA
:101BF000C901DF91CF911F910F91089590E080E08E
:101C0000F8CF462F2091900230919102232B49F476
:101C1000843038F4743028F46C3018F4672F0C9446
:101C2000D20D90E080E00895CF92DF92FF920F9363
:101C30001F93CF93DF936C010091A3038091FD016B
:101C4000082BC7E0D0E010E0FC2EC8010C2E02C02B
:101C5000959587950A94E2F780FD0CC02197A0F72F
:101C6000F12C8F2DDF91CF911F910F91FF90DF907D
:101C7000CF900895B6018C2F0E94010E0E94B408E7
:101C8000019761F3EECFCF93DF93EC010E94140E26
:101C9000BE010E94010EDF91CF910C94B408FC01AB
:101CA00086819781009721F00E94B4080C94AF0BB5
:101CB000808191810E94430EF9CF1F93CF93DF93D0
:101CC00000D000D00F92CDB7DEB749835A83898107
:101CD0009A816623B9F02223A9F00E94140E182FCE
:101CE000682F89819A810E947F0B69817A81812F77
:101CF0000F900F900F900F900F90DF91CF911F9149
:101D00000C94010E0E94520B182FEFCFFC01262FCE
:101D100086819781009739F4408151816281738176
:101D200084810C945D0E089583E290E00E942A3035
:101D3000813A89F484E290E00E942A30893159F492
:101D400085E290E00E942A3091E0843A09F090E028
:101D5000892F8170089580E0FCCFCF9384E090E0DC
:101D60000E942A30C82F82E290E00E942A30982FE9
:101D70008C2FCF9108950F931F93CF93DF930EE392
:101D800013E0C7EAD1E0CE010E942A30F801619148
:101D90008F01681719F0CE010E943E302196C93C90
:101DA000F1E0DF0781F7DF91CF911F910F91089547
:101DB000EEE3F3E0128E138E8FEA90E0918380833E
:101DC00085E0848F88E893E1938382834CE251E03D
:101DD0005583448322E330E03783268385E090E017
:101DE000918780878AE090E09387828764E170E042
:101DF000758764875787468744E650E0518B408B50
:101E000048E050E0538B428B48E250E0558B448BC6
:101E1000378B268B28EC30E0318F208F158E978FF3
:101E2000868F80E590E091A380A30E94BB0E0C9466
:101E3000AC0DCF93DF93C9E1D2E060E0CE010E9408
:101E40003E302196C11584E0D807B9F7DF91CF91D4
:101E500008950F931F93CF93DF938901843048F542
:101E6000643038F54C3028F521153C4531F420918B
:101E70008E0230918F02232BE1F0C42FD0E0CC0FE3
:101E8000DD1F98E1699FC00DD11D112490E6899F47
:101E9000C00DD11D1124612FCE0187960E943E30C6
:101EA000602FCE018896DF91CF911F910F910C94F6
:101EB0003E30DF91CF911F910F910895CF93C82F9E
:101EC0006FEF811161EA83E290E00E943E306FEF94
:101ED000C11169E184E290E00E943E306FEFC111D0
:101EE00064EA85E290E0CF910C943E30CF93C091AC
:101EF0007003C2FB992790F9981781F080FBC2F913
:101F0000C093700360916F0384E090E00E943E30C4
:101F10006C2F82E290E0CF910C943E30CF910895E7
:101F20007F928F929F92AF92BF92CF92DF92EF9269
:101F3000FF920F931F93CF93DF93CDB7DEB72A970E
:101F40000FB6F894DEBF0FBECDBFA0908E02B0904A
:101F50008F0281E090E090938F0280938E028EEC4E
:101F6000C82E84E0D82E00E0760110E015C0F40100
:101F700025913491472D612F802F0E94290F82E0F7
:101F8000880E911C73949CE07912F1CFE8E1EE0E7B
:101F9000F11C1F5F143019F04701712CE8CF0F5F5F
:101FA000F0E6CF0ED11C0430F9F60E94D80ECE0117
:101FB00001967C018AE0F70111928A95E9F709EC14
:101FC00011E04AE050E0B801C7010E946230065FAC
:101FD0001F4F0931F2E01F07A1F7B0928F02A092C4
:101FE0008E022A960FB6F894DEBF0FBECDBFDF91EA
:101FF000CF911F910F91FF90EF90DF90CF90BF9006
:10200000AF909F908F907F90089580E00E945E0F28
:1020100060E086E290E00E943E300E94900F0E94B5
:10202000190F81E00C945E0F1092F9018091160156
:10203000E4E7F1E0882359F080916F0387FF07C040
:102040008EE1DF011D928A95E9F70C94CE0B86E0B4
:10205000F8CF1F93CF93DF93CDB7DEB7AA970FB614
:10206000F894DEBF0FBECDBF8AE993E02091F10066
:10207000DC012D93CD01B3E0823A9B07B9F7809143
:102080009B03833009F471C0B8F4813009F448C06F
:10209000823009F4B2C08091E80083FF3AC1809198
:1020A0009A0390919B039A3008F033C1E92FF0E036
:1020B000E657FF4C0C94E72F8A3009F48DC08B3023
:1020C00009F470C0893039F780919A03813219F789
:1020D00080919E0390919F03009711F00297D9F68B
:1020E0008091E800877F8093E8008091E80082FF7C
:1020F00037C09091F3008091F200029729F480910B
:10210000F1008B7F813021F48091F1008093760380
:102110008091E8008B778093E8000E94BC04BBCFDD
:1021200080919A03813A09F0B6CF8091E800877FC9
:102130008093E80080919E0390919F03892B61F426
:1021400060E287E793E070E00E946E058091E8000E
:102150008B778093E8009FCF60E090E080E0F3CF42
:102160008091A2038111C1CF96CF80919A03813AC9
:1021700009F091CF80919E0390919F03892B09F0E4
:102180008ACF8091E800877F8093E8008091E80003
:1021900080FFFCCF809116018093F1008091E800D0
:1021A0008E77B9CF80919A03813209F074CF8091F4
:1021B0009E0390919F03892B09F06DCF8091E800D9
:1021C000877F8093E8000E94BC0480919C038093E9
:1021D00016010E9414105FCF80919A03813209F09A
:1021E0005ACF8091E800877F8093E8000E94BC046A
:1021F00080919D03809375034ECF80919A03813A1D
:1022000009F049CF8091E800877F8093E8008091B2
:10221000E80080FFFCCF80917503BECF803899F035
:10222000823809F076C080919E038F70873008F065
:1022300070C08093E9008091EB0085FB882780F9CE
:102240001092E90006C08091970390919803911134
:1022500082609091E800977F9093E8008093F1006E
:102260001092F1008091E8008E77C0C1882309F4B4
:10227000ADC1823009F04DC080919C038111B1C184
:1022800080919E038F702FEF280F263008F041C0F9
:102290008093E9002091EB0020FFA3C1933031F43B
:1022A0008091EB0080628093EB009BC19091EB00EA
:1022B00090619093EB0021E030E001C0220F8A95FD
:1022C000EAF72093EA001092EA008091EB00886020
:1022D000EACF81111EC010919C031F778091E3000B
:1022E0008078812B8093E3008091E800877F809342
:1022F000E8000E94BC048091E80080FFFCCF809140
:10230000E30080688093E30082E0111183E0809312
:10231000A2038091E80083FF0AC08091E800877FD4
:102320008093E8008091EB0080628093EB00AA9696
:102330000FB6F894DEBF0FBECDBFDF91CF911F91D6
:1023400008958058823028F720919C0330919D0396
:102350002C3DE3E03E07A1F583E08A838AE289838E
:102360004FB7F894DE01139620E03EE051E2E32FF0
:10237000F0E050935700E49120FF03C0E295EF7026
:102380003F5FEF708E2F90E0EA30C0F0C7968D93DC
:102390009D932F5F243159F74FBF8091E800877FCD
:1023A0008093E8006AE270E0CE0101960E946E051B
:1023B0008091E8008B778093E800ABCFC096E7CFA1
:1023C00080919E0390919F03432F552743305105E1
:1023D00009F44AC078F54130510509F485C08BE510
:1023E00090E0E6EEF6E04230510509F092CF209100
:1023F000E800277F2093E8002091A0033091A103FB
:102400008217930708F49C0140E02115310509F07B
:1024100070C041116EC08091E80082FDC9CF8091EB
:10242000A203882329F2853019F28091E80083FF06
:10243000F2CFBECF4132510509F447C042325105B7
:1024400009F067CF8330910508F063CFFC01EE0FF0
:10245000FF1FED59FE4F0190F081E02D805A9E4FF5
:10246000DC018C9190E01DC0332721303105E9F06B
:102470002115310579F022303105F9F0233031058D
:1024800009F047CFE3E5F7E0E4918E2F90E0E3E534
:10249000F7E007C0EDE9F7E0E4918E2F90E0EDE979
:1024A000F7E0009709F435CFA2CFE3E8F7E0E49135
:1024B0008E2F90E0E3E8F7E0F4CFE1E7F7E0E49176
:1024C0008E2F90E0E1E7F7E0ECCF8330910508F044
:1024D00020CF880F991FFC01E759FE4F0190F08132
:1024E000E02D89E090E083CF82E190E0E1E4F7E045
:1024F0007ECF8091A203882309F45ACF853009F456
:1025000057CF8091E80083FD53CF8091E80082FD92
:1025100082CF8091E80080FF78CF9091F300809186
:10252000F2002115310519F08830910550F041E095
:10253000089709F040E08091E8008E778093E800EA
:1025400064CF44914093F1003196215031090196B6
:10255000E8CF803809F0DDCE8091E800877F809356
:10256000E800809199038093F1007CCE8111D1CE57
:1025700010919C03123008F0CCCE8091E800877F48
:102580008093E800109399030E94BC04112311F07A
:1025900084E005C08091E30087FDFACF81E080935D
:1025A000A20342E061EC81E00E94DB0442E261ECC4
:1025B00084E00E94DB0442E261EC82E00E94DB04E2
:1025C00042E260EC83E00E94DB04A3CE80919C0396
:1025D000813009F09ECE81E0933009F080E0809355
:1025E00098031092E9008091E800877F8093E800CB
:1025F0000E94BC048ECECF92DF92EF92FF920F9397
:102600001F93CF93DF93CDB7DEB72A970FB6F89419
:10261000DEBF0FBECDBFEEE3F2E080E5DF011D922D
:102620008A95E9F7E9EFF2E088E3DF011D928A95E8
:10263000E9F78EE3C82E82E0D82E7F0109EC11E085
:10264000F701D182C0824AE050E0B801CE01019684
:102650000E941A3088E0FE013196D60101900D9259
:102660008A95E1F789859A85D70113969C938E9375
:102670001297BAE0CB0ED11CE7E0EE0EF11C065F1C
:102680001F4F0931F2E01F07D9F62A960FB6F894CA
:10269000DEBF0FBECDBFDF91CF911F910F91FF9095
:1026A000EF90DF90CF900895CF92DF92EF92FF925C
:1026B0006B017C010E949F06B701A60188E090E0B3
:1026C000FF90EF90DF90CF900C9450308F929F92BC
:1026D000AF92BF92CF92DF92EF92FF920F931F9330
:1026E000CF93DF93D82FC62FD42E822EC0903902DD
:1026F000C0FEB7C08C2D8E7F8230F9F4E42FF0E05D
:10270000E253FC4F611138C02491F22FE22FC0FE3A
:1027100014C0E093310220933002F0933202E09330
:10272000340220933302F0933502E0933702209372
:102730003602F09338020E946F0DD0933A02C09394
:102740003B02D0923C02882009F48BC06091390290
:1027500070913A0280913B0290913C02DF91CF91BF
:102760001F910F91FF90EF90DF90CF90BF90AF90AF
:102770009F908F900C945413E62EF12CE4919E2E92
:102780000E2F10E026E0D29FC00111242FEF30E081
:10279000B9010E94BF2F8D2F90E0880F991FF5E59A
:1027A000F69FA001F79F500D1124841B950BB82EA6
:1027B000BB0CB80EA9014E195F09409FC001419F93
:1027C000900D509F900D1124F92FCB9DA001112445
:1027D000452F5527D901A41BB50BA09FA001A19F90
:1027E000500DB09F500D1124D901AB19B1095D01F5
:1027F000AE9CD001AF9CB00DBE9CB00D1124AB2F90
:10280000BB272A1B3B0B209FD001219FB00D309F7F
:10281000B00D11242B2F62307105A1F050F4611519
:10282000710509F474CF6130710581F0292FF52FFE
:102830006ECF6430710569F080F06630710509F47F
:1028400066CFF4CF2E2FE92FFB2F61CF2E2FE52F50
:102850005ECF292FFE2FEB2F5ACFE92FF92D252FF1
:1028600056CFDF91CF911F910F91FF90EF90DF90A6
:10287000CF90BF90AF909F908F900895E9E3F2E0E2
:10288000438121E1421B08F440E021E06281818123
:102890000C946613E9E3F2E0438121E1420F08F46E
:1028A0004FEF21E0628181810C946613E9E3F2E04D
:1028B000628121E1621B08F460E021E043818181B3
:1028C0000C946613E9E3F2E0628121E1620F08F4FF
:1028D0006FEF21E0438181810C946613E9E3F2E01C
:1028E000818121E04381628188500C946613E9E381
:1028F000F2E0818121E043816281885F0C9466135C
:1029000080913D02882319F0815080933D026091AF
:10291000390270913A0280913B0290913C020C94F2
:10292000541380913D02833018F48F5F80933D02F1
:102930006091390270913A0280913B0290913C0281
:102940000C9454138091390280FF19C08170826009
:1029500080933902662351F06091390270913A02F6
:1029600080913B0290913C020E94541320E04091E0
:102970003C0260913B0280913A020C9466130895E8
:10298000809139028695815009F481E061E00C94D0
:10299000A21461E081E00C94A214E9E3F2E083E088
:1029A000808311828FEF828383831482608171819F
:1029B000828193810C9454136AEE7EEF90E080E064
:1029C0000E945C3060E082E090E00E943E3060E077
:1029D00083E090E00E943E301092FD0160E084E0D0
:1029E00090E00E943E3060E082E290E00E943E3043
:1029F00060E085E090E00E943E3060E086E090E09C
:102A00000E943E306FEF87E090E00E943E3040E051
:102A100050E0BA0188E090E00E94503060E08DE024
:102A200090E00E943E3040E050E0BA0188E190E042
:102A30000E94503060E087E190E00E943E3040E02C
:102A400050E0BA018CE190E00E94503070E060E00C
:102A500080E290E00E945C3040E050E0BA0188E102
:102A600090E00E94503080E00E945E0F0E940510AE
:102A700040E050E0BA018FE090E00E94503040E02A
:102A800050E0BA0183E190E00C945030EBEFE80F96
:102A9000EF3308F072C0F0E0EC56FF4C0C94E72FD7
:102AA0000E94DC1481E0089580912202807F80934F
:102AB000220281E080932102089580918E029091FC
:102AC0008F02892B79F30E9414102FEF84E39CE08E
:102AD000215080409040E1F700C000000E94410D6D
:102AE00090912202892F8E7F90FF81608093220235
:102AF00080FDD8CF817F80932202D4CF9091220293
:102B0000892F8D7F91FF82608093220281FFCACF3F
:102B1000809122028160EFCF90912202892F8B7FDA
:102B200092FF84608093220282FDF2CFBBCF90910E
:102B30002202892F877F93FF88608093220283FD82
:102B4000E7CFB0CF0E94141090916F03892F97FBAD
:102B500087F9805880936F03A5CF81E00E94430CD2
:102B60000E9414109FCF895391E001C0990F8A955C
:102B7000EAF7892FF3CF8D51F7CF80E00895CF93F7
:102B8000C82F882309F4ABC08238C1F40E9416060E
:102B900081FDA5C089E30E94F40A0E946F0A2FEF0D
:102BA00081EE94E0215080409040E1F700C00000A9
:102BB00089E30E94C90ACF910C946F0A8338A1F46B
:102BC0000E94160680FD8BC083E50E94F40A0E94D5
:102BD0006F0A2FEF81EE94E0215080409040E1F7A2
:102BE00000C0000083E5E5CF8438A1F40E941606FA
:102BF00082FD75C087E40E94F40A0E946F0A2FEFDD
:102C000081EE94E0215080409040E1F700C0000048
:102C100087E4CFCF8CEF8C0F813A08F0E5C080912C
:102C200021028130B9F1882359F1823009F44DC075
:102C30001092210280911601882309F4C6C0809168
:102C40006F0387FFC2C0EC2FE695E695E695F0E0AE
:102C5000EE58FE4F828190E04C2F477021E030E02B
:102C600002C0220F331F4A95E2F782239323892B58
:102C700009F4B6C08C2F0E94C90A0E946F0AB0C026
:102C80008091F9018232B1F68C2F0E944615811194
:102C900026C0D0CF8091F9018232B1F3C43171F0F6
:102CA00038F4CB3049F0C03161F080E08170EFCF73
:102CB000C93221F0C833C9F781E0F8CF1092210260
:102CC000F4CF82E080932102F7CFC93209F43FC0EC
:102CD000E8F4C431E1F128F4C73009F45BC0CF91C6
:102CE000089582EE8C0F8A30D0F7CD51C0939701B2
:102CF000C33009F446C0B0F5C13009F43FC080E1EB
:102D000091E0C230B1F110929701E9CFC03509F4DA
:102D100054C0B8F48AE0CF3411F7E0919501F091F6
:102D200096013097E1F22081082E000C990B820F5A
:102D3000911D8F3F910509F00CF443C08FEF808304
:102D4000CECFC135E1F181E0C23539F3C8CF8091F2
:102D50009701882321F21092970110929601109208
:102D60009501BDCFC53099F078F08AE091E0C6308A
:102D700051F69093960180939501B1CF81E191E056
:102D8000F8CF8FE091E0F5CF8EE091E0F2CF8BE0CD
:102D900091E0EFCF8EE18093110182E380931001E7
:102DA0008AE080930F0184E180930E0188E0809394
:102DB0000B0188E280930A0192CF86EFAECF8FEFAE
:102DC000ACCF97FFBCCF10828ACFE4E7F1E08AE76F
:102DD00091E02191C21709F44DCF8E179F07C9F7D3
:102DE0008C2F0E94F40AE7CE80E28C0F883068F4C2
:102DF000C77021E030E001C0220FCA95EAF7809148
:102E0000F901822B8093F901D6CEEBE5EC0FE3308C
:102E100040F4F0E0E15EFE4F808190E0CF910C94B1
:102E20000006E8E5EC0FE73150F4F0E0EE0FFF1F8D
:102E3000EE5DFE4F80819181CF910C94EA05C03FF9
:102E400008F44DCF8C2F0E94F007CF910C94AE0662
:102E5000FF920F931F93CF93DF938C01EB01F42E1E
:102E60008091150182FF45C08B7F80931501809171
:102E700060032091620330916303AB01421B530B4B
:102E80009A01409113015091140124173507B8F4A9
:102E90000E94BF15809115018D7F8093150180914F
:102EA0005C0390915D030E94650D809160030E9418
:102EB000580C80913D038D7F80933D0324C09091F9
:102EC0003D03926090933D030E94BF1580911501D0
:102ED0008260809315018091590385FFE0CF86FDC4
:102EE000DECFFF20E1F2DF91CF911F910F91FF9094
:102EF0000895802F0E94580C809160039091610387
:102F000080179107B1F20E946F0AD0936303C093B8
:102F10006203E9CF1F93CF93DF93182FC0915E0315
:102F2000D0915F03893321F0C0915C03D0915D03A0
:102F3000812F0E94BF15209731F4812FDF91CF910F
:102F40001F910C94580C8FE99FE00197F1F700C096
:102F500000002197F0CF0F931F93CF93DF93C42FDF
:102F6000D22FFC0182818823A1F0409394020E9419
:102F7000DE059093930280939202C77081E001C0B6
:102F8000880FCA95EAF7DF91CF911F910F910C94AA
:102F90004E0C10919402141339C0809192029091BA
:102FA00093020E94CF052091560330915703821758
:102FB000930760F5C0E2CD0F1D17B9F080E2810FD5
:102FC000883040F4177081E001C0880F1A95EAF745
:102FD0000E94470CC83048F481E09D2F977001C0D3
:102FE000880F9A95EAF70E944E0C802F0E948A174C
:102FF000C83098F4D77081E001C0880FDA95EAF7FD
:10300000DF91CF911F910F910C94470CC77081E015
:1030100001C0880FCA95EAF7F3CFDF91CF911F91D6
:103020000F910895AF92BF92CF92DF92EF92FF92ED
:103030000F931F93CF93DF93EC018AE0A82E288192
:10304000222309F48CC02130C9F599818A819130FD
:1030500021F422960E948A1705C0923029F4229604
:103060000E94BF152196EBCF933021F422960E9447
:10307000580CF8CF943011F02196F4CF229630E01E
:1030800020E0AE014F5F5F4F8053990B8A3091056E
:1030900050F02150310930F38FE99FE00197F1F7AB
:1030A00000C00000F6CFA29EB001A39E700D1124B7
:1030B0009C01260F371F8981EA01E3CFE22FF0E060
:1030C000E650FE4FB490822F86958695869590E0C7
:1030D000FC01E651FE4FE4902770F12C022E02C055
:1030E000F594E7940A94E2F731E0E322FF24FC012F
:1030F000E652FE4FC490D12C022E02C0D594C79444
:103100000A94E2F731E0C322DD24FC01E653FE4FCE
:10311000049110E002C0159507952A95E2F7017019
:103120001127E114F10419F081EE0E94BF15C114BA
:10313000D10419F086EE0E94BF158B2D0E948A17CC
:10314000CD2819F086EE0E94580CEF2819F081EE78
:103150000E94580C012B09F485CF8CE27BCFDF91C4
:10316000CF911F910F91FF90EF90DF90CF90BF9084
:10317000AF9008958F929F92AF92BF92CF92DF92BD
:10318000EF92FF920F931F93CF93DF9300D000D065
:10319000CDB7DEB77C01FC01438154816181808120
:1031A0000E942206811126C061E0C7010E94860E9E
:1031B0008C01F7018281882309F4F1C5C80182518D
:1031C0009F45409708F087C58FEF93E00E942A3013
:1031D0004EEED42ED00E09E112E0882341F1809109
:1031E000F701877039F0F7018281882319F082E0B6
:1031F0000E94060C0F900F900F900F90DF91CF91CF
:103200001F910F91FF90EF90DF90CF90BF90AF9004
:103210009F908F9008950115F4E01F0701F3C801F6
:103220000E942A30811101C0DA940F5F1F4FD11024
:10323000F2CF19821A821B821C82CC24CA944801C4
:103240002FEF821A920AC8010E942A3089831A82BB
:10325000882329F2813009F048C0580132E0A30EDA
:10326000B11CC4010E942A30982E8A83882309F455
:10327000B6CFC5010E942A30D82E8FEF890D83303A
:1032800068F4580143E0A40EB11CDB82DD2021F07C
:10329000CE0101960E9412188501D1CF54E09512FB
:1032A000FBCF580184E0A80EB11CC80103960E9410
:1032B0002A30DD2009F493CF882309F490CF815080
:1032C000990BC89E9001C99E300D1124ED2DE1503F
:1032D000FF0BCF01820F931F0197F0F2EFE9FFE0A0
:1032E0003197F1F700C00000F7CFCE0101960E94A0
:1032F00012185401D1CF81E00E94220C0E94EF0BE2
:103300006ECF81E00E94FA0BF9CF82E0F5CF809179
:103310001501816080931501F7013281332309F48F
:103320004AC5109294020230FCE51F0708F475C5E7
:1033300006312CE5120730F0C8018A5F9C450997D9
:1033400008F06BC50E94AD0E9093700380936F03DD
:1033500000313CE5130709F470C108F001C10830E1
:103360005CE5150709F45BC108F0D0C004309CE5AA
:10337000190709F44CC108F0B6C00230FCE51F077C
:1033800009F43FC180916F03826003301C4509F44A
:103390003BC160916F031091700384E090E00E9444
:1033A0003E30612F82E290E00E943E300E94141075
:1033B00016CF809115018E7FADCF0933110560F4D2
:1033C0000D32110520F40B32110509F0C9C48091AA
:1033D000590382FDC5C408C004361105C1F3C0C439
:1033E0008091590384FDBCC4F7018281882309F4CC
:1033F00046C08091150180FFB3C49091590391FD9F
:1034000004C02091F9012111ABC495FF27C0209180
:10341000620330916303A601421B530B9A0196FD90
:1034200002C081FD1BC0283C3105C0F4209160031F
:10343000309161030217130789F481FD09C0802FC1
:103440000E94BF15CCCE8091590383FD89C4CCCF97
:1034500080913D03826080933D03F1CF109361031F
:1034600000936003D0926303C092620380911501C0
:1034700084608093150182E00E94060CB0CE40E08B
:10348000B601C8010E942817AACE053F2CE51207F5
:10349000F1F0B8F0063F4CE5140709F03DCF07E224
:1034A00025EE46EE66EF7CE576C407E225EE45EEB6
:1034B00068ED7CE570C406E221EE40EE63EF7CE54A
:1034C0006AC407E225EE44EE64EF7CE564C406E2DC
:1034D00021EE42EE65EF7CE55EC408E221E045EEB8
:1034E00069ED7CE558C480916F03806106303CE54E
:1034F000130709F489C080916F03886007301C4569
:1035000008F482C080916F0380627EC080916F0357
:103510008D7F0C305CE5150709F476C070F480915E
:103520006F038C600A309CE5190709F46DC008F43C
:103530007AC080916F038E7F67C080916F03877F11
:103540000E30FCE51F0709F45FC080916F038B7F8D
:103550000F301C4508F458C080916F038F7E54C013
:103560000B3F3CE5130709F456C030F503315CE529
:10357000150709F46AC078F401319CE5190709F4CC
:1035800060C002311C4509F004CF0E9414108091E4
:103590006F038F7739C00531FCE51F0709F45DC063
:1035A00008F471C08091700381600A3F1C4509F0E6
:1035B000F0CE80937003EDCE0F3F4CE5140709F475
:1035C00048C070F40D3F8CE5180799F180917003A5
:1035D0008E7F0E3F1C4568F3809170038360E9CFB6
:1035E0000130EDE51E0709F457C008F442C060E061
:1035F00002301D4509F0CDCE8EE090E00E943E30B5
:10360000C8CE80916F03816080936F03C2CE80919A
:103610006F038460F9CF809170038260CACF80917C
:103620006F038064F1CF0E94141080916F03806853
:10363000EBCF809170038D7FBCCF80916F038F7D26
:10364000E3CF80916F038F7BDFCF80916F03837F08
:10365000DBCF809170038C7FACCF80916F0382FBB6
:10366000992790F921E0922790FB82F990FB83F94A
:10367000CBCF80917003982F909591708E7F892B7E
:1036800090FB81F996CF0E94141090916F03892FBF
:1036900097FB87F98058B8CF61E0AECF8091920157
:1036A000811104C089E20E94C90AB4C385E3FBCF3B
:1036B00046E554E162E674E1073C3CE5130709F492
:1036C00055C008F460C042E654E166E574E14EC0BE
:1036D0000D3C5CE5150709F460C0A8F440E854E12E
:1036E00061E974E10B3CECE51E0709F43FC04AE4D4
:1036F00054E16EE374E10C3C1C45C0F141E954E136
:1037000060E874E133C0063D2CE5120708F467CD8C
:103710000D35100709F463CDA1C38091390280FFF4
:1037200019C08E7F809339026091390270913A02FC
:1037300080913B0290913C020E9454134FEF50E75E
:1037400082E0415050408040E1F700C000000E94FC
:103750006F0D45CD81608093390261E086950E94AE
:10376000A2143DCD40EC54E169EC74E10E949A064C
:1037700036CD49EC54E160EC74E1F8CF4EE654E10B
:1037800067E774E1F3CF47E754E16EE674E1EECF0B
:103790004EE354E16AE474E1E9CF61E081E0DFCF18
:1037A0000B353DE5130701F10C351D4509F066C3E6
:1037B0008091700382FB882780F991E089270E941D
:1037C000760F5CC30E9414105FEF84E39CE05150BD
:1037D00080409040E1F700C000000E94410D0E942F
:1037E000DC14FDCC81E0EBCF80E0E9CF8281008169
:1037F0001181882369F0C8010E94140ED82E682F09
:10380000C8010E947F0BB8018D2D0E94010E3CC3A0
:10381000C8010E94520BD82EF6CF202F2F70B22E47
:10382000802F807F19F0B29490EFB922CC20C9F09C
:10383000BB2069F080E2810F883010F011110BC0BD
:103840008091F901B82AB092F9010E946F0A812F84
:103850000E94BF1516C080913D03B82AB0923D0367
:10386000F4CF812F0E94580CBB2059F080E2810FC9
:10387000883010F0111132C08B2D0E94470A0E942F
:103880006F0AE92DE850FF0B349710F40E941606DA
:10389000812F902F0E94AF0B8111FEC110929401D5
:1038A00010929301AA20A9F08091F70180FD11C028
:1038B000F70112828595859585950E94220CC70196
:1038C0000E94BA188091F7018595859585950E948B
:1038D000FA0B60E0C7010E94860E8CCCB0948091F8
:1038E0003D03B822B0923D03CACF302F3F70B32EB4
:1038F000802F807F803219F0B29480EFB82211239C
:10390000E9F0113009F466C0CC2009F46FC0DD2065
:1039100009F441C020E0F701408151816281738147
:1039200084810E945D0E80915B0381FD90CFF70141
:10393000858180FF8CCF8F7085832DC0CC2069F16D
:10394000D11006C08091FC018B290E944E0C99CFAA
:1039500041E0D41213C08091700382FD92CF809118
:10396000FC01B82AB81609F48CCF0E94DE059093AA
:10397000FB018093FA01B092FC0183CF80915A033E
:10398000823000F3D812DECF0E943C0A8091F4010D
:10399000B812B092F4018B2DD8CFD11006C00E947E
:1039A0003C0A8B2D0E94470C6CCF80915A0351E04A
:1039B000D5120BC0823008F464CF8091F9018B21BD
:1039C00009F45FCF0E94C30AEACF823040F3D812D5
:1039D000E6CF57CFCC2029F085E08D1508F451CFE4
:1039E000DACF94E09D1508F44CCFDBCFDD20C9F28F
:1039F00080915E0390915F03193321F080915C0305
:103A000090915D030E94650D812F0E94580C39CF63
:103A1000802F86958695837069F0813009F031CFCB
:103A2000812F902F9370C11002C090E080E00E941F
:103A3000EA0527CF812F902F9370C11002C090E02C
:103A400080E00E9400061DCF812FCC2039F00E941B
:103A5000F0070E94AE060E94AE0613CF0E94D50664
:103A6000FACF802F837091F5C1100BCF412F429573
:103A700046954770440F440F812F8F70042E01C06C
:103A8000880F0A94EAF7212F207114FF07C02FE056
:103A900030E001C0220F4A95EAF72095302F369585
:103AA00036953370323069F050F44091FD01313079
:103AB00029F0822B84230E94430CE3CE842B822B9B
:103AC000FACF282B8091FD018227F5CF8695CC2057
:103AD00011F0802F8170882309F4D3CE412F4295B5
:103AE00046954770440F440F812F8F70042E01C0FC
:103AF000880F0A94EAF7212F207114FF07C02FE0E6
:103B000030E001C0220F4A95EAF72095302F369514
:103B100036953370323069F050F44091A303313060
:103B200029F0822B84230E94EB0BABCE842B822BBB
:103B3000FACF282B8091A3038227F5CFF02FFF70B7
:103B4000BF2ECC2029F08F2F0E94220C812FFDCE7A
:103B5000812F0E94470C8B2D0E94FA0B92CE123FB0
:103B600009F44AC060F4103F41F1113FE9F1CC2063
:103B700009F48DC0D1106BCE802F8F713AC0133FE6
:103B800009F43FC0143F99F720915A03223008F4FA
:103B900066C08091F401CC2009F44EC00E94470A0F
:103BA0008091F70187708430C1F50E944E0A802F02
:103BB0008F710E94FA0BA12C64CECC2081F024E0FE
:103BC0002D1508F45ECE202F2F7181E090E001C00A
:103BD000880F2A95EAF79091A3038927A4CF35E0AF
:103BE0003D1508F44ECEEFCF802F8F71CC2009F415
:103BF000B3CF0E94220C45CE802F8F71CC20C9F309
:103C0000ABCF80E0CC2009F48ECF81E0902F9F7164
:103C100001C0880F9A95EAF786CF80915A03D8168B
:103C200050F6402F4F71B42E842F0E94220C63E077
:103C30008B2D0E942D0CBFCF9091F901982B909362
:103C4000F901D21640F00E944E0A0E94C30A64E0B5
:103C5000802F8F71EECF81E00E94060CACCFCC207C
:103C600059F0502F5F71B52E852F0E94220C63E012
:103C70008B2D0E942D0C05CE81E00E94060C81E068
:103C80008D1508F0FECD82E00E94060CFACDD11011
:103C9000AFCE802F8F7160CFCC2019F0D110FECD28
:103CA00001CED110FBCD20E0F7014081518162812E
:103CB000738184810E945D0E80915B0383FFEECD52
:103CC0008091930190919401029709F0E7CD812FA3
:103CD0000E948A17E3CD0031FFE51F0709F40BCBE3
:103CE00001312FE5120709F410CB8091590380FFB1
:103CF00037C00E94DE056C01F7018281882321F123
:103D00008091150182FF06C040E0B60190E080E09E
:103D10000E94281780913D038D7F80933D030B31D6
:103D2000FCE51F0709F4F3CA0C312CE5120709F46E
:103D300040CB90911501892F8E7F90FF81600A31D1
:103D40003CE5130709F4E6CA0832110508F035CB43
:103D50000E31110508F077CB0430110508F040CB87
:103D6000033F5CE5150709F4A6CB08F08ECB083DB0
:103D70009CE5190709F499CB093DECE51E0709F408
:103D8000ACCB073DFCE51F0709F0C6CA06E221EEF1
:103D900041EE67ED7CE5C7010E94AB1720CA0031F8
:103DA0003FE5130709F4ADCA01314FE5140709F0E7
:103DB0009CCF82E0A7CA06311C4509F05FC0809104
:103DC000F901982F9A7A2091580320FF04C0482FB8
:103DD000447409F090E021FF04C0482F417109F0BC
:103DE00090E022FF04C0482F487809F090E023FFBC
:103DF00003C0827209F090E0332309F44FCC81E0D4
:103E0000911101C080E08093920189E2911185E3D4
:103E10000E94F40A0E946F0AE2C906318CE5180775
:103E200071F28091F9018272093C3CE5130709F4B3
:103E3000AFCC08F04DCC053C5CE5150709F49ECCF1
:103E400008F036CC033CECE51E0709F48BCC08F0F7
:103E500090CC023C2CE5120709F45FCC0A359DE5B5
:103E6000190709F4BFCC08F09BCC0115FCE51F072E
:103E700009F4A8CC0E3D1C4509F4B1CCF7018681AC
:103E80009781009709F4B2CC0E94B408182F092F2B
:103E9000F701C280D580D2943FE0D3228091F70110
:103EA0008770A1F0AC2CCC2091F0892F807F8034DA
:103EB00021F080E2810F883048F082E00E94060CF9
:103EC0008091F7018770AA24A3948111A12C902ED0
:103ED00092942FE09222FBE0F91508F4D2CCE92D60
:103EE000F0E0ED52FF4C0C94E72FCF92DF92EF926F
:103EF000FF920F931F93CF93DF938091AF01807F49
:103F000031F48091AC01C091F30181110BC0DF91BC
:103F1000CF911F910F91FF90EF90DF90CF90089578
:103F20002196C7708091B2018C1789F3F090AA0195
:103F3000E090AB01C090AD01D090AE01A6016E2D16
:103F40008F2D0E942206D0E08111EACF8E0183E0FE
:103F5000000F111F8A95E1F7F801ED54FE4F8181A2
:103F60008E11DECF80818F11DBCF82818111D8CF7E
:103F7000E380F480EC18FD0860E08AEA91E00E949A
:103F8000860E8091560390915703E816F90640F685
:103F90008091AF018F7080618093AF01F801E85488
:103FA000FE4F80818F70806180838AEA91E00E9459
:103FB000BA18DF91CF911F910F91FF90EF90DF9092
:103FC000CF900C94480B5F926F927F928F929F924A
:103FD000AF92BF92CF92DF92EF92FF920F931F9317
:103FE000CF93DF93CDB7DEB765970FB6F894DEBFFA
:103FF0000FBECDBF8C0185E0F801DE015196019026
:104000000D928A95E1F7D8011296EC908AEAA82ED3
:1040100081E0B82E8090AD019090AE01A401609136
:10402000AB018091AA010E9422068111EAC1F80128
:10403000C380D480F090AC01C601881999094C0165
:10404000FF2009F47AC15080618060E0C5010E94C0
:10405000860E80915603909157037090AF01881699
:10406000990608F01DC14091AD015091AE01B0908C
:10407000AA01A090AB01872D807F6A2D09F0B7C0FF
:104080008B2D0E942206FE2C811139C0D801119679
:104090008C9111978A1133C08C918B1130C0209173
:1040A000B0013091B10116968D919C912817390776
:1040B00031F5E11024C0872D8F7080618093AF01AE
:1040C0008AEA91E00E94BA188091AF01F8018583D5
:1040D0008F2D65960FB6F894DEBF0FBECDBFDF9172
:1040E000CF911F910F91FF90EF90DF90CF90BF90F5
:1040F000AF909F908F907F906F905F90089560E059
:104100008AEA91E00E94860E8091560390915703AF
:10411000843F9140F8F0A601662D852D0E9422066D
:1041200081114CC081E08E2580FF1DC04E2D662D73
:10413000852D0E94280B8823B1F08AEA91E00E9425
:10414000BA1888E0EAEAF1E0DF011D928A95E9F702
:10415000F12CBECF60E08AEA91E00E94860E809149
:104160005B0380FDD8CFA601662D852D0E94220617
:10417000811126C081E08E25B82FB170CB2E80FF33
:104180002DC04E2D662D852D0E94280BD82E811115
:1041900025C0598A6A8A89899A890E94430E292FE3
:1041A00022952F70223070F0243098F49F7071F0B7
:1041B000F8019581907F51F4FD2C8ACF80E0B4CF37
:1041C00080E0DACF9F7011F08823B1F3805E8830F1
:1041D00098F3C8010E94BA18DC2CEECFEE2009F447
:1041E00077CF8091AF0181608093AF01B1CF8B2DEC
:1041F0000E942206811124C0D80111968C9111973A
:104200008A111EC08C918B111BC02091B00130917E
:10421000B10116968D919C9117972817390781F453
:10422000E1100EC015967C92C8010E94BA1888E071
:10423000F801AAEAB1E001900D928A95E1F748CF22
:10424000C8010E944F0E882339F1EE2029F1809198
:10425000AF018032A0F02091AA013091AB013A87E2
:1042600029871B86DD86CC868E878091B001909150
:10427000B101988B8F87CE0109960E94BA1888E009
:10428000F801AAEAB1E001900D928A95E1F70E9447
:10429000751FFF24F3941CCFC8010E94BA18F9CFF0
:1042A000872D807F09F449CF9090AA018090AB01BF
:1042B0004091AD015091AE01682D892D0E942206DA
:1042C00081111CC0F8018181881118C08081891179
:1042D00015C02091B0013091B101868197812817D6
:1042E000390761F4E1100AC07582C8010E94BA184A
:1042F00088E0D5011D928A95E9F7EACEC8010E94AF
:104300004F0E882349F2EE2039F28091AF018032BE
:1043100008F4B5CF2091AA013091AB013A832983EB
:104320001B82DD82CC828E838091B0019091B1019D
:1043300098878F83CE010196A0CF60E08AEA91E052
:104340000E94860E80915603909157038816990615
:1043500008F051C0FE2CEE2009F49ECFE090AA0197
:10436000D090AB014091AD015091AE016D2D8E2DDD
:104370000E942206811131C0F80181818D112DC06A
:1043800080818E112AC02091B0013091B1018681C7
:1043900097812817390709F560E08AEA91E00E94C1
:1043A000860E80915B0382FD42CF9091AF0190FD1C
:1043B0003ECF907F09F43BCF8091AF01D801159695
:1043C0008C931597903F09F42FCF982F907F905F93
:1043D0008F70892B15968C9327CFC8010E944F0EA2
:1043E00081114DCF8091AF0181608093AF01C801F1
:1043F0000E94BA186DCE88E0F50111928A95E9F70E
:1044000067CEEE2009F448CFC8010E944F0EF82E67
:10441000882309F441CF88E0F801AAEAB1E00190CD
:104420000D928A95E1F78091AA019091AB010E94CB
:10443000430E0E94751F4CCECF93DF93CDB7DEB7EE
:1044400060970FB6F894DEBF0FBECDBF29873A87BD
:104450004B875C876D877E878F87988BCE01099607
:104460000E94E31F81112FC088E0FE013996DE0112
:10447000119601900D928A95E1F74C855D856A85CC
:1044800089850E94220681111EC0A091B201B0E070
:10449000CD010196877099272091F30128171906FD
:1044A00009F193E0AA0FBB1F9A95E1F7AD54BE4FF7
:1044B00098E0FE01319601900D929A95E1F7809374
:1044C000B2010E94480B8091F3019091B2018913CF
:1044D00017C060960FB6F894DEBF0FBECDBFDF9158
:1044E000CF9108950E9414101092B2011092F3011E
:1044F00088E0EAEAF1E0DF011D928A95E9F7E3CF6F
:10450000B8E08B9FC00111248D549E4F0E94E31F81
:104510008823F9F28091F30190E001968770992742
:104520008093F301D0CFEF92FF920F931F93CF931D
:10453000DF9380919802882361F0C09197028CE00C
:10454000F82E80919802C81758F010929802109295
:104550009702DF91CF911F910F91FF90EF900895F7
:10456000EE24E394EC0EE09297020C2F10E0CF9D26
:10457000E0011124C756DD4F4B815C816981888140
:104580000E94220681111BC08E819F81892B21F4FC
:1045900088859985019651F4288139814A815B810A
:1045A0006C817D818E819F810E941C22F09EF00192
:1045B000F19EF00D1124E756FD4F14821382CE2D8B
:1045C000C0CF10923C0310923B03109212018091D5
:1045D0003A03809339030E945B060C9493223F9226
:1045E0004F925F926F927F928F929F92AF92BF9203
:1045F000CF92DF92EF92FF920F931F93CF93DF93AF
:10460000C091390397E0892E01E010E02CE0322EB2
:104610003EEF932E4424439480913A038C1315C0AB
:104620000E949322DF91CF911F910F91FF90EF9005
:10463000DF90CF90BF90AF909F908F907F906F90C2
:104640005F904F903F900C945B06D0E0FE01EE0F20
:10465000FF1FEF5CFC4F80819181889ED001899E75
:10466000B00D1124A750BD4F14962C911497211111
:1046700057C050909802E9E9F2E030E020E0712C58
:104680005D01251508F04AC0E284F384D501CD9080
:10469000DC906FEF7FEF612C462D50E0DA01AA0F1E
:1046A000BB1FAC0DBD1D0D90BC91A02D109731F01E
:1046B000EA16FB0609F4BA016394EECF6F3F760762
:1046C000A1F1D80102C0AA0FBB1F6A95E2F77A2AAE
:1046D000B80102C0660F771F6A94E2F7AB01415040
:1046E000510974161506F9F4329EF001339EF00D4F
:1046F0001124E756FD4F889ED001899EB00D1124EC
:10470000A750BD4F12962D913C9113973783268366
:10471000908291829187808715964C920E942D06F7
:104720002196C37079CF148213822F5F3F4F3C963E
:10473000A8CF2F923F924F925F926F927F928F926B
:104740009F92AF92BF92CF92DF92EF92FF920F9320
:104750001F93CF93DF93CDB7DEB769970FB6F89469
:10476000DEBF0FBECDBF942F498B252F5A8B6B8B8D
:104770007C8B8D8B4C895D89622F892F0E9422064C
:10478000811109C0809193019091940101969093B9
:104790009401809393018B89811110923D031D86B2
:1047A0001E861F86188A85E0FE017196DE01199625
:1047B00001900D928A95E1F7809140039091410319
:1047C000892BC1F00E94DE052091F5013091F601A0
:1047D000821B930B20914003309141038217930772
:1047E00020F08091F70182FFF5C10E94550A8111E6
:1047F0000E943C0A4C855D856A8589850E94220657
:10480000811111C061E0CE0109960E94860E6C01F3
:104810008B8527EFC2162CE5D20681F4882321F17F
:1048200081E08093120129853A854B855C856D85F1
:104830007E858F8598890E941C22C5C038EFC316DB
:104840003CE5D30629F4882379F00E94E122EBCFDE
:1048500049EFC4164CE5D40639F4882329F0809139
:1048600012018111F2CFDCCF09EF12E0512CB12CF3
:10487000A12C22242394312C2EEF422EF8014081CA
:10488000518188248A94982C20E0822F90E0FC01AA
:10489000EE0FFF1FE40FF51F608171816115710537
:1048A00031F0C616D70609F44C012F5FEECFF12C7C
:1048B000FFEF8F169F0609F448C0F8014481F0907D
:1048C00012018F2D411180E0F82FF170FF2EF801B9
:1048D000E58086819B85992309F40CC1FF2009F4AA
:1048E00009C16090540370905503E11012C0A101FA
:1048F00001C0440F8A94EAF7842B86838091950245
:10490000909196028615970520F470929602609217
:104910009502C10102C0880F991F2A95E2F70197FD
:10492000F80126812817190681F480913B039091A4
:104930003C03009709F460C00E94CF056816790611
:1049400008F05AC021E0F80124835F28FFEFAF1A76
:10495000BF0A095F1F4F28E0A216B10409F08ECFED
:104960008B85882309F421C1552009F41EC10E94BA
:10497000DE0590933C0380933B038091980288303E
:1049800010F591E0980F9093980298E0FE01399607
:10499000DE01119601900D929A95E1F73CE0839F1C
:1049A000C001112487569D4F28E0FE013196DC019D
:1049B00001900D922A95E1F72FEF3FEFFC0131872F
:1049C0002087D386C28669960FB6F894DEBF0FBEE5
:1049D000CDBFDF91CF911F910F91FF90EF90DF90AE
:1049E000CF90BF90AF909F908F907F906F905F908F
:1049F0004F903F902F9008958091390350913A0342
:104A0000982FF0E0E0E0851314C090933903E0178D
:104A1000F10709F49ACF90E0FC01EE0FFF1FEF5C65
:104A2000FC4FB182A08201968370992780933A034C
:104A30008CCF682E712CF301EE0FFF1FEF5CFC4F43
:104A40002081318147E0429FD001439FB00D112466
:104A5000A750BD4F6D917C911197798F688F40E081
:104A600020E030E0E32FF0E0EE0FFF1F688D798D3E
:104A7000E60FF71F8080918081149104E1F0F80126
:104A80000190F081E02DFF8BEE8B20E005C08616B3
:104A9000970609F44F2D2F5FE22FF0E0EE0FFF1F76
:104AA0006E897F89E60FF71F60817181611571053D
:104AB00071F73F5FD7CF4423D1F0F801231708F0F7
:104AC000FD0121E024830E171F0721F49093390381
:104AD000F42E3BCF981305C0AE17BF0711F49F5FAC
:104AE000937093012F5F3F4F822F83708CCFF0E044
:104AF000E0E0F7CF90E0E1101FC0B10102C0660F07
:104B0000771F2A95E2F79B012150310982179307FD
:104B100031F4442309F447C0C5010E942D06C101A8
:104B200001C0880F8A94EAF7982F9095F801868142
:104B300089238683FE2C09CF9C01082C02C0359561
:104B400027950A94E2F7A90141705527BC016150ED
:104B5000710986239723892B11F5452B01F1F80163
:104B600082819381892BC1F01B821C821D821E824F
:104B700049824A820E94DE058160582F9D838C8382
:104B8000F801828193818F83988729813A814B81B3
:104B90006D817E810E941C22F8011582C0CFF22F08
:104BA000F170EF2EBCCFEF2CBACF909139038091EA
:104BB0003A03981731F00E94EF22552009F433CEC2
:104BC00002CF0E94932210923C0310923B030E945A
:104BD0005B06F3CF82E00E94060C07CE6F927F92B5
:104BE0008F929F92AF92BF92CF92DF92EF92FF92FD
:104BF0000F931F93CF93DF93CDB7DEB728970FB6F0
:104C0000F894DEBF0FBECDBF8E010F5F1F4F88E04F
:104C1000F80111928A95E9F780E5E82E81E0F82EF7
:104C2000680194E5692E91E0792E88248394912C73
:104C3000F70181917F018F3F09F44BC0F894E82F71
:104C4000E295EF70F0E021A18F70A40102C0440F43
:104C5000551F8A95E2F7CA01922F982B91A392A132
:104C60008095892382A3789400C0E4E5F1E030E0E8
:104C700020E0B12CA12C81918F3F09F47CC0A82F9A
:104C8000A295AF70B0E090964C9150E08F7002C04A
:104C9000559547958A95E2F740FD6DC0C401022EF7
:104CA00002C0880F991F0A94E2F7A82AB92A2F5F39
:104CB0003F4F2C303105F9F6F701319780818F3F56
:104CC00011F00E945A0850EA5A95F1F7F601B182A4
:104CD000A082F2E0CF0ED11C6E147F0409F0A8CFA1
:104CE00048E050E0B80181E092E00E94FD2FFF24EF
:104CF000F394009709F4F12C892B09F43FC088E064
:104D0000F801A1E0B2E001900D928A95E1F781E00F
:104D1000809300020E94DE059093FF018093FE01C4
:104D20008091FE019091FF010E94CF05059750F1FF
:104D3000809101029091020290931A0280931902CD
:104D4000809103029091040290931C0280931B02B5
:104D5000809105029091060290931E0280931D029D
:104D600080910702909108029093200280931F0285
:104D70001092000207C090E080E097CF809100027F
:104D80008111CECF80911201882301F180913B03E4
:104D900090913C030097D1F00E94CF05209195029D
:104DA000309196022817390788F490913903809141
:104DB0003A03981709F440C00E94EF22109296021D
:104DC0001092950210923C0310923B03809159037C
:104DD00080FF1CC08091150182FF18C00E94DE0573
:104DE0002091620330916303AC01421B530B20916D
:104DF0001301309114014217530740F041E0BC0108
:104E000080916003909161030E9428178F2D28964E
:104E10000FB6F894DEBF0FBECDBFDF91CF911F91CB
:104E20000F91FF90EF90DF90CF90BF90AF909F9049
:104E30008F907F906F9008950E94932210923C0370
:104E400010923B030E945B06C1CF90E080E00E947D
:104E500038308A3E9E4F11F40C94940E80E00895F1
:104E60001F920F920FB60F9211242F933F934F93DF
:104E70005F936F937F938F939F93AF93BF93CF93E2
:104E8000DF93EF93FF93D091E900DF708091EC0006
:104E9000C82FC17080FDC0E81092E9008091F00039
:104EA000877F8093F00078940E9429101092E90087
:104EB0008091F00088608093F000CD2BCF70C0937C
:104EC000E900FF91EF91DF91CF91BF91AF919F9159
:104ED0008F917F916F915F914F913F912F910F90A3
:104EE0000FBE0F901F9018951F920F920FB60F9242
:104EF00011242F933F934F935F936F937F938F93DF
:104F00009F93AF93BF93EF93FF938091E10082FF54
:104F100009C08091E20082FF05C08091E1008B7F93
:104F20008093E1008091DA0080FF24C08091D80056
:104F300080FF20C08091DA008E7F8093DA0080911C
:104F4000D90080FF9BC080E189BD82E189BD09B4A1
:104F500000FEFDCF81E08093A20380917403811154
:104F600009C00E941A040E940D058091E20084602D
:104F70008093E2008091E10080FF17C08091E20001
:104F800080FF13C08091E2008E7F8093E2008091C9
:104F9000E20080618093E2008091D800806280937B
:104FA000D80019BC85E08093A2038091E10084FFC2
:104FB00029C08091E20084FF25C080E189BD82E1A3
:104FC00089BD89B5982F917080FFFBCF8091D80063
:104FD0008F7D8093D8008091E1008F7E8093E100E7
:104FE0008091E2008F7E8093E2008091E2008160F8
:104FF0008093E20080919903882309F445C084E0FE
:105000008093A2038091E10083FF27C08091E2009A
:1050100083FF23C08091E100877F8093E10082E0DD
:105020008093A203109299038091E1008E7F809378
:10503000E1008091E2008E7F8093E2008091E200A7
:1050400080618093E20042E060E080E00E94DB0447
:105050008091F00088608093F000FF91EF91BF9104
:10506000AF919F918F917F916F915F914F913F9100
:105070002F910F900FBE0F901F90189519BC109292
:10508000A2031092740376CF8091E30087FD93E032
:105090009093A203B7CF78941F921FB61F9211244A
:1050A0008F939F93AF93BF9380916B0390916C0309
:1050B000A0916D03B0916E030196A11DB11D809367
:1050C0006B0390936C03A0936D03B0936E03BF9139
:1050D000AF919F918F911F901FBE1F9018951F92A7
:1050E0001FB61F9211248F939F93AF93BF9380910C
:1050F0006A03811113C080916B0390916C03A0919E
:105100006D03B0916E034196A11DB11D80936B0399
:1051100090936C03A0936D03B0936E03BF91AF9116
:105120009F918F911F901FBE1F901895CDB7DEB72E
:10513000E4970FB6F894DEBF0FBECDBF84B7877F6C
:1051400084BF0FB6F894A895809160008861809321
:105150006000109260000FBE80E890E00FB6F894F7
:1051600080936100909361000FBE85B7806885BF12
:1051700085B7806885BF88E598E09093710180933A
:1051800070010E94FB120E94AC0D0E941A040E9442
:105190000D058091E20084608093E2007894809114
:1051A000A2038823A1F01091E9001F709091EC00F8
:1051B000892F817090FD80E8182B1092E900809172
:1051C000E80083FD0E9429101F701093E90082E01F
:1051D00084BD93E095BD9AEF97BD80936E000E94C9
:1051E000940E811102C00E94051087E90E945A089E
:1051F00085E30E945A0887EF0E945A0884E90E94BA
:105200005A0804E511E070E6E72E71E0F72EF80188
:1052100081918F018F3F11F00E945A08E016F1062C
:10522000B1F7109202021092010210921A0210922B
:105230001902109204021092030210921C021092A2
:105240001B02109206021092050210921E0210928A
:105250001D02109208021092070210922002109272
:105260001F020E942527811102C00E94DC1482E0E7
:1052700090E00E942A30809322020E94AD0E90930B
:10528000700380936F030E94EE258FE39CE90197E2
:10529000F1F700C000000E94EE258091190280FF06
:1052A00008C06FEF7FEF90E080E00E945C300E94CA
:1052B000410D83E090E00E942A300E94430C8091CF
:1052C0000902811131C00E942527811104C00E946A
:1052D000DC140E94CD1488E090E00E94323060938C
:1052E000390270933A0280933B0290933C026E7FA6
:1052F00071F40E94CD1488E090E00E9432306093F7
:10530000390270933A0280933B0290933C020E94D0
:105310009F068091390280FF04C060E086950E945C
:10532000A21481E08093090280E091E090936703EA
:10533000809366038E010F5F1F4F8091A203DD24CF
:10534000D39450E1E52E62E1F62E853009F441C197
:105350000E94EE25882359F08FB7F89440916B0393
:1053600050916C0360916D0370916E038FBFA9E142
:10537000B2E0EDE0F2E0F12CE12C7E2D8D919D91DB
:10538000219131912817390709F443C1282739277A
:1053900060E0CC24C394D12CA9014C215D21452B84
:1053A00009F431C16BA77CA79C012C213D2191E020
:1053B000232B09F490E09DA70E94DE058160782FE1
:1053C0009FA78EA74BA55CA56DA58FA50E949923CD
:1053D000F701EE0FFF1FE35FFD4F80819181C8262B
:1053E000D926D182C08286E0EAE2F2E0D8010190BB
:1053F0000D928A95E1F7C0902C02D0902D02E0909A
:105400002E02F0902F0210922C0210922D02109278
:105410002E0210922F028C2D8D2991F0809128025E
:10542000909129020E94CF05AC019091240299230A
:1054300009F408C1809110018417150608F410C101
:105440008E2D8F2991F080912602909127020E9443
:10545000CF05AC0190912302992309F440C18091BA
:105460000C018417150608F448C180912C02909114
:105470002D02892B90912E02892B90912F02892B3E
:1054800011F00E94AE0686E0F801AAE2B2E00190B7
:105490000D928A95E1F70E94160690910C028917E9
:1054A00021F00E94160680930C028091A2038430A2
:1054B00009F043CF83E08093E9008091E80082FF08
:1054C0003CCF8091E80090E085FF0AC00E9439043B
:1054D00060E2C62ED12C7801882309F457C191E0EF
:1054E0008091E8008B778093E800992309F425CF19
:1054F000E0909002F09091028981E114F10409F4A6
:1055000053C18E3F09F0EAC18A81833020F0855073
:10551000833008F0E3C1EA81EE3008F0DFC1F0E04B
:10552000E152FF4C0C94E72F8091A203843009F4E0
:105530003EC080910B02811116C0D0920B02809167
:105540003902982F917090930A028E7F80933902CE
:105550009FEFE0E7F2E09150E040F040E1F700C05B
:1055600000000E946F0D10926A0328E130E040E4D1
:105570000FB6F894A895209360000FBE409360008A
:1055800083B7817F846083BF83B7816083BF789452
:10559000889583B78E7F83BF0FB6F894A8958091C6
:1055A0006000886180936000109260000FBE80915F
:1055B0009803882371F00E94EE25E9E1F2E08191E1
:1055C0009191892B09F085C481E292E08E179F07A3
:1055D000B1F78091A203853009F4A6CF0E94141080
:1055E0000E94160610920B0280910A02882309F489
:1055F000AFCE8091390281608093390260E0869558
:105600000E94A214A5CE6F5FCC0CDD1C6C3009F09B
:10561000C3CE9FEFE91AF90A24E0E216F10409F07B
:10562000ACCE8FEF88AB89AB1AAA0E94DE058160F1
:10563000782F9CAB8BAB48A959A96AA98CA90E9469
:105640009923D1CE209111018AE0289F9001112445
:105650002417350708F0F4CE9F5F9093240202C010
:105660009F3FD1F7CC2059F00E9491079FEF1C1467
:105670000CF491E0899F802D112480932C02DD2071
:1056800059F00E9491079FEF1D140CF491E0899F3F
:10569000802D112480932D0230912C02332309F4A4
:1056A000CFCE20912D02222309F4CACE45EB34033C
:1056B000C0011124992359F090932C0245EB240347
:1056C00090011124332339F030932D02B9CE81E0BB
:1056D00080932C02F3CF81E080932D02B1CE2091F4
:1056E0000D018AE0289F900111242417350708F046
:1056F000BCCE9F5F9093230202C09F3FD1F7EE2064
:1057000059F00E9458079FEF1E140CF491E0899FF6
:10571000802D112480932E02FF2059F00E945807FB
:105720009FEF1F140CF491E0899F802D112480932A
:105730002F0230912E02332309F497CE20912F02AD
:10574000222309F492CE45EB3403C001112499239E
:1057500059F090932E0245EB24039001112433233A
:1057600039F030932F0281CE81E080932E02F3CF67
:1057700081E080932F0279CE8091F100F70181932F
:105780007F01F1E0CF1AD10809F4A9CE8091E80099
:1057900085FDF2CF8091E8008B778093E8000E942E
:1057A0003904882399F39BCE8B3009F41EC290F5FF
:1057B000853009F4D1C0C8F4823009F475C028F4EA
:1057C000813009F46DC08FEFB0C3833009F4B5C0E8
:1057D0008430C9F74C816B818A810E94D20D982751
:1057E000892798279E838D8379C0873009F4C2C0AA
:1057F00008F4BDC0883009F4FCC0893021F76091FD
:10580000390270913A0280913B0290913C020E94D1
:10581000541364C0803109F43DC1B0F58D3009F4F2
:105820000CC108F407C18E3009F40BC18F3059F652
:1058300080918E0290918F02892B09F44FC0EC80E9
:10584000F12C3DE1E316F10408F048C0CA80DB808A
:10585000DC24CD24DC245801E00EF11EC601875E55
:105860009D4FEA14FB04D1F147EEC41641E0D40683
:1058700020F4F50164810E943E30FFEFAF1ABF0AA9
:105880002FEFC21AD20AEACF823109F408C108F414
:1058900004C1833109F42BC18E3F09F094CF3BCE74
:1058A0001A8289E08B831AC08A81823009F45FC32F
:1058B0008330C1F0813009F086CF2FB7F894609122
:1058C0006B0370916C0380916D0390916E032FBFF9
:1058D0000E94ED2F6B837C838D839E83C8010E9481
:1058E00094042BCD80918E0290918F02892BB1F37D
:1058F0008091190290911A029827892798279C83F2
:105900008B8380911B0290911C02982789279827EE
:105910009E838D8380911D0290911E029827892776
:10592000982798878F8380911F0290912002982753
:10593000892798279A878987D1CF8A81823009F071
:1059400042CF6B817C818D819E810E94ED2F86E20A
:1059500090E00E943E30C2CF2D813E813227232726
:1059600032274C816B818A810E94290FB7CF0E9418
:10597000900FB4CF8A818138C1F060F4803809F08B
:10598000ADCF20E04B8160913B0280913A020E94B2
:105990006613A4CF823849F1833809F09FCF20E005
:1059A00040913C026C818B81F2CF60E08B810E9440
:1059B000A2149B818091390291110FC08E7F809338
:1059C00039022FEF30E742E0215030404040E1F70C
:1059D00000C000000E946F0D81CF8160809339026A
:1059E00060E086950E94A21479CF8B8180933D025E
:1059F00075CF8A81813899F030F4803809F06ECF04
:105A000080913C024FCF823891F0833809F066CF05
:105A100080913A028B8380913B028C835FCF80918F
:105A2000390280FF02C086953DCF80E03BCF809158
:105A30003D0238CF80E18A8351CF81E08A8387EEAF
:105A400031CFEC80F12C8DE1E816F10408F046CF5F
:105A5000CA80DB80DC24CD24DC245801E00EF11E5A
:105A6000C601875E9D4FEA14FB0409F437CFE7EEC9
:105A7000CE16E1E0DE0658F40E942A30F501848358
:105A8000FFEFCF1ADF0A2FEFA21AB20AE9CFF50112
:105A90001482F6CF0E94190F21CF84E0CCCFEC8086
:105AA000F12C3DE1E316F10408F018CFCA80DB8049
:105AB000DC24CD24DC245801E00EF11EC6018796BB
:105AC000EA14FB0409F40ACF40E8C41641E0D40606
:105AD00058F40E942A30F5018483FFEFCF1ADF0AC1
