:100000000C947A050C94C1050C94C1050C94712EC6
:100010000C94C1050C94C1050C94C1050C94C10548
:100020000C94C1050C94C1050C94081D0C94C41CBF
:100030000C94942D0C94C1050C94C1050C94C1052D
:100040000C94C1050C94C1050C94C1050C94C10518
:100050000C94C1050C94E31D0C94C1050C94C105CE
:100060000C94C1050C94C1050C94C1050C94C105F8
:100070000C94C1050C94C1050C94C1050C94C105E8
:100080000C94C1050C94C1050C94C1050C94C105D8
:100090000C94C1050C94C1050C94C1050C94C105C8
:1000A0000C94C1050C94C1050C94C105050109808F
:1000B000A101850319012AB700150126B700950192
:1000C00075108100C0050C0901A101850419012AE0
:1000D000A002150126A002950175108100C00660DE
:1000E000FF0961A1010962150026FF00952075082E
:1000F00081020963150026FF00952075089102C052
:1001000005010906A101050719E029E715002501E8
:10011000950875018102950175088101050719008F
:1001200029FF150026FF00950675088100050819AE
:10013000012905950575019102950175039101C08D
:10014000000101010101010101010202020202029A
:10015000020202030303030303030304040404046D
:100160000404050505050506060606060707070734
:100170000708080808090909090A0A0A0B0B0B0CE9
:100180000C0C0D0D0D0E0E0E0F0F0F101011111186
:100190001212131314141515161617171818191907
:1001A0001A1A1B1B1C1D1D1E1E1F2020212222236C
:1001B0002424252626272829292A2B2C2D2D2E2FAD
:1001C00030313232333435363738393A3B3C3D3EC4
:1001D0003F404142434445464748494A4C4D4E4FB3
:1001E00050515354555658595A5B5D5E5F61626475
:1001F000656668696B6C6D6F7072737577787A7B02
:100200007D7E8082838587888A8C8E8F9193959658
:10021000989A9C9EA0A2A3A5A7A9ABADAFB1B3B578
:10022000B7BABCBEC0C2C4C6C9CBCDCFD1D4D6D854
:10023000DBDDDFE2E4E7E9EBEEF0F3F5F8FAFDFFF2
:10024000290014001A000800150017002B000400F4
:100250001600070009000A00E1001D001B0006004F
:1002600019000500000000000000E00001512C0012
:100270002A00130012000C0018001C003400330088
:100280000F000E000D000B002872380037003600FA
:1002900010001100000000000000E60002512C00D8
:1002A00035001E021F022002210222024C003A00E9
:1002B0003B003C003D003E00E100400041004200A8
:1002C00043004400000000000000E30001002C0097
:1002D0002A002702260225022402230231023002CC
:1002E0002F022E022D023F004F00520051005000FD
:1002F00000004500000000000000E60003512C0053
:1003000035021E001F00200021002200E000AE0088
:10031000AA00A900AC00AB00E10000000000000052
:1003200000000000000000000000E00003512C006D
:100330002A00270026002500240023003100300079
:100340002F002E002D0000004D004B004E004A00F3
:1003500000000000000000000000E60001002C008A
:10036000005C00000000000000000000C35CC65CF0
:10037000C85CCA5C00000000C45CC75CC95CCB5CA4
:1003800000000000000000000000E00001002C0060
:1003900000000000000000000000B20000000000AB
:1003A000000000000000000000000000000000004D
:1003B00000000000000000000000E60001002C002A
:1003C00000AF00000000000000000000000000007E
:1003D0000000000000007E0F00D4FFFFFFC70000F8
:1003E000007800000000000000002A2B2800000018
:1003F00000000000000000000000000000290000D4
:1004000000002C1E3420212224342627252E362DB0
:100410003738271E1F202122232425263333362E4A
:1004200037381F0405060708090A0B0C0D0E0F10BC
:100430001112131415161718191A1B1C1D2F313001
:10044000232D350405060708090A0B0C0D0E0F10A5
:100450001112131415161718191A1B1C1D2F3130E1
:10046000354C00DA0281FFD9F1DB20A4A62EAF00C3
:10047000A0C000A1C800AED580A81FD300408D1435
:10048000200041646A757374005261697365004CA1
:100490006F7765720044656661756C74004C6179B4
:1004A00065723A2000808182838485868788898A64
:1004B0008B8C8D8E8F9091929394A0A1A2A3A4A5D2
:1004C000A6A7A8A9AAABACADAEAFB0B1B2B3B4C049
:1004D000C1C2C3C4C5C6C7C8C9CACBCCCDCECFD094
:1004E000D1D2D3D40000AE09025B00030100A0FA10
:1004F000090400000103010100092111010001228A
:1005000040000705810308000A09040100020300F6
:1005100000000921110100012222000705820320A9
:100520000001070503032000010904020001030084
:100530000000092111010001223200070584032077
:10054000000A1201100100000008534601000100DA
:1005500001020001480343006F0072006E00650055
:1005600020004B006500790062006F00610072009E
:10057000640020005200650076002E00310020004B
:1005800028004C00650067006100630079002000CE
:10059000530070006C006900740029000000100313
:1005A00066006F006F007300740061006E00000051
:1005B000040309040000000000003E5B4F5B3E00A6
:1005C0003E6B4F6B3E001C3E7C3E1C00183C7E3C4C
:1005D00018001C577D571C001C5E7F5E1C00001815
:1005E0003C180000FFE7C3E7FF00001824180000D4
:1005F000FFE7DBE7FF0030483A060E00262979299D
:100600002600407F05050700407F05253F005A3C36
:10061000E73C5A007F3E1C1C0800081C1C3E7F0063
:1006200014227F2214005F5F005F5F0006097F01D4
:100630007F00006689956A0060606060600094A237
:10064000FFA2940008047E04080010207E20100001
:1006500008082A1C0800081C2A0808001E10101090
:1006600010000C1E0C1E0C0030383E383000060EF8
:100670003E0E060000000000000000005F000000C9
:10068000000700070000147F147F1400242A7F2A2B
:1006900012002313086462003649562050000008F7
:1006A00007030000001C224100000041221C000042
:1006B0002A1C7F1C2A0008083E08080000807030B1
:1006C0000000080808080800000060600000201012
:1006D000080402003E5149453E0000427F400000B0
:1006E0007249494946002141494D33001814127F8F
:1006F00010002745454539003C4A49493100412110
:1007000011090700364949493600464949291E0062
:100710000000140000000040340000000008142213
:1007200041001414141414000041221408000201A2
:10073000590906003E415D594E007C1211127C00A1
:100740007F49494936003E41414122007F414141B4
:100750003E007F49494941007F09090901003E41A6
:10076000415173007F0808087F0000417F4100006D
:100770002040413F01007F08142241007F4040405B
:1007800040007F021C027F007F0408107F003E4172
:1007900041413E007F09090906003E4151215E00AA
:1007A0007F091929460026494949320003017F0182
:1007B00003003F4040403F001F2040201F003F40BB
:1007C00038403F00631408146300030478040300F6
:1007D0006159494D4300007F414141000204081026
:1007E0002000004141417F0004020102040040401A
:1007F00040404000000307080000205454784000A7
:100800007F2844443800384444442800384444286D
:100810007F0038545454180000087E090200182440
:10082000241C78007F080404780000447D40000008
:100830002040403D00007F102844000000417F40E0
:1008400000007C04780478007C08040478003844B4
:10085000444438007C1824241800182424187C00F0
:100860007C080404080048545454240004043F4401
:1008700024003C4040207C001C2040201C003C40C8
:1008800030403C004428102844004C9090907C005C
:100890004464544C440000083641000000007700D6
:1008A00000000041360800000201020402003C265C
:1008B00023263C00000000000000000000000000B3
:1008C00000000000C0E0F0F8F81800C0F0FCFEFFE7
:1008D000FFFFFFFFFFFF7E000000000000000000A0
:1008E00080C0E0E0E0E0E0E0E0E0C0800000000088
:1008F00080C0E0E0E0E0E0E0E0E0C080000000E098
:10090000E0C0C0E0E0E0E00000E0E0C0C0E0E0E027
:10091000E0E0C0800000000080C0E0E0E0E0E0E057
:10092000E0E0C080000000000000000000000000C7
:100930000000E0F0F0F0E0ECEEF7F37020007C7CDB
:100940007C7E007E7E7E7F7F7F000080C0E07E5BBD
:100950004F5BFEC00000C000DCD7DEDEDED7DC006F
:10096000C0000000000000000000000000000000C7
:1009700000000000000000000000000000F8FCFE85
:10098000FFE000FFFFFFFFFFFF80FFFFFFFFFFFF14
:10099000FFFFFF1F0701000000000000000000FF34
:1009A000FFFF8100000000000081C3C3C30000FFFF
:1009B000FFFF8100000000000081FFFFFF0000FF3B
:1009C000FFFF01000000000000FFFFFF010000002A
:1009D0000001FFFFFF0000FFFFFF9D1C1C1C1C1CF3
:1009E0001C9DDFDFDF0000000000000000000000B1
:1009F00000000F1F3F7F7F7F7F7F3F1E0C001F1F68
:100A00001F3F003F3F3F7F7F7F00307B7F7830205C
:100A10002030787F3B0003000F7F0F0F0F7F0F0008
:100A200003000000000000000000000000000000C3
:100A300000000000000000000000000000030F1F85
:100A40003F3F3F3F1F1F3F3F7F7F7F3F3F1F3F7F16
:100A50007F7F7F7C7878381C0F000000000000004A
:100A60000103070707070707070703010000000046
:100A7000010307070707070707070301000000072F
:100A80000707000000000000000707070000000043
:100A90000000070707000000010307070707070713
:100AA0000707030100000000000000000000000034
:100AB0000000000000000000000000000000000036
:100AC0000000000000000000000000000000000026
:100AD0000000000000000000000000000000000016
:100AE0000000000000000000000000000000000006
:100AF0000000000011241FBECFEFDAE0DEBFCDBF43
:100B000004B603FE27C08091C7079091C807A09143
:100B1000C907B091CA078730904BA740B04BD1F4BA
:100B20001092C7071092C8071092C9071092CA07FF
:100B300014BE84B7877F84BF0FB6F894A8958091C0
:100B40006000886180936000109260000FBEE0E05A
:100B5000F8E3099527E0AAE8B3E001C01D92A73C9D
:100B6000B207E1F713E0A0E0B1E0E4E4FAE602C086
:100B700005900D92AA38B107D9F70E9462280C940B
:100B8000AE340C940000E8EDF0E080818E7F80832D
:100B90001092E2001092DA001092E100A0EEB0E0B4
:100BA0008C9181608C9380818F77808319BCA7EDB5
:100BB000B0E08C918E7F8C9380818F7E80831092A9
:100BC0006C0508952091E4003091E50095E6A901B7
:100BD0002091EC00822F817020FF06C08091E800F8
:100BE00080FF06C080E008952091E80022FD1AC031
:100BF00080918205882389F0853089F08091EB000F
:100C000085FD0FC02091E4003091E50042175307A5
:100C1000F9F29150E1F684E0089582E0089583E0CE
:100C2000089581E00895EF92FF920F931F93CF9361
:100C30007C018B010E94E205C82F811117C08091B1
:100C4000E80085FD0BC08091E8008E778093E80076
:100C50000E94E205882399F3C82F08C0F70181910B
:100C60007F018093F1000150110949F78C2FCF913A
:100C70001F910F91FF90EF900895CF93FC01809109
:100C80008205843001F5C091E900CF702091EC001D
:100C9000922F917020FD90E8C92B82E08093E900AB
:100CA0008091E80080FF0CC050E040E060E270E01E
:100CB000CF010E9413068091E8008E778093E800B0
:100CC000CF70C093E900CF91089580917A0587FF96
:100CD00013C08091E80082FF06C08091E8008B7706
:100CE0008093E80004C0809182058111F2CF0895BD
:100CF000809182058823D9F38091E80080FFF8CFA6
:100D00008091E8008E77ECCF982F9093E900242F04
:100D1000762F50E0891731F07091EC002091ED00B2
:100D20005091F00021FD07C09F5F973071F78093CD
:100D3000E90081E008953091EB003E7F3093EB00B5
:100D40003091ED003D7F3093ED003091EB0031604C
:100D50003093EB007093EC002093ED005093F00083
:100D60002091EE0027FDE0CF80E00895CF92DF9242
:100D7000EF92FF920F931F93CF93DF93C8EDD0E0D4
:100D800088818F7E8883E7EDF0E0808181608083B9
:100D900084E082BF81E080936C0588818E7F8883A8
:100DA00002EE10E0F80110821092DA0081EEC82EF7
:100DB000D12CF601108288818F77888388818068A2
:100DC000888388818F7D888319BC10928205109258
:100DD0007905109278051092770590EEE92EF12CA6
:100DE000F70180818B7F808388818160888342E0E6
:100DF00060E080E00E948406F60180818E7F80831F
:100E0000F801808181608083808188608083F70120
:100E100080818E7F8083888180618883DF91CF91FC
:100E20001F910F91FF90EF90DF90CF900895FC01FC
:100E3000809180059091810586179707A0F0611534
:100E4000710529F49091E8009E779093E80090E076
:100E50006115710551F4911108C08091E80082FF7D
:100E600034C080E00895BC01F2CF809182058823D0
:100E7000C1F18530C1F18091E80083FD30C08091DF
:100E8000E80082FDEACF8091E80080FFE1CF809109
:100E9000F3002091F200382F6115710519F0283008
:100EA000310558F091E02830310509F090E02091AB
:100EB000E8002E772093E800CBCF81918093F1005A
:100EC000615071092F5F3F4FE7CF809182058823E2
:100ED00041F0853041F08091E80083FFBECF81E092
:100EE000089582E0089583E00895089580916E0545
:100EF000089587E797E7909301088093000888E1B9
:100F00009AE00FB6F894A895809360000FBE909376
:100F10006000FFCF2FB7F8946091DF047091E00478
:100F20008091E1049091E2042FBF08959C01FC019F
:100F300032969FEF80E04191461751F09F3F19F4A0
:100F4000411101C0982F8F5F8630A9F79F3F09F4A8
:100F50000895290F311D97FD3A95F901628308958F
:100F60008091DA0481111092DA0408958091D904F5
:100F70009091D804892B9091D704892B80938A0370
:100F80009091DA04992391F0892B80938A0320E0D1
:100F90008CE893E0FC013191CF0131112F5FF3E038
:100FA00082399F07B9F721110E94B007E091160519
:100FB000F0911705309731F00280F381E02D8AE837
:100FC00093E009940895E92FEE0FE90FEE0F8E0FCD
:100FD000982F977086958695869525E0829FF001DB
:100FE0001124E854FB4F50E040E080E0219130E0D4
:100FF000092E02C0369527950A94E2F7217033270F
:10100000042E01C0220F0A94EAF7822B4F5F5F4F34
:101010004530510559F70895E92FEE0FE90FEE0F0E
:101020008E0F982F977041E001C0440F9A95EAF710
:1010300086958695869595E0899FF0011124E85460
:10104000FB4F30E020E070E05191DF011197CB01C0
:10105000022E02C0969587950A94E2F781708195D9
:101060008527842385278C932F5F3F4F25303105BB
:1010700059F708958091B70490918604981301C0A0
:1010800008958F5F8770FACF882341F08095909103
:10109000D90489238093D9040C94B6070895882332
:1010A00039F09091D904982B9093D9040C94B607F9
:1010B000089520914C0430914D042817390771F0A0
:1010C00090934D0480934C04E0911605F091170520
:1010D000309721F00084F185E02D09940895209146
:1010E0004A0430914B042817390771F090934B0450
:1010F00080934A04E0911605F0911705309721F08E
:101100000680F781E02D099408951092D80410927A
:10111000D7040E94B60790E080E00E946F0890E03C
:1011200080E00C9459086093830570938405809344
:101130008505909386050C9485080F931F93609105
:1011400083057091840580918505909186058B01BA
:101150009C0106701127222733270630110521052F
:10116000310529F468601F910F910C949308677FF3
:10117000FACF0F931F9341E050E060E070E004C0AD
:10118000440F551F661F771F8A95D2F7CB01BA010E
:1011900060957095809590950091830510918405D8
:1011A0002091850530918605602371238223932346
:1011B0001F910F910C9493089091D60480958923E8
:1011C0008093D604282F277071F4282F082E000C46
:1011D000330B9217130639F08595859585950E94F6
:1011E000B9081092D60408950F931F9341E050E080
:1011F00060E070E004C0440F551F661F771F8A959A
:10120000D2F78091830590918405A0918505B091D6
:1012100086058A019B01082B192B2A2B3B2BC90120
:10122000B8011F910F910C9493086093DB047093A5
:10123000DC048093DD049093DE040C9485088823FD
:10124000B1F19CEF980F913A70F4ECE8F3E09191D2
:10125000891303C0DF0111971C9243E0E239F407C0
:10126000B1F70C94B60790E2980F983088F4877025
:1012700021E030E0A90102C0440F551F8A95E2F732
:10128000CA0180959091D90489238093D904E9CF2C
:101290009BE5980F933020F490E080E00C946F0869
:1012A000885A873120F490E080E00C945908089522
:1012B000CF93C82F882309F44EC08CEF8C0F813A4E
:1012C000F8F4ECE8F3E082E993E0DF012D91C21736
:1012D00059F08A179B07D1F76C2F8AE893E00E9498
:1012E0009607CF910C94B6072191C21303C0DF017A
:1012F00011971C928E179F07B9F70E94B607ECCF83
:1013000080E28C0F883068F4C77021E030E001C0C3
:10131000220FCA95EAF78091D904822B8093D904D1
:10132000E0CFEBE5EC0FE33040F4F0E0E45CFC4FA1
:10133000808190E0CF910C946F08C85AC73158F45F
:10134000EC2FF0E0EE0FFF1FE15CFC4F80819181FC
:10135000CF910C945908CF910895E0911605F09122
:101360001705309721F00190F081E02D099480E07D
:101370000895FA01811101C0FB010994E6EAF3E046
:10138000818360834283339694E0E834F907C1F7A0
:101390000895FC01EE0FFF1FE80FF91FEA55FC4FFF
:1013A00061834083228308950C94BE090C94C9097B
:1013B000EF92FF920F93972F093438F4B701601B17
:1013C00071096F3F710519F010F06FEF70E0485F21
:1013D0005F4F4131510540F0A901485F5F4F4131F6
:1013E000510510F06FEF70E06095482F460F08F43C
:1013F0004FEF842F37FF02C02D5F3F4F3595279564
:101400003595279560919707620F792F0F91FF907F
:10141000EF900895EF92FF920F931F930E0D1F2DE3
:10142000111DF90137FF03C0F195E195F10924E0A1
:10143000EE0FFF1F2A95E1F7EF3FF10519F014F0C9
:10144000EFEFF0E09A0157FF03C031952195310984
:1014500094E0220F331F9A95E1F72E173F070CF403
:10146000F901E00FF11FEF3FF10519F010F0EFEF78
:10147000F0E0E095282F3E2F230F08F42FEF822F66
:101480001F910F91FF90EF900895EF92FF920F93AD
:10149000970195E0099F200D311D11242F3F310543
:1014A00019F010F02FEF30E02095382F320F08F4AC
:1014B0003FEF832F0F91FF90EF90089522E8241BB8
:1014C00008F420E0620F08954095282F429F412D97
:1014D0001124842F0895E42FF0E0EE0FFF1FE85948
:1014E000FE4F408134EE439F412D1124E82FF0E060
:1014F00050E0445E5F4FDA01A21BB1099D01B7FFC6
:1015000003C031952195310993E0220F331F9A953D
:10151000E1F7AF01421B530B9A0157FD20E0582F12
:10152000259F212D1124822F0895E42FF0E0EE0F46
:10153000FF1FE859FE4F408134EE439F412D112497
:10154000E72FF0E050E0445E5F4FDA01A21BB109E3
:101550009D01B7FF03C031952195310993E0220F1A
:10156000331F9A95E1F7AF01421B530B9A0157FDC8
:1015700020E0279F212D1124722F0895FC019B014B
:10158000009729F480E077FF2BC080E80895AC0134
:1015900097FF04C044275527481B590BB901640F16
:1015A000751F37FD10C0241B350BC901A5E0880F3E
:1015B000991FAA95E1F70E94873080E2861BF7FF0A
:1015C0000FC081950895CB0165E0880F991F6A953A
:1015D000E1F7BA01621B730B0E94873080E6EECF01
:1015E0000895EF920F93CF93DF93D72FC82FC901A0
:1015F0000E19BA010E94BE0A602F681B7D2F8C2F26
:10160000DF91CF910F91EF9008950F93CF93DF93D8
:10161000D72FC82FC901BA010E94BE0A682F600FD8
:101620007D2F8C2FDF91CF910F910895EF920F9323
:101630001F93CF93DF93D62FC72F182FC9010E19F1
:10164000010FBA010E94BE0A081B202F219F212DE5
:101650001124822F6D2F7C2FDF91CF911F910F913D
:10166000EF900895EF920F931F93CF93DF93D62FB0
:10167000172FC82FC9010E19070FBA010E94BE0A01
:10168000702F781B719F712D11246D2F8C2FDF917E
:10169000CF911F910F91EF9008950F931F93CF93C8
:1016A000DF93D62FC72F182FC901212F201B022F00
:1016B000BA010E94BE0A982F990F990F891B800FBB
:1016C000282F219F212D1124822F6D2F7C2FDF9118
:1016D000CF911F910F9108950F931F93CF93DF9395
:1016E000D62F172FC82FC901272F201B022FBA0171
:1016F0000E94BE0A982F990F990F782F791B700FAF
:10170000719F712D11246D2F8C2FDF91CF911F911F
:101710000F910895AC018230910508F408959FEF70
:10172000413E8EE1580740F49A0195E036952795A1
:101730009A95E1F798E0920F61E0E62FE90FFF2715
:10174000FF1F9F0135952795822F229FF001239F30
:10175000F00DF00D11244E175F0738F49FEF920F34
:10176000961758F78FEF860F08952F3FE9F361E042
:10177000620FF6CF30E020E0869F212D969F200D4E
:10178000311D1124C9010895AF92BF92CF92DF920B
:10179000FF920F931F93CF93DF93362F472FE82F9E
:1017A000F0E0E05CFE4F71110FC0E4918E2F2E2F00
:1017B0006E2F722FDF91CF911F910F91FF90DF90CD
:1017C000CF90BF90AF900895C72FD0E02491F22E14
:1017D000022F10E056E0659FC0011124EFEFF0E00A
:1017E000BF010E947330832F90E0880F991F35E569
:1017F000369FD001379FB00D11248A1B9B0B982F69
:10180000990F980F6F01CC1ADD0AC09ED001C19EBE
:10181000B00DD09EB00D11248B2F499FA001112433
:10182000452F55276F01C41AD50AC09EA001C19E3D
:10183000500DD09E500D11245F01A91AB108AC9E25
:101840006001AD9ED00CBC9ED00C1124CD2CDD24AB
:10185000EC19FD09E09FE001E19FD00DF09FD00D54
:101860001124ED2F62307105A1F050F4611571055E
:1018700009F49ECF6130710581F0EB2F852F98CF51
:101880006430710569F080F06630710509F490CF1D
:10189000F4CFE22F2B2F8D2F8BCFE22F252F88CF48
:1018A000EB2F822F2D2F84CF2B2F8F2DE52F80CF45
:1018B0002F923F925F926F927F928F929F92AF9200
:1018C000BF92CF92DF92EF92FF920F931F93CF932D
:1018D000DF93CDB7DEB72A970FB6F894DEBF0FBE01
:1018E000CDBF8B837E836D83209135018BE0289F54
:1018F000802D11248F83855F89838A83873310F03D
:1019000036E33A8380919B078C83FF81EF2FF0E0D1
:10191000FA87E987CF01880F991F9C01285C3E4F09
:1019200069013B81832F90E0FC013196F887EF83BA
:101930008A8199859817E8F081E0E981E63308F01B
:1019400080E02A960FB6F894DEBF0FBECDBFDF91C0
:10195000CF911F910F91FF90EF90DF90CF90BF90AC
:10196000AF909F908F907F906F905F903F902F905F
:101970000895E985FA85EC52FE4F808190913601F9
:101980008923F1F020909707309098072F813885B0
:101990002556384F39015B8010E0FC815F16D0F08E
:1019A00020919907129F112D1124B101812F0E94BE
:1019B000C40B462F282F672F89859A850E94D60948
:1019C00029853A852F5F3F4F3A87298732E0C30E3A
:1019D000D11CAECFF30181913F01F601A0A8A81A56
:1019E000BB0881A8F3018781881A9908AA9C9001F5
:1019F000AB9C300D300D1124889CC001899C900D4A
:101A0000900D1124820F931F0E948A0B082FF3015F
:101A1000EE0FFF1FEB59F74060919A078589968971
:101A20000E94BA0B7C019401A501B101812FED81C7
:101A3000FE8109951B015394182FAFCFCF92DF92EF
:101A4000EF92FF920F931F93CF93DF937C01C0918E
:101A500035018BE0C89FC02D11242BE0D22EDC0E67
:101A6000CD2C86E38D1510F496E3C92E20919A07AC
:101A700030E050E040E06FEF7FEF80E090E00E94C8
:101A80004B348901D0E02C2FCC1570F081E0F5E3C8
:101A9000FD1508F480E0DF91CF911F910F91FF9029
:101AA000EF90DF90CF900895FE01EC52FE4F8081C1
:101AB000909136018923F1F040919B074150042E0B
:101AC000000C550B47FF18C0C80160919A070E948F
:101AD000BA0BAC01609197077091980780919907B4
:101AE000F70109950E94C40B462F282F672FCE01BE
:101AF0000E94D6092196C7CFFA01E556F84F818991
:101B000082130AC0FA01EE0FFF1FE556F84F818DD0
:101B1000928D80179107C8F241505109D3CF5F923F
:101B20006F927F928F929F92AF92BF92CF92DF92ED
:101B3000EF92FF920F931F93CF93DF933C01C091DD
:101B400035018BE0C89FC02D11241BE01C0FF12E26
:101B5000173310F036E3F32E60919A076695809163
:101B60009207909193070E94BA0B582ED0E0CE01B5
:101B7000880F991F9C01285C3E4F6901CF15A0F08A
:101B800081E0163308F080E0DF91CF911F910F9133
:101B9000FF90EF90DF90CF90BF90AF909F908F908D
:101BA0007F906F905F900895FE01EC52FE4F808110
:101BB00090913601892379F1F60180A9282F2057C9
:101BC000330B590181A9E82FE052FF0B4F01AA9C6A
:101BD0009001AB9C300D300D1124EE9FC001EF9FA2
:101BE000900D900D1124820F931F0E948A0B082FD5
:101BF000609197077091980780919907E52C94015F
:101C0000A501F30109950E94C40B462F282F672FC9
:101C1000CE010E94D609F2E0CF0ED11C2196AECFA4
:101C2000AF92BF92CF92DF92EF92FF920F931F93EA
:101C3000CF93DF936C01C09135018BE0C89FC02D1D
:101C400011241BE01C0FB12E173310F036E3B32E16
:101C500060919A07669580919207909193070E94F0
:101C6000BA0BA82ED0E0CE01880F991F9C01285CEA
:101C70003E4F7901CB1578F081E0163308F080E013
:101C8000DF91CF911F910F91FF90EF90DF90CF9058
:101C9000BF90AF900895FE01EC52FE4F808190916D
:101CA00036018923C1F0F70121A92052330B40A945
:101CB0004057550B6091970770919807809199074D
:101CC0000A2DF60109950E94C40B462F282F672F75
:101CD000CE010E94D609F2E0EF0EF11C2196CACF88
:101CE000DF92EF92FF920F931F93CF93DF937C01CC
:101CF000C09135018BE0C89FC02D11241BE01C0F43
:101D0000012F173308F006E360919A0766956695F0
:101D100080919207909193070E94BA0BD82ED0E041
:101D2000C01760F081E0163308F080E0DF91CF91BA
:101D30001F910F91FF90EF90DF900895FE01EC52FC
:101D4000FE4F808190913601892391F06091970731
:101D500070919807809199072D2D4C2FF7010995C7
:101D60000E94C40B462F282F672FCE010E94D60950
:101D70002196D6CF9091140592FF06C0282F287186
:101D80002830F9F4877F846093FF06C0282F2871DC
:101D90002831F1F4877E84612091150520FF06C06B
:101DA000382F38713830D9F4877F816021FF06C021
:101DB000282F28712831D1F4877E816194FD877E98
:101DC0000895282F24712430F9F68B7F8860DCCFAA
:101DD000282F2471243101F78B7E8861DDCF382FC5
:101DE0003171313019F78E7F8860E0CF282F217153
:101DF000213121F78E7E8861E1CFCF93DF93A0EF71
:101E0000B2E044EF52E0C1E0D0E08D91E82FE295DE
:101E1000EF70F0E061A18F709E0101C0220F8A95E2
:101E2000EAF7922F9095962391A382A1822B82A309
:101E30004A175B0751F7DF91CF9108951092D904AB
:101E4000ECE8F3E086E0DF011D928A95E9F70C9457
:101E500085081F93CF93DF93CDB7DEB7AA970FB650
:101E6000F894DEBF0FBECDBF8AE795E02091F10068
:101E7000DC012D93CD01B5E082389B07B9F7809145
:101E80007B05833009F471C0B8F4813009F448C08F
:101E9000823009F4B2C08091E80083FF88C280914B
:101EA0007A0590917B059A3008F081C2E92FF0E025
:101EB000E055FB4C0C949B308A3009F48DC08B307C
:101EC00009F470C0893039F780917A05813219F7A9
:101ED00080917E0590917F05009711F00297D9F6C9
:101EE0008091E800877F8093E8008091E80082FF7E
:101EF00037C09091F3008091F200029729F480910D
:101F0000F1008B7F813021F48091F10080936E0588
:101F10008091E8008B778093E8000E946506BBCF34
:101F200080917A05813A09F0B6CF8091E800877FE9
:101F30008093E80080917E0590917F05892B61F464
:101F400068E08FE695E070E00E9417078091E80056
:101F50008B778093E8009FCF60E090E080E0F3CF44
:101F6000809182058111C1CF96CF80917A05813A07
:101F700009F091CF80917E0590917F05892B09F022
:101F80008ACF8091E800877F8093E8008091E80005
:101F900080FFFCCF809133018093F1008091E800B5
:101FA0008E77B9CF80917A05813209F074CF809114
:101FB0007E0590917F05892B09F06DCF8091E80017
:101FC000877F8093E8000E94650680917C0580935E
:101FD00033010E941E0F5FCF80917A05813209F094
:101FE0005ACF8091E800877F8093E8000E946506C1
:101FF00080917D0580936D054ECF80917A05813A61
:1020000009F049CF8091E800877F8093E8008091B4
:10201000E80080FFFCCF80916D05BECF803899F03D
:10202000823809F0C4C180917E058F70873008F036
:10203000BEC18093E9008091EB0085FB882780F981
:102040001092E90006C08091770590917805911172
:1020500082609091E800977F9093E8008093F10070
:102060001092F1008091E8008E779DC1882309F4D9
:102070008BC1823009F09BC180917C0581118EC19A
:1020800080917E058F702FEF280F263008F08FC1CA
:102090008093E9002091EB0020FF80C1933031F460
:1020A0008091EB0080628093EB0078C19091EB000F
:1020B00090619093EB0021E030E001C0220F8A95FF
:1020C000EAF72093EA001092EA008091EB00886022
:1020D000EACF81116CC110917C051F778091E300DC
:1020E0008078812B8093E3008091E800877F809344
:1020F000E8000E9465068091E80080FFFCCF809197
:10210000E30080688093E30082E0111183E0809314
:1021100082054DC18058823008F049C120917C056C
:1021200030917D052C3DE3E03E07A1F583E08A83F5
:102130008AE289834FB7F894DE01139620E03EE0EF
:1021400051E2E32FF0E050935700E49120FF03C0E9
:10215000E295EF703F5FEF708E2F90E0EA30C0F0B5
:10216000C7968D939D932F5F243159F74FBF809170
:10217000E800877F8093E8006AE270E0CE01019674
:102180000E9417078091E8008B778093E8000FC1C9
:10219000C096E7CF80917E0590917F05432F55270C
:1021A0004330510509F44AC078F54130510509F42E
:1021B0007AC08BE590E0E7EEF4E04230510509F09B
:1021C000F6C02091E800277F2093E8002091800549
:1021D000309181058217930708F49C0140E0211596
:1021E000310509F065C0411163C08091E80082FDAE
:1021F000C9CF80918205882329F2853019F2809118
:10220000E80083FFF2CFBECF4132510509F43CC054
:102210004232510509F0CBC08330910508F0C7C0A8
:10222000FC01EE0FFF1FE258FC4F0190F081E02D02
:1022300085589C4FDC018C9190E01AC033272130E7
:102240003105D1F02115310561F02230310509F059
:10225000AEC0E4E5F5E0E4918E2F90E0E4E5F5E032
:1022600007C0E0EBF5E0E4918E2F90E0E0EBF5E0C5
:10227000009709F49CC0A5CFEEE9F5E0E4918E2F1C
:1022800090E0EEE9F5E0F4CF8330910508F08FC0DF
:10229000880F991FFC01EC57FC4F0190F081E02D55
:1022A00089E090E08ECF82E190E0E2E4F5E089CF32
:1022B00080918205882309F465CF853009F462CFC7
:1022C0008091E80083FD5ECF8091E80082FD8DCF94
:1022D0008091E80080FF83CF9091F3008091F2001D
:1022E0002115310519F08830910550F041E008972B
:1022F00009F040E08091E8008E778093E8006FCF8E
:1023000044914093F1003196215031090196E8CF74
:10231000803809F04CC08091E800877F8093E80006
:10232000809179058093F1009DCE811140C010917C
:102330007C051230E0F58091E800877F8093E8000B
:10234000109379050E946506112311F084E005C001
:102350008091E30087FDFACF81E08093820542E01F
:1023600061EC81E00E94840642E261EC84E00E941C
:10237000840642E261EC82E00E94840642E260EC64
:1023800083E00E94840613C080917C05813079F43B
:1023900081E0933009F080E0809378051092E900A5
:1023A0008091E800877F8093E8000E946506809115
:1023B000E80083FF0AC08091E800877F8093E800EF
:1023C0008091EB0080628093EB00AA960FB6F894A0
:1023D000DEBF0FBECDBFDF91CF911F910895CF9388
:1023E000DF93682F81E06A3019F06D3029F480E0C6
:1023F000DF91CF910C947E1280919007909191077C
:1024000026E0FC01AAE8B7E001900D922A95E1F7D9
:10241000603E08F45AC026E0FC0111922A95E9F7C3
:10242000C0919007D091910746E050E0BE018AE844
:1024300097E00E9444319E012A583540892B41F192
:10244000C90145E0969587954A95E1F741E050E04E
:10245000BA0102C0660F771F8A95E2F7CB0160913F
:10246000880570918905862B972BB9016B5F7F4F8B
:10247000E5E076956795EA95E1F702C0440F551FB0
:102480006A95E2F7842B952B9093890580938805B4
:102490002A5F3F4F40918705642F70E0C9010E9479
:1024A0007330481B463010F4240F311D211572E0A3
:1024B000370710F030E020E026573A4F309391076D
:1024C00020939007DF91CF910895F6E06F9FB001C0
:1024D00011246C547A4F46E050E00E943B31A0CF6B
:1024E000CF93DF93EC01FE018491811103C0DF9152
:1024F000CF9108950E94EF112196F5CFCF93382FF9
:10250000E0919007F0919107EA58F54020918705F6
:10251000622F70E0CF010E947330281B822F33237B
:1025200061F066E00E946730C82FC15010F4CF916F
:10253000089580E20E94EF11F8CF9F01280F311D0E
:102540002115324018F080E0F0E0E0E08E0F9F2F80
:10255000911D86579A4F9093910780939007E7CFEC
:10256000CF92DF92EF92FF920F931F93CF93DF935F
:102570006C017B0164E670E088E70E94842FEC0127
:1025800097FD12C010E000E0F601E00FF11F84910A
:1025900064E670E00E94E02FEC01892B29F40F5FC4
:1025A0001F4F0E151F0581F70E946330CE01DF918A
:1025B000CF911F910F91FF90EF90DF90CF900895F2
:1025C000CF93C0915805809159058823D1F00E947E
:1025D0008A07605A75418F4F9F4F609354057093DF
:1025E00055058093560590935705C11108C062E0C8
:1025F00070E080EC93E00E94B012892B29F0C0912A
:1026000058058C2FCF91089581E080935805F7CF1E
:10261000CF93DF9300D00F92CDB7DEB790918205B4
:10262000943011F589837B836A839093E9008FEF5F
:102630009091E800815095FD06C095ED9A95F1F7CF
:1026400000008111F5CF8091E80085FF0DC050E0BA
:1026500040E063E070E0CE0101960E941306809195
:10266000E8008E778093E8000F900F900F90DF9135
:10267000CF910895BC0184E00C940813BC0183E061
:102680000C940813CF93DF93EC0181E08093E90071
:102690008FEF9091E800815095FD06C095ED9A95D9
:1026A000F1F700008111F5CF8091E80085FF14C09B
:1026B00050E040E068E070E0CE010E941306809197
:1026C000E8008E778093E80088E0FE01AFE6B5E091
:1026D00001900D928A95E1F7DF91CF910895CF9304
:1026E000C82F0E945809C93349F42FEF87EE93E0B1
:1026F000215080409040E1F700C000008C2FCF9126
:102700000C941F09539A3BB1377F2BB128604FB708
:10271000F89486EA93E0FC015191CF0168E02BB96F
:10272000000000C057FF3BB9550F000000C000C0BB
:1027300000C03BB900C06A9591F7F4E088349F0768
:1027400051F74FBF8FE594E00197F1F700C000000B
:1027500008958091A003811111C08091D8008061FB
:102760008093D8008AE18A95F1F700C09091D90052
:10277000892F817090FF82E08093A00381E0909187
:10278000A003913009F080E008958F929F92AF925C
:10279000BF92CF92DF92EF92FF920F931F93CF934E
:1027A000DF9380912101C4E0D0E0882311F0D0E0D4
:1027B000C0E080EFC82E82E0D82EAE01445F5A4FB1
:1027C0007A018A01912CAA24A394B12C25E0822EAF
:1027D000F60181916F01E82FE295EF70F0E021A101
:1027E0008F70A50102C0440F551F8A95E2F7CA01F8
:1027F000922F982B91A392A18095892382A350EACE
:102800005A95F1F7EDE6F3E020E050E040E0319139
:10281000A32FA295AF70B0E090968C9190E03F709E
:1028200002C0959587953A95E2F780FD3CC0C501B9
:10283000042E01C0880F0A94EAF7282B4F5F5F4FE0
:102840004630510521F7F8018081821729F0208355
:1028500080920401992493940E94FD0E0F5F1F4FF4
:10286000F4EFCF16F2E0DF0609F0B2CF8091040159
:10287000882359F08150809304018823B1F08FE9B7
:102880009FE00197F1F700C00000892DDF91CF9103
:102890001F910F91FF90EF90DF90CF90BF90AF907E
:1028A0009F908F90089580E0C8CFCC59DA4F84E094
:1028B000F70191917F0199938150D1F7E6CFCF93A2
:1028C00084E090E00E940934C82F81E290E00E94E9
:1028D0000934982F8C2FCF9108950F931F93CF9386
:1028E000DF93C42FD0E0CC0FDD1F2CE0629FC00D22
:1028F000D11D112430E6839FC00DD11D1124CE01BE
:1029000086960E940934082F10E0102F0027CE0170
:1029100087960E9409349801282BC901DF91CF9135
:102920001F910F910895462F843038F4783028F4A1
:10293000663018F4672F0C946D1490E080E00895D1
:10294000CF93DF930E949314EC0182389105A9F193
:10295000D8F58133910509F496C048F5893291057F
:1029600009F48AC08A9709F495C0C11522E5D207F7
:1029700008F0B6C0C11531E5D30708F026C1C83E3E
:10298000D10508F09CC0C03ED10560F5C83AD1051C
:1029900008F087C0C53AD10508F0EFC0C130D105B5
:1029A00009F12097F9F0C430D105E0F440C0853337
:1029B000910509F45AC0C997C1F680911405837036
:1029C00089F0C0EED0E00EC0833E910599F170F41D
:1029D000803E910501F1823E910539F68091140502
:1029E00082FD21C0CE01DF91CF910895863E9105F1
:1029F00061F1873E910571F1843E910509F0B5CFF3
:102A00008091150581FFEECF80911405C7EED0E0CF
:102A100084FD0DC0E7CF8091140580FD07C1909122
:102A2000150590FFDFCFC3EED0E084FFDBCFD0E011
:102A3000C0E0D8CF8091140582FDFBC090911505B0
:102A400090FDBFCF84FFCECFF2CF8091140583FDE0
:102A5000DDCFC8CF8091140583FDEEC090911505A0
:102A600091FFF0CFC4EED0E0BDCF8091140585FF7B
:102A7000B9CFC9E2D0E0B6CF8091140585FFB2CFBF
:102A8000C5E3D0E0AFCF8091140586FFABCFCAE29B
:102A9000D0E0A8CF8091140586FFA4CFC1E3D0E099
:102AA000A1CFCF3BD10518F6C85AD0E0CC0FDD1F1F
:102AB000C15CDC4F0990D881C02DD46493CFC1157F
:102AC00040E5D40708F064C0C11580E4D80708F0D9
:102AD0005CC0CE019A9581159F4108F483CFA7CFA2
:102AE000C11536E5D30718F5C11545E5D40708F03B
:102AF00084C0C11584E5D80708F07AC09C2F96954C
:102B000096959E0123703327C115D34508F462C002
:102B1000C1E0D0E002C0CC0FDD1F2A95E2F730E221
:102B2000939FC0011124C82BD92BDA685BCFC11544
:102B30008AE5D80778F4C11599E5D90708F068C087
:102B4000C11528E5D20708F472CFDC2FCC27C06F5F
:102B5000D06A48CFCE0190568115904208F067CFD9
:102B60008D2F8F710E94BA0E90E0982F88278827AA
:102B70009F719C012C2BE90149C0C55AD0E0C45C6F
:102B8000DC4FC881D0E0D0642DCFDF70D06A2ACF6F
:102B9000CE01E4E096958795EA95E1F783702C2FB6
:102BA00026952695237040E2249F90011124382B0E
:102BB0008C2F8370C1E0D0E002C0CC0FDD1F8A955E
:102BC000E2F7C22BD32BDC680DCFDC2FCC27C16FF3
:102BD000D06A08CFC1E0D0E002C0CC0FDD1F2A953B
:102BE000E2F720E2929FC0011124C82BD92BEBCF32
:102BF000DC2FCC27C46FD06AF5CE8C2F0E94BA0E82
:102C0000C82FD0E0DC2FCC27CC27DF71D062EACEF2
:102C10008C2F8F700E94BA0E34E0D695C7953A95E6
:102C2000E1F7CF709C2FEC01D069DCCEC9E3D0E096
:102C3000D9CEC2EED0E0D6CEC6EED0E0D3CEBF9293
:102C4000CF92DF92EF92FF920F931F93CF93DF9378
:102C50008C01C0908305D0908405E0908505F090AC
:102C600086058091DB049091DC04A091DD04B09195
:102C7000DE04C82AD92AEA2AFB2ACFE1D0E0BC2EFA
:102C8000D701C6010C2E04C0B695A79597958795D8
:102C90000A94D2F780FD0EC0219788F7B12C8B2DB6
:102CA000DF91CF911F910F91FF90EF90DF90CF9028
:102CB000BF900895B8018C2F0E94A014019761F372
:102CC000EECFCF93DF93EC010E941F16BE01DF9180
:102CD000CF910C94A0140E946116292F2F70929509
:102CE0009F7092509E3078F4E92FF0E0E654FB4C50
:102CF0000C949B30803F19F020F4883E20F481E052
:102D00000895843FE1F380E00895883EC0F3813F59
:102D1000D1F7F5CF822F86958695869508956F9287
:102D20007F928F929F92AF92BF92CF92DF92EF925B
:102D3000FF920F931F93CF93DF9380E4C82E82E01E
:102D4000D82E92E9E92EF12CE701C056D1093601BF
:102D50001BC0F50185909490692DC8010E9427340D
:102D6000682DC80101960E94273482E0A80EB11C8C
:102D70000E5F1F4FC017D10761F78CE0680E711C02
:102D80002C96CE15DF0529F08E010C501109530148
:102D9000E0CF7E0180E6E80EF11C80E6C80ED11C73
:102DA00082E1E81682E0F80679F6DF91CF911F9173
:102DB0000F91FF90EF90DF90CF90BF90AF909F90DA
:102DC0008F907F906F900895CF93DF93C6EAD1E004
:102DD00060E0CE010E9427342196C11584E0D80717
:102DE000B9F7DF91CF910895CF93C82F6FEF81117D
:102DF00060E282E290E00E9427346FEFC11162E14D
:102E000083E290E00E9427346FEFC11169E284E20F
:102E100090E0CF910C9427346CEE7EEF90E080E050
:102E20000E94453460E082E090E00E94273460E038
:102E300083E090E00E9427341092DB041092DC04BF
:102E40001092DD041092DE0460E084E090E00E94C5
:102E5000273460E081E290E00E94273460E085E062
:102E600090E00E94273460E086E090E00E942734E2
:102E70006FEF87E090E00E94273440E050E0BA0115
:102E800088E090E00E94393460E08DE090E00E949C
:102E9000273440E050E0BA0188E190E00E943934E4
:102EA00060E087E190E00E94273440E050E0BA0102
:102EB0008CE190E00E94393460E080E290E00E9472
:102EC000273440E050E0BA0188E190E00E943934B4
:102ED00040E050E0BA018FE090E00E94393440E0D9
:102EE00050E0BA0183E190E00C94393445E050E0C1
:102EF0006CE170E086E997E00C94173490919607A6
:102F0000937089F0811107C0946090939607109296
:102F100034010C947617883110F09C65F6CF880F39
:102F2000880F982BF2CF0895809196078695869505
:102F3000815009F487E10C947E178091960786955D
:102F400086958F5F883108F081E00C947E17909110
:102F50009607937059F080939707609398074739C5
:102F600008F046E9409399070C9476170895E6E92E
:102F7000F7E0438128E0421B08F440E08181628150
:102F800090E00C94A717E6E9F7E0438128E0420FB0
:102F900008F44FEF8181628190E00C94A717E6E975
:102FA000F7E0628128E0621B08F460E081814381E0
:102FB00090E00C94A717E6E9F7E0628128E0620F41
:102FC00008F46FEF8181438190E00C94A717E6E944
:102FD000F7E08181438162818850990B0C94A71797
:102FE000E6E9F7E0818190E04381628108960C94E4
:102FF000A717E6E9F7E024813AE0230F08F42FEF62
:1030000024830C947617E6E9F7E024813AE0231B49
:1030100008F420E024830C947617E6E9F7E085E0D5
:10302000808380910A0290910B02A0910C0281830F
:103030009283A3838FE784830C9476174F925F92D9
:103040006F927F928F929F92AF92BF92CF92DF92B8
:10305000EF92FF920F931F93CF93DF93C090A10342
:10306000D090A203E090A303F090A4038FB7F8944C
:103070004090DF045090E0046090E1047090E2041E
:103080008FBF530142018C189D08AE08BF080E94F3
:103090008A076093A1037093A2038093A303909384
:1030A000A403A091E304E3EEF4E02A2F30E04FEF15
:1030B000C40ED41EE11CF11CC418D508E608F7089C
:1030C000A31329C02093E30430919607A32FA37084
:1030D0004A2E19F0432E4694469420913401213013
:1030E00009F443C0222351F1223009F442C32330B2
:1030F00009F448C3DF91CF911F910F91FF90EF909A
:10310000DF90CF90BF90AF909F908F907F906F9007
:103110005F904F900895418D528D2A01712C612C42
:10312000C414D504E604F70420F421503F5F32961E
:10313000C7CF480D591D528F418FF8CF10923501DE
:1031400060939207709393078093940790939507E9
:1031500089E2E3EEF4E0ABE9B7E001900D928A95E5
:10316000E1F781E080933401C5CF9091080181E0BF
:1031700049120AC0932F93702091070130E081E03B
:103180009217130609F480E0817080933701B7E14C
:10319000B41540F0E42DF0E0E853FB4C0C949B3068
:1031A000811102C080E066C040E060E080E00E94E3
:1031B000D409F8CF009135018BE0089F002D112430
:1031C000CBE0C00FFC2EC73310F026E3F22E609147
:1031D000970770919807809199070E94C40BE62E7B
:1031E000D72EC82E10E00F1528F081E0C63308F462
:1031F00041C0D8CFF801EC52FE4F8081909136014A
:10320000892331F02C2D4E2D6D2DC8010E94D60939
:103210000F5F1F4FE8CF009135018BE0089F002D15
:1032200011249BE0F92EF00EEF2CC6E3CF1510F41D
:1032300086E3E82ED090980710919907C0919707E0
:103240006C2F7D2D812F0E94C40BC62EB72EA82E69
:1032500060919A076C0F7D2D812F0E94C40BC62FA1
:10326000D72E982E10E00E15B8F081E0D5E3DF15CB
:1032700008F498CF909135019F5F909335018111AB
:1032800039CF82E08093340180913701811132CFB0
:10329000411030CF83E066CFF801EC52FE4F9081B1
:1032A00080913601892359F0292D4C2F6D2D90FDE9
:1032B00003C02A2D4C2D6B2DC8010E94D6090F5F2B
:1032C0001F4FD1CF009135018BE0089F002D1124B5
:1032D000CBE0C00FEC2EC73310F016E3E12ED090F8
:1032E0009807C090990720919A07D0E4FD2E3F2DB2
:1032F000329F312D1124F32E10E00E1508F075CFFA
:10330000F801EC52FE4F8081909136018923B9F08B
:10331000F801EE0FFF1FE85CFE4F81A982958F70C8
:10332000609197078F9D600D11247D2D8C2D0E943B
:10333000C40B462F282F672FC8010E94D6090F5FA4
:103340001F4FDBCF009135018BE0089F002D11242A
:10335000CBE0C00FEC2EC73310F0A6E3EA2ED090DE
:103360009807C090990720919A07F0E4FF2E4F2DFF
:10337000429F412D1124F42E10E00E1508F035CF98
:10338000F801EC52FE4F8081909136018923D9F0EB
:10339000F801EE0FFF1FE85CFE4F60A9F69EB0013A
:1033A0001124E5E075956795EA95E1F78091970717
:1033B000680F7D2D8C2D0E94C40B462F282F672F60
:1033C000C8010E94D6090F5F1F4FD7CFC0913501AA
:1033D0008BE0C89FC02D11241BE01C0F012F173359
:1033E00008F006E3E0909707F0909807D0909907CF
:1033F00060919A076695669566958091920790917F
:1034000093070E94BA0BE82F86FDE0952E2F2F70B0
:1034100086FD2F5FE695E695E695E670F0E0E850CC
:10342000FD4F9181929F902D212D112492959F7097
:103430002295207F922B2081920F87FD9195892FD5
:1034400087FD8195880F282F3D2D239F212D112445
:10345000822FB7010E94C40BD62EC72EB82EEC2E99
:10346000F12CE01628F081E0163308F403CF9ACE51
:10347000F701EC52FE4F808190913601892331F0A3
:103480002B2D4D2D6C2DC7010E94D6094FEFE41A4C
:10349000F40AE7CF85E99AE00E94700EEBCE8BE646
:1034A0009AE0FACF8CE69BE00E94100EE3CE8DE40A
:1034B0009BE0FACF82E39BE00E948F0DDBCE86E19A
:1034C0009BE0FACF85E09BE0EFCF81EF9AE0F4CF6D
:1034D000009135019BE0099F002D11246BE0762EB1
:1034E000700EC72D90E3971508F4C0E3882361F0B0
:1034F00040E060E080E00E94D409EEE4F4E080E384
:10350000DF011D928A95E9F710E0CC2ED12C46E020
:10351000642ED5E55AEA552E0C151D0534F081E0D0
:10352000BFE2B71508F0A6CE3DCE4801B7E08B222A
:103530009924580133E0B594A7943A95E1F7689C33
:10354000C001699C900D1124FC01E25BFB4FEA0D68
:10355000FB1DC081885C9E4FFC01EA0DFB1D808134
:103560008F3F59F1E82EF12CF701EC52FE4F80818C
:1035700090913601892309F13C2F2D2F321B08F43D
:1035800030E070919807252D4C2F240F08F42FEF71
:1035900040919907822F880F820F8E5F282F249FDA
:1035A000212D1124822F652D631B0E94C40B462FF1
:1035B000282F672FC7010E94D6093C2F41E0341BFA
:1035C00008F430E0689CC001699C900D1124825B76
:1035D0009B4FA80EB91ED5013C930F5F1F4F9CCF88
:1035E000882371F040E060E080E00E94D409EEE4BE
:1035F000F4E080E3EF0119928A95E9F71092A503B0
:1036000010E000E077247A9480EDA82EB12C90ECA5
:10361000692E2FE2822E912C7801C0E09801225B66
:103620003B4F69018091A5038C2BB1F50E942B3192
:10363000853595408CF5F6017082F701E85CFE4F08
:10364000E081EF3FB1F0D701A25BBB4F2C91F0E0DE
:10365000213D58F1205D330B629EC001639E900DA9
:103660001124B4010E947330262F4FEFCF010E9426
:10367000D609CF5FF6E0EF0EF11CC83099F60F5F68
:103680001F4F0630110541F68091A5038F5F8D31E4
:10369000B0F48093A50386CDF701E25BFB4F8081F8
:1036A00081508E3F50F68083C8CF279DC0011124E2
:1036B000B5010E947330462F20E060E0D7CF109212
:1036C000A50322E734E087E09EEFEEE4F4E0D901C1
:1036D000873021F442A54F3F09F492A74D914F3F07
:1036E00041F4BD0161507109EB01988315964C932B
:1036F00015973196D4E0E435FD0751F781502650F7
:1037000031098111E2CF4ECD84E69AE00E941E0D70
:10371000B1CD8EE59AE0FACF80919B0721E0382F5A
:10372000321B08F430E0832F65E47AE00E94580CE5
:10373000A1CD65E47AE080E0F9CF80919B0721E09C
:10374000482F421B08F440E0842F6AE07AE0EECF75
:103750006AE07AE0F0CF80919B0721E0382F321B9E
:1037600008F430E0832F68ED79E0E0CF68ED79E090
:10377000E2CF40920801832F8370809307010E945B
:10378000821388CD409192075091930760919407DE
:10379000709195072FB7F8948091DF049091E00421
:1037A000A091E104B091E2042FBF841B950BA60BFE
:1037B000B70B4097A105B10508F49CCC10923401D9
:1037C00099CCCF92DF92FF920F931F93CF93DF9309
:1037D00080913105882309F49AC00E94C513F82E00
:1037E00080912101C4E0D0E0882311F0D0E0C0E056
:1037F000CC59DA4F44E050E0BE018CE993E00E94DE
:1038000044316C0188819981AA81BB8180939C039A
:1038100090939D03A0939E03B0939F0380912101F9
:10382000D0E0C0E0882311F0C4E0D0E09091060120
:103830008091050110E000E0981759F082E090E0D7
:103840000E94002F8C01892B21F480910501809327
:1038500006018091940390919503C82AD92A90E09B
:1038600080E0CD2811F081E090E00E94002F892BAC
:1038700031F5809197038093050110929503109282
:1038800094030115110511F10230110509F428986E
:103890005D98809196038F5F80939603863040F108
:1038A00080912101F0E0E0E0882311F0E4E0F0E015
:1038B000EC59FA4F108211821282138219C081E0F2
:1038C00090E09093950380939403DBCF289ACC5992
:1038D000DA4F8091980390919903A0919A03B09147
:1038E0009B0388839983AA83BB835D9A1092960376
:1038F0000E941E18C1E0F11001C0C0E08C2FDF91C2
:10390000CF911F910F91FF90DF90CF9008950E946B
:10391000C51390912101E4E0F0E0992311F0F0E06B
:10392000E0E0EC59FA4F40E030E020E0D901A85641
:10393000BC4F5C919191591341E09C932F5F3F4F95
:103940002430310599F790919703940F9093970342
:10395000C1E0811101C0C0E080912101811102C04C
:1039600030E020E02C593A4F80919C0390919D03C8
:10397000A0919E03B0919F03F90180839183A2835C
:10398000B3830E941E18BACF1F920F920FB60F92E8
:1039900011242F933F934F935F936F937F938F9354
:1039A0009F93AF93BF93CF93DF93EF93FF93D09108
:1039B000E900DF708091EC00C82FC17080FDC0E885
:1039C0001092E9008091F000877F8093F000789456
:1039D0000E94290F1092E9008091F0008860809386
:1039E000F000CD2BCF70C093E900FF91EF91DF91F4
:1039F000CF91BF91AF919F918F917F916F915F9187
:103A00004F913F912F910F900FBE0F901F901895DF
:103A10001F920F920FB60F9211242F933F934F9343
:103A20005F936F937F938F939F93AF93BF93EF9326
:103A3000FF938091E10082FF09C08091E20082FF44
:103A400005C08091E1008B7F8093E1008091DA00D6
:103A500080FF24C08091D80080FF20C08091DA00D0
:103A60008E7F8093DA008091D90080FF9FC080E133
:103A700089BD82E189BD09B400FEFDCF81E080935C
:103A8000820580916C05811109C00E94C3050E94C6
:103A9000B6068091E20084608093E2008091E100AC
:103AA00080FF17C08091E20080FF13C08091E20088
:103AB0008E7F8093E2008091E20080618093E2003B
:103AC0008091D80080628093D80019BC85E08093F3
:103AD00082058091E10084FF2DC08091E20084FF87
:103AE00029C080E189BD82E189BD89B5982F917097
:103AF00080FFFBCF8091D8008F7D8093D80080918C
:103B0000E1008F7E8093E1008091E2008F7E8093C0
:103B1000E2008091E20081608093E200809179056B
:103B2000882309F449C084E0809382050E941E0F17
:103B30000E94AD098091E10083FF27C08091E200DF
:103B400083FF23C08091E100877F8093E10082E0C2
:103B500080938205109279058091E1008E7F809399
:103B6000E1008091E2008E7F8093E2008091E2008C
:103B700080618093E20042E060E080E00E94840681
:103B80008091F00088608093F000FF91EF91BF91E9
:103B9000AF919F918F917F916F915F914F913F91E5
:103BA0002F910F900FBE0F901F90189519BC109277
:103BB000820510926C0572CF8091E30087FD93E03F
:103BC00090938205B3CF78941F921FB61F92112451
:103BD0008F939F93AF93BF938091DF049091E00404
:103BE000A091E104B091E2040196A11DB11D809362
:103BF000DF049093E004A093E104B093E204BF914A
:103C0000AF919F918F911F901FBE1F9018952FB756
:103C1000F8948091DF049091E004A091E104B091C8
:103C2000E2042FBF08950F93CF93DF93C42FD22FB9
:103C3000FC018281882399F040937E040E94071E34
:103C40009093490480934804C77081E001C0880FB5
:103C5000CA95EAF7DF91CF910F910C944F088091AC
:103C60007E04841340C020914804309149049FB7DA
:103C7000F8944091DF045091E0046091E104709168
:103C8000E2049FBF421B530B483C510560F5C0E264
:103C9000CD0F8D17C1F090E2980F983048F48770DF
:103CA00091E001C0990F8A95EAF7892F0E94440894
:103CB000C83048F481E09D2F977001C0880F9A9515
:103CC000EAF70E944F08802F0E946F13C83090F4CB
:103CD000D77081E001C0880FDA95EAF7DF91CF91C4
:103CE0000F910C944408C77081E001C0880FCA95F9
:103CF000EAF7F4CFDF91CF910F9108954F925F9241
:103D00006F927F928F929F92AF92BF92CF92DF92EB
:103D1000EF92FF920F931F93CF93DF9300D000D0C9
:103D20000F92CDB7DEB77C01DC0113968D919C918B
:103D30001497892B39F08C9111969C9189238F3F90
:103D400009F031C70F900F900F900F900F90DF91F7
:103D5000CF911F910F91FF90EF90DF90CF90BF9088
:103D6000AF909F908F907F906F905F904F9008954D
:103D70000E941F16182F682F89819A810E940C08B3
:103D800069817A81812F0E9493148C01F7018281CD
:103D9000882389F081812081F6E08F9FC001112462
:103DA000885C9E4F820F911DDC01AC90BFEFBB245D
:103DB000B394AB1201C0B12C7090E304CB2CD12C86
:103DC000C601870D911D09976CF188E090E04C01C8
:103DD0008C189D08B6016C517B4FA40184EE94E0D1
:103DE0000E945131B60164517B4FA4018CEE94E0E6
:103DF0000E945131A401440F551FB601660F771F71
:103E000064507B4F8CEF94E00E945131B6016C50AE
:103E10007B4FA40184EF94E00E9451318FEF870D16
:103E20008093E3048091E30490E02A2D30E0D901EF
:103E3000AA0FBB1FBD0168597E4F9D0127593E4FF8
:103E400041E0480F9B1508F473C08093E304809110
:103E500096078C7F883309F0B8C0F7017181208103
:103E600099249A94970EF1E0F70F88248A94820E91
:103E7000E1E0E20FA72EB12C821688F446E04A9DBD
:103E8000C0014B9D900D1124825B9B4F880D911DAD
:103E9000DC014C9150E1450F08F44FEF4C93422F59
:103EA00050E066E06A9DC0016B9D900D1124825B1D
:103EB0009B4F5C01A40EB51ED5016C91B0E23B2F67
:103EC000630F08F46FEFD5016C93E63058F48E0F52
:103ED000911DDC016C91B0E13B2F630F08F46FEF93
:103EE000DC016C93F83008F438C0692D70E082165C
:103EF00008F4A4C026E0269FC001279F900D11243E
:103F0000825B9B4FDC01A40FB51F2C9130E1230F86
:103F100008F42FEF2C93E63008F057C0E80FF92F84
:103F2000F11D20813DE0230F08F42FEF20834DC0C9
:103F300090E0FC01ED51FB4FDB015C915183D90115
:103F40005C915187A18A880F991FFC01ED51FB4FAD
:103F5000128E118E91E0842F73CFCF2ED12C82162A
:103F600090F466E06C9DC0016D9D900D1124825B04
:103F70009B4F880D911DDC016C91FDE03F2F630F7D
:103F800008F46FEF6C9366E06C9DC0016D9D900D21
:103F90001124825B9B4F6C01C40ED51ED6016C911F
:103FA000F0E13F2F630F08F46FEF6C93E63050F4AD
:103FB0008E0F911DDC016C91FDE03F2F630F08F423
:103FC0006FEF6C93971608F490CFF70182818823E6
:103FD00009F481C5C80182519F45409708F087C503
:103FE0008FEF93E00E940934025156EA852E9924FE
:103FF0009394882309F441C08091D604877009F412
:10400000A1CEF7018281882309F49CCE82E00F9033
:104010000F900F900F900F90DF91CF911F910F9104
:10402000FF90EF90DF90CF90BF90AF909F908F90D8
:104030007F906F905F904F900C94DC0826E0269F55
:10404000C001279F900D1124825B9B4FDC01A80DBE
:10405000B11D2C913DE0230F08F42FEF2C934ACF94
:104060008114F4E09F0641F2C4010E9409348111D9
:1040700001C001502FEF821A920A0111F1CF1C8268
:104080001B82662463944AE0542E84010F5F1F4F05
:10409000C4010E94093489831A82882309F4ACCFB1
:1040A0009FEF980F933020F58A83698232E0830E68
:1040B000911CC8010E9409348B83882309F49CCF8A
:1040C0008E010F5F1F4FD8012C912223F1F2213076
:1040D00009F046C011969C91119712968C919130DF
:1040E00049F40E5F1F4F0E946F130F5F1F4FEBCFFE
:1040F0004801E6CF923029F40E5F1F4F0E94580905
:10410000F4CF933029F40E5F1F4F0E941F09EDCFAB
:10411000943019F00F5F1F4FE8CF0E5F1F4F30E054
:1041200020E0B8016F5F7F4FF80141818053990B08
:104130008A30910550F021503109B8F28FE99FE0A3
:104140000197F1F700C00000F6CF529EF001539E98
:10415000F00D11249C012E0F3F1F842F8B01E1CF06
:10416000E22FF0E0EE51FC4F7490822F86958695F9
:10417000869590E0FC01EE52FC4FA4902770B12C84
:10418000022E02C0B594A7940A94E2F7A1E0AA22F5
:10419000BB24FC01EE53FC4FC490D12C02C0D5943B
:1041A000C7942A95E2F7B1E0CB22DD24A114B10433
:1041B00019F081EE0E945809C114D10419F086EE5D
:1041C0000E945809872D0E946F13CD2819F086EEA2
:1041D0000E941F09AB2809F488CF81EE96CF81E0B9
:1041E0000E94F40803C081E00E94B9080E949D0863
:1041F00003CF82E0F5CFC80191C4063FACE51A07B2
:1042000009F468C008F460C0073FECE51E0709F434
:1042100067C0D70112969C91992309F4D7C41092D4
:104220007E040230BCE51B0708F441C10631ECE511
:104230001E0738F098012B5F3C452930310508F006
:1042400036C10E945F1490931505809314050031C8
:10425000FCE51F0709F4FAC008F08BC008303CE504
:10426000130709F4E5C008F05AC004309CE51907AB
:1042700009F4D6C008F040C00230BCE51B0709F4C1
:10428000C9C080911405826003301C4509F4C5C083
:10429000609114051091150584E090E00E94273488
:1042A000612F81E290E00E9427340E941E0FA4CE6D
:1042B00007E225EE45EE69ED7CE571C406E221EEEC
:1042C00040EE64EF7CE56BC407E225EE44EE65EF5B
:1042D0007CE565C406E221EE42EE66EF7CE55FC454
:1042E00007E225EE46EE67EF7CE559C408E221E0DF
:1042F00045EE6AED7CE553C480911405806106307B
:10430000FCE51F0709F489C0809114058860073017
:104310001C4508F482C08091140580627EC08091A3
:1043200014058D7F0C303CE5130709F476C070F45A
:10433000809114058C600A309CE5190709F46DC062
:1043400008F47AC0809114058E7F67C080911405AF
:10435000877F0E30BCE51B0709F45FC08091140510
:104360008B7F0F301C4508F458C0809114058F7E58
:1043700054C00C3FFCE51F0709F456C030F503316B
:104380003CE5130709F46AC078F401319CE519078C
:1043900009F460C002311C4509F07ACF0E941E0F5B
:1043A000809114058F7739C00531BCE51B0709F4EE
:1043B0005DC008F471C08091150581600B3F1C45FC
:1043C00009F066CF8093150563CF01152DE512071F
:1043D00009F448C070F40E3F8CE5180799F18091FC
:1043E00015058E7F0F3F1C4568F38091150583608E
:1043F000E9CF0230ADE51A0709F457C008F442C00E
:1044000060E003301D4509F043CF8EE090E00E944C
:1044100027343ECF8091140581608093140538CFF6
:10442000809114058460F9CF809115058260CACF10
:10443000809114058064F1CF0E941E0F80911405B5
:104440008068EBCF809115058D7FBCCF80911405DE
:104450008F7DE3CF809114058F7BDFCF8091140592
:10446000837FDBCF809115058C7FACCF80911405C5
:1044700082FB992790F921E0922790FB82F990FB2B
:1044800083F9CBCF80911505982F909591708E7FF1
:10449000892B90FB81F996CF0E941E0F90911405F5
:1044A000892F97FB87F98058B8CF61E0AECF809114
:1044B000D9040631FCE51F0709F09FC38A7A91E011
:1044C00009F490E090937F0469E2811165E38AE842
:1044D00093E00E9496070E94B6078ECD85E37FC3C6
:1044E0008091960791E08927809396071092340176
:1044F0000E94761781CD44E957E16DE977E10E948A
:10450000B9097ACD4DE957E164E977E1F8CF47EE93
:1045100057E160EF77E1F3CF40EF57E167EE77E1E6
:10452000EECF4FEC57E16BED77E1E9CF4BED57E183
:104530006FEC77E1E4CF47EB57E163EC77E1DFCF56
:1045400043EC57E167EB77E1DACF43E058E169EFFD
:1045500077E1D5CF49EF57E163E078E1D0CF81E053
:104560000E947E1749CD85E0FBCF8CE0F9CF011585
:104570002CE5120709F447C00F3D1C4509F450C053
:10458000D7010D911C91992309F44DC0C8010E94D7
:104590001F16D82E682FC8010E940C08B8018D2D57
:1045A0000E94A0148C01882EF701A580A2943FE000
:1045B000A322D280D1101092D8048091D6048770A3
:1045C00099F0DD2089F0812F807F803421F080E216
:1045D000800F883048F082E00E94DC088091D60489
:1045E0008770CC24C3948111C12CB12EB2942FE0DA
:1045F000B222FBE0FB1508F450C0EB2DF0E0E052D6
:10460000FB4C0C949B300E941E0F8FEF94E3ACE0A8
:1046100081509040A040E1F700C000000E9479075F
:104620000E940C17E9CCC8010E94E307D82EB6CF30
:10463000212F2F70A22E107F19F0A29490EFA922A3
:10464000DD20C9F0AA2069F080E2800F883010F0E8
:1046500081100BC08091D904A82AA092D9040E948D
:10466000B607802F0E94580918C08091D804A82A44
:10467000A092D804F4CF802F0E941F09AA2069F0CD
:10468000A094005E083010F081103CC08091D904E5
:10469000A822A092D9040E94B607EB2DE850FF0B88
:1046A000349710F40E94AD09CC2009F44BCB8091D3
:1046B000D60480FD47CBD70112961C92859585952F
:1046C00085950E94F408C7010E947E1E8091D60441
:1046D0008595859585950F900F900F900F900F9071
:1046E000DF91CF911F910F91FF90EF90DF90CF90CE
:1046F000BF90AF909F908F907F906F905F904F9002
:104700000C94B9088091D804A822A092D804C3CFF1
:10471000312F3F70932E107F103219F0929480EF5A
:104720009822882089F081E0881679F1DD20D1F186
:10473000AA2089F1D70115968C91159780FF91CF0A
:104740008F7015968C9327C0DD2091F09091DA043C
:10475000892D892BA11003C00E944F089ECFA1E094
:10476000AA12FACF891709F498CF8093DA0495CF6B
:10477000A11006C00E94B007892D0E9444088DCF69
:10478000B1E0AB1609F489CFF5CFDD2031F0E5E0DB
:10479000EA1508F482CF892DDFCFF4E0FA1508F48A
:1047A0007CCFEACFAA2041F3B9E38B1209C0EFEF27
:1047B000F7EE23E0E150F0402040E1F700C00000B8
:1047C000802F0E941F0969CF812F8695869583705F
:1047D00061F0813009F061CFC8019370D11002C03F
:1047E00090E080E00E94590858CFC8019370D11022
:1047F00002C090E080E00E946F084FCF812F83704D
:1048000009F066C0D11049CF802F829586958770B8
:10481000880F880F602F6F70462E512C712C612CE1
:10482000082E04C0440C551C661C771C0A94D2F751
:1048300040E050E0BA0104FF0FC04FE050E060E0FC
:1048400070E004C0440F551F661F771F8A95D2F78A
:104850004095509560957095812F869586958370CB
:10486000823019F1D8F40091DB041091DC0420911E
:10487000DD043091DE04813069F044295529662930
:104880007729CB01BA0160237123822393230E94ED
:10489000150903CF402A512A622A732ACB01BA0193
:1048A0006429752986299729F2CF44295529662933
:1048B00077290091DB041091DC042091DD04309114
:1048C000DE04CB01BA016027712782279327DFCF4F
:1048D0008695DD2011F0812F8170882309F4DDCECB
:1048E000802F829586958770880F880F602F6F7054
:1048F000462E512C712C612C082E04C0440C551CE2
:10490000661C771C0A94D2F740E050E0BA0104FF1D
:104910000FC04FE050E060E070E004C0440F551F4E
:10492000661F771F8A95D2F74095509560957095D0
:10493000812F869586958370823019F1D8F4009185
:10494000830510918405209185053091860581307D
:1049500069F04429552966297729CB01BA016023DA
:104960007123822393230E94930897CE402A512AD1
:10497000622A732ACB01BA016429752986299729ED
:10498000F2CF442955296629772900918305109192
:1049900084052091850530918605CB01BA016027F9
:1049A000712782279327DFCF1F70DD2029F0812F09
:1049B0000E94F408802FD0CE802F0E944408812FBF
:1049C0000E94B9086ACE802F32EF831609F450C0D6
:1049D000381578F090EF891619F1A1EF8A1609F4CD
:1049E0003FC0DD2009F467C0A1103BCE812F8F713D
:1049F0003CC0B3EF8B1609F440C0E4EF8E12F1CF48
:104A0000DD2009F44DC01F71812F0E94F40838E0A9
:104A1000139FC001112483608093D604812F25C089
:104A2000DD20C9F0F4E0FA1508F437CE1F7161E01B
:104A300070E080E090E004C0660F771F881F991F28
:104A40001A95D2F700918305109184052091850570
:104A500030918605A4CF25E02A1508F41ECEE6CFB6
:104A6000812F8F71DD2009F4ABCF0E94F40815CEA1
:104A7000812F8F71DD20C9F3A3CF60E070E0CB01FF
:104A8000DD2009F470CF1F7161E070E080E090E0FC
:104A900004C0660F771F881F991F1A95D2F763CF3E
:104AA00081E00E94DC0881E08A1508F0F6CD82E002
:104AB0000E94DC08F2CDAA2059F0893309F080CE9B
:104AC0009FEFA7EEB3E09150A040B040E1F776CE63
:104AD000812F8F7175CF0031BFE51B0709F483CBA0
:104AE0000131EFE51E0709F03FC082E07DCB0031C8
:104AF000FFE51F0709F473CB01312FE5120709F415
:104B000078CBC80190568115E0E29E0728F0905EB0
:104B10008115904108F06FCBC801992720E28C33B2
:104B2000910520F4FC01E050FD4F20811F922F934E
:104B30009F938F93D7018C911F928F9311968C9195
:104B40001F928F938FED92E09F938F931F9288E136
:104B50008F9389E195E09F938F930E945A310FB60E
:104B6000F894DEBF0FBECDBF043FFCE51F0709F47C
:104B7000A5CB08F042CB093D3CE5130709F498CBDF
:104B80000A3D8CE5180709F4B1CB083D9CE51907EF
:104B900009F03FCB06E221EE41EE68ED7CE5C7016E
:104BA0000E94131E29CA85E0F701DE0111960190CB
:104BB0000D928A95E1F7D70112962C9189819A81FD
:104BC0002111D6C80E94E307182FDAC806311C4508
:104BD00009F0D6CC80917F04811180CC89E2ECE889
:104BE000F3E022E933E09191891303C0DF011197CB
:104BF0001C922E173F07B9F76ECC8272F801E35C66
:104C0000FC45E431F10508F0B2CCE451FB4C0C94C6
:104C10009B301F93CF93DF9380918504807FA9F40D
:104C200080918204882389F08091B704D091860412
:104C30006091800470918104A0918304B0918404F8
:104C4000C62FC72316E0D81304C0DF91CF911F9160
:104C5000089590E0109711F0CF3F19F401968770F6
:104C6000F2CF189F9001199F300D1124F901E957D7
:104C7000FB4F41814713F2CF40814613EFCF428172
:104C80004111ECCF438154814A1B5B0B483C5105D9
:104C900028F7809185048F70806180938504F901E5
:104CA000E457FB4F80818F708061808380E894E0BF
:104CB0000E947E1EDF91CF911F910C943A08AF9213
:104CC000BF92CF92DF92EF92FF920F931F93CF93F9
:104CD000DF93CDB7DEB761970FB6F894DEBF0FBE96
:104CE000CDBF8C0185E0F801DE011D9601900D928B
:104CF0008A95E1F7F80180819181E28020E8A22E77
:104D000024E0B22E609183047091840461157105D2
:104D100009F42BC13091800440918104232F242376
:104D20002F3F09F422C1C380D480F0908204F601A1
:104D3000E61BF70BFF2009F4FBC020918504522FDE
:104D4000507FE83CF10508F0BBC0511178C0FE2C43
:104D5000491321C038131FC0E1101DC02F702061FE
:104D600020938504C5010E947E1E80918504F80170
:104D700085838F2D61960FB6F894DEBF0FBECDBF31
:104D8000DF91CF911F910F91FF90EF90DF90CF9027
:104D9000BF90AF900895CD2829F0282F29232F3FC9
:104DA00009F001C120E0F22FF170DF2E20FF3DC09D
:104DB0002091B7044091860456E0241315C08D87D6
:104DC0009E878D859E850E946116292F22952F70C2
:104DD0002230F8F0243020F59F70F9F0F801958129
:104DE000907FD9F4D12C1FC030E0529FF001539F27
:104DF000F00D1124E957FB4F6181961306C06081C5
:104E0000861303C06281E61210C02F5F3F4F2770E8
:104E1000D4CF9F7011F0882329F3805E883010F37F
:104E2000C8010E947E1EFD2CA4CFEE2009F4A1CF64
:104E300080918504816080938504F12C9ACF491379
:104E400012C0381310C0E1100EC0F8012583C8014C
:104E50000E947E1E86E0F801A0E8B4E001900D9269
:104E60008A95E1F786CF8D879E878D859E850E94E6
:104E70006B16882309F1EE20F9F0809185048032C9
:104E800070F0209180043091810438872F83198637
:104E9000DB86CA868C87CE0107960E947E1E86E03E
:104EA000F801A0E8B4E001900D928A95E1F70E9424
:104EB0000926FF24F3945DCFC8010E947E1EF9CF1E
:104EC00051110AC080E894E00E947E1E86E0F50140
:104ED00011928A95E9F7B1CF49130FC038130DC06D
:104EE000E1100BC0F8012583C8010E947E1E86E0F8
:104EF000F50111928A95E9F73CCF8D879E878D85C4
:104F00009E850E946B168823B9F2EE20A9F280914B
:104F10008504803220F220918004309181043A830C
:104F200029831B82DD82CC828E83CE010196B5CF90
:104F3000E83CF105E0F6FE2CEE2009F4BDCF491364
:104F400003C0381709F486CF8D879E878D859E858F
:104F50000E946B168111A3CF80918504816080939C
:104F60008504C8010E947E1E04CFEE2009F4A4CF60
:104F70008D879E878D859E850E946B16F82E8823CF
:104F800009F49ACF86E0F801A0E8B4E001900D9210
:104F90008A95E1F780918004909181040E946116C6
:104FA0000E940926E6CE21E02E25FDCE1F93CF9349
:104FB000DF93CDB7DEB767970FB6F894DEBF0FBEAD
:104FC000CDBF4B8B5C8B6D8B7E8B8F8B1A8A198A36
:104FD00085E0FE017396DE011D9601900D928A9583
:104FE000E1F786E0FE013D96DE01179601900D92F5
:104FF0008A95E1F7CE0107960E945F26811112C0C3
:1050000086E0FE013796DE01119601900D928A9599
:10501000E1F78A859B85892B29F08F8198858923E3
:105020008F3FB1F516E08091B70490918604891303
:105030001DC067960FB6F894DEBF0FBECDBFDF91DF
:10504000CF911F91089596E0929FD001939FB00D4C
:105050001124A957BB4FFE01319601900D929A95EC
:10506000E1F7809386040E943A08DCCF819FC0015B
:10507000112489579B4F0E945F268823D1F280918B
:10508000B70490E00196877099278093B704CBCF3F
:105090002091860430E0C9010196877099274091DC
:1050A000B7044817190679F60E941E0F109286045D
:1050B0001092B70486E0E0E8F4E0DF011D928A95E3
:1050C000E9F7B0CFCDB7DEB7AD970FB6F894DEBF36
:1050D0000FBECDBF84B7877F84BF0FB6F894A89565
:1050E00080916000886180936000109260000FBE24
:1050F00080E890E00FB6F89480936100909361008F
:105100000FBE85B7806885BF85B7806885BF0E9460
:10511000C3050E94B6068091E20084608093E2009D
:105120007894809182058823A1F01091E9001F7086
:105130009091EC00892F817090FD80E8182B1092DF
:10514000E9008091E80083FD0E94290F1F701093F1
:10515000E90082E084BD93E095BD9AEF97BD80930E
:105160006E000E94A913809321010E94A91363E09D
:1051700070E0882309F44DC089E091E00E941E2E62
:1051800078940E94FD0EADE6B3E061E070E08D9191
:10519000E82FE295EF70F0E041A18F709B0101C014
:1051A000220F8A95EAF7922F9095942391A382A1DA
:1051B000822B82A323E0A337B20749F7209A559A9E
:1051C000289A5D9AACE0B5E0E4E6F5E011921D9214
:1051D00035E0EC36F307D1F70E94A913809331052F
:1051E0000E94E11B8FE39CE90197F1F700C00000EA
:1051F0000E94E11B8091640580FF10C080E00E9446
:10520000F4166FEF7FEF90E080E00E9445340E943B
:10521000790789E091E00E94272EB2CF90E080E0EC
:105220000E9411348C3E9E4F11F00E940C17109278
:105230009B078FEF9FEF9093B5078093B4079093F0
:10524000B7078093B6079093B9078093B8079093F8
:10525000BB078093BA079093BD078093BC079093D8
:10526000BF078093BE079093C1078093C0079093B8
:10527000C3078093C2071092E3049093FD048093C8
:10528000FC049093FF048093FE04909301058093A7
:105290000005909303058093020590930505809384
:1052A0000405909307058093060590930905809364
:1052B000080590930B0580930A0590E080E00E941A
:1052C00011348C3E9E4F21F00E940C170E940D1845
:1052D00045E050E06CE170E086E997E00E94F93328
:1052E000809196078C7F11F40E940D188091210106
:1052F000811109C082EDEDE0F2E0A8E3B1E0019098
:105300000D928A95E1F782E290E00E9409348032A2
:1053100009F0F4C383E290E00E940934823109F07D
:10532000EDC384E290E00E940934893209F0E6C3BB
:10533000809131058111DAC082E08093520580E8C6
:10534000809387050E947E2F6DE070E085E794E0F2
:105350000E94B012892BE9F58091520563E070E05C
:1053600081FDC6C082E794E00E94B012892B89F5C6
:105370006DE070E082E694E00E94B012892B49F55E
:105380000E948A07605A75418F4F9F4F6093540562
:10539000709355058093560590935705EAE8F5E01C
:1053A00080E092E0DF019C011D9221503040E1F746
:1053B000F0939107E09390078FEF9FEF909389050B
:1053C0008093880581E08093590580935805109259
:1053D000530590E080E00E9411348C3E9E4F11F006
:1053E0000E940C1782E090E00E94093480935B05D4
:1053F0000E945F14909315058093140583E090E05C
:105400000E940934682F70E090E080E00E94150946
:1054100089E291E09093170580931605A3E0CA2EC8
:10542000DD24DA9466246394712C84E695E0A8E088
:10543000A80FABA780918205853009F45CC00E945B
:10544000E11BB82EACE5B5E0E4E6F5E010E000E0E5
:10545000302F81912D91281709F48AC090E0FF2404
:10546000F3942827422F4F2109F47DC099A33AA332
:105470008F2191E009F490E09BA30E94071E8160B8
:10548000782F9DA38CA349A15AA16BA18DA10E9445
:10549000D627F801E45AFA4F8081F826F0828091ED
:1054A0005905882309F41AC18AE895E09093910779
:1054B0008093900780913105882309F459C18DE9C3
:1054C00094E00E9470128091830590918405A091D0
:1054D0008505B09186058F309105A105B10508F0CD
:1054E00064C0FC01E050FB4C0C949B3080E025CF65
:1054F0008FE694E039CF80918205843021F11092BB
:10550000180580E4E8E1F0E00FB6F894A895E09380
:1055100060000FBE8093600083B7817F846083BF8B
:1055200083B7816083BF7894889583B78E7F83BF6C
:105530000FB6F894A8958091600088618093600010
:10554000109260000FBE80917805882309F472CF15
:105550000E94E11BE4E6F5E081918111B9C22BA51F
:105560002E13FACF67CF9F5FFF0C963009F07ACFEA
:105570000F5F1F4F0830110509F06ACFDEA2DFA2CE
:1055800018A60E94071E8160782F9AA789A74EA1AE
:105590005FA168A58AA50E94D62781CF85E994E0FE
:1055A0000E94701281E00E947E12E9E1F5E0019014
:1055B0000020E9F78F0101501109F9E1EF2EF5E024
:1055C000FF2EE016F10608F4CDC08091590588231E
:1055D00009F45FC0209188053091890521153105B6
:1055E00009F457C080915305811153C0082F10E072
:1055F0007301082E02C0EE0CFF1C0A94E2F7A90109
:105600004E215F21452B09F4B8C09091520590FDC1
:10561000B6C08295880F80768093240198013695D4
:1056200027953695279520932701815E8093250144
:105630001092280124E630E047E050E062E271E099
:1056400088E70E940F30892B21F5A80175E0440FEF
:10565000551F7A95E1F78091520580FD9DC0465710
:105660005A4F04E610E020E230E060E488E70E9450
:105670003630892B71F40E94E012E094F09480910E
:10568000880590918905E822F922F0928905E09237
:10569000880580915805882309F10E948A070091A6
:1056A0005405109155052091560530915705601B02
:1056B000710B820B930B6F3F7F4F8F4F9F4770F49F
:1056C00080915905882351F062E070E085EE94E006
:1056D0000E94B012892B11F410925805B1100E944B
:1056E000E0120E94AD0990915A05891721F00E949D
:1056F000AD0980935A0580918205843009F09ACED5
:10570000C092E9008091E80082FF94CE8091E80089
:1057100090E085FF0CC00E94E20530E2E32EF12C00
:105720008E010F5F1F4F882309F4A0C091E0809184
:10573000E8008B778093E800992309F47BCEE98118
:10574000E150E33108F0E0C0F0E0E15FFA4C0C9486
:105750009B308FE894E024CF89E894E021CF82E861
:1057600094E01ECFD7018D917D010E94EF1129CFCA
:1057700085EA94E00E94701228CF8F5F37CF880FA0
:10578000880F880F8093240110922701895F8093EE
:105790002501C09228014ECF80E2E2E3F5E01192AC
:1057A0008A95E9F727E733E03DA72CA703E713E045
:1057B000ACA5BDA52D91BDA7ACA7F80121908F0187
:1057C000240E352E311CC10186579A4F1C01E22F41
:1057D000F0E0EE5CFA4F30E020E067E0962E921A9F
:1057E000A62C022E01C0AA0C0A94EAF7210190E02F
:1057F000D2018D912D018A21692D691B6770862E3A
:10580000062E000C770BB82F01C0BB0F8A94EAF765
:105810008B2E7195619571096770772701C0869508
:105820006A95EAF7882A8081882A80829F5F98306B
:10583000F9F62F5F3F4F31962830310571F6ECA510
:10584000FDA5EB57F34009F0B3CF04E610E020E2EA
:1058500030E042E355E009CF8091F100D8018D930B
:105860008D01B1E0EB1AF10809F460CF8091E800F6
:1058700085FDF2CF8091E8008B778093E8000E944D
:10588000E205882399F352CF1A8289E08B83CE01F7
:1058900001960E943D06CECD8A81823009F43BC13B
:1058A000833059F0813081F50E948A070E94A1302F
:1058B0006B837C838D839E83EACF809164058B8389
:1058C000809165058C83809166058D838091670545
:1058D0008E83809168058F83809169058887809188
:1058E0006A05898780916B058A87D1CF8A8182304A
:1058F00059F46B817C818D819E810E94A13085E26B
:1059000090E00E942734C3CFD982C1CF4C816B81F4
:105910008A810E946D149827892798279E838D83FA
:10592000B6CF0D811E811027012710278A81EB80B9
:10593000ECE0EE9E70011124F0E68F9FE00CF11C6C
:1059400011248C8190E0880F991FE80EF91E612FB9
:10595000C70186960E942734602FC7018796D1CF52
:105960000E948F1694CF80E18A8391CF22E02A8310
:105970003AE53B838CCFEA80FB80FE24EF24FE24B3
:105980008E010F5F1F4FAC80A00EB12EB11CC7015E
:105990008A559E4FA016B10609F479CFAAE5EA16FA
:1059A000A2E0FA0650F40E940934F8018483BFEFA4
:1059B000EB1AFB0A0F5F1F4FEACFD80114961C9217
:1059C000F6CF0A811B81102701271027FE0131968F
:1059D0005F01EC80E00EF12EF11CC8018A559E4F4C
:1059E0000E151F0509F453CF0A35F2E01F0728F4FE
:1059F000D50114966C910E942734BFEFAB1ABB0AF5
:105A00000F5F1F4FEACF0E94E41641CFE4E0EA8324
:105A10003ECFEA80FB80FE24EF24FE248E010F5F40
:105A20001F4FAC80A00EB12EB11CC7018696A016E8
:105A3000B10609F42CCFF0E8EF16F1E0FF0658F4B8
:105A40000E940934D80114968C93FFEFEF1AFF0AD5
:105A50000F5F1F4FEACFF8011482F7CF0A811B8135
:105A60001027012710279E012F5F3F4F5901EC801F
:105A7000E00EF12EF11CC80186960E151F0509F4E3
:105A800006CF003831E0130728F4D50114966C9145
:105A90000E942734BFEFAB1ABB0A0F5F1F4FEBCF3B
:105AA00080E00E94F4166FEF7FEF90E080E00E94AC
:105AB0004534EDCECE0101960E943D06EFEFF1EEAA
:105AC00024E0E150F0402040E1F700C000009FCB0F
:105AD00080E189BD82E189BD09B400FEFDCF8091DE
