:100000000C94B9020C9400030C9400030C940003AC
:100010000C9400030C9400030C9400030C94000354
:100020000C9400030C9400030C9430260C940427C9
:100030000C942A210C9400030C9400030C940003EC
:100040000C9400030C9400030C9400030C94000324
:100050000C9400030C9481210C9400030C94000375
:100060000C9400030C9400030C9400030C94000304
:100070000C9400030C9400030C9400030C940003F4
:100080000C9400030C9400030C9400030C940003E4
:100090000C9400030C9400030C9400030C940003D4
:1000A0000C9400030C9400030C94000314001A0039
:1000B0000800150017001C0018000C0012001300A7
:1000C00004001600070009000A000B000D000E00D6
:1000D0000F0028001D001B0006001900050011007C
:1000E0001000360037002A00E000E2000151E10074
:1000F000AE002C002C000251E600E4001E001F00A0
:1001000020002100220023002400250026002700D3
:1001100029005000510052004F002D002E003400E5
:10012000330001002B004C0046002F00300031004E
:100130003800010001000100010001000100010080
:100140000100010001000451010001001E021F0214
:100150002002210222022302240225022602270273
:10016000350001000100010001002D022E023402C1
:10017000330201000100010003532F02300231025B
:10018000380236023702010001000100045101006B
:100190000100010001000100010001000100010057
:1001A0000100010001000100010001000100010047
:1001B0000100010001000100010001000100010037
:1001C0000100010001000100010001000100010027
:1001D0000100010001000100010001000100010017
:1001E0000353010001000100010001001E0F050082
:1001F000047F3F1F643214643214783C1E1E140ABC
:10020000052223252628292A2C2D2F303233353656
:10021000383A3B3D3E4042434547494A4C4E505197
:10022000535557595A5C5E6062646668696B6D6FBE
:1002300071737577797B7D7F81838587898A8C8EC1
:1002400090929496989A9C9E9FA1A3A5A7A8AAACC9
:10025000AEAFB1B3B4B6B8B9BBBCBEBFC1C2C3C503
:10026000C6C7C9CACBCCCDCED0D1D2D2D3D4D5D6A5
:10027000D7D7D8D9D9DADADBDBDBDCDCDCDCDCDDD8
:10028000DDDDDDDCDCDCDCDCDBDBDBDADAD9D9D8BC
:10029000D7D7D6D5D4D3D2D2D1D0CECDCCCBCAC954
:1002A000C7C6C5C3C2C1BFBEBCBBB9B8B6B4B3B183
:1002B000AFAEACAAA8A7A5A3A19F9E9C9A9896941E
:1002C00092908E8C8A89878583817F7D7B797775F3
:1002D00073716F6D6B6968666462605E5C5A5957D2
:1002E000555351504E4C4A4947454342403E3D3B91
:1002F0003A3836353332302F2D2C2A29282625231B
:1003000022FFAA7F55400001010101010101010105
:1003100002020202020202020203030303030303B6
:100320000304040404040404050505050506060683
:100330000606070707070708080808090909090A40
:100340000A0A0B0B0B0C0C0C0D0D0D0E0E0E0F0FE5
:100350000F10101111111212131314141515161673
:100360001717181819191A1A1B1B1C1D1D1E1E1FE2
:100370002020212222232424252626272829292A31
:100380002B2C2D2D2E2F3031323233343536373859
:10039000393A3B3C3D3E3F40414243444546474855
:1003A000494A4C4D4E4F50515354555658595A5B2B
:1003B0005D5E5F616264656668696B6C6D6F7072CB
:1003C000737577787A7B7D7E8082838587888A8C37
:1003D0008E8F91939596989A9C9EA0A2A3A5A7A96B
:1003E000ABADAFB1B3B5B7BABCBEC0C2C4C6C9CB62
:1003F000CDCFD1D4D6D8DBDDDFE2E4E7E9EBEEF018
:10040000F3F5F8FAFDFF0C03790061007300750045
:100410006900000014037200610069006E006B0047
:10042000650065006200730000000403090409020E
:100430003B00020100A0FA090400000103010100D1
:100440000921110100012240000705810308000A6B
:10045000090401000103000000092111010001222B
:10046000B6000705820320000A12011001000000F7
:10047000086B72737901000102000105010902A1F4
:100480000185020901A100050919012908150025A6
:100490000195087501810205010930093115812591
:1004A0007F95027508810609381581257F950175AC
:1004B000088106050C0A38021581257F950175080B
:1004C0008106C0C005010980A101850319012AB771
:1004D00000150126B700950175108100C0050C09B3
:1004E00001A101850419012AA002150126A0029587
:1004F0000175108100C005010906A10185050507E8
:1005000019E029E715002501950875018102050705
:10051000190029EF1500250195F0750181020508E4
:100520001901290595057501910295017503910140
:10053000C005010906A101050719E029E7150025F5
:10054000019508750181029501750881010507195A
:100550000029FF150026FF00950675088100050893
:100560001901290595057501910295017503910100
:10057000C00011241FBECFEFDAE0DEBFCDBF04B64E
:1005800003FE27C08091330390913403A09135037B
:10059000B09136038730904BA740B04BD1F4109206
:1005A000330310923403109235031092360314BEB5
:1005B00084B7877F84BF0FB6F894A89580916000B8
:1005C000886180936000109260000FBEE0E0F8E365
:1005D000099511E0A0E0B1E0EEEBF4E502C0059072
:1005E0000D92A83DB107D9F723E0A8EDB1E001C015
:1005F0001D92A333B207E1F70E946A230C94212ACB
:100600000C940000CF93C62F60919C0270919D02C4
:1006100080919E0290919F020E94D703813069F0E1
:10062000882321F0823071F0833089F489EAC11186
:1006300001C08AEACF910C94B9168AEFC111FACFA2
:1006400089EFF8CF8CEFC111F5CF8BEFF3CFCF91BE
:10065000089581E0089581E008950C942B03089596
:100660000C942F031F93CF93DF9300D000D00F92F1
:10067000CDB7DEB749835A836B8330914A028981B3
:100680009A8131111DC06623B9F02223A9F00E947E
:10069000241E182F682F89819A810E94D01D69819C
:1006A0007A81812F0F900F900F900F900F90DF9114
:1006B000CF911F910C9437040E94FC1D182FEFCF8F
:1006C0000E94241E69817A81EDCFFC01262F408192
:1006D00051816281738184810C943203CF93DF93C3
:1006E000EC0160E00E946503BE01DF91CF910C94A4
:1006F00030030E94BD210E94701F811102C00E9420
:1007000014200C9443060C94460608950E943A194E
:100710000E9485032FEF84E39CE0215080409040AD
:10072000E1F700C000000C94A5210F931F93CF9315
:10073000DF93EC0161E00E9465038C01BE010E9421
:100740002D03882359F1BE01C8010E94721288232B
:1007500029F1BE01C8010E94C4128823F9F0BE012C
:10076000C8010E94E7138823C9F0BE01C8010E9496
:100770000F11882399F08A81882339F001158CE5BF
:10078000180751F00F3D1C4579F0CE01DF91CF9154
:100790001F910F910C9429030E94860380E0DF9142
:1007A000CF911F910F9108950E941420F7CFCF92FF
:1007B000DF92EF92FF926C01EE24FF2420E0C1143F
:1007C000D104E104F10419F0C701B60120E1C72EFC
:1007D000D82EE92EFF24C114D104E104F10419F04C
:1007E000285FC701B6016B017C0154E0F694E794E1
:1007F000D794C7945A95D1F7C114D104E104F104F8
:1008000019F02C5FC701B6016B017C0142E0F69440
:10081000E794D794C7944A95D1F7C114D104E10461
:10082000F10419F02E5FC701B6019695879577956B
:100830006795672B682B692B09F02F5F822FFF903C
:10084000EF90DF90CF90089508950C94240481E0F8
:1008500008950C942704CF93C82F0E9425048C2F51
:10086000CF910C94290490E080E008950895972F8B
:1008700070E02AE0929F600D711D1124FB0198E247
:10088000899FE00DF11D1124EE0FFF1FE455FF4F6E
:10089000859194910895FC01EE0FFF1FE451FE4FE6
:1008A000859194910895CF93DF930E9437040E941D
:1008B0006805EC01811520E5920708F042C081151A
:1008C00030E4930708F0BDC0883E910528F5803ECE
:1008D000910508F09DC0883A910588F4853A910504
:1008E00008F08FC08130910509F492C0009709F497
:1008F0008FC0049708F08CC0D0E0C0E089C08F3B67
:10090000910508F489C0805C9109C03CD105A0F331
:100910000E944B04EC017CC08115904250F4C1153B
:1009200081E0D80708F074C0CD3ED10528F3D0652A
:100930006FC0C11590E3D90708F079C0CE019F7050
:10094000E7CF811525E5920758F5811534E5930722
:1009500008F0A6C0811542E5940750F4C11581E561
:10096000D80708F471C0DC2FCC27C16FD06A50C003
:10097000982F969596959E0123703327C115D345E0
:1009800008F07FC0C1E0D0E002C0CC0FDD1F2A9587
:10099000E2F720E2929FC0011124C82BD92B6FC02F
:1009A000C11589E5D807A8F4C11598E5D90708F05D
:1009B0007CC0C11526E5D20708F09ECF8C2F0E947F
:1009C000FF05C82FD0E0DC2FCC27CC27DF71D06209
:1009D0001FC0C1153AE5D30708F46CC0CE0190568C
:1009E0008115904208F088CF8D2F8F710E94FF05EE
:1009F00090E0982F882788279F719C012C2BE90174
:100A0000E6CFC55AD0E0C65ADE4FC881D0E0D064E8
:100A1000CE01DF91CF910895C85AD0E0CC0FDD1FF1
:100A2000C45DDE4F0990D881C02DD464F1CFCE01D2
:100A30009927D3FF03C0EC01D86CEACFEC01D06C4E
:100A4000E7CFDF70D06AE4CFCE01E4E096958795DA
:100A5000EA95E1F783702C2F26952695237090E276
:100A6000299F90011124382B8C2F8370C1E0D0E096
:100A700002C0CC0FDD1F8A95E2F7C22BD32BDC68B6
:100A8000C7CFC1E0D0E002C0CC0FDD1F2A95E2F74E
:100A900030E2939FC0011124C82BD92BDA68B8CF5C
:100AA000D82FCC27C46FD06AB3CFDC2FCC27C06F30
:100AB000D06AAECF8C2F8F700E94FF0534E0D695A0
:100AC000C7953A95E1F7CF709C2FEC01D069A0CF84
:100AD00082389105B1F1B0F48133910509F475C004
:100AE00048F48932910509F469C08A32910509F404
:100AF00073C008958533910509F459C08933910570
:100B000001F10895833E9105A9F138F4803E9105E5
:100B1000F9F0823E910549F10895863E9105A9F1CB
:100B2000873E9105C9F1843E910519F52091250371
:100B300021FF1FC08091240384FD14C087EE90E044
:100B40000895209124032370A1F080EE90E0089591
:100B50002091240320FD47C03091250330FF09C0B8
:100B600024FF44C090E080E004C02091240322FDD3
:100B7000F7CF08952091240322FD3BC03091250337
:100B800030FDE3CF24FFF5CFEDCF2091240323FFE9
:100B9000F0CF24FDE7CFD2CF2091240323FD2CC03A
:100BA0003091250331FFEECF84EE90E0089520913F
:100BB000240325FFDECF89E290E0089520912403ED
:100BC00025FFD7CF85E390E008952091240326FFE9
:100BD000D0CF8AE290E008952091240326FFC9CF68
:100BE00081E390E0089589E390E0089583EE90E03A
:100BF000089582EE90E0089586EE90E00895909139
:100C0000240392FF06C0282F28712830F9F4877F2B
:100C1000846093FF06C0282F28712831F1F4877E65
:100C200084612091250320FF06C0382F38713830A9
:100C3000D9F4877F816021FF06C0282F28712831D1
:100C4000D1F4877E816194FD877E0895282F2471D9
:100C50002430F9F68B7F8860DCCF282F2471243173
:100C600001F78B7E8861DDCF382F3171313019F774
:100C70008E7F8860E0CF282F2171213121F78E7E71
:100C80008861E1CF08950C94420608950C944506BE
:100C9000E82FF0E0EE0FFF1FEB50FD4F80819181B8
:100CA0000895089580EA8A95F1F7089500C008959F
:100CB0000C945206F894E82FE295EF70F0E031A121
:100CC000282F2F7081E090E001C0880F2A95EAF765
:100CD000982F9095932391A392A1892B82A3789426
:100CE0000895CF93DF9384E90E945A0686E60E9416
:100CF0005A0685E30E945A0686EC0E945A06CDE504
:100D0000D1E089910E945A0681E0C736D807C9F719
:100D10001092EE021092ED021092F6021092F5027D
:100D20001092F0021092EF021092F8021092F70265
:100D30001092F2021092F1021092FA021092F9024D
:100D40001092F4021092F3021092FC021092FB0235
:100D500084E00E943307DF91CF910C947903AF9226
:100D6000BF92CF92DF92EF92FF920F931F93CF9398
:100D7000DF9307E611E0CDEED2E0C12CD12CEE24BA
:100D8000E394F12CF80181918F01F894E82FE2951A
:100D9000EF70F0E021A18F70A70102C0440F551F32
:100DA0008A95E2F7CA01922F982B91A392A1809580
:100DB000892382A378940E945606EDE5F1E030E0A5
:100DC00020E0B12CA12C4191A42FA295AF70B0E0EE
:100DD00090968C9190E04F7002C0959587954A95BA
:100DE000E2F780FD3BC0C701022E02C0880F991FA9
:100DF0000A94E2F7A82AB92A2F5F3F4F2A3031051B
:100E000011F7F801319780810E945A0653E0C5120C
:100E10000E94580688819981A816B90611F1B982F5
:100E2000A88281E0D82AC394229684E0C812AACF6F
:100E30002D2D44E065EF72E08DEE92E00E943407C4
:100E40000E9483038D2DDF91CF911F910F91FF9011
:100E5000EF90DF90CF90BF90AF90089590E080E04A
:100E6000C9CF80E0DFCF0895FF920F931F93CF93F8
:100E7000DF93F82E092F162FD72FC42F222349F0E6
:100E800081E08093DC010E945A219093DB018093E2
:100E9000DA018091DC018823A1F08091DA01909140
:100EA000DB010E947221069760F0EF2DF02FA12F39
:100EB000BD2F90E080E0D0E08C179D0744F01092A9
:100EC000DC01DF91CF911F910F91FF900895219147
:100ED00031912D933D930196EFCF8091E30180FFF7
:100EE00012C06091090185E0689FB00111247595D9
:100EF00067957595679560387105A8F56115710559
:100F0000A1F1862F089581FF09C06091090185E054
:100F1000689FB001112475956795EDCF6091090127
:100F200082FD0AC08091E2018823D1F090910801EE
:100F300060910901891728F085E0689FB0011124AC
:100F4000DACF869FB001112485E0869F9001879FAC
:100F5000300D1124692F70E0C9010E94E428CBCF25
:100F600065E070E0CECF8FE7089581E0089580912D
:100F7000E30180FF0CC06091050170E075956795F5
:100F8000759567956115710549F1862F089581FF63
:100F900006C06091050170E075956795F3CF60918B
:100FA000050182FD0BC09091E1019923A1F06091B0
:100FB000040180910501961738F0682F70E06038C1
:100FC000710500F38FE70895899FC001112470E037
:100FD0000E94E428F4CF61E070E0D7CF81E008956B
:100FE0008D3E31F40E946D0781958093E70108954D
:100FF0008E3E19F40E946D07F8CF8F3E31F40E94A7
:101000006D0781958093E6010895803F19F40E9451
:101010006D07F8CF893F29F40E94B7078093E80154
:1010200008958A3F21F40E94B7078195F7CF8B3F3F
:1010300031F40E94B70781958093E90108958C3FB0
:1010400019F40E94B707F8CF9FE0980F983070F41A
:10105000815F990B21E030E001C0220F8A95EAF709
:101060008091E501822B8093E50108958D3F31F455
:101070008091E30181608093E30108958E3F21F424
:101080008091E3018260F7CF8F3FB9F78091E30150
:101090008460F1CF4091E6018D3E59F48091E701E3
:1010A00087FF0DC01092E70141110BC01092E201C1
:1010B00008C08E3E81F48091E70118169CF344230A
:1010C00081F08091E8019091E901892B09F05AC0E3
:1010D0001092E10108958F3E49F447FFF0CF10923E
:1010E000E6018091E7018111ECCFE0CF803F19F458
:1010F0001416ACF3E4CF9091E801893F29F4191656
:10110000F4F61092E801DBCF8A3F19F497FFD7CFAE
:10111000F8CF9091E9018B3F29F497FFD0CF10923F
:10112000E901CDCF8C3F19F41916CCF3C8CF9FE05D
:10113000980F983090F4815F990B21E030E0B9016D
:1011400002C0660F771F8A95E2F7CB0180959091D8
:10115000E50189238093E501B2CF8D3F31F4809181
:10116000E3018E7F8093E301AACF8E3F21F480912B
:10117000E3018D7FF7CF8F3F09F0A1CF8091E3018D
:101180008B7FF0CF08950E945A219C019091E60137
:101190008091E701982B21F03093E0012093DF014B
:1011A0009091E8018091E901982B21F03093DE01C4
:1011B0002093DD0184EE91E00C943C14EF92FF92B9
:1011C0000F931F93CF93DF9300D000D000D0CDB703
:1011D000DEB786E0E4EEF1E0DE01119601900D92BB
:1011E0008A95E1F7E090E601F090E7010091E801CF
:1011F0001091E9011092E6011092E7011092E801C6
:101200001092E9018E2D8F2991F08091DF0190914C
:10121000E0010E947221AC019091E201992309F44E
:101220003FC080910A018417150608F447C0802F3B
:10123000812B91F08091DD019091DE010E9472215D
:10124000AC019091E101992309F477C080910601E6
:101250008417150608F47FC08091E6019091E7019C
:10126000892B9091E801892B9091E901892B11F04C
:101270000E94C30886E0FE013196A4EEB1E0019021
:101280000D928A95E1F726960FB6F894DEBF0FBE51
:10129000CDBFDF91CF911F910F91FF90EF900895F7
:1012A00020910B018AE0289F900111242417350713
:1012B00008F0BDCF9F5F9093E20102C09F3FD1F73E
:1012C000EE2059F00E946D079FEF1E140CF491E080
:1012D000899F802D11248093E601FF2059F00E9400
:1012E0006D079FEF1F140CF491E0899F802D11244E
:1012F0008093E7013091E601332309F498CF2091E0
:10130000E701222309F493CF45EB3403C0011124F4
:10131000992359F09093E60145EB240390011124A1
:10132000332339F03093E70182CF81E08093E601E7
:10133000F3CF81E08093E7017ACF209107018AE023
:10134000289F900111242417350708F085CF9F5F4F
:101350009093E10102C09F3FD1F7002359F00E9412
:10136000B7079FEF10160CF491E0899F802D112490
:101370008093E801112359F00E94B7079FEF1116DF
:101380000CF491E0899F802D11248093E901309124
:10139000E801332309F460CF2091E901222309F405
:1013A0005BCF45EB3403C0011124992359F090938E
:1013B000E80145EB240390011124332339F03093E5
:1013C000E9014ACF81E08093E801F3CF81E0809387
:1013D000E90142CF86E0E4EEF1E0DF011D928A955B
:1013E000E9F71092E2011092E1011092E3010895F1
:1013F000EF92FF920F931F93CF93DF93EB01E82FB0
:10140000D11110C0442321F0F0E0EA5FFC4FE491D9
:101410006E2F7E2F8E2FDF91CF911F910F91FF9016
:10142000EF9008950D2F10E0282F30E0442329F08D
:101430002A5F3C4FF901249130E0F6E0CF9FC001D4
:101440001124EFEFF0E0BF010E94D028AB018C2FF8
:1014500090E0880F991FA5E5A49FB001A59F700D8E
:101460001124861B970B982F990F980FBF01601BB3
:10147000710B629FD001639FB00D729FB00D11245C
:101480008B2F9D9FB0011124672F7727EF01C61B7B
:10149000D70BBE01629FE001639FD00D729FD00DFC
:1014A00011247F01E91AF108E09EB001E19E700D60
:1014B000F09E700D1124672F7727E61BF70BE29F34
:1014C0008001E39F100DF29F100D1124E12F722F68
:1014D0004230510599F048F44115510569F0413009
:1014E000510581F0EB2F8D2F07C04430510569F075
:1014F00080F046305105B1F76E2F8DCFE22F7B2F54
:10150000812FFACFE22F7D2FF7CFEB2F822F712F74
:10151000F3CF7B2F822FED2FEFCF41E00C94F80912
:1015200008950C948D0ACF93DF93762FE901682FED
:10153000842F0E94910A798368838A83DF91CF91F7
:1015400008958091FD02982F9E7F29F4817082601A
:101550008093FD0208958635E8F381708465F8CFA5
:1015600088E090E00C94C229CF92DF92EF92FF9234
:101570006B017C010E94A10AB701A60188E090E0FE
:10158000FF90EF90DF90CF900C94E029EDEFF2E028
:1015900083E0808311828FEF828383831482608152
:1015A0007181828193810C94B40A8091FD0280FF45
:1015B00002C08695089580E00895909101039330CC
:1015C00018F49F5F90930103882351F06091FD020E
:1015D0007091FE028091FF02909100030C94B40A76
:1015E000089581E00C94DD0A90910103992319F08C
:1015F000915090930103882351F06091FD02709106
:10160000FE028091FF02909100030C94B40A0895A9
:1016100081E00C94F40A70E00C947F116091100149
:101620008091FD0280FF0AC080910F0123E0829F1C
:10163000C00111248E5F9C4F0C940B0B8091110103
:101640009091120123E0829FF0011124EE5FFC4F84
:10165000891750F71182108212828F5F3396F8CF6C
:101660009091FD0290FF14C0909111012091120100
:1016700033E0939FF0011124EE5FFC4F921710F0BE
:101680000C940E0B8183608342839F5F3396F6CF69
:101690000895CF93DF9300D00F92CDB7DEB790912E
:1016A000FD0290FF0AC09E012F5F3F4F0E94930AE8
:1016B0004B8169818A810E94300B0F900F900F90AF
:1016C000DF91CF910895CF93DF93EC01EC81F0E0AF
:1016D000EF5FFD4F4491EDEFF2E0628181810E9466
:1016E000490B8C818F5F8C83DF91CF910895CF93CD
:1016F000DF93EC01EDEFF2E0438162818C810E9487
:10170000490B8C818F5F8C83DF91CF9108950F936C
:101710001F93CF93DF9300D00F92CDB7DEB78C012C
:101720008091EA0181110AC09E012F5F3F4F4FEF68
:101730006FEF0E94930A8A818093EA01F801648125
:10174000613069F08091EA0140E0662361F040E099
:10175000623011F44091EA0180E060E004C06091E1
:10176000EA0140E080E00E94300BF801848190E0C3
:10177000019663E070E00E94E42884830F900F904C
:101780000F90DF91CF911F910F910895AF92BF926B
:10179000CF92DF92EF92FF920F931F93CF93DF933D
:1017A00000D00F92CDB7DEB7182FF62E042FE22E01
:1017B0009091FD0290FF29C0E92FE695AE2FB0E091
:1017C000A559BE4F8C91809326029E7F923059F589
:1017D0009E012F5F3F4F812F0E94930A4B816981A9
:1017E0008A810E94300B1093FE02F092FF02009358
:1017F0000003EE2051F06091FD027091FE02809195
:10180000FF02909100030E94B40A0F900F900F9076
:10181000DF91CF911F910F91FF90EF90DF90CF90CC
:10182000BF90AF900895823019F400910003DBCF90
:10183000863019F41091FE02D6CF8930D9F3893160
:1018400091F6E9518E2F8170D82EE695F0E0EF5F8A
:10185000FC4FA590B490C12CBB2460911301C61617
:1018600018F00E940E0BBFCF2C2D30E0A29EC001BD
:10187000A39E900DB29E900D112470E00E94D0287E
:10188000812FD11013C0860F40911101420F532FA9
:10189000511D9A01220F331F240F351F2E5F3C4F1D
:1018A000402F6F2D0E94930AC394D7CF861BECCF95
:1018B000EDEFF2E09181282F4381628188E0890F6A
:1018C0000C94C60B81E00C94580CEDEFF2E0918182
:1018D000282F4381628188EF890F0C94C60B81E029
:1018E0000C94650CEDEFF2E0628128E0620F08F4E1
:1018F0006FEF282F438181810C94C60B81E00C94FB
:10190000720CEDEFF2E0628128E0621B08F460E007
:10191000282F438181810C94C60B81E00C94810CAB
:10192000EDEFF2E0438128E0420F08F44FEF282F5B
:10193000628181810C94C60B81E00C94900CEDEFD8
:10194000F2E0438128E0421B08F440E0282F628146
:1019500081810C94C60B81E00C949F0C20E00C94C8
:10196000C60BEF92FF921F93CF93DF93EC0110E031
:10197000EE24EA94F12C60911301161770F00E9486
:101980000E0B9A818C8190FF27C08F5F8C83DF9133
:10199000CF911F91FF90EF90089520911101422F58
:1019A000410F5527551FCA019A01220F331F280FD7
:1019B000391F2E5F3C4F70E0C7010E94E428962F2C
:1019C0008C81409100036091FF02199F800D1124CA
:1019D0000E94930A1F5FCFCF8150D8CFAF92BF92A2
:1019E000CF92DF92EF92FF920F931F93CF93DF93EB
:1019F000FC0182810FEF80FF01E010E04AE0A42E9D
:101A0000809113011817C8F00E940E0B8091EC0111
:101A1000013009F055C0811102C08091130181503D
:101A20008093EC01DF91CF911F910F91FF90EF9088
:101A3000DF90CF90BF90AF900895C0911101C12E5B
:101A4000D12CCC0DDD2DD11DCE01880F991FC80FD3
:101A5000D91FCE5FDC4F198218821A8234E0E32E40
:101A6000F12CB12C8091EC018B0D8B301CF16A2D87
:101A70000E94C228892F082E000C990BC816D9067F
:101A800091F4809100038E9DA0018F9D500D112433
:101A900055954795559547959E016091FF02809118
:101AA000FE020E94930AB00EF1E0EF1AF108D1F69F
:101AB0001F5FA6CF87FFDFCF90911301890FDBCF88
:101AC00090E001966091130170E00E94E428A8CF95
:101AD0000F931F93CF93DF93809111019091120187
:101AE00023E0829FF0011124EE5FFC4F891740F143
:101AF000C0E0D3E060911301C61740F10E940E0BC5
:101B000020910D018091EB01820F8093EB01909168
:101B10000E01920F90930E01191654F4082E000C2A
:101B2000990B409113014150550B841795071CF0F8
:101B3000219520930D01DF91CF911F910F91089571
:101B40001182108212828F5F3396D0CF0C2F10E05B
:101B500070E0C8010E94E42820911101820F482FF3
:101B600050E02091EB01022E000C330B02171307FB
:101B7000BCF020910E01022E000C330B2017310710
:101B80007CF08D9F900111242E5F3C4F409100030B
:101B90006091FF028091FE020E94930ACF5FAACF5C
:101BA000FA01EE0FFF1FE40FF51FEE5FFC4F1182ED
:101BB00010821282F3CF8F929F92AF92BF92CF92F8
:101BC000DF92EF92FF920F931F93CF93DF93EC017D
:101BD0004C81042F10E09801D8010E9428299B0114
:101BE000AC010E943E294B015C01E0E2F0E0E01B09
:101BF000F10BA5E5B0E0AC019B010E943E296B0111
:101C00007C019F01DF010E9420299B01AC010E9401
:101C100049299B01AC01280D391D4A1D5B1DC701D7
:101C2000B6010E94F828F22E822F90E039E23F158B
:101C300060F143E0249F9001112435952795122FE0
:101C4000109500E085E5E82EEF1880911301081744
:101C500058F10E940E0B9C8181E0992319F090327B
:101C600019F48FEF80930C0180910C01890F8C8304
:101C7000DF91CF911F910F91FF90EF90DF90CF9068
:101C8000BF90AF909F908F90089525E530E0B90107
:101C9000681B790B9B01220F331F260F371F37FF5D
:101CA000CCCF2F5F3F4FC9CF8E2D01FD8F2D2091BF
:101CB0001101622F600F7727771F9B01220F331FBF
:101CC000260F371F2E5F3C4F412F6091FF020E946D
:101CD000930A0F5FBACF0F931F93CF93DF93EC015B
:101CE00010E000E0909113019017110609F06CF4D8
:101CF0000E940E0B8C8190E00196817099278C8355
:101D0000DF91CF911F910F91089520911101A801AA
:101D1000420F511D9A01220F331F240F351F2E5FD2
:101D20003C4F4C816091FF028091FE029695901786
:101D3000110651F04CF0442349F0409100030E94F9
:101D4000930A0F5F1F4FCECF4423B9F340E0F7CF84
:101D50004F925F926F927F928F929F92AF92BF92BB
:101D6000CF92DF92EF92FF920F931F93CF93DF9367
:101D7000FC016280448081E08483E1E0F2E07490C1
:101D8000E0E8F2E0E491812C75E0972EF2E0CF2EAE
:101D9000DD24D394AA24AA94B12C55245A94E7198B
:101DA0000E2F10E080911301881690F0DF91CF91F3
:101DB0001F910F91FF90EF90DF90CF90BF90AF9069
:101DC0009F908F907F906F905F904F900C940E0B30
:101DD000E82CF12C82E0861568F09E9CF0019F9C17
:101DE000F00D1124E351FE4F8091FE02808380911B
:101DF000FF028183411023C09E9CF0019F9CF00D47
:101E00001124E351FE4F1382128220911101C70168
:101E1000820F911D9C01220F331F280F391F2E5F47
:101E20003C4F9E9CF0019F9CF00D1124E351FE4F0E
:101E30004281618180810E94930A8394B3CF9E9CEA
:101E4000E0019F9CD00D1124C351DE4F8B8188236C
:101E5000E9F081508B83859DC00111246C8170E075
:101E60000E94D028FB01FF27EF5FFD4F8491E82FF0
:101E7000E719E59DC0011124B8010E94D028809186
:101E80000003689FB00111247A83BFCF0E949D296F
:101E900020910003269521582C9DA0012D9D500DC9
:101EA0001124452F5527841795070CF0AECF82E0FB
:101EB000861588F40E949D29B5010E94E428888334
:101EC0000E949D292091FF022695622F70E00E94BA
:101ED000E428280F29839E9CF0019F9CF00D11247B
:101EE000E351FE4F128280910003893C58F088EC48
:101EF0009E9CF0019F9CF00D1124E351FE4F8483C2
:101F0000838383CF8431A0F784E1F2CFEDEFF2E059
:101F100080818E7F808360817181828193810E9424
:101F2000B40A109227022FEF80E792E02150804000
:101F30009040E1F700C000000C940E0B6091FD0290
:101F4000669570E04BE050E084E191E00E94AD299D
:101F5000892B19F481E0809327020E945A219093E3
:101F6000200280931F0208959091FD0290FF35C0DA
:101F70009170811128C092609093FD02662351F008
:101F80006091FD027091FE028091FF02909100032A
:101F90000E94B40A6091FD02669570E04BE050E04B
:101FA00084E191E00E94AD29892BA1F010922702D3
:101FB00081E080932202409100036091FF028091B2
:101FC000FE020C94AE0C8B3210F09465D5CF880FC6
:101FD000982BD2CF0E949E0FEBCF0895682F90913F
:101FE000FD02969581E0890F8B3208F081E00C9418
:101FF000B40F81E00C94EE0F682F9091FD0296953E
:102000008FEF890F09F48AE20C94B40F81E00C94ED
:10201000FC0F61E00C94B40FEDEFF2E08081816081
:10202000808386950C9409108091FD0280FD0C94AC
:10203000860F0C940C1060E00C94B40F8091250274
:1020400081112EC00E94701F811104C00E941420B3
:102050000E94C60A0E94B00A6093FD027093FE02BD
:102060008093FF02909300036E7F61F40E94C60A82
:102070000E94B00A6093FD027093FE028093FF02FB
:10208000909300030E94A10A109227028091FD0202
:1020900080FF03C086950E941B1081E0809325027B
:1020A00008950F931F93CF93DF9380912702882386
:1020B00009F496C080912602E091FD02E695E81BA6
:1020C000E0932102823091F5F0E0E350FE4FE4917D
:1020D000CE2FD0E003E61BE080912202882361F03E
:1020E000109222020E945A219093200280931F0294
:1020F00010922402109223020E945A21E0911F02A2
:10210000F09120028E1B9F0B8F3F9F4708F068C005
:10211000EC0FFD1FF0932002E0931F028FE192E08D
:10212000F801DF91CF911F910F910994863049F406
:10213000F0E0E650FE4FE491CE2FD0E007E71BE041
:10214000CBCF893051F4E695F0E0E950FE4FE491B1
:10215000CE2FD0E001EB1CE0BFCF8F3051F4E695DD
:10216000F0E0EC50FE4FE491CE2FD0E00EEE1CE0FC
:10217000B3CF853149F4F0E0EF50FE4FE491CE2F1C
:10218000D0E008E61DE0A8CFC8E2D0E00BED1DE0EE
:10219000883109F4A1CF833239F4EFEEF1E0C59133
:1021A000D49107E81BE098CFC4EFD1E00BE61EE026
:1021B000843209F491CFC0EDD7E000E91AE085320E
:1021C00009F08ACF8E2F63E00E94B628E92FF0E055
:1021D000E451FE4FE491CE2FD0E008EA1EE07CCF20
:1021E000DF91CF911F910F910895FA01811101C0E4
:1021F000FB010994CF93DF93C82FD62F0E94D50AF5
:102200008C1740F00E94D50A8D1720F4DF91CF91F2
:102210000C94F90F8C2FDF91CF910C9409100F9330
:102220001F93CF938C01FB01C281CC2309F465C0BD
:102230000E94B91E8272F801E35CFC45E431F105AD
:1022400038F4ED5DF54D0C941A290E941410C0E08D
:102250008C2FCF911F910F91089546E050E169EFC7
:102260007FE00E94F510F3CF49EF5FE066E070E198
:10227000F8CF4FE65CE062E67CE0F3CF42E65CE05C
:102280006FE67CE0EECF4DE85CE06EE77CE0E9CF06
:102290004EE75CE06DE87CE0E4CF4BEA5CE06CE9A3
:1022A0007CE0DFCF4CE95CE06BEA7CE0DACF48E031
:1022B0005BE061EF7AE0D5CF41EF5AE068E07BE088
:1022C000D0CF81E00E940910C2CF65E082E00E9479
:1022D000FA10BDCF68E086E0FACF6EE089E0F7CF74
:1022E00064E18FE0F4CF67E185E1F1CF88E1EACFE7
:1022F00062E289E1ECCF83E2E5CFC1E0A9CF519A58
:102300004BB14D7F5BB15260EFB7F8949B01220F48
:10231000331F260F371F280F391F2817390741F49D
:10232000EFBF8FE594E00197F1F700C0000008953A
:10233000DC016D91CD0178E05BB9000000C067FF62
:102340004BB9660F000000C000C000C04BB900C010
:102350007A9591F7E2CF0C94020353985B9A5298C6
:102360005A9A89B183FB882780F94A9905C090E081
:10237000892B80932A02089592E0FACFE0912A02F5
:10238000EE0FEE0FE0932A0249B143FB882780F954
:1023900049B142FB222720F942FF02C022E030E08F
:1023A000822BE82BE0932A02EF70F0E0EA56FE4F12
:1023B000808190912902890F8093290220E0843046
:1023C00054F0809128028F5F8093280260E080E0C3
:1023D0000E94AB1121E0809129028D3F54F480913D
:1023E000280281508093280261E080E00E94AB11B6
:1023F00021E080912902082E000C990B64E070E026
:102400000E94E42880932902822F08950F931F933E
:10241000CF93DF93C42FD22FFC0182818823C9F090
:1024200040932D020E945A2190932C0280932B02FC
:1024300080E28C0F883008F050C0C77081E001C086
:10244000880FCA95EAF7DF91CF911F910F910C94F5
:10245000C11610912D02141335C080912B0290915A
:102460002C020E947221883C910560F5C0E2CD0FDC
:102470001D17B9F080E2810F883040F4177081E0B9
:1024800001C0880F1A95EAF70E94C816C83048F4B0
:1024900081E09D2F977001C0880F9A95EAF70E94FE
:1024A000C116802F0E94B916C830B8F4D77081E0E9
:1024B00001C0880FDA95EAF7DF91CF911F910F9154
:1024C0000C94C81680E28C0F883038F4C77081E015
:1024D00001C0880FCA95EAF7EFCFDF91CF911F9126
:1024E0000F9108950F939C01CB01243F4CE53407D5
:1024F00059F1A8F4293DFCE53F0701F12A3D4CE5DF
:102500003407D1F1283D3C4591F406E221EE41EE3D
:1025100068ED7CE50E94061280E00F910895263F49
:10252000FCE53F07E9F0B0F0273F3C45F9F0FC013E
:102530008281882339F110922D02EFCF07E225EE38
:1025400045EE69ED7CE5E6CF06E221EE40EE64EF74
:102550007CE5E0CF07E225EE44EE65EF7CE5DACFDF
:1025600006E221EE42EE66EF7CE5D4CF07E225EEEF
:1025700046EE67EF7CE5CECF08E221E045EE6AED5E
:102580007CE5C8CF81E0C9CFCF93DF93EC01FB019D
:102590008281882309F419C1C230FCE5DF07C0F14C
:1025A000C6319CE5D90730F09E012B5F3C452930B0
:1025B000310570F50E94831F9093250380932403B7
:1025C000C031ECE5DE0709F4CFC008F05BC0C830CD
:1025D0008CE5D80709F4B6C088F5C430ECE5DE0711
:1025E00009F4A8C0C0F4C2308CE5D80709F49CC037
:1025F000809124038260C330DC4509F498C0809147
:102600002403909125030E94911F0E943A1980E0B3
:10261000DF91CF910895809124038061C630ECE56D
:10262000DE0709F484C0809124038860C730DC454C
:1026300008F47DC080912403806279C0CC308CE5A1
:10264000D80709F489C070F4809124038C60CA30E3
:10265000ECE5DE0709F46BC008F478C08091240330
:102660008E7F65C0CE308CE5D80709F479C08091A3
:1026700024038B7FCF30DC4508F459C080912403BC
:102680008F7E55C0CC3FECE5DE0709F457C030F52E
:10269000C3318CE5D80709F46FC078F4C131ECE59B
:1026A000DE0709F465C0C231DC4509F0A8CF0E94FD
:1026B0003A19809124038F773AC0C5318CE5D80749
:1026C00009F462C008F476C0809125038160CB3F95
:1026D000DC4509F094CF8093250391CFC115FDE52A
:1026E000DF0709F44DC088F4809125038D7FCE3F2C
:1026F0009CE5D90781F3809125038E7FCF3FDC4590
:1027000050F3809125038360E6CFC230FDE5DF07FB
:1027100009F459C008F444C080E0C330DD4509F035
:102720006ECF0E9416206BCF80912403816080932E
:10273000240365CF809124038460F9CF8091250321
:102740008260C9CF809124038064F1CF0E943A193E
:10275000809124038068EBCF809124038D7FE7CFA5
:1027600080912403877FE3CF809124038F7DDFCF87
:10277000809124038F7BDBCF80912403837FD7CF8D
:10278000809125038C7FA7CF8091240382FB99271A
:1027900090F921E0922790FB82F990FB83F9C7CF53
:1027A00080912503982F909591708E7F892B90FBB7
:1027B00081F991CF0E943A1990912403892F97FBB8
:1027C00087F98058B4CF81E0ACCF81E021CFCF939F
:1027D000DF93EB0186319C4511F50E94B91E9A8169
:1027E000992399F08A7A91E009F490E090932E026F
:1027F000811109C089E20E94941E0E94051F80E099
:10280000DF91CF91089585E3F6CF80912E0281115B
:1028100004C089E20E949B1EF0CF85E3FBCF81E0DC
:10282000EFCF90933402809333020895E091330206
:10283000F0913402309721F00190F081E02D09945D
:1028400080E00895E0913302F0913402309799F0DE
:1028500020912B01222359F02091240327FF07C048
:10286000DC012C9111962C93119725E02C9302807A
:10287000F381E02D09940895E0913302F091340240
:10288000309739F022E0DC012C930480F581E02DB3
:1028900009940895209131023091320228173907A6
:1028A00071F09093320280933102E0913302F09103
:1028B0003402309721F00680F781E02D09940895C5
:1028C00020912F02309130022817390771F0909330
:1028D000300280932F02E0913302F091340230975E
:1028E00021F00084F185E02D099408950E9466216D
:1028F0006093460270934702809348029093490286
:102900006093420270934302809344029093450285
:1029100008950E9466216093460270934702809357
:1029200048029093490260933E0270933F02809365
:10293000400290934102089585B7806885BF85B7AE
:10294000806885BF0895089508950C94A314089590
:102950000C94A7140E949C1488E69FE10E94B62163
:102960000E94A4140C94A51481E008950C94B4144E
:10297000089508950E9451210E9471060E94D42159
:102980000E941E100E94AD110C94A8148F929F9269
:10299000AF92BF92CF92DF92EF92FF920F931F936D
:1029A000CF93DF93CDB7DEB72A970FB6F894DEBF8B
:1029B0000FBECDBF0E94B8140E94B9140E94AF068A
:1029C00081110E94761456E3852E52E0952E10E078
:1029D00000E0A02E802F0E9448066C01F401E190D7
:1029E000F1904F01E816F90609F463C08091C9021D
:1029F00081FD0E945106C7018C259D25B12CEE2436
:102A0000E394F12C9C012E213F21232B09F44BC090
:102A10000E94B6148823A9F0BE82AF82CE20DF20A8
:102A200081E0CD2809F480E088870E945A218160E6
:102A3000782F9A8789874E815F8168858A850E9471
:102A40008315000F111FF801EA5CFD4F8081918111
:102A5000E826F926F182E0820E9451100E94BE1100
:102A600081110E9489140E94DE080E941614909120
:102A700035028917A9F10E941614809335022A960F
:102A80000FB6F894DEBF0FBECDBFDF91CF911F917F
:102A90000F91FF90EF90DF90CF90BF90AF909F90FD
:102AA0008F900C942B04B394EE0CFF1CFAE0BF1231
:102AB000A9CF0F5F1F4F0430110509F08ACF8FEFA8
:102AC00089838A831B820E945A218160782F9D838B
:102AD0008C8349815A816B818D810E948315BCCF83
:102AE0002A960FB6F894DEBF0FBECDBFDF91CF910F
:102AF0001F910F91FF90EF90DF90CF90BF90AF901C
:102B00009F908F900895DF92EF92FF920F931F9303
:102B1000CF93DF93CDB7DEB72B970FB6F894DEBF18
:102B20000FBECDBF7A878B87F42E052F162FE72E89
:102B3000D82E61110E94D91E1E821D827E2DEC822C
:102B4000DD824F2D502F612F8D2D9E812B960FB63C
:102B5000F894DEBF0FBECDBFDF91CF911F910F91D3
:102B6000FF90EF90DF900C94B01BFC01808191816D
:102B70000C94661ECF93C82F882309F48BC082382B
:102B8000C1F40E94161481FD85C089E30E94941E41
:102B90000E94051F2FEF81EE94E02150804090406D
:102BA000E1F700C0000089E30E949B1ECF910C94C6
:102BB000051F8338A1F40E94161480FD6BC083E5C5
:102BC0000E94941E0E94051F2FEF81EE94E0215079
:102BD00080409040E1F700C0000083E5E5CF8438F5
:102BE000A1F40E94161482FD55C087E40E94941E31
:102BF0000E94051F2FEF81EE94E02150804090400D
:102C0000E1F700C0000087E4CFCF8CEF8C0F813A52
:102C100090F46C2F80911F01909120010E942F2031
:102C2000882329F08C2F0E949B1E0E94051F8C2F49
:102C30000E94941EBBCF80E28C0F883048F4C7708E
:102C400081E001C0880FCA95EAF70E94BC1EAECF92
:102C5000EBE5EC0FE33040F4F0E0EC52FE4F808106
:102C600090E0CF910C944A14E8E5EC0FE73150F472
:102C7000F0E0EE0FFF1FEA55FE4F80819181CF916A
:102C80000C946014CD3E30F08C2F0E94F007CF9151
:102C90000C94C308CF910895882309F452C0823858
:102CA00071F40E94161481FF4CC089E30E94941EA7
:102CB0000E94051F89E30E949B1E0C94051F833808
:102CC00059F40E94161480FF3CC083E50E94941EB4
:102CD0000E94051F83E5EFCF843859F40E94161433
:102CE00082FF2FC087E40E94941E0E94051F87E484
:102CF000E2CF9CEF980F913AF0F290E2980F983063
:102D000050F4877091E001C0990F8A95EAF7892FF6
:102D10000E94C21ED2CF9BE5980F933020F490E022
:102D200080E00C944A1498E5980F973120F490E0D5
:102D300080E00C9460148D3E20F00E944A080C94B0
:102D4000C30808951F93CF93DF93182FEB010E94C0
:102D5000BA15209731F4812FDF91CF911F910C94F8
:102D60004C168FE99FE00197F1F700C00000219712
:102D7000F0CF70E060E0893311F460E570E00C940E
:102D8000A216882321F00E94BC1E0C94051F0895F2
:102D9000882321F00E94C21E0C94051F0895BF9243
:102DA000CF92DF92EF92FF920F931F93CF93DF9317
:102DB0006C01D62FC72FFC011281058102950F707F
:102DC0000E94B21EE82E8823A1F0E12E112389F083
:102DD0008C2F807F803429F080E28D0FE12C8830A9
:102DE00040F082E00E94501F0E94B21E91E0E82E47
:102DF000E926BC2EB2949FE0B922EB2DF0E0E95C0D
:102E0000F54D0C941A290C2F0F70C07F11F002950C
:102E1000007F1123A9F0002359F080E28D0F883044
:102E200010F0D11109C0802F0E94BC1E0E94051F06
:102E30008D2F0E94BA1514C0802F0E94CC1EF6CF91
:102E40008D2F0E944C16002359F080E28D0F8830A0
:102E500010F0D1112CC0802F0E94C21E0E94051FAD
:102E60002B2D2850330B2430310520F40E941614EA
:102E70000E942B04EE2009F49EC10E94AE1E80FD2C
:102E80009AC1F60112820E94A81E0E94341DC6013A
:102E90000E94FC180E94A81EDF91CF911F910F91F4
:102EA000FF90EF90DF90CF90BF900C94551D802F36
:102EB0000E94D21ED3CFFC2FFF70FF2EC07FC032E6
:102EC00019F0F29480EFF822DD2369F0D13049F156
:102ED000112391F1002351F1F601858180FFA8CFE4
:102EE0008F70858323C0112381F0011106C00E94D9
:102EF000EC1E8F290E94C116B3CF0130C1F70E948A
:102F0000EC1E8F290E94F21EABCF011106C00E9459
:102F1000FB1E8F2D0E94C816A3CF013009F4A0CF4D
:102F2000F6CF112329F0063008F09ACF8F2DE2CF8B
:102F3000053008F095CFEDCF002359F3D93349F48C
:102F4000FFEF27EE33E0F15020403040E1F700C0C2
:102F500000008D2F0E944C1683CF8C2F869586956E
:102F6000837069F0813009F07BCF8D2F9C2F937097
:102F7000111102C090E080E00E94601471CF8D2F8B
:102F80009C2F9370111102C090E080E00E944A14BF
:102F900067CF8D2F112329F00E94F0070E94C308EC
:102FA0005FCF0E944A08FACF8C2F837009F041C08E
:102FB000111156CF4D2F429546954770440F440F3F
:102FC0000D2F0F7010E030E020E0042E04C0000F41
:102FD000111F221F331F0A94D2F760E070E0CB016B
:102FE000D4FF0FC06FE070E080E090E004C0660F97
:102FF000771F881F991F4A95D2F760957095809525
:103000009095C695C695C370602B712B822B932B20
:10301000C23049F058F4C13019F00E94E61C20CFAC
:103020000E94D41C1DCF0E94F81C1ACF0E94D21CF3
:1030300017CF8695112311F08C2F8170882309F406
:103040000FCF4D2F429546954770440F440F0D2FDB
:103050000F7010E030E020E0042E04C0000F111FBC
:10306000221F331F0A94D2F760E070E0CB01D4FF37
:103070000FC06FE070E080E090E004C0660F771F43
:10308000881F991F4A95D2F7609570958095909505
:10309000C695C695C370602B712B822B932BC230C3
:1030A00049F058F4C13019F00E94AB1DD9CE0E94EE
:1030B000991DD6CE0E94BD1DD3CE0E940E1DD0CE2E
:1030C000CF70112329F08C2F0E94341D8D2F12CF29
:1030D0008D2F0E94C8168C2F0E94551DC1CED23F45
:1030E00089F160F4D03FC9F0D13F29F1112309F4EF
:1030F00042C001119DCE8C2F8F7121C0D33F39F179
:10310000D43FA1F7112369F1CF718C2F0E94341D98
:1031100063E08C2F0E943B1FA3CE112341F00530AA
:1031200008F09ECE8C2F8F710E94781D99CE0630AC
:1031300008F096CEF7CF8C2F8F71112369F20E9481
:10314000341D8ECE8C2F8F711123C9F3C5CF11235F
:1031500029F08C2F8F710E941F1D82CE0E941A1D94
:103160007FCE81E00E94501F023008F479CE82E0C9
:103170000E94501F75CE002359F0D93309F0E9CED3
:103180008FEF97EEE3E081509040E040E1F7DFCE33
:103190008C2F8F71A1CF4C2F4F706D2FC6010E94C5
:1031A00033040E944A1C5CCE4C2F4F706D2FC60119
:1031B0000E94360455CEDF91CF911F910F91FF9061
:1031C000EF90DF90CF90BF9008950F931F93CF9310
:1031D000DF93EC01688179818A810E94701E8C01E5
:1031E0000E94CF1D0E94D11CB801CE01DF91CF916A
:1031F0001F910F910C94CF16CF93DF93EC018B812D
:103200009C81892B29F08881998189238F3F59F4EA
:10321000DF91CF910895CE010E94E518CE01DF9194
:10322000CF910C946E03CE010E9495038111F3CFD0
:103230000E94B21E882361F38A81882349F382E0C9
:10324000DF91CF910C94501F90E080E00E944A14CF
:1032500090E080E00E9460140E94D91E0E94E91E46
:103260000E94051F0E94EA090C94C3080E94A21E36
:103270000C9424190E94C91E0C943619E92FE2956A
:10328000EF70E250EE3070F4F0E0E95BF54D0C9435
:103290001A29803F19F020F4883E20F481E0089537
:1032A000843FE1F380E00895883EC0F3813FD1F789
:1032B000F5CF93FB882780F908950E94661E0C9431
:1032C0003E19CF93DF9300D000D00F92CDB7DEB779
:1032D0000F900F900F900F900F90DF91CF91089566
:1032E000CF93DF9300D000D000D0CDB7DEB72696C5
:1032F0000FB6F894DEBF0FBECDBFDF91CF9108951A
:103300001F93CF93DF93C0914B0216E080914C0244
:103310008C1304C0DF91CF911F910895D0E01C9FC2
:10332000F0011D9FF00D1124E35BFD4F40815181A1
:1033300062817381848195810E9470192196C77082
:10334000E5CF40917D0250917E0260917F027091A5
:10335000800280918102909182020C9470191F93D7
:10336000CF93DF9380918202807FA9F480917F02C6
:10337000882389F080914B02C0914C0260917D02BC
:1033800070917E02A0918002B0918102D62FD72346
:1033900016E0C81304C0DF91CF911F91089590E00B
:1033A000109711F0DF3F19F401968770F2CF189F44
:1033B0009001199F300D1124F901E35BFD4F41810C
:1033C0004713F2CF40814613EFCF42814111ECCF3A
:1033D000438154814A1B5B0B483C510528F780917F
:1033E00082028F70806180938202F901EE5AFD4F54
:1033F00080818F70806180838DE792E00E94FC184D
:10340000DF91CF911F910C948019AF92BF92CF9210
:10341000DF92EF92FF920F931F93CF93DF93CDB77D
:10342000DEB761970FB6F894DEBF0FBECDBF8C013B
:1034300085E0F801DE011D9601900D928A95E1F775
:10344000F80140815181E2808DE7C82E82E0D82EBC
:1034500060918002709181026115710509F461C16A
:1034600090917D0220917E02892F82238F3F09F463
:1034700058C1A380B480F0907F02F501E61BF70BE2
:10348000FF2009F4FCC080918202382F307FE83C95
:10349000F10508F0B2C0311179C0FE2C251323C00C
:1034A000941321C0E1101FC08F708061809382024D
:1034B0000E94A119C6010E94FC1880918202F801A5
:1034C00085838F2D61960FB6F894DEBF0FBECDBFFA
:1034D000DF91CF911F910F91FF90EF90DF90CF90F0
:1034E000BF90AF900895AB2829F0842F85238F3F9C
:1034F00009F033C180E0F82FF170DF2E80FF3CC06F
:1035000080914B0220914C0236E0821315C04D870A
:103510005E878D859E850E94661E292F22952F70BD
:103520002230F0F0243018F59F70F1F0F801958109
:10353000907FD1F4D12C1EC090E0389FF001399FCC
:10354000F00D1124E35BFD4F6181651306C06081BE
:10355000641303C062816E110FC001968770D5CFCE
:103560009F7011F0882331F3805E883018F3C80112
:103570000E94FC18FD2CA5CFEE2009F4A2CF80916B
:103580008202816080938202F12C9BCF251306C0BA
:10359000941304C0F801EE2009F48DC04D875E87B6
:1035A0008D859E850E945D19882319F1EE2009F111
:1035B00080918202803270F020917D0230917E02F3
:1035C00038872F831986BB86AA868C87CE010796FB
:1035D0000E94FC1886E0F801ADE7B2E001900D9280
:1035E0008A95E1F70E94AF190E94A119FF24F39474
:1035F00068CFC8010E94FC18F9CF311113C07A2D91
:10360000B98AA88A6E2D89890E9461198DE792E096
:103610000E94FC1886E0F60111928A95E9F70E9453
:10362000A119B2CF25130FC094130DC0E1100BC028
:10363000F8018583C8010E94FC1886E0F60111920A
:103640008A95E9F73ECF4D875E878D859E850E94DE
:103650005D19882371F2EE2061F28091820280323E
:1036600008F4B8CF20917D0230917E023A832983FD
:103670001B82BD82AC828E83CE010196A9CFE83C2D
:10368000F10508F041C0FE2CEE2009F4B2CF25135D
:103690002AC0941328C08091820280FD1BC0982FFD
:1036A000907FC1F0F8018583903F31F0982F907F93
:1036B000905F8F70892B8583C8010E94FC1886E07B
:1036C000F801ADE7B2E001900D928A95E1F70E9412
:1036D000A119F7CE86E0F801ADE7B2E001900D92B6
:1036E0008A95E1F7EECE4D875E878D859E850E9497
:1036F0005D1981116FCF8091820281608093820277
:10370000C8010E94FC18DDCE7A2DB98AA88A6E2DD8
:1037100089890E94611986E0F60111928A95E9F77C
:10372000D6CFEE2009F465CF4D875E878D859E85C7
:103730000E945D19F82E882309F45BCF86E0F8011A
:10374000ADE7B2E001900D928A95E1F78DE792E046
:103750000E94B5150E94AF19BACF81E08E25CBCE5D
:103760001F93CF93DF93CDB7DEB72C970FB6F894A6
:10377000DEBF0FBECDBF4F83588769877A878B879F
:103780009C87CE0107960E94051A882369F08A85D6
:103790009B85892B39F04F815885842F85238F3F56
:1037A00009F071C016E05FC086E0FE013796DE01C9
:1037B000119601900D928A95E1F78A859B85892B58
:1037C00089F38F81988589238F3F61F320914C0283
:1037D00030E0C90101968770992740914B02481744
:1037E000190671F40E943A1910924C0210924B0281
:1037F00086E0EDE7F2E0DF011D928A95E9F7D2CF8E
:1038000096E0929FD001939FB00D1124A35BBD4F12
:10381000FE01319601900D929A95E1F780934C024A
:103820000E948019BFCF819FC0011124835B9D4FEF
:103830000E94051A8823E9F0E0914B021E9FF001D7
:103840001124E35BFD4F408151816281738184814A
:1038500095810E94701980914B0290E001968770CB
:10386000992780934B0280914B0290914C028913CF
:10387000DACF2C960FB6F894DEBF0FBECDBFDF9126
:10388000CF911F91089569857A858B859C850E94CB
:10389000701988CFEF92FF920F931F93CF93DF930E
:1038A0008C01892B81F0F12CEE24E394E801219620
:1038B000F8018491843770F4843008F05FC081305F
:1038C000B1F08230A1F1DF91CF911F910F91FF9064
:1038D000EF900895853709F44CC008F43DC09CE78B
:1038E000980F903780F78F770E944C1649C00E5F73
:1038F0001F4FFE01849190E2980F983060F487701A
:10390000FE2D01C0FF0F8A95EAF78F2F0E94DC1E63
:103910000E94051F02C00E94BA158F2D815030F2FF
:10392000EFE9FFE03197F1F700C00000F7CF0E5F3D
:103930001F4FFE01849190E2980F983050F48770E9
:10394000FE2D01C0FF0F8A95EAF78F2F0E94E21E1D
:10395000DFCF0E944C16E1CF0E5F1F4FFE01C491D6
:10396000C150D8F28FE99FE00197F1F700C0000045
:10397000F7CF0E5F1F4FFE01F490CFCF0E94BA1514
:103980008E01CBCF08950C94C21C0E94C31C60937F
:10399000A0027093A1028093A2029093A3020C94C0
:1039A000241908950C94C51C0F931F930091A00235
:1039B0001091A1022091A2023091A302602B712BE1
:1039C000822B932B1F910F910C94C51C0F931F9367
:1039D0000091A0021091A1022091A2023091A302B5
:1039E00060237123822393231F910F910C94C51C94
:1039F0000F931F930091A0021091A1022091A202A7
:103A00003091A30260277127822793271F910F917E
:103A10000C94C51C0C94C21C0C940A1D0E940C1D15
:103A200060939C0270939D0280939E0290939F02EC
:103A30000C94241960E070E0CB010C940E1D0F93E0
:103A40001F9341E050E060E070E08A019B0104C0F8
:103A5000000F111F221F331F8A95D2F7C901B80129
:103A60001F910F910C940E1D0F931F9341E050E096
:103A700060E070E004C0440F551F661F771F8A95F1
:103A8000D2F780919C0290919D02A0919E02B091EC
:103A90009F028A019B01082B192B2A2B3B2BC90162
:103AA000B8011F910F910C940E1D0F931F9341E0CD
:103AB00050E060E070E004C0440F551F661F771FA0
:103AC0008A95D2F7CB01BA01609570958095909553
:103AD00000919C0210919D0220919E0230919F02C4
:103AE00060237123822393231F910F910C940E1D49
:103AF0000F931F9341E050E060E070E004C0440F7A
:103B0000551F661F771F8A95D2F780919C0290916E
:103B10009D02A0919E02B0919F028A019B010827FD
:103B200019272A273B27C901B8011F910F910C942F
:103B30000E1D0F931F9300919C0210919D022091E6
:103B40009E0230919F02602B712B822B932B1F9131
:103B50000F910C940E1D0F931F9300919C021091D6
:103B60009D0220919E0230919F0260237123822347
:103B700093231F910F910C940E1D0F931F9300918F
:103B80009C0210919D0220919E0230919F0260271D
:103B90007127822793271F910F910C940E1D089572
:103BA0002AE0929F800D1124982F977041E001C068
:103BB000440F9A95EAF786958695869595E0899FB4
:103BC000F0011124ED57FD4F90E080E070E051913D
:103BD000DF0111979B01082E02C0369527950A94A4
:103BE000E2F7217021952527242325272C93019680
:103BF0008530910561F708952AE0929F800D112488
:103C0000982F977086958695869525E0829FF0017E
:103C10001124ED57FD4F50E040E080E0219130E06D
:103C2000092E02C0369527950A94E2F721703327B2
:103C3000042E01C0220F0A94EAF7822B4F5F5F4FD8
:103C40004530510559F70895BF92CF92DF92EF9218
:103C5000FF920F931F93CF93DF938C01C0909C0230
:103C6000D0909D02E0909E02F0909F028091A00271
:103C70009091A102A091A202B091A302C82AD92AD0
:103C8000EA2AFB2ACFE1D0E0BC2ED701C6010C2ED8
:103C900004C0B695A795979587950A94D2F780FDAD
:103CA0000EC0219788F7B12C8B2DDF91CF911F91FA
:103CB0000F91FF90EF90DF90CF90BF900895B801E3
:103CC0008C2F0E945304019761F3EECFCF93DF93C3
:103CD000EC010E94241EBE01DF91CF910C9453048D
:103CE0001F93CF93DF93EB0190914A02992331F018
:103CF000CB01DF91CF911F910C94661E882379F040
:103D0000CB010E94241E182F682FCE010E94D01DC7
:103D1000BE01812FDF91CF911F910C945304CB01F1
:103D20000E94FC1D182FF4CF682F80911F019091E5
:103D300020010C94AF20682F80911F0190912001E9
:103D40000C94BA2080911F01909120010C94C52001
:103D50008091A40285958595859508958091A4020A
:103D6000877008959091A402977081E009F480E033
:103D700008958091C80208959091C802892B80937C
:103D8000C802089580959091C80298239093C80224
:103D900008951092C80208959091C702892B8093CC
:103DA000C702089580959091C70298239093C70207
:103DB00008951092C70208959091C602892B8093AE
:103DC000C602089580959091C60298239093C602EA
:103DD00008951092C60208958091A502089508954D
:103DE0000C94EF1E9091A502981721F08093A502E4
:103DF0000C94F01E08958091A502882329F010925A
:103E0000A50280E00C94F01E0895E0911F01F0914E
:103E100020018091C8028083E0911F01F091200170
:103E200080819091C702892B8083E0911F01F091DE
:103E3000200180819091C602892B80839091A502F8
:103E4000992381F0E0911F01F09120018081892B5D
:103E5000808380911F01909120010E941B2081117D
:103E60000E94FB1E80911F01909120010C9422144E
:103E700008950C94381F98E0899F90011124622BBB
:103E80006093A4020E94341D8091A40285958595BB
:103E900085950C94391F1092A40280E00C94391F70
:103EA0009091A402809589238093A402282F2770E3
:103EB00071F4282F082E000C330B9217130639F0DB
:103EC0008595859585950E94551D0C944B1F0895E9
:103ED00080E008956FEF7FEF90E080E00C94EC2994
:103EE00090E080E00E94C82921E08B3E9E4F09F0BF
:103EF00020E0822F089582E090E00C94BA2983E0BC
:103F000090E00C94BA29CF9384E090E00E94BA2903
:103F1000C82F81E290E00E94BA29982F8C2FCF9170
:103F20000895CF93C92F682F84E090E00E94CE2996
:103F30006C2F81E290E0CF910C94CE29AB01BC01B3
:103F40008FE090E00C94E029AB01BC0183E190E0AC
:103F50000C94E02960E070E0CB010C94A41F60E0B9
:103F600070E0CB010E949E1F0C94AA1F6BEE7EEFA7
:103F700090E080E00E94EC2960E082E090E00E9406
:103F8000CE2960E083E090E00E94CE291092A0024A
:103F90001092A1021092A2021092A30260E084E0AB
:103FA00090E00E94CE2960E081E290E00E94CE295C
:103FB00060E085E090E00E94CE2960E086E090E03D
:103FC0000E94CE296FEF87E090E00E94CE2940E06A
:103FD00050E0BA0188E090E00E94E02960E08DE0C6
:103FE00090E00E94CE2940E050E0BA0188E190E0E4
:103FF0000E94E02960E087E190E00E94CE2940E045
:1040000050E0BA018CE190E00E94E02960E080E29B
:1040100090E00E94CE2940E050E0BA0188E190E0B3
:104020000E94E0290C94AF1F0C94B61F682F8EE0FD
:1040300090E00C94CE29FC01329680912B018823CC
:1040400021F0809124039EE187FF96E080E091506B
:1040500008F4089521912223D1F38F5FF8CF6623CE
:1040600001F120912B012223F1F02091240327FF5D
:104070001AC0462F4695469546954E3190F4677086
:1040800021E030E002C0220F331F6A95E2F7840F6F
:10409000911DFC01828190E02823392381E0232BAC
:1040A00069F480E00895FC01329608962191261764
:1040B00021F0E817F907D1F7F4CF81E008959C01CA
:1040C000FC0132969FEF80E04191461751F09F3FEF
:1040D00019F4411101C0982F8F5F8630A9F79F3FD7
:1040E00009F40895290F311D97FD3A95F90162836E
:1040F0000895FC01329608962191261303C0DF0132
:1041000011971C92E817F907B9F70895E62FE6957D
:10411000E695E695EE3168F4E80FF92FF11D67702A
:1041200021E030E001C0220F6A95EAF78281822BFC
:1041300082830895E62FE695E695E695EE3170F4D4
:10414000E80FF92FF11D677021E030E001C0220F68
:104150006A95EAF720958281282322830895209189
:104160002B01222329F02091240327FD0C94862083
:104170000C945F2020912B01222329F0209124030D
:1041800027FD0C949A200C947920FC0132968091A2
:104190002B01882351F08091240387FF06C08EE114
:1041A000DF011D928A95E9F7089586E0F9CF089519
:1041B00008950C94D82080912A03843049F10E94FC
:1041C000D92080E00E942B041092CA0288E190E07E
:1041D00020E40FB6F894A895809360000FBE20935A
:1041E000600083B7817F846083BF83B7816083BFB2
:1041F0007894889583B78E7F83BF0FB6F894A8957F
:1042000080916000886180936000109260000FBE12
:1042100008950895CF930E94D7200E94AF060E9470
:104220000921C0E08C2F0E944806892B31F4CF5F12
:10423000C430C1F780E0CF91089581E0FCCF0895AC
:104240000C941F210E943A190E9416140E942B04FC
:104250000C9420211F921FB61F9211248F939F93BD
:10426000AF93BF938091CA02811113C08091200344
:1042700090912103A0912203B09123034196A11DA7
:10428000B11D8093200390932103A0932203B09348
:104290002303BF91AF919F918F911F901FBE1F90DD
:1042A000189582E084BD93E095BD9AEF97BD809309
:1042B0006E0008952FB7F894809120039091210308
:1042C000A0912203B09123032FBF08952FB7F89434
:1042D0006091200370912103809122039091230328
:1042E0002FBF08959C014FB7F894809120039091BF
:1042F0002103A0912203B09123034FBF821B930B94
:10430000089578941F921FB61F9211248F939F9344
:10431000AF93BF938091200390912103A09122033A
:10432000B09123030196A11DB11D809320039093AA
:104330002103A0932203B0932303BF91AF919F91D8
:104340008F911F901FBE1F90189587E797E7909356
:1043500001088093000888E19AE00FB6F894A895C8
:10436000809360000FBE90936000FFCF9093D901BF
:104370008093D80108950C946A1F0E94AF062FEF16
:1043800086E791E0215080409040E1F700C00000B6
:104390000E94AF0680E00E94480680FF04C00E9491
:1043A000BB210C94A52108950E94701F811102C0A9
:1043B0000E9414200E947B1F8093C9020E94831FC9
:1043C00090932503809324030E947F1F682F70E041
:1043D00090E080E00E94D21C60919C0270919D024E
:1043E00080919E0290919F020C940C1D8091EB0293
:1043F0000895CF93DF9300D00F92CDB7DEB79091A1
:104400002A03943019F589837B836A8382E0809341
:10441000E9008FEF9091E800815095FD06C095ED81
:104420009A95F1F700008111F5CF8091E80085FFA2
:104430000DC050E040E063E070E0CE0101960E94C4
:1044400025248091E8008E778093E8000F900F90EC
:104450000F90DF91CF910895BC0184E00C94F92175
:10446000BC0183E00C94F9219C0182E08093E90077
:104470009FEF8091E800915085FD06C085ED8A95FB
:10448000F1F700009111F5CF8091E80085FF0CC095
:1044900050E040E066E070E0C9010E942524809170
:1044A000E8008E778093E8000895CF93DF93EC01C6
:1044B00080912B018823B1F18091240387FF32C0C2
:1044C00060E282E08093E9008FEF9091E8008150F4
:1044D00095FD06C095ED9A95F1F700008111F5CF95
:1044E0008091E80085FF1BC080912B0170E050E0B7
:1044F00040E0811104C050E040E068E070E0CE018F
:104500000E9425248091E8008E778093E80080E265
:10451000FE01ABECB2E001900D928A95E1F7DF91DC
:10452000CF91089568E081E0CDCF8091290381117A
:1045300009C00E94B5250E9412268091E200846085
:104540008093E20008951092290308950895089534
:10455000089542E061EC81E00E94312542E261EC85
:1045600082E00C94312580912C03833009F45FC0E4
:1045700030F48130C1F1823009F49BC008958A3053
:1045800009F487C08B3009F46DC0893009F04EC042
:1045900080912B03813209F049C080912F039091C3
:1045A0003003029708F042C08091E800877F809333
:1045B000E8008091E80082FF35C09091F30080917F
:1045C000F200029729F48091F1008B7F813021F471
:1045D0008091F1008093EB028091E8008B778093CB
:1045E000E8000C94652580912B03813AF9F48091C1
:1045F000E800877F8093E80080912F03909130033B
:10460000892B61F460E28BEC92E070E00E947424EC
:104610008091E8008B778093E800089560E090E057
:1046200080E0F3CF80912A038111C3CF0895809158
:104630002B03813AD9F780912F0390913003892B76
:10464000A9F78091E800877F8093E8008091E800D7
:1046500080FFFCCF80912B018093F1008091E800D6
:104660008E77BDCF80912B03813201F780912F038C
:1046700090913003892BD1F68091E800877F809359
:10468000E8000E94652580912D0380932B010C94F6
:104690003A1980912B03813249F68091E800877F97
:1046A0008093E8000E94652580912E038093EC02A0
:1046B000089580912B03813A09F0B8CF8091E800EA
:1046C000877F8093E8008091E80080FFFCCF809195
:1046D000EC02C2CF84B7877F84BF0FB6F894A89549
:1046E00080916000886180936000109260000FBE2E
:1046F00080E890E00FB6F894809361009093610099
:104700000FBE0E94AA140E94B5250E941226809115
:10471000E20084608093E20078940E949B280E94CB
:10472000BA1481E291E00E94111480912A0385302D
:10473000A9F00E94C6140E94B8140E94B914F5CFC3
:104740000E94DB2080912803882341F00E940A21E7
:10475000882321F00E940F240E943A1980912A0395
:10476000853071F30E942221E4CF0C94B723292FC6
:1047700033272330310519F168F42130310509F46C
:1047800044C02230310509F445C090E080E030E0BB
:1047900020E025C02132310549F122323105A9F747
:1047A00080E490E021E335E061157105C1F086EB0E
:1047B00090E02BE734E06130710589F0E6CF99276E
:1047C0008130910581F0009729F00297F1F6E6E03B
:1047D000F4E002C0EAE2F4E0849190E09F01FA0183
:1047E000318320830895E4E1F4E0F6CF89E090E09E
:1047F00020E434E06115710591F389E090E029E54A
:1048000034E06130710559F3C0CF82E190E029E6D0
:1048100034E0E5CF8BE390E02EE234E0E0CF80E1BE
:1048200089BD82E189BD09B400FEFDCF8091D80029
:104830008F7D8093D8008091E00082608093E000BB
:104840008091E00081FDFCCF0895AF92BF92CF929E
:10485000DF92FF920F931F93CF93DF936C01EB01D5
:104860008A010E948425F82E811123C001151105AB
:1048700039F0F80180819181C81BD90BC80ED91E6F
:10488000B12CA12C2097A9F08091E80085FD22C0D1
:104890008091E8008E778093E80001151105A1F062
:1048A000F80180819181A80EB91EB182A08285E0B5
:1048B000F82E8F2DDF91CF911F910F91FF90DF90F8
:1048C000CF90BF90AF9008950E9484258823D1F2A5
:1048D000F82EEFCFF60181916F018093F1002197BF
:1048E000FFEFAF1ABF0ACECFFC0180913103909148
:1048F000320386179707A0F06115710529F490918E
:10490000E8009E779093E80090E06115710551F4FE
:10491000911108C08091E80082FF34C080E00895C2
:10492000BC01F2CF80912A038823C1F18530C1F107
:104930008091E80083FD30C08091E80082FDEACFDD
:104940008091E80080FFE1CF8091F3002091F20098
:10495000382F6115710519F02830310558F091E0B4
:104960002830310509F090E02091E8002E7720935F
:10497000E800CBCF81918093F100615071092F5FE6
:104980003F4FE7CF80912A03882341F0853041F0E3
:104990008091E80083FFBECF81E0089582E0089512
:1049A00083E00895FC0180913103909132038617D2
:1049B0009707A0F06115710529F48091E8008E77C2
:1049C0008093E80090E06115710551F4911108C0E1
:1049D0008091E80082FF35C080E00895BC01F2CFED
:1049E00080912A038823C9F18530C9F18091E800BC
:1049F00083FD31C08091E80082FDEACF8091E8001C
:104A000080FFE1CF8091F3002091F200382F6115F3
:104A1000710519F02830310558F091E02830310542
:104A200009F090E08091E8008E778093E800CBCF8A
:104A300084918093F1003196615071092F5F3F4F4F
:104A4000E6CF80912A03882341F0853041F08091A0
:104A5000E80083FFBDCF81E0089582E0089583E000
:104A60000895982F973028F08F708093E90081E0A7
:104A700008959093E900242F762F50E0981731F095
:104A80007091EC002091ED005091F00021FD02C0EA
:104A90009F5FE8CF3091EB003E7F3093EB00309189
:104AA000ED003D7F3093ED003091EB0031603093AD
:104AB000EB007093EC002093ED005093F0002091F8
:104AC000EE0027FDE5CF80E0089580912B0387FF5E
:104AD00013C08091E80082FF06C08091E8008B77C8
:104AE0008093E80004C080912A038111F2CF0895D9
:104AF00080912A038823D9F38091E80080FFF8CFC2
:104B00008091E8008E77ECCF2091E4003091E500B1
:104B100095E6A9012091EC00822F817020FF06C04C
:104B20008091E80080FF06C080E008952091E800B1
:104B300022FD1AC080912A03882389F0853089F0EC
:104B40008091EB0085FD0FC02091E4003091E500DD
:104B500042175307F9F29150E1F684E0089582E09C
:104B6000089583E0089581E008950E9423260E941D
:104B70002B26E0EEF0E0808181608083E8EDF0E0BC
:104B800080818F77808319BCA7EDB0E08C918E7FF8
:104B90008C9380818F7E80831092290308950F93D8
:104BA0001F93CF93DF930E9423260E942B26C8EDEC
:104BB000D0E088818F778883888180688883888126
:104BC0008F7D888319BC10922A03109226031092BD
:104BD00028031092270300EE10E0F80180818B7FFC
:104BE000808388818160888342E060E080E00E9469
:104BF0003125E1EEF0E080818E7F8083E2EEF0E00F
:104C0000808181608083808188608083F8018081D9
:104C10008E7F8083888180618883DF91CF911F910F
:104C20000F910895E8EDF0E080818F7E8083E7EDBD
:104C3000F0E080818160808384E082BF81E08093A6
:104C400029030C94CF25E8EDF0E080818E7F8083EE
:104C50001092E20008951092DA001092E100089597
:104C60001F920F920FB60F9211242F933F934F93E1
:104C70005F936F937F938F939F93AF93BF93EF93C4
:104C8000FF938091E10082FF0BC08091E20082FFE0
:104C900007C08091E1008B7F8093E1000E949A28F9
:104CA0008091DA0080FF19C08091D80080FF15C084
:104CB0008091DA008E7F8093DA008091D90080FFA6
:104CC00096C080E189BD82E189BD09B400FEFDCFB7
:104CD00081E080932A030E9495228091E10080FF69
:104CE00019C08091E20080FF15C08091E2008E7FA4
:104CF0008093E2008091E20080618093E2008091E5
:104D0000D80080628093D80019BC85E080932A0384
:104D10000E94A7228091E10084FF2BC08091E200D5
:104D200084FF27C080E189BD82E189BD89B5982FC4
:104D3000917080FFFBCF8091D8008F7D8093D80049
:104D40008091E1008F7E8093E1008091E2008F7E70
:104D50008093E2008091E20081608093E200809184
:104D60002603882309F449C084E080932A030E9423
:104D7000A8228091E10083FF29C08091E20083FF97
:104D800025C08091E100877F8093E10082E08093DD
:104D90002A03109226038091E1008E7F8093E10028
:104DA0008091E2008E7F8093E2008091E20080613A
:104DB0008093E20042E060E080E00E943125809133
:104DC000F00088608093F0000E94A622FF91EF918E
:104DD000BF91AF919F918F917F916F915F914F9113
:104DE0003F912F910F900FBE0F901F90189519BCF7
:104DF00010922A030E94A32270CF8091E30087FDC6
:104E000093E090932A03B3CF1F920F920FB60F92A5
:104E100011242F933F934F935F936F937F938F93BF
:104E20009F93AF93BF93CF93DF93EF93FF93D09173
:104E3000E900DF708091EC00C82FC17080FDC0E8F0
:104E40001092E9008091F000877F8093F0007894C1
:104E50000E9448271092E9008091F00088608093BA
:104E6000F000CD2BCF70C093E900FF91EF91DF915F
:104E7000CF91BF91AF919F918F917F916F915F91F2
:104E80004F913F912F910F900FBE0F901F9018954B
:104E90001F93CF93DF93CDB7DEB7AA970FB6F894E1
:104EA000DEBF0FBECDBF8BE293E02091F100FC018D
:104EB0002193CF01F3E083339F07B9F70E94B32218
:104EC0008091E80083FF1EC180912B0390912C03F9
:104ED0009A3008F017C1E92FF0E0EB5AF54D0C9429
:104EE0001A29803899F0823809F00CC180912F037B
:104EF0008F70873008F006C18093E9008091EB0045
:104F000085FB882780F91092E90006C0809127036D
:104F100090912803911182609091E800977F90937F
:104F2000E8008093F1001092F1008091E8008E7704
:104F3000E5C0882309F4D3C0823009F0E3C0809132
:104F40002D038111D6C080912F038F702FEF280F72
:104F5000263008F0D7C08093E9002091EB0020FFB5
:104F6000C8C0933031F48091EB0080628093EB00F5
:104F7000C0C09091EB0090619093EB0021E030E095
:104F800001C0220F8A95EAF72093EA001092EA0006
:104F90008091EB008860EACF8111B4C010912D039D
:104FA0001F778091E3008078812B8093E3008091CC
:104FB000E800877F8093E8000E9465258091E800E3
:104FC00080FFFCCF8091E30080688093E30082E063
:104FD000111183E080932A0395C08058823008F035
:104FE00091C080912D0390912E038C3D23E0920778
:104FF000A1F583E08A838AE289834FB7F894DE01C2
:10500000139620E03EE051E2E32FF0E0509357008A
:10501000E49120FF03C0E295EF703F5FEF708E2FA9
:1050200090E0EA30C0F0C7968D939D932F5F2431B6
:1050300059F74FBF8091E800877F8093E8006AE2CC
:1050400070E0CE0101960E9474248091E8008B7775
:105050008093E80057C0C096E7CF60912F0370910E
:105060003003AE014F5F5F4F0E94B523BC01892B17
:1050700009F448C09091E800977F9093E8008981F7
:105080009A810E94D224E1CF8038E1F58091E80036
:10509000877F8093E800809126038093F10045CFBD
:1050A000811130C090912D03923060F58091E8001D
:1050B000877F8093E800909326030E946525809166
:1050C0002603882311F084E005C08091E30087FD6A
:1050D000FACF81E080932A030E94A92213C0809115
:1050E0002D03813079F481E0933009F080E08093E2
:1050F00028031092E9008091E800877F8093E80000
:105100000E9465258091E80083FF0AC08091E80035
:10511000877F8093E8008091EB0080628093EB00B2
:10512000AA960FB6F894DEBF0FBECDBFDF91CF9128
:105130001F9108950895CF9380912A038823A1F0A9
:10514000C091E900CF709091EC00892F817090FDA3
:1051500080E8C82B1092E9008091E80083FD0E944E
:105160004827CF70C093E900CF910895991B79E04B
:1051700004C0991F961708F0961B881F7A95C9F7E7
:105180008095089587FB082E062687FD819567FD8B
:1051900061950E94B6280EF4919507FC81950895BB
:1051A000AA1BBB1B51E107C0AA1FBB1FA617B7074D
:1051B00010F0A61BB70B881F991F5A95A9F7809569
:1051C0009095BC01CD01089597FB072E16F400942D
:1051D00007D077FD09D00E94D02807FC05D03EF407
:1051E000909581959F4F0895709561957F4F089593
:1051F000A1E21A2EAA1BBB1BFD010DC0AA1FBB1FDB
:10520000EE1FFF1FA217B307E407F50720F0A21B4C
:10521000B30BE40BF50B661F771F881F991F1A94B9
:1052200069F760957095809590959B01AC01BD01E3
:10523000CF010895EE0FFF1F0590F491E02D099422
:105240000E942829332312F48A1B9B0B0C943929C2
:10525000A29FB001B39FC001A39F700D811D1124B7
:10526000911DB29F700D811D1124911D08950E9402
:105270002829B7FF0895821B930B08950E942829BF
:10528000A59F900DB49F900DA49F800D911D11249A
:105290000895B7FF0C943E290E943E29821B930B70
:1052A00008958F929F92AF92BF92CF92DF92EF922A
:1052B000FF92CF93DF93EC01688179818A819B8192
:1052C000611571058105910521F464E279ED8BE5A5
:1052D00097E02DE133EF41E050E00E94022A4901BE
:1052E0005A019B01AC01A7EAB1E40E943E296B017F
:1052F0007C01ACEEB4EFA50194010E944C29DC01C5
:10530000CB018C0D9D1DAE1DBF1DB7FF03C00197C6
:10531000A109B04888839983AA83BB839F77DF91D3
:10532000CF91FF90EF90DF90CF90BF90AF909F9084
:105330008F9008950E945129089580E091E00E9485
:1053400051290895B0E0A0E08093000190930101FD
:10535000A0930201B09303010895FC014150504015
:1053600030F001900616D1F73197CF0108958827C4
:1053700099270895F999FECF92BD81BDF89A992792
:1053800080B50895A6E1B0E044E050E00C94F42923
:10539000A8E1B0E042E050E00C94F429262FF999FE
:1053A000FECF92BD81BDF89A019700B4021639F084
:1053B0001FBA20BD0FB6F894FA9AF99A0FBE089555
:1053C0000396272F0E94CF290E94CE29252F0E94C5
:1053D000CF29242F0C94CF290196272F0E94CF2963
:1053E0000C94CE29DC01CB01FC01F999FECF06C05B
:1053F000F2BDE1BDF89A319600B40D924150504093
:10540000B8F70895052E97FB1EF400940E94192A00
:1054100057FD07D00E94F82807FC03D04EF40C94E7
:10542000192A50954095309521953F4F4F4F5F4F2A
:10543000089590958095709561957F4F8F4F9F4F00
:105440000895F894FFCF25112D11341139113E1113
:10545000431148114D11521157115C116111651121
:105460006A116D1170117311761178117B11031788
:1054700003175B175B17AD17C91730173017D41711
:1054800060186F186F18CB1830173017D4184919D7
:1054900049195219521954195219521952194919C4
:1054A00049195919521952195919712799278228DE
:0E54B00099278228CC27ED27822844285028EF
:1054BE00010000002808641E140A321E01010200B9
:1054CE000A000A0A01191A1B1C1D1E1F202122A6E2
:1054DE0002F6215522342230222C2201E200E9006C
:1054EE00EA00B500B600B700CD008301CC008A01FA
:1054FE009201940121022302240225022602270290
:10550E002A02B300B4006F00700081828397343694
:10551E00323331F7F6F5F4946635C6000102020215
:10552E00020606060909090909090F0F0F0F0F0FC9
:10553E0015151518191919191919191919192324C5
:10554E0025252525252500FF0100010000FFFF0070
:10555E0000010001FF00E200E900EA00B500B6001C
:10556E00B700CD008301CC008A0192019401210283
:10557E00230224022502260227022A02B300B400C7
:08558E006F00700081828300B0
:00000001FF
