:100000000C94E8020C942F030C942F030C942F03F0
:100010000C942F030C942F030C942F030C942F0398
:100020000C942F030C942F030C94CF270C94A3282B
:100030000C9408230C942F030C942F030C942F037F
:100040000C942F030C942F030C942F030C942F0368
:100050000C942F030C945F230C942F030C942F0308
:100060000C942F030C942F030C942F030C942F0348
:100070000C942F030C942F030C942F030C942F0338
:100080000C942F030C942F030C942F030C942F0328
:100090000C942F030C942F030C942F030C942F0318
:1000A0000C942F030C942F030C942F033300340073
:1000B00000002D002E0000001A00080000001400AF
:1000C0001A000000160007000000270026000000AC
:1000D00012001300000014001A0008001500170099
:1000E0001C00180004431600070009000A000B005A
:1000F0000D001D621B000600190005001100100014
:10010000E000E200000000002C41000033000C0081
:100110001200130036003400000000000E000F0033
:10012000284237720000000000001E001F0020005F
:100130002100220023002400AE00AA00A900AC0088
:10014000AB0000002D000451000000000000000082
:1001500000000000E30000000000000001000000BB
:10016000010025002600270000000100000000001B
:100170002E002F00300031000000000000001E02A1
:100180001F02200221022202230224023A003B0025
:100190003C003D003E003F002D0240004100420077
:1001A0004300440045000000390001000000000049
:1001B00001000000010025022602270200000100C4
:1001C000000000002E022F02300231020000000069
:1001D00000000000000000000000000000004A00D5
:1001E00000000000000000000000000050000000BF
:1001F00000000000000000000000000000000000FF
:100200000000000000000000390052004D004B00CB
:10021000000000000000000051004F004E003100BF
:10022000000000000000005C000000000000000072
:10023000B20000000000000000000000000000000C
:1002400000000000000000000000000000000000AE
:10025000000000000000000000000000000000009E
:10026000000000000000000000000000000000008E
:100270000000000000000000000000047F3F1F6439
:100280003214643214783C1E1E140A0522232526DB
:1002900028292A2C2D2F3032333536383A3B3D3E33
:1002A0004042434547494A4C4E5051535557595A7D
:1002B0005C5E6062646668696B6D6F717375777997
:1002C0007B7D7F81838587898A8C8E909294969896
:1002D0009A9C9E9FA1A3A5A7A8AAACAEAFB1B3B4A8
:1002E000B6B8B9BBBCBEBFC1C2C3C5C6C7C9CACBFD
:1002F000CCCDCED0D1D2D2D3D4D5D6D7D7D8D9D9C8
:10030000DADADBDBDBDCDCDCDCDCDDDDDDDDDCDC30
:10031000DCDCDCDBDBDBDADAD9D9D8D7D7D6D5D44D
:10032000D3D2D2D1D0CECDCCCBCAC9C7C6C5C3C219
:10033000C1BFBEBCBBB9B8B6B4B3B1AFAEACAAA86E
:10034000A7A5A3A19F9E9C9A98969492908E8C8A22
:1003500089878583817F7D7B79777573716F6D6BFD
:100360006968666462605E5C5A5957555351504ED5
:100370004C4A4947454342403E3D3B3A3836353387
:1003800032302F2D2C2A292826252322FFAA7F55FB
:10039000400001010101010101010102020202020A
:1003A000020202020303030303030303040404041D
:1003B00004040405050505050606060606070707E5
:1003C000070708080808090909090A0A0A0B0B0B9C
:1003D0000C0C0C0D0D0D0E0E0E0F0F0F1010111139
:1003E00011121213131414151516161717181819BD
:1003F000191A1A1B1B1C1D1D1E1E1F202021222224
:10040000232424252626272829292A2B2C2D2D2E66
:100410002F30313232333435363738393A3B3C3D80
:100420003E3F404142434445464748494A4C4D4E71
:100430004F50515354555658595A5B5D5E5F616237
:1004400064656668696B6C6D6F7072737577787AC6
:100450007B7D7E8082838587888A8C8E8F91939521
:1004600096989A9C9EA0A2A3A5A7A9ABADAFB1B345
:10047000B5B7BABCBEC0C2C4C6C9CBCDCFD1D4D625
:10048000D8DBDDDFE2E4E7E9EBEEF0F3F5F8FAFDC7
:10049000FF1A03710061007A0020006B006500798B
:1004A0000062006F006100720064000000220377A8
:1004B000006800790064006F0062006500610072EE
:1004C0000073006500780070006C006F006400002D
:1004D000000403090409023B00020100A0FA090418
:1004E0000000010301010009211101000122400067
:1004F0000705810308000A09040100010300000048
:10050000092111010001226D000705820320000A64
:100510001201000200000008317401000100010214
:10052000000105010980A101850319012AB7001501
:100530000126B700950175108100C0050C0901A1C5
:1005400001850419012AA002150126A00295017552
:10055000108100C005010906A1018506050719E003
:1005600029E7150025019508750181020507190085
:1005700029EF1500250195F0750181020508190183
:100580002905950575019102950175039101C00535
:10059000010906A101050719E029E71500250195C4
:1005A0000875018102950175088101050719002967
:1005B000FF150026FF009506750881000508190142
:1005C0002905950575019102950175039101C000FA
:1005D00011241FBECFEFDAE0DEBFCDBF04B603FEAD
:1005E00027C08091A8039091A903A091AA03B0917C
:1005F000AB038730904BA740B04BD1F41092A803C7
:100600001092A9031092AA031092AB0314BE84B7F0
:10061000877F84BF0FB6F894A895809160008861A9
:1006200080936000109260000FBEE0E0F8E309954F
:1006300011E0A0E0B1E0E6E7F7E502C005900D9219
:10064000AC3EB107D9F723E0ACEEB1E001C01D929A
:10065000A83AB207E1F70E940A140C94522B0C94AA
:10066000000081E0089581E008950C94330308951B
:100670000C9437031F93CF93DF9300D000D00F92D9
:10068000CDB7DEB749835A836B833091EE01898100
:100690009A8131111DC06623B9F02223A9F00E946E
:1006A000A809182F682F89819A810E9454096981AD
:1006B0007A81812F0F900F900F900F900F90DF9104
:1006C000CF911F910C946D100E948009182FEFCFCD
:1006D0000E94A80969817A81EDCFFC01262F8681CD
:1006E0009781009739F440815181628173818481BF
:1006F0000C943A030895CF93DF93EC0161E00E94DC
:100700006D03BE01DF91CF910C94281ECF93DF9330
:10071000EC0160E00E946D03BE01DF91CF910C946B
:1007200038030E948B120E9416040C94B0120E948F
:10073000E41D0C94B31280E00C94170408950895FE
:100740000E94F3070E949F032FEF84E39CE0215057
:1007500080409040E1F700C000000C9483230F9389
:100760001F93CF93DF938C0161E00E946D03EC0136
:10077000B8010E9435038823D9F1B801CE010E9447
:100780003E218823A9F1B801CE010E94371B88239E
:1007900079F1B801CE010E94A820882349F1B8015F
:1007A000CE010E94401A882319F1F8018281882322
:1007B00061F0CB35FDE5DF0721F170F4C115ECE503
:1007C000DE07A1F0CF3DDC45C9F0C801DF91CF9134
:1007D0001F910F910C943103CC358DE5D807A1F012
:1007E000CD35DD4591F70E94CE0EEFCF0E94A003DC
:1007F00080E0DF91CF911F910F9108950E94880FA3
:10080000F7CF0E94D70EE1CF0E94DA0EDECF0C9414
:100810009E030E949A210E9417040C9407040895D5
:100820000C940F0481E008950C9412040895CF9362
:10083000C82F0E9410048C2FCF910C941404CF93D6
:10084000DF93CDB7DEB72D970FB6F894DEBF0FBE9E
:10085000CDBF49875A876B877C878D8761110E943E
:100860001C0E1D821E821F82188685E0FE013996AD
:10087000DE01119601900D928A95E1F78C819D81A0
:10088000892B99F429813A814B815C816D817E812C
:100890008F8198850E94370D2D960FB6F894DEBF94
:1008A0000FBECDBFDF91CF91089589819A818923B1
:1008B0008F3F41F3CE0101960E947B038111E2CF6D
:1008C000EBCFFC01808191810C94EA09CF93C82F72
:1008D000882309F488C08238C1F40E949A2181FDDE
:1008E00082C089E30E94D70D0E944C0E2FEF81EE4B
:1008F00094E0215080409040E1F700C0000089E37F
:100900000E94DE0DCF910C944C0E8338A1F40E940E
:100910009A2180FD68C083E50E94D70D0E944C0E8D
:100920002FEF81EE94E0215080409040E1F700C02D
:10093000000083E5E5CF8438A1F40E949A2182FD6E
:1009400052C087E40E94D70D0E944C0E2FEF81EE1B
:1009500094E0215080409040E1F700C0000087E41F
:10096000CFCF8CEF8C0F813AB8F48C2F0E9471207E
:10097000811139C06C2F80913301909134010E9414
:100980000022882329F08C2F0E94DE0D0E944C0E3D
:100990008C2F0E94D70DB6CF80E28C0F883048F4A0
:1009A000C77081E001C0880FCA95EAF70E94FF0D69
:1009B000A9CFEBE5EC0FE33040F4F0E0EA57FE4F4F
:1009C000808190E0CF910C94C021C85AC73158F46F
:1009D000EC2FF0E0EE0FFF1FE85AFE4F808191816F
:1009E000CF910C94D621CF910895882309F44BC060
:1009F000823871F40E949A2181FF45C089E30E94E8
:100A0000D70D0E944C0E89E30E94DE0D0C944C0E13
:100A1000833859F40E949A2180FF35C083E50E94F3
:100A2000D70D0E944C0E83E5EFCF843859F40E9415
:100A30009A2182FF28C087E40E94D70D0E944C0EA5
:100A400087E4E2CF9CEF980F913AF0F290E2980F92
:100A5000983050F4877091E001C0990F8A95EAF7B9
:100A6000892F0E94050ED2CF9BE5980F933020F47A
:100A700090E080E00C94C021885A873120F490E007
:100A800080E00C94D62108951F93CF93DF93182F05
:100A9000EB010E946604209731F4812FDF91CF9102
:100AA0001F910C94F5048FE99FE00197F1F700C0C6
:100AB00000002197F0CF70E060E0893311F460E529
:100AC00070E00C944405882321F00E94FF0D0C94E3
:100AD0004C0E0895882321F00E94050E0C944C0EB4
:100AE0000895BF92CF92DF92EF92FF920F931F93E0
:100AF000CF93DF936C01D62FC72FFC0112810581A4
:100B000002950F700E94F50DE82E8823B9F0E12EB2
:100B10001123A1F08C2F807F803421F080E28D0F93
:100B20008830B0F08091460382FD12C082E00E94BE
:100B30009D0E0E94F50D91E0E82EE926BC2EB294A0
:100B40009FE0B922EB2DF0E0EC5AF44D0C94AD2A65
:100B5000E12CF4CF0C2F0F70C07F11F00295007FB5
:100B6000112399F0002359F080E28D0F883010F0A6
:100B7000D11107C0802F0E94FF0D0E944C0E8D2FB7
:100B800060C0802F0E940F0EF8CF8D2F0E94F504B9
:100B9000002379F080E28D0F883010F0D11104C06D
:100BA000802F0E94050E03C0802F0E94150E0E9408
:100BB0004C0E2B2D2850330B2430310520F40E948D
:100BC0009A210E941704EE2009F4A7C10E94F10D9A
:100BD00080FDA3C1F60112820E94EB0D0E94B808AD
:100BE000C6010E94B5070E94EB0DDF91CF911F91C6
:100BF0000F91FF90EF90DF90CF90BF900C94D908A9
:100C0000FC2FFF70FF2EC07FC03219F0F29480EFEE
:100C1000F822DD2341F0D130E9F1112309F445C078
:100C20000023E9F1ACCF8091460382FF15C0112368
:100C300059F0FF2029F08F2D0E94FF0D0E944C0ECD
:100C400080E00E946604B5CF80E00E94F504FF209A
:100C500009F4AFCF8F2DA5CF112381F0011106C06C
:100C60000E942F0E8F290E946305A3CF0130C1F788
:100C70000E942F0E8F290E94350E9BCF011106C0B6
:100C80000E94420E8F2D0E946A0593CF013009F415
:100C900090CFF6CF112329F0063008F08ACF8F2DA0
:100CA000E2CF053008F085CFEDCF002359F3D933DB
:100CB00049F42FEF37EE83E0215030408040E1F7D8
:100CC00000C000008D2F0E94F50473CF8C2F8695F5
:100CD0008695837069F0813009F06BCF8D2F9C2F42
:100CE0009370111102C090E080E00E94D62161CF84
:100CF0008D2F9C2F9370111102C090E080E00E9414
:100D0000C02157CF8C2F837009F041C0111151CFF2
:100D10004D2F429546954770440F440F0D2F0F708D
:100D200010E030E020E0042E04C0000F111F221F4D
:100D3000331F0A94D2F760E070E0CB01D4FF0FC0FC
:100D40006FE070E080E090E004C0660F771F881FBE
:100D5000991F4A95D2F76095709580959095C695A4
:100D6000C695C370602B712B822B932BC23049F038
:100D700058F4C13019F00E946A081BCF0E9458082D
:100D800018CF0E947C0815CF0E94560812CF869576
:100D9000112311F08C2F8170882309F40ACF4D2F75
:100DA000429546954770440F440F0D2F0F7010E089
:100DB00030E020E0042E04C0000F111F221F331F5B
:100DC0000A94D2F760E070E0CB01D4FF0FC06FE06F
:100DD00070E080E090E004C0660F771F881F991FC5
:100DE0004A95D2F76095709580959095C695C69571
:100DF000C370602B712B822B932BC23049F058F4B7
:100E0000C13019F00E942F09D4CE0E941D09D1CE05
:100E10000E944109CECE0E949208CBCECF70112302
:100E200029F08C2F0E94B8088D2F1DCF8D2F0E9486
:100E30006A058C2F0E94D908BCCED23F41F160F4E4
:100E4000D03FB9F0D13F81F0112309F446C0011120
:100E500096CE8C2F8F711FC0D33F01F1D43FA1F7E5
:100E60008091460382FF24C08C2F8F71112311F3D0
:100E700012C0112341F0053008F09BCE8C2F8F71EA
:100E80000E94FC0896CE063008F093CEF7CF8C2F48
:100E90008F711111CFCF0E94B8088BCE112329F08A
:100EA0008C2F8F710E94A30884CE0E949E0881CE51
:100EB000112349F0CF718C2F0E94B80863E08C2F6A
:100EC0000E94820E76CE81E00E949D0E023008F4D0
:100ED00070CE82E00E949D0E6CCE002359F0D93373
:100EE00009F0F0CE9FEFE7EEF3E09150E040F040E4
:100EF000E1F7E6CE8C2F8F719DCF4C2F4F706D2F69
:100F0000C6010E9469100E94180A53CE4C2F4F70E0
:100F10006D2FC6010E946C104CCEDF91CF911F91B6
:100F20000F91FF90EF90DF90CF90BF9008950F93B7
:100F30001F93CF93DF93EC018E819F81009779F00F
:100F40000E9489108C010E9453090E945508B80123
:100F5000CE01DF91CF911F910F910C9471056881A3
:100F600079818A810E94F409EDCFCF93DF93EC0160
:100F70008B819C81892B29F08881998189238F3FDE
:100F800059F4DF91CF910895CE010E949707CE01C9
:100F9000DF91CF910C948603CE010E94AF038111A3
:100FA000F3CF0E94F50D882361F38A81882349F3EA
:100FB0008091460382FDE5CF82E0DF91CF910C94D2
:100FC0009D0E90E080E00E94C02190E080E00E94B1
:100FD000D6210E941C0E0E942C0E0C944C0E0E94D6
:100FE000E50D0C94E1070E940C0E0C94EF07E92F1D
:100FF000E295EF70E250EE3070F4F0E0EC59F44D11
:101000000C94AD2A803F19F020F4883E20F481E052
:101010000895843FE1F380E00895883EC0F3813F66
:10102000D1F7F5CF93FB882780F90895FC018681DD
:101030009781009721F00E9489100C94F707808116
:1010400091810E94EA09F9CFCF93DF9300D000D0BD
:101050000F92CDB7DEB70F900F900F900F900F90BB
:10106000DF91CF910895CF93DF93CDB7DEB7289767
:101070000FB6F894DEBF0FBECDBF28960FB6F8941A
:10108000DEBF0FBECDBFDF91CF91089508950C94C0
:1010900046080E94470860931102709312028093E1
:1010A0001302909314020C94E10708950C944908DC
:1010B0000F931F93009111021091120220911302BD
:1010C00030911402602B712B822B932B1F910F9167
:1010D0000C9449080F931F93009111021091120272
:1010E00020911302309114026023712382239323F1
:1010F0001F910F910C9449080F931F9300911102B7
:10110000109112022091130230911402602771276E
:10111000822793271F910F910C9449080C9446083D
:101120000C948E080E94900860930D0270930E023A
:1011300080930F02909310020C94E10760E070E03E
:10114000CB010C9492080F931F9341E050E060E0B4
:1011500070E08A019B0104C0000F111F221F331F82
:101160008A95D2F7C901B8011F910F910C9492088A
:101170000F931F9341E050E060E070E004C0440F23
:10118000551F661F771F8A95D2F780910D029091A7
:101190000E02A0910F02B09110028A019B01082B50
:1011A000192B2A2B3B2BC901B8011F910F910C94CD
:1011B00092080F931F9341E050E060E070E004C09C
:1011C000440F551F661F771F8A95D2F7CB01BA01CE
:1011D000609570958095909500910D0210910E028A
:1011E00020910F02309110026023712382239323F8
:1011F0001F910F910C9492080F931F9341E050E0C0
:1012000060E070E004C0440F551F661F771F8A9589
:10121000D2F780910D0290910E02A0910F02B09131
:1012200010028A019B01082719272A273B27C90199
:10123000B8011F910F910C9492080F931F93009186
:101240000D0210910E0220910F0230911002602BBE
:10125000712B822B932B1F910F910C9492080F935B
:101260001F9300910D0210910E0220910F023091F8
:10127000100260237123822393231F910F910C94FA
:1012800092080F931F9300910D0210910E0220916E
:101290000F023091100260277127822793271F9138
:1012A0000F910C949208089527E0929F800D1124CD
:1012B000982F977041E001C0440F9A95EAF7869500
:1012C0008695869595E0899FF0011124E151FE4FA6
:1012D00090E080E070E05191DF0111979B01082EB2
:1012E00002C0369527950A94E2F7217021952527AB
:1012F000242325272C9301968530910561F70895C5
:1013000027E0929F800D1124982F977086958695DF
:10131000869525E0829FF0011124E151FE4F50E0B7
:1013200040E080E0219130E0092E02C036952795FB
:101330000A94E2F721703327042E01C0220F0A9489
:10134000EAF7822B4F5F5F4F4530510559F70895FB
:10135000BF92CF92DF92EF92FF920F931F93CF93A2
:10136000DF938C01C0900D02D0900E02E0900F022E
:10137000F09010028091110290911202A09113023C
:10138000B0911402C82AD92AEA2AFB2ACFE1D0E078
:10139000BC2ED701C6010C2E04C0B695A795979513
:1013A00087950A94D2F780FD0EC0219788F7B12C5B
:1013B0008B2DDF91CF911F910F91FF90EF90DF90D8
:1013C000CF90BF900895B8018C2F0E949311019780
:1013D00061F3EECFCF93DF93EC010E94A809BE0129
:1013E000DF91CF910C9493111F93CF93DF93EB0177
:1013F0009091EE01992331F0CB01DF91CF911F91B4
:101400000C94EA09882379F0CB010E94A809182FCF
:10141000682FCE010E945409BE01812FDF91CF9128
:101420001F910C949311CB010E948009182FF4CFC7
:10143000EF92FF920F931F93CF93DF938C01892B31
:1014400081F0F12CEE24E394E8012196F8018491D7
:10145000843770F4843008F05FC08130B1F082309E
:10146000A1F1DF91CF911F910F91FF90EF9008951F
:10147000853709F44CC008F43DC09CE7980F9037BD
:1014800080F78F770E94F50449C00E5F1F4FFE0161
:10149000849190E2980F983060F48770FE2D01C01F
:1014A000FF0F8A95EAF78F2F0E941F0E0E944C0EA5
:1014B00002C00E9466048F2D815030F2EFE9FFE0F8
:1014C0003197F1F700C00000F7CF0E5F1F4FFE010C
:1014D000849190E2980F983050F48770FE2D01C0EF
:1014E000FF0F8A95EAF78F2F0E94250EDFCF0E940B
:1014F000F504E1CF0E5F1F4FFE01C491C150D8F239
:101500008FE99FE00197F1F700C00000F7CF0E5F71
:101510001F4FFE01F490CFCF0E9466048E01CBCF07
:10152000CF93DF93C0911502809116028C1303C0F4
:10153000DF91CF910895D0E0FE0183E0EE0FFF1F11
:101540008A95E1F7E95EFD4F208131814281538127
:1015500064817581868197810E9433082196C770C6
:10156000E3CF209157023091580240915902509197
:101570005A0260915B0270915C0280915D029091D1
:101580005E020C94330820911502909116022913E3
:1015900002C080E0089530E0F90153E0EE0FFF1F34
:1015A0005A95E1F7E95EFD4F5181561306C050810F
:1015B000581303C05281541304C02F5F3F4F27704C
:1015C000E6CF81E008950F931F93CF93DF9380912F
:1015D0005C02807FC1F4809159028823A1F0809140
:1015E0001502109116026091570270915802A09155
:1015F0005A02B0915B02062F0723C0913101D091AE
:101600003201181305C0DF91CF911F910F910895FA
:1016100090E0109711F00F3F19F401968770F1CF09
:101620009C0143E0220F331F4A95E1F7F901E95E7F
:10163000FD4F41814713F1CF40814613EECF4281E8
:101640004111EBCF438154814A1B5B0B4C175D0763
:1016500020F780915C028F70806180935C02F901B9
:10166000E45EFD4F80818F708061808387E592E02A
:101670000E94B507DF91CF911F910F910C94900AB2
:101680008F929F92AF92BF92CF92DF92EF92FF9292
:101690000F931F93CF93DF93CDB7DEB765970FB648
:1016A000F894DEBF0FBECDBF8C0185E0F801DE01EE
:1016B000519601900D928A95E1F7D8011296EC901F
:1016C000129787E5A82E82E0B82E40915A025091D9
:1016D0005B024115510509F4ABC19091570220916D
:1016E0005802892F82238F3F09F4A2C1CC90119612
:1016F000DC90119713968D909C901497F09059025E
:10170000B401641B750B4091310150913201FF20EF
:1017100009F43EC180915C02382F307F6417750751
:1017200008F0E7C0311192C0FE2CD2122FC09C11DC
:101730002DC040915D0250915E0216962D913C9114
:101740004217530719F5E11021C08F708061809313
:101750005C020E94B10AC5010E94B50780915C023B
:10176000F80185838F2D65960FB6F894DEBF0FBE06
:10177000CDBFDF91CF911F910F91FF90EF90DF9040
:10178000CF90BF90AF909F908F9008958114910457
:1017900029F08D2D8C218F3F09F066C180E080FFFC
:1017A00015C04E2D6D2D8C2D0E94C30A882371F01B
:1017B00087E592E00E94B50788E0E7E5F2E0DF0107
:1017C0001D928A95E9F70E94B10A3EC0892829F046
:1017D0008D2D8C218F3F09F044C180E0B82FB1706E
:1017E000BB2E80FF29C04E2D6D2D8C2D0E94C30A6B
:1017F000A82E811121C0C98ADA8A89899A890E9412
:10180000EA09292F22952F70223050F0243078F4E5
:101810009F7051F0F8019581907F31F4FA2CA2CF9E
:101820009F7011F08823D1F3805E8830B8F3C8012F
:101830000E94B507AB2CF2CFEE2009F493CF809134
:101840005C02816080935C02F12C8CCFD2121FC0AD
:101850009C111DC040915D0250915E0216962D9123
:101860003C9117974217530791F4E11010C0159659
:101870008C93C8010E94B50788E0F801A7E5B2E0A3
:1018800001900D928A95E1F70E94B10A6BCFC801D1
:101890000E941608882349F1EE2039F180915C02FC
:1018A0008032A0F020915702309158023A87298760
:1018B0001B869D868C868E8780915D0290915E024C
:1018C000988B8F87CE0109960E94B50788E0F801B2
:1018D000A7E5B2E001900D928A95E1F70E94E30A34
:1018E0000E94B10AFF24F3943DCFC8010E94B507BE
:1018F000F9CF311112C0782D9D8A8C8AA6016E2DE8
:101900008D890E94240887E592E00E94B50788E04F
:10191000F50111928A95E9F756CFD2121AC09C119F
:1019200018C040915D0250915E0216962D913C9137
:1019300017974217530769F4E1100BC015968C9363
:10194000C8010E94B50788E0F50111928A95E9F770
:1019500009CFC8010E941608882339F2EE2029F227
:1019600080915C02803208F4B1CF2091570230910F
:1019700058023A8329831B829D828C828E838091B8
:101980005D0290915E0298878F83CE0101969CCF75
:101990006417750708F03EC0FE2CEE2009F4A5CFB1
:1019A000D2122AC09C1128C020915D0230915E02A3
:1019B00016968D919C91179728173907E9F4909105
:1019C0005C0290FD10C0907F71F080915C021596D2
:1019D0008C931597903F09F44CCF982F907F905F90
:1019E0008F70892B44CF88E0F801A7E5B2E0019021
:1019F0000D928A95E1F7B6CEC8010E9416088111B2
:101A000065CF80915C02816080935C02C8010E9476
:101A1000B507A8CE782D9D8A8C8AA6016E2D8D895A
:101A20000E94240888E0F50111928A95E9F72CCFED
:101A3000EE2009F45ACFC8010E941608F82E882318
:101A400009F453CF88E0F801A7E5B2E001900D92C8
:101A50008A95E1F787E592E00E9461040E94E30A1B
:101A600013CF81E08E25BACE81E08E2598CECF931C
:101A7000DF93CDB7DEB760970FB6F894DEBF0FBE29
:101A8000CDBF29873A874B875C876D877E878F8795
:101A9000988BCE0109960E94400B8823D1F08C854B
:101AA0009D85892B39F029853A85822F83238F3FA5
:101AB00009F074C08091150290911602891348C0F4
:101AC00060960FB6F894DEBF0FBECDBFDF91CF9109
:101AD000089588E0FE013996DE01119601900D927D
:101AE0008A95E1F78C859D85892B21F389859A85D7
:101AF00089238F3FF9F2A0911602B0E0CD01019643
:101B000087709927209115022817190671F40E94F1
:101B1000F307109216021092150288E0E7E5F2E052
:101B2000DF011D928A95E9F7C5CF93E0AA0FBB1F8D
:101B30009A95E1F7A95EBD4F98E0FE0131960190BC
:101B40000D929A95E1F7809316020E94900AB2CF07
:101B5000B8E08B9FC0011124895E9D4F0E94400B0D
:101B6000882309F4ADCFE091150228E0E29FF0014F
:101B70001124E95EFD4F20813181428153816481CE
:101B80007581868197810E9433088091150290E0CB
:101B9000019687709927809315028CCF4B855C85C1
:101BA0006D857E858F8598890E94330883CF682F45
:101BB00080913301909134010C948022682F8091A0
:101BC0003301909134010C948B22809133019091D8
:101BD00034010C94962280915F02859585958595B8
:101BE000089580915F028770089590915F029770C9
:101BF00081E009F480E00895809183020895909136
:101C00008302892B809383020895809590918302AB
:101C100098239093830208951092830208959091DF
:101C20008202892B8093820208958095909182028E
:101C300098239093820208951092820208959091C1
:101C40008102892B80938102089580959091810271
:101C500098239093810208951092810208958091B3
:101C60006002089508950C94320E9091460392FDFF
:101C700008C090916002981721F0809360020C9444
:101C8000330E089580916002882329F0109260023B
:101C900080E00C94330E0895E0913301F09134010B
:101CA000809183028083E0913301F091340180813F
:101CB00090918202892B8083E0913301F09134016D
:101CC000808190918102892B808390916002992379
:101CD00081F0E0913301F09134018081892B808380
:101CE00080913301909134010E94EC2181110E9476
:101CF000420E80913301909134010C94A6210895F5
:101D00000C947F0E9091460392FD10C098E0899F3D
:101D100090011124622B60935F020E94B8088091A9
:101D20005F028595859585950C94800E0C94B80876
:101D300010925F0280E00C94800E90915F0280957B
:101D4000892380935F02282F277091F4282F082E73
:101D5000000C330B9217130659F09091460392FD35
:101D600007C08595859585950E94D9080C94980E95
:101D700008959091460392FB222720F9281769F0D5
:101D800080FB92F99093460380914503909146031E
:101D90000E94040F82E00C949D0E089580914603EA
:101DA00082FB882780F991E089270C94B90E81E0A5
:101DB0000C94B90E80E00C94B90E6FEF7FEF90E0B9
:101DC00080E00C943C2B90E080E00E94182B21E0F6
:101DD000893E9E4F09F020E0822F089582E090E036
:101DE0000C940A2B83E090E00C940A2BCF9384E0B0
:101DF00090E00E940A2BC82F82E290E00E940A2BFA
:101E0000982F8C2FCF910895CF93C92F682F84E0FE
:101E100090E00E941E2B6C2F82E290E0CF910C94F8
:101E20001E2BAB01BC018FE090E00C94302BAB017A
:101E3000BC0183E190E00C94302B60E070E0CB01BA
:101E40000C94170F60E070E0CB010E94110F0C940E
:101E50001D0F69EE7EEF90E080E00E943C2B60E079
:101E600082E090E00E941E2B60E083E090E00E9400
:101E70001E2B109211021092120210921302109255
:101E8000140260E084E090E00E941E2B60E082E299
:101E900090E00E941E2B60E085E090E00E941E2BE7
:101EA00060E086E090E00E941E2B6FEF87E090E0FC
:101EB0000E941E2B40E050E0BA0188E090E00E94B2
:101EC000302B60E08DE090E00E941E2B40E050E05F
:101ED000BA0188E190E00E94302B60E087E190E059
:101EE0000E941E2B40E050E0BA018CE190E00E947D
:101EF000302B70E060E080E290E00E943C2B40E0FC
:101F000050E0BA0188E190E00E94302B0C94220F3F
:101F10000C94290F682F8EE090E00C941E2B0E94E9
:101F2000442360938F027093900280939102909368
:101F3000920260938B0270938C0280938D02909337
:101F40008E02089585B7806885BF85B7806885BF94
:101F50000895089508950C94A90F08950C94AD0F59
:101F60000E94A20F81E792E10E9490210E94AA0F95
:101F70000C94AB0F81E008950C94BA0F0895089566
:101F80000E94BE0F0C94BF0F0E942F230E94641367
:101F90000E945F190C94AE0FAF92BF92CF92DF9266
:101FA000EF92FF920F931F93CF93DF93CDB7DEB7DE
:101FB0002A970FB6F894DEBF0FBECDBF0E947913EB
:101FC00081110E948F0F85E8A82E82E0B82E10E0C4
:101FD00000E0C02E802F0E94B512E82EF501F1908E
:101FE0005F01F81609F44DC08091930281FD0E94B3
:101FF000BB128F2D8E25D12CFF24F394982F9F2177
:10200000D9F10E94BC0F882399F0DE82CF82EF20A5
:1020100081E009F480E088870E9438238160782F6E
:102020009A8789874E815F8168858A850E941F040F
:10203000F801EB57FD4F8081F826F0820E9492193B
:102040000E949A2190918402891791F10E949A210D
:10205000809384022A960FB6F894DEBF0FBECDBFE0
:10206000DF91CF911F910F91FF90EF90DF90CF9074
:10207000BF90AF900C941704D394FF0CF7E0DF12DD
:10208000BDCF0F5F1F4F0630110509F0A2CF8FEFB4
:1020900089838A831B820E9438238160782F9D83E5
:1020A0008C8349815A816B818D810E941F04C6CF28
:1020B0002A960FB6F894DEBF0FBECDBFDF91CF9149
:1020C0001F910F91FF90EF90DF90CF90BF90AF9056
:1020D000089590E080E008950895972F70E027E03C
:1020E000929F600D711D1124FB019AE2899FE00D02
:1020F000F11D1124EE0FFF1FEA52FF4F85919491BD
:102100000895FC01EE0FFF1FE658FD4F8591949155
:102110000895CF93DF930E949711EC01811520E57C
:10212000920708F041C0811530E4930708F0B4C06D
:10213000803E910518F5803C910508F09DC0883AD5
:10214000910570F4853A910508F08EC081309105B3
:10215000F9F00097E9F00497D8F4D0E0C0E018C097
:102160008F3B9105D0F7C85AD0E0CC0FDD1FC75781
:10217000DE4F0990D881C02DD4640AC081159042E9
:1021800058F4C11581E0D80718F4C83ED10528F7E6
:10219000CE01DF91CF910895C11590E3D90708F0E2
:1021A00071C0CE019F706AC0811525E5920758F570
:1021B000811534E5930708F09EC0811542E5940728
:1021C00050F4C11581E5D80708F469C0DC2FCC278D
:1021D000C16FD06ADDCF982F969596959E0123709A
:1021E0003327C115D34508F077C0C1E0D0E002C065
:1021F000CC0FDD1F2A95E2F720E2929FC001112447
:10220000C82BD92B67C0C11589E5D807A8F4C1151B
:1022100098E5D90708F074C0C11526E5D20708F083
:102220009CCF8C2F0E942E12C82FD0E0DC2FCC2701
:10223000CC27DF71D062ACCFC1153AE5D30708F4E3
:1022400064C0CE0190568115904208F086CF8D2F44
:102250008F710E942E1290E0982F882788279F71F7
:102260009C012C2BE901E6CFC55AD0E0C954DE4FC2
:10227000C881D0E0D0648CCF805C91090E9481102D
:10228000EC0186CFCE019927D3FF03C0EC01D86CB7
:102290007FCFEC01D06C7CCFDF70D06A79CFCE01DC
:1022A000E4E096958795EA95E1F783702C2F2695C3
:1022B0002695237090E2299F90011124382B8C2FB2
:1022C0008370C1E0D0E002C0CC0FDD1F8A95E2F739
:1022D000C22BD32BDC685CCFC1E0D0E002C0CC0FB6
:1022E000DD1F2A95E2F730E2939FC0011124C82B2D
:1022F000D92BDA684DCFD82FCC27C46FD06A48CFFE
:10230000DC2FCC27C06FD06A43CF8C2F8F700E94F8
:102310002E1234E0D695C7953A95E1F7CF709C2FF1
:10232000EC01D06935CF0E946D100C948910823871
:102330009105B1F1B0F48133910509F475C048F409
:102340008932910509F469C08A32910509F473C094
:1023500008958533910509F459C08933910501F138
:102360000895833E9105A9F138F4803E9105F9F076
:10237000823E910549F10895863E9105A9F1873E77
:102380009105C9F1843E910519F52091460321FF7D
:102390001FC08091450384FD14C087EE90E008952E
:1023A000209145032370A1F080EE90E008952091E4
:1023B000450320FD47C03091460330FF09C024FF8C
:1023C00044C090E080E004C02091450322FDF7CF97
:1023D00008952091450322FD3BC03091460330FD16
:1023E000E3CF24FFF5CFEDCF2091450323FFF0CFBE
:1023F00024FDE7CFD2CF2091450323FD2CC030919F
:10240000460331FFEECF84EE90E00895209145031E
:1024100025FFDECF89E290E008952091450325FF56
:10242000D7CF85E390E008952091450326FFD0CFD4
:102430008AE290E008952091450326FFC9CF81E309
:1024400090E0089589E390E0089583EE90E0089588
:1024500082EE90E0089586EE90E008959091450315
:1024600092FF06C0282F28712830F9F4877F8460F6
:1024700093FF06C0282F28712831F1F4877E8461EC
:102480002091460320FF06C0382F38713830D9F428
:10249000877F816021FF06C0282F28712831D1F461
:1024A000877E816194FD877E0895282F24712430D2
:1024B000F9F68B7F8860DCCF282F2471243101F757
:1024C0008B7E8861DDCF382F3171313019F78E7FE7
:1024D0008860E0CF282F2171213121F78E7E88611D
:1024E000E1CF80E008950C94DD0E0E9479138FE314
:1024F0009CE90197F1F700C000000E94791380E089
:102500000E94B51280FF04C00E9473120C948323B2
:1025100008950C9475120E94E30E811102C00E946E
:10252000880F0E94EE0E809393020E94F60E909305
:102530004603809345030E9489120E94F20E682F81
:1025400070E090E080E00E94560860910D0270916A
:102550000E0280910F02909110020C949008089541
:102560000C94AF1208950C94B212E82FF0E0E35BE4
:10257000FC4F80810895089580EA8A95F1F70895C7
:1025800000C008950C94BC12F894E82FE295EF7007
:10259000F0E031A1282F2F7081E090E001C0880F7A
:1025A0002A95EAF7982F9095932391A392A1892BCE
:1025B00082A378940895CF93DF93CAEBD1E08991F9
:1025C0008F3F11F00E94C41281E0C13CD807B9F7D7
:1025D000C1ECD1E089918F3F11F00E94C41281E0DB
:1025E000C73CD807B9F7DF91CF910895CF92DF921A
:1025F000EF92FF920F931F93CF93DF937C01162FDF
:10260000042FC62FD0E0CE0186549E4F6C01EC0102
:1026100028812F3F09F44FC0F894E22FE295EF7024
:10262000F0E031A12F7081E090E001C0880F2A9581
:10263000EAF7932F982B91A392A18095892382A3E7
:1026400078940E94C012A1ECB1E0F70147EC51E090
:10265000F12C602F60959D9180819F3F49F1292F3A
:1026600022952F7030E0E90128A130E09F7002C070
:10267000359527959A95E2F720FD1AC0802B808327
:10268000FF24F39431964A175B0729F7F6018081FE
:102690008F3F11F00E94C4126F2D812FDF91CF91D7
:1026A0001F910F91FF90EF90DF90CF900C94C2128A
:1026B00086238083E7CFDF91CF911F910F91FF9009
:1026C000EF90DF90CF9008950E94DB1286E0EDE45A
:1026D000F3E0DF01982F1D929A95E9F7E7E4F3E024
:1026E000DF011D928A95E9F786E00E94C7130C94DA
:1026F0009103EF92FF920F931F93CF93DF9300D03C
:1027000000D000D0CDB7DEB78E010F5F1F4F86E03F
:10271000F80111928A95E9F7F12CEE24E3944E2DFD
:102720006F2DC8010E94F612F394EE0CF7E0FF1231
:10273000F6CF46E050E0B80187E493E00E94FD2A1E
:10274000FF24F394009709F4F12C892B41F086E0E3
:10275000F801A7E4B3E001900D928A95E1F72F2DDF
:1027600046E06DE473E087E493E00E94C8130E94A2
:1027700097038F2D26960FB6F894DEBF0FBECDBF00
:10278000DF91CF911F910F91FF90EF9008950895E1
:10279000FF920F931F93CF93DF93F82E092F162FDD
:1027A000D72FC42F222349F081E0809396020E9404
:1027B0003823909395028093940280919602882307
:1027C000A1F080919402909195020E945023059768
:1027D00060F0EF2DF02FA12FBD2FCE0FDF2FD11DD9
:1027E000EC17FD0741F410929602DF91CF911F91F3
:1027F0000F91FF90089581918D93F2CF0E9429252A
:102800000E94C40F0C9435250E9439250E94CC0FDC
:102810000C9453250E94C2220E9410250E94B00FE2
:102820000E94FE130E9404140E94C00FFBCFEF927F
:10283000FF920F931F93CF93DF93EB01E82FD111FA
:1028400010C0442321F0F0E0EF56FC4FE4916E2FCE
:102850007E2F8E2FDF91CF911F910F91FF90EF90E0
:1028600008950D2F10E0282F30E0442329F02F5633
:102870003C4FF901249130E0F6E0CF9FC0011124D4
:10288000EFEFF0E0BF010E94632AAB018C2F90E0D4
:10289000880F991FA5E5A49FB001A59F700D112475
:1028A000861B970B982F990F980FBF01601B710B18
:1028B000629FD001639FB00D729FB00D11248B2FCA
:1028C0009D9FB0011124672F7727EF01C61BD70BFF
:1028D000BE01629FE001639FD00D729FD00D112455
:1028E0007F01E91AF108E09EB001E19E700DF09EB3
:1028F000700D1124672F7727E61BF70BE29F8001ED
:10290000E39F100DF29F100D1124E12F722F423022
:10291000510599F048F44115510569F041305105D0
:1029200081F0EB2F8D2F07C04430510569F080F006
:1029300046305105B1F76E2F8DCFE22F7B2F812FBF
:10294000FACFE22F7D2FF7CFEB2F822F712FF3CF0E
:102950007B2F822FED2FEFCF41E00C9417140895B9
:102960000C94AC14CF93DF93762FE901682F842F5A
:102970000E94B014798368838A83DF91CF91089590
:1029800080915303982F9E7F29F4817082608093F9
:10299000530308958A34E8F381708864F8CF88E09F
:1029A00090E00C94122BCF92DF92EF92FF926B018A
:1029B0007C010E94C014B701A60188E090E0FF905E
:1029C000EF90DF90CF900C94302BE3E5F3E083E0C1
:1029D000808311828FEF828383831482608171816F
:1029E000828193810C94D3148091530380FF02C0A1
:1029F0008695089580E0089590915703933018F4D8
:102A00009F5F90935703882351F060915303709117
:102A1000540380915503909156030C94D314089558
:102A200081E00C94FC1490915703992319F0915074
:102A300090935703882351F060915303709154038E
:102A400080915503909156030C94D314089581E01E
:102A50000C94131570E00C940B1B6091390180915C
:102A6000530380FF0AC08091380123E0829FC00198
:102A70001124885A9C4F0C942A1580913A01909108
:102A80003B0123E0829FF0011124E85AFC4F891793
:102A900050F71182108212828F5F3396F8CF909197
:102AA000530390FF14C090913A0120913B0133E011
:102AB000939FF0011124E85AFC4F921710F00C94E8
:102AC0002D158183608342839F5F3396F6CF0895EF
:102AD000CF93DF9300D00F92CDB7DEB79091530321
:102AE00090FF0AC09E012F5F3F4F0E94B2144B819E
:102AF00069818A810E944F150F900F900F90DF918E
:102B0000CF910895CF93DF93EC01EC81F0E0E4578F
:102B1000FD4F4491E3E5F3E0628181810E946815F5
:102B20008C818F5F8C83DF91CF910895CF93DF935A
:102B3000EC01E3E5F3E0438162818C810E9468153A
:102B40008C818F5F8C83DF91CF9108950F931F93BA
:102B5000CF93DF9300D00F92CDB7DEB78C01809179
:102B6000970281110AC09E012F5F3F4F4FEF6FEF19
:102B70000E94B2148A8180939702F80164816130C7
:102B800069F08091970240E0662361F040E0623096
:102B900011F44091970280E060E004C060919702D8
:102BA00040E080E00E944F15F801848190E001969A
:102BB00063E070E00E94772A84830F900F900F905B
:102BC000DF91CF911F910F910895AF92BF92CF9255
:102BD000DF92EF92FF920F931F93CF93DF9300D07A
:102BE0000F92CDB7DEB7182FF62E042FE22E90915C
:102BF000530390FF29C0E92FE695AE2FB0E0A9530B
:102C0000BE4F8C918093A1029E7F923059F59E0118
:102C10002F5F3F4F812F0E94B2144B8169818A81BF
:102C20000E944F1510935403F092550300935603DE
:102C3000EE2051F06091530370915403809155033D
:102C4000909156030E94D3140F900F900F90DF9134
:102C5000CF911F910F91FF90EF90DF90CF90BF9099
:102C6000AF900895823019F400915603DBCF86307F
:102C700019F410915403D6CF8930D9F3893191F6E4
:102C8000E9518E2F8170D82EE695F0E0E457FC4F85
:102C9000A590B490C12CBB2460913C01C61618F0DD
:102CA0000E942D15BFCF2C2D30E0A29EC001A39E07
:102CB000900DB29E900D112470E00E94632A812F26
:102CC000D11013C0860F40913A01420F532F511D6E
:102CD0009A01220F331F240F351F285A3C4F402FD3
:102CE0006F2D0E94B214C394D7CF861BECCFE3E5BF
:102CF000F3E09181282F4381628188E0890F0C9451
:102D0000E51581E00C947716E3E5F3E09181282F37
:102D10004381628188EF890F0C94E51581E00C9462
:102D20008416E3E5F3E0628128E0620F08F46FEFB8
:102D3000282F438181810C94E51581E00C94911634
:102D4000E3E5F3E0628128E0621B08F460E0282FED
:102D5000438181810C94E51581E00C94A016E3E594
:102D6000F3E0438128E0420F08F44FEF282F6281FF
:102D700081810C94E51581E00C94AF16E3E5F3E056
:102D8000438128E0421B08F440E0282F62818181C2
:102D90000C94E51581E00C94BE1620E00C94E5152A
:102DA000EF92FF921F93CF93DF93EC0110E0EE249C
:102DB000EA94F12C60913C01161770F00E942D15D9
:102DC0009A818C8190FF27C08F5F8C83DF91CF9198
:102DD0001F91FF90EF90089520913A01422F410FEB
:102DE0005527551FCA019A01220F331F280F391F7B
:102DF000285A3C4F70E0C7010E94772A962F8C8199
:102E00004091560360915503199F800D11240E9433
:102E1000B2141F5FCFCF8150D8CFAF92BF92CF9265
:102E2000DF92EF92FF920F931F93CF93DF93FC01FA
:102E300082810FEF80FF01E010E045E1A42E809138
:102E40003C011817C8F00E942D158091990201309D
:102E500009F055C0811102C080913C0181508093DE
:102E60009902DF91CF911F910F91FF90EF90DF902A
:102E7000CF90BF90AF900895C0913A01C12ED12C50
:102E8000CC0DDD2DD11DCE01880F991FC80FD91F84
:102E9000C85ADC4F198218821A8234E0E32EF12CD2
:102EA000B12C809199028B0D86311CF16A2D0E9404
:102EB000552A892F082E000C990BC816D90691F4B3
:102EC000809156038E9DA0018F9D500D1124559524
:102ED0004795559547959E01609155038091540300
:102EE0000E94B214B00EF1E0EF1AF108D1F61F5FA4
:102EF000A6CF87FFDFCF90913C01890FDBCF90E019
:102F0000019660913C0170E00E94772AA8CF0F9350
:102F10001F93CF93DF9380913A0190913B0123E07F
:102F2000829FF0011124E85AFC4F891740F1C0E05C
:102F3000D3E060913C01C61740F10E942D1520910D
:102F4000360180919802820F809398029091370108
:102F5000920F90933701191654F4082E000C990B18
:102F600040913C014150550B841795071CF0219569
:102F700020933601DF91CF911F910F910895118217
:102F8000108212828F5F3396D0CF0C2F10E070E04A
:102F9000C8010E94772A20913A01820F482F50E001
:102FA00020919802022E000C330B02171307BCF07D
:102FB00020913701022E000C330B201731077CF0D3
:102FC0008D9F90011124285A3C4F409156036091E7
:102FD0005503809154030E94B214CF5FAACFFA0127
:102FE000EE0FFF1FE40FF51FE85AFC4F118210820D
:102FF0001282F3CF8F929F92AF92BF92CF92DF92C5
:10300000EF92FF920F931F93CF93DF93EC014C81CC
:10301000042F10E09801D8010E94BB2A9B01AC014B
:103020000E94D12A4B015C01E0E2F0E0E01BF10BD1
:10303000A5E5B0E0AC019B010E94D12A6B017C01A7
:103040009F01DF010E94B32A9B01AC010E94DC2A90
:103050009B01AC01280D391D4A1D5B1DC701B6013E
:103060000E948B2AF22E822F90E039E23F1560F108
:1030700043E0249F9001112435952795122F109538
:1030800000E085E5E82EEF1880913C01081758F123
:103090000E942D159C8181E0992319F0903219F43A
:1030A0008FEF8093350180913501890F8C83DF91FB
:1030B000CF911F910F91FF90EF90DF90CF90BF9035
:1030C000AF909F908F90089525E530E0B901681B7F
:1030D000790B9B01220F331F260F371F37FFCCCFF1
:1030E0002F5F3F4FC9CF8E2D01FD8F2D20913A01CB
:1030F000622F600F7727771F9B01220F331F260F48
:10310000371F285A3C4F412F609155030E94B2143B
:103110000F5FBACF0F931F93CF93DF93EC0110E0B3
:1031200000E090913C019017110609F06CF40E94A8
:103130002D158C8190E00196817099278C83DF9109
:10314000CF911F910F91089520913A01A801420F4C
:10315000511D9A01220F331F240F351F285A3C4F4F
:103160004C816091550380915403969590171106F8
:1031700051F04CF0442349F0409156030E94B214A0
:103180000F5F1F4FCECF4423B9F340E0F7CFE3E505
:10319000F3E080818E7F8083608171818281938161
:1031A0000E94D3141092A2022FEF80E792E02150E8
:1031B00080409040E1F700C000000C942D15609114
:1031C0005303669570E04BE050E08DE391E00E9480
:1031D000F02A892B19F481E08093A2020E943823FF
:1031E00090939B0280939A0208959091530390FFCD
:1031F00035C09170811128C092609093530366236B
:1032000051F0609153037091540380915503909154
:1032100056030E94D31460915303669570E04BE00F
:1032200050E08DE391E00E94F02A892BA1F01092EA
:10323000A20281E080939D02409156036091550364
:10324000809154030C94CD16853210F09864D5CF3C
:10325000880F982BD2CF0E94DF18EBCF0895682FEC
:1032600090915303969581E0890F853208F081E0B3
:103270000C94F51881E00C942F19682F909153034A
:1032800096958FEF890F09F484E20C94F51881E08C
:103290000C943D1961E00C94F518E3E5F3E08081AE
:1032A0008160808386950C944A198091530380FD38
:1032B0000C94C7180C944D1960E00C94F51880918B
:1032C000A00281112EC00E94E30E811104C00E9451
:1032D000880F0E94E5140E94CF14609353037093EB
:1032E000540380935503909356036E7F61F40E94BC
:1032F000E5140E94CF14609353037093540380939A
:103300005503909356030E94C0141092A20280911C
:10331000530380FF03C086950E945C1981E080936F
:10332000A00208950F931F93CF93DF938091A20281
:10333000882309F486C08091A102E0915303E695A9
:10334000E81BE0939C02823091F5F0E0E857FD4FD6
:10335000E491CE2FD0E002E815E180919D02882310
:1033600061F010929D020E94382390939B028093FB
:103370009A0210929F0210929E020E943823E091BE
:103380009A02F0919B028E1B9F0B8F3F9F4708F084
:1033900058C0EC0FFD1FF0939B02E0939A028AE95C
:1033A00092E0F801DF91CF911F910F91099486303F
:1033B00049F4F0E0EB57FD4FE491CE2FD0E006E961
:1033C00015E1CBCF893051F4E695F0E0EE57FD4F93
:1033D000E491CE2FD0E000ED16E1BFCF8F3051F455
:1033E000E695F0E0E158FD4FE491CE2FD0E00DE0FE
:1033F00017E1B3CF853149F4F0E0E458FD4FE49193
:10340000CE2FD0E007E817E1A8CFC8E2D0E00AEF5E
:1034100017E1883109F4A1CF833239F4EAE7F2E009
:10342000C591D49106EA15E198CFC4EFD1E00AE83E
:1034300018E1843209F491CFC0EDD7E00FEA14E12E
:103440008CCFDF91CF911F910F910895FA018111D7
:1034500001C0FB010994CF93DF93C82FD62F0E94A0
:10346000F4148C1740F00E94F4148D1720F4DF91AF
:10347000CF910C943A198C2FDF91CF910C944A196B
:103480001F93CF93DF93EC01FB011281112309F409
:10349000C0C00E94FC0D8272CD3CFCE5DF0709F440
:1034A0009CC008F044C0C73CECE5DE0709F481C0CD
:1034B000F0F4C43C9CE5D90709F471C048F4C33C5E
:1034C000DC4509F469C0812FDF91CF911F910895E8
:1034D000C53C9CE5D90709F467C04EE856E161E8B0
:1034E00076E1C63CDC4579F70E94261A53C0CA3CF7
:1034F000FCE5DF0709F467C068F4C83CECE5DE07CB
:1035000009F45CC04DE956E16CEA76E1C93CDC4562
:1035100059F3D9CFCB3C9CE5D90709F459C047E210
:1035200055E160E175E1CC3CDC45F1F2CCCFC23D28
:10353000FCE5DF0709F462C098F4CF3C9CE5D907AD
:1035400009F454C008F44EC0C03DFCE5DF0709F49F
:1035500052C0C13DDC4509F0B6CF6EE089E048C0FD
:10356000C53D9CE5D90709F44FC058F4C33DFCE5BF
:10357000DF0709F446C0C43DDC4509F0A4CF88E16B
:1035800032C0C63D9CE5D90709F441C0CE35DD45C2
:1035900009F099CF10E097CF0E945519FBCF47E46F
:1035A00059E16AE379E1A0CF4AE359E167E479E1BF
:1035B0009BCF41E856E16EE876E196CF4CEA56E1C2
:1035C0006DE976E191CF4AEC56E16BEB76E18CCF79
:1035D0004BEB56E16AEC76E187CF40E155E167E2DB
:1035E00075E182CF81E00E944A19D4CF65E082E084
:1035F0000E942B1ACFCF68E086E0FACF64E18FE01B
:10360000F7CF67E185E1F4CF62E289E1F1CF83E2B0
:10361000EACF11E058CF879A41B34F7751B3506842
:10362000EFB7F8949B01220F331F260F371F280F87
:10363000391F2817390741F4EFBF8FE594E0019750
:10364000F1F700C000000895DC016D91CD0178E034
:1036500051BB000000C067FF41BB660F000000C007
:1036600000C000C041BB00C07A9591F7E2CFCF9374
:10367000DF93EC01FB018281882309F420C1C4306F
:10368000FDE5DF07C8F5CB3F9CE5D90730F49E0187
:1036900022503C452431310598F50E94F60E909356
:1036A000460380934503C031FCE5DF0709F4E0C021
:1036B00008F061C0C8309CE5D90709F4CBC088F593
:1036C000C430FCE5DF0709F4B3C0E8F4C2309CE580
:1036D000D90709F4A7C0809145038260C330DC4557
:1036E00009F4A3C080914503909146030E94040F02
:1036F0000E94F30780E004C0C236EDE5DE0769F200
:10370000DF91CF910895809145038061C630FCE53B
:10371000DF0709F48AC008F48FC0809145038062F6
:1037200084C0809145038D7FCC309CE5D90709F496
:103730007CC070F4809145038C60CA30FCE5DF07E3
:1037400009F473C008F48AC0809145038E7F6DC070
:1037500080914503877FCE309CE5D90709F465C089
:10376000809145038B7FCF30DC4508F45EC08091AB
:1037700045038F7E5AC0CD3FFCE5DF0709F474C0D6
:1037800040F5C4319CE5D90709F48AC058F4C23128
:10379000FCE5DF0709F474C008F46EC080914503AE
:1037A000837F43C0CB3F9CE5D90709F449C008F0AB
:1037B0004DC0C531DC4509F095CF8091450382FBB2
:1037C000992790F921E0922790FB82F990FB83F9E9
:1037D0002CC0C1308DE5D80709F458C088F4809119
:1037E00046038360CF3FECE5DE0769F18091460335
:1037F0008D7FC115DD4538F1809146038C7F23C054
:10380000C3308DE5D80709F458C008F452C0C23659
:10381000DD4509F067CF90914503892F8F7E94FF96
:10382000806103C0809145038160809345035ACF36
:10383000809145038460F9CF809145038860F5CF7E
:10384000809146038160809346034CCF809146036C
:103850008260F9CF809145038064E7CF0E94F3072F
:10386000809145038068E1CF809146038E7FEBCF46
:10387000809145038F7DD9CF809145038F7BD5CF34
:103880000E94F307809145038F77CFCF8091460345
:10389000982F909591708E7F892B90FB81F9D3CFD3
:1038A0000E94F30790914503892F97FB87F9805871
:1038B000BCCF81E00E948A0F15CF80E0FBCF81E072
:1038C0001FCF08950F931F93CF93DF9380910E0323
:1038D000E091A3021CE081111AC0DF91CF911F91EA
:1038E0000F91089501E00E0F0093A302CE2FD0E0B8
:1038F000E19FF0011124E255FD4F83819481892BD2
:1039000029F08081918189238F3FE9F4E02F809114
:103910000E03E81738F310920E031092A302DDCFC6
:1039200018968D919C918F3F9807D1F061E00E948D
:10393000611C1C9FF0011D9FF00D1124E255FD4FED
:1039400014821382E3CF1C9FD0011D9FB00D112460
:10395000A255BD4F16968D919C911797892B01F317
:103960002081318142815381648175818681978173
:103970000E94370DDECF1092100310920F0320919A
:10398000490130914A01E0E0F1E090E080E0281741
:10399000390709F408954581411102C01482168245
:1039A00001963796F4CFDC016091AC028091AD02B4
:1039B000962F891301C00895292F30E0F901EE0FE9
:1039C000FF1FEC55FD4F408151814A175B07A1F461
:1039D00087E08A9FA0018B9F500D112440505F4FBC
:1039E00081E0FA0184839613E6CF2F5F3F4F237067
:1039F00033272093AC0208952F5F3F4F922F93708F
:103A0000D8CF7F928F929F92AF92BF92CF92DF9248
:103A1000EF92FF920F931F93CF93DF93EB012C81D3
:103A2000211165C070900E03AEEAB2E030E020E0F4
:103A3000812C61E070E0271508F042C01A96CD9005
:103A4000DC901B97A880B9804FEF5FEF912CE92C99
:103A5000F12CF701EE0FFF1FEA0DFB1D05911491EC
:103A6000C016D10609F4A701012B11F09394EFCFF2
:103A70004F3F5407C1F1FB0102C0EE0FFF1F4A95F3
:103A8000E2F78E2AAB0102C0440F551F9A94E2F769
:103A9000415051098416150611F54A815B816CE08D
:103AA000629FF001639FF00D1124E255FD4F578393
:103AB00046832EEF208321839187808721E02D8309
:103AC000DF91CF911F910F91FF90EF90DF90CF90FA
:103AD000BF90AF909F908F907F900C94D31C1496C2
:103AE0001C921E9213972F5F3F4F1C96A4CFDF911D
:103AF000CF911F910F91FF90EF90DF90CF90BF90EB
:103B0000AF909F908F907F9008951F93CF93DF93F6
:103B1000C091AC0217E08091AD028C1307C00E94E7
:103B2000621CDF91CF911F910C94BB1CD0E0FE0171
:103B3000EE0FFF1FEC55FD4F80819181189FB00162
:103B4000199F700D112460507F4F0E94011D219616
:103B5000C370E1CFEF92FF921F93CF93DF93FC01ED
:103B60002081318110E040E050E0E52FF0E0EE0FE1
:103B7000FF1FE20FF31FA591B4911097B9F0FB015D
:103B8000C081D18140E005C0AE15BF0509F411E048
:103B90004F5FE42FF0E0EE0FFF1FEC0FFD1FE590ED
:103BA000F490E114F10481F75F5FDFCF112349F056
:103BB000451708F4CB01DF91CF911F91FF90EF9053
:103BC000089590E080E0F7CF80914801882341F18B
:103BD0008091110390911203009711F10E945023DC
:103BE00020910F033091100328173907C8F49091E2
:103BF000AC028091AD02981759F00E94851D109279
:103C0000100310920F0310921203109211030895E3
:103C10000E94621C10921203109211030C94BB1CA0
:103C2000089510921203109211031092480180918E
:103C3000AD028093AC020E94BB1C0C94621C80916C
:103C4000480181110C94111E81E080934801089570
:103C50002F923F924F925F926F927F928F929F929C
:103C6000AF92BF92CF92DF92EF92FF920F931F938A
:103C7000CF93DF93CDB7DEB729970FB6F894DEBFA9
:103C80000FBECDBF6C013B01FB011281883FFCE5FB
:103C90009F07F9F4112321F181E080934801812FDE
:103CA00029960FB6F894DEBF0FBECDBFDF91CF913E
:103CB0001F910F91FF90EF90DF90CF90BF90AF904A
:103CC0009F908F907F906F905F904F903F902F903C
:103CD0000895893F2CE5920709F04DC0111148C0A5
:103CE00000E011E0F12CE12C198688248394912CBA
:103CF0008091490190914A01E816F90608F445C0FF
:103D0000F3018281882309F45EC1F985FF2309F458
:103D10005AC10E943823909312038093110380911B
:103D20000E03883008F591E0980F90930E0398E009
:103D3000F301DE01119601900D929A95E1F72CE0C6
:103D4000829FC001112482559D4F28E0FE013196CB
:103D5000DC0101900D922A95E1F72FEF3FEFFC0176
:103D600031872087D386C28611E0F9851F2797CF38
:103D70000E94111E94CF8A3F9C4509F0B1CF1123B8
:103D800009F4AECF0E941F1E8ACFF80160817181B5
:103D9000AA24AA94BA2C20E0422F50E0FA01EE0F98
:103DA000FF1FE60FF71F85919491C816D90609F4F5
:103DB0005A01892B11F02F5FEFCF312CFFEFAF1697
:103DC000BF0609F444C0F801448130904801832DB6
:103DD000411180E0F82FF1703F2EF8015580868167
:103DE000F3019281992309F48DC0332009F48AC02C
:103DF000511014C0A40101C0440FAA94EAF7842B07
:103E0000F801868380910F0390911003499730F455
:103E100069E170E07093100360930F03C40102C066
:103E2000880F991F2A95E2F70197F8012681281734
:103E3000190669F48091110390911203009781F0A3
:103E40000E9450234A9760F021E0F8012483F9850D
:103E5000F329F9872FEFE21AF20A095F1F4F48CFC3
:103E60002090AC0290E080E02091AD02221215C0BB
:103E70008017910761F3A22CB12CF501EE0FFF1F03
:103E8000EC55FD4FF182E0826FEFA61AB60A73E09F
:103E9000A722BB24A092AD02DACFA22CB12CF5014F
:103EA000EE0FFF1FEC55FD4F2081318147E0429F0F
:103EB000C001439F900D1124BC0160507F4F2B0126
:103EC000B801C2010E94AA1D0097A9F021E0FC01DF
:103ED00024838017910709F4BACF2091AC022212F3
:103EE0000AC04816590639F495012F5F3F4F2370D9
:103EF00033272093AC023FEFA31AB30A4A2D437035
:103F0000242EB2CF90E051101FC0F40102C0EE0F7A
:103F1000FF1F2A95E2F79F01215031092817390721
:103F200031F4442309F44DC0C7010E94D31CC401DD
:103F300001C0880FAA94EAF7982F9095F80186811E
:103F400089238683352C83CF9C010A2C02C03595AA
:103F500027950A94E2F7A90141705527BC016150E9
:103F6000710986239723892B41F5452B31F1F801FF
:103F700082819381892BE1F01B821C821D821E822B
:103F8000FEEFF983FA830E9438238160582F9D83C6
:103F90008C83F801828193818F83988729813A816C
:103FA0004B816D817E810E94370DF8011582BFCF54
:103FB00060E0C7010E94611CF8CFF22FF1705F2E04
:103FC000B6CF532CB4CF9091AC028091AD0298172C
:103FD00019F00E94851DC8CE0E94621C1092120327
:103FE000109211030E94BB1CBFCE0F931F9341E0A0
:103FF00050E060E070E08A019B0104C0000F111FD7
:10400000221F331F8A95D2F7C901B8010E945608B2
:104010001F910F910C94F307EBEFE80FEF3308F0CB
:104020005AC0F0E0EE58F44D0C94AD2A0E94880F6F
:1040300081E0089580919302807F8093930281E0D4
:104040008093130308950E94A003F2CF90919302EE
:10405000892F8E7F90FF81608093930280FDE8CF4F
:10406000817F80939302E4CF90919302892F8D7F7B
:1040700091FF82608093930281FFDACF8091930257
:104080008160EFCF90919302892F8B7F92FF8460A4
:104090008093930282FDF2CFCBCF90919302892F30
:1040A000877F93FF88608093930283FDE7CFC0CF23
:1040B0000E94F30790914503892F97FB87F9805859
:1040C00080934503B5CF80E00E94F51FB1CF89539F
:1040D000FBCF8D51F9CF80E0089580E008950C94D6
:1040E0006D20CF93C82F80911303882331F0813046
:1040F00099F01092130380E00DC00E94FC0D8232F3
:10410000D1F78C2F0E946D20811116C08C2F0E9438
:104110000C208170CF9108950E94FC0D823289F3AA
:104120008C2F0E946F20811105C0C43171F038F4CA
:10413000CB3079F781E0EDCF81E090E0EACFC93272
:1041400021F0C833B9F380E0E4CF10921303FBCF22
:10415000CF93DF93EB0186319C4511F50E94FC0D56
:104160009A81992399F08A7A91E009F490E09093EA
:104170001403811109C089E20E94D70D0E944C0EE0
:1041800080E0DF91CF91089585E3F6CF809114030D
:10419000811104C089E20E94DE0DF0CF85E3FBCFE0
:1041A00081E0EFCF0F931F93CF93DF93C42FD22FD4
:1041B000FC0182818823C9F0409317030E943823B1
:1041C000909316038093150380E28C0F883008F0DB
:1041D00050C0C77081E001C0880FCA95EAF7DF912F
:1041E000CF911F910F910C94630510911703141335
:1041F00035C080911503909116030E9450238F3A89
:10420000910560F5C0E2CD0F1D17B9F080E2810F76
:10421000883040F4177081E001C0880F1A95EAF7E2
:104220000E946A05C83048F481E09D2F977001C054
:10423000880F9A95EAF70E946305802F0E945B051C
:10424000C830B8F4D77081E001C0880FDA95EAF77A
:10425000DF91CF911F910F910C946A0580E28C0F32
:10426000883038F4C77081E001C0880FCA95EAF73A
:10427000EFCFDF91CF911F910F9108950F939C0184
:10428000CB01243F4CE5340759F1A8F4293DFCE566
:104290003F0701F12A3D4CE53407D1F1283D3C456B
:1042A00091F406E221EE41EE68ED7CE50E94D22019
:1042B00080E00F910895263FFCE53F07E9F0B0F05C
:1042C000273F3C45F9F0FC018281882339F11092A7
:1042D0001703EFCF07E225EE45EE69ED7CE5E6CF6B
:1042E00006E221EE40EE64EF7CE5E0CF07E225EE4A
:1042F00044EE65EF7CE5DACF06E221EE42EE66EFB2
:104300007CE5D4CF07E225EE46EE67EF7CE5CECF25
:1043100008E221E045EE6AED7CE5C8CF81E0C9CF37
:104320009093ED018093EC01089590931D03809389
:104330001C030895E0911C03F0911D03309721F0B8
:104340000190F081E02D099480E00895E0911C0334
:10435000F0911D03309799F020915701222359F0D5
:104360002091450327FF07C0DC012C9111962C9367
:10437000119726E02C930280F381E02D0994089593
:1043800020911A0330911B032817390771F090937D
:104390001B0380931A03E0911C03F0911D033097D7
:1043A00021F00680F781E02D0994089520911803EB
:1043B000309119032817390771F0909319038093EE
:1043C0001803E0911C03F0911D03309721F0008445
:1043D000F185E02D09940895FC01329680915701F2
:1043E000882321F0809145039EE187FF96E080E0DD
:1043F000915008F4089521912223D1F38F5FF8CFD3
:10440000662301F1209157012223F1F02091450309
:1044100027FF1AC0462F4695469546954E3190F493
:10442000677021E030E002C0220F331F6A95E2F787
:10443000840F911DFC01828190E02823392381E0C3
:10444000232B69F480E00895FC01329608962191AF
:10445000261721F0E817F907D1F7F4CF81E0089586
:104460009C01FC0132969FEF80E04191461751F08C
:104470009F3F19F4411101C0982F8F5F8630A9F733
:104480009F3F09F40895290F311D97FD3A95F901D1
:1044900062830895FC01329608962191261303C089
:1044A000DF0111971C92E817F907B9F70895E62F75
:1044B000E695E695E695EE3168F4E80FF92FF11DE3
:1044C000677021E030E001C0220F6A95EAF782812F
:1044D000822B82830895E62FE695E695E695EE31E8
:1044E00070F4E80FF92FF11D677021E030E001C092
:1044F000220F6A95EAF72095828128232283089566
:1045000020915701222329F02091450327FD0C9487
:1045100057220C94302220915701222329F0209118
:10452000450327FD0C946B220C944A22FC01329621
:1045300080915701882351F08091450387FF06C081
:104540008EE1DF011D928A95E9F7089586E0F9CFA3
:1045500008950C94A822811105C081E080931E0368
:104560000C94A92282E0FACF83E080931E030C947E
:10457000A9220C94AB2281E080931E030C94A92203
:104580000C94BB22089580919F03843031F10E94E6
:104590009B0310921F0388E190E020E40FB6F8948B
:1045A000A895809360000FBE2093600083B7817F41
:1045B000846083BF83B7816083BF7894889583B715
:1045C0008E7F83BF0FB6F894A895809160008861B4
:1045D00080936000109260000FBE089508950895C2
:1045E000CF930E94EE220E9479130E94EF22C0E036
:1045F0008C2F0E94B512811105C0CF5FC630C1F764
:10460000CF91089581E0FCCF0E94F3070C94090438
:104610001F921FB61F9211248F939F93AF93BF9346
:1046200080911F03811113C080919703909198038B
:10463000A0919903B0919A034196A11DB11D809359
:10464000970390939803A0939903B0939A03BF9113
:10465000AF919F918F911F901FBE1F90189582E080
:1046600084BD93E095BD9AEF97BD80936E00089549
:104670002FB7F8948091970390919803A091990394
:10468000B0919A032FBF08952FB7F89460919703C4
:10469000709198038091990390919A032FBF089588
:1046A0009C014FB7F8948091970390919803A09143
:1046B0009903B0919A034FBF821B930B089578948E
:1046C0001F921FB61F9211248F939F93AF93BF9396
:1046D0008091970390919803A0919903B0919A03C8
:1046E0000196A11DB11D8093970390939803A09309
:1046F0009903B0939A03BF91AF919F918F911F90AF
:104700001FBE1F90189581E08093E00080E28093A7
:10471000D8001092C9008FE19EE40197F1F700C024
:10472000000087E090EBDC018093A8039093A9033D
:10473000A093AA03B093AB0388E19CE00FB6F89472
:10474000A895809360000FBE90936000FFCF80918A
:10475000430308950895CF93DF93EC0180915701AF
:104760008823B1F18091450387FF32C060E282E087
:104770008093E9008FEF9091E800815095FD06C08D
:1047800095ED9A95F1F700008111F5CF8091E80041
:1047900085FF1BC08091570170E050E040E081111F
:1047A00004C050E040E068E070E0CE010E94C42503
:1047B0008091E8008E778093E80080E2FE01A3E21A
:1047C000B3E001900D928A95E1F7DF91CF910895C2
:1047D00068E081E0CDCF8093200370932203609343
:1047E000210380919F03843001F582E08093E900EA
:1047F0008FEF9091E800815095FD06C095ED9A9558
:10480000F1F700008111F5CF8091E80085FF0DC020
:1048100050E040E063E070E080E293E00E94C42555
:104820008091E8008E778093E8000895BC0184E0D1
:104830000C94EB23BC0183E00C94EB23089580914E
:104840009E03811109C00E9454270E94B1278091C4
:10485000E20084608093E200089510929E03089520
:104860000C94BB2260919B0381E0611101C080E048
:104870000C94B42290919F0381E0943009F080E081
:1048800060919B030C94B92242E061EC81E00E94AC
:10489000D02642E261EC82E00E94D02690919F03F4
:1048A00081E0943009F080E060919B030C94AB228E
:1048B0008091A103833009F460C030F48130C9F1E4
:1048C000823009F49CC008958A3009F488C08B3086
:1048D00009F46EC0893009F04FC08091A003813285
:1048E00009F04AC08091A4039091A503029708F0B3
:1048F00043C08091E800877F8093E8008091E800C2
:1049000082FF36C09091F3008091F200029731F45B
:104910008091F100813011F0863021F48091F10016
:10492000809343038091E8008B778093E8000C9498
:1049300004278091A003813AF9F48091E800877FF1
:104940008093E8008091A4039091A503892B61F4E2
:1049500060E283E293E070E00E9413268091E80019
:104960008B778093E800089560E090E080E0F3CFDB
:1049700080919F038111C2CF08958091A003813A55
:10498000D9F78091A4039091A503892BA9F7809171
:10499000E800877F8093E8008091E80080FFFCCFEB
:1049A000809157018093F1008091E8008E77BDCF10
:1049B0008091A003813201F78091A4039091A50317
:1049C000892BD1F68091E800877F8093E8000E94D0
:1049D00004278091A203809357010C94F3078091E0
:1049E000A003813249F68091E800877F8093E80038
:1049F0000E9404278091A30380934403089580912B
:104A0000A003813A09F0B8CF8091E800877F8093B6
:104A1000E8008091E80080FFFCCF80914403C2CF82
:104A200084B7877F84BF0FB6F894A8958091600003
:104A3000886180936000109260000FBE80E890E073
:104A40000FB6F89480936100909361000FBE0C94B0
:104A5000C0220E9454270E94B127E2EEF0E080813C
:104A60008460808378940C943A2A8BE491E00C94CF
:104A7000952180919F038530A9F480919F03853013
:104A800011F00C9404230E94C32280919D0388237B
:104A9000A1F30E94F022882381F30E94AE250E9498
:104AA000F307EBCF089508950C945625292F33274B
:104AB0002330310519F168F42130310509F444C07F
:104AC0002230310509F445C090E080E030E020E07C
:104AD00025C02132310549F122323105A9F780E4A0
:104AE00090E02FE835E061157105C1F08DE690E0AA
:104AF00022E235E06130710589F0E6CF99278130F7
:104B0000910581F0009729F00297F1F6E1E9F4E0D0
:104B100002C0E1EDF4E0849190E09F01FA0131835D
:104B200020830895EDEAF4E0F6CF89E090E027EEE7
:104B300034E06115710591F389E090E020E035E003
:104B40006130710559F3C0CF82E190E020E135E09A
:104B5000E5CF8BE390E025ED34E0E0CF80E189BD47
:104B600082E189BD09B400FEFDCF8091D8008F7D20
:104B70008093D8008091E00082608093E000809173
:104B8000E00081FDFCCF0895AF92BF92CF92DF92FB
:104B9000FF920F931F93CF93DF936C01EB018A0178
:104BA0000E942327F82E811123C00115110539F029
:104BB000F80180819181C81BD90BC80ED91EB12C78
:104BC000A12C2097A9F08091E80085FD22C080915A
:104BD000E8008E778093E80001151105A1F0F80137
:104BE00080819181A80EB91EB182A08285E0F82E45
:104BF0008F2DDF91CF911F910F91FF90DF90CF907C
:104C0000BF90AF9008950E9423278823D1F2F82EF9
:104C1000EFCFF60181916F018093F1002197FFEFB3
:104C2000AF1ABF0ACECFFC018091A6039091A703D3
:104C300086179707A0F06115710529F49091E80097
:104C40009E779093E80090E06115710551F4911101
:104C500008C08091E80082FF34C080E00895BC0164
:104C6000F2CF80919F038823C1F18530C1F18091FB
:104C7000E80083FD30C08091E80082FDEACF80919A
:104C8000E80080FFE1CF8091F3002091F200382FFF
:104C90006115710519F02830310558F091E0283080
:104CA000310509F090E02091E8002E772093E8008C
:104CB000CBCF81918093F100615071092F5F3F4FFD
:104CC000E7CF80919F03882341F0853041F08091A8
:104CD000E80083FFBECF81E0089582E0089583E07D
:104CE0000895FC018091A6039091A703861797076A
:104CF000A0F06115710529F48091E8008E7780930A
:104D0000E80090E06115710551F4911108C080919F
:104D1000E80082FF35C080E00895BC01F2CF8091A9
:104D20009F038823C9F18530C9F18091E80083FD94
:104D300031C08091E80082FDEACF8091E80080FFD9
:104D4000E1CF8091F3002091F200382F61157105B9
:104D500019F02830310558F091E02830310509F07C
:104D600090E08091E8008E778093E800CBCF84912B
:104D70008093F1003196615071092F5F3F4FE6CF6C
:104D800080919F03882341F0853041F08091E800B5
:104D900083FFBDCF81E0089582E0089583E0089508
:104DA000982F973028F08F708093E90081E0089564
:104DB0009093E900242F762F50E0981731F07091EE
:104DC000EC002091ED005091F00021FD02C09F5FAA
:104DD000E8CF3091EB003E7F3093EB003091ED0057
:104DE0003D7F3093ED003091EB0031603093EB006C
:104DF0007093EC002093ED005093F0002091EE00B2
:104E000027FDE5CF80E008958091A00387FF13C0C0
:104E10008091E80082FF06C08091E8008B77809344
:104E2000E80004C080919F038111F2CF0895809122
:104E30009F038823D9F38091E80080FFF8CF809109
:104E4000E8008E77ECCF2091E4003091E50095E604
:104E5000A9012091EC00822F817020FF06C0809173
:104E6000E80080FF06C080E008952091E80022FD60
:104E70001AC080919F03882389F0853089F0809142
:104E8000EB0085FD0FC02091E4003091E500421752
:104E90005307F9F29150E1F684E0089582E0089515
:104EA00083E0089581E008950E94C2270E94CA27E6
:104EB000E0EEF0E0808181608083E8EDF0E08081C9
:104EC0008F77808319BCA7EDB0E08C918E7F8C9397
:104ED00080818F7E808310929E0308950F931F938D
:104EE000CF93DF930E94C2270E94CA27C8EDD0E06B
:104EF00088818F77888388818068888388818F7D87
:104F0000888319BC10929F0310929B0310929D03FB
:104F100010929C0300EE10E0F80180818B7F80836B
:104F200088818160888342E060E080E00E94D02632
:104F3000E1EEF0E080818E7F8083E2EEF0E0808120
:104F400081608083808188608083F80180818E7F8A
:104F50008083888180618883DF91CF911F910F9139
:104F60000895E8EDF0E080818F7E8083E7EDF0E04A
:104F700080818160808384E082BF81E080939E0392
:104F80000C946E27E8EDF0E080818E7F8083109294
:104F9000E20008951092DA001092E10008951F9245
:104FA0000F920FB60F9211242F933F934F935F935D
:104FB0006F937F938F939F93AF93BF93EF93FF93E1
:104FC0008091E10082FF0BC08091E20082FF07C068
:104FD0008091E1008B7F8093E1000E94392A8091CB
:104FE000DA0080FF19C08091D80080FF15C0809141
:104FF000DA008E7F8093DA008091D90080FF96C01E
:1050000080E189BD82E189BD09B400FEFDCF81E068
:1050100080939F030E941F248091E10080FF19C0AC
:105020008091E20080FF15C08091E2008E7F809326
:10503000E2008091E20080618093E2008091D800DC
:1050400080628093D80019BC85E080939F030E9402
:1050500032248091E10084FF2BC08091E20084FF24
:1050600027C080E189BD82E189BD89B5982F917003
:1050700080FFFBCF8091D8008F7D8093D8008091F6
:10508000E1008F7E8093E1008091E2008F7E80932B
:10509000E2008091E20081608093E20080919B03B6
:1050A000882309F449C084E080939F030E943A2436
:1050B0008091E10083FF29C08091E20083FF25C039
:1050C0008091E100877F8093E10082E080939F03DD
:1050D00010929B038091E1008E7F8093E10080918C
:1050E000E2008E7F8093E2008091E20080618093F5
:1050F000E20042E060E080E00E94D0268091F00073
:1051000088608093F0000E943024FF91EF91BF915E
:10511000AF919F918F917F916F915F914F913F914F
:105120002F910F900FBE0F901F90189519BC1092E1
:105130009F030E942D2470CF8091E30087FD93E0B0
:1051400090939F03B3CF1F920F920FB60F9211242B
:105150002F933F934F935F936F937F938F939F937F
:10516000AF93BF93CF93DF93EF93FF93D091E90079
:10517000DF708091EC00C82FC17080FDC0E81092F4
:10518000E9008091F000877F8093F00078940E947E
:10519000E7281092E9008091F00088608093F00089
:1051A000CD2BCF70C093E900FF91EF91DF91CF91AC
:1051B000BF91AF919F918F917F916F915F914F912F
:1051C0003F912F910F900FBE0F901F9018951F9336
:1051D000CF93DF93CDB7DEB7AA970FB6F894DEBFB3
:1051E0000FBECDBF80EA93E02091F100FC01219336
:1051F000CF01F3E0883A9F07B9F70E9458248091C5
:10520000E80083FF1EC18091A0039091A1039A3012
:1052100008F017C1E92FF0E0EF54F44D0C94AD2ADB
:10522000803899F0823809F00CC18091A4038F7006
:10523000873008F006C18093E9008091EB0085FB80
:10524000882780F91092E90006C080919C03909114
:105250009D03911182609091E800977F9093E80000
:105260008093F1001092F1008091E8008E77E5C004
:10527000882309F4D3C0823009F0E3C08091A203EF
:105280008111D6C08091A4038F702FEF280F263094
:1052900008F0D7C08093E9002091EB0020FFC8C040
:1052A000933031F48091EB0080628093EB00C0C0BA
:1052B0009091EB0090619093EB0021E030E001C011
:1052C000220F8A95EAF72093EA001092EA00809173
:1052D000EB008860EACF8111B4C01091A2031F7760
:1052E0008091E3008078812B8093E3008091E80037
:1052F000877F8093E8000E9404278091E80080FF68
:10530000FCCF8091E30080688093E30082E011117C
:1053100083E080939F0395C08058823008F091C04D
:105320008091A2039091A3038C3D23E09207A1F505
:1053300083E08A838AE289834FB7F894DE0113966B
:1053400020E03EE051E2E32FF0E050935700E4917B
:1053500020FF03C0E295EF703F5FEF708E2F90E06B
:10536000EA30C0F0C7968D939D932F5F243159F793
:105370004FBF8091E800877F8093E8006AE270E089
:10538000CE0101960E9413268091E8008B778093CE
:10539000E80057C0C096E7CF6091A4037091A503C1
:1053A000AE014F5F5F4F0E945425BC01892B09F469
:1053B00048C09091E800977F9093E80089819A8196
:1053C0000E947126E1CF8038E1F58091E800877F67
:1053D0008093E80080919B038093F10045CF811179
:1053E00030C09091A203923060F58091E800877FF1
:1053F0008093E80090939B030E94042780919B0375
:10540000882311F084E005C08091E30087FDFACF86
:1054100081E080939F030E94442413C08091A203E3
:10542000813079F481E0933009F080E080939D032E
:105430001092E9008091E800877F8093E8000E9445
:1054400004278091E80083FF0AC08091E800877FED
:105450008093E8008091EB0080628093EB00AA9635
:105460000FB6F894DEBF0FBECDBFDF91CF911F9175
:1054700008950895CF9380919F038823A1F0C09150
:10548000E900CF709091EC00892F817090FD80E849
:10549000C82B1092E9008091E80083FD0E94E72864
:1054A000CF70C093E900CF91089587FB082E0626A0
:1054B00087FD819567FD61950E94E42A0EF4919520
:1054C00007FC81950895AA1BBB1B51E107C0AA1FC9
:1054D000BB1FA617B70710F0A61BB70B881F991F95
:1054E0005A95A9F780959095BC01CD01089597FB39
:1054F000072E16F4009407D077FD09D00E94632A86
:1055000007FC05D03EF4909581959F4F08957095C6
:1055100061957F4F0895A1E21A2EAA1BBB1BFD01C6
:105520000DC0AA1FBB1FEE1FFF1FA217B307E40782
:10553000F50720F0A21BB30BE40BF50B661F771FDA
:10554000881F991F1A9469F76095709580959095BA
:105550009B01AC01BD01CF010895EE0FFF1F059027
:10556000F491E02D09940E94BB2A332312F48A1B84
:105570009B0B0C94CC2AA29FB001B39FC001A39FA8
:10558000700D811D1124911DB29F700D811D11247C
:10559000911D08950E94BB2AB7FF0895821B930BAB
:1055A00008950E94BB2AA59F900DB49F900DA49FC3
:1055B000800D911D11240895B7FF0C94D12A0E94EB
:1055C000D12A821B930B0895991B79E004C0991F7F
:1055D000961708F0961B881F7A95C9F7809508954D
:1055E000FC014150504030F001900616D1F7319740
:1055F000CF010895882799270895FB01DC0104C095
:105600008D910190801921F441505040C8F7881BBA
:10561000990B0895F999FECF92BD81BDF89A99270B
:1056200080B50895A6E1B0E044E050E00C94442B2E
:10563000A8E1B0E042E050E00C94442B262FF99909
:10564000FECF92BD81BDF89A019700B4021639F0E1
:105650001FBA20BD0FB6F894FA9AF99A0FBE0895B2
:105660000396272F0E941F2B0E941E2B252F0E947E
:105670001F2B242F0C941F2B0196272F0E941F2BCA
:105680000C941E2BDC01CB01FC01F999FECF06C066
:10569000F2BDE1BDF89A319600B40D9241505040F0
:1056A000B8F70895F894FFCFAA05AA0500060006EA
:1056B0006606D905D905D90582060E071D071D07FF
:1056C0007D07D905D9058607020802080B080B08D3
:1056D0000D080B080B080B080208020812080B083B
:1056E0000B08120823201A20262018206B206B207C
:1056F00018206B206B2042206B204D2058206B20FF
:105700006B206B206B2018206B206B2018206B20E7
:1057100034206B206B206920692069206920692072
:10572000692069206920692063206B2023201620CE
:105730006B206B206B206B206B206B206B206B2011
:105740006B206B2063206B206B2018206B20672060
:105750006720672067206720672067206720672011
:10576000632010293829212A3829212A6B298C29DC
:06577000212AE329EF29C4
:10577600D0002A00000000CA002A00000000C40071
:105786002B00000000BE002900000000B800350014
:10579600000000B2004C00000000AC003800000021
:1057A60000AF006102010102001500151501191A6A
:1057B6001B1C1D1E1F202122010700A723AB231E31
:1057C600241A241624AA2301E200E900EA00B500FF
:1057D600B600B700CD008301CC008A019201940186
:1057E6002102230224022502260227022A02B300EE
:1057F600B4006F007000818283E200E900EA00B520
:1058060000B600B700CD008301CC008A0192019456
:10581600012102230224022502260227022A02B3BC
:1058260000B4006F007000818283349392F535F6E0
:1058360097F49466C69190000102020202060606DB
:105846000909090909090F0F0F0F0F0F151515186B
:0C58560019191919191919191919232405
:00000001FF
