:100000000C940D030C9454030C9454030C9454035B
:100010000C9454030C9454030C9454030C94540304
:100020000C9454030C9454030C94F9240C94CD2593
:100030000C94681F0C9454030C9454030C945403B4
:100040000C9454030C9454030C9454030C945403D4
:100050000C9454030C94B31F0C9454030C94540349
:100060000C9454030C9454030C9454030C945403B4
:100070000C9454030C9454030C9454030C945403A4
:100080000C9454030C9454030C9454030C94540394
:100090000C9454030C9454030C9454030C94540384
:1000A0000C9454030C9454030C9454032D002E0010
:1000B000000014001A0000001600070000002700CE
:1000C0002600000012001300000014001A000800AF
:1000D000150017001C001800044416000700090052
:1000E0000A000B000D001D621B0006001900050030
:1000F00011001000E000E300E2002C422C41380027
:1001000033000C0012001300360034000000000021
:100110000E000F00284337720000000000001E0090
:100120001F00200021002200230024000551AE0002
:10013000AA00A900AC00AB002D00000000000000E8
:1001400000000000000000000000000001004C0062
:100150000100010001002500260027000000010029
:10016000000000002E002F003000310000000000D1
:1001700000001E021F02200221022202230224028A
:100180003A003B003C003D003E003F002D02400095
:10019000410042004300440045000000010001000E
:1001A00001000000010001000100250226022702D3
:1001B00000000100000000002E022F023002310278
:1001C00000000000000035003502000000000000C3
:1001D000000000002B0000000000000000000000F4
:1001E00000003900000000000000000000000000D6
:1001F00000000000000000000000000000000000FF
:1002000000000000000000000000000000000000EE
:1002100000000000000000000000000000000000DE
:100220000000000000004A00000000000000000084
:10023000000000005000000000000000000000006E
:10024000000000003100000000000000000000007D
:10025000000052004D004B000000000000000000B4
:1002600051004F004E000000000000000000005C44
:100270000000000000000000B200000000000000CC
:10028000000000000000000000000000000000006E
:10029000000000000000000000000000000000005E
:1002A000000000000000000000000000000000004E
:1002B000000000000000000000000000000000003E
:1002C000000032190A00047F3F1F643214643214A4
:1002D000783C1E1E140A052223252628292A2C2DA7
:1002E0002F3032333536383A3B3D3E404243454766
:1002F000494A4C4E5051535557595A5C5E6062649E
:100300006668696B6D6F71737577797B7D7F8183AB
:100310008587898A8C8E90929496989A9C9E9FA1AC
:10032000A3A5A7A8AAACAEAFB1B3B4B6B8B9BBBCCD
:10033000BEBFC1C2C3C5C6C7C9CACBCCCDCED0D142
:10034000D2D2D3D4D5D6D7D7D8D9D9DADADBDBDB3A
:10035000DCDCDCDCDCDDDDDDDDDCDCDCDCDCDBDBDB
:10036000DBDADAD9D9D8D7D7D6D5D4D3D2D2D1D02F
:10037000CECDCCCBCAC9C7C6C5C3C2C1BFBEBCBB2C
:10038000B9B8B6B4B3B1AFAEACAAA8A7A5A3A19FA4
:100390009E9C9A98969492908E8C8A898785838168
:1003A0007F7D7B79777573716F6D6B696866646249
:1003B000605E5C5A5957555351504E4C4A49474517
:1003C0004342403E3D3B3A3836353332302F2D2CB8
:1003D0002A292826252322FFAA7F55400001010152
:1003E00001010101010102020202020202020203F2
:1003F00003030303030303040404040404040505C2
:100400000505050606060606070707070708080884
:1004100008090909090A0A0A0B0B0B0C0C0C0D0D33
:100420000D0E0E0E0F0F0F101011111112121313CB
:100430001414151516161717181819191A1A1B1B44
:100440001C1D1D1E1E1F20202122222324242526A0
:1004500026272829292A2B2C2D2D2E2F30313232D8
:10046000333435363738393A3B3C3D3E3F404142E4
:10047000434445464748494A4C4D4E4F50515354CA
:10048000555658595A5B5D5E5F616264656668697E
:100490006B6C6D6F7072737577787A7B7D7E8082FE
:1004A000838587888A8C8E8F91939596989A9C9E47
:1004B000A0A2A3A5A7A9ABADAFB1B3B5B7BABCBE57
:1004C000C0C2C4C6C9CBCDCFD1D4D6D8DBDDDFE224
:1004D000E4E7E9EBEEF0F3F5F8FAFDFF1A0371003B
:1004E00061007A0020006B006500790062006F00F7
:1004F0006100720064000000220377006800790048
:1005000064006F00620065006100720073006500A6
:10051000780070006C006F006400000004030904A0
:1005200009023B00020100A0FA09040000010301D6
:100530000100092111010001224000070581030883
:10054000000A090401000103000000092111010053
:1005500001226D000705820320000A12011001002C
:1005600000000831740100010001020001050109C9
:1005700080A101850319012AB700150126B700954E
:100580000175108100C0050C0901A1018504190144
:100590002AA002150126A002950175108100C00550
:1005A000010906A1018505050719E029E7150025C0
:1005B000019508750181020507190029EF1500252D
:1005C0000195F07501810205081901290595057548
:1005D000019102950175039101C005010906A10170
:1005E000050719E029E71500250195087501810225
:1005F0009501750881010507190029FF150026FFDF
:1006000000950675088100050819012905950575ED
:10061000019102950175039101C011241FBECFEF16
:10062000DAE0DEBFCDBF04B603FE27C080918403AD
:1006300090918503A0918603B09187038730904BFA
:10064000A740B04BD1F4109284031092850310920E
:1006500086031092870314BE84B7877F84BF0FB6CA
:10066000F894A89580916000886180936000109252
:1006700060000FBEE0E0F8E3099511E0A0E0B1E012
:10068000EEECF2E502C005900D92A83DB107D9F756
:1006900023E0A8EDB1E001C01D92A438B207E1F754
:1006A0000E943B220C94EA280C940000CF93DF9325
:1006B0009C013A9521153F4168F5EC01CC27D1709A
:1006C000DC01AA27B270AC01442754709C01222798
:1006D000387094FF11C080E1CD2B09F480E0AB2B82
:1006E00009F08062452B09F08064232B09F08068B3
:1006F000FB01DF91CF91099481E0CD2B09F480E0DB
:10070000AB2B09F08260452B09F08460232B81F329
:100710008860EECFDF91CF910895CF93DF93EC0106
:10072000805E9109089720F060E377E1209711F44B
:100730006BED74E1CE010E9456038C2FDF91CF91B7
:100740000C94EA13CF93DF93EC010E947914CE014D
:10075000805E9109089720F067E377E1209711F414
:1007600062EE74E1CE01DF91CF910C94560381E0EB
:10077000089581E008950C94B90308950C94BD0385
:100780001F93CF93DF9300D000D00F92CDB7DEB789
:1007900049835A836B833091780289819A81311120
:1007A0001DC06623B9F02223A9F00E94631C182FF4
:1007B000682F89819A810E940F1C69817A81812F1B
:1007C0000F900F900F900F900F90DF91CF911F918E
:1007D0000C9480040E943B1C182FEFCF0E94631CD6
:1007E00069817A81EDCFFC01262F408151816281A0
:1007F000738184810C94C003CF93DF93EC0160E09C
:100800000E94F303BE01DF91CF910C94BE030E94BE
:10081000FD1F0E94AD1D811102C00E94511E0C944B
:1008200083060E944D110C94860608950E9450176D
:100830000E9415042FEF84E39CE0215080409040FB
:10084000E1F700C000000C94D71F0F931F93CF93C4
:10085000DF93EC0161E00E94F3038C01BE010E9472
:10086000BB03882389F1BE01C8010E947911882346
:1008700059F1BE01C8010E948E0F882329F1BE01E3
:10088000C8010E94E00F8823F9F0BE01C8010E9450
:1008900003118823C9F0BE01C8010E94860E882377
:1008A00099F08A81882339F001158CE5180751F0F9
:1008B0000F3D1C4579F0CE01DF91CF911F910F9133
:1008C0000C94B7030E94160480E0DF91CF911F9132
:1008D0000F9108950E94511EF7CF08950C946D0456
:1008E00081E008950C947004CF93C82F0E946E0489
:1008F0008C2FCF910C94720490E080E008950895BD
:10090000972F70E027E0929F600D711D1124FB016D
:100910009AE2899FE00DF11D1124EE0FFF1FE653AF
:10092000FF4F859194910895FC01EE0FFF1FEE5348
:10093000FD4F859194910895CF93DF930E94800499
:100940000E94A805EC01811520E5920708F041C03E
:10095000811530E4930708F0B4C0803E910518F586
:10096000803C910508F09DC0883A910570F4853A65
:10097000910508F08EC081309105F9F00097E9F0FB
:100980000497D8F4D0E0C0E018C08F3B9105D0F7B1
:10099000C85AD0E0CC0FDD1FC25CDE4F0990D88171
:1009A000C02DD4640AC08115904258F4C11581E06D
:1009B000D80718F4C83ED10528F7CE01DF91CF91B2
:1009C0000895C11590E3D90708F071C0CE019F705A
:1009D0006AC0811525E5920758F5811534E593071E
:1009E00008F09EC0811542E5940750F4C11581E5D9
:1009F000D80708F469C0DC2FCC27C16FD06ADDCFDF
:100A0000982F969596959E0123703327C115D3454F
:100A100008F077C0C1E0D0E002C0CC0FDD1F2A95FE
:100A2000E2F720E2929FC0011124C82BD92B67C0A6
:100A3000C11589E5D807A8F4C11598E5D90708F0CC
:100A400074C0C11526E5D20708F09CCF8C2F0E94F8
:100A50003F06C82FD0E0DC2FCC27CC27DF71D06237
:100A6000ACCFC1153AE5D30708F464C0CE01905667
:100A70008115904208F086CF8D2F8F710E943F061E
:100A800090E0982F882788279F719C012C2BE901E3
:100A9000E6CFC55AD0E0C459DE4FC881D0E0D0645B
:100AA0008CCF805C91090E949404EC0186CFCE012A
:100AB0009927D3FF03C0EC01D86C7FCFEC01D06C39
:100AC0007CCFDF70D06A79CFCE01E4E09695879530
:100AD000EA95E1F783702C2F26952695237090E2F6
:100AE000299F90011124382B8C2F8370C1E0D0E016
:100AF00002C0CC0FDD1F8A95E2F7C22BD32BDC6836
:100B00005CCFC1E0D0E002C0CC0FDD1F2A95E2F738
:100B100030E2939FC0011124C82BD92BDA684DCF46
:100B2000D82FCC27C46FD06A48CFDC2FCC27C06F1A
:100B3000D06A43CF8C2F8F700E943F0634E0D69549
:100B4000C7953A95E1F7CF709C2FEC01D06935CF6E
:100B500082389105B1F1B0F48133910509F475C083
:100B600048F48932910509F469C08A32910509F483
:100B700073C008958533910509F459C089339105EF
:100B800001F10895833E9105A9F138F4803E910565
:100B9000F9F0823E910549F10895863E9105A9F14B
:100BA000873E9105C9F1843E910519F520917603A0
:100BB00021FF1FC08091750384FD14C087EE90E073
:100BC0000895209175032370A1F080EE90E00895C0
:100BD0002091750320FD47C03091760330FF09C096
:100BE00024FF44C090E080E004C02091750322FD02
:100BF000F7CF08952091750322FD3BC03091760315
:100C000030FDE3CF24FFF5CFEDCF2091750323FF17
:100C1000F0CF24FDE7CFD2CF2091750323FD2CC068
:100C20003091760331FFEECF84EE90E0089520916D
:100C3000750325FFDECF89E290E0089520917503CA
:100C400025FFD7CF85E390E008952091750326FF17
:100C5000D0CF8AE290E008952091750326FFC9CF96
:100C600081E390E0089589E390E0089583EE90E0B9
:100C7000089582EE90E0089586EE90E008959091B8
:100C8000750392FF06C0282F28712830F9F4877F5A
:100C9000846093FF06C0282F28712831F1F4877EE5
:100CA00084612091760320FF06C0382F38713830D8
:100CB000D9F4877F816021FF06C0282F2871283151
:100CC000D1F4877E816194FD877E0895282F247159
:100CD0002430F9F68B7F8860DCCF282F24712431F3
:100CE00001F78B7E8861DDCF382F3171313019F7F4
:100CF0008E7F8860E0CF282F2171213121F78E7EF1
:100D00008861E1CF08950C94820608950C948506BD
:100D1000E82FF0E0E95DFC4F80810895089580EAB6
:100D20008A95F1F70895F894E82FE295EF70F0E0D6
:100D300031A1282F2F7081E090E001C0880F2A9503
:100D4000EAF7982F9095932391A392A1892B82A3E0
:100D5000789408950F931F93CF93DF9384EF0E94AD
:100D6000930684E90E94930686E60E94930686EC29
:100D70000E94930681E90E94930680E90E949306EF
:100D8000CFE6D1E006E711E089910E9493060C17A7
:100D90001D07D1F7E1E2F3E0A7E2B3E011921D9263
:100DA00083E0E732F807D1F786E00E945207DF912F
:100DB000CF911F910F910C940704CF92DF92EF9285
:100DC000FF920F931F93CF93DF93C6E7D1E001E229
:100DD00013E0D12CEE24E394F12C8991F894E82FC0
:100DE000E295EF70F0E021A18F70A70102C0440FDF
:100DF000551F8A95E2F7CA01922F982B91A392A1D1
:100E00008095892382A378940E948F06EFE6F1E013
:100E100030E020E0C12C4191A42FA295AF70B0E04A
:100E200090968C9190E04F7002C0959587954A9569
:100E3000E2F780FD33C08E2D022E01C0880F0A9488
:100E4000EAF7C82A2F5F3F4F2730310521F7FE010F
:100E5000319780810E949306F8018081C81601F1C4
:100E6000C08281E0D82A0F5F1F4FF1E0CC37DF0747
:100E700009F0B3CF2D2D46E067E273E081E293E005
:100E80000E9453070E9411048D2DDF91CF911F9175
:100E90000F91FF90EF90DF90CF90089580E0D1CF39
:100EA00080E0E0CF0895FF920F931F93CF93DF93DD
:100EB000F82E092F162FD72FC42F222349F081E0B7
:100EC0008093DA010E94981F9093D9018093D801F2
:100ED0008091DA018823A1F08091D8019091D90105
:100EE0000E94A41F069760F0EF2DF02FA12FBD2FB9
:100EF000CE0FDF2FD11DEC17FD0741F41092DA0160
:100F0000DF91CF911F910F91FF90089581918D9363
:100F1000F2CFEF92FF920F931F93CF93DF93EB01EA
:100F2000E82FD11110C0442321F0F0E0E452FC4F2F
:100F3000E4916E2F7E2F8E2FDF91CF911F910F9115
:100F4000FF90EF9008950D2F10E0282F30E04423FC
:100F500029F024523C4FF901249130E0F6E0CF9F74
:100F6000C0011124EFEFF0E0BF010E949927AB010F
:100F70008C2F90E0880F991FA5E5A49FB001A59F35
:100F8000700D1124861B970B982F990F980FBF0196
:100F9000601B710B629FD001639FB00D729FB00DFB
:100FA00011248B2F9D9FB0011124672F7727EF010C
:100FB000C61BD70BBE01629FE001639FD00D729FDD
:100FC000D00D11247F01E91AF108E09EB001E19EE5
:100FD000700DF09E700D1124672F7727E61BF70B1D
:100FE000E29F8001E39F100DF29F100D1124E12F6D
:100FF000722F4230510599F048F44115510569F0BE
:101000004130510581F0EB2F8D2F07C04430510541
:1010100069F080F046305105B1F76E2F8DCFE22F89
:101020007B2F812FFACFE22F7D2FF7CFEB2F822F4F
:10103000712FF3CF7B2F822FED2FEFCF41E00C9458
:10104000890708950C941E08CF93DF93762FE9014A
:10105000682F842F0E942208798368838A83DF9116
:10106000CF91089580912D03982F9E7F29F4817050
:10107000826080932D0308958635E8F3817084653E
:10108000F8CF88E090E00C948B28CF92DF92EF921B
:10109000FF926B017C010E943208B701A60188E033
:1010A00090E0FF90EF90DF90CF900C94A928EDE2B4
:1010B000F3E083E0808311828FEF82838383148245
:1010C00060817181828193810C94450880912D0308
:1010D00080FF02C08695089580E0089590913103C5
:1010E000933018F49F5F90933103882351F06091FF
:1010F0002D0370912E0380912F03909130030C9457
:101100004508089581E00C946E089091310399236D
:1011100019F0915090933103882351F060912D0381
:1011200070912E0380912F03909130030C94450809
:10113000089581E00C94850870E00C94F60E60919F
:10114000210180912D0380FF0AC08091200123E0BE
:10115000829FC00111248E5C9C4F0C949C0880914E
:1011600022019091230123E0829FF0011124EE5C83
:10117000FC4F891750F71182108212828F5F3396CD
:10118000F8CF90912D0390FF14C0909122012091EF
:10119000230133E0939FF0011124EE5CFC4F921782
:1011A00010F00C949F088183608342839F5F339685
:1011B000F6CF0895CF93DF9300D00F92CDB7DEB76F
:1011C00090912D0390FF0AC09E012F5F3F4F0E9418
:1011D00024084B8169818A810E94C1080F900F9079
:1011E0000F90DF91CF910895CF93DF93EC01EC81C5
:1011F000F0E0E952FD4F4491EDE2F3E0628181813C
:101200000E94DA088C818F5F8C83DF91CF910895E3
:10121000CF93DF93EC01EDE2F3E0438162818C81B7
:101220000E94DA088C818F5F8C83DF91CF910895C3
:101230000F931F93CF93DF9300D00F92CDB7DEB7FC
:101240008C018091DB0181110AC09E012F5F3F4F0D
:101250004FEF6FEF0E9424088A818093DB01F80131
:101260006481613069F08091DB0140E0662361F0C8
:1012700040E0623011F44091DB0180E060E004C0A6
:101280006091DB0140E080E00E94C108F8018481A8
:1012900090E0019663E070E00E94AD2784830F9098
:1012A0000F900F90DF91CF911F910F910895AF9202
:1012B000BF92CF92DF92EF92FF920F931F93CF9343
:1012C000DF9300D00F92CDB7DEB7182FF62E042F84
:1012D000E22E90912D0390FF29C0E92FE695AE2FC5
:1012E000B0E0A458BE4F8C9180934E029E7F923006
:1012F00059F59E012F5F3F4F812F0E9424084B819B
:1013000069818A810E94C10810932E03F0922F03F5
:1013100000933003EE2051F060912D0370912E0365
:1013200080912F03909130030E9445080F900F90F9
:101330000F90DF91CF911F910F91FF90EF90DF9071
:10134000CF90BF90AF900895823019F40091300390
:10135000DBCF863019F410912E03D6CF8930D9F324
:10136000893191F6E9518E2F8170D82EE695F0E003
:10137000E952FC4FA590B490C12CBB24609124018C
:10138000C61618F00E949F08BFCF2C2D30E0A29EF9
:10139000C001A39E900DB29E900D112470E00E949A
:1013A0009927812FD11013C0860F40912201420F3F
:1013B000532F511D9A01220F331F240F351F2E5C0E
:1013C0003C4F402F6F2D0E942408C394D7CF861B1B
:1013D000ECCFEDE2F3E09181282F4381628188E038
:1013E000890F0C94570981E00C94E909EDE2F3E0D0
:1013F0009181282F4381628188EF890F0C945709CE
:1014000081E00C94F609EDE2F3E0628128E0620FDE
:1014100008F46FEF282F438181810C94570981E0F4
:101420000C94030AEDE2F3E0628128E0621B08F409
:1014300060E0282F438181810C94570981E00C944E
:10144000120AEDE2F3E0438128E0420F08F44FEF87
:10145000282F628181810C94570981E00C94210A24
:10146000EDE2F3E0438128E0421B08F440E0282F3E
:10147000628181810C94570981E00C94300A20E04C
:101480000C945709EF92FF921F93CF93DF93EC01D7
:1014900010E0EE24EA94F12C60912401161770F00C
:1014A0000E949F089A818C8190FF27C08F5F8C8358
:1014B000DF91CF911F91FF90EF900895209122012D
:1014C000422F410F5527551FCA019A01220F331F82
:1014D000280F391F2E5C3C4F70E0C7010E94AD27DA
:1014E000962F8C814091300360912F03199F800DBE
:1014F00011240E9424081F5FCFCF8150D8CFAF9214
:10150000BF92CF92DF92EF92FF920F931F93CF93F0
:10151000DF93FC0182810FEF80FF01E010E045E1E5
:10152000A42E809124011817C8F00E949F08809172
:10153000DD01013009F055C0811102C08091240104
:1015400081508093DD01DF91CF911F910F91FF902A
:10155000EF90DF90CF90BF90AF900895C09122019F
:10156000C12ED12CCC0DDD2DD11DCE01880F991FA0
:10157000C80FD91FCE5CDC4F198218821A8234E062
:10158000E32EF12CB12C8091DD018B0D86311CF105
:101590006A2D0E948B27892F082E000C990BC816E4
:1015A000D90691F4809130038E9DA0018F9D500D3E
:1015B000112455954795559547959E0160912F03A8
:1015C00080912E030E942408B00EF1E0EF1AF1087A
:1015D000D1F61F5FA6CF87FFDFCF90912401890F3F
:1015E000DBCF90E001966091240170E00E94AD276E
:1015F000A8CF0F931F93CF93DF93809122019091F7
:10160000230123E0829FF0011124EE5CFC4F891737
:1016100040F1C0E0D3E060912401C61740F10E9480
:101620009F0820911E018091DC01820F8093DC01D4
:1016300090911F01920F90931F01191654F4082ED8
:10164000000C990B409124014150550B84179507CC
:101650001CF0219520931E01DF91CF911F910F91D6
:1016600008951182108212828F5F3396D0CF0C2F93
:1016700010E070E0C8010E94AD2720912201820F86
:10168000482F50E02091DC01022E000C330B021792
:101690001307BCF020911F01022E000C330B201702
:1016A00031077CF08D9F900111242E5C3C4F4091BE
:1016B000300360912F0380912E030E942408CF5F96
:1016C000AACFFA01EE0FFF1FE40FF51FEE5CFC4FEF
:1016D000118210821282F3CF8F929F92AF92BF92AB
:1016E000CF92DF92EF92FF920F931F93CF93DF93EE
:1016F000EC014C81042F10E09801D8010E94F127E1
:101700009B01AC010E9407284B015C01E0E2F0E084
:10171000E01BF10BA5E5B0E0AC019B010E9407289E
:101720006B017C019F01DF010E94E9279B01AC0155
:101730000E9412289B01AC01280D391D4A1D5B1D1A
:10174000C701B6010E94C127F22E822F90E039E234
:101750003F1560F143E0249F9001112435952795B2
:10176000122F109500E085E5E82EEF1880912401F6
:10177000081758F10E949F089C8181E0992319F075
:10178000903219F48FEF80931D0180911D01890F14
:101790008C83DF91CF911F910F91FF90EF90DF909D
:1017A000CF90BF90AF909F908F90089525E530E047
:1017B000B901681B790B9B01220F331F260F371FBE
:1017C00037FFCCCF2F5F3F4FC9CF8E2D01FD8F2D1F
:1017D00020912201622F600F7727771F9B01220F34
:1017E000331F260F371F2E5C3C4F412F60912F0374
:1017F0000E9424080F5FBACF0F931F93CF93DF93FC
:10180000EC0110E000E0909124019017110609F01E
:101810006CF40E949F088C8190E00196817099275A
:101820008C83DF91CF911F910F9108952091220118
:10183000A801420F511D9A01220F331F240F351F9B
:101840002E5C3C4F4C8160912F0380912E03969526
:101850009017110651F04CF0442349F040913003A9
:101860000E9424080F5F1F4FCECF4423B9F340E0FE
:10187000F7CF8F929F92AF92BF92CF92DF92EF926B
:10188000FF920F931F93CF93DF93FC01B28094805C
:1018900081E0848300E015E05BE4A52E8824839436
:1018A000EE24EA94F12C7BE4C72ED12C8091240104
:1018B000081770F0DF91CF911F910F91FF90EF907B
:1018C000DF90CF90BF90AF909F908F900C949F0827
:1018D000C02FD0E01C9FF0011D9FF00D1124E2529B
:1018E000FE4F91101CC01382128220912201CE0162
:1018F000820F911D9C01220F331F280F391F2E5C70
:101900003C4F1C9FF0011D9FF00D1124E252FE4F31
:101910004281618180810E9424080F5FC7CF2381AB
:10192000222379F12150238334818A2D821B3111A6
:1019300001C0822F1C9FF0011D9FF00D1124E25267
:10194000FE4F90913003899FC0011124B6010E947F
:1019500099276283211104C0332311F01482A382DA
:1019600022E02B1510F21C9FF0011D9FF00D112499
:10197000E252FE4F80912E03808380912F0381835A
:10198000B4CF0E946628823091400CF0AECF82E046
:101990008B1530F50E946628B7010E94AD271C9F69
:1019A000F0011D9FF00D1124E252FE4F808322E0D2
:1019B0002B15C8F40E94662820912F032695622FCC
:1019C00070E00E94AD27280F1C9FF0011D9FF00DB5
:1019D0001124E252FE4F21831282A382848285CF9A
:1019E00080912E03DCCF20912F03EECFEDE2F3E0C8
:1019F00080818E7F808360817181828193810E944A
:101A0000450810924F022FEF80E792E0215080406E
:101A10009040E1F700C000000C949F0860912D03F6
:101A2000669570E04BE050E085E291E00E947628F8
:101A3000892B19F481E080934F020E94981F9093A4
:101A4000480280934702089590912D0390FF35C07E
:101A50009170811128C0926090932D03662351F0FC
:101A600060912D0370912E0380912F03909130038C
:101A70000E94450860912D03669570E04BE050E0B0
:101A800085E291E00E947628892BA1F010924F0206
:101A900081E080934A024091300360912F0380914E
:101AA0002E030C943F0A8B3210F09465D5CF880F2B
:101AB000982BD2CF0E940E0DEBCF0895682F9091F6
:101AC0002D03969581E0890F8B3208F081E00C940C
:101AD000240D81E00C945E0D682F90912D03969556
:101AE0008FEF890F09F48AE20C94240D81E00C94A5
:101AF0006C0D61E00C94240DEDE2F3E080818160D7
:101B0000808386950C94790D80912D0380FD0C9433
:101B1000F60C0C947C0D60E00C94240D80914D0229
:101B200081112EC00E94AD1D811104C00E94511E62
:101B30000E9457080E94410860932D0370932E0362
:101B400080932F03909330036E7F61F40E945708B7
:101B50000E94410860932D0370932E0380932F03FE
:101B6000909330030E94320810924F0280912D030F
:101B700080FF03C086950E948B0D81E080934D020B
:101B800008950F931F93CF93DF9380914F02882383
:101B900009F49DC080914E02E0912D03E695E81B6B
:101BA000E09349028230C9F5F0E0ED52FD4FE49137
:101BB000CE2FD0E004EF18E080914A02882389F00C
:101BC00010924A020E94981F9E0120953095820F24
:101BD000931F909348028093470210924C021092F8
:101BE0004B0280914702909148020E94A41F8C17DB
:101BF0009D0708F46CC0E0914702F0914802CE0FB7
:101C0000DF1FD0934802C093470287E492E0F801B7
:101C1000DF91CF911F910F910994863049F4F0E044
:101C2000E053FD4FE491CE2FD0E008E019E0C4CF9F
:101C3000893051F4E695F0E0E353FD4FE491CE2F67
:101C4000D0E002E41AE0B8CF8F3051F4E695F0E02E
:101C5000E653FD4FE491CE2FD0E00FE71AE0ACCF72
:101C6000853149F4F0E0E953FD4FE491CE2FD0E007
:101C700009EF1AE0A1CFC8E2D0E00CE61BE0883102
:101C800009F49ACF833239F4E5ECF2E0C591D491AE
:101C900008E119E091CFC4EFD1E00CEF1BE08432F2
:101CA00009F48ACFC0EDD7E001E218E0853209F0EF
:101CB00083CF8E2F63E00E947F27E92FF0E0EE5361
:101CC000FD4FE491CE2FD0E009E31CE075CFDF910A
:101CD000CF911F910F910895FA01811101C0FB016D
:101CE0000994CF93DF93C82FD62F0E9466088C17D4
:101CF00040F00E9466088D1720F4DF91CF910C947C
:101D0000690D8C2FDF91CF910C94790D0F931F9358
:101D1000CF938C01FB01C281CC2309F465C00E94E2
:101D2000F81C8272F801E35CFC45E431F10538F4FB
:101D3000E451F74D0C94E3270E94840DC0E08C2FF2
:101D4000CF911F910F91089546E75DE069E67DE030
:101D50000E946C0EF3CF49E65DE066E77DE0F8CFC8
:101D600040E05AE063EF79E0F3CF43EF59E060E001
:101D70007AE0EECF4EE15AE06FE07AE0E9CF4FE053
:101D80005AE06EE17AE0E4CF4CE35AE06DE27AE0AB
:101D9000DFCF4DE25AE06CE37AE0DACF49E958E070
:101DA00062E878E0D5CF42E858E069E978E0D0CF42
:101DB00081E00E94790DC2CF65E082E00E94710E41
:101DC000BDCF68E086E0FACF6EE089E0F7CF64E14E
:101DD0008FE0F4CF67E185E1F1CF88E1EACF62E2FD
:101DE00089E1ECCF83E2E5CFC1E0A9CF879A41B387
:101DF0004F7751B35068EFB7F8949B01220F331F10
:101E0000260F371F280F391F2817390741F4EFBF56
:101E10008FE594E00197F1F700C000000895DC0120
:101E20006D91CD0178E051BB000000C067FF41BB60
:101E3000660F000000C000C000C041BB00C07A9522
:101E400091F7E2CF0F931F93CF93DF93C42FD22F3D
:101E5000FC0182818823C9F0409352020E94981F9E
:101E6000909351028093500280E28C0F883008F0EA
:101E700050C0C77081E001C0880FCA95EAF7DF91B2
:101E8000CF911F910F910C94DB14109152021413F7
:101E900035C080915002909151020E94A41F893B4D
:101EA000910560F5C0E2CD0F1D17B9F080E2810FFA
:101EB000883040F4177081E001C0880F1A95EAF766
:101EC0000E94E214C83048F481E09D2F977001C051
:101ED000880F9A95EAF70E94DB14802F0E94C8149D
:101EE000C830B8F4D77081E001C0880FDA95EAF7FE
:101EF000DF91CF911F910F910C94E21480E28C0F2F
:101F0000883038F4C77081E001C0880FCA95EAF7BD
:101F1000EFCFDF91CF911F910F9108950F939C0107
:101F2000CB01243F4CE5340759F1A8F4293DFCE5E9
:101F30003F0701F12A3D4CE53407D1F1283D3C45EE
:101F400091F406E221EE41EE68ED7CE50E94220F5D
:101F500080E00F910895263FFCE53F07E9F0B0F0DF
:101F6000273F3C45F9F0FC018281882339F110922A
:101F70005202EFCF07E225EE45EE69ED7CE5E6CFB4
:101F800006E221EE40EE64EF7CE5E0CF07E225EECD
:101F900044EE65EF7CE5DACF06E221EE42EE66EF35
:101FA0007CE5D4CF07E225EE46EE67EF7CE5CECFA9
:101FB00008E221E045EE6AED7CE5C8CF81E0C9CFBB
:101FC000CF93DF93EC01FB018281882309F419C1CF
:101FD000C230FCE5DF07C0F1C6319CE5D90730F01F
:101FE0009E012B5F3C452930310570F50E94C01DD4
:101FF0009093760380937503C031ECE5DE0709F416
:10200000CFC008F05BC0C8308CE5D80709F4B6C073
:1020100088F5C430ECE5DE0709F4A8C0C0F4C2308E
:102020008CE5D80709F49CC0809175038260C330A9
:10203000DC4509F498C080917503909176030E9465
:10204000CE1D0E94501780E0DF91CF9108958091BE
:1020500075038061C630ECE5DE0709F484C0809129
:1020600075038860C730DC4508F47DC08091750336
:10207000806279C0CC308CE5D80709F489C070F44F
:10208000809175038C60CA30ECE5DE0709F46BC003
:1020900008F478C0809175038E7F65C0CE308CE5E2
:1020A000D80709F479C0809175038B7FCF30DC4568
:1020B00008F459C0809175038F7E55C0CC3FECE584
:1020C000DE0709F457C030F5C3318CE5D80709F4B1
:1020D0006FC078F4C131ECE5DE0709F465C0C231A8
:1020E000DC4509F0A8CF0E945017809175038F77C7
:1020F0003AC0C5318CE5D80709F462C008F476C04F
:10210000809176038160CB3FDC4509F094CF8093CA
:10211000760391CFC115FDE5DF0709F44DC088F4C2
:10212000809176038D7FCE3F9CE5D90781F3809126
:1021300076038E7FCF3FDC4550F38091760383603A
:10214000E6CFC230FDE5DF0709F459C008F444C00A
:1021500080E0C330DD4509F06ECF0E94531E6BCF87
:102160008091750381608093750365CF80917503BD
:102170008460F9CF809176038260C9CF8091750326
:102180008064F1CF0E945017809175038068EBCF77
:10219000809175038D7FE7CF80917503877FE3CFB3
:1021A000809175038F7DDFCF809175038F7BDBCFAF
:1021B00080917503837FD7CF809176038C7FA7CFE3
:1021C0008091750382FB992790F921E0922790FB7B
:1021D00082F990FB83F9C7CF80917603982F909571
:1021E00091708E7F892B90FB81F991CF0E945017BF
:1021F00090917503892F97FB87F98058B4CF81E0C0
:10220000ACCF81E021CFCF93DF93EB0186319C45AA
:1022100011F50E94F81C9A81992399F08A7A91E02D
:1022200009F490E090935302811109C089E20E9461
:10223000D31C0E94441D80E0DF91CF91089585E377
:10224000F6CF80915302811104C089E20E94DA1C0A
:10225000F0CF85E3FBCF81E0EFCFCF939091640285
:10226000992321F0811116C010926402CF91089534
:10227000EC2FF0E0EE0FFF1FEC5AFD4F80819181B3
:102280000E948D030E94441DCF5F80916402C81795
:1022900078F3EACFC0E0F9CF089580913001882328
:1022A00099F080916502882379F08091690290917C
:1022B0006A02009749F00E94A41F4A9728F01092E2
:1022C000650281E00C942D11089510926502109220
:1022D000300110926A021092690281E00C942D1173
:1022E0008091300181110C94651181E0809330015F
:1022F00008955F926F927F928F929F92AF92BF925A
:10230000CF92DF92EF92FF920F931F93CF93DF93C1
:102310007C016B0110926602883F4CE59407C1F482
:10232000FB01C281CC2349F181E0809330018C2FE5
:10233000DF91CF911F910F91FF90EF90DF90CF90A1
:10234000BF90AF909F908F907F906F905F90089517
:10235000893FFCE59F0739F4FB01C281CC2369F07A
:102360000E946511E4CF8A3F9C4539F4FB01C2818C
:10237000CC2319F00E947011DACFD0913001C1E066
:10238000DD23A9F21092680210926702C0E055E0C6
:10239000752E88248394912C66246394009167029F
:1023A000109168020530110588F08091660288233B
:1023B00009F497C00E94981F90936A028093690263
:1023C00080E00E942D1181E0C827B1CF709EF001FE
:1023D000719EF00D1124EC5FFE4F808191813FEFE3
:1023E00020E0E22FF0E0EE0FFF1FE80FF91F45910C
:1023F0005491E416F50609F4322F452B11F02F5FA6
:10240000F0CF3F3FD1F4512CC529DD2351F0709E10
:10241000F001719EF00D1124EC5FFE4FD1E084813C
:102420008111D0E0D170809167029091680201968D
:102430009093680280936702B1CF50906502F601D5
:102440009281709EF001719EF00D1124EC5FFE4FA1
:102450008481540101C0AA0C3A95EAF79923E1F06E
:10246000A82AA482552079F2C40102C0880F991FBE
:102470002A95E2F70197A816190631F68281938111
:10248000009729F00E948D0360926602BDCF61E043
:10249000C8010E944C11F8CFA40102C0440F551F7F
:1024A0002A95E2F79A012150310982171306B9F4EF
:1024B00082819381009771F00E94A203709EF001C7
:1024C000719EF00D1124EC5FFE4FA0948481A82230
:1024D000A4829ACF60E0C8010E944C11EFCF512C2A
:1024E000EDCFC1110EC081E00E942D11DD2309F452
:1024F0006ACF10926A021092690281E080936502AD
:1025000062CFF6018281882309F45DCF8091650254
:10251000882309F458CF0E94981F90936A028093F1
:102520006902E0916402E83008F04DCF81E08E0F3F
:1025300080936402F0E0EE0FFF1FEC5AFD4FF18232
:10254000E08241CF9093700280936F020895E091F2
:102550006F02F0917002309721F00190F081E02D30
:10256000099480E00895E0916F02F0917002309735
:1025700099F020913D01222359F02091750327FF06
:1025800007C0DC012C9111962C93119725E02C9318
:102590000280F381E02D0994089520916D0230911D
:1025A0006E022817390771F090936E0280936D02C6
:1025B000E0916F02F0917002309721F00680F78170
:1025C000E02D0994089520916B0230916C02281738
:1025D000390771F090936C0280936B02E0916F0267
:1025E000F0917002309721F00084F185E02D09947C
:1025F000089585B7806885BF85B7806885BF0895D1
:10260000089508950C94001308950C9404130E94E7
:10261000F9120E9401130C94021381E008950C94A6
:102620000D13089508950E948F1F0E94AA060E940C
:1026300011200E948E0D0C940513AF92BF92CF9281
:10264000DF92EF92FF920F931F93CF93DF93CDB75B
:10265000DEB72A970FB6F894DEBF0FBECDBF0E943B
:1026600011130E9412130E94DD060E940F1388238B
:1026700009F45FC082E7A82E82E0B82E10E000E0E7
:10268000C02E802F0E948806E82EF501D1905F01B0
:10269000D81609F448C08091FC0281FD0E948E0684
:1026A00080E0FF24F394DE249D2D9F21B9F18E83D9
:1026B000CF82EF2081E009F480E088870E94981F94
:1026C0008160782F9A8789874E815F8168858A85A6
:1026D0000E94BB13F801EE58FD4F8081F826F0826E
:1026E0000E94C10D0E94A71290917102891791F169
:1026F0000E94A712809371022A960FB6F894DEBF4B
:102700000FBECDBFDF91CF911F910F91FF90EF9042
:10271000DF90CF90BF90AF900C9474048F5FFF0C4C
:10272000873009F0C1CF0F5F1F4F0630110509F048
:10273000A7CF8FEF89838A831B820E94981F8160B5
:10274000782F9D838C8349815A816B818D810E9472
:10275000BB13C6CF2A960FB6F894DEBF0FBECDBF0F
:10276000DF91CF911F910F91FF90EF90DF90CF906D
:10277000BF90AF900895CF93DF93CDB7DEB72B977F
:102780000FB6F894DEBF0FBECDBF4F835887698761
:102790007A878B871E821D8285E0FE013796DE01D7
:1027A000119601900D928A95E1F749815A816B81CA
:1027B0007C818D819E812B960FB6F894DEBF0FBE73
:1027C000CDBFDF91CF910C94EF19FC0180819181F5
:1027D0000C94A51CCF93C82F882309F488C0823895
:1027E000C1F40E94A71281FD82C089E30E94D31C1C
:1027F0000E94441D2FEF81EE94E0215080409040D4
:10280000E1F700C0000089E30E94DA1CCF910C942C
:10281000441D8338A1F40E94A71280FD68C083E59F
:102820000E94D31C0E94441D2FEF81EE94E02150A2
:1028300080409040E1F700C0000083E5E5CF843898
:10284000A1F40E94A71282FD52C087E40E94D31C0B
:102850000E94441D2FEF81EE94E021508040904073
:10286000E1F700C0000087E4CFCF8CEF8C0F813AF6
:10287000B8F48C2F0E94AF20811139C06C2F809149
:102880003101909132010E946C1E882329F08C2F17
:102890000E94DA1C0E94441D8C2F0E94D31CB6CFCC
:1028A00080E28C0F883048F4C77081E001C0880F47
:1028B000CA95EAF70E94FB1CA9CFEBE5EC0FE330C9
:1028C00040F4F0E0EB52FE4F808190E0CF910C9409
:1028D000CD12C85AC73158F4EC2FF0E0EE0FFF1FAD
:1028E000E955FE4F80819181CF910C94E312CF91F5
:1028F0000895882309F44BC0823871F40E94A7120E
:1029000081FF45C089E30E94D31C0E94441D89E3D6
:102910000E94DA1C0C94441D833859F40E94A712BB
:1029200080FF35C083E50E94D31C0E94441D83E5CF
:10293000EFCF843859F40E94A71282FF28C087E4A1
:102940000E94D31C0E94441D87E4E2CF9CEF980FA5
:10295000913AF0F290E2980F983050F4877091E03D
:1029600001C0990F8A95EAF7892F0E94011DD2CFE5
:102970009BE5980F933020F490E080E00C94CD120A
:10298000885A873120F490E080E00C94E312089597
:10299000CF93C82F0E94EA13C93349F42FEF87EE73
:1029A00093E0215080409040E1F700C000008C2F60
:1029B000CF910C947914882321F00E94FB1C0C9475
:1029C000441D0895882321F00E94011D0C94441D8C
:1029D0000895BF92CF92DF92EF92FF920F931F93D1
:1029E000CF93DF937C01D62FC72FFC010581029581
:1029F0000F70128111110E94181D0E94F11CD82E17
:102A0000882391F01123D1F08C2F807F803421F026
:102A100080E28D0F883090F082E00E948F1D0E942E
:102A2000F11C91E0D82ED926CC2EC2949FE0C92269
:102A3000EC2DF0E0E050F74D0C94E327D12CF4CFCF
:102A40000C2F0F70C07F11F00295007F1123A9F0A9
:102A5000002359F080E28D0F883010F0D11109C0A9
:102A6000802F0E94FB1C0E94441D8D2F0E94EA13A0
:102A700014C0802F0E940B1DF6CF8D2F0E94791459
:102A8000002359F080E28D0F883010F0D1112CC056
:102A9000802F0E94011D0E94441D2C2D2850330BB5
:102AA0002430310520F40E94A7120E947404DD2016
:102AB00009F48DC10E94ED1C80FD89C1F7011282CD
:102AC0000E94E71C0E94731BC7010E9408170E9406
:102AD000E71CDF91CF911F910F91FF90EF90DF9056
:102AE000CF90BF900C94941B802F0E94111DD3CFC8
:102AF000FC2FFF70BF2EC07FC03219F0B29480EF60
:102B0000B822DD2339F0D13019F1112361F100230E
:102B100021F1ABCF112381F0011106C00E942B1DC2
:102B20008B290E94DB14B9CF0130C1F70E942B1D05
:102B30008B290E94311DB1CF011106C00E943A1DA0
:102B40008B2D0E94E214A9CF013009F4A6CFF6CF55
:102B5000112329F0063008F0A0CF8B2DE2CF0530ED
:102B600008F09BCFEDCF002359F3D93349F42FEF71
:102B700037EE83E0215030408040E1F700C0000094
:102B80008D2F0E94791489CF8C2F8695869583701E
:102B900069F0813009F081CF8D2F9C2F9370111136
:102BA00002C090E080E00E94E31277CF8D2F9C2F2F
:102BB0009370111102C090E080E00E94CD126DCFA1
:102BC0008C2F837009F041C0111167CF4D2F4295B2
:102BD00046954770440F440F0D2F0F7010E030E002
:102BE00020E0042E04C0000F111F221F331F0A947F
:102BF000D2F760E070E0CB01D4FF0FC06FE070E06F
:102C000080E090E004C0660F771F881F991F4A95E7
:102C1000D2F76095709580959095C695C695C370CE
:102C2000602B712B822B932BC23049F058F4C130AA
:102C300019F00E94251B31CF0E94131B2ECF0E943A
:102C4000371B2BCF0E94111B28CF8695112311F023
:102C50008C2F8170882309F420CF4D2F4295469503
:102C60004770440F440F0D2F0F7010E030E020E04C
:102C7000042E04C0000F111F221F331F0A94D2F725
:102C800060E070E0CB01D4FF0FC06FE070E080E047
:102C900090E004C0660F771F881F991F4A95D2F7EE
:102CA0006095709580959095C695C695C370602B7C
:102CB000712B822B932BC23049F058F4C13019F09C
:102CC0000E94EA1BEACE0E94D81BE7CE0E94FC1BA2
:102CD000E4CE0E944D1BE1CECF70112329F08C2F42
:102CE0000E94731B8D2F1DCF8D2F0E94E2148C2FFD
:102CF0000E94941BD2CED23F89F160F4D03FC9F03C
:102D0000D13F29F1112309F442C00111AECE8C2F1D
:102D10008F7121C0D33F39F1D43FA1F7112369F15D
:102D2000CF718C2F0E94731B63E08C2F0E947A1D41
:102D3000B4CE112341F0053008F0AFCE8C2F8F7147
:102D40000E94B71BAACE063008F0A7CEF7CF8C2F73
:102D50008F71112369F20E94731B9FCE8C2F8F718C
:102D60001123C9F3C5CF112329F08C2F8F710E9435
:102D70005E1B93CE0E94591B90CE81E00E948F1D56
:102D8000023008F48ACE82E00E948F1D86CE002396
:102D900059F0D93309F0F4CE9FEFE7EEF3E091500C
:102DA000E040F040E1F7EACE8C2F8F71A1CF4C2F9D
:102DB0004F706D2FC7010E947C040E94891A6DCE4E
:102DC0004C2F4F706D2FC7010E947F0466CEDF919C
:102DD000CF911F910F91FF90EF90DF90CF90BF9018
:102DE00008950F931F93CF93DF93EC01688179814E
:102DF0008A810E94AF1C8C010E940E1C0E94101B35
:102E0000B801CE01DF91CF911F910F910C94E9147D
:102E1000CF93DF93EC018B819C81892B29F08881F2
:102E2000998189238F3F59F4DF91CF910895CE0185
:102E30000E94F116CE01DF91CF910C94FC03CE01DC
:102E40000E9425048111F3CF0E94F11C882361F3B5
:102E50008A81882349F382E0DF91CF910C948F1D02
:102E6000882321F00E940B1D0C94441D0895882393
:102E700021F00E94111D0C94441D08950E94181DFC
:102E80000E94281D0E94441D90E080E00E94CD1207
:102E900090E080E00C94E3120E94E11C0C943E1739
:102EA0000E94081D0C944C17E92FE295EF70E25038
:102EB000EE3070F4F0E0E05FF64D0C94E327803FD5
:102EC00019F020F4883E20F481E00895843FE1F376
:102ED00080E00895883EC0F3813FD1F7F5CF93FBA2
:102EE000882780F908950E94A51C0C945417CF934D
:102EF000DF9300D000D00F92CDB7DEB70F900F90C8
:102F00000F900F900F90DF91CF910895CF93DF93A3
:102F100000D000D000D0CDB7DEB726960FB6F8941B
:102F2000DEBF0FBECDBFDF91CF9108951F93CF932A
:102F3000DF93C091790216E080917A028C1304C06D
:102F4000DF91CF911F910895D0E01C9FF0011D9F4C
:102F5000F00D1124E558FD4F40815181628173814C
:102F6000848195810E9486172196C770E5CF409194
:102F7000AB025091AC026091AD027091AE028091B3
:102F8000AF029091B0020C94861720917902909133
:102F90007A0256E0291302C080E0089530E0529F83
:102FA000F001539FF00D1124E558FD4F7181761308
:102FB00006C07081781303C07281741304C02F5F40
:102FC0003F4F2770E7CF81E008951F93CF93DF93A2
:102FD0008091B002807FA9F48091AD02882389F0AE
:102FE00080917902C0917A026091AB027091AC023B
:102FF000A091AE02B091AF02D62FD72316E0C8132E
:1030000004C0DF91CF911F91089590E0109711F0C7
:10301000DF3F19F401968770F2CF189F9001199F36
:10302000300D1124F901E558FD4F41814713F2CFCE
:1030300040814613EFCF42814111ECCF438154814F
:103040004A1B5B0B493B510528F78091B0028F70FA
:1030500080618093B002F901E058FD4F80818F704C
:10306000806180838BEA92E00E940817DF91CF9104
:103070001F910C9496178F929F92AF92BF92CF920E
:10308000DF92EF92FF920F931F93CF93DF93CDB711
:10309000DEB761970FB6F894DEBF0FBECDBF8C01CF
:1030A00085E0F801DE011D9601900D928A95E1F709
:1030B000D801EC901196FC9011971296CC90129733
:1030C0008BEAA82E82E0B82E4091AE025091AF025A
:1030D0004115510509F461C19091AB022091AC02F8
:1030E000892F82238F3F09F458C113968D909C90AD
:1030F0001497D090AD02F401E41BF50BDD2009F428
:1031000019C18091B002382F307FE93BF10508F0FA
:10311000D0C0311189C0DC2C2F1126C09E1124C0D3
:10312000C11022C08F7080618093B0020E94B717D7
:10313000C5010E9408178091B002D80115968C93A2
:103140008D2D61960FB6F894DEBF0FBECDBFDF9117
:10315000CF911F910F91FF90EF90DF90CF90BF9094
:10316000AF909F908F9008958114910429F08F2D36
:103170008E218F3F09F030C180E080FF15C04C2DBB
:103180006F2D8E2D0E94C517882371F08BEA92E077
:103190000E94081786E0EBEAF2E0DF011D928A95B3
:1031A000E9F70E94B7173EC0892829F08F2D8E219C
:1031B0008F3F09F00EC180E0B82FB170AB2E80FFB9
:1031C00029C04C2D6F2D8E2D0E94C517B82E811150
:1031D00021C0ED86FE868D859E850E94A51C292F27
:1031E00022952F70223050F0243078F49F7051F0E7
:1031F000F8019581907F31F4DB2CA2CF9F7011F004
:103200008823D1F3805E8830B8F3C8010E94081784
:10321000BA2CF2CFCC2009F493CF8091B002816018
:103220008093B002D12C8CCF2F1114C09E1112C0EC
:10323000C11010C015968C93C8010E94081786E033
:10324000F801ABEAB2E001900D928A95E1F70E9495
:10325000B71776CFED86FE868D859E850E94731703
:10326000882319F1CC2009F18091B002803270F0EE
:103270002091AB023091AC0238872F8319869B8650
:103280008A868C87CE0107960E94081786E0F8018F
:10329000ABEAB2E001900D928A95E1F70E94E51742
:1032A0000E94B717DD24D3944BCFC8010E940817A2
:1032B000F9CF311112C0782D998A888AA7016C2D17
:1032C00089890E9477178BEA92E00E94081786E0AE
:1032D000F50111928A95E9F764CF2F110FC09E1165
:1032E0000DC0C1100BC015968C93C8010E94081721
:1032F00086E0F50111928A95E9F722CFED86FE86E8
:103300008D859E850E947317882379F2CC2069F2FF
:103310008091B002803208F4B9CF2091AB02309195
:10332000AC023A8329831B829D828C828E83CE01DC
:103330000196AACFE93BF10510F5DC2CCC2009F46D
:10334000B4CF2F110BC09E1109C086E0F801ABEA83
:10335000B2E001900D928A95E1F7F2CEED86FE86FD
:103360008D859E850E947317811190CF8091B00248
:1033700081608093B002C8010E940817E1CE782DC9
:10338000998A888AA7016C2D89890E94771786E01F
:10339000D5011D928A95E9F75ACFCC2009F485CF43
:1033A000ED86FE868D859E850E947317D82E882314
:1033B00009F47BCF86E0F801ABEAB2E001900D9210
:1033C0008A95E1F78BEA92E00E94E5130E94E517E7
:1033D0003ECF81E08C25F0CE81E08C25CECE1F93B0
:1033E000CF93DF93CDB7DEB72C970FB6F894DEBF3F
:1033F0000FBECDBF4F83588769877A878B879C879D
:10340000CE0107960E943B18882369F08A859B8528
:10341000892B39F04F815885842F85238F3F09F000
:1034200071C016E05FC086E0FE013796DE0111969E
:1034300001900D928A95E1F78A859B85892B89F306
:1034400088859F8189238F3F61F320917A0230E044
:10345000C90101968770992740917902481719068A
:1034600071F40E94501710927A021092790286E04D
:10347000EBEAF2E0DF011D928A95E9F7D2CF96E000
:10348000929FD001939FB00D1124A558BD4FFE010E
:10349000319601900D929A95E1F780937A020E94FD
:1034A0009617BFCF819FC001112485589D4F0E9460
:1034B0003B188823E9F0E09179021E9FF001112466
:1034C000E558FD4F408151816281738184819581EE
:1034D0000E9486178091790290E001968770992763
:1034E000809379028091790290917A028913DACFE0
:1034F0002C960FB6F894DEBF0FBECDBFDF91CF91F3
:103500001F91089569857A858B859C850E94861711
:1035100088CFEF92FF920F931F93CF93DF938C018D
:10352000892B81F0F12CEE24E394E8012196F80137
:103530008491843770F4843008F05FC08130B1F03A
:103540008230A1F1DF91CF911F910F91FF90EF9009
:103550000895853709F44CC008F43DC09CE7980FE6
:10356000903780F78F770E94791449C00E5F1F4F04
:10357000FE01849190E2980F983060F48770FE2DE0
:1035800001C0FF0F8A95EAF78F2F0E941B1D0E9432
:10359000441D02C00E94EA138F2D815030F2EFE9E2
:1035A000FFE03197F1F700C00000F7CF0E5F1F4F2B
:1035B000FE01849190E2980F983050F48770FE2DB0
:1035C00001C0FF0F8A95EAF78F2F0E94211DDFCFE0
:1035D0000E947914E1CF0E5F1F4FFE01C491C150CC
:1035E000D8F28FE99FE00197F1F700C00000F7CF14
:1035F0000E5F1F4FFE01F490CFCF0E94EA138E01A1
:10360000CBCF08950C94011B0E94021B6093D30240
:103610007093D4028093D5029093D6020C943E17F7
:1036200008950C94041B0F931F930091D3021091E3
:10363000D4022091D5023091D602602B712B822BBF
:10364000932B1F910F910C94041B0F931F930091C8
:10365000D3021091D4022091D5023091D60260237A
:103660007123822393231F910F910C94041B0F93BA
:103670001F930091D3021091D4022091D502309172
:10368000D60260277127822793271F910F910C94F0
:10369000041B0C94011B0C94491B0E944B1B609350
:1036A000CF027093D0028093D1029093D2020C94F7
:1036B0003E1760E070E0CB010C944D1B0F931F93FD
:1036C00041E050E060E070E08A019B0104C0000F1F
:1036D000111F221F331F8A95D2F7C901B8011F910C
:1036E0000F910C944D1B0F931F9341E050E060E04D
:1036F00070E004C0440F551F661F771F8A95D2F7EC
:103700008091CF029091D002A091D102B091D202CB
:103710008A019B01082B192B2A2B3B2BC901B801CD
:103720001F910F910C944D1B0F931F9341E050E09C
:1037300060E070E004C0440F551F661F771F8A9534
:10374000D2F7CB01BA016095709580959095009164
:10375000CF021091D0022091D1023091D202602389
:103760007123822393231F910F910C944D1B0F9370
:103770001F9341E050E060E070E004C0440F551F2B
:10378000661F771F8A95D2F78091CF029091D00261
:10379000A091D102B091D2028A019B01082719277A
:1037A0002A273B27C901B8011F910F910C944D1B8B
:1037B0000F931F930091CF021091D0022091D1025C
:1037C0003091D202602B712B822B932B1F910F9182
:1037D0000C944D1B0F931F930091CF021091D002B8
:1037E0002091D1023091D20260237123822393234E
:1037F0001F910F910C944D1B0F931F930091CF02BB
:103800001091D0022091D1023091D202602771270D
:10381000822793271F910F910C944D1B089527E049
:10382000929F800D1124982F977041E001C0440FA2
:103830009A95EAF786958695869595E0899FF00199
:103840001124EF54FD4F90E080E070E05191DF01D2
:1038500011979B01082E02C0369527950A94E2F72E
:10386000217021952527242325272C930196853027
:10387000910561F7089527E0929F800D1124982FFC
:10388000977086958695869525E0829FF001112494
:10389000EF54FD4F50E040E080E0219130E0092EF0
:1038A00002C0369527950A94E2F721703327042E3B
:1038B00001C0220F0A94EAF7822B4F5F5F4F453019
:1038C000510559F70895BF92CF92DF92EF92FF9280
:1038D0000F931F93CF93DF938C01C090CF02D090B2
:1038E000D002E090D102F090D2028091D302909168
:1038F000D402A091D502B091D602C82AD92AEA2AC8
:10390000FB2ACFE1D0E0BC2ED701C6010C2E04C0AB
:10391000B695A795979587950A94D2F780FD0EC026
:10392000219788F7B12C8B2DDF91CF911F910F91AB
:10393000FF90EF90DF90CF90BF900895B8018C2F4B
:103940000E949C04019761F3EECFCF93DF93EC01CB
:103950000E94631CBE01DF91CF910C949C041F93C5
:10396000CF93DF93EB0190917802992331F0CB0153
:10397000DF91CF911F910C94A51C882379F0CB0186
:103980000E94631C182F682FCE010E940F1CBE01DD
:10399000812FDF91CF911F910C949C04CB010E9449
:1039A0003B1C182FF4CF682F809131019091320188
:1039B0000C94EC1E682F80913101909132010C948F
:1039C000F71E80913101909132010C94021F809179
:1039D000D70285958595859508958091D702877042
:1039E00008959091D702977081E009F480E00895DE
:1039F0008091FB0208959091FB02892B8093FB023A
:103A0000089580959091FB0298239093FB0208956E
:103A10001092FB0208959091FA02892B8093FA028A
:103A2000089580959091FA0298239093FA02089550
:103A30001092FA0208959091F902892B8093F9026D
:103A4000089580959091F90298239093F902089532
:103A50001092F90208958091D802089508950C9467
:103A60002E1D9091D802981721F08093D8020C94C3
:103A70002F1D08958091D802882329F01092D80232
:103A800080E00C942F1D0895E0913101F0913201F6
:103A90008091FB028083E0913101F09132018081BD
:103AA0009091FA02892B8083E0913101F0913201EB
:103AB00080819091F902892B80839091D80299237B
:103AC00081F0E0913101F09132018081892B808376
:103AD00080913101909132010E94581E81110E9403
:103AE0003A1D80913101909132010C94B3120895E6
:103AF0000C94771D98E0899F90011124622B6093AC
:103B0000D7020E94731B8091D70285958595859574
:103B10000C94781D1092D70280E00C94781D90913F
:103B2000D702809589238093D702282F277071F4BC
:103B3000282F082E000C330B9217130639F08595A9
:103B4000859585950E94941B0C948A1D08956FEFAE
:103B50007FEF90E080E00C94B52890E080E00E9438
:103B6000912821E08C3E9E4F09F020E0822F08959D
:103B700082E090E00C94832883E090E00C9483280A
:103B8000CF9384E090E00E948328C82F81E290E0E8
:103B90000E948328982F8C2FCF910895CF93C92FFF
:103BA000682F84E090E00E9497286C2F81E290E0DB
:103BB000CF910C949728AB01BC018FE090E00C945E
:103BC000A928AB01BC0183E190E00C94A92860E036
:103BD00070E0CB010C94E11D60E070E0CB010E942D
:103BE000DB1D0C94E71D6CEE7EEF90E080E00E9400
:103BF000B52860E082E090E00E94972860E083E0D2
:103C000090E00E9497281092D3021092D402109252
:103C1000D5021092D60260E084E090E00E949728DE
:103C200060E081E290E00E94972860E085E090E00B
:103C30000E94972860E086E090E00E9497286FEF4E
:103C400087E090E00E94972840E050E0BA0188E0C9
:103C500090E00E94A92860E08DE090E00E94972803
:103C600040E050E0BA0188E190E00E94A92860E0BD
:103C700087E190E00E94972840E050E0BA018CE193
:103C800090E00E94A92860E080E290E00E949728DE
:103C900040E050E0BA0188E190E00E94A9280C942D
:103CA000EC1D0C94F31D682F8EE090E00C94972887
:103CB000FC01329680913D01882321F080917503AB
:103CC0009EE187FF96E080E0915008F408952191ED
:103CD0002223D1F38F5FF8CF662301F120913D01BC
:103CE0002223F1F02091750327FF1AC0462F469535
:103CF000469546954E3190F4677021E030E002C061
:103D0000220F331F6A95E2F7840F911DFC01828117
:103D100090E02823392381E0232B69F480E0089583
:103D2000FC01329608962191261721F0E817F90731
:103D3000D1F7F4CF81E008959C01FC0132969FEF0A
:103D400080E04191461751F09F3F19F4411101C0A5
:103D5000982F8F5F8630A9F79F3F09F40895290FA8
:103D6000311D97FD3A95F90162830895FC01329661
:103D700008962191261303C0DF0111971C92E817C2
:103D8000F907B9F70895E62FE695E695E695EE3141
:103D900068F4E80FF92FF11D677021E030E001C0F1
:103DA000220F6A95EAF78281822B82830895E62F9B
:103DB000E695E695E695EE3170F4E80FF92FF11DE2
:103DC000677021E030E001C0220F6A95EAF7209584
:103DD000828128232283089520913D01222329F006
:103DE0002091750327FD0C94C31E0C949C1E2091FA
:103DF0003D01222329F02091750327FD0C94D71E45
:103E00000C94B61EFC01329680913D01882351F03E
:103E10008091750387FF06C08EE1DF011D928A95B0
:103E2000E9F7089586E0F9CF089508950C94151FD9
:103E30000E94161F80917B03843049F11092FD028D
:103E400088E190E020E40FB6F894A8958093600094
:103E50000FBE2093600080E00E9474040E94161F31
:103E600083B7817F846083BF83B7816083BF789489
:103E7000889583B78E7F83BF0FB6F894A8958091FD
:103E80006000886180936000109260000FBE08950A
:103E90000895CF930E94141F0E94DD060E94481FC0
:103EA000C0E08C2F0E948806811105C0CF5FC6300C
:103EB000C1F7CF91089581E0FCCF08950C945D1F68
:103EC0000E9450170E94A7120E9474040C945E1F57
:103ED0001F921FB61F9211248F939F93AF93BF938E
:103EE0008091FD02811113C0809171039091720342
:103EF000A0917303B09174034196A11DB11D8093ED
:103F0000710390937203A0937303B0937403BF91F2
:103F1000AF919F918F911F901FBE1F90189582E0C7
:103F200084BD93E095BD9AEF97BD80936E00089590
:103F30002FB7F8948091710390917203A09173034D
:103F4000B09174032FBF08959C014FB7F8948091EE
:103F5000710390917203A0917303B09174034FBFEA
:103F6000821B930B089578941F921FB61F92112401
:103F70008F939F93AF93BF9380917103909172033E
:103F8000A0917303B09174030196A11DB11D80939C
:103F9000710390937203A0937303B0937403BF9162
:103FA000AF919F918F911F901FBE1F90189581E038
:103FB0008093E00080E28093D8001092C9008FE1E6
:103FC0009EE40197F1F700C0000087E090EBDC0170
:103FD0008093840390938503A0938603B093870313
:103FE00088E19CE00FB6F894A895809360000FBE1E
:103FF00090936000FFCF0C94A71D0E94DD068FE315
:104000009CE90197F1F700C000000E94DD0680E006
:104010000E94880680FF04C00E94FB1F0C94D71FDB
:1040200008950E94AD1D811102C00E94511E0E9480
:10403000B81D8093FC020E94C01D9093760380936C
:1040400075030E94BC1D682F70E090E080E00E9424
:10405000111B6091CF027091D0028091D10290919A
:10406000D2020C944B1B0F931F9341E050E060E091
:1040700070E08A019B0104C0000F111F221F331F33
:104080008A95D2F7C901B8010E94111B1F910F91A7
:104090000C945017EBEFE80FEF3308F05AC0F0E044
:1040A000E25EF64D0C94E3270E94511E81E00895D4
:1040B0008091FC02807F8093FC0281E08093FE026D
:1040C00008950E941604F2CF9091FC02892F8E7FF2
:1040D00090FF81608093FC0280FDE8CF817F809318
:1040E000FC02E4CF9091FC02892F8D7F91FF8260CA
:1040F0008093FC0281FFDACF8091FC028160EFCFD8
:104100009091FC02892F8B7F92FF84608093FC0248
:1041100082FDF2CFCBCF9091FC02892F877F93FF56
:1041200088608093FC0283FDE7CFC0CF0E945017C8
:1041300090917503892F97FB87F9805880937503B9
:10414000B5CF80E00E943320B1CF8953FBCF8D5192
:10415000F9CF80E0089580E008950C94AB20CF93D0
:10416000C82F8091FE02882331F0813099F010929F
:10417000FE0280E00DC00E94F81C8232D1F78C2F25
:104180000E94AB20811116C08C2F0E944A208170A2
:10419000CF9108950E94F81C823289F38C2F0E94DF
:1041A000AD20811105C0C43171F038F4CB3079F7FE
:1041B00081E0EDCF81E090E0EACFC93221F0C83351
:1041C000B9F380E0E4CF1092FE02FBCF80911F0391
:1041D00008950895CF93DF9300D00F92CDB7DEB747
:1041E00090917B03943019F589837B836A8382E005
:1041F0008093E9008FEF9091E800815095FD06C013
:1042000095ED9A95F1F700008111F5CF8091E800C6
:1042100085FF0DC050E040E063E070E0CE01019604
:104220000E94EE228091E8008E778093E8000F9044
:104230000F900F90DF91CF910895BC0184E00C9412
:10424000EA20BC0183E00C94EA20CF93DF93EC01D9
:1042500080913D018823B1F18091750387FF32C0C1
:1042600060E282E08093E9008FEF9091E800815056
:1042700095FD06C095ED9A95F1F700008111F5CFF7
:104280008091E80085FF1BC080913D0170E050E007
:1042900040E0811104C050E040E068E070E0CE01F1
:1042A0000E94EE228091E8008E778093E80080E201
:1042B000FE01AFEFB2E001900D928A95E1F7DF9138
:1042C000CF91089568E081E0CDCF80917A0381118C
:1042D00009C00E947E240E94DB248091E200846059
:1042E0008093E200089510927A0308950895089546
:1042F0000C94601F42E061EC81E00E94FA2342E2EC
:1043000061EC82E00C94FA2380917D03833009F400
:104310005FC030F48130C1F1823009F49BC0089550
:104320008A3009F487C08B3009F46DC0893009F0F8
:104330004EC080917C03813209F049C08091800396
:1043400090918103029708F042C08091E800877F36
:104350008093E8008091E80082FF35C09091F300DF
:104360008091F200029729F48091F1008B7F8130D7
:1043700021F48091F10080931F038091E8008B77F6
:104380008093E8000C942E2480917C03813AF9F408
:104390008091E800877F8093E8008091800390916E
:1043A0008103892B61F460E28FEF92E070E00E945C
:1043B0003D238091E8008B778093E800089560E0CA
:1043C00090E080E0F3CF80917B038111C3CF08950B
:1043D00080917C03813AD9F7809180039091810389
:1043E000892BA9F78091E800877F8093E80080916E
:1043F000E80080FFFCCF80913D018093F100809127
:10440000E8008E77BDCF80917C03813201F78091E7
:10441000800390918103892BD1F68091E800877FFA
:104420008093E8000E942E2480917E0380933D01BA
:104430000C94501780917C03813249F68091E800FA
:10444000877F8093E8000E942E2480917F038093D1
:104450002003089580917C03813A09F0B8CF8091C0
:10446000E800877F8093E8008091E80080FFFCCF20
:1044700080912003C2CF84B7877F84BF0FB6F894A2
:10448000A895809160008861809360001092600020
:104490000FBE80E890E00FB6F8948093610090938F
:1044A00061000FBE0E9407130E947E240E94DB243D
:1044B0008091E20084608093E20078940E946427F7
:1044C0000E94131383E391E00E94A21280917B0368
:1044D000853039F00E941D130E9411130E9412139F
:1044E000F5CF0E94181F80917903882379F30E94E9
:1044F000491F882359F30E94D822E8CF0C948022C8
:10450000292F33272330310519F168F42130310583
:1045100009F444C02230310509F445C090E080E040
:1045200030E020E025C02132310549F12232310549
:10453000A9F780E490E02AED35E061157105C1F03E
:104540008DE690E02DE635E06130710589F0E6CF2B
:1045500099278130910581F0009729F00297F1F6B3
:10456000ECEDF4E002C0ECE1F5E0849190E09F0115
:10457000FA01318320830895E8EFF4E0F6CF89E073
:1045800090E022E335E06115710591F389E090E058
:104590002BE435E06130710559F3C0CF82E190E042
:1045A0002BE535E0E5CF8BE390E020E235E0E0CF8E
:1045B00080E189BD82E189BD09B400FEFDCF809113
:1045C000D8008F7D8093D8008091E0008260809336
:1045D000E0008091E00081FDFCCF0895AF92BF9292
:1045E000CF92DF92FF920F931F93CF93DF936C01D3
:1045F000EB018A010E944D24F82E811123C0011580
:10460000110539F0F80180819181C81BD90BC80EC2
:10461000D91EB12CA12C2097A9F08091E80085FD2E
:1046200022C08091E8008E778093E8000115110583
:10463000A1F0F80180819181A80EB91EB182A082FB
:1046400085E0F82E8F2DDF91CF911F910F91FF9074
:10465000DF90CF90BF90AF9008950E944D248823A3
:10466000D1F2F82EEFCFF60181916F018093F10026
:104670002197FFEFAF1ABF0ACECFFC0180918203D2
:104680009091830386179707A0F06115710529F4AF
:104690009091E8009E779093E80090E06115710595
:1046A00051F4911108C08091E80082FF34C080E08D
:1046B0000895BC01F2CF80917B038823C1F185303E
:1046C000C1F18091E80083FD30C08091E80082FD57
:1046D000EACF8091E80080FFE1CF8091F300209144
:1046E000F200382F6115710519F02830310558F0A6
:1046F00091E02830310509F090E02091E8002E7714
:104700002093E800CBCF81918093F1006150710933
:104710002F5F3F4FE7CF80917B03882341F08530A7
:1047200041F08091E80083FFBECF81E0089582E0F0
:10473000089583E00895FC018091820390918303A2
:1047400086179707A0F06115710529F48091E8009C
:104750008E778093E80090E06115710551F4911116
:1047600008C08091E80082FF35C080E00895BC0158
:10477000F2CF80917B038823C9F18530C9F1809104
:10478000E80083FD31C08091E80082FDEACF80918E
:10479000E80080FFE1CF8091F3002091F200382FF4
:1047A0006115710519F02830310558F091E0283075
:1047B000310509F090E08091E8008E778093E80061
:1047C000CBCF84918093F1003196615071092F5FB6
:1047D0003F4FE6CF80917B03882341F0853041F045
:1047E0008091E80083FFBDCF81E0089582E00895C5
:1047F00083E00895982F973028F08F708093E90018
:1048000081E008959093E900242F762F50E09817C7
:1048100031F07091EC002091ED005091F00021FDFD
:1048200002C09F5FE8CF3091EB003E7F3093EB00FA
:104830003091ED003D7F3093ED003091EB00316021
:104840003093EB007093EC002093ED005093F00058
:104850002091EE0027FDE5CF80E0089580917C0354
:1048600087FF13C08091E80082FF06C08091E800B6
:104870008B778093E80004C080917B038111F2CF95
:10488000089580917B038823D9F38091E80080FF0D
:10489000F8CF8091E8008E77ECCF2091E400309142
:1048A000E50095E6A9012091EC00822F817020FFA0
:1048B00006C08091E80080FF06C080E00895209146
:1048C000E80022FD1AC080917B03882389F085309F
:1048D00089F08091EB0085FD0FC02091E4003091BC
:1048E000E50042175307F9F29150E1F684E008958C
:1048F00082E0089583E0089581E008950E94EC2409
:104900000E94F424E0EEF0E0808181608083E8ED95
:10491000F0E080818F77808319BCA7EDB0E08C91A7
:104920008E7F8C9380818F7E808310927A0308958E
:104930000F931F93CF93DF930E94EC240E94F424E3
:10494000C8EDD0E088818F778883888180688883EC
:1049500088818F7D888319BC10927B031092770326
:10496000109279031092780300EE10E0F801808134
:104970008B7F808388818160888342E060E080E073
:104980000E94FA23E1EEF0E080818E7F8083E2EEE8
:10499000F0E0808181608083808188608083F8017D
:1049A00080818E7F8083888180618883DF91CF9131
:1049B0001F910F910895E8EDF0E080818F7E808354
:1049C000E7EDF0E080818160808384E082BF81E058
:1049D00080937A030C949824E8EDF0E080818E7F38
:1049E00080831092E20008951092DA001092E100A4
:1049F00008951F920F920FB60F9211242F933F9399
:104A00004F935F936F937F938F939F93AF93BF93D6
:104A1000EF93FF938091E10082FF0BC08091E20051
:104A200082FF07C08091E1008B7F8093E1000E94AC
:104A300063278091DA0080FF19C08091D80080FF41
:104A400015C08091DA008E7F8093DA008091D900C2
:104A500080FF96C080E189BD82E189BD09B400FE76
:104A6000FDCF81E080937B030E9465218091E1006E
:104A700080FF19C08091E20080FF15C08091E200A4
:104A80008E7F8093E2008091E20080618093E2005B
:104A90008091D80080628093D80019BC85E0809313
:104AA0007B030E9477218091E10084FF2BC08091DD
:104AB000E20084FF27C080E189BD82E189BD89B51C
:104AC000982F917080FFFBCF8091D8008F7D8093CD
:104AD000D8008091E1008F7E8093E1008091E20018
:104AE0008F7E8093E2008091E20081608093E200FB
:104AF00080917703882309F449C084E080937B0385
:104B00000E9478218091E10083FF29C08091E2001A
:104B100083FF25C08091E100877F8093E10082E0E0
:104B200080937B03109277038091E1008E7F8093C6
:104B3000E1008091E2008E7F8093E2008091E200AC
:104B400080618093E20042E060E080E00E94FA230E
:104B50008091F00088608093F0000E947621FF91A0
:104B6000EF91BF91AF919F918F917F916F915F91E5
:104B70004F913F912F910F900FBE0F901F9018955E
:104B800019BC10927B030E94732170CF8091E300C7
:104B900087FD93E090937B03B3CF1F920F920FB6E4
:104BA0000F9211242F933F934F935F936F937F93B3
:104BB0008F939F93AF93BF93CF93DF93EF93FF9325
:104BC000D091E900DF708091EC00C82FC17080FDAA
:104BD000C0E81092E9008091F000877F8093F00098
:104BE00078940E9411261092E9008091F00088606C
:104BF0008093F000CD2BCF70C093E900FF91EF912F
:104C0000DF91CF91BF91AF919F918F917F916F91E4
:104C10005F914F913F912F910F900FBE0F901F907A
:104C200018951F93CF93DF93CDB7DEB7AA970FB632
:104C3000F894DEBF0FBECDBF8CE793E02091F1006A
:104C4000FC012193CF01F3E084389F07B9F70E945C
:104C500084218091E80083FF1EC180917C039091A4
:104C60007D039A3008F017C1E92FF0E0E35AF64DC2
:104C70000C94E327803899F0823809F00CC18091B8
:104C800080038F70873008F006C18093E90080911F
:104C9000EB0085FB882780F91092E90006C080911F
:104CA000780390917903911182609091E800977F49
:104CB0009093E8008093F1001092F1008091E80059
:104CC0008E77E5C0882309F4D3C0823009F0E3C0B1
:104CD00080917E038111D6C0809180038F702FEF69
:104CE000280F263008F0D7C08093E9002091EB0010
:104CF00020FFC8C0933031F48091EB008062809334
:104D0000EB00C0C09091EB0090619093EB0021E02C
:104D100030E001C0220F8A95EAF72093EA00109252
:104D2000EA008091EB008860EACF8111B4C0109155
:104D30007E031F778091E3008078812B8093E300CE
:104D40008091E800877F8093E8000E942E24809164
:104D5000E80080FFFCCF8091E30080688093E3004F
:104D600082E0111183E080937B0395C080588230EC
:104D700008F091C080917E0390917F038C3D23E0E9
:104D80009207A1F583E08A838AE289834FB7F8947A
:104D9000DE01139620E03EE051E2E32FF0E0509375
:104DA0005700E49120FF03C0E295EF703F5FEF7082
:104DB0008E2F90E0EA30C0F0C7968D939D932F5FC1
:104DC000243159F74FBF8091E800877F8093E80036
:104DD0006AE270E0CE0101960E943D238091E800D6
:104DE0008B778093E80057C0C096E7CF609180032F
:104DF00070918103AE014F5F5F4F0E947E22BC0124
:104E0000892B09F448C09091E800977F9093E800BF
:104E100089819A810E949B23E1CF8038E1F58091BE
:104E2000E800877F8093E800809177038093F1000A
:104E300045CF811130C090917E03923060F5809112
:104E4000E800877F8093E800909377030E942E24E8
:104E500080917703882311F084E005C08091E300FE
:104E600087FDFACF81E080937B030E947A2113C0F3
:104E700080917E03813079F481E0933009F080E005
:104E8000809379031092E9008091E800877F8093F6
:104E9000E8000E942E248091E80083FF0AC08091E0
:104EA000E800877F8093E8008091EB008062809328
:104EB000EB00AA960FB6F894DEBF0FBECDBFDF9110
:104EC000CF911F9108950895CF9380917B038823FC
:104ED000A1F0C091E900CF709091EC00892F817012
:104EE00090FD80E8C82B1092E9008091E80083FDD6
:104EF0000E941126CF70C093E900CF910895991BAD
:104F000079E004C0991F961708F0961B881F7A95C0
:104F1000C9F78095089587FB082E062687FD8195A1
:104F200067FD61950E947F270EF4919507FC81959E
:104F30000895AA1BBB1B51E107C0AA1FBB1FA617E0
:104F4000B70710F0A61BB70B881F991F5A95A9F732
:104F500080959095BC01CD01089597FB072E16F41E
:104F6000009407D077FD09D00E94992707FC05D04F
:104F70003EF4909581959F4F0895709561957F4F70
:104F80000895A1E21A2EAA1BBB1BFD010DC0AA1F8A
:104F9000BB1FEE1FFF1FA217B307E407F50720F0A2
:104FA000A21BB30BE40BF50B661F771F881F991F1D
:104FB0001A9469F760957095809590959B01AC0166
:104FC000BD01CF010895EE0FFF1F0590F491E02D74
:104FD00009940E94F127332312F48A1B9B0B0C9433
:104FE0000228A29FB001B39FC001A39F700D811D35
:104FF0001124911DB29F700D811D1124911D0895E2
:105000000E94F127B7FF0895821B930B08950E9419
:10501000F127A59F900DB49F900DA49F800D911D29
:1050200011240895B7FF0C9407280E940728821BBB
:10503000930B08958F929F92AF92BF92CF92DF927F
:10504000EF92FF92CF93DF93EC01688179818A819F
:105050009B81611571058105910521F464E279ED6B
:105060008BE597E02DE133EF41E050E00E94CB2843
:1050700049015A019B01AC01A7EAB1E40E9407284B
:105080006B017C01ACEEB4EFA50194010E941528E0
:10509000DC01CB018C0D9D1DAE1DBF1DB7FF03C0F4
:1050A0000197A109B04888839983AA83BB839F771E
:1050B000DF91CF91FF90EF90DF90CF90BF90AF90B6
:1050C0009F908F9008950E941A28089580E091E0A3
:1050D0000E941A280895B0E0A0E080930001909308
:1050E0000101A0930201B09303010895FC01415016
:1050F000504030F001900616D1F73197CF01089556
:10510000882799270895F999FECF92BD81BDF89A15
:10511000992780B50895A6E1B0E044E050E00C94F2
:10512000BD28A8E1B0E042E050E00C94BD28262F55
:10513000F999FECF92BD81BDF89A019700B402168D
:1051400039F01FBA20BD0FB6F894FA9AF99A0FBE3B
:1051500008950396272F0E9498280E949728252FAC
:105160000E949828242F0C9498280196272F0E949B
:1051700098280C949728DC01CB01FC01F999FECF0B
:1051800006C0F2BDE1BDF89A319600B40D924150CF
:105190005040B8F70895052E97FB1EF400940E9426
:1051A000E22857FD07D00E94C12707FC03D04EF428
:1051B0000C94E22850954095309521953F4F4F4FE4
:1051C0005F4F089590958095709561957F4F8F4FB3
:1051D0009F4F0895F894FFCF9C0EA40EAB0EB00E17
:1051E000B50EBA0EBF0EC40EC90ECE0ED30ED80E1B
:1051F000DC0EE10EE40EE70EEA0EED0EEF0EF20EFF
:105200002015201578157815C4154D154D154D151B
:10521000E0156C167B167B16D7164D154D15E0164E
:105220005F175F17681768176A1768176817681796
:105230005F175F176F17681768176F17612058207F
:1052400064205620A920A9205620A920A92080202A
:10525000A9208B209620A920A920A920A92056208A
:10526000A920A9205620A9207220A920A920A72082
:10527000A720A720A720A720A720A720A720A720F6
:10528000A120A92061205420A920A920A920A9207B
:10529000A920A920A920A920A920A920A120A920CE
:1052A000A9205620A920A520A520A520A520A5201D
:1052B000A520A520A520A520A1203A2662264B27BF
:0E52C00062264B279526B6264B270D27192769
:1052CE0001000000C4002A0000BE002A0000B80041
:1052DE002B0000B200290000AC004C0000010102BE
:1052EE00001500151501191A1B1C1D1E1F20212249
:1052FE0001D902E6202521E92021211D2101E2000C
:10530E00E900EA00B500B600B700CD008301CC007D
:10531E008A0192019401210223022402250226020F
:10532E0027022A02B300B4006F007000818283341A
:10533E009392F535F697F49466C6919000010202A9
:10534E0002020606060909090909090F0F0F0F0FB8
:10535E000F151515181919191919191919191923BC
:10536E0024252525252525E200E900EA00B500B60D
:10537E0000B700CD008301CC008A01920194012177
:10538E0002230224022502260227022A02B300B4B7
:08539E00006F007000818283A2
:00000001FF
