:100000000C94BA020C9401030C9401030C940103A8
:100010000C9401030C9401030C9401030C94010350
:100020000C9401030C9401030C94C6250C9498269F
:100030000C94221E0C9401030C9401030C940103F4
:100040000C9401030C9401030C9401030C94010320
:100050000C9401030C946F1E0C9401030C94010387
:100060000C9401030C9401030C9401030C94010300
:100070000C9401030C9401030C9401030C940103F0
:100080000C9401030C9401030C9401030C940103E0
:100090000C9401030C9401030C9401030C940103D0
:1000A0000C9401030C9401030C940103FA0DFD0D53
:1000B000050E0A0E0F0E140E190E1E0E230E280E1C
:1000C0002D0E320E340E370E3A0E3D0E400E430EFC
:1000D000450E4A0E8D138D13BF13BF130C142A1433
:1000E0004B154B153514CA14DB14DB143B154B159B
:1000F0004B154415EB15EB15FD15FD15F415FD1508
:10010000FD15FD15EB15EB15F915FD15FD15F9158B
:1001100005272C2724282C27242878279B272428C8
:10012000F227012814001A000800150017001C000F
:10013000180004681664076109620A000B000D725A
:100140001D001B0006001900050011001000E00052
:10015000E200E3002A002C41E600E7000C00120058
:1001600013003600E400000000000E710F74280038
:1001700037000000000000001E001F0020002100CA
:100180002200230024001E021F022002210222025C
:10019000230224022F022F0026022D022702300004
:1001A0003002C35CC45C01000100010001000100D9
:1001B0002500260027003300010000000000250272
:1001C0002E002D00340000000000000032190A004B
:1001D000047F3F1F643214643214783C1E1E140ADC
:1001E000052223252628292A2C2D2F303233353677
:1001F000383A3B3D3E4042434547494A4C4E5051B8
:10020000535557595A5C5E6062646668696B6D6FDE
:1002100071737577797B7D7F81838587898A8C8EE1
:1002200090929496989A9C9E9FA1A3A5A7A8AAACE9
:10023000AEAFB1B3B4B6B8B9BBBCBEBFC1C2C3C523
:10024000C6C7C9CACBCCCDCED0D1D2D2D3D4D5D6C5
:10025000D7D7D8D9D9DADADBDBDBDCDCDCDCDCDDF8
:10026000DDDDDDDCDCDCDCDCDBDBDBDADAD9D9D8DC
:10027000D7D7D6D5D4D3D2D2D1D0CECDCCCBCAC974
:10028000C7C6C5C3C2C1BFBEBCBBB9B8B6B4B3B1A3
:10029000AFAEACAAA8A7A5A3A19F9E9C9A9896943E
:1002A00092908E8C8A89878583817F7D7B79777513
:1002B00073716F6D6B6968666462605E5C5A5957F2
:1002C000555351504E4C4A4947454342403E3D3BB1
:1002D0003A3836353332302F2D2C2A29282625233B
:1002E00022FFAA7F55400001010101010101010126
:1002F00002020202020202020203030303030303D7
:1003000003040404040404040505050505060606A3
:100310000606070707070708080808090909090A60
:100320000A0A0B0B0B0C0C0C0D0D0D0E0E0E0F0F05
:100330000F10101111111212131314141515161693
:100340001717181819191A1A1B1B1C1D1D1E1E1F02
:100350002020212222232424252626272829292A51
:100360002B2C2D2D2E2F3031323233343536373879
:10037000393A3B3C3D3E3F40414243444546474875
:10038000494A4C4D4E4F50515354555658595A5B4B
:100390005D5E5F616264656668696B6C6D6F7072EB
:1003A000737577787A7B7D7E8082838587888A8C57
:1003B0008E8F91939596989A9C9EA0A2A3A5A7A98B
:1003C000ABADAFB1B3B5B7BABCBEC0C2C4C6C9CB82
:1003D000CDCFD1D4D6D8DBDDDFE2E4E7E9EBEEF038
:1003E000F3F5F8FAFDFF1A03710061007A002000AE
:1003F0006B006500790062006F00610072006400AC
:100400000000220377006800790064006F0062003A
:1004100065006100720073006500780070006C0078
:100420006F00640000000403090409023B0002019C
:1004300000A0FA09040000010301010009211101D3
:1004400000012240000705810308000A0904010099
:10045000010300000009211101000122BC00070571
:10046000820320000A12011001000000083174010B
:100470000001000102000105010902A10185020934
:1004800001A100050919012905150025019505752A
:1004900001810295017503810105010930093115BA
:1004A00081257F95027508810609381581257F957C
:1004B0000175088106050C0A38021581257F950112
:1004C00075088106C0C005010980A10185031901D5
:1004D0002AB700150126B700950175108100C005E7
:1004E0000C0901A101850419012AA002150126A009
:1004F00002950175108100C005010906A10185055D
:10050000050719E029E71500250195087501810205
:100510000507190029EF1500250195F075018102E5
:1005200005081901290595057501910295017503C5
:100530009101C005010906A101050719E029E71588
:100540000025019508750181029501750881010555
:1005500007190029FF150026FF0095067508810080
:100560000508190129059505750191029501750385
:100570009101C00011241FBECFEFDAE0DEBFCDBF76
:1005800004B603FE27C08091670390916803A09191
:100590006903B0916A038730904BA740B04BD1F408
:1005A00010926703109268031092690310926A0315
:1005B00014BE84B7877F84BF0FB6F894A895809146
:1005C0006000886180936000109260000FBEE0E0E0
:1005D000F8E3099511E0A0E0B1E0EAE8F3E502C034
:1005E00005900D92A63CB107D9F723E0A6ECB1E047
:1005F00001C01D92A736B207E1F70E9406230C94B2
:10060000C3290C94000081E0089581E008950C94C2
:10061000050308950C9409031F93CF93DF9300D033
:1006200000D01F92CDB7DEB749835A836B833091D8
:100630004F0289819A81311114C0662359F0222317
:1006400049F00E94271B182F682F89819A810E94E8
:10065000D01A03C00E94FB1A182F69817A81812F5A
:1006600004C00E94271B69817A810F900F900F9020
:100670000F900F90DF91CF911F910C94C603FC0156
:10068000262F408151816281738184810C940C03F7
:10069000CF93DF93EC0160E00E943F03BE01DF9146
:1006A000CF910C940A030E94A81E0E945F1C811126
:1006B00002C00E94061D0C94E2050C94DE0508950C
:1006C0000E94D9150E945F032FEF84E39CE0215024
:1006D00080409040E1F700C000000C94951E0F93FD
:1006E0001F93CF93DF93EC0161E00E943F038C01E5
:1006F000BE010E940703882379F1BE01C8010E9450
:10070000170F882349F1BE01C8010E94690F882391
:1007100019F1BE01C8010E9494108823E9F0BE01BE
:10072000C8010E94E30D8823B9F08A81882369F00B
:1007300001158CE5180731F00F3D1C4531F40E947E
:10074000061D0AC00E94600307C0CE01DF91CF9151
:100750001F910F910C94030380E0DF91CF911F91C3
:100760000F91089508950C94B20381E008950C94BC
:10077000B503CF93C82F0E94B3038C2F0E94B703F9
:10078000CF91089580E090E0089508952AE2829F35
:10079000C0011124FC0127E0729FE00DF11D11241E
:1007A000E60FF11DEE0FFF1FEC5DFE4F859194915A
:1007B0000895880F991FFC01E453FE4F8591949191
:1007C0000895CF93DF930E94C6030E94F904EC01C1
:1007D0008115904508F041C0C11580E4D80708F0A4
:1007E000D1C0C83ED10510F5C03ED10508F0FDC00E
:1007F000C83AD10578F4C53AD10508F0A2C0C13095
:10080000D10509F4F2C008F4EEC0C430D10508F0F7
:10081000ECC0E9C0CF3BD10508F49BC0C03CD1057A
:1008200008F4E1C0CE01805C91099EC0C11590E240
:10083000D90758F4C11521E0D20708F0D6C0C03F4F
:10084000D10508F4D0C0D065D0C0C11580E3D80769
:1008500008F08EC0CE019F7087C0C11595E5D907FD
:1008600008F043C0C11524E5D20708F0A2C0C115A5
:1008700082E5D80708F5C11591E5D90708F085C0CC
:10088000CE0174E0969587957A95E1F783709C2F59
:10089000937021E030E002C0220F331F9A95E2F7F7
:1008A0003C68382BCF70C695C69580E2C89FE001A2
:1008B0001124C22BD32B99C09E01237033278C2F78
:1008C00086958695C115D34508F064C0C1E0D0E097
:1008D00002C0CC0FDD1F2A95E2F720E2829FC00103
:1008E0001124C82BD92BDC6880C0C11529E5D2079B
:1008F000A0F4C11588E5D80708F060C0C11596E5D9
:10090000D90708F070C08C2F0E948D058F71C82FF9
:10091000D0E0DC2FCC27D06268C0C1152AE5D20711
:1009200008F451C0CE0190568115904208F05BC08A
:100930008D2F8F710E948D05DD27D0628F71D82B8E
:1009400054C0C55AD0E0C65ADE4FC881D0E0D0644A
:100950004CC0C85AD0E0CC0FDD1FC45DDE4F0990FB
:10096000D881C02DD46441C00E94D903EC013DC0A0
:10097000CE019927D3FF03C0EC01D86C36C0EC013F
:10098000D06C33C0DF70D06A30C0DC2FCC27C16F91
:10099000D06A2BC0C1E0D0E002C0CC0FDD1F2A9589
:1009A000E2F720E2829FC0011124C82BD92BDA681C
:1009B0001CC0DC2FCC27C46FD06A17C0DC2FCC271B
:1009C000C06FD06A12C08C2F8F700E948D0594E08A
:1009D000D695C7959A95E1F7CF70D0E0DC2FCC275C
:1009E000D069C82B02C0C0E0D0E0CE01DF91CF912A
:1009F00008958238910569F1B0F48133910509F4C5
:100A00006DC048F48932910509F463C08A329105BA
:100A100009F469C008958533910509F455C08933F7
:100A20009105B9F00895833E910569F138F4803E4F
:100A30009105B1F0823E910509F10895863E910538
:100A4000A9F1873E9105B9F1843E910509F064C092
:100A500023C02091580320FD4FC021FD4DC00895B3
:100A60008091580380FD44C08091590380FF44C0A9
:100A70008091580384FD42C083EE4DC0809158039D
:100A800082FF38C0F5CF8091580382FD33C080913A
:100A9000590380FD31C0ECCF8091590381FF32C0F2
:100AA0008091580384FD2AC087EE35C08091580399
:100AB00083FF26C0F5CF8091580383FD21C080912C
:100AC000590381FD1FC0ECCF8091580385FD1CC0E8
:100AD0001DC08091580385FD19C016C08091580330
:100AE00086FD16C017C08091580386FD13C010C044
:100AF00089E311C082EE0FC080EE0DC080E00BC014
:100B000086EE09C084EE07C089E205C085E303C014
:100B10008AE201C081E390E008959091580392FF2A
:100B20000DC0282F2871283019F4877F846006C0F3
:100B3000282F2471243011F48B7F886093FF0DC01F
:100B4000282F2871283119F4877E846106C0282F48
:100B50002471243111F48B7E88612091590320FF88
:100B60000DC0382F3871383019F4877F816006C086
:100B7000382F3171313011F48E7F886021FF0DC024
:100B8000282F2871283119F4877E816106C0282F0B
:100B90002171213111F48E7E886194FD877E089544
:100BA000E82FF0E0E65FFC4F80810895089580EA29
:100BB0008A95F1F7089508950C94DB050C94DC05F3
:100BC0000C94DB050C94E005F894E82FE295EF70A7
:100BD000F0E031A1282F2F7081E090E001C0880F54
:100BE0002A95EAF7982F9095932391A392A1892BA8
:100BF00082A378940895CF93DF93C4E6D1E08991DE
:100C00000E94E40581E0CA36D807C9F7CDE5D1E0F6
:100C100089910E94E40581E0C436D807C9F7E4E071
:100C2000F3E0AAE0B3E08AE093E011921D928E1700
:100C30009F07D9F786E00E94A406DF91CF910C941C
:100C400053038F929F92AF92BF92CF92DF92EF9217
:100C5000FF920F931F93CF93DF9384E6A82E81E03A
:100C6000B82EC4E0D3E09AE6E92E91E0F92E912C5B
:100C700001E010E06501F5018081F894E82FE2952C
:100C8000EF70F0E021A18F70A80102C0440F551F42
:100C90008A95E2F7CA01922F982B91A392A1809591
:100CA000892382A378940E94D705EDE5F1E020E046
:100CB00030E0812C4191A42FA295AF70B0E09096C6
:100CC0008C9190E04F7002C0959587954A95E2F718
:100CD00080FD07C0802F022E01C0880F0A94EAF71A
:100CE00001C080E0882A2F5F3F4F2730310511F780
:100CF0005FEFA51AB50AF60180810E94E40588819C
:100D0000881619F0888281E001C080E0982A219637
:100D1000EA14FB0409F0AECF292D46E06AE073E047
:100D200084E093E00E94A5060E945D03892DDF9177
:100D3000CF911F910F91FF90EF90DF90CF90BF90D8
:100D4000AF909F908F9008950895FF920F931F93F7
:100D5000CF93DF938C01F62ED72FC42F222349F097
:100D600081E08093C8010E94541E9093C701809334
:100D7000C6018091C8018823C1F08091C60190917D
:100D8000C7010E94601E069780F0EF2DFD2FD8014D
:100D90004C2F50E0CD01801B910B841795071CF45C
:100DA0008D918193F7CF1092C801DF91CF911F9160
:100DB0000F91FF900895EF92FF920F931F93CF939F
:100DC000DF938B01682F11110AC0442329F0E82F0B
:100DD000F0E0EA51FD4F6491762F862F75C0212FE8
:100DE00030E0E82FF0E0442321F0EA51FD4FE49198
:100DF000F0E046E0049FC0011124CFEFD0E0BE0137
:100E00000E9472284BEA4603C001479F900D1124AF
:100E1000800F911D800F911D982F990F890FAE01A2
:100E2000421B530B4E9FD0014F9FB00D5E9FB00DE4
:100E300011249B2F189FA0011124452F55278E01A7
:100E4000041B150B0E9FA0010F9F500D1E9F500DF0
:100E500011247E01E81AF108E29E8001E39E100D44
:100E6000F29E100D1124212F3327C21BD30BCE9FCE
:100E70009001CF9F300DDE9F300D1124623071053F
:100E8000A9F048F46115710569F061307105C9F484
:100E90008B2F752F0DC06430710581F058F06630CE
:100EA000710579F47E2F8B2F932F0DC0832F7B2F0D
:100EB0009E2F09C08E2F7B2F952F05C08E2F732F4D
:100EC00002C07E2F852F692FDF91CF911F910F9147
:100ED000FF90EF90089541E00E94DB060895089589
:100EE0000E946B070895CF93DF93762FE901682F57
:100EF000842F0E947007798368838A83DF91CF9162
:100F0000089580911003282F269530E02115310592
:100F100019F48170826005C02B32310524F0817094
:100F2000846580931003089588E090E00C94642910
:100F3000CF92DF92EF92FF926B017C010E948107BA
:100F4000B701A60188E090E0FF90EF90DF90CF908E
:100F50000C948229E0E1F3E083E0808311828FEF3B
:100F600082838383148260817181828193810C9456
:100F700098078091100380FF02C08695089580E055
:100F8000089590911403933018F49F5F9093140385
:100F9000882351F060911003709111038091120326
:100FA000909113030C949807089581E00C94C10765
:100FB00090911403992319F091509093140388236E
:100FC00051F0609110037091110380911203909180
:100FD00013030C949807089581E00C94D80770E0EF
:100FE0000C94540E609108018091100380FF0AC098
:100FF0008091070123E0829FC00111248B5E9C4FEA
:101000000C94EF078091090190910A01891780F7EC
:10101000E82FF0E09F01220F331FE20FF31FEB5E7A
:10102000FC4F1182108212828F5FF0CF90911003DB
:1010300090FF16C09091090120910A01921770F457
:10104000E92FF0E0DF01AA0FBB1FEA0FFB1FEB5EE9
:10105000FC4F8183608342839F5FF0CF0C94F20743
:101060000895CF93DF9300D01F92CDB7DEB7909154
:10107000100390FF0AC09E012F5F3F4F0E9473072D
:101080004B8169818A810E9416080F900F900F9002
:10109000DF91CF910895CF93DF93EC01EC81F0E0E5
:1010A000EF51FE4F4491E0E1F3E0628181810E94C3
:1010B00031088C818F5F8C83DF91CF910895CF931E
:1010C000DF93EC01E0E1F3E0438162818C810E94D7
:1010D00031088C818F5F8C83DF91CF9108950F93BE
:1010E0001F93CF93DF9300D01F92CDB7DEB78C0153
:1010F0008091C90181110AC09E012F5F3F4F4FEFC0
:101100006FEF0E9473078A818093C901F80184817F
:10111000813051F028F0823061F44091C9010AC059
:101120008091C90140E007C06091C90140E080E0C2
:1011300003C040E080E060E00E941608F80184816E
:1011400090E0019663E070E00E94862884830F900F
:101150000F900F90DF91CF911F910F910895AF9253
:10116000BF92CF92DF92EF92FF920F931F93CF9394
:10117000DF9300D01F92CDB7DEB7182FF62E042FC5
:10118000E22E9091100390FF6DC0E92FE695AE2FEF
:10119000B0E0A659BE4F8C9180933C029E7F923066
:1011A00061F49E012F5F3F4F812F0E9473074B8197
:1011B00069818A810E94160843C0823019F4009127
:1011C00013033EC0863019F41091110339C08930E1
:1011D000D9F38931A9F5E9518E2F8170D82EE69582
:1011E000F0E0EF51FD4FA590B490C12CBB2460916D
:1011F0000B01C61618F52C2D30E0A29EC001A39E4F
:10120000900DB29E900D112470E00E947228812FE3
:10121000D11002C0860F01C0861B90910901290FD1
:10122000311DA901440F551F240F351F2B5E3C4F64
:10123000402F6F2D0E947307C394D9CF0E94F207ED
:1012400010931103F092120300931303EE2051F058
:101250006091100370911103809112039091130318
:101260000E9498070F900F900F90DF91CF911F91E0
:101270000F91FF90EF90DF90CF90BF90AF900895C7
:10128000E0E1F3E09181282F4381628188E0890FBA
:101290000C94AF0881E00C944009E0E1F3E0918107
:1012A000282F4381628188EF890F0C94AF0881E079
:1012B0000C944D09E0E1F3E0628128E0620F08F44C
:1012C0006FEF282F438181810C94AF0881E00C944B
:1012D0005A09E0E1F3E0628128E0621B08F460E073
:1012E000282F438181810C94AF0881E00C94690917
:1012F000E0E1F3E0438128E0420F08F44FEF282FAC
:10130000628181810C94AF0881E00C947809E0E15E
:10131000F3E0438128E0421B08F440E0282F62817B
:1013200081810C94AF0881E00C94870920E00C9433
:10133000AF08FF920F931F93CF93DF93EC01F12C33
:101340000FEF10E060910B01F616F0F480910901A7
:101350002F2D30E0280F311DC901880F991F280F4C
:10136000391F2B5E3C4F70E0C8010E948628962FE3
:101370008C814091130360911203F99E800D11241A
:101380000E947307F394DECF0E94F2079A818C814A
:1013900090FF02C08F5F01C081508C83DF91CF919D
:1013A0001F910F91FF900895AF92BF92CF92DF925D
:1013B000EF92FF920F931F93CF93DF93FC018281F3
:1013C00080FF02C00FEF01C001E010E045E1A42E54
:1013D00080910B01181708F043C080910901C12EBC
:1013E000D12CE601C80FD11DCE01880F991FC80F5F
:1013F000D91FCB5EDC4F198218821A8234E0E32EAB
:10140000F12CB12C8091CB018B0D86312CF06A2D03
:101410000E946428892F05C087FF03C090910B01AB
:10142000890F082E000C990BC816D90691F48091EB
:1014300013038E9DA0018F9D500D11245595479546
:10144000559547959E0160911203809111030E946A
:101450007307B00EF1E0EF1AF108A1F61F5FB8CFE5
:101460000E94F2078091CB01013031F4811102C05A
:1014700080910B01815007C090E0019660910B01B3
:1014800070E00E9486288093CB01DF91CF911F915D
:101490000F91FF90EF90DF90CF90BF90AF900895A5
:1014A000CF938091090190910A01891770F4E82F78
:1014B000F0E09F01220F331FE20FF31FEB5EFC4FA2
:1014C0001182108212828F5FF0CFC0E060910B0119
:1014D000C617C0F5EC2FF0E070E0CF010E9486281F
:1014E00020910901820F2091CA01022E000C330BBA
:1014F00090E0E217F307CCF020910601022E000CD9
:10150000330B2E173F078CF09C01220F331F820FE5
:10151000931F9C012B5E3C4F40911303609112037B
:10152000809111030E9473070BC0FC01EE0FFF1F97
:101530008E0F9F1FFC01EB5EFC4F11821082128206
:10154000CF5FC4CF0E94F207209105018091CA01AC
:10155000820F8093CA0190910601920F9093060129
:1015600019165CF4082E000C990B40910B0150E009
:1015700041505109841795071CF0219520930501CE
:10158000CF9108958F929F92AF92BF92CF92DF92A8
:10159000EF92FF920F931F93CF93DF938C01FC0187
:1015A0004481C42FD0E09E01DE010E94CA289B0125
:1015B000AC010E94E0286B017C01E0E2F0E0EC1B52
:1015C000FD0BA5E5B0E09B01AC010E94E0284B01BA
:1015D0005C019F01DF010E94C2289B01AC010E94B7
:1015E000EB289B01AC012C0D3D1D4E1D5F1DC5015F
:1015F000B4010E949A28C22FD22F2A3228F4F3E095
:101600002F9F900111240DC025E530E02C1B3109DE
:10161000C901880F991F280F391F37FF02C02F5F9C
:101620003F4F35952795C22FC095F12C85E5E82EC3
:10163000ED1A80910B01F816C8F4F1FC02C08E2D52
:1016400001C08D2F909109012F2D30E0290F311D00
:10165000A901440F551F240F351F2B5E3C4F4C2F03
:10166000609112030E947307F394E3CF0E94F20784
:10167000F8018481811102C091E003C0803219F425
:101680009FEF9093040190910401890FF8018483E6
:10169000DF91CF911F910F91FF90EF90DF90CF904E
:1016A000BF90AF909F908F9008950F931F93CF930B
:1016B000DF93EC0100E010E080910B01282F30E077
:1016C0000217130724F5909109019801290F311D84
:1016D000A901440F551F240F351F2B5E3C4F8695E3
:1016E00090E04C81081719071CF4442331F002C024
:1016F000411103C04091130301C040E06091120307
:10170000809111030E9473070F5F1F4FD5CF0E9476
:10171000F2078C8190E00196817099278C83DF918C
:10172000CF911F910F9108958F929F92AF92BF9288
:10173000CF92DF92EF92FF920F931F93CF93DF939D
:10174000FC01B280948081E0848300E015E05BE4DA
:10175000A52E88248394EE24EA94F12C7BE4C72EF2
:10176000D12C80910B01081708F08FC0C02FD0E05A
:101770001C9FF0011D9FF00D1124E453FE4F9110AA
:1017800003C01382128267C02381222389F1215072
:1017900023833481332319F09A2D921B01C0922F99
:1017A000809113031C9FF0011D9FF00D1124E45341
:1017B000FE4F899FC0011124B6010E9472286283E6
:1017C000211104C0332311F01482A38222E02B15CF
:1017D00008F441C01C9FF0011D9FF00D1124E4533B
:1017E000FE4F80911103808380911203818333C067
:1017F0000E943F298230914074F582E08B1530F4CD
:101800000E943F29B7010E94862802C080911103DF
:101810001C9FF0011D9FF00D1124E453FE4F8083A7
:1018200022E02B1558F40E943F292091120326959F
:10183000622F70E00E948628820F02C080911203FE
:101840001C9FF0011D9FF00D1124E453FE4F818376
:101850001282A3828482809109019E01280F311D8A
:10186000C901880F991F280F391F2B5E3C4F1C9F01
:10187000F0011D9FF00D1124E453FE4F4281618160
:1018800080810E9473070F5F6CCFDF91CF911F9112
:101890000F91FF90EF90DF90CF90BF90AF909F900F
:1018A0008F900C94F207E0E1F3E080818E7F8083DB
:1018B00060817181828193810E94980710923D021C
:1018C0002FEF80E792E0215080409040E1F700C088
:1018D00000000C94F20760911003669570E04BE0F5
:1018E00050E08CE091E00E944F29892B19F481E0AF
:1018F00080933D020E94541E9093360280933502DD
:1019000008959091100390FF35C09170811102C02D
:10191000926006C08B3210F0946502C0880F982B3D
:1019200090931003662351F060911003709111039E
:1019300080911203909113030E9498076091100305
:10194000669570E04BE050E08CE091E00E944F29FA
:10195000892B19F010923D0202C00E946B0C81E0AD
:101960008093380240911303609112038091110318
:101970000C9496090895682F90911003969581E034
:10198000890F8B3208F081E00C94810C81E00C947B
:10199000BB0C682F9091100396958FEF890F09F477
:1019A0008AE20C94810C81E00C94C90C61E00C94E7
:1019B000810CE0E1F3E080818160808386950C9466
:1019C000D60C8091100380FD0C94530C0C94D90C10
:1019D00060E00C94810C80913B0281112EC00E942A
:1019E0005F1C811104C00E94061D0E94AA070E946C
:1019F00094076093100370931103809312039093E4
:101A000013036E7F61F40E94AA070E9494076093FB
:101A100010037093110380931203909313030E9499
:101A2000810710923D028091100380FF03C08695CC
:101A30000E94E80C81E080933B0208950F931F936E
:101A4000CF93DF9380913D02882309F49CC080915D
:101A50003C02E0911003E695E81BE09337028230E8
:101A600049F4F0E0E352FE4FE491CE2FD0E00BE4D6
:101A700018E059C0863049F4F0E0E652FE4FE49198
:101A8000CE2FD0E00FE518E04EC0893051F4E69536
:101A9000F0E0E952FE4FE491CE2FD0E009E919E0E1
:101AA00042C08F3051F4E695F0E0EC52FE4FE491E5
:101AB000CE2FD0E004ED19E036C0853149F4F0E0D6
:101AC000EF52FE4FE491CE2FD0E000E51AE02BC09C
:101AD0008831D9F0833239F4EFECF1E0C591D4913B
:101AE0000FE618E020C08432A9F08532C1F48E2FB1
:101AF00063E00E945828E92FF0E0E453FE4FE491A0
:101B0000CE2FD0E004E91BE00EC0C8E2D0E002EC2A
:101B10001AE009C0C4EFD1E005E51BE004C0C0ED48
:101B2000D7E00FE617E080913802882389F0109201
:101B300038020E94541E9E0120953095820F931FFB
:101B4000909336028093350210923A021092390235
:101B500080913502909136020E94601E8C179D077D
:101B600090F0E0913502F0913602CE0FDF1FD09356
:101B70003602C093350285E392E0F801DF91CF9100
:101B80001F910F910994DF91CF911F910F910895AB
:101B9000882311F0FA0101C0FB010994CF93DF9370
:101BA000C82FD62F0E94B9078C1740F00E94B907A2
:101BB0008D1720F4DF91CF910C94C60C8C2FDF9100
:101BC000CF910C94D60C0F931F93CF93FB01C2813E
:101BD000CC2309F463C08C010E94A81B8272F80117
:101BE000E35CFC45E431F10508F059C0EA5AFF4FC7
:101BF0000C94BC280E94E10C06C043ED5CE066EC4E
:101C00007CE00E94C80DC0E04AC046EC5CE063ED99
:101C10007CE0F7CF47E559E06AE479E0F2CF4AE4A7
:101C200059E067E579E0EDCF45E759E066E679E010
:101C3000E8CF46E659E065E779E0E3CF43E959E0CC
:101C400064E879E0DECF44E859E063E979E0D9CF90
:101C50004CEE57E065ED77E0D4CF45ED57E06CEE04
:101C600077E0CFCF81E017C065E082E010C068E088
:101C700086E00DC06EE089E00AC064E18FE007C035
:101C800067E185E104C088E106C062E289E10E9463
:101C9000CE0DB9CF83E20E94D60CB5CFC1E08C2F18
:101CA000CF911F910F910895879A21B32F7731B368
:101CB00030684FB7F894FC01CB01880F991F680F6B
:101CC000791F6E0F7F1FE617F70789F0819198E063
:101CD00031BB000000C087FF21BB880F000000C09F
:101CE00000C000C021BB00C09A9591F7ECCF4FBF58
:101CF0008FE594E00197F1F700C000000895AF92DE
:101D0000BF92CF92DF92EF92FF920F931F93CF93E8
:101D1000DF937C015B01C42FD22FFC0182818823D9
:101D2000F9F0409340020E94541E90933F0280932A
:101D30003E0280E28C0F883008F06EC0C77081E0F0
:101D400001C0880FCA95EAF7DF91CF911F910F91DB
:101D5000FF90EF90DF90CF90BF90AF900C9449131D
:101D600080914002481335C080913E0290913F021D
:101D70000E94601E6C01B701C5010E949218C8162E
:101D8000D90638F510E21D0FCD17B9F080E28C0F9F
:101D9000883040F4C77081E001C0880FCA95EAF727
:101DA0000E945013183058F581E09D2F977001C0A4
:101DB000880F9A95EAF70E944913802F0E943613E4
:101DC000183050F5D77081E001C0880FDA95EAF736
:101DD0000AC080E28C0F8830F8F4C77081E001C03F
:101DE000880FCA95EAF7DF91CF911F910F91FF906D
:101DF000EF90DF90CF90BF90AF900C945013802F56
:101E0000DF91CF911F910F91FF90EF90DF90CF90D6
:101E1000BF90AF900C943613DF91CF911F910F912B
:101E2000FF90EF90DF90CF90BF90AF9008950F9309
:101E30009C01CB01243F4CE5340731F188F4293D66
:101E4000FCE53F07D9F02A3D4CE5340779F1283D00
:101E50003C45A9F506E221EE41EE68ED7CE52BC09C
:101E6000263FFCE53F07E1F0A8F0273F3C4539F568
:101E700007E225EE46EE67EF7CE51DC007E225EEA2
:101E800045EE69ED7CE517C006E221EE40EE64EF19
:101E90007CE511C007E225EE44EE65EF7CE50BC062
:101EA00006E221EE42EE66EF7CE505C008E221E0A5
:101EB00045EE6AED7CE50E947F0E80E008C0FC01E3
:101EC0008281882319F01092400201C081E00F91B5
:101ED0000895CF93DF93EC01FB018281882309F4FD
:101EE0001FC1C230FCE5DF0708F41BC1C6319CE509
:101EF000D90738F09E012B5F3C452930310508F0A9
:101F000010C10E94721C9093590380935803C031F2
:101F1000ECE5DE0709F4C3C008F041C0C8308CE529
:101F2000D80709F49AC0F0F4C430ECE5DE0709F4F0
:101F300087C068F4C2308CE5D80709F477C0C33095
:101F4000DC4509F0E3C080915803826076C0C6305A
:101F5000ECE5DE0709F46EC008F07BC08091580301
:101F600088606BC0CC308CE5D80709F485C068F474
:101F7000CA30ECE5DE0709F474C008F079C00E94AD
:101F8000D91580915803806858C0CE308CE5D807A9
:101F900009F476C008F07FC0809158038BC0CC3F15
:101FA000ECE5DE0709F44FC018F5C3318CE5D8071E
:101FB00009F47DC078F4C131ECE5DE0709F473C0A3
:101FC000C231DC4509F0A2C00E94D91580915803A6
:101FD0008F7733C0C5318CE5D80709F472C008F497
:101FE00086C0CB3FDC4509F091C0809159033EC0CB
:101FF000C115FDE5DF0709F45FC058F4CE3F9CE54D
:10200000D90709F444C008F43FC0809159038260A5
:102010002DC0C230FDE5DF0709F475C008F45DC0CE
:10202000C330DD4509F072C080E06EC08091580376
:10203000816003C08091580380618093580366C01B
:102040008091580311C08091590382608093590395
:102050005DC0809158038062F0CF80915803806406
:10206000ECCF8091580388608460E7CF8160EECF29
:10207000809158038E7FE1CF809158038D7FDDCF13
:1020800080915803877FD9CF8091590318C08091E0
:1020900059038D7FDBCF809158038F7ECECF809107
:1020A00058038F7DCACF809158038F7BC6CF809114
:1020B0005803877F8B7FC1CF809159038D7F8E7F9F
:1020C000C5CF8091580382FB222720F991E0922707
:1020D00090FB82F990FB83F9B0CF80915903982F40
:1020E000909591708E7F892B90FB81F9AFCF0E94E4
:1020F000D9158091580387FB222720F991E0922778
:1021000090FB87F99ACF81E00E94081D80915803C7
:10211000909159030E94831C0E94D91580E001C050
:1021200081E0DF91CF910895CF93DF9386319C4575
:1021300041F5EB010E94A81B982F8A81209117017D
:1021400030911801882379F09A7A81E009F480E0CF
:1021500080934102911102C069E201C065E3C901A7
:102160000E94A31D0AC080914102811102C069E250
:1021700001C065E3C9010E94AE1D0E94F61B80E00C
:1021800001C081E0DF91CF91089590934702809341
:1021900046020895E0914602F0914702309721F0FF
:1021A0000190F081E02D099480E00895E0914602CD
:1021B000F0914702309799F020912B01222359F09A
:1021C0002091580327FF07C0DC012C9111962C9316
:1021D000119725E02C930280F381E02D0994089556
:1021E000E0914602F0914702309739F022E0DC019D
:1021F0002C930480F581E02D0994089520914402E8
:10220000309145022817390771F090934502809369
:102210004402E0914602F0914702309721F0068097
:10222000F781E02D099408952091420230914302F4
:102230002817390771F09093430280934202E0918E
:102240004602F0914702309721F00084F185E02D9D
:102250000994089585B7806885BF85B7806885BF74
:10226000089581E008950C94311108950C9435116E
:102270000C9435110C9438110C9435110C943C11BC
:102280000C9435110E942A110E9440110C943E11A9
:102290000E944B1E0E94FB050E94BC1E0E94EB0C7C
:1022A0000C943A11AF92BF92CF92DF92EF92FF92CD
:1022B0000F931F93CF93DF93CDB7DEB72A970FB657
:1022C000F894DEBF0FBECDBF0E9436110E943511BB
:1022D0000E9421060E943311811111C08FEF898362
:1022E0008A831B820E94541E8160782F9D838C8379
:1022F00049815A816B818D810E94F01140C089E42F
:10230000A82E82E0B82E00E010E0C02E802F0E94A0
:10231000D005E82EF501D1905F01D82631F40F5F8A
:102320001F4F0630110589F7D9CF8091D30281FD67
:102330000E94D60580E0FF24F3949D2D9F21D1F0CB
:102340008E83CF82EF2081E009F480E088870E94AD
:10235000541E8160782F9A8789874E815F816885B6
:102360008A850E94F011F801E75BFD4F8081F82615
:10237000F08205C08F5FFF0C8730F9F6D0CF0E9446
:102380001E0D0E946B200E94CA109091480289176E
:10239000B1F00E94CA10809348022A960FB6F894B2
:1023A000DEBF0FBECDBFDF91CF911F910F91FF9088
:1023B000EF90DF90CF90BF90AF900C94B9032A9626
:1023C0000FB6F894DEBF0FBECDBFDF91CF911F9146
:1023D0000F91FF90EF90DF90CF90BF90AF90089556
:1023E000CF93DF93CDB7DEB72B970FB6F894DEBF50
:1023F0000FBECDBF4F83588769877A878B87DE01F1
:10240000119686E0FD0111928A95E9F785E0FE01BB
:10241000379601900D928A95E1F749815A816B8137
:102420007C818D819E810E9495182B960FB6F89421
:10243000DEBF0FBECDBFDF91CF910895FC0180813B
:1024400091810E94691B0895CF93882309F4A4C049
:10245000C82F8238C1F40E94CA1081FD9DC069E373
:1024600080911701909118010E94A31D0E94F61BF4
:102470002FEF81EE94E0215080409040E1F700C0C2
:10248000000069E319C0833801F50E94CA1080FD7D
:1024900083C063E580911701909118010E94A31DEC
:1024A0000E94F61B2FEF81EE94E021508040904077
:1024B000E1F700C0000063E58091170190911801D9
:1024C0000E94AE1DCF910C94F61B8438C1F40E947B
:1024D000CA1082FD61C067E48091170190911801D4
:1024E0000E94A31D0E94F61B2FEF81EE94E0215065
:1024F00080409040E1F700C0000067E4DDCF8CEF42
:102500008C0F813AD0F46C2F8091170190911801B3
:102510000E94231D882349F06C2F80911701909110
:1025200018010E94AE1D0E94F61B6C2F80911701AE
:10253000909118010E94A31DC5CF80E28C0F8830B6
:1025400048F4C77081E001C0880FCA95EAF70E947D
:10255000AB1BB8CFEBE5EC0FE33040F4F0E0ED530C
:10256000FE4F808190E0CF910C94FE10E8E5EC0FD7
:10257000E73150F4F0E0EE0FFF1FEB56FE4F808185
:102580009181CF910C941411C03F30F08C2F0E9498
:10259000601FCF910C944D20CF910895882309F4AA
:1025A00064C0823879F40E94CA1081FF5EC069E37A
:1025B00080911701909118010E94A31D0E94F61BA3
:1025C00069E310C08338B1F40E94CA1080FF4DC087
:1025D00063E580911701909118010E94A31D0E944C
:1025E000F61B63E580911701909118010E94AE1DC2
:1025F0000C94F61B843879F40E94CA1082FF35C00F
:1026000067E480911701909118010E94A31D0E9418
:10261000F61B67E4E7CF9CEF980F913A10F4682F10
:10262000E1CF90E2980F983050F4877091E001C0AC
:10263000990F8A95EAF7892F0E94B11BD9CF9BE5A4
:10264000980F933020F480E090E00C94FE1098E511
:10265000980F973120F480E090E00C941411803FA3
:1026600020F00E94C81F0C944D200895CF93C82FCE
:102670000E942412C93349F42FEF87EE93E02150D2
:1026800080409040E1F700C000008C2FCF910C9467
:10269000CE12882321F00E94AB1B0C94F61B0895E8
:1026A000882321F00E94B11B0C94F61B0895CF9251
:1026B000DF92EF92FF920F931F93CF93DF937C01F2
:1026C000062FC72FFC01158112951F70D281D111E1
:1026D0000E94C81B0E94A11B882399F0DD2389F06A
:1026E0008C2F807F803421F080E2800F883048F08A
:1026F00082E00E94401C0E94A11B91E0D82ED926A6
:1027000001C0D12CCC2EC2948FE0C8228C2D90E039
:10271000FC01E659FF4F0C94BC288C2F807FCF70B2
:10272000882311F0C295C07FDD2399F0CC2309F4F2
:102730008DC180E2800F883010F0011104C08C2F11
:102740000E94AB1B03C08C2F0E94BB1B0E94F61B78
:102750007DC1802F0E94CE12CC2309F49CC180E25F
:10276000800F883010F0011104C08C2F0E94B11B23
:1027700003C08C2F0E94C11B0E94F61B8CC18C2FA2
:10278000807FCF70803211F0C295C07F002319F096
:102790000130C9F022C0DD2371F0112341F0113066
:1027A00031F40E94DB1B8C2B0E94E31B74C10E943E
:1027B000DB1B8C2B1DC0112319F0113009F46BC1E8
:1027C0000E94EC1B25C0DD2321F0163008F063C108
:1027D0000EC0153008F05FC11BC0DD2361F011236E
:1027E00031F0F701858180FF31C18F7085838C2F97
:1027F0000E94491350C1112359F0093309F037C120
:10280000FFEF27EE83E0F15020408040E1F72DC13B
:102810008C2F0E9450133FC18C2F86958695837014
:1028200019F0813061F037C1DD2321F0802F9C2F1A
:10283000937002C080E090E00E94FE1034C1DD235E
:1028400021F0802F9C2F937002C080E090E00E94C6
:10285000141129C1802FDD2319F00E94601F02C0CE
:102860000E94C81F0E944D201EC18C2F837009F04A
:1028700045C0D11114C1402F429546954770440F71
:10288000440F602F6F70862F90E0A0E0B0E0042E20
:1028900004C0880F991FAA1FBB1F0A94D2F704FF18
:1028A00010C00FE010E020E030E004C0000F111F66
:1028B000221F331F4A95D2F7009510952095309529
:1028C00003C000E010E09801C695C695C370BC0136
:1028D000CD01602B712B822B932BC23049F058F421
:1028E000C13019F00E94E619DAC00E94D419D7C08D
:1028F0000E94F819D4C00E94D219D1C0DD2319F06A
:102900008C2F817001C08695882309F4C8C0402FA0
:10291000429546954770440F440F602F6F70862F85
:1029200090E0A0E0B0E0042E04C0880F991FAA1F19
:10293000BB1F0A94D2F704FF10C00FE010E020E0A4
:1029400030E004C0000F111F221F331F4A95D2F739
:10295000009510952095309503C000E010E0980197
:10296000C695C695C370BC01CD01602B712B822B1F
:10297000932BC23049F058F4C13019F00E94AB1AC1
:102980008EC00E94991A8BC00E94BD1A88C00E94F6
:102990000C1A85C0CF70DD2339F08C2F0E94321ABB
:1029A000802F0E9449137BC0802F0E9450138C2FD0
:1029B0000E94531A74C0023F01F128F4003F41F015
:1029C000013FA1F03FC0033FF9F0043F39F13AC0A5
:1029D000DD2341F0153008F05EC08C2F8F710E940E
:1029E000781A59C0163008F056C0F7CFDD2339F0F9
:1029F0008C2F8F710E94321A4EC0DD23C9F38C2FA9
:102A00008F710E94531A47C0DD2329F08C2F8F71DC
:102A10000E941D1A40C00E94181A3DC0DD2349F0D3
:102A2000CF718C2F0E94321A63E08C2F0E942B1CD6
:102A300032C081E00E94401C123068F182E00E94A6
:102A4000401C29C0DD2331F0112391F2802F0E9418
:102A5000241221C0112399F2093349F49FEFE7EEC4
:102A6000F3E09150E040F040E1F700C00000802F1B
:102A70000E94CE1210C04C2F4F70602FC7010E94D1
:102A8000C2030E9443190FC04C2F4F70602FC70123
:102A90000E94C50308C088EF8C0D843020F40E948A
:102AA000CA100E94B903DD20C9F00E949D1B80FD61
:102AB00015C0F70112820E94971B0E94321AC701AB
:102AC0000E948F150E94971BDF91CF911F910F914C
:102AD000FF90EF90DF90CF900C94531ADF91CF913D
:102AE0001F910F91FF90EF90DF90CF9008950F937B
:102AF0001F93CF93DF93EC01688179818A810E94D3
:102B0000741B8C010E94CF1A0E94C019B801CE011B
:102B10000E945713DF91CF911F910F910895CF938A
:102B2000DF93EC01988189812B813C81232B31F04B
:102B30008F3F31F481E09F3F19F403C081E001C071
:102B400080E080FD19C0CE010E946F0381110CC08E
:102B50000E94A11B882381F08A81882369F082E08A
:102B6000DF91CF910C94401CCE010E947715CE01CD
:102B7000DF91CF910C944803DF91CF9108950E948B
:102B8000C81B0E94D81B0E94F61B0E947E210E9437
:102B90004D2080E090E00E94FE1080E090E00C94D8
:102BA000141180911701909118010E94B91D0C9485
:102BB000BF150E94B81B0C94D115E92FE295EF7058
:102BC0004E2F50E0FA013297EE30F105B0F4E6589E
:102BD000FF4F0C94BC28803F91F018F4883E68F4B5
:102BE0000EC0843F51F40BC0883E48F0813F29F469
:102BF00006C093FB882780F9089580E0089581E05E
:102C000008950E94691B0E94DD150895CF93DF93FC
:102C100000D000D01F92CDB7DEB70F900F900F906D
:102C20000F900F90DF91CF910895CF93DF9300D055
:102C300000D000D0CDB7DEB726960FB6F894DEBF31
:102C40000FBECDBFDF91CF9108951F93CF93DF9338
:102C5000C091500216E080915102C81799F0D0E05F
:102C60001C9FF0011D9FF00D1124EE5AFD4F408175
:102C7000518162817381848195810E94151621960C
:102C8000C770E9CFDF91CF911F91089540918202E3
:102C90005091830260918402709185028091860236
:102CA000909187020C9415160F931F93CF93DF9387
:102CB0008091870282958F7009F05DC080918402B7
:102CC000882309F458C080915002109151026091FC
:102CD000820270918302C0918502D091860291E0B8
:102CE0006F3F09F090E0292F06E0811709F443C0F7
:102CF000209721F07F3F21F030E003C031E001C098
:102D0000322F90E030FD34C0089FF001099FF00D94
:102D10001124DF01AE5ABD4F11963C911197371324
:102D200027C03C91361324C012963C911297311162
:102D30001FC013964D915C9114974C1B5D0B483C42
:102D40005105B0F4809187028F7080618093870273
:102D5000E95AFD4F80818F708061808382E892E024
:102D60000E948F15DF91CF911F910F910C94251622
:102D700001968770BACFDF91CF911F910F9108957F
:102D80009F92AF92BF92CF92DF92EF92FF920F93FA
:102D90001F93CF93DF93CDB7DEB761970FB6F8944B
:102DA000DEBF0FBECDBF8C0185E0F801DE011D96B0
:102DB00001900D928A95E1F7F80140815181E280FE
:102DC0009091820260918302209185023091860267
:102DD0002115310531F06F3F31F481E09F3F19F447
:102DE00003C081E001C080E0F82FF1709F2E80FDCC
:102DF00046C1F801A380B48082E8C82E82E0D82EB4
:102E0000F0908402F501E21BF30BFF2009F4DFC010
:102E100080918702E83CF10508F09BC0282F207FB5
:102E200009F052C0561313C0491311C0FE2CE11013
:102E30000EC08F708061809387020E944616C60183
:102E40000E948F1580918702F801858358C1AB28B5
:102E500031F05F3F31F481E04F3F19F403C081E06E
:102E600001C080E080FD03C081E08E2502C080E0CB
:102E700090E0F82FF170FF2E80FF1CC0809150026F
:102E80002091510236E0821709F417C190E0389F73
:102E9000F001399FF00D1124EE5AFD4F6181561358
:102EA00006C06081461303C06281E61203C001962A
:102EB0008770E9CFFE2CEE2009F421C180918702B2
:102EC0008160809387025AC0561306C0491304C01C
:102ED000E11002C0F8019FC04D875E878D859E85F9
:102EE0000E940116882379F1EE2069F12091870272
:102EF000822F82958F7090E0029774F08091820209
:102F00009091830298878F831986BB86AA862C8727
:102F1000CE0107960E948F1586E0F801A2E8B2E084
:102F200001900D928A95E1F70E9454160E94461670
:102F30000DC0561729F14D875E878D859E850E94AD
:102F4000011681112CC0C8010E948F15FF24F39433
:102F5000D6C0282F207F69F77A2DB98AA88A6E2DCE
:102F600089890E94061682E892E00E948F1586E009
:102F7000F60111928A95E9F70E944616F12CBFC01E
:102F80004913D9CFE110D7CFF8018583C8010E943A
:102F90008F1586E0F60111928A95E9F7B0C0EE2010
:102FA00091F220918702822F82958F7090E0029794
:102FB0000CF4B2CF80918202909183029A8389832C
:102FC0001B82BD82AC822E83CE010196A3CFE83C4A
:102FD000F10508F047C0FE2CEE2009F4B4CF5613DB
:102FE00030C049132EC02091870220FD21C0822FBE
:102FF00082958F70482F50E041155105C9F0F801B6
:1030000025834F30510541F08F5F982F9295907F27
:10301000822F8F70892B8583C8010E948F1586E0CF
:10302000F801A2E8B2E001900D928A95E1F742C062
:1030300086E0F801A2E8B2E001900D928A95E1F7EE
:103040005EC04D875E878D859E850E940116811129
:1030500063CF80918702816080938702C8010E94BC
:103060008F154DC07A2DB98AA88A6E2D89890E9444
:10307000061686E0F60111928A95E9F71BC0EE204C
:1030800009F461CF4D875E878D859E850E9401166C
:10309000F82E882309F457CF86E0F801A2E8B2E0C1
:1030A00001900D928A95E1F782E892E00E941E124B
:1030B0000E9454160E94461622C04D875E878D8559
:1030C0009E850E94691B292F22952F70223028F49B
:1030D0009F7039F0811105C00BC0243028F49F7017
:1030E00049F4805E883020F0C8010E948F159F2C23
:1030F000F92C05C0F8019581907F99F7F9CF8F2DB4
:1031000061960FB6F894DEBF0FBECDBFDF91CF91B1
:103110001F910F91FF90EF90DF90CF90BF90AF90F5
:103120009F90089588EC90E008951F93CF93DF93CC
:10313000CDB7DEB72C970FB6F894DEBF0FBECDBF6C
:103140004F83588769877A878B879C87CE0107963C
:103150000E94C0168823D1F09F8188852A853B85EF
:10316000232B31F08F3F31F481E09F3F19F403C0EE
:1031700081E001C080E080FD47C04F8158856985AE
:103180007A858B859C850E9415163EC086E0FE01DF
:103190003796DE01119601900D928A95E1F7FF8135
:1031A000E8856A857B856115710531F0EF3F31F463
:1031B00081E0FF3F19F403C081E001C080E080FDA1
:1031C00023C02091510230E0C901019687709927F0
:1031D0004091500250E084179507F1F1F983EA839A
:1031E0007D836C8396E0929FD001939FB00D112454
:1031F000AE5ABD4FFE01319601900D929A95E1F7BE
:10320000809351020E94251616E080915002909101
:103210005102891771F1189FC00111248E5A9D4FD8
:103220000E94C016882329F1E09150021E9FF001F0
:103230001124EE5AFD4F4081518162817381848156
:1032400095810E9415168091500290E0019687703A
:10325000992780935002D9CF0E94D915109251021C
:1032600010925002E2E8F2E086E0DF011D928A95BA
:10327000E9F72C960FB6F894DEBF0FBECDBFDF91F5
:10328000CF911F910895EF92FF920F931F93CF93C9
:10329000DF938C01892B09F46CC0F12CEE24E394AC
:1032A000E8012196F8018491843740F4843008F0D5
:1032B00051C0813081F0823019F15BC0853709F44B
:1032C00044C0A8F19CE7980F903708F052C08F7760
:1032D0000E94CE1241C00E5F1F4FFE01849190E20A
:1032E000980F983050F48770FE2D01C0FF0F8A951B
:1032F000EAF78F2F0E94CB1B14C00E9424122DC00E
:103300000E5F1F4FFE01849190E2980F983060F499
:103310008770FE2D01C0FF0F8A95EAF78F2F0E945C
:10332000D11B0E94F61B19C00E94CE1216C00E5F60
:103330001F4FFE01C491CC2381F08FE99FE00197DC
:10334000F1F700C00000C150F6CF0E5F1F4FFE0125
:10335000F49003C00E9424128E018F2D882309F45B
:103360009FCFEFE9FFE03197F1F700C000008150F7
:10337000F5CFDF91CF911F910F91FF90EF900895BE
:10338000089508950C94C1190C94C2190E94C4198F
:103390006093AA027093AB028093AC029093AD024B
:1033A0000C94BF150C94C6190F931F930091AA0299
:1033B0001091AB022091AC023091AD02602B712BC9
:1033C000822B932B1F910F910C94C6190F931F936F
:1033D0000091AA021091AB022091AC023091AD0293
:1033E00060237123822393231F910F910C94C6199C
:1033F0000F931F930091AA021091AB022091AC028F
:103400003091AD0260277127822793271F910F917A
:103410000C94C6190C94C1190E940A1A6093A60252
:103420007093A7028093A8029093A9020C94BF15F1
:1034300060E070E0CB010C940C1A0F931F9341E0F5
:1034400050E060E070E08A019B0104C0000F111F92
:10345000221F331F8A95D2F7C901B8011F910F911E
:103460000C940C1A0F931F9341E050E060E070E061
:1034700004C0440F551F661F771F8A95D2F78091AD
:10348000A6029091A702A091A802B091A9028A0178
:103490009B01082B192B2A2B3B2BC901B8011F912B
:1034A0000F910C940C1A0F931F9341E050E060E0D1
:1034B00070E004C0440F551F661F771F8A95D2F72E
:1034C00040955095609570958091A6029091A702C5
:1034D000A091A802B091A9028A019B010823192397
:1034E0002A233B23C901B8011F910F910C940C1A98
:1034F0000F931F9341E050E060E070E004C0440F80
:10350000551F661F771F8A95D2F78091A60290916A
:10351000A702A091A802B091A9028A019B010827E5
:1035200019272A273B27C901B8011F910F910C9435
:103530000C1A0F931F930091A6021091A7022091DD
:10354000A8023091A902602B712B822B932B1F9123
:103550000F910C940C1A0F931F930091A6021091D7
:10356000A7022091A8023091A9026023712382232F
:1035700093231F910F910C940C1A0F931F9300919A
:10358000A6021091A7022091A8023091A9026027FB
:103590007127822793271F910F910C940C1A08957D
:1035A00027E0929F800D1124E82FE695E695E69599
:1035B000877051E001C0550F8A95EAF785E0E89FD2
:1035C000F0011124E857FD4F20E030E070E0408129
:1035D000CB01022E02C0969587950A94E2F781707E
:1035E000819584278523842781932F5F3F4F253042
:1035F000310569F7089527E0929F800D1124682F07
:10360000669566956695982F977085E0689FB001DE
:10361000112440E050E080E0FB01E40FF51FE85783
:10362000FD4F208130E0092E02C0369527950A947F
:10363000E2F721703327042E01C0220F0A94EAF723
:10364000822B4F5F5F4F4530510531F70895BF9290
:10365000CF92DF92EF92FF920F931F93CF93DF935E
:103660008C01C090A602D090A702E090A802F09032
:10367000A9028091AA029091AB02A091AC02B091F4
:10368000AD02C82AD92AEA2AFB2ACFE1D0E0D70125
:10369000C6010C2E04C0B695A795979587950A94F8
:1036A000D2F780FD04C0219790F7B12C07C0BC2E43
:1036B000B8018C2F0E94E1030197A9F38B2DDF91B4
:1036C000CF911F910F91FF90EF90DF90CF90BF901F
:1036D0000895CF93DF93EC010E94271BBE010E9447
:1036E000E103DF91CF9108951F93CF93DF93EB0117
:1036F00090914F02992321F0CB010E94691B13C0C6
:10370000882349F0CB010E94271B182F682FCE0178
:103710000E94D01A04C0CB010E94FB1A182FBE01D0
:10372000812F0E94E103DF91CF911F910895809135
:10373000AE0285958595859508958091AE02877036
:1037400008959091AE02977081E009F480E00895A9
:103750008091D20208959091D202892B8093D20257
:10376000089580959091D20289238093D202089582
:103770001092D20208959091D102892B8093D102A8
:10378000089580959091D10289238093D102089564
:103790001092D10208959091D002892B8093D0028B
:1037A000089580959091D00289238093D002089546
:1037B0001092D00208958091AF02089508950C945C
:1037C000DE1B0C94DF1B9091AF02981721F08093C1
:1037D000AF020C94E11B08958091AF02882329F079
:1037E0001092AF0280E00C94E11B0895E091170164
:1037F000F09118018091D2028083E0911701F0913D
:10380000180190818091D102892B8083E09117016A
:10381000F091180190818091D002892B8083809152
:10382000AF02882381F0E0911701F0911801908197
:10383000892B808380911701909118010E940D1DA2
:1038400081110E94EC1B80911701909118010C943A
:10385000D6100C94DE1B98E0899F90011124262B32
:103860002093AE020E94321A8091AE028595859512
:1038700085950C94291C1092AE0280E00C94291CB2
:103880002091AE02809582238093AE02982F97708C
:1038900079F430E0482F082E000C550B241735071B
:1038A00039F08595859585950E94531A0C943B1C9B
:1038B00008956FEF7FEF80E090E00C948E2980E018
:1038C00090E00E946A2921E08C3E9E4F09F020E0A2
:1038D000822F089582E090E00C945C2983E090E0D0
:1038E0000C945C29CF9384E090E00E945C29C82F5F
:1038F00081E290E00E945C292C2F30E0A901582B36
:10390000CA01CF910895CF93C92F682F84E090E02A
:103910000E9470296C2F81E290E0CF910C94702965
:10392000AB01BC018FE090E00C948229AB01BC019B
:1039300083E190E00C94822960E070E0CB010C946C
:10394000961C60E070E0CB010E94901C0C949C1CC3
:103950006CEE7EEF80E090E00E948E2960E082E0D5
:1039600090E00E94702960E083E090E00E9470295E
:103970001092AA021092AB021092AC021092AD0209
:1039800060E084E090E00E94702960E081E290E0D5
:103990000E94702960E085E090E00E94702960E05C
:1039A00086E090E00E9470296FEF87E090E00E942F
:1039B000702940E050E0BA0188E090E00E9482293E
:1039C00060E08DE090E00E94702940E050E0BA0194
:1039D00088E190E00E94822960E087E190E00E9407
:1039E000702940E050E0BA018CE190E00E94822909
:1039F00060E080E290E00E94702940E050E0BA016F
:103A000088E190E00E9482290C94A11C0C94A81CCF
:103A1000682F8EE090E00C947029FC013296809122
:103A20002B01882331F08091580387FF02C09EE16B
:103A300001C096E080E0915028F021912223D9F333
:103A40008F5FF9CF0895662351F120912B01222336
:103A5000E9F02091580327FF19C0462F4695469557
:103A600046954E31E0F4677021E030E002C0220F4D
:103A7000331F6A95E2F7FC01E40FF11D828190E0AB
:103A80002823392381E0232B69F409C0FC013296F5
:103A900008962191621729F0E817F907D1F780E01D
:103AA000089581E008959C01FC0132969FEF80E02B
:103AB0004191461789F09F3F19F4411101C0982F99
:103AC0008F5F8630A9F79F3F39F0F901E90FF11DAB
:103AD00097FDFA956283089508959C012A5F3F4FF0
:103AE000FC014281461301C012820196821793079E
:103AF000B9F70895262F2695269526952E3168F438
:103B0000FC01E20FF11D677021E030E001C0220FDF
:103B10006A95EAF78281282B22830895262F26951D
:103B2000269526952E3170F4FC01E20FF11D677089
:103B300021E030E001C0220F6A95EAF720958281EA
:103B400028232283089520912B01222329F02091FC
:103B5000580327FD0C947A1D0C94531D20912B01C2
:103B6000222329F02091580327FD0C948E1D0C94DC
:103B70006D1D20912B01FC013296222331F08091A2
:103B8000580387FF02C08EE101C086E0DF011D926D
:103B90008A95E9F7089508950C94CB1D0C94CB1DDC
:103BA000CF930E94CE1D0E9421060E94CC1DC0E032
:103BB0008C2F0E94D005811104C0CF5FC630C1F7A1
:103BC00001C081E0CF9108950C94CB1D0C94E41DAD
:103BD0000E94E61D80915E03843049F11092D40268
:103BE00020E488E190E00FB6F894A89580936000F7
:103BF0000FBE2093600080E00E94B9030E94E61D82
:103C000083B7817F846083BF83B7816083BF7894EB
:103C1000889583B78E7F83BF0FB6F894A89580915F
:103C20006000886180936000109260000FBE08956C
:103C30000C94CB1D0E94D9150E94CA100E94B90392
:103C40000C94181E1F920F920FB60F9211248F938F
:103C50009F93AF93BF938091D402811113C0809141
:103C6000540390915503A0915603B0915703419688
:103C7000A11DB11D8093540390935503A093560347
:103C8000B0935703BF91AF919F918F910F900FBE4B
:103C90000F901F90189582E084BD93E095BD9AEF38
:103CA00097BD80936E0008952FB7F89480915403C8
:103CB00090915503A0915603B09157032FBF0895DB
:103CC0009C014FB7F8948091540390915503A091B3
:103CD0005603B09157034FBF821B930B08957894FE
:103CE0001F920F920FB60F9211248F939F93AF9351
:103CF000BF938091540390915503A0915603B091C6
:103D000057030196A11DB11D809354039093550351
:103D1000A0935603B0935703BF91AF919F918F919A
:103D20000F900FBE0F901F90189587E797E790931D
:103D30000108809300089AE088E10FB6F894A895EE
:103D4000809360000FBE90936000FFCF0C94591CCD
:103D50000E9421068FE39CE90197F1F700C0000063
:103D60000E94210680E00E94D00580FF04C00E94CE
:103D7000A61E0C94951E08950E945F1C811102C01E
:103D80000E94061D0E946A1C8093D3020E94721C2E
:103D900090935903809358030E946E1C682F70E023
:103DA00080E090E00E94D2196091A6027091A70273
:103DB0008091A8029091A9020C940A1A8091DB02CA
:103DC00080FF0BC060911E0185E0689FB001112447
:103DD00075956795759567952BC081FF09C06091B2
:103DE0001E0185E0689FB00111247595679520C07C
:103DF00082FF07C060911E0185E0689FB001112419
:103E000017C09091DA029923D1F060911D019617A5
:103E100088F720911E0185E0289F90011124929F30
:103E2000A001939F500D112470E0CA010E948628C2
:103E30006038710540F46115710519F406C065E03C
:103E400070E0862F08958FE7089581E008958091AE
:103E5000DB0280FF08C060911A0170E075956795DC
:103E60007595679521C081FF06C060911A0170E0C9
:103E70007595679519C082FF04C060911A0170E0C2
:103E800010C09091D902992399F060911901961769
:103E9000A0F780911A01899FC001112470E00E944F
:103EA00086286038710540F46115710519F406C063
:103EB00061E070E0862F08958FE7089581E008950E
:103EC000803F21F40E94DE1E819504C0813F29F4C9
:103ED0000E94DE1E8093DF020895823F21F40E943B
:103EE000DE1E819504C0833F29F40E94DE1E80936C
:103EF000DE020895893F19F40E94271F05C08A3FFA
:103F000031F40E94271F81958093E00208958B3F32
:103F100021F40E94271F819504C08C3F29F40E9440
:103F2000271F8093E1020895843F21F48091DD02F0
:103F3000816017C0853F21F48091DD02826011C04D
:103F4000863F21F48091DD0284600BC0873F21F41D
:103F50008091DD02886005C0883F31F48091DD02E8
:103F600080618093DD0208958D3F21F48091DB0212
:103F700081600BC08E3F21F48091DB02826005C01E
:103F80008F3F29F48091DB0284608093DB020895E7
:103F9000803F39F48091DF0287FF6AC01092DF0210
:103FA00067C0813F29F48091DF021816BCF360C01E
:103FB0009091DE02823F29F497FF5AC01092DE02F0
:103FC00057C0833F19F41916CCF352C09091E00208
:103FD000893F31F419160CF04BC01092E00248C032
:103FE0008A3F19F497FF44C0F8CF8B3F39F4809192
:103FF000E10287FF3DC01092E1023AC08C3F29F4F4
:104000008091E1021816BCF333C0843F21F4809103
:10401000DD028E7F17C0853F21F48091DD028D7F08
:1040200011C0863F21F48091DD028B7F0BC0873F5A
:1040300021F48091DD02877F05C0883F31F48091B3
:10404000DD028F7E8093DD0213C08D3F21F48091CD
:10405000DB028E7F0BC08E3F21F48091DB028D7FCF
:1040600005C08F3F29F48091DB028B7F8093DB02B8
:104070008091DE02811106C08091DF02811102C0B1
:104080001092DA028091E002811106C08091E10273
:10409000811102C01092D90208950E94541E2091ED
:1040A000DE02211104C02091DF02222321F090932F
:1040B000D8028093D7022091E002211104C0209100
:1040C000E102222321F09093D6028093D5028CED59
:1040D00092E00C94F010EF92FF920F931F93CF9306
:1040E000DF9300D000D000D0CDB7DEB786E0ECED96
:1040F000F2E0DE01119601900D928A95E1F7E090D1
:10410000DE02F090DF020091E0021091E1021092D5
:10411000DE021092DF021092E0021092E102E11042
:1041200003C0FF2009F45DC08091D7029091D802AE
:104130000E94601EAC019091DA02992339F020911F
:104140001F0130E02417350758F04BC020912001A3
:104150008AE0289F900111242417350718F041C0E8
:104160009F3F19F09F5F9093DA02EE2061F00E946A
:10417000DE1E1E1414F09FEF01C091E0989F902D59
:1041800011249093DE02FF2061F00E94DE1E1F14B6
:1041900014F09FEF01C091E0989F902D112490930F
:1041A000DF023091DE023323E1F02091DF0222238F
:1041B000C1F045EB3403C0011124992319F0909309
:1041C000DE0203C081E08093DE0235EB2303C001F1
:1041D0001124992319F09093DF0203C081E08093AA
:1041E000DF02011103C0112309F45DC08091D502E3
:1041F0009091D6020E94601EAC019091D902992341
:1042000039F020911B0130E02417350758F04BC0DE
:1042100020911C018AE0289F900111242417350762
:1042200018F041C09F3F19F09F5F9093D90200237F
:1042300061F00E94271F101614F09FEF01C091E05B
:10424000989F902D11249093E002112361F00E9419
:10425000271F111614F09FEF01C091E0989F902D39
:1042600011249093E1023091E0023323E1F0209198
:10427000E1022223C1F045EB3403C001112499234C
:1042800019F09093E00203C081E08093E00235EBE7
:104290002303C0011124992319F09093E10203C074
:1042A00081E08093E1028091DE0281110BC0809158
:1042B000DF02811107C08091E002811103C080916B
:1042C000E10281110E944D20EB82FC820D831E834E
:1042D00086E0FE013196ACEDB2E001900D928A9538
:1042E000E1F726960FB6F894DEBF0FBECDBFDF9183
:1042F000CF911F910F91FF90EF900895ECEDF2E0B8
:1043000086E0DF011D928A95E9F71092DA02109299
:10431000D9021092DB020895809102030895CF9391
:10432000DF9300D01F92CDB7DEB790915E0394303B
:1043300019F589837B836A8382E08093E9008FEF9C
:104340009091E800815095FD06C095ED9A95F1F7A2
:1043500000008111F5CF8091E80085FF0DC040E09D
:1043600050E063E070E0CE0101960E94BA23809194
:10437000E8008E778093E8000F900F900F90DF9108
:10438000CF910895BC0184E00C948F21BC0183E09F
:104390000C948F2122E02093E9002FEF3091E80068
:1043A000215035FD06C035ED3A95F1F70000211199
:1043B000F5CF2091E80025FF0BC040E050E066E01B
:1043C00070E00E94BA238091E8008E778093E80025
:1043D0000895CF93DF9320912B01222339F0209170
:1043E000580327FF03C060E222E002C068E021E03A
:1043F0002093E9002FEF3091E800215035FD06C0F1
:1044000035ED3A95F1F700002111F5CF2091E80044
:1044100025FF1DC0EC0180912B01811105C040E0FA
:1044200050E068E070E003C070E040E050E0CE0192
:104430000E94BA238091E8008E778093E80080E2A2
:10444000FE01A2EEB2E001900D928A95E1F7DF91B4
:10445000CF91089580915D03811109C00E944B2581
:104460000E94A8258091E20084608093E200089574
:1044700010925D030895089508950C941A1E42E069
:1044800061EC81E00E94C42442E261EC82E00C9481
:10449000C42480916003833009F460C030F481301B
:1044A00071F0823009F499C008958A3009F485C00A
:1044B0008B3009F46BC0893009F0A7C020C080910F
:1044C0005F03813A09F0A1C08091E800877F809363
:1044D000E8008091630390916403892B21F460E2EA
:1044E00082EE92E003C060E080E090E070E00E9425
:1044F00005248091E8008B778093E80008958091EF
:104500005F03813209F081C080916303909164035D
:10451000029708F07AC08091E800877F8093E800D6
:104520008091E80082FD05C080915E038111F8CF83
:104530006CC02091F3008091F20090E0922B0297E2
:1045400029F48091F1008B7F813021F48091F1007A
:10455000809302038091E8008B7753C080915F03C2
:10456000813A09F052C08091630390916403892BD2
:1045700009F04BC08091E800877F8093E80080912C
:10458000E80080FFFCCF80912B0136C080915F0353
:104590008132D9F58091630390916403892BA9F549
:1045A0008091E800877F8093E8000E94F924809141
:1045B000610380932B010C94D91580915F038132A4
:1045C00021F58091E800877F8093E8000E94F9241C
:1045D0008091620380930303089580915F03813A81
:1045E000A1F48091E800877F8093E8008091E80043
:1045F00080FFFCCF809103038093F1008091E8005D
:104600008E778093E8000C94F924089584B7877F0F
:1046100084BF0FB6F894A89580916000886180935C
:104620006000109260000FBE90E080E80FB6F89432
:1046300080936100909361000FBE0E9442110E941E
:104640004B250E94A8258091E20084608093E200BF
:1046500078940E943D280E94481181E291E00E94D6
:10466000C51080915E03853069F40E94E81D809139
:104670005C038823B1F30E94D01D882391F30E942C
:10468000A423EFCF0E9452110E9436110E943511CF
:10469000E8CF0C944B23292F332723303105C9F061
:1046A00060F42130310581F02230310509F044C039
:1046B0008BE390E02AE234E043C021323105E1F09F
:1046C0002232310549F138C082E190E025E634E03C
:1046D00037C099278130910549F028F0029761F59C
:1046E000E6EEF3E005C0E6E2F4E002C0E2E0F4E06A
:1046F000849190E09F0124C06115710541F0613003
:104700007105D1F489E090E025E534E019C089E035
:1047100090E02CE334E014C06115710541F0613084
:10472000710551F48CEB90E027E734E009C080E498
:1047300090E023E335E004C080E090E020E030E04A
:10474000FA0131832083089580E189BD82E189BD2A
:1047500009B400FEFDCF8091D8008F7D8093D800F2
:104760008091E00082608093E0008091E00081FD14
:10477000FCCF0895CF92DF92EF92FF920F931F9399
:10478000CF93DF93EC018B017A010E9418258111F0
:1047900033C0E114F10439F0F70180819181081BE5
:1047A000190BC80FD91FC12CD12C0115110519F1F6
:1047B0008091E80085FD16C08091E8008E77809397
:1047C000E800E114F10449F0F70180819181C80EFD
:1047D000D91ED182C08285E00FC00E94182588238F
:1047E00021F30AC089918093F10001501109FFEF74
:1047F000CF1ADF0ADACF80E0DF91CF911F910F91BE
:10480000FF90EF90DF90CF90089520916503309155
:1048100066032617370748F06115710539F42091B2
:10482000E8002E772093E80001C0B901FC0120E0E8
:104830006115710579F180915E038823F1F185306E
:10484000F1F18091E80083FD3CC08091E80082FD99
:104850002EC08091E80080FFEBCF2091F300809183
:10486000F20090E0922B6115710551F088309105AE
:1048700038F421912093F100615071090196F3CF32
:1048800021E0089709F020E08091E8008E7780937E
:10489000E800CECF2111CFCF0AC080915E038823DC
:1048A00061F0853061F08091E80083FD0AC080915D
:1048B000E80082FFF2CF80E0089582E0089583E06F
:1048C000089581E0089520916503309166032617CD
:1048D000370748F06115710539F42091E8002E770B
:1048E0002093E80001C0B901FC0120E061157105C9
:1048F00091F180915E03882309F440C0853009F46A
:104900003FC08091E80083FD3DC08091E80082FDBA
:104910002FC08091E80080FFE9CF2091F3008091C3
:10492000F20090E0922B6115710559F088309105E5
:1049300040F424912093F100319661507109019661
:10494000F2CF21E0089709F020E08091E8008E770F
:104950008093E800CBCF2111CCCF0AC080915E03B9
:10496000882361F0853061F08091E80083FD0AC002
:104970008091E80082FFF2CF80E0089582E0089500
:1049800083E0089581E00895982F973068F590931B
:10499000E900981739F07091EC002091ED005091EA
:1049A000F00003C0242F762F50E021FD02C09F5F4E
:1049B000ECCF3091EB003E7F3093EB003091ED0077
:1049C0003D7F3093ED003091EB0031603093EB0090
:1049D0007093EC002093ED005093F0002091EE00D6
:1049E00027FDE5CF80E008958F708093E90081E096
:1049F000089580915F0387FF11C08091E80082FDD8
:104A000005C080915E038111F8CF11C08091E8004C
:104A10008B770BC080915E03882349F08091E8007A
:104A200080FFF8CF8091E8008E778093E8000895AA
:104A30002091E4003091E50095E64091EC00842F50
:104A4000817040FF23C08091E80080FD1DC08091EF
:104A50005E03882399F0853099F08091EB0085FD05
:104A600011C04091E4005091E5002417350729F367
:104A7000915011F09A01E1CF84E0089582E0089509
:104A800083E0089581E0089580E008954091E80072
:104A900042FFDDCF08950E94B9250E94C125E0EEB6
:104AA000F0E0808181608083E8EDF0E080818F77A5
:104AB000808319BCA7EDB0E08C918E7F8C938081B0
:104AC0008F7E808310925D0308950F931F93CF9381
:104AD000DF930E94B9250E94C125C8EDD0E08881EE
:104AE0008F77888388818068888388818F7D888399
:104AF00019BC10925E0310925A0310925C0310923C
:104B00005B0300EE10E0F80180818B7F8083888159
:104B10008160888342E060E080E00E94C424E1EE8E
:104B2000F0E080818E7F8083E2EEF0E08081816022
:104B30008083808188608083F80180818E7F80837C
:104B4000888180618883DF91CF911F910F910895B3
:104B5000E8EDF0E080818F7E8083E7EDF0E08081FA
:104B60008160808384E082BF81E080935D030C9448
:104B70006525E8EDF0E080818E7F80831092E20071
:104B800008951092DA001092E10008951F920F929A
:104B90000FB60F9211242F933F934F935F936F9310
:104BA0007F938F939F93AF93BF93EF93FF938091E6
:104BB000E10082FF0BC08091E20082FF07C080917C
:104BC000E1008B7F8093E1000E943C288091DA0015
:104BD00080FF1FC08091D80080FF1BC08091DA0049
:104BE0008E7F8093DA008091D90080FF0DC080E134
:104BF00089BD82E189BD09B400FEFDCF81E08093CB
:104C00005E030E942A2205C019BC10925E030E9416
:104C100038228091E10080FF19C08091E20080FF7E
:104C200015C08091E2008E7F8093E2008091E200C7
:104C300080618093E2008091D80080628093D800E8
:104C400019BC85E080935E030E943C228091E100C4
:104C500084FF30C08091E20084FF2CC080E189BDD8
:104C600082E189BD09B400FEFDCF8091D8008F7D1F
:104C70008093D8008091E1008F7E8093E100809145
:104C8000E2008F7E8093E2008091E2008160809359
:104C9000E20080915A03882311F084E007C08091DC
:104CA000E30087FD02C081E001C083E080935E03E2
:104CB0000E943D228091E10083FF29C08091E200A3
:104CC00083FF25C08091E100877F8093E10082E02F
:104CD00080935E0310925A038091E1008E7F80934F
:104CE000E1008091E2008E7F8093E2008091E200FB
:104CF00080618093E20042E060E080E00E94C42492
:104D00008091F00088608093F0000E943B22FF9128
:104D1000EF91BF91AF919F918F917F916F915F9133
:104D20004F913F912F910F900FBE0F901F901895AC
:104D30001F920F920FB60F9211242F933F934F9310
:104D40005F936F937F938F939F93AF93BF93CF9313
:104D5000DF93EF93FF93C091E900CF708091EC0057
:104D6000D82FD17080FDD0E81092E9008091F0003A
:104D7000877F8093F00078940E94DC261092E900EF
:104D80008091F00088608093F000CD2BCF70C093AD
:104D9000E900FF91EF91DF91CF91BF91AF919F918A
:104DA0008F917F916F915F914F913F912F910F90D4
:104DB0000FBE0F901F9018951F93CF93DF93CDB721
:104DC000DEB7AA970FB6F894DEBF0FBECDBFEFE5F2
:104DD000F3E08091F100819323E0E736F207C9F711
:104DE0000E9449228091E80083FF2EC180915F03D9
:104DF00090916003492F50E04A30510508F024C1DA
:104E0000FA01E857FF4F0C94BC28803821F0823813
:104E100009F01AC108C080915B0390915C0399234B
:104E200089F082600FC0809163038F70873008F033
:104E30000BC18093E9008091EB0085FB882780F906
:104E40001092E9009091E800977F9093E80080939A
:104E5000F1001092F100D1C0282F2D7F09F0F4C08D
:104E6000882319F0823061F0EFC0809161038130B6
:104E700009F0EAC0933009F080E080935C032EC013
:104E80008091610381112AC0809163038F702FEF9D
:104E9000280F263008F0D8C08093E9002091EB005D
:104EA00020FF1CC0933021F48091EB00806214C07D
:104EB0009091EB0090619093EB0021E030E0A9012C
:104EC00002C0440F551F8A95E2F74093EA00109202
:104ED000EA008091EB0088608093EB001092E9007B
:104EE0008091E800877F8093E8000E94F924ACC09D
:104EF0008111AAC0109161031F778091E30080782F
:104F0000812B8093E3008091E800877F8093E80005
:104F10000E94F9248091E80080FFFCCF8091E3009B
:104F200080688093E300111102C082E001C083E039
:104F300080935E0389C08058823008F085C08091DC
:104F40006103909162038C3D53E0950779F583E00E
:104F50008A838AE289834FB7F894DE01139620E0B2
:104F60003EE051E2E32FF0E050935700E49120FF40
:104F700003C0E295EF703F5FEF708E2F90E0EA3054
:104F800010F0C79601C0C0968D939D932F5F24317A
:104F900049F74FBF8091E800877F8093E8006AE27D
:104FA00070E0CE0101960E94052416C06091630353
:104FB00070916403AE014F5F5F4F0E944923BC01B3
:104FC000892B09F441C09091E800977F9093E80005
:104FD00089819A810E9463248091E8008B77809375
:104FE000E80032C0803881F58091E800877F8093A7
:104FF000E80080915A038093F1008091E8008E7759
:1050000072CF811121C08091610390916203992731
:105010000297D4F48091E800877F8093E800809124
:10502000610380935A030E94F92480915A038111ED
:1050300006C08091E30087FD02C081E001C084E0EA
:1050400080935E030E943F228091E80083FF0AC0A4
:105050008091E800877F8093E8008091EB00806278
:105060008093EB00AA960FB6F894DEBF0FBECDBFBB
:10507000DF91CF911F9108950895CF9380915E03A2
:105080008823A1F0C091E900CF709091EC00892FA6
:10509000817090FD80E8C82B1092E9008091E800B3
:1050A00083FD0E94DC26CF70C093E900CF91089564
:1050B000991B79E004C0991F961708F0961B881F6A
:1050C0007A95C9F78095089587FB082E062687FDF7
:1050D000819567FD61950E9458280EF4919507FC13
:1050E00081950895AA1BBB1B51E107C0AA1FBB1FD6
:1050F000A617B70710F0A61BB70B881F991F5A9564
:10510000A9F780959095BC01CD01089597FB072ED6
:1051100016F4009407D077FD09D00E94722807FC8E
:1051200005D03EF4909581959F4F089570956195B7
:105130007F4F0895A1E21A2EAA1BBB1BFD010DC0D3
:10514000AA1FBB1FEE1FFF1FA217B307E407F50737
:1051500020F0A21BB30BE40BF50B661F771F881F13
:10516000991F1A9469F760957095809590959B01A9
:10517000AC01BD01CF010895EE0FFF1F0590F49122
:10518000E02D09940E94CA28332312F48A1B9B0B3A
:105190000C94DB28A29FB001B39FC001A39F700DA8
:1051A000811D1124911DB29F700D811D1124911D2F
:1051B00008950E94CA28B7FF0895821B930B089593
:1051C0000E94CA28A59F900DB49F900DA49F800DAA
:1051D000911D11240895B7FF0C94E0280E94E02847
:1051E000821B930B08958F929F92AF92BF92CF92A2
:1051F000DF92EF92FF92CF93DF93EC016881798188
:105200008A819B81611571058105910521F464E214
:1052100079ED8BE597E02DE133EF41E050E00E941E
:10522000A42949015A019B01AC01A7EAB1E40E94FB
:10523000E0286B017C01ACEEB4EFA50194010E9463
:10524000EE28DC01CB018C0D9D1DAE1DBF1DB7FFEF
:1052500003C00197A109B04888839983AA83BB83BF
:105260009F77DF91CF91FF90EF90DF90CF90BF902D
:10527000AF909F908F9008950E94F328089580E04A
:1052800091E00E94F3280895A0E0B0E0809300012F
:1052900090930101A0930201B09303010895FC01D2
:1052A0004150504030F001900616D1F73197CF01B0
:1052B0000895882799270895F999FECF92BD81BD59
:1052C000F89A992780B50895A6E1B0E044E050E04F
:1052D0000C949629A8E1B0E042E050E00C949629A5
:1052E000262FF999FECF92BD81BDF89A019700B49F
:1052F000021639F01FBA20BD0FB6F894FA9AF99A3F
:105300000FBE08950396272F0E9471290E947029CD
:10531000252F0E947129242F0C9471290196272F83
:105320000E9471290C947029DC01CB01FC01F999D0
:10533000FECF06C0F2BDE1BDF89A319600B40D92E1
:1053400041505040B8F70895052E97FB1EF4009485
:105350000E94BB2957FD07D00E949A2807FC03D062
:105360004EF40C94BB2950954095309521953F4FB4
:105370004F4F5F4F089590958095709561957F4F41
:0A5380008F4F9F4F0895F894FFCF60
:10538A0001000000010102001500151501191A1B80
:10539A001C1D1E1F202122B0022808641E140A3276
:1053AA001E8C21E921CA21C621C22101E200E9009D
:1053BA00EA00B500B600B700CD008301CC008A012F
:1053CA0092019401210223022402250226022702C5
:1053DA002A02B300B4006F00700081828334939272
:1053EA00F535F697F49466C691900001020202021E
:1053FA000606060909090909090F0F0F0F0F0F15EC
:10540A0015151819191919191919191919232425EA
:10541A002525252525E200E900EA00B500B600B7F2
:10542A0000CD008301CC008A01920194012102235C
:10543A000224022502260227022A02B300B4006FC0
:06544A0000700081828366
:00000001FF
