:100000000C9443030C948A030C948A030C948A0383
:100010000C948A030C948A030C948A030C948A032C
:100020000C948A030C948A030C94CE2A0C94A22B71
:100030000C9483220C948A030C948A030C948A03F4
:100040000C948A030C948A030C948A030C948A03FC
:100050000C948A030C94DA220C948A030C948A037D
:100060000C948A030C948A030C948A030C948A03DC
:100070000C948A030C948A030C948A030C948A03CC
:100080000C948A030C948A030C948A030C948A03BC
:100090000C948A030C948A030C948A030C948A03AC
:1000A0000C948A030C948A030C948A0314001A009B
:1000B0000800150017001C001800040016000700B7
:1000C00009000A000B000D001D001B0006001900AE
:1000D000050011001000E000E200E3002A002C00FF
:1000E000E600E7000C00120013003600E4000000F8
:1000F00000000E000F002800370000000000000084
:1001000001000100010001000100010001000100E7
:1001100001000100010001000100010001000100D7
:1001200001000100010001000100010001000100C7
:1001300001000100010001000100010001000100B7
:1001400001000000000001000100010001000000AA
:100150000000000001000100010001000100010099
:100160000100010001000100010001000100010087
:100170000100010001000100010001000100010077
:100180000100010001000100010001000100010067
:100190000100010001000000000001000100010059
:1001A000010000000000000001000100010001004A
:1001B0000100010001000100010001000100010037
:1001C0000100010001000100010001000100010027
:1001D0000100010001000100010001000100010017
:1001E0000100010001000100010000000000010009
:1001F00001000100010000000000000000000000FC
:10020000000000002A2B2800000000000000000071
:100210000000000000000029000000002C1E342017
:10022000212224342627252E362D3738271E1F203D
:100230002122232425263333362E37381F04050682
:100240000708090A0B0C0D0E0F10111213141516C6
:100250001718191A1B1C1D2F3130232D35040506C4
:100260000708090A0B0C0D0E0F10111213141516A6
:100270001718191A1B1C1D2F3130354C00000000B7
:10028000000000000000000000000000000000006E
:100290007E0F00D4FFFFFFC70000007832190A006C
:1002A000047F3F1F643214643214783C1E1E140A0B
:1002B000052223252628292A2C2D2F3032333536A6
:1002C000383A3B3D3E4042434547494A4C4E5051E7
:1002D000535557595A5C5E6062646668696B6D6F0E
:1002E00071737577797B7D7F81838587898A8C8E11
:1002F00090929496989A9C9E9FA1A3A5A7A8AAAC19
:10030000AEAFB1B3B4B6B8B9BBBCBEBFC1C2C3C552
:10031000C6C7C9CACBCCCDCED0D1D2D2D3D4D5D6F4
:10032000D7D7D8D9D9DADADBDBDBDCDCDCDCDCDD27
:10033000DDDDDDDCDCDCDCDCDBDBDBDADAD9D9D80B
:10034000D7D7D6D5D4D3D2D2D1D0CECDCCCBCAC9A3
:10035000C7C6C5C3C2C1BFBEBCBBB9B8B6B4B3B1D2
:10036000AFAEACAAA8A7A5A3A19F9E9C9A9896946D
:1003700092908E8C8A89878583817F7D7B79777542
:1003800073716F6D6B6968666462605E5C5A595721
:10039000555351504E4C4A4947454342403E3D3BE0
:1003A0003A3836353332302F2D2C2A29282625236A
:1003B00022FFAA7F55400001010101010101010155
:1003C0000202020202020202020303030303030306
:1003D00003040404040404040505050505060606D3
:1003E0000606070707070708080808090909090A90
:1003F0000A0A0B0B0B0C0C0C0D0D0D0E0E0E0F0F35
:100400000F101011111112121313141415151616C2
:100410001717181819191A1A1B1B1C1D1D1E1E1F31
:100420002020212222232424252626272829292A80
:100430002B2C2D2D2E2F30313232333435363738A8
:10044000393A3B3C3D3E3F404142434445464748A4
:10045000494A4C4D4E4F50515354555658595A5B7A
:100460005D5E5F616264656668696B6C6D6F70721A
:10047000737577787A7B7D7E8082838587888A8C86
:100480008E8F91939596989A9C9EA0A2A3A5A7A9BA
:10049000ABADAFB1B3B5B7BABCBEC0C2C4C6C9CBB1
:1004A000CDCFD1D4D6D8DBDDDFE2E4E7E9EBEEF067
:1004B000F3F5F8FAFDFF1A03710061007A002000DD
:1004C0006B006500790062006F00610072006400DB
:1004D0000000220377006800790064006F0062006A
:1004E00065006100720073006500780070006C00A8
:1004F0006F00640000000403090409025B000301AB
:1005000000A0FA0904000001030101000921110102
:1005100000012240000705810308000A09040100C8
:100520000203000000092111010001222200070539
:1005300082032000010705030320000109040200D3
:10054000010300000009211101000122BC00070580
:10055000840320000A120110010000000831740118
:10056000000100010200010660FF0961A1010962AA
:10057000150026FF009520750881020963150026E5
:10058000FF00952075089102C005010902A10185AF
:10059000020901A100050919012905150025019588
:1005A0000575018102950175038101050109300975
:1005B000311581257F950275088106093815812539
:1005C0007F950175088106050C0A38021581257F83
:1005D000950175088106C0C005010980A101850348
:1005E00019012AB700150126B70095017510810081
:1005F000C0050C0901A101850419012AA0021501F9
:1006000026A002950175108100C005010906A1010F
:100610008505050719E029E71500250195087501ED
:1006200081020507190029EF1500250195F07501D4
:1006300081020508190129059505750191029501A9
:1006400075039101C005010906A101050719E029FB
:10065000E71500250195087501810295017508814E
:10066000010507190029FF150026FF0095067508EA
:10067000810005081901290595057501910295016B
:1006800075039101C00011241FBECFEFDAE0DEBF79
:10069000CDBF04B603FE27C0809177039091780305
:1006A000A0917903B0917A038730904BA740B04B6B
:1006B000D1F410927703109278031092790310927C
:1006C0007A0314BE84B7877F84BF0FB6F894A895C9
:1006D00080916000886180936000109260000FBE7E
:1006E000E0E0F8E3099511E0A0E0B1E0EEE2FEE51C
:1006F00002C005900D92A63DB107D9F723E0A6ED03
:10070000B1E001C01D92A737B207E1F70E9494271C
:100710000C94C62E0C94000081E0089581E00895A9
:100720000C948E0308950C9492031F93CF93DF9340
:1007300000D000D00F92CDB7DEB749835A836B83C8
:1007400030915F0289819A8131111DC06623B9F011
:100750002223A9F00E947E1F182F682F89819A8179
:100760000E942A1F69817A81812F0F900F900F902C
:100770000F900F90DF91CF911F910C94CB120E949C
:10078000561F182FEFCF0E947E1F69817A81EDCF0F
:10079000FC01262F408151816281738184810C94F8
:1007A0009503CF93DF93EC0160E00E94C803BE0184
:1007B000DF91CF910C949303FF920F931F93CF93EC
:1007C000DF93E82FF0E0E450FE4FF490C82FC69579
:1007D000C695C695D0E0FE01E457FD4F04918770A1
:1007E00010E0082E02C0159507950A94E2F70170F3
:1007F0001127C458DD4FFE01C491D0E002C0D59549
:10080000C7958A95E2F7C170DD270115110519F02A
:1008100081EE0E941A17209719F086EE0E941A178F
:100820008F2D0E940218CD2B19F086EE0E94AC1776
:10083000012B41F081EEDF91CF911F910F91FF903D
:100840000C94AC17DF91CF911F910F91FF900895F9
:10085000EF92FF920F931F93CF93DF93EC01162F2C
:100860000AE08881882309F454C0813009F04EC021
:100870008981813099F47E0122E0E20EF11C8A81A7
:100880000E940218E7012196812F815050F3EFE971
:10089000FFE03197F1F700C00000F7CF823041F45C
:1008A0007E0182E0E80EF11C8A810E941A17EACFCD
:1008B000833041F47E01E2E0EE0EF11C8A810E9459
:1008C000AC17E0CF843011F02196DDCF2A8122963B
:1008D00090E080E0AE014F5F5F4F2053330B2A3032
:1008E000310548F0019778F2EFE9FFE03197F1F731
:1008F00000C00000F7CF089FB001099F700D1124C0
:10090000C901860F971F2981EA01E4CF0E94DC0309
:10091000BACFDF91CF911F910F91FF90EF90089583
:1009200060E00C9428048F929F92AF92BF92CF9276
:10093000DF92EF92FF920F931F936B017C0181E096
:1009400090E0A0E0B0E04C015D0104C0880C991C6F
:10095000AA1CBB1C4A95D2F7B501A4014C015D014C
:1009600004C0880C991CAA1CBB1C2A95D2F74829E4
:1009700059296A297B2904C0880F991FAA1FBB1F08
:100980000A95D2F78A019B010C211D212E213F21BE
:10099000041715072607370789F48C299D29AE29E6
:1009A000BF29BC01CD011F910F91FF90EF90DF9007
:1009B000CF90BF90AF909F908F9008958095909525
:1009C000A095B0958C219D21AE21BF21EACF0F9338
:1009D000382F262F6091B6027091B7028091B8022D
:1009E0009091B902042F432F0E9493040F910C940D
:1009F000681E0E9411230E94C820811102C00E941B
:100A00006C210C9468070C946B0708950E94911A4E
:100A10000E9405052FEF84E39CE021508040904028
:100A2000E1F700C000000C94FE220F931F93CF93B8
:100A3000DF93EC0161E00E94C8038C01BE010E94BB
:100A4000A010882389F1BE01C8010E949003882369
:100A500059F1BE01C8010E942114882329F1BE0169
:100A6000C8010E9473148823F9F0BE01C8010E94D6
:100A700096158823C9F0BE01C8010E94AD0F8823D6
:100A800099F08A81882339F001158CE5180751F017
:100A90000F3D1C4579F0CE01DF91CF911F910F9151
:100AA0000C948C030E94060580E0DF91CF911F918A
:100AB0000F9108950E946C21F7CF08950C945D0565
:100AC00081E008950C946005CF93C82F0E945E05C5
:100AD0008C2FCF910C94620590E080E008950895EA
:100AE000FC01EE0FFF1FE456FD4F85919491089590
:100AF000CF93DF930E94CB120E948D06EC018115EB
:100B000020E5920708F042C0811530E4930708F011
:100B1000BDC0883E910528F5803E910508F09DC036
:100B2000883A910588F4853A910508F08FC08130A4
:100B3000910509F492C0009709F48FC0049708F05A
:100B40008CC0D0E0C0E089C08F3B910508F489C01B
:100B5000805C9109C03CD105A0F30E947005EC01B6
:100B60007CC08115904250F4C11581E0D80708F08F
:100B700074C0C03FD10528F3D0656FC0C11590E3A4
:100B8000D90708F079C0CE019F70E7CF811525E520
:100B9000920758F5811534E5930708F0A6C0811532
:100BA00042E5940750F4C11581E5D80708F471C0F7
:100BB000DC2FCC27C16FD06A50C0982F96959695A0
:100BC0009E0123703327C115D34508F07FC0C1E0D3
:100BD000D0E002C0CC0FDD1F2A95E2F720E2929F01
:100BE000C0011124C82BD92B6FC0C11589E5D807C6
:100BF000A8F4C11598E5D90708F07CC0C11526E511
:100C0000D20708F09ECF8C2F0E942407C82FD0E077
:100C1000DC2FCC27CC27DF71D0621FC0C1153AE58D
:100C2000D30708F46CC0CE0190568115904208F0AD
:100C300088CF8D2F8F710E94240790E0982F8827EE
:100C400088279F719C012C2BE901E6CFC55AD0E083
:100C5000C65ADE4FC881D0E0D064CE01DF91CF917B
:100C60000895C85AD0E0CC0FDD1FC45DDE4F099057
:100C7000D881C02DD464F1CFCE019927D3FF03C012
:100C8000EC01D86CEACFEC01D06CE7CFDF70D06A12
:100C9000E4CFCE01E4E096958795EA95E1F783707D
:100CA0002C2F26952695237090E2299F90011124E0
:100CB000382B8C2F8370C1E0D0E002C0CC0FDD1F39
:100CC0008A95E2F7C22BD32BDC68C7CFC1E0D0E016
:100CD00002C0CC0FDD1F2A95E2F730E2939FC001DE
:100CE0001124C82BD92BDA68B8CFD82FCC27C46FE2
:100CF000D06AB3CFDC2FCC27C06FD06AAECF8C2F99
:100D00008F700E94240734E0D695C7953A95E1F795
:100D1000CF709C2FEC01D069A0CF82389105B1F142
:100D2000B0F48133910509F475C048F48932910516
:100D300009F469C08A32910509F473C008958533B6
:100D4000910509F459C08933910501F10895833E55
:100D50009105A9F138F4803E9105F9F0823E9105A4
:100D600049F10895863E9105A9F1873E9105C9F1A3
:100D7000843E910519F52091690321FF1FC08091E0
:100D8000680384FD14C087EE90E008952091680305
:100D90002370A1F080EE90E008952091680320FD7B
:100DA00047C03091690330FF09C024FF44C090E080
:100DB00080E004C02091680322FDF7CF08952091C0
:100DC000680322FD3BC03091690330FDE3CF24FF6F
:100DD000F5CFEDCF2091680323FFF0CF24FDE7CFBF
:100DE000D2CF2091680323FD2CC03091690331FFDD
:100DF000EECF84EE90E008952091680325FFDECFCA
:100E000089E290E008952091680325FFD7CF85E31C
:100E100090E008952091680326FFD0CF8AE290E009
:100E200008952091680326FFC9CF81E390E00895DB
:100E300089E390E0089583EE90E0089582EE90E0DB
:100E4000089586EE90E008959091680392FF06C0A1
:100E5000282F28712830F9F4877F846093FF06C01B
:100E6000282F28712831F1F4877E8461209169034D
:100E700020FF06C0382F38713830D9F4877F816061
:100E800021FF06C0282F28712831D1F4877E816187
:100E900094FD877E0895282F24712430F9F68B7FE6
:100EA0008860DCCF282F2471243101F78B7E886184
:100EB000DDCF382F3171313019F78E7F8860E0CF68
:100EC000282F2171213121F78E7E8861E1CF08958D
:100ED0000C94670708950C946A07E82FF0E0E65E2B
:100EE000FC4F80810895089580EA8A95F1F708956E
:100EF000F894E82FE295EF70F0E031A1282F2F70E1
:100F000081E090E001C0880F2A95EAF7982F90952C
:100F1000932391A392A1892B82A3789408950F9390
:100F20001F93CF93DF9384EF0E94780784E90E9498
:100F3000780786E60E94780786EC0E94780781E9A8
:100F40000E94780780E90E947807CDE5D1E004E6A9
:100F500011E089910E9478070C171D07D1F7E4E191
:100F6000F3E0AAE1B3E011921D9283E0EA31F807C1
:100F7000D1F786E00E943708DF91CF911F910F9142
:100F80000C94F904CF92DF92EF92FF920F931F938C
:100F9000CF93DF93C4E6D1E004E113E0D12CEE243B
:100FA000E394F12C8991F894E82FE295EF70F0E04A
:100FB00021A18F70A70102C0440F551F8A95E2F747
:100FC000CA01922F982B91A392A18095892382A385
:100FD00078940E947407EDE5F1E030E020E0C12C48
:100FE0004191A42FA295AF70B0E090968C9190E0C3
:100FF0004F7002C0959587954A95E2F780FD33C002
:101000008E2D022E01C0880F0A94EAF7C82A2F5F9E
:101010003F4F2730310521F7FE01319780810E9433
:101020007807F8018081C81601F1C08281E0D82AD2
:101030000F5F1F4FF1E0CA36DF0709F0B3CF2D2D48
:1010400046E06AE173E084E193E00E9438080E9480
:1010500003058D2DDF91CF911F910F91FF90EF90A0
:10106000DF90CF90089580E0D1CF80E0E0CF089569
:10107000FF920F931F93CF93DF93F82E092F162F14
:10108000D72FC42F222349F081E08093D8010E94FA
:10109000B3229093D7018093D6018091D801882301
:1010A000A1F08091D6019091D7010E94CB220697A2
:1010B00060F0EF2DF02FA12FBD2FCE0FDF2FD11D10
:1010C000EC17FD0741F41092D801DF91CF911F91E9
:1010D0000F91FF90089581918D93F2CFEF92FF923F
:1010E0000F931F93CF93DF93EB01E82FD11110C023
:1010F000442321F0F0E0EA54FC4FE4916E2F7E2F60
:101100008E2FDF91CF911F910F91FF90EF90089557
:101110000D2F10E0282F30E0442329F02A543C4FB3
:10112000F901249130E0F6E0CF9FC0011124EFEFE8
:10113000F0E0BF010E946E2DAB018C2F90E0880F74
:10114000991FA5E5A49FB001A59F700D1124861BD2
:10115000970B982F990F980FBF01601B710B629F1F
:10116000D001639FB00D729FB00D11248B2F9D9FF6
:10117000B0011124672F7727EF01C61BD70BBE01E3
:10118000629FE001639FD00D729FD00D11247F01FB
:10119000E91AF108E09EB001E19E700DF09E700D1D
:1011A0001124672F7727E61BF70BE29F8001E39F4F
:1011B000100DF29F100D1124E12F722F42305105B6
:1011C00099F048F44115510569F04130510581F01D
:1011D000EB2F8D2F07C04430510569F080F0463069
:1011E0005105B1F76E2F8DCFE22F7B2F812FFACFD4
:1011F000E22F7D2FF7CFEB2F822F712FF3CF7B2F95
:10120000822FED2FEFCF41E00C946E0808950C94DF
:101210000309CF93DF93762FE901682F842F0E9473
:101220000709798368838A83DF91CF91089580913C
:101230002003982F9E7F29F4817082608093200381
:1012400008958635E8F381708465F8CF88E090E0F2
:101250000C94672ECF92DF92EF92FF926B017C018C
:101260000E941709B701A60188E090E0FF90EF9077
:10127000DF90CF900C94852E609120037091210314
:1012800080912203909123030C942A09E0E2F3E079
:1012900083E0808311828FEF828383831482608155
:1012A0007181828193810C942A098091200380FFAF
:1012B00002C08695089580E00895909124039330AC
:1012C00018F49F5F90932403882351F060912003CA
:1012D0007091210380912203909123030C942A0999
:1012E000089581E00C945D0990912403992319F0ED
:1012F000915090932403882351F0609120037091C2
:10130000210380912203909123030C942A090895CC
:1013100081E00C9474098091240308958093240340
:10132000662351F060912003709121038091220384
:10133000909123030C942A09089560E00C948E097F
:1013400080912103089580912203089580912303C1
:10135000089570E00C941D106091080180912003A5
:1013600080FF0AC08091070123E0829FC001112401
:101370008B5D9C4F0C94A9098091090190910A0101
:1013800023E0829FF0011124EB5DFC4F891750F799
:101390001182108212828F5F3396F8CF90912003D2
:1013A00090FF14C09091090120910A0133E0939FAE
:1013B000F0011124EB5DFC4F921710F00C94AC0976
:1013C0008183608342839F5F3396F6CF0895CF93E6
:1013D000DF9300D00F92CDB7DEB79091200390FF3E
:1013E0000AC09E012F5F3F4F0E9409094B8169810E
:1013F0008A810E94CE090F900F900F90DF91CF91BC
:101400000895CF93DF93EC01EC81F0E0EF54FD4FB2
:101410004491E0E2F3E0628181810E94E7098C81DE
:101420008F5F8C83DF91CF910895CF93DF93EC0191
:10143000E0E2F3E0438162818C810E94E7098C81C4
:101440008F5F8C83DF91CF9108950F931F93CF937C
:10145000DF9300D00F92CDB7DEB78C018091D90118
:1014600081110AC09E012F5F3F4F4FEF6FEF0E9427
:1014700009098A818093D901F8016481613069F09A
:101480008091D90140E0662361F040E0623011F4C0
:101490004091D90180E060E004C06091D90140E052
:1014A00080E00E94CE09F801848190E0019663E01B
:1014B00070E00E94822D84830F900F900F90DF9137
:1014C000CF911F910F910895AF92BF92CF92DF926B
:1014D000EF92FF920F931F93CF93DF9300D00F9261
:1014E000CDB7DEB7182FF62E042FE22E90912003F1
:1014F00090FF29C0E92FE695AE2FB0E0A659BE4F68
:101500008C9180934C029E7F923059F59E012F5F03
:101510003F4F812F0E9409094B8169818A810E9476
:10152000CE0910932103F092220300932303EE20AF
:1015300051F06091200370912103809122039091DA
:1015400023030E942A090F900F900F90DF91CF91F3
:101550001F910F91FF90EF90DF90CF90BF90AF90D1
:101560000895823019F400912303DBCF863019F4FB
:1015700010912103D6CF8930D9F3893191F6E95101
:101580008E2F8170D82EE695F0E0EF54FC4FA59099
:10159000B490C12CBB2460910B01C61618F00E94B8
:1015A000AC09BFCF2C2D30E0A29EC001A39E900DB0
:1015B000B29E900D112470E00E946E2D812FD110EB
:1015C00013C0860F40910901420F532F511D9A01FC
:1015D000220F331F240F351F2B5D3C4F402F6F2DE3
:1015E0000E940909C394D7CF861BECCFE0E2F3E059
:1015F0009181282F4381628188E0890F0C94640ACD
:1016000081E00C94F60AE0E2F3E09181282F438117
:10161000628188EF890F0C94640A81E00C94030BBB
:10162000E0E2F3E0628128E0620F08F46FEF282F18
:10163000438181810C94640A81E00C94100BE0E2F8
:10164000F3E0628128E0621B08F460E0282F438108
:1016500081810C94640A81E00C941F0BE0E2F3E0BA
:10166000438128E0420F08F44FEF282F62818181E7
:101670000C94640A81E00C942E0BE0E2F3E04381C9
:1016800028E0421B08F440E0282F628181810C94FD
:10169000640A81E00C943D0B20E00C94640AEF9204
:1016A000FF921F93CF93DF93EC0110E0EE24EA94B6
:1016B000F12C60910B01161770F00E94AC099A8111
:1016C0008C8190FF27C08F5F8C83DF91CF911F911A
:1016D000FF90EF90089520910901422F410F552767
:1016E000551FCA019A01220F331F280F391F2B5D86
:1016F0003C4F70E0C7010E94822D962F8C81409153
:10170000230360912203199F800D11240E9409096F
:101710001F5FCFCF8150D8CFAF92BF92CF92DF92D1
:10172000EF92FF920F931F93CF93DF93FC0182817F
:101730000FEF80FF01E010E045E1A42E80910B0146
:101740001817C8F00E94AC098091DB01013009F044
:1017500055C0811102C080910B0181508093DB0143
:10176000DF91CF911F910F91FF90EF90DF90CF907D
:10177000BF90AF900895C0910901C12ED12CCC0D1E
:10178000DD2DD11DCE01880F991FC80FD91FCB5D4C
:10179000DC4F198218821A8234E0E32EF12CB12C2E
:1017A0008091DB018B0D86311CF16A2D0E94602D2A
:1017B000892F082E000C990BC816D90691F4809138
:1017C00023038E9DA0018F9D500D112455954795A3
:1017D000559547959E0160912203809121030E94B7
:1017E0000909B00EF1E0EF1AF108D1F61F5FA6CF9C
:1017F00087FFDFCF90910B01890FDBCF90E001963F
:1018000060910B0170E00E94822DA8CF0F931F936F
:10181000CF93DF938091090190910A0123E0829F89
:10182000F0011124EB5DFC4F891740F1C0E0D3E0DB
:1018300060910B01C61740F10E94AC09209105018F
:101840008091DA01820F8093DA0190910601920F64
:1018500090930601191654F4082E000C990B409130
:101860000B014150550B841795071CF021952093CF
:101870000501DF91CF911F910F9108951182108280
:1018800012828F5F3396D0CF0C2F10E070E0C8012A
:101890000E94822D20910901820F482F50E0209153
:1018A000DA01022E000C330B02171307BCF0209153
:1018B0000601022E000C330B201731077CF08D9FA0
:1018C000900111242B5D3C4F409123036091220332
:1018D000809121030E940909CF5FAACFFA01EE0F80
:1018E000FF1FE40FF51FEB5DFC4F11821082128287
:1018F000F3CF8F929F92AF92BF92CF92DF92EF92EF
:10190000FF920F931F93CF93DF93EC014C81042F31
:1019100010E09801D8010E94CD2D9B01AC010E94DE
:10192000E32D4B015C01E0E2F0E0E01BF10BA5E5EB
:10193000B0E0AC019B010E94E32D6B017C019F0193
:10194000DF010E94C52D9B01AC010E94EE2D9B0181
:10195000AC01280D391D4A1D5B1DC701B6010E944F
:10196000962DF22E822F90E039E23F1560F143E090
:10197000249F9001112435952795122F109500E092
:1019800085E5E82EEF1880910B01081758F10E94A9
:10199000AC099C8181E0992319F0903219F48FEF02
:1019A0008093040180910401890F8C83DF91CF9192
:1019B0001F910F91FF90EF90DF90CF90BF90AF906D
:1019C0009F908F90089525E530E0B901681B790B51
:1019D0009B01220F331F260F371F37FFCCCF2F5FFE
:1019E0003F4FC9CF8E2D01FD8F2D20910901622F10
:1019F000600F7727771F9B01220F331F260F371F9A
:101A00002B5D3C4F412F609122030E9409090F5F1B
:101A1000BACF0F931F93CF93DF93EC0110E000E058
:101A200090910B019017110609F06CF40E94AC091B
:101A30008C8190E00196817099278C83DF91CF9102
:101A40001F910F91089520910901A801420F511D86
:101A50009A01220F331F240F351F2B5D3C4F4C8101
:101A6000609122038091210396959017110651F001
:101A70004CF0442349F0409123030E9409090F5F71
:101A80001F4FCECF4423B9F340E0F7CF8F929F9200
:101A9000AF92BF92CF92DF92EF92FF920F931F937C
:101AA000CF93DF93FC01B280948081E0848300E0D7
:101AB00015E05BE4A52E88248394EE24EA94F12CAF
:101AC0007BE4C72ED12C80910B01081770F0DF91B9
:101AD000CF911F910F91FF90EF90DF90CF90BF902B
:101AE000AF909F908F900C94AC09C02FD0E01C9FBA
:101AF000F0011D9FF00D1124E452FE4F91101CC007
:101B00001382128220910901CE01820F911D9C0146
:101B1000220F331F280F391F2B5D3C4F1C9FF001F4
:101B20001D9FF00D1124E452FE4F4281618180819E
:101B30000E9409090F5FC7CF2381222379F1215029
:101B4000238334818A2D821B311101C0822F1C9F77
:101B5000F0011D9FF00D1124E452FE4F90912303DC
:101B6000899FC0011124B6010E946E2D628321114C
:101B700004C0332311F01482A38222E02B1510F24B
:101B80001C9FF0011D9FF00D1124E452FE4F809127
:101B900021038083809122038183B4CF0E94422E4F
:101BA000823091400CF0AECF82E08B1530F50E9470
:101BB000422EB7010E94822D1C9FF0011D9FF00D47
:101BC0001124E452FE4F808322E02B15C8F40E94BA
:101BD000422E209122032695622F70E00E94822DD2
:101BE000280F1C9FF0011D9FF00D1124E452FE4FA1
:101BF00021831282A382848285CF80912103DCCF4E
:101C000020912203EECFE0E2F3E080818E7F80839B
:101C100060817181828193810E942A0910924D0214
:101C20002FEF80E792E0215080409040E1F700C024
:101C300000000C94AC09E0E2F3E080818E7F8083A9
:101C400010924D022FEF80E792E0215080409040AB
:101C5000E1F700C000000C94AC0960912003669588
:101C600070E04BE050E08CE091E00E94522E892B16
:101C700019F481E080934D020E94B32290934602B2
:101C80008093450208959091200390FF35C0917094
:101C9000811128C0926090932003662351F06091D7
:101CA00020037091210380912203909123030E94CD
:101CB0002A0960912003669570E04BE050E08CE0CB
:101CC00091E00E94522E892BA1F010924D0281E0EA
:101CD0008093480240912303609122038091210365
:101CE0000C944C0B8B3210F09465D5CF880F982B49
:101CF000D2CF0E942D0EEBCF0895682F9091200334
:101D0000969581E0890F8B3208F081E00C94430EA8
:101D100081E00C947D0E682F9091200396958FEFB3
:101D2000890F09F48AE20C94430E81E00C948B0E27
:101D300061E00C94430EE0E2F3E0808181608083F7
:101D400086950C94980E8091200380FD0C94030ED0
:101D50000C949B0E60E00C94430E80914B02811119
:101D60002EC00E94C820811104C00E946C210E94D4
:101D700046090E94260960932003709321038093F3
:101D80002203909323036E7F61F40E9446090E9410
:101D9000260960932003709321038093220390937C
:101DA00023030E94170910924D028091200380FFA7
:101DB00003C086950E94AA0E81E080934B0208958D
:101DC000E0E2F3E080818160808386950C94AA0E26
:101DD0000F931F93CF93DF9380914D02882309F4D3
:101DE0009DC080914C02E0912003E695E81BE093B2
:101DF00047028230C9F5F0E0E355FD4FE491CE2F64
:101E0000D0E001E01AE080914802882389F0109226
:101E100048020E94B3229E0120953095820F931FA5
:101E2000909346028093450210924A021092490212
:101E300080914502909146020E94CB228C179D070B
:101E400008F46CC0E0914502F0914602CE0FDF1F0E
:101E5000D0934602C093450285E492E0F801DF91F9
:101E6000CF911F910F910994863049F4F0E0E65527
:101E7000FD4FE491CE2FD0E005E11AE0C4CF8930C8
:101E800051F4E695F0E0E955FD4FE491CE2FD0E016
:101E90000FE41BE0B8CF8F3051F4E695F0E0EC553D
:101EA000FD4FE491CE2FD0E00CE81BE0ACCF8531A4
:101EB00049F4F0E0EF55FD4FE491CE2FD0E006E07D
:101EC0001CE0A1CFC8E2D0E009E71CE0883109F4AA
:101ED0009ACF833239F4EFE9F2E0C591D49105E26B
:101EE0001AE091CFC4EFD1E009E01DE0843209F49B
:101EF0008ACFC0EDD7E006E019E0853209F083CF44
:101F00008E2F63E00E94542DE92FF0E0E456FD4F40
:101F1000E491CE2FD0E006E41DE075CFDF91CF91A4
:101F20001F910F910895FA01811101C0FB010994DD
:101F3000CF93DF93C82FD62F0E9455098C1740F0FE
:101F40000E9455098D1720F4DF91CF910C94880ED3
:101F50008C2FDF91CF910C94980E0F931F93CF93FA
:101F60008C01FB01C281CC2309F465C00E941320BF
:101F70008272F801E35CFC45E431F10538F4E85382
:101F8000F14D0C94B82D0E94A30EC0E08C2FCF9180
:101F90001F910F91089545E95EE068E87EE00E9498
:101FA000930FF3CF48E85EE065E97EE0F8CF4DE0BF
:101FB0005BE060E07BE0F3CF40E05BE06DE07BE086
:101FC000EECF4BE25BE06CE17BE0E9CF4CE15BE024
:101FD0006BE27BE0E4CF49E45BE06AE37BE0DFCFE8
:101FE0004AE35BE069E47BE0DACF48E859E061E787
:101FF00079E0D5CF41E759E068E879E0D0CF81E0DA
:102000000E94980EC2CF65E082E00E94980FBDCF7B
:1020100068E086E0FACF6EE089E0F7CF64E18FE018
:10202000F4CF67E185E1F1CF88E1EACF62E289E1AF
:10203000ECCF83E2E5CFC1E0A9CF879A41B34F77D8
:1020400051B35068EFB7F8949B01220F331F260F4E
:10205000371F280F391F2817390741F4EFBF8FE5C5
:1020600094E00197F1F700C000000895DC016D9144
:10207000CD0178E051BB000000C067FF41BB660F97
:10208000000000C000C000C041BB00C07A9591F7BD
:10209000E2CF82E290E00E945F2E803289F483E2F8
:1020A00090E00E945F2E823159F484E290E00E9419
:1020B0005F2E91E0853009F090E0892F81700895BE
:1020C00080E0FCCFCF93C82F6FEF811160E282E2F6
:1020D00090E00E94732E6FEFC11162E183E290E005
:1020E0000E94732E6FEFC11165E084E290E0CF9102
:1020F0000C94732E80E00E9462100C94C22008950C
:1021000085E290E00E945F2E682F70E090E080E012
:10211000089585E290E00C94732E0E947F100E9437
:10212000491081110CC060E070E0CB010E94891061
:102130000E9443120E942F1381E00C9462100895B4
:10214000CF93FB01C281CC2309F19C0122513F4571
:102150002031310520F582510E943F13C0E08C2FC1
:10216000CF91089581E00E948E1E43E062E081E0FD
:102170000E94E704F3CF81E00E94AF1E43E062E0DB
:1021800081E00E94E704EBCF82E0F6CF8031FFE5EB
:102190009F0789F381319F45B9F3C1E0E0CF8031DA
:1021A000EFE59E07F9F281319F45C9F682E0DBCF6A
:1021B0002FEFFC0120830895CF93DF93EC018881FA
:1021C0008138A9F028F4803871F0DF91CF9108951B
:1021D000823881F08338C9F70E94A00989830E9460
:1021E000A3098A83F2CF0E94A6098983EECF0E94B9
:1021F0005509FBCF0E948B09F8CFCF93DF93EC01F9
:1022000088818138E1F028F4803869F0DF91CF913E
:102210000895823811F18338C9F70E94A609482F22
:102220006A81898108C0D9810E94A309C82F0E94B0
:10223000A0094D2F6C2FDF91CF910C944C0B89810D
:102240000E94AA0E8981811104C0DF91CF910C9464
:102250001B0EDF91CF910C94E00E8981DF91CF911D
:102260000C949D09EF92FF920F931F93CF93DF93EE
:10227000EC01062FDC01ED91CD01E150E33108F0D6
:10228000BFC0F0E0E452F14D0C94B82D198289E002
:102290008A83602FCE01DF91CF911F910F91FF9024
:1022A000EF900C9488268981823069F0833071F038
:1022B0008130D9F40E94BF220E94BE2D6A837B83A5
:1022C0008C839D83E6CF0E948010F6CF7E01B2E022
:1022D000EB0EF11C10E0812F0E946D07F701819336
:1022E0007F011F5F1630B9F7D4CF602FCE010E9457
:1022F000D810CFCF89818230C1F76A817B818C81F0
:102300009D810E94BE2D0E948910C3CF4B816A819E
:1023100089810E9415129827892798279D838C838D
:10232000B8CF2C813D813227232732274B816A8108
:1023300089810E942E12ADCF0E944312AACF0E9423
:10234000FD10A7CF0E94DC10A4CF0E943C09A1CFB2
:102350000E94D81289839DCF0E94DA12982789277C
:1023600098279A83898395CF6B8170E089819A81C0
:10237000AE014C5F5F4F9827892798270E94DD1296
:1023800088CF6B8170E089819A81AE014C5F5F4F8D
:102390009827892798270E9404137BCF0E942F1328
:1023A00078CF0E940312D6CF6B8170E089819A8129
:1023B000AE014C5F5F4F9827892798270E947B12B8
:1023C00068CF6B8170E089819A81AE014C5F5F4F6D
:1023D0009827892798270E94A1125BCF0E947A1024
:1023E00058CFCE010E948826FFEF21EE84E0F15005
:1023F00020408040E1F700C000000E94FE2249CF4B
:102400008FEF888346CF84E0089550E0440F551F36
:102410009EE0699F400D511D112494E5899F400D58
:10242000511D1124CA01869608950F931F93CF93CF
:10243000DF930E9405128C010E945F2EC82FD0E00E
:10244000DC2FCC27C80101960E945F2E9E01282B0D
:10245000C901DF91CF911F910F9108950F931F93A1
:10246000CF93DF93122F032F0E940512EC01602FF0
:102470000E94732E612FCE010196DF91CF911F91A3
:102480000F910C94732EAF92BF92CF92DF92EF9286
:10249000FF921F93CF93DF938CEAC82E80E0D82E53
:1024A000D0E07601C0E014C0F50125913491412FB0
:1024B0006C2F8D2F0E942E1282E0A80EB11C1F5F80
:1024C000173091F78EE0E80EF11CCF5FC63019F09F
:1024D000570110E0E9CFDF5F84E5C80ED11CD4308E
:1024E00001F7DF91CF911F91FF90EF90DF90CF9098
:1024F000BF90AF900895EF92FF920F931F93CF93E9
:10250000DF93EC018A017C01E60EF71ECE01869670
:10251000CE15DF0539F4DF91CF911F910F91FF9018
:10252000EF900895C03521E0D20740F40E945F2E5D
:10253000F80180830F5F1F4F2196E8CFF8011082CA
:10254000F9CFCF92DF92EF92FF920F931F93CF9329
:10255000DF937C016A018C01060F171FEC01CE018D
:102560008696C017D10749F4DF91CF911F910F9143
:10257000FF90EF90DF90CF900895C03521E0D20713
:1025800040F4FE01EE19FF09EC0DFD1D60810E9473
:10259000732E2196E4CF462F843038F4763028F419
:1025A000673018F4672F0C94151290E080E00895BE
:1025B00080E108958AE892E00895EF92FF920F93E8
:1025C0001F93CF93DF93EC018A017C01E60EF71E87
:1025D000CE018A589E4FCE15DF0539F4DF91CF9199
:1025E0001F910F91FF90EF900895CA3822E0D20713
:1025F00040F40E945F2EF80180830F5F1F4F2196E9
:10260000E7CFF8011082F9CFCF92DF92EF92FF92DD
:102610000F931F93CF93DF937C016A018C01060F08
:10262000171FEC01CE018A589E4FC017D10749F4FD
:10263000DF91CF911F910F91FF90EF90DF90CF909E
:102640000895CA3822E0D20740F4FE01EE19FF09CE
:10265000EC0DFD1D60810E94732E2196E3CFCF9378
:10266000DF93C6E7D1E060E0CE010E94732E219691
:10267000C11584E0D807B9F7DF91CF910895DF92B3
:10268000EF92FF920F931F93CF93DF9300D000D070
:10269000CDB7DEB7F82E8FE08F1540F08FEF93E0C7
:1026A0000E945F2E06E711E08823C1F00F900F9083
:1026B0000F900F90DF91CF911F910F91FF90EF90AE
:1026C000DF900895011584E0180781F3C8010E9486
:1026D0005F2E811101C0FA940F5F1F4FF110F2CFEE
:1026E00019821A821B821C82DD24D39478018FEF19
:1026F000E81AF80AC8010E945F2E89831A8288238B
:10270000A9F29FEF980F933078F48A83D9820E5FF5
:102710001F4FC7010E945F2E8B83882339F2CE01A1
:1027200001960E949004E2CF8701F9CFAF92BF9249
:10273000CF92DF92EF92FF920F931F93CF93DF938D
:102740007C015B01C42FD22FFC0182818823F9F028
:10275000409350020E94B32290934F0280934E0206
:1027600080E28C0F883008F061C0C77081E001C042
:10277000880FCA95EAF7DF91CF911F910F91FF90D3
:10278000EF90DF90CF90BF90AF900C941518109100
:102790005002141340C080914E0290914F020E944B
:1027A000CB226C01B701C5010E94071DC816D906CE
:1027B00090F5C0E2CD0F1D17B9F080E2810F88308F
:1027C00040F4177081E001C0880F1A95EAF70E9463
:1027D0001C18C83048F481E09D2F977001C0880F05
:1027E0009A95EAF70E941518802F0E940218C830A7
:1027F000E8F4D77081E001C0880FDA95EAF7DF913D
:10280000CF911F910F91FF90EF90DF90CF90BF90ED
:10281000AF900C941C1880E28C0F883038F4C7708D
:1028200081E001C0880FCA95EAF7E9CFDF91CF9127
:102830001F910F91FF90EF90DF90CF90BF90AF90DE
:1028400008950F939C01CB01243F4CE5340759F1C7
:10285000A8F4293DFCE53F0701F12A3D4CE534078A
:10286000D1F1283D3C4591F406E221EE41EE68EDC0
:102870007CE50E94961380E00F910895263FFCE5C9
:102880003F07E9F0B0F0273F3C45F9F0FC018281B9
:10289000882339F110925002EFCF07E225EE45EE82
:1028A00069ED7CE5E6CF06E221EE40EE64EF7CE5E3
:1028B000E0CF07E225EE44EE65EF7CE5DACF06E2F5
:1028C00021EE42EE66EF7CE5D4CF07E225EE46EE40
:1028D00067EF7CE5CECF08E221E045EE6AED7CE5CE
:1028E000C8CF81E0C9CFCF93DF93EC01FB01828198
:1028F000882309F419C1C230FCE5DF07C0F1C631F5
:102900009CE5D90730F09E012B5F3C45293031050D
:1029100070F50E94DB209093690380936803C031B7
:10292000ECE5DE0709F4CFC008F05BC0C8308CE5E9
:10293000D80709F4B6C088F5C430ECE5DE0709F421
:10294000A8C0C0F4C2308CE5D80709F49CC08091BF
:1029500068038260C330DC4509F498C08091680345
:10296000909169030E94E9200E94911A80E0DF9112
:10297000CF910895809168038061C630ECE5DE0751
:1029800009F484C0809168038860C730DC4508F48E
:102990007DC080916803806279C0CC308CE5D80717
:1029A00009F489C070F4809168038C60CA30ECE54A
:1029B000DE0709F46BC008F478C0809168038E7F4D
:1029C00065C0CE308CE5D80709F479C080916803E2
:1029D0008B7FCF30DC4508F459C0809168038F7E2F
:1029E00055C0CC3FECE5DE0709F457C030F5C331E4
:1029F0008CE5D80709F46FC078F4C131ECE5DE0747
:102A000009F465C0C231DC4509F0A8CF0E94911AD3
:102A1000809168038F773AC0C5318CE5D80709F4F7
:102A200062C008F476C0809169038160CB3FDC45C9
:102A300009F094CF8093690391CFC115FDE5DF07BD
:102A400009F44DC088F4809169038D7FCE3F9CE5E9
:102A5000D90781F3809169038E7FCF3FDC4550F326
:102A6000809169038360E6CFC230FDE5DF0709F49A
:102A700059C008F444C080E0C330DD4509F06ECF92
:102A80000E946E216BCF8091680381608093680300
:102A900065CF809168038460F9CF8091690382607B
:102AA000C9CF809168038064F1CF0E94911A809110
:102AB00068038068EBCF809168038D7FE7CF8091BA
:102AC0006803877FE3CF809168038F7DDFCF80919C
:102AD00068038F7BDBCF80916803837FD7CF8091A2
:102AE00069038C7FA7CF8091680382FB992790F9B7
:102AF00021E0922790FB82F990FB83F9C7CF809168
:102B00006903982F909591708E7F892B90FB81F9A6
:102B100091CF0E94911A90916803892F97FB87F9B2
:102B20008058B4CF81E0ACCF81E021CFCF93DF9349
:102B3000EB0186319C4511F50E9413209A8199235F
:102B400099F08A7A91E009F490E090935102811112
:102B500009C089E20E94EE1F0E945F2080E0DF91A1
:102B6000CF91089585E3F6CF80915102811104C081
:102B700089E20E94F51FF0CF85E3FBCF81E0EFCF24
:102B800090935702809356020895E0915602F09177
:102B90005702309721F00190F081E02D099480E0F8
:102BA0000895E0915602F0915702309799F02091E4
:102BB0002B01222359F02091680327FF07C0DC0175
:102BC0002C9111962C93119725E02C930280F38180
:102BD000E02D09940895E0915602F0915702309744
:102BE00039F022E0DC012C930480F581E02D09947A
:102BF000089520915402309155022817390771F039
:102C00009093550280935402E0915602F09157023E
:102C1000309721F00680F781E02D099408952091E6
:102C20005202309153022817390771F090935302E2
:102C300080935202E0915602F0915702309721F0B2
:102C40000084F185E02D0994089585B7806885BFDB
:102C500085B7806885BF0895089508950C942C1653
:102C600008950C9430160E9425160E942D160C947F
:102C70002E1681E008950C943916089508950E9447
:102C8000AA220E948F070E948D100E9425230E9475
:102C9000AD0E0C943116AF92BF92CF92DF92EF92AD
:102CA000FF920F931F93CF93DF93CDB7DEB72A9791
:102CB0000FB6F894DEBF0FBECDBF0E943D160E9436
:102CC0003E160E94C2070E943B16882309F461C089
:102CD00089E5A82E82E0B82E10E000E0C02E802FFB
:102CE0000E946D07E82EF501D1905F01D81609F416
:102CF0004AC08091E30281FD0E94730780E0FF24B7
:102D0000F394DE249D2D9F21C9F18E83CF82EF2085
:102D100081E009F480E088870E94B3228160782FE7
:102D20009A8789874E815F8168858A850E94EB1624
:102D3000F801E75AFD4F8081F826F0820E94E80EE4
:102D40000E94D0240E94C51590915802891791F1D4
:102D50000E94C515809358022A960FB6F894DEBFDC
:102D60000FBECDBFDF91CF911F910F91FF90EF90DC
:102D7000DF90CF90BF90AF900C9464058F5FFF0CF5
:102D8000873009F0BFCF0F5F1F4F0630110509F0E4
:102D9000A5CF8FEF89838A831B820E94B322816033
:102DA000782F9D838C8349815A816B818D810E940C
:102DB000EB16C4CF2A960FB6F894DEBF0FBECDBF78
:102DC000DF91CF911F910F91FF90EF90DF90CF9007
:102DD000BF90AF900895CF93DF93CDB7DEB72B9719
:102DE0000FB6F894DEBF0FBECDBF4F8358876987FB
:102DF0007A878B871E821D8285E0FE013796DE0171
:102E0000119601900D928A95E1F749815A816B8163
:102E10007C818D819E812B960FB6F894DEBF0FBE0C
:102E2000CDBFDF91CF910C940A1DFC01808191816F
:102E30000C94C01FCF93C82F882309F48BC082380D
:102E4000C1F40E94C51581FD85C089E30E94EE1F73
:102E50000E945F202FEF81EE94E02150804090404F
:102E6000E1F700C0000089E30E94F51FCF910C94A8
:102E70005F208338A1F40E94C51580FD6BC083E5F7
:102E80000E94EE1F0E945F202FEF81EE94E0215000
:102E900080409040E1F700C0000083E5E5CF843832
:102EA000A1F40E94C51582FD55C087E40E94EE1F63
:102EB0000E945F202FEF81EE94E0215080409040EF
:102EC000E1F700C0000087E4CFCF8CEF8C0F813A90
:102ED00090F46C2F80911701909118010E94872126
:102EE000882329F08C2F0E94F51F0E945F208C2FD1
:102EF0000E94EE1FBBCF80E28C0F883048F4C77071
:102F000081E001C0880FCA95EAF70E941620AECF73
:102F1000EBE5EC0FE33040F4F0E0ED53FE4F808141
:102F200090E0CF910C94F915E8E5EC0FE73150F4FF
:102F3000F0E0EE0FFF1FEB56FE4F80819181CF91A5
:102F40000C940F16C03F30F08C2F0E94CA23CF91F3
:102F50000C94B524CF910895882309F452C0823887
:102F600071F40E94C51581FF4CC089E30E94EE1FD9
:102F70000E945F2089E30E94F51F0C945F20833834
:102F800059F40E94C51580FF3CC083E50E94EE1FE6
:102F90000E945F2083E5EFCF843859F40E94C51565
:102FA00082FF2FC087E40E94EE1F0E945F2087E40B
:102FB000E2CF9CEF980F913AF0F290E2980F9830A0
:102FC00050F4877091E001C0990F8A95EAF7892F34
:102FD0000E941C20D2CF9BE5980F933020F490E004
:102FE00080E00C94F91598E5980F973120F490E063
:102FF00080E00C940F16803F20F00E9432240C9445
:10300000B5240895CF93C82F0E941A17C93349F4E5
:103010002FEF87EE93E0215080409040E1F700C011
:1030200000008C2FCF910C94AC17882321F00E94C4
:1030300016200C945F200895882321F00E941C2004
:103040000C945F200895BF92CF92DF92EF92FF928F
:103050000F931F93CF93DF936C01D62FC72FFC01E3
:10306000058102950F70128111110E9433200E9478
:103070000C20E82E882391F01123D1F08C2F807F33
:10308000803421F080E28D0F883090F082E00E9441
:10309000AA200E940C2091E0E82EE926BC2EB294D2
:1030A0009FE0B922EB2DF0E0E151F14D0C94B82DE9
:1030B000E12CF4CF0C2F0F70C07F11F00295007F30
:1030C0001123A9F0002359F080E28D0F883010F011
:1030D000D11109C0802F0E9416200E945F208D2FE1
:1030E0000E941A1714C0802F0E942620F6CF8D2F21
:1030F0000E94AC17002359F080E28D0F883010F049
:10310000D1112CC0802F0E941C200E945F202B2DEB
:103110002850330B2430310520F40E94C5150E943D
:103120006405EE2009F49EC10E94082080FD9AC12A
:10313000F60112820E9402200E948E1EC6010E9489
:10314000531A0E940220DF91CF911F910F91FF909F
:10315000EF90DF90CF90BF900C94AF1E802F0E9415
:103160002C20D3CFFC2FFF70FF2EC07FC03219F070
:10317000F29480EFF822DD2369F0D13049F1112378
:1031800091F1002351F1F601858180FFA8CF8F7066
:10319000858323C0112381F0011106C00E944620BF
:1031A0008F290E941518B3CF0130C1F70E94462025
:1031B0008F290E944C20ABCF011106C00E945520E0
:1031C0008F2D0E941C18A3CF013009F4A0CFF6CF99
:1031D000112329F0063008F09ACF8F2DE2CF053069
:1031E00008F095CFEDCF002359F3D93349F4FFEF21
:1031F00027EE33E0F15020403040E1F700C00000FE
:103200008D2F0E94AC1783CF8C2F86958695837067
:1032100069F0813009F07BCF8D2F9C2F93701111B5
:1032200002C090E080E00E940F1671CF8D2F9C2F7E
:103230009370111102C090E080E00E94F91567CFF1
:103240008D2F112329F00E94CA230E94B5245FCF3D
:103250000E943224FACF8C2F837009F041C01111E3
:1032600056CF4D2F429546954770440F440F0D2F72
:103270000F7010E030E020E0042E04C0000F111F9A
:10328000221F331F0A94D2F760E070E0CB01D4FF15
:103290000FC06FE070E080E090E004C0660F771F21
:1032A000881F991F4A95D2F76095709580959095E3
:1032B000C695C695C370602B712B822B932BC230A1
:1032C00049F058F4C13019F00E94401E20CF0E94EE
:1032D0002E1E1DCF0E94521E1ACF0E942C1E17CFE9
:1032E0008695112311F08C2F8170882309F40FCF5C
:1032F0004D2F429546954770440F440F0D2F0F7088
:1033000010E030E020E0042E04C0000F111F221F47
:10331000331F0A94D2F760E070E0CB01D4FF0FC0F6
:103320006FE070E080E090E004C0660F771F881FB8
:10333000991F4A95D2F76095709580959095C6959E
:10334000C695C370602B712B822B932BC23049F032
:1033500058F4C13019F00E94051FD9CE0E94F31E07
:10336000D6CE0E94171FD3CE0E94681ED0CECF703B
:10337000112329F08C2F0E948E1E8D2F12CF8D2F9E
:103380000E941C188C2F0E94AF1EC1CED23F89F123
:1033900060F4D03FC9F0D13F29F1112309F442C0B4
:1033A00001119DCE8C2F8F7121C0D33F39F1D43FB5
:1033B000A1F7112369F1CF718C2F0E948E1E63E05B
:1033C0008C2F0E949520A3CE112341F0053008F0E8
:1033D0009ECE8C2F8F710E94D21E99CE063008F09F
:1033E00096CEF7CF8C2F8F71112369F20E948E1E1B
:1033F0008ECE8C2F8F711123C9F3C5CF112329F0E5
:103400008C2F8F710E94791E82CE0E94741E7FCEF7
:1034100081E00E94AA20023008F479CE82E00E9466
:10342000AA2075CE002359F0D93309F0E9CE8FEFE9
:1034300097EEE3E081509040E040E1F7DFCE8C2F43
:103440008F71A1CF4C2F4F706D2FC6010E946C055C
:103450000E94A41D5CCE4C2F4F706D2FC6010E94A0
:103460006F0555CEDF91CF911F910F91FF90EF9097
:10347000DF90CF90BF9008950F931F93CF93DF936A
:10348000EC01688179818A810E94CA1F8C010E94A7
:10349000291F0E942B1EB801CE01DF91CF911F91F1
:1034A0000F910C942318CF93DF93EC018B819C81B7
:1034B000892B29F08881998189238F3F59F4DF91E5
:1034C000CF910895CE010E943C1ACE01DF91CF9199
:1034D0000C94D103CE010E9415058111F3CF0E94F7
:1034E0000C20882361F38A81882349F382E0DF91ED
:1034F000CF910C94AA200E9433200E9443200E9466
:103500005F200E94DC250E94B52490E080E00E94AC
:10351000F91590E080E00C940F160E94FC1F0C94AB
:103520007B1A0E9423200C948D1AE92FE295EF70EC
:10353000E250EE3070F4F0E0E150F14D0C94B82D13
:10354000803F19F020F4883E20F481E00895843F04
:10355000E1F380E00895883EC0F3813FD1F7F5CFD5
:1035600093FB882780F908950E94C01F0C94951A38
:10357000CF93DF9300D000D00F92CDB7DEB70F907E
:103580000F900F900F900F90DF91CF910895CF93F0
:10359000DF9300D000D000D0CDB7DEB726960FB6AF
:1035A000F894DEBF0FBECDBFDF91CF9108951F937A
:1035B000CF93DF93C091600216E0809161028C137B
:1035C00004C0DF91CF911F910895D0E01C9FF001BE
:1035D0001D9FF00D1124EE59FD4F408151816281F4
:1035E0007381848195810E94C71A2196C770E5CFA7
:1035F00040919202509193026091940270919502D1
:1036000080919602909197020C94C71A1F93CF93C2
:10361000DF9380919702807FA9F4809194028823A0
:1036200089F080916002C091610260919202709174
:103630009302A0919502B0919602D62FD72316E05F
:10364000C81304C0DF91CF911F91089590E01097A7
:1036500011F0DF3F19F401968770F2CF189F9001A7
:10366000199F300D1124F901EE59FD4F4181471387
:10367000F2CF40814613EFCF42814111ECCF43811D
:1036800054814A1B5B0B483C510528F780919702F7
:103690008F70806180939702F901E959FD4F808115
:1036A0008F708061808382E992E00E94531ADF91DB
:1036B000CF911F910C94D71AAF92BF92CF92DF9205
:1036C000EF92FF920F931F93CF93DF93CDB7DEB7A7
:1036D00061970FB6F894DEBF0FBECDBF8C0185E0B9
:1036E000F801DE011D9601900D928A95E1F7F8012F
:1036F00040815181E28082E9C82E82E0D82E60911B
:103700009502709196026115710509F461C190915D
:10371000920220919302892F82238F3F09F458C18E
:10372000A380B480F0909402F501E61BF70BFF2014
:1037300009F4FCC080919702382F307FE83CF105F6
:1037400008F0B2C0311179C0FE2C251323C09413A8
:1037500021C0E1101FC08F708061809397020E948A
:10376000F81AC6010E94531A80919702F8018583C6
:103770008F2D61960FB6F894DEBF0FBECDBFDF91DF
:10378000CF911F910F91FF90EF90DF90CF90BF905E
:10379000AF900895AB2829F0842F85238F3F09F03F
:1037A00033C180E0F82FF170DF2E80FF3CC08091A4
:1037B00060022091610236E0821315C04D875E875A
:1037C0008D859E850E94C01F292F22952F70223043
:1037D000F0F0243018F59F70F1F0F8019581907F9A
:1037E000D1F4D12C1EC090E0389FF001399FF00D2C
:1037F0001124EE59FD4F6181651306C06081641389
:1038000003C062816E110FC001968770D5CF9F7083
:1038100011F0882331F3805E883018F3C8010E94CC
:10382000531AFD2CA5CFEE2009F4A2CF8091970268
:10383000816080939702F12C9BCF251306C09413CF
:1038400004C0F801EE2009F48DC04D875E878D8598
:103850009E850E94B41A882319F1EE2009F1809107
:103860009702803270F02091920230919302388753
:103870002F831986BB86AA868C87CE0107960E9465
:10388000531A86E0F801A2E9B2E001900D928A9500
:10389000E1F70E94061B0E94F81AFF24F39468CFF8
:1038A000C8010E94531AF9CF311113C07A2DB98A79
:1038B000A88A6E2D89890E94B81A82E992E00E9436
:1038C000531A86E0F60111928A95E9F70E94F81AD8
:1038D000B2CF25130FC094130DC0E1100BC0F80137
:1038E0008583C8010E94531A86E0F60111928A95D9
:1038F000E9F73ECF4D875E878D859E850E94B41A7D
:10390000882371F2EE2061F280919702803208F4F0
:10391000B8CF20919202309193023A8329831B827F
:10392000BD82AC828E83CE010196A9CFE83CF10521
:1039300008F041C0FE2CEE2009F4B2CF25132AC0B6
:10394000941328C08091970280FD1BC0982F907F10
:10395000C1F0F8018583903F31F0982F907F905F00
:103960008F70892B8583C8010E94531A86E0F80165
:10397000A2E9B2E001900D928A95E1F70E94F81A4F
:10398000F7CE86E0F801A2E9B2E001900D928A95A7
:10399000E1F7EECE4D875E878D859E850E94B41A35
:1039A00081116FCF80919702816080939702C80147
:1039B0000E94531ADDCE7A2DB98AA88A6E2D898984
:1039C0000E94B81A86E0F60111928A95E9F7D6CFDF
:1039D000EE2009F465CF4D875E878D859E850E9418
:1039E000B41AF82E882309F45BCF86E0F801A2E927
:1039F000B2E001900D928A95E1F782E992E00E948F
:103A000015170E94061BBACF81E08E25CBCE88EC1D
:103A100090E008951F93CF93DF93CDB7DEB72C9737
:103A20000FB6F894DEBF0FBECDBF4F8358876987AE
:103A30007A878B879C87CE0107960E945C1B882320
:103A400069F08A859B85892B39F04F815885842FB1
:103A500085238F3F09F071C016E05FC086E0FE014C
:103A60003796DE01119601900D928A95E1F78A85CD
:103A70009B85892B89F388859F8189238F3F61F3FB
:103A80002091610230E0C901019687709927409129
:103A900060024817190671F40E94911A109261028F
:103AA0001092600286E0E2E9F2E0DF011D928A9561
:103AB000E9F7D2CF96E0929FD001939FB00D1124E9
:103AC000AE59BD4FFE01319601900D929A95E1F7E6
:103AD000809361020E94D71ABFCF819FC001112439
:103AE0008E599D4F0E945C1B8823E9F0E091600293
:103AF0001E9FF0011124EE59FD4F408151816281DA
:103B00007381848195810E94C71A8091600290E040
:103B1000019687709927809360028091600290914E
:103B200061028913DACF2C960FB6F894DEBF0FBE70
:103B3000CDBFDF91CF911F91089569857A858B85DF
:103B40009C850E94C71A88CFEF92FF920F931F9314
:103B5000CF93DF938C01892B81F0F12CEE24E39439
:103B6000E8012196F8018491843770F4843008F0DC
:103B70005FC08130B1F08230A1F1DF91CF911F9110
:103B80000F91FF90EF900895853709F44CC008F429
:103B90003DC09CE7980F903780F78F770E94AC1755
:103BA00049C00E5F1F4FFE01849190E2980F98303C
:103BB00060F48770FE2D01C0FF0F8A95EAF78F2F02
:103BC0000E9436200E945F2002C00E941A178F2D8B
:103BD000815030F2EFE9FFE03197F1F700C00000CB
:103BE000F7CF0E5F1F4FFE01849190E2980F98303F
:103BF00050F48770FE2D01C0FF0F8A95EAF78F2FD2
:103C00000E943C20DFCF0E94AC17E1CF0E5F1F4F18
:103C1000FE01C491C150D8F28FE99FE00197F1F7FE
:103C200000C00000F7CF0E5F1F4FFE01F490CFCF12
:103C30000E941A178E01CBCF08950C941C1E0E946F
:103C40001D1E6093BA027093BB028093BC029093D6
:103C5000BD020C947B1A08950C941F1E0F931F93A2
:103C60000091BA021091BB022091BC023091BD02BA
:103C7000602B712B822B932B1F910F910C941F1E85
:103C80000F931F930091BA021091BB022091BC02C6
:103C90003091BD0260237123822393231F910F91E2
:103CA0000C941F1E0F931F930091BA021091BB0238
:103CB0002091BC023091BD02602771278227932793
:103CC0001F910F910C941F1E0C941C1E0C94641ECB
:103CD0000E94661E6093B6027093B7028093B8028A
:103CE0009093B9020C947B1A60E070E0CB010C94C5
:103CF000681E0F931F9341E050E060E070E08A017E
:103D00009B0104C0000F111F221F331F8A95D2F799
:103D1000C901B8011F910F910C94681E0F931F9356
:103D200041E050E060E070E004C0440F551F661FA2
:103D3000771F8A95D2F78091B6029091B702A09131
:103D4000B802B091B9028A019B01082B192B2A2BCA
:103D50003B2BC901B8011F910F910C94681E0F9362
:103D60001F9341E050E060E070E004C0440F551F35
:103D7000661F771F8A95D2F7CB01BA0160957095BF
:103D8000809590950091B6021091B7022091B802EB
:103D90003091B90260237123822393231F910F91E5
:103DA0000C94681E0F931F9341E050E060E070E0B8
:103DB00004C0440F551F661F771F8A95D2F7809164
:103DC000B6029091B702A091B802B091B9028A01EF
:103DD0009B01082719272A273B27C901B8011F91F2
:103DE0000F910C94681E0F931F930091B6021091CF
:103DF000B7022091B8023091B902602B712B822B4F
:103E0000932B1F910F910C94681E0F931F93009199
:103E1000B6021091B7022091B8023091B902602326
:103E20007123822393231F910F910C94681E0F938B
:103E30001F930091B6021091B7022091B802309101
:103E4000B90260277127822793271F910F910C9445
:103E5000681E089527E0929F800D1124982F977077
:103E600041E001C0440F9A95EAF7869586958695BC
:103E700095E0899FF0011124E856FD4F90E080E025
:103E800070E05191DF0111979B01082E02C0369519
:103E900027950A94E2F721702195252724232527C9
:103EA0002C9301968530910561F7089527E0929F44
:103EB000800D1124982F977086958695869525E01C
:103EC000829FF0011124E856FD4F50E040E080E071
:103ED000219130E0092E02C0369527950A94E2F729
:103EE00021703327042E01C0220F0A94EAF7822B97
:103EF0004F5F5F4F4530510559F70895BF92CF92FC
:103F0000DF92EF92FF920F931F93CF93DF938C0179
:103F1000C090B602D090B702E090B802F090B9021B
:103F20008091BA029091BB02A091BC02B091BD02F7
:103F3000C82AD92AEA2AFB2ACFE1D0E0BC2ED70131
:103F4000C6010C2E04C0B695A795979587950A943F
:103F5000D2F780FD0EC0219788F7B12C8B2DDF9111
:103F6000CF911F910F91FF90EF90DF90CF90BF9076
:103F70000895B8018C2F0E947805019761F3EECF68
:103F8000CF93DF93EC010E947E1FBE01DF91CF91A2
:103F90000C9478051F93CF93DF93EB0190915F0210
:103FA000992331F0CB01DF91CF911F910C94C01F69
:103FB000882379F0CB010E947E1F182F682FCE0135
:103FC0000E942A1FBE01812FDF91CF911F910C9477
:103FD0007805CB010E94561F182FF4CF682F8091CF
:103FE0001701909118010C940722682F80911701F6
:103FF000909118010C941222809117019091180150
:104000000C941D228091BE02859585958595089515
:104010008091BE02877008959091BE02977081E0F2
:1040200009F480E008958091E20208959091E202FF
:10403000892B8093E202089580959091E202982363
:104040009093E20208951092E20208959091E102A5
:10405000892B8093E102089580959091E102982345
:104060009093E10208951092E10208959091E00288
:10407000892B8093E002089580959091E002982327
:104080009093E00208951092E00208958091BF029B
:10409000089508950C9449209091BF02981721F03B
:1040A0008093BF020C944A2008958091BF02882318
:1040B00029F01092BF0280E00C944A200895E0910C
:1040C0001701F09118018091E2028083E0911701BD
:1040D000F091180180819091E102892B8083E09119
:1040E0001701F091180180819091E002892B808363
:1040F0009091BF02992381F0E0911701F09118018E
:104100008081892B808380911701909118010E94F2
:10411000732181110E9455208091170190911801FF
:104120000C94D11508950C94922098E0899F9001E9
:104130001124622B6093BE020E948E1E8091BE02EB
:104140008595859585950C9493201092BE0280E00C
:104150000C9493209091BE02809589238093BE0297
:10416000282F277071F4282F082E000C330B92177C
:10417000130639F08595859585950E94AF1E0C94A0
:10418000A52008956FEF7FEF90E080E00C94912ED2
:1041900090E080E00E946D2E21E08C3E9E4F09F061
:1041A00020E0822F089582E090E00C945F2E83E05F
:1041B00090E00C945F2ECF9384E090E00E945F2EFD
:1041C000C82F81E290E00E945F2E982F8C2FCF9114
:1041D0000895CF93C92F682F84E090E00E94732E3A
:1041E0006C2F81E290E0CF910C94732EAB01BC0157
:1041F0008FE090E00C94852EAB01BC0183E190E050
:104200000C94852E60E070E0CB010C94FC2060E003
:1042100070E0CB010E94F6200C9402216CEE7EEF40
:1042200090E080E00E94912E60E082E090E00E94A9
:10423000732E60E083E090E00E94732E1092BA0229
:104240001092BB021092BC021092BD0260E084E0AA
:1042500090E00E94732E60E081E290E00E94732E55
:1042600060E085E090E00E94732E60E086E090E0E0
:104270000E94732E6FEF87E090E00E94732E40E063
:1042800050E0BA0188E090E00E94852E60E08DE069
:1042900090E00E94732E40E050E0BA0188E190E087
:1042A0000E94852E60E087E190E00E94732E40E03E
:1042B00050E0BA018CE190E00E94852E60E080E23F
:1042C00090E00E94732E40E050E0BA0188E190E057
:1042D0000E94852E0C9407210C940E21682F8EE0ED
:1042E00090E00C94732EFC01329680912B01882370
:1042F00021F0809168039EE187FF96E080E0915075
:1043000008F4089521912223D1F38F5FF8CF66231B
:1043100001F120912B012223F1F02091680327FF66
:104320001AC0462F4695469546954E3190F46770D3
:1043300021E030E002C0220F331F6A95E2F7840FBC
:10434000911DFC01828190E02823392381E0232BF9
:1043500069F480E00895FC013296089621912617B1
:1043600021F0E817F907D1F7F4CF81E008959C0117
:10437000FC0132969FEF80E04191461751F09F3F3C
:1043800019F4411101C0982F8F5F8630A9F79F3F24
:1043900009F40895290F311D97FD3A95F9016283BB
:1043A0000895FC01329608962191261303C0DF017F
:1043B00011971C92E817F907B9F70895E62FE695CB
:1043C000E695E695EE3168F4E80FF92FF11D677078
:1043D00021E030E001C0220F6A95EAF78281822B4A
:1043E00082830895E62FE695E695E695EE3170F422
:1043F000E80FF92FF11D677021E030E001C0220FB6
:104400006A95EAF7209582812823228308952091D6
:104410002B01222329F02091680327FD0C94DE2133
:104420000C94B72120912B01222329F020916803BD
:1044300027FD0C94F2210C94D121FC01329680913D
:104440002B01882351F08091680387FF06C08EE11D
:10445000DF011D928A95E9F7089586E0F9CF089566
:1044600008950C9430220E94312280916E03843092
:1044700049F11092E40288E190E020E40FB6F8944C
:10448000A895809360000FBE2093600080E00E949A
:1044900064050E94312283B7817F846083BF83B724
:1044A000816083BF7894889583B78E7F83BF0FB672
:1044B000F894A895809160008861809360001092C4
:1044C00060000FBE08950895CF930E942F220E948E
:1044D000C2070E946322C0E08C2F0E946D078111E9
:1044E00005C0CF5FC630C1F7CF91089581E0FCCF02
:1044F00008950C9478220E94911A0E94C5150E947A
:1045000064050C9479221F921FB61F9211248F9379
:104510009F93AF93BF938091E402811113C0809168
:10452000640390916503A0916603B091670341967F
:10453000A11DB11D8093640390936503A09366034E
:10454000B0936703BF91AF919F918F911F901FBE52
:104550001F90189582E084BD93E095BD9AEF97BDBA
:1045600080936E0008952FB7F89480916403909122
:104570006503A0916603B09167032FBF08952FB71D
:10458000F894609164037091650380916603909143
:1045900067032FBF08959C014FB7F894809164037F
:1045A00090916503A0916603B09167034FBF821B92
:1045B000930B089578941F921FB61F9211248F9326
:1045C0009F93AF93BF938091640390916503A091F3
:1045D0006603B09167030196A11DB11D809364032A
:1045E00090936503A0936603B0936703BF91AF9167
:1045F0009F918F911F901FBE1F90189587E797E797
:10460000909301088093000888E19AE00FB6F8942F
:10461000A895809360000FBE90936000FFCF0C942C
:104620007A100E94C2078FE39CE90197F1F700C05E
:1046300000000E94C20780E00E946D0780FF04C056
:104640000E940F230C94FE2208950E94C82081111D
:1046500002C00E946C210E94D3208093E3020E943A
:10466000DB2090936903809368030E94D720682F12
:1046700070E090E080E00E942C1E6091B602709184
:10468000B7028091B8029091B9020C94661E809195
:10469000EB0280FF12C060911E0185E0689FB001AF
:1046A0001124759567957595679560387105A8F51E
:1046B00061157105A1F1862F089581FF09C06091F0
:1046C0001E0185E0689FB001112475956795EDCFB7
:1046D00060911E0182FD0AC08091EA028823D1F018
:1046E00090911D0160911E01891728F085E0689F57
:1046F000B0011124DACF869FB001112485E0869F96
:104700009001879F300D1124692F70E0C9010E942C
:10471000822DCBCF65E070E0CECF8FE7089581E0AA
:1047200008958091EB0280FF0CC060911A0170E047
:1047300075956795759567956115710549F1862F92
:10474000089581FF06C060911A0170E07595679524
:10475000F3CF60911A0182FD0BC09091E902992379
:10476000A1F06091190180911A01961738F0682F15
:1047700070E06038710500F38FE70895899FC001EC
:10478000112470E00E94822DF4CF61E070E0D7CF59
:1047900081E00895803F31F40E9447238195809302
:1047A000EF020895813F19F40E944723F8CF823F1A
:1047B00031F40E94472381958093EE020895833F50
:1047C00019F40E944723F8CF893F29F40E949123CE
:1047D0008093F00208958A3F21F40E9491238195ED
:1047E000F7CF8B3F31F40E94912381958093F102A2
:1047F00008958C3F19F40E949123F8CF843F31F43F
:104800008091ED0281608093ED020895853F21F44F
:104810008091ED028260F7CF863F21F48091ED0216
:104820008460F1CF873F21F48091ED028860EBCF67
:10483000883F21F48091ED028061E5CF8D3F31F416
:104840008091EB0281608093EB0208958E3F21F40A
:104850008091EB028260F7CF8F3FB9F78091EB0236
:104860008460F1CF9091EE02803F59F48091EF0285
:1048700087FF0DC01092EF0291110BC01092EA0257
:1048800008C0813F81F48091EF0218169CF39923B0
:1048900081F08091F0029091F102892B09F064C0BF
:1048A0001092E9020895823F49F497FFF0CF1092E9
:1048B000EE028091EF028111ECCFE0CF833F19F43B
:1048C0001916ACF3E4CF2091F002893F29F41216B7
:1048D000F4F61092F002DBCF8A3F19F427FFD7CF0E
:1048E000F8CF2091F1028B3F29F427FFD0CF10920F
:1048F000F102CDCF8C3F19F41216CCF3C8CF843F10
:1049000031F48091ED028E7F8093ED02C0CF853F20
:1049100021F48091ED028D7FF7CF863F21F48091C5
:10492000ED028B7FF1CF873F21F48091ED02877FED
:10493000EBCF883F21F48091ED028F7EE5CF8D3F54
:1049400031F48091EB028E7F8093EB02A0CF8E3FFB
:1049500021F48091EB028D7FF7CF8F3F09F097CF45
:104960008091EB028B7FF0CF08950E94B3229C01CF
:104970009091EE028091EF02982B21F03093E802A3
:104980002093E7029091F0028091F102982B21F0A0
:104990003093E6022093E5028CEE92E00C94EB1546
:1049A000EF92FF920F931F93CF93DF9300D000D02D
:1049B00000D0CDB7DEB786E0ECEEF2E0DE01119676
:1049C00001900D928A95E1F7E090EE02F090EF02EF
:1049D0000091F0021091F1021092EE021092EF029B
:1049E0001092F0021092F1028E2D8F2991F0809199
:1049F000E7029091E8020E94CB22AC019091EA027A
:104A0000992309F43FC080911F018417150608F40B
:104A100047C0802F812B91F08091E5029091E602B2
:104A20000E94CB22AC019091E902992309F477C04E
:104A300080911B018417150608F47FC08091EE0257
:104A40009091EF02892B9091F002892B9091F102C5
:104A5000892B11F00E94B52486E0FE013196ACEE60
:104A6000B2E001900D928A95E1F726960FB6F89480
:104A7000DEBF0FBECDBFDF91CF911F910F91FF9091
:104A8000EF900895209120018AE0289F9001112441
:104A90002417350708F0BDCF9F5F9093EA0202C04C
:104AA0009F3FD1F7EE2059F00E9447239FEF1E143D
:104AB0000CF491E0899F802D11248093EE02FF2059
:104AC00059F00E9447239FEF1F140CF491E0899F37
:104AD000802D11248093EF023091EE02332309F4EC
:104AE00098CF2091EF02222309F493CF45EB3403B2
:104AF000C0011124992359F09093EE0245EB240351
:104B000090011124332339F03093EF0282CF81E0FA
:104B10008093EE02F3CF81E08093EF027ACF209171
:104B20001C018AE0289F900111242417350708F002
:104B300085CF9F5F9093E90202C09F3FD1F700238A
:104B400059F00E9491239FEF10160CF491E0899F79
:104B5000802D11248093F002112359F00E9491239B
:104B60009FEF11160CF491E0899F802D1124809302
:104B7000F1023091F002332309F460CF2091F10269
:104B8000222309F45BCF45EB3403C00111249923A0
:104B900059F09093F00245EB240390011124332344
:104BA00039F03093F1024ACF81E08093F002F3CFE5
:104BB00081E08093F10242CF86E0ECEEF2E0DF018B
:104BC0001D928A95E9F71092EA021092E90210927A
:104BD000EB020895809112030895CF93DF9300D0E4
:104BE0000F92CDB7DEB790916E03943011F58983A3
:104BF0007B836A839093E9008FEF9091E800815066
:104C000095FD06C095ED9A95F1F700008111F5CF5D
:104C10008091E80085FF0DC050E040E063E070E067
:104C2000CE0101960E9474288091E8008E778093CF
:104C3000E8000F900F900F90DF91CF910895BC0185
:104C400084E00C94ED25BC0183E00C94ED259C01DF
:104C500084E08093E9009FEF8091E800915085FD0A
:104C600006C085ED8A95F1F700009111F5CF80918E
:104C7000E80085FF0CC050E040E066E070E0C9014C
:104C80000E9474288091E8008E778093E800089550
:104C9000CF93DF93EC0180912B018823B1F18091B8
:104CA000680387FF32C060E284E08093E9008FEF01
:104CB0009091E800815095FD06C095ED9A95F1F729
:104CC00000008111F5CF8091E80085FF1BC0809125
:104CD0002B0170E050E040E0811104C050E040E062
:104CE00068E070E0CE010E9474288091E8008E7721
:104CF0008093E80080E2FE01A2EFB2E001900D9205
:104D00008A95E1F7DF91CF91089568E081E0CDCFFA
:104D1000CF93FC01603221F580916E03843001F560
:104D2000C091E900CF702091EC00922F917020FD8E
:104D300090E8C92B82E08093E9008091E80080FF31
:104D40000CC050E040E060E270E0CF010E947428A7
:104D50008091E8008E778093E800CF70C093E900DF
:104D6000CF91089580916D03811109C00E94532A4B
:104D70000E94B02A8091E20084608093E20008954E
:104D800010926D030895089508950C947B2242E0DB
:104D900061EC81E00E94CF2942E261EC84E00E9454
:104DA000CF2942E261EC82E00E94CF2942E260EC2E
:104DB00083E00C94CF2980917003833009F461C0A3
:104DC00030F48130D1F1823009F49DC008958A30E9
:104DD00009F489C08B3009F46FC0893009F050C0E4
:104DE00080916F03813209F04BC0809173039091E1
:104DF0007403009719F0029709F042C08091E8000F
:104E0000877F8093E8008091E80082FF35C0909111
:104E1000F3008091F200029729F48091F1008B7FDA
:104E2000813021F48091F100809312038091E80099
:104E30008B778093E8000C94032A80916F03813A6A
:104E4000F9F48091E800877F8093E80080917303F4
:104E500090917403892B61F460E282EF92E070E03C
:104E60000E9412298091E8008B778093E8000895D2
:104E700060E090E080E0F3CF80916E038111C3CFBA
:104E8000089580916F03813AD9F7809173039091CF
:104E90007403892BA9F78091E800877F8093E8004D
:104EA0008091E80080FFFCCF80912B018093F1007E
:104EB0008091E8008E77BDCF80916F03813201F73A
:104EC0008091730390917403892BD1F68091E8004F
:104ED000877F8093E8000E94032A8091710380936A
:104EE0002B010C94911A80916F03813249F68091C5
:104EF000E800877F8093E8000E94032A8091720374
:104F000080931303089580916F03813A09F0B8CF1D
:104F10008091E800877F8093E8008091E80080FF1F
:104F2000FCCF80911303C2CFCDB7DEB7A0970FB6E9
:104F3000F894DEBF0FBECDBF84B7877F84BF0FB6A6
:104F4000F894A89580916000886180936000109229
:104F500060000FBE80E890E00FB6F8948093610087
:104F6000909361000FBE0E9433160E94532A0E9444
:104F7000B02A8091E20084608093E20078940E94DD
:104F8000392D0E943F1681E291E00E94C01513E086
:104F900080916E03853059F00E944B1680916E030C
:104FA000843091F00E943D160E943E16F1CF0E947F
:104FB000332280916C03882359F30E946422882352
:104FC00039F30E945E28E4CF1093E9008091E80055
:104FD00082FFE8CF8091E80090E085FF09C050E0B3
:104FE00040E060E270E0CE0101960E94C32891E0AB
:104FF0008091E8008B778093E800992399F260E232
:10500000CE0101960E943211CDCF0C940728292F92
:1050100033272330310521F168F42130310509F4BB
:1050200043C02230310509F444C090E080E030E014
:1050300020E026C02132310551F122323105A9F795
:105040006330710590F7FB01EE0FFF1FE753FE4F32
:10505000208131816A537E4FFB01808190E010C036
:1050600099278130910581F0009729F00297E9F6A0
:10507000E6EBF4E002C0E6EFF4E0849190E09F01FB
:10508000FA01318320830895E2EDF4E0F6CF633036
:10509000710558F6660F771FFB01E153FE4F208123
:1050A000318189E090E0ECCF82E190E025E535E0C8
:1050B000E7CF8BE590E02AEF34E0E2CF80E189BDD5
:1050C00082E189BD09B400FEFDCF8091D8008F7DBB
:1050D0008093D8008091E00082608093E00080910E
:1050E000E00081FDFCCF0895AF92BF92CF92DF9296
:1050F000FF920F931F93CF93DF936C01EB018A0113
:105100000E94222AF82E811123C00115110539F0C1
:10511000F80180819181C81BD90BC80ED91EB12C12
:10512000A12C2097A9F08091E80085FD22C08091F4
:10513000E8008E778093E80001151105A1F0F801D1
:1051400080819181A80EB91EB182A08285E0F82EDF
:105150008F2DDF91CF911F910F91FF90DF90CF9016
:10516000BF90AF9008950E94222A8823D1F2F82E92
:10517000EFCFF60181916F018093F1002197FFEF4E
:10518000AF1ABF0ACECFAF92BF92CF92DF92FF92FB
:105190000F931F93CF93DF936C01EB018A010E9461
:1051A000222AF82E811123C00115110539F0F801CA
:1051B00080819181C81BD90BC80ED91EB12CA12C9E
:1051C0002097A9F08091E80085FD22C08091E80039
:1051D0008B778093E80001151105A1F0F80180811B
:1051E0009181A80EB91EB182A08285E0F82E8F2D84
:1051F000DF91CF911F910F91FF90DF90CF90BF90E3
:10520000AF9008950E94222A8823D1F2F82EEFCF82
:105210008091F100F60181936F012197FFEFAF1AA2
:10522000BF0ACECFFC01809175039091760386175B
:105230009707A0F06115710529F49091E8009E7719
:105240009093E80090E06115710551F4911108C048
:105250008091E80082FF34C080E00895BC01F2CF65
:1052600080916E038823C1F18530C1F18091E800FF
:1052700083FD30C08091E80082FDEACF8091E80094
:1052800080FFE1CF8091F3002091F200382F61156B
:10529000710519F02830310558F091E028303105BA
:1052A00009F090E02091E8002E772093E800CBCF22
:1052B00081918093F100615071092F5F3F4FE7CFDB
:1052C00080916E03882341F0853041F08091E800A1
:1052D00083FFBECF81E0089582E0089583E00895C2
:1052E000FC01809175039091760386179707A0F0D3
:1052F0006115710529F48091E8008E778093E800AC
:1053000090E06115710551F4911108C08091E80099
:1053100082FF35C080E00895BC01F2CF80916E031A
:105320008823C9F18530C9F18091E80083FD31C03F
:105330008091E80082FDEACF8091E80080FFE1CF14
:105340008091F3002091F200382F6115710519F05A
:105350002830310558F091E02830310509F090E00F
:105360008091E8008E778093E800CBCF8491809382
:10537000F1003196615071092F5F3F4FE6CF809168
:105380006E03882341F0853041F08091E80083FF6F
:10539000BDCF81E0089582E0089583E00895982FBD
:1053A000973028F08F708093E90081E00895909302
:1053B000E900242F762F50E0981731F07091EC001F
:1053C0002091ED005091F00021FD02C09F5FE8CFD9
:1053D0003091EB003E7F3093EB003091ED003D7F4C
:1053E0003093ED003091EB0031603093EB0070931F
:1053F000EC002093ED005093F0002091EE0027FD8B
:10540000E5CF80E0089580916F0387FF13C08091FE
:10541000E80082FF06C08091E8008B778093E80067
:1054200004C080916E038111F2CF089580916E03C4
:105430008823D9F38091E80080FFF8CF8091E800BD
:105440008E77ECCF2091E4003091E50095E6A9013C
:105450002091EC00822F817020FF06C08091E8002F
:1054600080FF06C080E008952091E80022FD1AC068
:1054700080916E03882389F0853089F08091EB005C
:1054800085FD0FC02091E4003091E50042175307DD
:10549000F9F29150E1F684E0089582E0089583E006
:1054A000089581E008950E94C12A0E94C92AE0EE71
:1054B000F0E0808181608083E8EDF0E080818F778B
:1054C000808319BCA7EDB0E08C918E7F8C93808196
:1054D0008F7E808310926D0308950F931F93CF9357
:1054E000DF930E94C12A0E94C92AC8EDD0E08881BA
:1054F0008F77888388818068888388818F7D88837F
:1055000019BC10926E0310926A0310926C031092F1
:105510006B0300EE10E0F80180818B7F808388812F
:105520008160888342E060E080E00E94CF29E1EE64
:10553000F0E080818E7F8083E2EEF0E08081816008
:105540008083808188608083F80180818E7F808362
:10555000888180618883DF91CF911F910F91089599
:10556000E8EDF0E080818F7E8083E7EDF0E08081E0
:105570008160808384E082BF81E080936D030C941E
:105580006D2AE8EDF0E080818E7F80831092E2004A
:1055900008951092DA001092E10008951F920F9280
:1055A0000FB60F9211242F933F934F935F936F93F6
:1055B0007F938F939F93AF93BF93EF93FF938091CC
:1055C000E10082FF0BC08091E20082FF07C0809162
:1055D000E1008B7F8093E1000E94382D8091DA00FA
:1055E00080FF19C08091D80080FF15C08091DA003B
:1055F0008E7F8093DA008091D90080FF96C080E191
:1056000089BD82E189BD09B400FEFDCF81E08093B0
:105610006E030E94B2268091E10080FF19C0809144
:10562000E20080FF15C08091E2008E7F8093E2004F
:105630008091E20080618093E2008091D8008062D6
:105640008093D80019BC85E080936E030E94C42625
:105650008091E10084FF2BC08091E20084FF27C08D
:1056600080E189BD82E189BD89B5982F917080FF65
:10567000FBCF8091D8008F7D8093D8008091E1008E
:105680008F7E8093E1008091E2008F7E8093E20024
:105690008091E20081608093E20080916A03882318
:1056A00009F449C084E080936E030E94C52680916E
:1056B000E10083FF29C08091E20083FF25C0809133
:1056C000E100877F8093E10082E080936E03109277
:1056D0006A038091E1008E7F8093E1008091E20077
:1056E0008E7F8093E2008091E20080618093E200EF
:1056F00042E060E080E00E94CF298091F000886065
:105700008093F0000E94C326FF91EF91BF91AF916B
:105710009F918F917F916F915F914F913F912F91C9
:105720000F900FBE0F901F90189519BC10926E032A
:105730000E94C02670CF8091E30087FD93E0909394
:105740006E03B3CF1F920F920FB60F9211242F93B7
:105750003F934F935F936F937F938F939F93AF93F9
:10576000BF93CF93DF93EF93FF93D091E900DF7066
:105770008091EC00C82FC17080FDC0E81092E90054
:105780008091F000877F8093F00078940E94E62B50
:105790001092E9008091F00088608093F000CD2B9A
:1057A000CF70C093E900FF91EF91DF91CF91BF914E
:1057B000AF919F918F917F916F915F914F913F91A9
:1057C0002F910F900FBE0F901F9018951F93CF939E
:1057D000DF93CDB7DEB7AA970FB6F894DEBF0FBE42
:1057E000CDBF8FE693E02091F100FC012193CF0122
:1057F000F3E087379F07B9F70E94DB268091E80026
:1058000083FF1EC180916F03909170039A3008F05E
:1058100017C1E92FF0E0E35FF04D0C94B82D80380C
:1058200099F0823809F00CC1809173038F70873032
:1058300008F006C18093E9008091EB0085FB882782
:1058400080F91092E90006C080916B0390916C037F
:10585000911182609091E800977F9093E800809387
:10586000F1001092F1008091E8008E77E5C0882366
:1058700009F4D3C0823009F0E3C080917103811133
:10588000D6C0809173038F702FEF280F263008F059
:10589000D7C08093E9002091EB0020FFC8C093306F
:1058A00031F48091EB0080628093EB00C0C0909156
:1058B000EB0090619093EB0021E030E001C0220FFB
:1058C0008A95EAF72093EA001092EA008091EB00B3
:1058D0008860EACF8111B4C0109171031F77809165
:1058E000E3008078812B8093E3008091E800877F3C
:1058F0008093E8000E94032A8091E80080FFFCCF9B
:105900008091E30080688093E30082E0111183E0DE
:1059100080936E0395C08058823008F091C08091CA
:105920007103909172038C3D23E09207A1F583E00F
:105930008A838AE289834FB7F894DE01139620E0C8
:105940003EE051E2E32FF0E050935700E49120FF56
:1059500003C0E295EF703F5FEF708E2F90E0EA306A
:10596000C0F0C7968D939D932F5F243159F74FBF99
:105970008091E800877F8093E8006AE270E0CE01C2
:1059800001960E9412298091E8008B778093E800AD
:1059900057C0C096E7CF6091730370917403AE0156
:1059A0004F5F5F4F0E940528BC01892B09F448C056
:1059B0009091E800977F9093E80089819A810E94F6
:1059C0007029E1CF8038E1F58091E800877F8093EE
:1059D000E80080916A038093F10045CF811130C0C7
:1059E00090917103923060F58091E800877F8093F9
:1059F000E80090936A030E94032A80916A03882337
:105A000011F084E005C08091E30087FDFACF81E0CA
:105A100080936E030E94C72613C08091710381306A
:105A200079F481E0933009F080E080936C03109268
:105A3000E9008091E800877F8093E8000E94032AB4
:105A40008091E80083FF0AC08091E800877F8093FF
:105A5000E8008091EB0080628093EB00AA960FB67D
:105A6000F894DEBF0FBECDBFDF91CF911F91089597
:105A70000895CF9380916E038823A1F0C091E9002F
:105A8000CF709091EC00892F817090FD80E8C82B39
:105A90001092E9008091E80083FD0E94E62BCF7010
:105AA000C093E900CF910895991B79E004C0991F34
:105AB000961708F0961B881F7A95C9F78095089568
:105AC00087FB082E062687FD819567FD61950E945C
:105AD000542D0EF4919507FC81950895AA1BBB1BCC
