:100000000C9428020C946F020C946F020C946F02F3
:100010000C946F020C946F020C946F020C946F029C
:100020000C946F020C946F020C948D200C9461213F
:100030000C9416170C946F020C946F020C946F02C0
:100040000C946F020C946F020C946F020C946F026C
:100050000C946F020C9461170C946F020C946F0255
:100060000C946F020C946F020C946F020C946F024C
:100070000C946F020C946F020C946F020C946F023C
:100080000C946F020C946F020C946F020C946F022C
:100090000C946F020C946F020C946F020C946F021C
:1000A0000C946F020C946F020C946F022D002E00C2
:1000B000000014001A0000001600070000002700CE
:1000C0002600000012001300000014001A000800AF
:1000D000150017001C001800044416000700090052
:1000E0000A000B000D001D621B0006001900050030
:1000F00011001000E000E300E2002C422C41380027
:1001000033000C0012001300360034000000000021
:100110000E000F00284337720000000000001E0090
:100120001F00200021002200230024000551AE0002
:10013000AA00A900AC00AB002D00000000000000E8
:1001400000000000000000000000000001004C0062
:100150000100010001002500260027000000010029
:10016000000000002E002F003000310000000000D1
:1001700000001E021F02200221022202230224028A
:100180003A003B003C003D003E003F002D02400095
:10019000410042004300440045000000010001000E
:1001A00001000000010001000100250226022702D3
:1001B00000000100000000002E022F023002310278
:1001C00000000000000035003502000000000000C3
:1001D000000000002B0000000000000000000000F4
:1001E00000003900000000000000000000000000D6
:1001F00000000000000000000000000000000000FF
:1002000000000000000000000000000000000000EE
:1002100000000000000000000000000000000000DE
:100220000000000000004A00000000000000000084
:10023000000000005000000000000000000000006E
:10024000000000003100000000000000000000007D
:10025000000052004D004B000000000000000000B4
:1002600051004F004E000000000000000000005C44
:100270000000000000000000B200000000000000CC
:10028000000000000000000000000000000000006E
:10029000000000000000000000000000000000005E
:1002A000000000000000000000000000000000004E
:1002B000000000000000000000000000000000003E
:1002C00000001A03710061007A0020006B006500D5
:1002D000790062006F006100720064000000220378
:1002E00077006800790064006F00620065006100BB
:1002F000720073006500780070006C006F0064008D
:1003000000000403090409023B00020100A0FA09ED
:100310000400000103010100092111010001224034
:10032000000705810308000A090401000103000019
:100330000009211101000122BC00070582032000F1
:100340000A120110010000000831740100010001CF
:1003500002000105010902A10185020901A10005B0
:1003600009190129051500250195057501810295D9
:1003700001750381010501093009311581257F953A
:10038000027508810609381581257F950175088158
:1003900006050C0A38021581257F9501750881062E
:1003A000C0C005010980A101850319012AB7001504
:1003B0000126B700950175108100C0050C0901A147
:1003C00001850419012AA002150126A002950175D4
:1003D000108100C005010906A1018505050719E086
:1003E00029E7150025019508750181020507190007
:1003F00029EF1500250195F0750181020508190105
:100400002905950575019102950175039101C005B6
:10041000010906A101050719E029E7150025019545
:1004200008750181029501750881010507190029E8
:10043000FF150026FF0095067508810005081901C3
:100440002905950575019102950175039101C0007B
:1004500011241FBECFEFDAE0DEBFCDBF04B603FE2E
:1004600027C08091A9029091AA02A091AB02B091FD
:10047000AC028730904BA740B04BD1F41092A90248
:100480001092AA021092AB021092AC0214BE84B772
:10049000877F84BF0FB6F894A8958091600088612B
:1004A00080936000109260000FBEE0E0F8E30995D1
:1004B00011E0A0E0B1E0E8EDF7E402C005900D9294
:1004C000A83AB107D9F722E0A8EAB1E001C01D922D
:1004D000A93AB207E1F70E94CF1D0C9483230C9434
:1004E0000000CF93DF939C013A9521153F4168F5B9
:1004F000EC01CC27D170DC01AA27B270AC014427F3
:1005000054709C012227387094FF11C080E1CD2BDC
:1005100009F480E0AB2B09F08062452B09F0806480
:10052000232B09F08068FB01DF91CF91099481E0D2
:10053000CD2B09F480E0AB2B09F08260452B09F04C
:100540008460232B81F38860EECFDF91CF910895F3
:10055000CF93DF93EC01805E9109089720F060E073
:100560007FE0209711F46AE97CE0CE010E947102DD
:100570008C2FDF91CF910C949A0BCF93DF93EC01EA
:100580000E94310CCE01805E9109089720F067E04F
:100590007FE0209711F461EA7CE0CE01DF91CF91FA
:1005A0000C94710281E0089581E008950C94D402C6
:1005B00008950C94D8021F93CF93DF9300D000D0FE
:1005C0000F92CDB7DEB749835A836B833091D30145
:1005D00089819A8131111DC06623B9F02223A9F0C7
:1005E0000E941114182F682F89819A810E94BD13CF
:1005F00069817A81812F0F900F900F900F900F904B
:10060000DF91CF911F910C9495030E94E913182F4D
:10061000EFCF0E94111469817A81EDCFFC01262F62
:10062000408151816281738184810C94DB02CF937C
:10063000DF93EC0160E00E940E03BE01DF91CF91D9
:100640000C94D9020E94AB170E945B15811102C065
:100650000E94FF150C94A1050E94F1080C94A405BA
:1006600008950E94240F0E9430032FEF84E39CE042
:10067000215080409040E1F700C000000C948517A5
:100680000F931F93CF93DF93EC0161E00E940E0361
:100690008C01BE010E94D602882359F1BE01C80117
:1006A0000E941D09882329F1BE01C8010E9432075A
:1006B0008823F9F0BE01C8010E9484078823C9F08D
:1006C000BE01C8010E94A708882399F08A81882367
:1006D00039F001158CE5180751F00F3D1C4579F0F4
:1006E000CE01DF91CF911F910F910C94D2020E9405
:1006F000310380E0DF91CF911F910F9108950E9407
:10070000FF15F7CF08950C94820381E008950C94AF
:100710008503CF93C82F0E9483038C2FCF910C9415
:10072000870390E080E008950895972F70E027E018
:10073000929F600D711D1124FB019AE2899FE00DCB
:10074000F11D1124EE0FFF1FE653FF4F8591949189
:100750000895FC01EE0FFF1FEE53FD4F859194911C
:100760000895CF93DF930E9495030E94C604EC0185
:10077000811520E5920708F042C0811530E4930707
:1007800008F0BDC0883E910528F5803E910508F02F
:100790009DC0883A910588F4853A910508F08FC08C
:1007A0008130910509F492C0009709F48FC0049735
:1007B00008F08CC0D0E0C0E089C08F3B910508F400
:1007C00089C0805C9109C03CD105A0F30E94A903B7
:1007D000EC017CC08115904250F4C11581E0D8072E
:1007E00008F074C0C03FD10528F3D0656FC0C115B3
:1007F00090E3D90708F079C0CE019F70E7CF81154B
:1008000025E5920758F5811534E5930708F0A6C051
:10081000811542E5940750F4C11581E5D80708F425
:1008200071C0DC2FCC27C16FD06A50C0982F96952D
:1008300096959E0123703327C115D34508F07FC0DC
:10084000C1E0D0E002C0CC0FDD1F2A95E2F720E224
:10085000929FC0011124C82BD92B6FC0C11589E507
:10086000D807A8F4C11598E5D90708F07CC0C115D0
:1008700026E5D20708F09ECF8C2F0E945D05C82F79
:10088000D0E0DC2FCC27CC27DF71D0621FC0C11590
:100890003AE5D30708F46CC0CE019056811590421A
:1008A00008F088CF8D2F8F710E945D0590E0982F02
:1008B000882788279F719C012C2BE901E6CFC55A18
:1008C000D0E0C35ADE4FC881D0E0D064CE01DF91C2
:1008D000CF910895C85AD0E0CC0FDD1FC15DDE4F27
:1008E0000990D881C02DD464F1CFCE019927D3FFD0
:1008F00003C0EC01D86CEACFEC01D06CE7CFDF701D
:10090000D06AE4CFCE01E4E096958795EA95E1F7C9
:1009100083702C2F26952695237090E2299F9001B5
:100920001124382B8C2F8370C1E0D0E002C0CC0F93
:10093000DD1F8A95E2F7C22BD32BDC68C7CFC1E05D
:10094000D0E002C0CC0FDD1F2A95E2F730E2939F82
:10095000C0011124C82BD92BDA68B8CFD82FCC27E7
:10096000C46FD06AB3CFDC2FCC27C06FD06AAECFB4
:100970008C2F8F700E945D0534E0D695C7953A950F
:10098000E1F7CF709C2FEC01D069A0CF82389105A0
:10099000B1F1B0F48133910509F475C048F489329E
:1009A000910509F469C08A32910509F473C008956C
:1009B0008533910509F459C08933910501F10895F2
:1009C000833E9105A9F138F4803E9105F9F0823E0D
:1009D000910549F10895863E9105A9F1873E91055B
:1009E000C9F1843E910519F520919B0221FF1FC09A
:1009F00080919A0284FD14C087EE90E008952091C2
:100A00009A022370A1F080EE90E0089520919A025E
:100A100020FD47C030919B0230FF09C024FF44C035
:100A200090E080E004C020919A0222FDF7CF089563
:100A300020919A0222FD3BC030919B0230FDE3CF12
:100A400024FFF5CFEDCF20919A0223FFF0CF24FDB4
:100A5000E7CFD2CF20919A0223FD2CC030919B0288
:100A600031FFEECF84EE90E0089520919A0225FFA9
:100A7000DECF89E290E0089520919A0225FFD7CF3A
:100A800085E390E0089520919A0226FFD0CF8AE274
:100A900090E0089520919A0226FFC9CF81E390E06B
:100AA000089589E390E0089583EE90E0089582EE42
:100AB00090E0089586EE90E0089590919A0292FF5A
:100AC00006C0282F28712830F9F4877F846093FFAF
:100AD00006C0282F28712831F1F4877E8461209187
:100AE0009B0220FF06C0382F38713830D9F4877F39
:100AF000816021FF06C0282F28712831D1F4877E1C
:100B0000816194FD877E0895282F24712430F9F6A1
:100B10008B7F8860DCCF282F2471243101F78B7EF6
:100B20008861DDCF382F3171313019F78E7F8860C1
:100B3000E0CF282F2171213121F78E7E8861E1CF0E
:100B400008950C94A00508950C94A305E82FF0E0F7
:100B5000E057FD4F80810895089580EA8A95F1F766
:100B60000895F894E82FE295EF70F0E031A1282F76
:100B70002F7081E090E001C0880F2A95EAF7982F46
:100B80009095932391A392A1892B82A378940895A1
:100B90000F931F93CF93DF9384EF0E94B10584E9F5
:100BA0000E94B10586E60E94B10586EC0E94B1055F
:100BB00081E90E94B10580E90E94B105C0E6D1E05B
:100BC00007E611E089910E94B1050C171D07D1F7C6
:100BD000EAE8F2E0A0E9B2E011921D9282E0E03989
:100BE000F807D1F786E00E947006DF91CF911F9140
:100BF0000F910C942203CF92DF92EF92FF920F930A
:100C00001F93CF93DF93C7E6D1E00AE812E0D12C1F
:100C1000EE24E394F12C8991F894E82FE295EF709B
:100C2000F0E021A18F70A70102C0440F551F8A95E3
:100C3000E2F7CA01922F982B91A392A18095892364
:100C400082A378940E94AD05E0E6F1E030E020E078
:100C5000C12C4191A42FA295AF70B0E090968C91D9
:100C600090E04F7002C0959587954A95E2F780FD18
:100C700033C08E2D022E01C0880F0A94EAF7C82ACD
:100C80002F5F3F4F2730310521F7FE0131978081DB
:100C90000E94B105F8018081C81601F1C08281E08F
:100CA000D82A0F5F1F4FF1E0CD36DF0709F0B3CF31
:100CB0002D2D46E060E972E08AE892E00E9471061C
:100CC0000E942C038D2DDF91CF911F910F91FF90EA
:100CD000EF90DF90CF90089580E0D1CF80E0E0CF1B
:100CE0000895FF920F931F93CF93DF93F82E092F50
:100CF000162FD72FC42F222349F081E08093AA0119
:100D00000E9446179093A9018093A8018091AA019F
:100D10008823A1F08091A8019091A9010E94521707
:100D2000069760F0EF2DF02FA12FBD2FCE0FDF2FF4
:100D3000D11DEC17FD0741F41092AA01DF91CF916C
:100D40001F910F91FF90089581918D93F2CFAF92F3
:100D5000BF92CF92DF92EF92FF920F931F93CF93A8
:100D6000DF937C015B01C42FD22FFC018281882399
:100D7000F9F04093AD010E9446179093AC01809327
:100D8000AB0180E28C0F883008F061C0C77081E051
:100D900001C0880FCA95EAF7DF91CF911F910F919B
:100DA000FF90EF90DF90CF90BF90AF900C949A0C93
:100DB0001091AD01141340C08091AB019091AC0132
:100DC0000E9452176C01B701C5010E949A11C81602
:100DD000D90690F5C0E2CD0F1D17B9F080E2810F62
:100DE000883040F4177081E001C0880F1A95EAF747
:100DF0000E94A10CC83048F481E09D2F977001C07B
:100E0000880F9A95EAF70E949A0C802F0E94870C0F
:100E1000C830E8F4D77081E001C0880FDA95EAF7AE
:100E2000DF91CF911F910F91FF90EF90DF90CF90C6
:100E3000BF90AF900C94A10C80E28C0F883038F4F6
:100E4000C77081E001C0880FCA95EAF7E9CFDF914A
:100E5000CF911F910F91FF90EF90DF90CF90BF90B7
:100E6000AF9008950F939C01CB01243F4CE53407CC
:100E700059F1A8F4293DFCE53F0701F12A3D4CE575
:100E80003407D1F1283D3C4591F406E221EE41EED4
:100E900068ED7CE50E94A70680E00F910895263F4B
:100EA000FCE53F07E9F0B0F0273F3C45F9F0FC01D5
:100EB0008281882339F11092AD01EFCF07E225EE50
:100EC00045EE69ED7CE5E6CF06E221EE40EE64EF0B
:100ED0007CE5E0CF07E225EE44EE65EF7CE5DACF76
:100EE00006E221EE42EE66EF7CE5D4CF07E225EE86
:100EF00046EE67EF7CE5CECF08E221E045EE6AEDF5
:100F00007CE5C8CF81E0C9CFCF93DF93EC01FB0133
:100F10008281882309F419C1C230FCE5DF07C0F1E2
:100F2000C6319CE5D90730F09E012B5F3C45293046
:100F3000310570F50E946E1590939B0280939A0282
:100F4000C031ECE5DE0709F4CFC008F05BC0C83063
:100F50008CE5D80709F4B6C088F5C430ECE5DE07A7
:100F600009F4A8C0C0F4C2308CE5D80709F49CC0CD
:100F700080919A028260C330DC4509F498C0809168
:100F80009A0290919B020E947C150E94240F80E09F
:100F9000DF91CF91089580919A028061C630ECE58F
:100FA000DE0709F484C080919A028860C730DC456E
:100FB00008F47DC080919A02806279C0CC308CE5C3
:100FC000D80709F489C070F480919A028C60CA3005
:100FD000ECE5DE0709F46BC008F478C080919A0252
:100FE0008E7F65C0CE308CE5D80709F479C080913A
:100FF0009A028B7FCF30DC4508F459C080919A0269
:101000008F7E55C0CC3FECE5DE0709F457C030F5C4
:10101000C3318CE5D80709F46FC078F4C131ECE531
:10102000DE0709F465C0C231DC4509F0A8CF0E9493
:10103000240F80919A028F773AC0C5318CE5D8078A
:1010400009F462C008F476C080919B028160CB3FB6
:10105000DC4509F094CF80939B0291CFC115FDE54B
:10106000DF0709F44DC088F480919B028D7FCE3F4D
:101070009CE5D90781F380919B028E7FCF3FDC45B1
:1010800050F380919B028360E6CFC230FDE5DF071D
:1010900009F459C008F444C080E0C330DD4509F0CC
:1010A0006ECF0E9401166BCF80919A02816080936F
:1010B0009A0265CF80919A028460F9CF80919B0259
:1010C0008260C9CF80919A028064F1CF0E94240F80
:1010D00080919A028068EBCF80919A028D7FE7CF52
:1010E00080919A02877FE3CF80919A028F7DDFCF34
:1010F00080919A028F7BDBCF80919A02837FD7CF3A
:1011000080919B028C7FA7CF80919A0282FB9927C6
:1011100090F921E0922790FB82F990FB83F9C7CFE9
:1011200080919B02982F909591708E7F892B90FBD8
:1011300081F991CF0E94240F90919A02892F97FBF9
:1011400087F98058B4CF81E0ACCF81E021CFCF9335
:10115000DF93EB0186319C4511F50E94A6149A811C
:10116000992399F08A7A91E009F490E09093AE0186
:10117000811109C089E20E9481140E94F21480E06A
:10118000DF91CF91089585E3F6CF8091AE01811173
:1011900004C089E20E948814F0CF85E3FBCF81E090
:1011A000EFCFCF939091BF01992321F0811116C009
:1011B0001092BF01CF910895EC2FF0E0EE0FFF1FCA
:1011C000E155FE4F808191810E94A8020E94F21495
:1011D000CF5F8091BF01C81778F3EACFC0E0F9CFA5
:1011E000089580911901882399F08091C001882386
:1011F00079F08091C4019091C501009749F00E9457
:1012000052174A9728F01092C00181E00C94D1083F
:1012100008951092C001109219011092C501109208
:10122000C40181E00C94D1088091190181110C94C2
:10123000090981E08093190108955F926F927F926E
:101240008F929F92AF92BF92CF92DF92EF92FF92D6
:101250000F931F93CF93DF937C016B011092C10119
:10126000883F4CE59407C1F4FB01C281CC2349F1CE
:1012700081E0809319018C2FDF91CF911F910F9105
:10128000FF90EF90DF90CF90BF90AF909F908F90A6
:101290007F906F905F900895893FFCE59F0739F438
:1012A000FB01C281CC2369F00E940909E4CF8A3F87
:1012B0009C4539F4FB01C281CC2319F00E9414092A
:1012C000DACFD0911901C1E0DD23A9F21092C30158
:1012D0001092C201C0E055E0752E88248394912CB1
:1012E000662463940091C2011091C3010530110579
:1012F00088F08091C101882309F497C00E944617A5
:101300009093C5018093C40180E00E94D10881E0E0
:10131000C827B1CF709EF001719EF00D1124E050EE
:10132000FF4F808191813FEF20E0E22FF0E0EE0F50
:10133000FF1FE80FF91F45915491E416F50609F4D3
:10134000322F452B11F02F5FF0CF3F3FD1F4512CBE
:10135000C529DD2351F0709EF001719EF00D11241E
:10136000E050FF4FD1E084818111D0E0D1708091B5
:10137000C2019091C30101969093C3018093C20171
:10138000B1CF5090C001F6019281709EF001719E24
:10139000F00D1124E050FF4F8481540101C0AA0CCC
:1013A0003A95EAF79923E1F0A82AA482552079F228
:1013B000C40102C0880F991F2A95E2F70197A81669
:1013C000190631F682819381009729F00E94A802C4
:1013D0006092C101BDCF61E0C8010E94F008F8CF62
:1013E000A40102C0440F551F2A95E2F79A0121502B
:1013F000310982171306B9F482819381009771F045
:101400000E94BD02709EF001719EF00D1124E0500B
:10141000FF4FA0948481A822A4829ACF60E0C801E3
:101420000E94F008EFCF512CEDCFC1110EC081E02A
:101430000E94D108DD2309F46ACF1092C5011092F1
:10144000C40181E08093C00162CFF60182818823CC
:1014500009F45DCF8091C001882309F458CF0E9420
:1014600046179093C5018093C401E091BF01E83015
:1014700008F04DCF81E08E0F8093BF01F0E0EE0FBA
:10148000FF1FE155FE4FF182E08241CF9093CB01E7
:101490008093CA010895E091CA01F091CB01309781
:1014A00021F00190F081E02D099480E00895E09111
:1014B000CA01F091CB01309799F020912E0122239F
:1014C00059F020919A0227FF07C0DC012C91119658
:1014D0002C93119725E02C930280F381E02D099441
:1014E0000895E091CA01F091CB01309739F022E0E4
:1014F000DC012C930480F581E02D0994089520915E
:10150000C8013091C9012817390771F09093C901BA
:101510008093C801E091CA01F091CB01309721F08E
:101520000680F781E02D099408952091C60130913D
:10153000C7012817390771F09093C7018093C6013E
:10154000E091CA01F091CB01309721F00084F18540
:10155000E02D0994089585B7806885BF85B78068B8
:1015600085BF0895089508950C94B20A08950C94C7
:10157000B60A0E94AB0A0E94B30A0C94B40A81E036
:1015800008950C94BF0A089508950E943D170E9483
:10159000C8050E94BF170C94B70AAF92BF92CF92B2
:1015A000DF92EF92FF920F931F93CF93DF93CDB70C
:1015B000DEB72A970FB6F894DEBF0FBECDBF0E94EC
:1015C000C30A0E94C40A0E94FB050E94C10A882324
:1015D00009F45FC08DECA82E81E0B82E10E000E089
:1015E000C02E802F0E94A605E82EF501D1905F0144
:1015F000D81609F448C08091570281FD0E94AC05BD
:1016000080E0FF24F394DE249D2D9F21B9F18E8389
:10161000CF82EF2081E009F480E088870E9446179E
:101620008160782F9A8789874E815F8168858A8556
:101630000E946B0BF801E353FE4F8081F826F08285
:101640000E946A190E944B0A9091CC01891791F16E
:101650000E944B0A8093CC012A960FB6F894DEBF05
:101660000FBECDBFDF91CF911F910F91FF90EF90F3
:10167000DF90CF90BF90AF900C9489038F5FFF0CE9
:10168000873009F0C1CF0F5F1F4F0630110509F0F9
:10169000A7CF8FEF89838A831B820E9446178160C0
:1016A000782F9D838C8349815A816B818D810E9423
:1016B0006B0BC6CF2A960FB6F894DEBF0FBECDBF18
:1016C000DF91CF911F910F91FF90EF90DF90CF901E
:1016D000BF90AF900895CF93DF93CDB7DEB72B9730
:1016E0000FB6F894DEBF0FBECDBF4F835887698712
:1016F0007A878B871E821D8285E0FE013796DE0188
:10170000119601900D928A95E1F749815A816B817A
:101710007C818D819E812B960FB6F894DEBF0FBE23
:10172000CDBFDF91CF910C949D11FC0180819181FF
:101730000C945314CF93C82F882309F490C0823897
:10174000C1F40E944B0A81FD8AC089E30E94811482
:101750000E94F2142FEF81EE94E0215080409040DF
:10176000E1F700C0000089E30E948814CF910C9437
:10177000F2148338A1F40E944B0A80FD70C083E507
:101780000E9481140E94F2142FEF81EE94E0215008
:1017900080409040E1F700C0000083E5E5CF843849
:1017A000A1F40E944B0A82FD5AC087E40E94811472
:1017B0000E94F2142FEF81EE94E02150804090407F
:1017C000E1F700C0000087E4CFCF8CEF8C0F813AA7
:1017D000B8F48C2F0E94D11B811141C06C2F8091D5
:1017E0001A0190911B010E941A16882329F08C2F50
:1017F0000E9488140E94F2148C2F0E948114B6CF8C
:1018000080E28C0F883048F4C77081E001C0880FF7
:10181000CA95EAF70E94A914A9CFEBE5EC0FE330D3
:1018200040F4F0E0E556FE4F808190E0CF910C94BB
:101830007F0AE8E5EC0FE73150F4F0E0EE0FFF1F10
:10184000E359FE4F80819181CF910C94950AC03F5E
:1018500030F08C2F0E946418CF910C944F19CF91C7
:101860000895882309F452C0823871F40E944B0A0B
:1018700081FF4CC089E30E9481140E94F21489E325
:101880000E9488140C94F214833859F40E944B0A75
:1018900080FF3CC083E50E9481140E94F21483E51E
:1018A000EFCF843859F40E944B0A82FF2FC087E49F
:1018B0000E9481140E94F21487E4E2CF9CEF980FFB
:1018C000913AF0F290E2980F983050F4877091E0DE
:1018D00001C0990F8A95EAF7892F0E94AF14D2CFE1
:1018E0009BE5980F933020F490E080E00C947F0A01
:1018F00098E5980F973120F490E080E00C94950AD9
:10190000803F20F00E94CC180C944F190895CF937B
:10191000C82F0E949A0BC93349F42FEF87EE93E04A
:10192000215080409040E1F700C000008C2FCF9103
:101930000C94310C882321F00E94A9140C94F21409
:101940000895882321F00E94AF140C94F214089596
:10195000BF92CF92DF92EF92FF920F931F93CF939C
:10196000DF936C01D62FC72FFC01058102950F7004
:10197000128111110E94C6140E949F14E82E882320
:1019800091F01123D1F08C2F807F803421F080E200
:101990008D0F883090F082E00E943D150E949F14C8
:1019A00091E0E82EE926BC2EB2949FE0B922EB2DFF
:1019B000F0E0EB57FC4D0C942723E12CF4CF0C2FD7
:1019C0000F70C07F11F00295007F1123A9F0002352
:1019D00059F080E28D0F883010F0D11109C0802FAE
:1019E0000E94A9140E94F2148D2F0E949A0B14C019
:1019F000802F0E94B914F6CF8D2F0E94310C002346
:101A000059F080E28D0F883010F0D1112CC0802F5A
:101A10000E94AF140E94F2142B2D2850330B243057
:101A2000310520F40E944B0A0E948903EE2009F43C
:101A30009EC10E949B1480FD9AC1F60112820E94F1
:101A400095140E942113C6010E94D80E0E9495147D
:101A5000DF91CF911F910F91FF90EF90DF90CF908A
:101A6000BF900C944213802F0E94BF14D3CFFC2F41
:101A7000FF70FF2EC07FC03219F0F29480EFF82281
:101A8000DD2369F0D13049F1112391F1002351F1A7
:101A9000F601858180FFA8CF8F70858323C0112335
:101AA00081F0011106C00E94D9148F290E949A0C5E
:101AB000B3CF0130C1F70E94D9148F290E94DF14DF
:101AC000ABCF011106C00E94E8148F2D0E94A10C1B
:101AD000A3CF013009F4A0CFF6CF112329F00630AF
:101AE00008F09ACF8F2DE2CF053008F095CFEDCFDB
:101AF000002359F3D93349F4FFEF27EE33E0F150D7
:101B000020403040E1F700C000008D2F0E94310CD2
:101B100083CF8C2F86958695837069F0813009F08C
:101B20007BCF8D2F9C2F9370111102C090E080E02D
:101B30000E94950A71CF8D2F9C2F9370111102C0B6
:101B400090E080E00E947F0A67CF8D2F112329F05B
:101B50000E9464180E944F195FCF0E94CC18FACFE0
:101B60008C2F837009F041C0111156CF4D2F429533
:101B700046954770440F440F0D2F0F7010E030E072
:101B800020E0042E04C0000F111F221F331F0A94EF
:101B9000D2F760E070E0CB01D4FF0FC06FE070E0DF
:101BA00080E090E004C0660F771F881F991F4A9558
:101BB000D2F76095709580959095C695C695C3703F
:101BC000602B712B822B932BC23049F058F4C1301B
:101BD00019F00E94D31220CF0E94C1121DCF0E9483
:101BE000E5121ACF0E94BF1217CF8695112311F06C
:101BF0008C2F8170882309F40FCF4D2F4295469585
:101C00004770440F440F0D2F0F7010E030E020E0BC
:101C1000042E04C0000F111F221F331F0A94D2F795
:101C200060E070E0CB01D4FF0FC06FE070E080E0B7
:101C300090E004C0660F771F881F991F4A95D2F75E
:101C40006095709580959095C695C695C370602BEC
:101C5000712B822B932BC23049F058F4C13019F00C
:101C60000E949813D9CE0E948613D6CE0E94AA1342
:101C7000D3CE0E94FB12D0CECF70112329F08C2F2F
:101C80000E9421138D2F12CF8D2F0E94A10C8C2F1B
:101C90000E944213C1CED23F89F160F4D03FC9F017
:101CA000D13F29F1112309F442C001119DCE8C2F9F
:101CB0008F7121C0D33F39F1D43FA1F7112369F1CE
:101CC000CF718C2F0E94211363E08C2F0E94281566
:101CD000A3CE112341F0053008F09ECE8C2F8F71DA
:101CE0000E94651399CE063008F096CEF7CF8C2F60
:101CF0008F71112369F20E9421138ECE8C2F8F7168
:101D00001123C9F3C5CF112329F08C2F8F710E94A5
:101D10000C1382CE0E9407137FCE81E00E943D15F6
:101D2000023008F479CE82E00E943D1575CE002382
:101D300059F0D93309F0E9CE8FEF97EEE3E0815007
:101D40009040E040E1F7DFCE8C2F8F71A1CF4C2F78
:101D50004F706D2FC6010E9491030E9437125CCE16
:101D60004C2F4F706D2FC6010E94940355CEDF910A
:101D7000CF911F910F91FF90EF90DF90CF90BF9088
:101D800008950F931F93CF93DF93EC0168817981BE
:101D90008A810E945D148C010E94BC130E94BE12B5
:101DA000B801CE01DF91CF911F910F910C94A80C37
:101DB000CF93DF93EC018B819C81892B29F0888163
:101DC000998189238F3F59F4DF91CF910895CE01F6
:101DD0000E94C10ECE01DF91CF910C941703CE016A
:101DE0000E9440038111F3CF0E949F14882361F366
:101DF0008A81882349F382E0DF91CF910C943D15CD
:101E0000882321F00E94B9140C94F21408958823B9
:101E100021F00E94BF140C94F21408950E94C6147D
:101E20000E94D6140E94F2140E94761A0E944F1942
:101E300090E080E00E947F0A90E080E00C94950A98
:101E40000E948F140C940E0F0E94B6140C94200F55
:101E5000E92FE295EF70E250EE3070F4F0E0EB56CF
:101E6000FC4D0C942723803F19F020F4883E20F489
:101E700081E00895843FE1F380E00895883EC0F357
:101E8000813FD1F7F5CF93FB882780F908950E9411
:101E900053140C94280FCF93DF9300D000D00F92EF
:101EA000CDB7DEB70F900F900F900F900F90DF918E
:101EB000CF910895CF93DF9300D000D000D0CDB75D
:101EC000DEB726960FB6F894DEBF0FBECDBFDF910A
:101ED000CF9108951F93CF93DF93C091D40116E063
:101EE0008091D5018C1304C0DF91CF911F9108958B
:101EF000D0E01C9FF0011D9FF00D1124EA52FE4F0F
:101F00004081518162817381848195810E945A0F41
:101F10002196C770E5CF409106025091070260916B
:101F200008027091090280910A0290910B020C94B0
:101F30005A0F1F93CF93DF9380910B02807FA9F4F8
:101F400080910802882389F08091D401C091D50145
:101F50006091060270910702A0910902B0910A02F5
:101F6000D62FD72316E0C81304C0DF91CF911F915D
:101F7000089590E0109711F0DF3F19F401968770F3
:101F8000F2CF189F9001199F300D1124F901EA52E8
:101F9000FE4F41814713F2CF40814613EFCF42817C
:101FA0004111ECCF438154814A1B5B0B483C5105E6
:101FB00028F780910B028F70806180930B02F901EA
:101FC000E552FE4F80818F708061808386E092E0D1
:101FD0000E94D80EDF91CF911F910C946A0FAF929F
:101FE000BF92CF92DF92EF92FF920F931F93CF9306
:101FF000DF93CDB7DEB761970FB6F894DEBF0FBEA3
:10200000CDBF8C0185E0F801DE011D9601900D9297
:102010008A95E1F7F80140815181E28086E0C82E7F
:1020200082E0D82E6091090270910A026115710553
:1020300009F461C19091060220910702892F822341
:102040008F3F09F458C1A380B480F0900802F501D5
:10205000E61BF70BFF2009F4FCC080910B02382F20
:10206000307FE83CF10508F0B2C0311179C0FE2C98
:10207000251323C0941321C0E1101FC08F7080610D
:1020800080930B020E948B0FC6010E94D80E809194
:102090000B02F80185838F2D61960FB6F894DEBF91
:1020A0000FBECDBFDF91CF911F910F91FF90EF90A9
:1020B000DF90CF90BF90AF900895AB2829F0842F88
:1020C00085238F3F09F033C180E0F82FF170DF2EB8
:1020D00080FF3CC08091D4012091D50136E082136D
:1020E00015C04D875E878D859E850E945314292FCC
:1020F00022952F702230F0F0243018F59F70F1F007
:10210000F8019581907FD1F4D12C1EC090E0389FCA
:10211000F001399FF00D1124EA52FE4F61816513E1
:1021200006C06081641303C062816E110FC0019606
:102130008770D5CF9F7011F0882331F3805E88308F
:1021400018F3C8010E94D80EFD2CA5CFEE2009F48B
:10215000A2CF80910B02816080930B02F12C9BCF68
:10216000251306C0941304C0F801EE2009F48DC0B5
:102170004D875E878D859E850E94470F882319F1C4
:10218000EE2009F180910B02803270F0209106025E
:102190003091070238872F831986BB86AA868C87E1
:1021A000CE0107960E94D80E86E0F801A6E0B2E0C4
:1021B00001900D928A95E1F70E94990F0E948B0F72
:1021C000FF24F39468CFC8010E94D80EF9CF3111D3
:1021D00013C07A2DB98AA88A6E2D89890E944B0F67
:1021E00086E092E00E94D80E86E0F60111928A9570
:1021F000E9F70E948B0FB2CF25130FC094130DC0C7
:10220000E1100BC0F8018583C8010E94D80E86E05A
:10221000F60111928A95E9F73ECF4D875E878D854D
:102220009E850E94470F882371F2EE2061F2809113
:102230000B02803208F4B8CF2091060230910702D9
:102240003A8329831B82BD82AC828E83CE010196A4
:10225000A9CFE83CF10508F041C0FE2CEE2009F4BE
:10226000B2CF25132AC0941328C080910B0280FDA1
:102270001BC0982F907FC1F0F8018583903F31F00B
:10228000982F907F905F8F70892B8583C8010E9463
:10229000D80E86E0F801A6E0B2E001900D928A9592
:1022A000E1F70E948B0FF7CE86E0F801A6E0B2E0DE
:1022B00001900D928A95E1F7EECE4D875E878D8570
:1022C0009E850E94470F81116FCF80910B02816024
:1022D00080930B02C8010E94D80EDDCE7A2DB98AF8
:1022E000A88A6E2D89890E944B0F86E0F601119213
:1022F0008A95E9F7D6CFEE2009F465CF4D875E8742
:102300008D859E850E94470FF82E882309F45BCFA8
:1023100086E0F801A6E0B2E001900D928A95E1F71F
:1023200086E092E00E94950B0E94990FBACF81E05F
:102330008E25CBCE88EC90E008951F93CF93DF934A
:10234000CDB7DEB72C970FB6F894DEBF0FBECDBF6A
:102350004F83588769877A878B879C87CE0107963A
:102360000E94EF0F882369F08A859B85892B39F0BD
:102370004F815885842F85238F3F09F071C016E067
:102380005FC086E0FE013796DE01119601900D9246
:102390008A95E1F78A859B85892B89F388859F81BA
:1023A00089238F3F61F32091D50130E0C901019667
:1023B000877099274091D4014817190671F40E943B
:1023C000240F1092D5011092D40186E0E6E0F2E0ED
:1023D000DF011D928A95E9F7D2CF96E0929FD00156
:1023E000939FB00D1124AA52BE4FFE013196019069
:1023F0000D929A95E1F78093D5010E946A0FBFCFA5
:10240000819FC00111248A529E4F0E94EF0F8823A2
:10241000E9F0E091D4011E9FF0011124EA52FE4F31
:102420004081518162817381848195810E945A0F1C
:102430008091D40190E00196877099278093D40110
:102440008091D4019091D5018913DACF2C960FB6E3
:10245000F894DEBF0FBECDBFDF91CF911F910895DD
:1024600069857A858B859C850E945A0F88CFEF926B
:10247000FF920F931F93CF93DF938C01892B81F0F1
:10248000F12CEE24E394E8012196F801849184373D
:1024900070F4843008F05FC08130B1F08230A1F177
:1024A000DF91CF911F910F91FF90EF9008958537A5
:1024B00009F44CC008F43DC09CE7980F903780F7B2
:1024C0008F770E94310C49C00E5F1F4FFE0184912F
:1024D00090E2980F983060F48770FE2D01C0FF0FD6
:1024E0008A95EAF78F2F0E94C9140E94F21402C045
:1024F0000E949A0B8F2D815030F2EFE9FFE0319767
:10250000F1F700C00000F7CF0E5F1F4FFE0184916E
:1025100090E2980F983050F48770FE2D01C0FF0FA5
:102520008A95EAF78F2F0E94CF14DFCF0E94310CDB
:10253000E1CF0E5F1F4FFE01C491C150D8F28FE969
:102540009FE00197F1F700C00000F7CF0E5F1F4F2B
:10255000FE01F490CFCF0E949A0B8E01CBCF08954D
:102560000C94AF120E94B01260932E0270932F024F
:1025700080933002909331020C940E0F08950C94C6
:10258000B2120F931F9300912E0210912F022091EF
:10259000300230913102602B712B822B932B1F91D3
:1025A0000F910C94B2120F931F9300912E02109171
:1025B0002F02209130023091310260237123822357
:1025C00093231F910F910C94B2120F931F930091BC
:1025D0002E0210912F02209130023091310260279B
:1025E0007127822793271F910F910C94B2120C949C
:1025F000AF120C94F7120E94F91260932A027093A2
:102600002B0280932C0290932D020C940E0F60E00D
:1026100070E0CB010C94FB120F931F9341E050E04C
:1026200060E070E08A019B0104C0000F111F221FAF
:10263000331F8A95D2F7C901B8011F910F910C94ED
:10264000FB120F931F9341E050E060E070E004C084
:10265000440F551F661F771F8A95D2F780912A0273
:1026600090912B02A0912C02B0912D028A019B0126
:10267000082B192B2A2B3B2BC901B8011F910F9155
:102680000C94FB120F931F9341E050E060E070E068
:1026900004C0440F551F661F771F8A95D2F7CB01E0
:1026A000BA01609570958095909500912A021091DD
:1026B0002B0220912C0230912D0260237123822362
:1026C00093231F910F910C94FB120F931F9341E0E2
:1026D00050E060E070E004C0440F551F661F771F94
:1026E0008A95D2F780912A0290912B02A0912C0218
:1026F000B0912D028A019B01082719272A273B2721
:10270000C901B8011F910F910C94FB120F931F93F5
:1027100000912A0210912B0220912C0230912D025F
:10272000602B712B822B932B1F910F910C94FB121A
:102730000F931F9300912A0210912B0220912C02DB
:1027400030912D0260237123822393231F910F91D7
:102750000C94FB120F931F9300912A0210912B02ED
:1027600020912C0230912D02602771278227932718
:102770001F910F910C94FB12089527E0929F800DFA
:102780001124982F977041E001C0440F9A95EAF701
:1027900086958695869595E0899FF0011124E45FE2
:1027A000FD4F90E080E070E05191DF0111979B01B7
:1027B000082E02C0369527950A94E2F721702195DC
:1027C0002527242325272C9301968530910561F731
:1027D000089527E0929F800D1124982F9770869579
:1027E0008695869525E0829FF0011124E45FFD4FD8
:1027F00050E040E080E0219130E0092E02C03695A3
:1028000027950A94E2F721703327042E01C0220F86
:102810000A94EAF7822B4F5F5F4F4530510559F715
:102820000895BF92CF92DF92EF92FF920F931F9382
:10283000CF93DF938C01C0902A02D0902B02E090BE
:102840002C02F0902D0280912E0290912F02A091E7
:102850003002B0913102C82AD92AEA2AFB2ACFE1F4
:10286000D0E0BC2ED701C6010C2E04C0B695A795AA
:10287000979587950A94D2F780FD0EC0219788F727
:10288000B12C8B2DDF91CF911F910F91FF90EF9085
:10289000DF90CF90BF900895B8018C2F0E94B103B4
:1028A000019761F3EECFCF93DF93EC010E941114F7
:1028B000BE01DF91CF910C94B1031F93CF93DF93AF
:1028C000EB019091D301992331F0CB01DF91CF91AE
:1028D0001F910C945314882379F0CB010E9411149A
:1028E000182F682FCE010E94BD13BE01812FDF91EA
:1028F000CF911F910C94B103CB010E94E913182FC3
:10290000F4CF682F80911A0190911B010C949A16B4
:10291000682F80911A0190911B010C94A51680914B
:102920001A0190911B010C94B0168091320285958A
:1029300085958595089580913202877008959091CC
:102940003202977081E009F480E008958091560288
:10295000089590915602892B809356020895809590
:102960009091560298239093560208951092560221
:10297000089590915502892B809355020895809572
:102980009091550298239093550208951092550204
:10299000089590915402892B809354020895809554
:1029A00090915402982390935402089510925402E7
:1029B000089580913302089508950C94DC14909149
:1029C0003302981721F0809333020C94DD1408959C
:1029D00080913302882329F01092330280E00C9416
:1029E000DD140895E0911A01F0911B0180915602C7
:1029F0008083E0911A01F0911B0180819091550232
:102A0000892B8083E0911A01F0911B0180819091C4
:102A10005402892B808390913302992381F0E091B5
:102A20001A01F0911B018081892B808380911A010A
:102A300090911B010E94061681110E94E81480915A
:102A40001A0190911B010C94570A08950C942515B6
:102A500098E0899F90011124622B609332020E94BA
:102A60002113809132028595859585950C942615C4
:102A70001092320280E00C942615909132028095DB
:102A8000892380933202282F277071F4282F082E73
:102A9000000C330B9217130639F0859585958595B3
:102AA0000E9442130C94381508956FEF7FEF90E069
:102AB00080E00C946D2390E080E00E94492321E0A7
:102AC0008C3E9E4F09F020E0822F089582E090E036
:102AD0000C94412383E090E00C944123CF9384E055
:102AE00090E00E944123C82F81E290E00E944123A0
:102AF000982F8C2FCF910895CF93C92F682F84E002
:102B000090E00E944F236C2F81E290E0CF910C94D3
:102B10004F23AB01BC018FE090E00C946123AB012B
:102B2000BC0183E190E00C94612360E070E0CB0194
:102B30000C948F1560E070E0CB010E9489150C9415
:102B400095156CEE7EEF90E080E00E946D2360E0D2
:102B500082E090E00E944F2360E083E090E00E94DA
:102B60004F2310922E0210922F02109230021092D8
:102B7000310260E084E090E00E944F2360E081E257
:102B800090E00E944F2360E085E090E00E944F2398
:102B900060E086E090E00E944F236FEF87E090E0D6
:102BA0000E944F2340E050E0BA0188E090E00E948C
:102BB000612360E08DE090E00E944F2340E050E010
:102BC000BA0188E190E00E94612360E087E190E033
:102BD0000E944F2340E050E0BA018CE190E00E9457
:102BE000612360E080E290E00E944F2340E050E0EB
:102BF000BA0188E190E00E9461230C949A150C942C
:102C0000A115682F8EE090E00C944F23FC013296C2
:102C100080912E01882321F080919A029EE187FF06
:102C200096E080E0915008F4089521912223D1F399
:102C30008F5FF8CF662301F120912E012223F1F05E
:102C400020919A0227FF1AC0462F46954695469531
:102C50004E3190F4677021E030E002C0220F331F44
:102C60006A95E2F7840F911DFC01828190E0282390
:102C7000392381E0232B69F480E00895FC0132962A
:102C800008962191261721F0E817F907D1F7F4CF1C
:102C900081E008959C01FC0132969FEF80E0419114
:102CA000461751F09F3F19F4411101C0982F8F5FD3
:102CB0008630A9F79F3F09F40895290F311D97FD2C
:102CC0003A95F90162830895FC01329608962191A4
:102CD000261303C0DF0111971C92E817F907B9F713
:102CE0000895E62FE695E695E695EE3168F4E80F4F
:102CF000F92FF11D677021E030E001C0220F6A95C5
:102D0000EAF78281822B82830895E62FE695E69585
:102D1000E695EE3170F4E80FF92FF11D677021E0B0
:102D200030E001C0220F6A95EAF7209582812823BE
:102D30002283089520912E01222329F020919A02C6
:102D400027FD0C9471160C944A1620912E01222313
:102D500029F020919A0227FD0C9485160C94641694
:102D6000FC01329680912E01882351F080919A02C5
:102D700087FF06C08EE1DF011D928A95E9F708956D
:102D800086E0F9CF089508950C94C3160E94C416E6
:102D90008091A002843049F11092580288E190E0BD
:102DA00020E40FB6F894A895809360000FBE20939E
:102DB000600080E00E9489030E94C41683B7817F6F
:102DC000846083BF83B7816083BF7894889583B71D
:102DD0008E7F83BF0FB6F894A895809160008861BC
:102DE00080936000109260000FBE08950895CF9305
:102DF0000E94C2160E94FB050E94F616C0E08C2FAE
:102E00000E94A605811105C0CF5FC630C1F7CF91E2
:102E1000089581E0FCCF08950C940B170E94240FB5
:102E20000E944B0A0E9489030C940C171F921FB634
:102E30001F9211248F939F93AF93BF938091580259
:102E4000811113C08091960290919702A0919802EF
:102E5000B09199024196A11DB11D80939602909365
:102E60009702A0939802B0939902BF91AF919F915E
:102E70008F911F901FBE1F90189582E084BD93E034
:102E800095BD9AEF97BD80936E0008952FB7F89483
:102E90008091960290919702A0919802B091990228
:102EA0002FBF08959C014FB7F8948091960290919E
:102EB0009702A0919802B09199024FBF821B930B89
:102EC000089578941F921FB61F9211248F939F9399
:102ED000AF93BF938091960290919702A091980230
:102EE000B09199020196A11DB11D80939602909315
:102EF0009702A0939802B0939902BF91AF919F91CE
:102F00008F911F901FBE1F90189581E08093E00065
:102F100080E28093D8001092C9008FE19EE401976F
:102F2000F1F700C0000087E090EBDC018093A9027C
:102F30009093AA02A093AB02B093AC0288E19CE00C
:102F40000FB6F894A895809360000FBE9093600030
:102F5000FFCF0C9455150E94FB058FE39CE9019768
:102F6000F1F700C000000E94FB0580E00E94A6056A
:102F700080FF04C00E94A9170C94851708950E9431
:102F80005B15811102C00E94FF150E946615809397
:102F900057020E946E1590939B0280939A020E94A2
:102FA0006A15682F70E090E080E00E94BF12609187
:102FB0002A0270912B0280912C0290912D020C9488
:102FC000F91280915F0280FF12C06091210185E0BB
:102FD000689FB00111247595679575956795603860
:102FE0007105A8F561157105A1F1862F089581FF7E
:102FF00009C06091210185E0689FB0011124759599
:103000006795EDCF6091210182FD0AC080915E023B
:103010008823D1F09091200160912101891728F037
:1030200085E0689FB0011124DACF869FB00111249A
:1030300085E0869F9001879F300D1124692F70E0F5
:10304000C9010E941323CBCF65E070E0CECF8FE79C
:10305000089581E0089580915F0280FF0CC0609127
:103060001D0170E0759567957595679561157105FA
:1030700049F1862F089581FF06C060911D0170E01F
:1030800075956795F3CF60911D0182FD0BC09091FE
:103090005D029923A1F060911C0180911D0196179A
:1030A00038F0682F70E06038710500F38FE70895FD
:1030B000899FC001112470E00E941323F4CF61E0C6
:1030C00070E0D7CF81E00895803F31F40E94E1178E
:1030D0008195809363020895813F19F40E94E1175E
:1030E000F8CF823F31F40E94E1178195809362020C
:1030F0000895833F19F40E94E117F8CF893F29F41E
:103100000E942B188093640208958A3F21F40E9444
:103110002B188195F7CF8B3F31F40E942B188195A6
:103120008093650208958C3F19F40E942B18F8CF04
:10313000843F31F48091610281608093610208953F
:10314000853F21F4809161028260F7CF863F21F4B0
:10315000809161028460F1CF873F21F48091610208
:103160008860EBCF883F21F4809161028061E5CFD8
:103170008D3F31F480915F02816080935F020895FA
:103180008E3F21F480915F028260F7CF8F3FB9F7C5
:1031900080915F028460F1CF90916202803F59F488
:1031A0008091630287FF0DC01092630291110BC0E2
:1031B00010925E0208C0813F81F48091630218166C
:1031C0009CF3992381F08091640290916502892B90
:1031D00009F064C010925D020895823F49F497FFA0
:1031E000F0CF10926202809163028111ECCFE0CFA8
:1031F000833F19F41916ACF3E4CF20916402893FA0
:1032000029F41216F4F610926402DBCF8A3F19F407
:1032100027FFD7CFF8CF209165028B3F29F427FFF6
:10322000D0CF10926502CDCF8C3F19F41216CCF39B
:10323000C8CF843F31F4809161028E7F8093610218
:10324000C0CF853F21F4809161028D7FF7CF863F0B
:1032500021F4809161028B7FF1CF873F21F480912F
:103260006102877FEBCF883F21F4809161028F7EDE
:10327000E5CF8D3F31F480915F028E7F80935F02B6
:10328000A0CF8E3F21F480915F028D7FF7CF8F3FDB
:1032900009F097CF80915F028B7FF0CF08950E9455
:1032A00046179C019091620280916302982B21F055
:1032B00030935C0220935B029091640280916502DE
:1032C000982B21F030935A022093590280E692E025
:1032D0000C94710AEF92FF920F931F93CF93DF9399
:1032E00000D000D000D0CDB7DEB786E0E0E6F2E057
:1032F000DE01119601900D928A95E1F7E09062024D
:10330000F0906302009164021091650210926202D3
:103310001092630210926402109265028E2D8F2922
:1033200091F080915B0290915C020E945217AC0177
:1033300090915E02992309F43FC080912201841785
:10334000150608F447C0802F812B91F08091590217
:1033500090915A020E945217AC0190915D029923FC
:1033600009F477C080911E018417150608F47FC008
:103370008091620290916302892B90916402892B63
:1033800090916502892B11F00E944F1986E0FE0191
:103390003196A0E6B2E001900D928A95E1F726966B
:1033A0000FB6F894DEBF0FBECDBFDF91CF911F9156
:1033B0000F91FF90EF900895209123018AE0289FBC
:1033C000900111242417350708F0BDCF9F5F90931B
:1033D0005E0202C09F3FD1F7EE2059F00E94E11734
:1033E0009FEF1E140CF491E0899F802D112480938F
:1033F0006202FF2059F00E94E1179FEF1F140CF4A6
:1034000091E0899F802D11248093630230916202A4
:10341000332309F498CF20916302222309F493CF38
:1034200045EB3403C0011124992359F090936202B3
:1034300045EB240390011124332339F030936302C8
:1034400082CF81E080936202F3CF81E080936302B8
:103450007ACF20911F018AE0289F90011124241720
:10346000350708F085CF9F5F90935D0202C09F3FB4
:10347000D1F7002359F00E942B189FEF10160CF47F
:1034800091E0899F802D112480936402112359F0CB
:103490000E942B189FEF11160CF491E0899F802D4C
:1034A00011248093650230916402332309F460CFC4
:1034B00020916502222309F45BCF45EB3403C00160
:1034C0001124992359F09093640245EB2403900151
:1034D0001124332339F0309365024ACF81E0809381
:1034E0006402F3CF81E08093650242CF86E0E0E69C
:1034F000F2E0DF011D928A95E9F710925E021092C8
:103500005D0210925F020895833081F128F48130CA
:1035100059F08230D1F00895853009F449C0B8F1EE
:10352000863009F456C0089580912301482F460F34
:103530005527551F4F3F510524F4680F6093230111
:1035400008958FEF80932301089580912201482FE1
:10355000460F5527551F4F3F510524F4680F6093C0
:10356000220108958FEF8093220108958091210117
:10357000482F460F5527551F4F3F510524F4680F1C
:103580006093210108958FEF809321010895809128
:103590002001482F460F5527551F4F3F510524F452
:1035A000680F6093200108958FEF809320010895A4
:1035B00080911D01482F460F5527551F4F3F51053C
:1035C00024F4680F60931D0108958FEF80931D010F
:1035D000089580911C01482F460F5527551F4F3FD6
:1035E000510524F4680F60931C0108958FEF8093B8
:1035F0001C010895833011F128F4813049F08230A4
:1036000091F00895853081F120F18630C1F108955F
:1036100080912301681720F4861B8093230108956D
:1036200010922301089580912201681720F4861BCF
:103630008093220108951092220108958091210122
:10364000681720F4861B80932101089510922101B0
:10365000089580912001681720F4861B8093200133
:10366000089510922001089580911D01681720F49B
:10367000861B80931D01089510921D01089580916D
:103680001C01681720F4861B80931C01089510927A
:103690001C0108950F931F9341E050E060E070E03B
:1036A0008A019B0104C0000F111F221F331F8A953E
:1036B000D2F7C901B8010E94BF121F910F910C945B
:1036C000240FEBEFE80FEF3308F05AC0F0E0ED55B0
:1036D000FC4D0C9427230E94FF1581E008958091F2
:1036E0005702807F8093570281E08093670208959C
:1036F0000E943103F2CF90915702892F8E7F90FF65
:1037000081608093570280FDE8CF817F80935702CC
:10371000E4CF90915702892F8D7F91FF8260809333
:10372000570281FFDACF809157028160EFCF9091ED
:103730005702892F8B7F92FF84608093570282FD0E
:10374000F2CFCBCF90915702892F877F93FF88606C
:103750008093570283FDE7CFC0CF0E94240F909142
:103760009A02892F97FB87F9805880939A02B5CFE8
:1037700080E00E944A1BB1CF8953FBCF8D51F9CF16
:1037800080E0089580E008950C94C21B8E518A3029
:1037900030F4E82FF0E0E256FE4F8081089580E09B
:1037A0000895CF93C82F809167028130B9F08823A4
:1037B00031F08230A1F11092670280E00DC00E94CA
:1037C000A6148232D1F78C2F0E94C21B81111BC01C
:1037D0008C2F0E94611B8170CF9108950E94A614C6
:1037E000823289F38C2F0E94C41B81110AC0C4311C
:1037F00099F060F4CB3029F0C03169F782E0809312
:10380000670281E0E8CF81E090E0E5CFC93221F0A6
:10381000C833B9F380E0DFCF10926702FBCFC93223
:1038200019F188F4C43101F120F4C73081F181E04D
:10383000D3CF82EE8C0F8630D0F78C2F0E94C61B20
:1038400080936602F4CFCE3401F140F46AE0CB34C9
:1038500071F7809166020E94841AE9CFC13579F030
:1038600061E0C235B1F3E3CF80916602882319F09D
:1038700010926602DCCF81E080936702ADCF61E0F9
:10388000809166020E94FA1AD2CF6AE0F9CF8EE1E7
:103890008093230182E3809322018AE080932101B7
:1038A00084E18093200188E080931D0188E2809369
:1038B0001C01BDCF809188020895CF93DF9300D083
:1038C0000F92CDB7DEB79091A002943019F589839D
:1038D0007B836A8382E08093E9008FEF9091E80018
:1038E000815095FD06C095ED9A95F1F70000811184
:1038F000F5CF8091E80085FF0DC050E040E063E027
:1039000070E0CE0101960E94821E8091E8008E77C1
:103910008093E8000F900F900F90DF91CF91089562
:10392000BC0184E00C945D1CBC0183E00C945D1C24
:103930009C0182E08093E9009FEF8091E800915024
:1039400085FD06C085ED8A95F1F700009111F5CF50
:103950008091E80085FF0CC050E040E066E070E038
:10396000C9010E94821E8091E8008E778093E80052
:103970000895CF93DF93EC0180912E018823B1F15C
:1039800080919A0287FF32C060E282E08093E90072
:103990008FEF9091E800815095FD06C095ED9A95C6
:1039A000F1F700008111F5CF8091E80085FF1BC081
:1039B00080912E0170E050E040E0811104C050E0A1
:1039C00040E068E070E0CE010E94821E8091E80035
:1039D0008E778093E80080E2FE01A8E6B2E00190D5
:1039E0000D928A95E1F7DF91CF91089568E081E02B
:1039F000CDCF80919F02811109C00E9412200E94A8
:103A00006F208091E20084608093E200089510921C
:103A10009F020895089508950C940E1742E061ECFA
:103A200081E00E948E1F42E261EC82E00C948E1FC6
:103A30008091A202833009F45FC030F48130C1F17B
:103A4000823009F49BC008958A3009F487C08B3016
:103A500009F46DC0893009F04EC08091A102813215
:103A600009F049C08091A5029091A602029708F042
:103A700042C08091E800877F8093E8008091E80051
:103A800082FF35C09091F3008091F200029729F4F3
:103A90008091F1008B7F813021F48091F10080933F
:103AA00088028091E8008B778093E8000C94C21F15
:103AB0008091A102813AF9F48091E800877F809398
:103AC000E8008091A5029091A602892B61F460E242
:103AD00088E692E070E00E94D11E8091E8008B772A
:103AE0008093E800089560E090E080E0F3CF80915B
:103AF000A0028111C3CF08958091A102813AD9F724
:103B00008091A5029091A602892BA9F78091E800E7
:103B1000877F8093E8008091E80080FFFCCF809150
:103B20002E018093F1008091E8008E77BDCF8091C7
:103B3000A102813201F78091A5029091A602892B02
:103B4000D1F68091E800877F8093E8000E94C21F31
:103B50008091A30280932E010C94240F8091A102E6
:103B6000813249F68091E800877F8093E8000E94C7
:103B7000C21F8091A4028093890208958091A102BE
:103B8000813A09F0B8CF8091E800877F8093E80000
:103B90008091E80080FFFCCF80918902C2CF84B77A
:103BA000877F84BF0FB6F894A895809160008861E4
:103BB00080936000109260000FBE80E890E00FB626
:103BC000F89480936100909361000FBE0E94B90A3F
:103BD0000E9412200E946F208091E20084608093F6
:103BE000E20078940E94F8220E94C50A84E291E0E3
:103BF0000E94460A8091A002853039F00E94CD0AC9
:103C00000E94C30A0E94C40AF5CF0E94C616809182
:103C10009E02882379F30E94F716882359F30E94A5
:103C20006C1EE8CF0C94141E292F33272330310546
:103C300019F168F42130310509F444C0223031050E
:103C400009F445C090E080E030E020E025C021325A
:103C5000310549F122323105A9F780E490E02FE0E7
:103C600034E061157105C1F08CEB90E023E533E0A1
:103C70006130710589F0E6CF99278130910581F097
:103C8000009729F00297F1F6E2ECF2E002C0E2E0E0
:103C9000F3E0849190E09F01FA013183208308953D
:103CA000EEEDF2E0F6CF89E090E028E133E0611537
:103CB000710591F389E090E021E333E06130710513
:103CC00059F3C0CF82E190E021E433E0E5CF8BE30C
:103CD00090E026E033E0E0CF80E189BD82E189BD5C
:103CE00009B400FEFDCF8091D8008F7D8093D8006D
:103CF0008091E00082608093E0008091E00081FD8F
:103D0000FCCF0895AF92BF92CF92DF92FF920F93B4
:103D10001F93CF93DF936C01EB018A010E94E11F97
:103D2000F82E811123C00115110539F0F8018081A9
:103D30009181C81BD90BC80ED91EB12CA12C20977C
:103D4000A9F08091E80085FD22C08091E8008E777F
:103D50008093E80001151105A1F0F801808191819F
:103D6000A80EB91EB182A08285E0F82E8F2DDF91BA
:103D7000CF911F910F91FF90DF90CF90BF90AF90A8
:103D800008950E94E11F8823D1F2F82EEFCFF601AB
:103D900081916F018093F1002197FFEFAF1ABF0A65
:103DA000CECFFC018091A7029091A80286179707B9
:103DB000A0F06115710529F49091E8009E77909329
:103DC000E80090E06115710551F4911108C08091EF
:103DD000E80082FF34C080E00895BC01F2CF8091FA
:103DE000A0028823C1F18530C1F18091E80083FDF4
:103DF00030C08091E80082FDEACF8091E80080FF2A
:103E0000E1CF8091F3002091F200382F6115710508
:103E100019F02830310558F091E02830310509F0CB
:103E200090E02091E8002E772093E800CBCF81919D
:103E30008093F100615071092F5F3F4FE7CF809170
:103E4000A002882341F0853041F08091E80083FF93
:103E5000BECF81E0089582E0089583E00895FC01DB
:103E60008091A7029091A80286179707A0F061158C
:103E7000710529F48091E8008E778093E80090E046
:103E80006115710551F4911108C08091E80082FF1D
:103E900035C080E00895BC01F2CF8091A002882354
:103EA000C9F18530C9F18091E80083FD31C080916E
:103EB000E80082FDEACF8091E80080FFE1CF8091A9
:103EC000F3002091F200382F6115710519F02830A8
:103ED000310558F091E02830310509F090E08091EB
:103EE000E8008E778093E800CBCF84918093F10037
:103EF0003196615071092F5F3F4FE6CF8091A0024C
:103F0000882341F0853041F08091E80083FFBDCFE8
:103F100081E0089582E0089583E00895982F973016
:103F200028F08F708093E90081E008959093E90074
:103F3000242F762F50E0981731F07091EC002091EB
:103F4000ED005091F00021FD02C09F5FE8CF30915D
:103F5000EB003E7F3093EB003091ED003D7F3093DE
:103F6000ED003091EB0031603093EB007093EC008A
:103F70002093ED005093F0002091EE0027FDE5CF57
:103F800080E008958091A10287FF13C08091E8002E
:103F900082FF06C08091E8008B778093E80004C020
:103FA0008091A0028111F2CF08958091A002882310
:103FB000D9F38091E80080FFF8CF8091E8008E77F8
:103FC000ECCF2091E4003091E50095E6A901209125
:103FD000EC00822F817020FF06C08091E80080FFF6
:103FE00006C080E008952091E80022FD1AC080916B
:103FF000A002882389F0853089F08091EB0085FD4F
:104000000FC02091E4003091E50042175307F9F208
:104010009150E1F684E0089582E0089583E00895E8
:1040200081E008950E9480200E948820E0EEF0E068
:10403000808181608083E8EDF0E080818F778083EC
:1040400019BCA7EDB0E08C918E7F8C9380818F7E20
:10405000808310929F0208950F931F93CF93DF9355
:104060000E9480200E948820C8EDD0E088818F7750
:10407000888388818068888388818F7D888319BC44
:104080001092A00210929C0210929E0210929D0229
:1040900000EE10E0F80180818B7F80838881816051
:1040A000888342E060E080E00E948E1FE1EEF0E055
:1040B00080818E7F8083E2EEF0E08081816080836A
:1040C000808188608083F80180818E7F80838881F1
:1040D00080618883DF91CF911F910F910895E8ED62
:1040E000F0E080818F7E8083E7EDF0E08081816069
:1040F000808384E082BF81E080939F020C942C2017
:10410000E8EDF0E080818E7F80831092E2000895D8
:104110001092DA001092E10008951F920F920FB6EC
:104120000F9211242F933F934F935F936F937F933D
:104130008F939F93AF93BF93EF93FF938091E10091
:1041400082FF0BC08091E20082FF07C08091E100F6
:104150008B7F8093E1000E94F7228091DA0080FF3C
:1041600019C08091D80080FF15C08091DA008E7F41
:104170008093DA008091D90080FF96C080E189BDEC
:1041800082E189BD09B400FEFDCF81E08093A002E9
:104190000E94F91C8091E10080FF19C08091E2002B
:1041A00080FF15C08091E2008E7F8093E2008091B5
:1041B000E20080618093E2008091D8008062809369
:1041C000D80019BC85E08093A0020E940B1D80914D
:1041D000E10084FF2BC08091E20084FF27C080E1D2
:1041E00089BD82E189BD89B5982F917080FFFBCF91
:1041F0008091D8008F7D8093D8008091E1008F7EE0
:104200008093E1008091E2008F7E8093E2008091B4
:10421000E20081608093E20080919C02882309F48F
:1042200049C084E08093A0020E940C1D8091E100AF
:1042300083FF29C08091E20083FF25C08091E100C7
:10424000877F8093E10082E08093A00210929C021D
:104250008091E1008E7F8093E1008091E2008E7F6B
:104260008093E2008091E20080618093E20042E06E
:1042700060E080E00E948E1F8091F0008860809353
:10428000F0000E940A1DFF91EF91BF91AF919F91A5
:104290008F917F916F915F914F913F912F910F90EF
:1042A0000FBE0F901F90189519BC1092A0020E948B
:1042B000071D70CF8091E30087FD93E09093A002EB
:1042C000B3CF1F920F920FB60F9211242F933F93EB
:1042D0004F935F936F937F938F939F93AF93BF930E
:1042E000CF93DF93EF93FF93D091E900DF7080913C
:1042F000EC00C82FC17080FDC0E81092E9008091E9
:10430000F000877F8093F00078940E94A52110929E
:10431000E9008091F00088608093F000CD2BCF7091
:10432000C093E900FF91EF91DF91CF91BF91AF91E1
:104330009F918F917F916F915F914F913F912F91BD
:104340000F900FBE0F901F9018951F93CF93DF9380
:10435000CDB7DEB7AA970FB6F894DEBF0FBECDBFBC
:1043600081EA92E02091F100FC012193CF01F2E07B
:10437000893A9F07B9F70E94181D8091E80083FFD2
:104380001EC18091A1029091A2029A3008F017C13B
:10439000E92FF0E0EE51FC4D0C942723803899F082
:1043A000823809F00CC18091A5028F70873008F027
:1043B00006C18093E9008091EB0085FB882780F996
:1043C0001092E90006C080919D0290919E02911189
:1043D00082609091E800977F9093E8008093F100CD
:1043E0001092F1008091E8008E77E5C0882309F4EF
:1043F000D3C0823009F0E3C08091A3028111D6C0FE
:104400008091A5028F702FEF280F263008F0D7C0BB
:104410008093E9002091EB0020FFC8C0933031F475
:104420008091EB0080628093EB00C0C09091EB0024
:1044300090619093EB0021E030E001C0220F8A955B
:10444000EAF72093EA001092EA008091EB0088607E
:10445000EACF8111B4C01091A3021F778091E300CD
:104460008078812B8093E3008091E800877F8093A0
:10447000E8000E94C21F8091E80080FFFCCF80917D
:10448000E30080688093E30082E0111183E0809371
:10449000A00295C08058823008F091C08091A3029C
:1044A0009091A4028C3D23E09207A1F583E08A83DA
:1044B0008AE289834FB7F894DE01139620E03EE04C
:1044C00051E2E32FF0E050935700E49120FF03C046
:1044D000E295EF703F5FEF708E2F90E0EA30C0F012
:1044E000C7968D939D932F5F243159F74FBF8091CD
:1044F000E800877F8093E8006AE270E0CE010196D1
:104500000E94D11E8091E8008B778093E80057C00D
:10451000C096E7CF6091A5027091A602AE014F5FF1
:104520005F4F0E94121EBC01892B09F448C0909174
:10453000E800977F9093E80089819A810E942F1F5D
:10454000E1CF8038E1F58091E800877F8093E80033
:1045500080919C028093F10045CF811130C09091F1
:10456000A302923060F58091E800877F8093E80095
:1045700090939C020E94C21F80919C02882311F09C
:1045800084E005C08091E30087FDFACF81E080934D
:10459000A0020E940E1D13C08091A302813079F405
:1045A00081E0933009F080E080939E021092E90050
:1045B0008091E800877F8093E8000E94C21F80916D
:1045C000E80083FF0AC08091E800877F8093E800BD
:1045D0008091EB0080628093EB00AA960FB6F8946E
:1045E000DEBF0FBECDBFDF91CF911F91089508951B
:1045F000CF938091A0028823A1F0C091E900CF70F1
:104600009091EC00892F817090FD80E8C82B10926A
:10461000E9008091E80083FD0E94A521CF70C0933E
:10462000E900CF91089597FB072E16F4009407D068
:1046300077FD09D00E942D2307FC05D03EF490950C
:1046400081959F4F0895709561957F4F0895EE0F66
:10465000FF1F0590F491E02D0994AA1BBB1B51E1AB
:1046600007C0AA1FBB1FA617B70710F0A61BB70BE2
:10467000881F991F5A95A9F780959095BC01CD0187
:104680000895F999FECF92BD81BDF89A992780B51A
:104690000895A8E1B0E042E050E00C947523262F85
:1046A000F999FECF92BD81BDF89A019700B4021628
:1046B00039F01FBA20BD0FB6F894FA9AF99A0FBED6
:1046C00008950396272F0E9450230E944F23252FE1
:1046D0000E945023242F0C9450230196272F0E94D0
:1046E00050230C944F23DC01CB01FC01F999FECF40
:1046F00006C0F2BDE1BDF89A319600B40D9241506A
:104700005040B8F70895F894FFCFDF0CDF0C370D59
:10471000370D890DA50D0C0D0C0DB00D3C0E4B0E7B
:104720004B0EA70E0C0D0C0DB00E330F330F3C0FBC
:104730003C0F3E0F3C0F3C0F3C0F330F330F430F2A
:104740003C0F3C0F430F781B6F1B7B1B6D1BC01B6B
:10475000C01B6D1BC01BC01B971BC01BA21BAD1B2E
:10476000C01BC01BC01BC01B6D1BC01BC01B6D1B17
:10477000C01B891BC01BC01BBE1BBE1BBE1BBE1BA0
:10478000BE1BBE1BBE1BBE1BBE1BB81BC01B781BAB
:104790006B1BC01BC01BC01BC01BC01BC01BC01B96
:1047A000C01BC01BC01BB81BC01BC01B6D1BC01B8C
:1047B000BC1BBC1BBC1BBC1BBC1BBC1BBC1BBC1B41
:1047C000BC1BB81BCE21F621DF22F621DF222922D5
:0847D0004A22DF22A122AD22E2
:1047D800C4002A0000BE002A0000B8002B0000B266
:1047E80000290000AC004C00000134022808641EB7
:1047F800140A321E5A1CB91C981C941C901C01E205
:1048080000E900EA00B500B600B700CD008301CC8E
:10481800008A019201940121022302240225022622
:104828000227022A02B300B4006F0070008182835D
:10483800349392F535F697F49466C69190E200E9C0
:1048480000EA00B500B600B700CD008301CC008AAD
:104858000192019401210223022402250226022743
:10486800022A02B300B4006F007000818283010243
:0848780003040506070809000E
:00000001FF
