:100000000C940D030C9454030C9454030C9454035B
:100010000C9454030C9454030C9454030C94540304
:100020000C9454030C9454030C949B250C946F264D
:100030000C94A5200C9454030C9454030C94540376
:100040000C9454030C9454030C9454030C945403D4
:100050000C9454030C94FC200C9454030C945403FF
:100060000C9454030C9454030C9454030C945403B4
:100070000C9454030C9454030C9454030C945403A4
:100080000C9454030C9454030C9454030C94540394
:100090000C9454030C9454030C9454030C94540384
:1000A0000C9454030C9454030C9454032D002E0010
:1000B000000014001A0000001600070000002700CE
:1000C0002600000012001300000014001A000800AF
:1000D000150017001C001800044416000700090052
:1000E0000A000B000D001D621B0006001900050030
:1000F00011001000E000E300E2002C422C41380027
:1001000033000C0012001300360034000000000021
:100110000E000F00284337720000000000001E0090
:100120001F00200021002200230024000551AE0002
:10013000AA00A900AC00AB002D00000000000000E8
:1001400000000000000000000000000001004C0062
:100150000100010001002500260027000000010029
:10016000000000002E002F003000310000000000D1
:1001700000001E021F02200221022202230224028A
:100180003A003B003C003D003E003F002D02400095
:10019000410042004300440045000000010001000E
:1001A00001000000010001000100250226022702D3
:1001B00000000100000000002E022F023002310278
:1001C00000000000000035003502000000000000C3
:1001D000000000002B0000000000000000000000F4
:1001E00000003900000000000000000000000000D6
:1001F00000000000000000000000000000000000FF
:1002000000000000000000000000000000000000EE
:1002100000000000000000000000000000000000DE
:100220000000000000004A00000000000000000084
:10023000000000005000000000000000000000006E
:10024000000000003100000000000000000000007D
:10025000000052004D004B000000000000000000B4
:1002600051004F004E000000000000000000005C44
:100270000000000000000000B200000000000000CC
:10028000000000000000000000000000000000006E
:10029000000000000000000000000000000000005E
:1002A000000000000000000000000000000000004E
:1002B000000000000000000000000000000000003E
:1002C00000001E0F0500047F3F1F643214643214C7
:1002D000783C1E1E140A052223252628292A2C2DA7
:1002E0002F3032333536383A3B3D3E404243454766
:1002F000494A4C4E5051535557595A5C5E6062649E
:100300006668696B6D6F71737577797B7D7F8183AB
:100310008587898A8C8E90929496989A9C9E9FA1AC
:10032000A3A5A7A8AAACAEAFB1B3B4B6B8B9BBBCCD
:10033000BEBFC1C2C3C5C6C7C9CACBCCCDCED0D142
:10034000D2D2D3D4D5D6D7D7D8D9D9DADADBDBDB3A
:10035000DCDCDCDCDCDDDDDDDDDCDCDCDCDCDBDBDB
:10036000DBDADAD9D9D8D7D7D6D5D4D3D2D2D1D02F
:10037000CECDCCCBCAC9C7C6C5C3C2C1BFBEBCBB2C
:10038000B9B8B6B4B3B1AFAEACAAA8A7A5A3A19FA4
:100390009E9C9A98969492908E8C8A898785838168
:1003A0007F7D7B79777573716F6D6B696866646249
:1003B000605E5C5A5957555351504E4C4A49474517
:1003C0004342403E3D3B3A3836353332302F2D2CB8
:1003D0002A292826252322FFAA7F55400001010152
:1003E00001010101010102020202020202020203F2
:1003F00003030303030303040404040404040505C2
:100400000505050606060606070707070708080884
:1004100008090909090A0A0A0B0B0B0C0C0C0D0D33
:100420000D0E0E0E0F0F0F101011111112121313CB
:100430001414151516161717181819191A1A1B1B44
:100440001C1D1D1E1E1F20202122222324242526A0
:1004500026272829292A2B2C2D2D2E2F30313232D8
:10046000333435363738393A3B3C3D3E3F404142E4
:10047000434445464748494A4C4D4E4F50515354CA
:10048000555658595A5B5D5E5F616264656668697E
:100490006B6C6D6F7072737577787A7B7D7E8082FE
:1004A000838587888A8C8E8F91939596989A9C9E47
:1004B000A0A2A3A5A7A9ABADAFB1B3B5B7BABCBE57
:1004C000C0C2C4C6C9CBCDCFD1D4D6D8DBDDDFE224
:1004D000E4E7E9EBEEF0F3F5F8FAFDFF1A0371003B
:1004E00061007A0020006B006500790062006F00F7
:1004F0006100720064000000220377006800790048
:1005000064006F00620065006100720073006500A6
:10051000780070006C006F006400000004030904A0
:1005200009023B00020100A0FA09040000010301D6
:100530000100092111010001224000070581030883
:10054000000A090401000103000000092111010053
:1005500001226D000705820320000A12011001002C
:1005600000000831740100010001020001050109C9
:1005700080A101850319012AB700150126B700954E
:100580000175108100C0050C0901A1018504190144
:100590002AA002150126A002950175108100C00550
:1005A000010906A1018505050719E029E7150025C0
:1005B000019508750181020507190029EF1500252D
:1005C0000195F07501810205081901290595057548
:1005D000019102950175039101C005010906A10170
:1005E000050719E029E71500250195087501810225
:1005F0009501750881010507190029FF150026FFDF
:1006000000950675088100050819012905950575ED
:10061000019102950175039101C011241FBECFEF16
:10062000DAE0DEBFCDBF04B603FE27C080919003A1
:1006300090919103A0919203B09193038730904BD6
:10064000A740B04BD1F410929003109291031092F6
:1006500092031092930314BE84B7877F84BF0FB6B2
:10066000F894A89580916000886180936000109252
:1006700060000FBEE0E0F8E3099511E0A0E0B1E012
:10068000E2E1F4E502C005900D92A83DB107D9F76B
:1006900023E0A8EDB1E001C01D92A039B207E1F757
:1006A0000E94D5220C948C290C940000CF93DF93E8
:1006B0009C013A9521153F4168F5EC01CC27D1709A
:1006C000DC01AA27B270AC01442754709C01222798
:1006D000387094FF11C080E1CD2B09F480E0AB2B82
:1006E00009F08062452B09F08064232B09F08068B3
:1006F000FB01DF91CF91099481E0CD2B09F480E0DB
:10070000AB2B09F08260452B09F08460232B81F329
:100710008860EECFDF91CF910895CF93DF93EC0106
:10072000805E9109089720F06DEF75E1209711F434
:100730006FEE75E1CE010E9456038C2FDF91CF91B1
:100740000C94F214CF93DF93EC010E948115CE013B
:10075000805E9109089720F064E076E1209711F41B
:1007600066EF75E1CE01DF91CF910C94560381E0E5
:10077000089581E008950C94B90308950C94BD0385
:100780001F93CF93DF9300D000D00F92CDB7DEB789
:1007900049835A836B833091830289819A81311115
:1007A0001DC06623B9F02223A9F00E94A01D182FB6
:1007B000682F89819A810E944C1D69817A81812FDD
:1007C0000F900F900F900F900F90DF91CF911F918E
:1007D0000C9480040E94781D182FEFCF0E94A01D5A
:1007E00069817A81EDCFFC01262F408151816281A0
:1007F000738184810C94C003CF93DF93EC0160E09C
:100800000E94F303BE01DF91CF910C94BE030E94BE
:100810004B210E94EC1E811102C00E94901F0C947B
:1008200083060E9424120C94860608950E941D16C9
:100830000E9415042FEF84E39CE0215080409040FB
:10084000E1F700C000000C9420210F931F93CF9379
:10085000DF93EC0161E00E94F3038C01BE010E9472
:10086000BB03882389F1BE01C8010E94501288236E
:1008700059F1BE01C8010E946510882329F1BE010B
:10088000C8010E94B7108823F9F0BE01C8010E9478
:10089000DA118823C9F0BE01C8010E945D0F8823C8
:1008A00099F08A81882339F001158CE5180751F0F9
:1008B0000F3D1C4579F0CE01DF91CF911F910F9133
:1008C0000C94B7030E94160480E0DF91CF911F9132
:1008D0000F9108950E94901FF7CF08950C946D0416
:1008E00081E008950C947004CF93C82F0E946E0489
:1008F0008C2FCF910C94720490E080E008950895BD
:10090000972F70E027E0929F600D711D1124FB016D
:100910009AE2899FE00DF11D1124EE0FFF1FE653AF
:10092000FF4F859194910895FC01EE0FFF1FEE5348
:10093000FD4F859194910895CF93DF930E94800499
:100940000E94A805EC01811520E5920708F041C03E
:10095000811530E4930708F0B4C0803E910518F586
:10096000803C910508F09DC0883A910570F4853A65
:10097000910508F08EC081309105F9F00097E9F0FB
:100980000497D8F4D0E0C0E018C08F3B9105D0F7B1
:10099000C85AD0E0CC0FDD1FC25CDE4F0990D88171
:1009A000C02DD4640AC08115904258F4C11581E06D
:1009B000D80718F4C83ED10528F7CE01DF91CF91B2
:1009C0000895C11590E3D90708F071C0CE019F705A
:1009D0006AC0811525E5920758F5811534E593071E
:1009E00008F09EC0811542E5940750F4C11581E5D9
:1009F000D80708F469C0DC2FCC27C16FD06ADDCFDF
:100A0000982F969596959E0123703327C115D3454F
:100A100008F077C0C1E0D0E002C0CC0FDD1F2A95FE
:100A2000E2F720E2929FC0011124C82BD92B67C0A6
:100A3000C11589E5D807A8F4C11598E5D90708F0CC
:100A400074C0C11526E5D20708F09CCF8C2F0E94F8
:100A50003F06C82FD0E0DC2FCC27CC27DF71D06237
:100A6000ACCFC1153AE5D30708F464C0CE01905667
:100A70008115904208F086CF8D2F8F710E943F061E
:100A800090E0982F882788279F719C012C2BE901E3
:100A9000E6CFC55AD0E0C459DE4FC881D0E0D0645B
:100AA0008CCF805C91090E949404EC0186CFCE012A
:100AB0009927D3FF03C0EC01D86C7FCFEC01D06C39
:100AC0007CCFDF70D06A79CFCE01E4E09695879530
:100AD000EA95E1F783702C2F26952695237090E2F6
:100AE000299F90011124382B8C2F8370C1E0D0E016
:100AF00002C0CC0FDD1F8A95E2F7C22BD32BDC6836
:100B00005CCFC1E0D0E002C0CC0FDD1F2A95E2F738
:100B100030E2939FC0011124C82BD92BDA684DCF46
:100B2000D82FCC27C46FD06A48CFDC2FCC27C06F1A
:100B3000D06A43CF8C2F8F700E943F0634E0D69549
:100B4000C7953A95E1F7CF709C2FEC01D06935CF6E
:100B500082389105B1F1B0F48133910509F475C083
:100B600048F48932910509F469C08A32910509F483
:100B700073C008958533910509F459C089339105EF
:100B800001F10895833E9105A9F138F4803E910565
:100B9000F9F0823E910549F10895863E9105A9F14B
:100BA000873E9105C9F1843E910519F52091820394
:100BB00021FF1FC08091810384FD14C087EE90E067
:100BC0000895209181032370A1F080EE90E00895B4
:100BD0002091810320FD47C03091820330FF09C07E
:100BE00024FF44C090E080E004C02091810322FDF6
:100BF000F7CF08952091810322FD3BC030918203FD
:100C000030FDE3CF24FFF5CFEDCF2091810323FF0B
:100C1000F0CF24FDE7CFD2CF2091810323FD2CC05C
:100C20003091820331FFEECF84EE90E00895209161
:100C3000810325FFDECF89E290E0089520918103B2
:100C400025FFD7CF85E390E008952091810326FF0B
:100C5000D0CF8AE290E008952091810326FFC9CF8A
:100C600081E390E0089589E390E0089583EE90E0B9
:100C7000089582EE90E0089586EE90E008959091B8
:100C8000810392FF06C0282F28712830F9F4877F4E
:100C9000846093FF06C0282F28712831F1F4877EE5
:100CA00084612091820320FF06C0382F38713830CC
:100CB000D9F4877F816021FF06C0282F2871283151
:100CC000D1F4877E816194FD877E0895282F247159
:100CD0002430F9F68B7F8860DCCF282F24712431F3
:100CE00001F78B7E8861DDCF382F3171313019F7F4
:100CF0008E7F8860E0CF282F2171213121F78E7EF1
:100D00008861E1CF08950C94820608950C948506BD
:100D1000E82FF0E0ED5CFC4F80810895089580EAB3
:100D20008A95F1F7089500C008950C948F06F89401
:100D3000E82FE295EF70F0E031A1282F2F7081E0CD
:100D400090E001C0880F2A95EAF7982F9095932399
:100D500091A392A1892B82A3789408950F931F9356
:100D6000CF93DF9384EF0E94970684E90E94970651
:100D700086E60E94970686EC0E94970681E90E940B
:100D8000970680E90E949706CFE6D1E006E711E0DA
:100D900089910E9497060C171D07D1F7EDE2F3E049
:100DA000A3E3B3E011921D9283E0E333F807D1F798
:100DB00086E00E945C07DF91CF911F910F910C9408
:100DC0000704BF92CF92DF92EF92FF920F931F938F
:100DD000CF93DF9306E711E0CDE2D3E0C12CD12C15
:100DE000EE24E394F12CF80181918F01F894E82F1F
:100DF000E295EF70F0E021A18F70A70102C0440FCF
:100E0000551F8A95E2F7CA01922F982B91A392A1C0
:100E10008095892382A378940E949306EFE6F1E0FF
:100E200030E020E0B12C4191A42FA295AF70B0E04A
:100E300090968C9190E04F7002C0959587954A9559
:100E4000E2F780FD35C08E2D022E01C0880F0A9476
:100E5000EAF7B82A2F5F3F4F2730310521F7F80115
:100E6000319780810E94970655E0C5120E94950631
:100E70008881B816F9F0B88281E0D82AC394219607
:100E800086E0C812B0CF2D2D46E063E373E08DE21B
:100E900093E00E945D070E9411048D2DDF91CF9198
:100EA0001F910F91FF90EF90DF90CF90BF9008952A
:100EB00080E0CFCF80E0E1CF0895FF920F931F93A2
:100EC000CF93DF93F82E092F162FD72FC42F22236D
:100ED00049F081E08093DC010E94D5209093DB01F2
:100EE0008093DA018091DC018823A1F08091DA01FE
:100EF0009091DB010E94ED20069760F0EF2DF02F1E
:100F0000A12FBD2FCE0FDF2FD11DEC17FD0741F410
:100F10001092DC01DF91CF911F910F91FF90089506
:100F200081918D93F2CF0F931F9341E050E060E0E9
:100F300070E08A019B0104C0000F111F221F331FA4
:100F40008A95D2F7C901B8010E944E1C1F910F91DA
:100F50000C941D16EBEFE80FEF3308F05AC0F0E0E9
:100F6000E257F64D0C9485280E94901F81E0089569
:100F700080910903807F8093090381E08093DD01E4
:100F800008950E941604F2CF90910903892F8E7F55
:100F900090FF81608093090380FDE8CF817F80937B
:100FA0000903E4CF90910903892F8D7F91FF82601F
:100FB0008093090381FFDACF809109038160EFCF2D
:100FC00090910903892F8B7F92FF8460809309039E
:100FD00082FDF2CFCBCF90910903892F877F93FFBA
:100FE00088608093090383FDE7CFC0CF0E941D1660
:100FF00090918103892F97FB87F980588093810313
:10100000B5CF80E00E949307B1CF8953FBCF8D51BC
:10101000F9CF80E0089580E008950C940B08CF93F9
:10102000C82F8091DD01882331F0813099F0109232
:10103000DD0180E00DC00E94351E8232D1F78C2F79
:101040000E940B08811116C08C2F0E94AA07817084
:10105000CF9108950E94351E823289F38C2F0E9411
:101060000D08811105C0C43171F038F4CB3079F727
:1010700081E0EDCF81E090E0EACFC93221F0C833C2
:10108000B9F380E0E4CF1092DD01FBCFEF92FF9245
:101090000F931F93CF93DF93EB01E82FD11110C073
:1010A000442321F0F0E0E452FC4FE4916E2F7E2FB8
:1010B0008E2FDF91CF911F910F91FF90EF900895A8
:1010C0000D2F10E0282F30E0442329F024523C4F0C
:1010D000F901249130E0F6E0CF9FC0011124EFEF39
:1010E000F0E0BF010E943B28AB018C2F90E0880FFD
:1010F000991FA5E5A49FB001A59F700D1124861B23
:10110000970B982F990F980FBF01601B710B629F6F
:10111000D001639FB00D729FB00D11248B2F9D9F46
:10112000B0011124672F7727EF01C61BD70BBE0133
:10113000629FE001639FD00D729FD00D11247F014B
:10114000E91AF108E09EB001E19E700DF09E700D6D
:101150001124672F7727E61BF70BE29F8001E39F9F
:10116000100DF29F100D1124E12F722F4230510506
:1011700099F048F44115510569F04130510581F06D
:10118000EB2F8D2F07C04430510569F080F04630B9
:101190005105B1F76E2F8DCFE22F7B2F812FFACF24
:1011A000E22F7D2FF7CFEB2F822F712FF3CF7B2FE5
:1011B000822FED2FEFCF41E00C94460808950C9458
:1011C000DB08CF93DF93762FE901682F842F0E94ED
:1011D000DF08798368838A83DF91CF9108958091B6
:1011E0003903982F9E7F29F48170826080933903A0
:1011F00008958635E8F381708465F8CF88E090E043
:101200000C942D29CF92DF92EF92FF926B017C011B
:101210000E94EF08B701A60188E090E0FF90EF90F0
:10122000DF90CF900C944B29E9E3F3E083E08083D7
:1012300011828FEF82838383148260817181828126
:1012400093810C9402098091390380FF02C0869536
:10125000089580E0089590913D03933018F49F5FC6
:1012600090933D03882351F06091390370913A03C4
:1012700080913B0390913C030C940209089581E016
:101280000C942B0990913D03992319F09150909360
:101290003D03882351F06091390370913A038091A6
:1012A0003B0390913C030C940209089581E00C9457
:1012B000420970E00C94CD0F6091210180913903B7
:1012C00080FF0AC08091200123E0829FC001112489
:1012D000825C9C4F0C9459098091220190912301CA
:1012E00023E0829FF0011124E25CFC4F891750F744
:1012F0001182108212828F5F3396F8CF909139035A
:1013000090FF14C0909122012091230133E0939F1C
:10131000F0011124E25CFC4F921710F00C945C0970
:101320008183608342839F5F3396F6CF0895CF9386
:10133000DF9300D00F92CDB7DEB79091390390FFC5
:101340000AC09E012F5F3F4F0E94E1084B816981D7
:101350008A810E947E090F900F900F90DF91CF91AC
:101360000895CF93DF93EC01EC81F0E0E952FD4F5B
:101370004491E9E3F3E0628181810E9497098C81C5
:101380008F5F8C83DF91CF910895CF93DF93EC0132
:10139000E9E3F3E0438162818C810E9497098C81AB
:1013A0008F5F8C83DF91CF9108950F931F93CF931D
:1013B000DF9300D00F92CDB7DEB78C018091DE01B4
:1013C00081110AC09E012F5F3F4F4FEF6FEF0E94C8
:1013D000E1088A818093DE01F8016481613069F05F
:1013E0008091DE0140E0662361F040E0623011F45C
:1013F0004091DE0180E060E004C06091DE0140E0E9
:1014000080E00E947E09F801848190E0019663E00B
:1014100070E00E944F2884830F900F900F90DF910F
:10142000CF911F910F910895AF92BF92CF92DF920B
:10143000EF92FF920F931F93CF93DF9300D00F9201
:10144000CDB7DEB7182FF62E042FE22E9091390378
:1014500090FF29C0E92FE695AE2FB0E0A458BE4F0B
:101460008C91809351029E7F923059F59E012F5F9F
:101470003F4F812F0E94E1084B8169818A810E9440
:101480007E0910933A03F0923B0300933C03EE2055
:1014900051F06091390370913A0380913B03909130
:1014A0003C030E9402090F900F900F90DF91CF91A3
:1014B0001F910F91FF90EF90DF90CF90BF90AF9072
:1014C0000895823019F400913C03DBCF863019F483
:1014D00010913A03D6CF8930D9F3893191F6E95189
:1014E0008E2F8170D82EE695F0E0E952FC4FA59042
:1014F000B490C12CBB2460912401C61618F00E9440
:101500005C09BFCF2C2D30E0A29EC001A39E900DA0
:10151000B29E900D112470E00E943B28812FD110C3
:1015200013C0860F40912201420F532F511D9A0183
:10153000220F331F240F351F225C3C4F402F6F2D8D
:101540000E94E108C394D7CF861BECCFE9E3F3E018
:101550009181282F4381628188E0890F0C94140ABD
:1015600081E00C94A60AE9E3F3E09181282F4381FE
:10157000628188EF890F0C94140A81E00C94B30AFD
:10158000E9E3F3E0628128E0620F08F46FEF282FAF
:10159000438181810C94140A81E00C94C00AE9E330
:1015A000F3E0628128E0621B08F460E0282F4381A9
:1015B00081810C94140A81E00C94CF0AE9E3F3E0F2
:1015C000438128E0420F08F44FEF282F6281818188
:1015D0000C94140A81E00C94DE0AE9E3F3E0438101
:1015E00028E0421B08F440E0282F628181810C949E
:1015F000140A81E00C94ED0A20E00C94140AEF9296
:10160000FF921F93CF93DF93EC0110E0EE24EA9456
:10161000F12C60912401161770F00E945C099A81E8
:101620008C8190FF27C08F5F8C83DF91CF911F91BA
:10163000FF90EF90089520912201422F410F5527EE
:10164000551FCA019A01220F331F280F391F225C30
:101650003C4F70E0C7010E944F28962F8C8140912B
:101660003C0360913B03199F800D11240E94E10807
:101670001F5FCFCF8150D8CFAF92BF92CF92DF9272
:10168000EF92FF920F931F93CF93DF93FC01828120
:101690000FEF80FF01E010E045E1A42E80912401CE
:1016A0001817C8F00E945C098091E001013009F030
:1016B00055C0811102C08091240181508093E001C6
:1016C000DF91CF911F910F91FF90EF90DF90CF901E
:1016D000BF90AF900895C0912201C12ED12CCC0DA6
:1016E000DD2DD11DCE01880F991FC80FD91FC25CF7
:1016F000DC4F198218821A8234E0E32EF12CB12CCF
:101700008091E0018B0D86311CF16A2D0E942D28FD
:10171000892F082E000C990BC816D90691F48091D8
:101720003C038E9DA0018F9D500D1124559547952A
:10173000559547959E0160913B0380913A030E9425
:10174000E108B00EF1E0EF1AF108D1F61F5FA6CF65
:1017500087FFDFCF90912401890FDBCF90E00196C6
:101760006091240170E00E944F28A8CF0F931F932F
:10177000CF93DF93809122019091230123E0829FF8
:10178000F0011124E25CFC4F891740F1C0E0D3E086
:1017900060912401C61740F10E945C0920911E014E
:1017A0008091DF01820F8093DF0190911F01920FE2
:1017B00090931F01191654F4082E000C990B4091B8
:1017C00024014150550B841795071CF02195209357
:1017D0001E01DF91CF911F910F9108951182108208
:1017E00012828F5F3396D0CF0C2F10E070E0C801CB
:1017F0000E944F2820912201820F482F50E0209113
:10180000DF01022E000C330B02171307BCF02091EE
:101810001F01022E000C330B201731077CF08D9F27
:1018200090011124225C3C4F40913C0360913B03AA
:1018300080913A030E94E108CF5FAACFFA01EE0F30
:10184000FF1FE40FF51FE25CFC4F11821082128231
:10185000F3CF8F929F92AF92BF92CF92DF92EF928F
:10186000FF920F931F93CF93DF93EC014C81042FD2
:1018700010E09801D8010E9493289B01AC010E94BE
:10188000A9284B015C01E0E2F0E0E01BF10BA5E5CB
:10189000B0E0AC019B010E94A9286B017C019F0173
:1018A000DF010E948B289B01AC010E94B4289B01A0
:1018B000AC01280D391D4A1D5B1DC701B6010E94F0
:1018C0006328F22E822F90E039E23F1560F143E069
:1018D000249F9001112435952795122F109500E033
:1018E00085E5E82EEF1880912401081758F10E9431
:1018F0005C099C8181E0992319F0903219F48FEFF3
:1019000080931D0180911D01890F8C83DF91CF9100
:101910001F910F91FF90EF90DF90CF90BF90AF900D
:101920009F908F90089525E530E0B901681B790BF1
:101930009B01220F331F260F371F37FFCCCF2F5F9E
:101940003F4FC9CF8E2D01FD8F2D20912201622F97
:10195000600F7727771F9B01220F331F260F371F3A
:10196000225C3C4F412F60913B030E94E1080F5FD6
:10197000BACF0F931F93CF93DF93EC0110E000E0F9
:10198000909124019017110609F06CF40E945C09F3
:101990008C8190E00196817099278C83DF91CF91A3
:1019A0001F910F91089520912201A801420F511D0E
:1019B0009A01220F331F240F351F225C3C4F4C81AC
:1019C00060913B0380913A0396959017110651F070
:1019D0004CF0442349F040913C030E94E1080F5F22
:1019E0001F4FCECF4423B9F340E0F7CF4F925F9221
:1019F0006F927F928F929F92AF92BF92CF92DF921F
:101A0000EF92FF920F931F93CF93DF93FC016280BD
:101A1000448081E08483E7EDF2E07490E6E5F3E052
:101A2000E491812C75E0972EF2E0CF2EDD24D39443
:101A3000AA24AA94B12C55245A94E7190E2F10E029
:101A400080912401881690F0DF91CF911F910F9122
:101A5000FF90EF90DF90CF90BF90AF909F908F90CE
:101A60007F906F905F904F900C945C09E82CF12C64
:101A700082E0861568F09E9CF0019F9CF00D112479
:101A8000EF51FE4F80913A03808380913B03818325
:101A9000411023C09E9CF0019F9CF00D1124EF513A
:101AA000FE4F1382128220912201C701820F911DE5
:101AB0009C01220F331F280F391F225C3C4F9E9C34
:101AC000F0019F9CF00D1124EF51FE4F4281618186
:101AD00080810E94E1088394B3CF9E9CE0019F9C8B
:101AE000D00D1124CF51DE4F8B818823E9F0815036
:101AF0008B83859DC00111246C8170E00E943B287E
:101B0000FB01FF27E952FD4F8491E82FE719E59D7E
:101B1000C0011124B8010E943B2880913C03689FBA
:101B2000B00111247A83BFCF0E94082920913C0381
:101B3000269521582C9DA0012D9D500D1124452F37
:101B40005527841795070CF0AECF82E0861588F4F0
:101B50000E940829B5010E944F2888830E94082905
:101B600020913B032695622F70E00E944F28280F9A
:101B700029839E9CF0019F9CF00D1124EF51FE4F94
:101B8000128280913C03893C58F088EC9E9CF001C5
:101B90009F9CF00D1124EF51FE4F8483838383CFEC
:101BA0008431A0F784E1F2CFE9E3F3E080818E7F16
:101BB000808360817181828193810E9402091092E9
:101BC00052022FEF80E792E0215080409040E1F7F1
:101BD00000C000000C945C0960913903669570E0C8
:101BE0004BE050E085E291E00E941829892B19F41E
:101BF00081E0809352020E94D52090934B02809303
:101C00004A0208959091390390FF35C09170811177
:101C100028C0926090933903662351F06091390394
:101C200070913A0380913B0390913C030E9402091A
:101C300060913903669570E04BE050E085E291E0F9
:101C40000E941829892BA1F01092520281E0809302
:101C50004D0240913C0360913B0380913A030C9408
:101C6000FC0A8B3210F09465D5CF880F982BD2CF19
:101C70000E94EC0DEBCF0895682F90913903969553
:101C800081E0890F8B3208F081E00C94020E81E034
:101C90000C943C0E682F9091390396958FEF890F25
:101CA00009F48AE20C94020E81E00C944A0E61E081
:101CB0000C94020EE9E3F3E08081816080838695D5
:101CC0000C94570E8091390380FD0C94D40D0C9424
:101CD0005A0E60E00C94020E8091500281112EC0C9
:101CE0000E94EC1E811104C00E94901F0E941409E2
:101CF0000E94FE086093390370933A0380933B037C
:101D000090933C036E7F61F40E9414090E94FE08C8
:101D10006093390370933A0380933B0390933C03A1
:101D20000E94EF08109252028091390380FF03C095
:101D300086950E94690E81E08093500208950F936A
:101D40001F93CF93DF9380915202882309F496C0AA
:101D500080915102E0913903E695E81BE0934C0233
:101D6000823091F5F0E0ED52FD4FE491CE2FD0E0BE
:101D700001EB19E080914D02882361F010924D0231
:101D80000E94D52090934B0280934A0210924F02FA
:101D900010924E020E94D520E0914A02F0914B022F
:101DA0008E1B9F0B8F3F9F4708F068C0EC0FFD1FF5
:101DB000F0934B02E0934A028AE492E0F801DF914B
:101DC000CF911F910F910994863049F4F0E0E053D0
:101DD000FD4FE491CE2FD0E005EC19E0CBCF893058
:101DE00051F4E695F0E0E353FD4FE491CE2FD0E0BF
:101DF0000FEF1AE0BFCF8F3051F4E695F0E0E653D5
:101E0000FD4FE491CE2FD0E00CE31BE0B3CF853142
:101E100049F4F0E0E953FD4FE491CE2FD0E006EB1A
:101E20001BE0A8CFC8E2D0E009E21CE0883109F449
:101E3000A1CF833239F4E5ECF2E0C591D49105ED00
:101E400019E098CFC4EFD1E009EB1CE0843209F42B
:101E500091CFC0EDD7E00EED18E0853209F08ACFC2
:101E60008E2F63E00E942128E92FF0E0EE53FD4F12
:101E7000E491CE2FD0E006EF1CE07CCFDF91CF9134
:101E80001F910F910895FA01811101C0FB0109947E
:101E9000CF93DF93C82FD62F0E9423098C1740F0D1
:101EA0000E9423098D1720F4DF91CF910C94470EE7
:101EB0008C2FDF91CF910C94570E0F931F93CF93DC
:101EC0008C01FB01C281CC2309F465C00E94351E40
:101ED0008272F801E35CFC45E431F10538F4E35328
:101EE000F64D0C9485280E94620EC0E08C2FCF9195
:101EF0001F910F91089544E55EE067E47EE00E9443
:101F0000430FF3CF47E45EE064E57EE0F8CF4DEBAE
:101F10005AE060EB7AE0F3CF40EB5AE06DEB7AE009
:101F2000EECF4BED5AE06CEC7AE0E9CF4CEC5AE0A6
:101F30006BED7AE0E4CF49EF5AE06AEE7AE0DFCF6A
:101F40004AEE5AE069EF7AE0DACF46E559E06FE30E
:101F500079E0D5CF4FE359E066E579E0D0CF81E075
:101F60000E94570EC2CF65E082E00E94480FBDCFAD
:101F700068E086E0FACF6EE089E0F7CF64E18FE0B9
:101F8000F4CF67E185E1F1CF88E1EACF62E289E150
:101F9000ECCF83E2E5CFC1E0A9CF879A41B34F7779
:101FA00051B35068EFB7F8949B01220F331F260FEF
:101FB000371F280F391F2817390741F4EFBF8FE566
:101FC00094E00197F1F700C000000895DC016D91E5
:101FD000CD0178E051BB000000C067FF41BB660F38
:101FE000000000C000C000C041BB00C07A9591F75E
:101FF000E2CF0F931F93CF93DF93C42FD22FFC0117
:1020000082818823C9F0409355020E94D520909385
:1020100054028093530280E28C0F883008F050C045
:10202000C77081E001C0880FCA95EAF7DF91CF91B0
:102030001F910F910C94EF1510915502141335C098
:1020400080915302909154020E94ED208F3A9105A5
:1020500060F5C0E2CD0F1D17B9F080E2810F883026
:1020600040F4177081E001C0880F1A95EAF70E94CA
:10207000F615C83048F481E09D2F977001C0880F95
:102080009A95EAF70E94EF15802F0E94E715C83055
:10209000B8F4D77081E001C0880FDA95EAF7DF91D4
:1020A000CF911F910F910C94F61580E28C0F883020
:1020B00038F4C77081E001C0880FCA95EAF7EFCF06
:1020C000DF91CF911F910F9108950F939C01CB0148
:1020D000243F4CE5340759F1A8F4293DFCE53F07BE
:1020E00001F12A3D4CE53407D1F1283D3C4591F4FE
:1020F00006E221EE41EE68ED7CE50E94F90F80E0FA
:102100000F910895263FFCE53F07E9F0B0F0273F27
:102110003C45F9F0FC018281882339F11092550287
:10212000EFCF07E225EE45EE69ED7CE5E6CF06E26E
:1021300021EE40EE64EF7CE5E0CF07E225EE44EED1
:1021400065EF7CE5DACF06E221EE42EE66EF7CE554
:10215000D4CF07E225EE46EE67EF7CE5CECF08E26E
:1021600021E045EE6AED7CE5C8CF81E0C9CFCF9391
:10217000DF93EC01FB018281882309F419C1C2308D
:10218000FCE5DF07C0F1C6319CE5D90730F09E01C0
:102190002B5F3C452930310570F50E94FF1E90935E
:1021A000820380938103C031ECE5DE0709F4CFC0E0
:1021B00008F05BC0C8308CE5D80709F4B6C088F5D4
:1021C000C430ECE5DE0709F4A8C0C0F4C2308CE5E9
:1021D000D80709F49CC0809181038260C330DC453C
:1021E00009F498C080918103909182030E940D1F91
:1021F0000E941D1680E0DF91CF91089580918103A8
:102200008061C630ECE5DE0709F484C0809181036B
:102210008860C730DC4508F47DC08091810380620E
:1022200079C0CC308CE5D80709F489C070F480916E
:1022300081038C60CA30ECE5DE0709F46BC008F45A
:1022400078C0809181038E7F65C0CE308CE5D80741
:1022500009F479C0809181038B7FCF30DC4508F48D
:1022600059C0809181038F7E55C0CC3FECE5DE07DD
:1022700009F457C030F5C3318CE5D80709F46FC0B5
:1022800078F4C131ECE5DE0709F465C0C231DC4504
:1022900009F0A8CF0E941D16809181038F773AC064
:1022A000C5318CE5D80709F462C008F476C0809186
:1022B00082038160CB3FDC4509F094CF8093820399
:1022C00091CFC115FDE5DF0709F44DC088F4809179
:1022D00082038D7FCE3F9CE5D90781F380918203F5
:1022E0008E7FCF3FDC4550F3809182038360E6CF41
:1022F000C230FDE5DF0709F459C008F444C080E0AE
:10230000C330DD4509F06ECF0E94921F6BCF8091E4
:10231000810381608093810365CF80918103846014
:10232000F9CF809182038260C9CF8091810380645C
:10233000F1CF0E941D16809181038068EBCF8091C0
:1023400081038D7FE7CF80918103877FE3CF8091E9
:1023500081038F7DDFCF809181038F7BDBCF8091E5
:102360008103837FD7CF809182038C7FA7CF809119
:10237000810382FB992790F921E0922790FB82F953
:1023800090FB83F9C7CF80918203982F909591702D
:102390008E7F892B90FB81F991CF0E941D16909121
:1023A0008103892F97FB87F98058B4CF81E0ACCFA8
:1023B00081E021CFCF93DF93EB0186319C4511F56E
:1023C0000E94351E9A81992399F08A7A91E009F446
:1023D00090E090935602811109C089E20E94101E7C
:1023E0000E94811E80E0DF91CF91089585E3F6CFB2
:1023F00080915602811104C089E20E94171EF0CF1D
:1024000085E3FBCF81E0EFCFCF93909167029923D3
:1024100021F0811116C010926702CF910895EC2F20
:10242000F0E0EE0FFF1FE95AFD4F808191810E947D
:102430008D030E94811ECF5F80916702C81778F3D9
:10244000EACFC0E0F9CF089580913001882399F058
:1024500080916802882379F080916C0290916D02DE
:10246000009749F00E94ED204A9728F010926802E8
:1024700081E00C94041208951092680210923001C9
:1024800010926D0210926C0281E00C940412809103
:10249000300181110C943C1281E080933001089549
:1024A0005F926F927F928F929F92AF92BF92CF92E4
:1024B000DF92EF92FF920F931F93CF93DF937C01F4
:1024C0006B0110926902883F4CE59407C1F4FB014F
:1024D000C281CC2349F181E0809330018C2FDF91C0
:1024E000CF911F910F91FF90EF90DF90CF90BF9011
:1024F000AF909F908F907F906F905F900895893FED
:10250000FCE59F0739F4FB01C281CC2369F00E94EE
:102510003C12E4CF8A3F9C4539F4FB01C281CC23B5
:1025200019F00E944712DACFD0913001C1E0DD23CB
:10253000A9F210926B0210926A02C0E055E0752E6B
:1025400088248394912C6624639400916A021091EC
:102550006B020530110588F080916902882309F427
:1025600097C00E94D52090936D0280936C0280E00A
:102570000E94041281E0C827B1CF709EF001719EC5
:10258000F00D1124EC5FFE4F808191813FEF20E040
:10259000E22FF0E0EE0FFF1FE80FF91F4591549175
:1025A000E416F50609F4322F452B11F02F5FF0CF1A
:1025B0003F3FD1F4512CC529DD2351F0709EF0012D
:1025C000719EF00D1124EC5FFE4FD1E084818111EA
:1025D000D0E0D17080916A0290916B020196909345
:1025E0006B0280936A02B1CF50906802F60192812B
:1025F000709EF001719EF00D1124EC5FFE4F8481FE
:10260000540101C0AA0C3A95EAF79923E1F0A82AEF
:10261000A482552079F2C40102C0880F991F2A951F
:10262000E2F70197A816190631F682819381009787
:1026300029F00E948D0360926902BDCF61E0C8015C
:102640000E942312F8CFA40102C0440F551F2A95FF
:10265000E2F79A012150310982171306B9F48281F9
:102660009381009771F00E94A203709EF001719E09
:10267000F00D1124EC5FFE4FA0948481A822A48267
:102680009ACF60E0C8010E942312EFCF512CEDCF0A
:10269000C1110EC081E00E940412DD2309F46ACF4B
:1026A00010926D0210926C0281E08093680262CFFA
:1026B000F6018281882309F45DCF80916802882326
:1026C00009F458CF0E94D52090936D0280936C023C
:1026D000E0916702E83008F04DCF81E08E0F8093E3
:1026E0006702F0E0EE0FFF1FE95AFD4FF182E08232
:1026F00041CF90937302809372020895E091720229
:10270000F0917302309721F00190F081E02D09944F
:1027100080E00895E0917202F0917302309799F091
:1027200020913D01222359F02091810327FF07C00A
:10273000DC012C9111962C93119725E02C930280AB
:10274000F381E02D09940895209170023091710277
:102750002817390771F09093710280937002E0910D
:102760007202F0917302309721F00680F781E02D1C
:102770000994089520916E0230916F02281739074D
:1027800071F090936F0280936E02E0917202F0916B
:102790007302309721F00084F185E02D09940895AB
:1027A0000E94E12060937F027093800280938102F7
:1027B0009093820260937B0270937C0280937D02EF
:1027C00090937E02089585B7806885BF85B780683D
:1027D00085BF0895089508950C94EA1308950C9404
:1027E000EE130E94E31384EE9EE10E9444210E94B6
:1027F000EB130C94EC1381E008950C94FB130895F3
:1028000008950E94CC200E94AE060E945F210E9483
:102810006C0E0C94EF13AF92BF92CF92DF92EF92B7
:10282000FF920F931F93CF93DF93CDB7DEB72A9715
:102830000FB6F894DEBF0FBECDBF0E94FF130E94FB
:1028400000140E94E10681110E94D01385E7A82E92
:1028500082E0B82E10E000E0C02E802F0E94880693
:10286000E82EF501F1905F01F81609F44DC0809152
:10287000090381FD0E948E068F2D8E25D12CFF2409
:10288000F394982F9F21D9F10E94FD13882399F08A
:10289000DE82CF82EF2081E009F480E088870E9409
:1028A000D5208160782F9A8789874E815F816885DE
:1028B0008A850E94AC14F801EB58FD4F8081F82600
:1028C000F0820E949F0E0E947E13909174028917DD
:1028D00091F10E947E13809374022A960FB6F894A9
:1028E000DEBF0FBECDBFDF91CF911F910F91FF9043
:1028F000EF90DF90CF90BF90AF900C947404D3947E
:10290000FF0CF7E0DF12BDCF0F5F1F4F0630110540
:1029100009F0A2CF8FEF89838A831B820E94D52082
:102920008160782F9D838C8349815A816B818D8151
:102930000E94AC14C6CF2A960FB6F894DEBF0FBE25
:10294000CDBFDF91CF911F910F91FF90EF90DF905E
:10295000CF90BF90AF900895CF92DF92FF920F93E8
:102960001F93CF93DF93CDB7DEB72B970FB6F894B5
:10297000DEBF0FBECDBF7A878B878A01F62ECA8451
:10298000DB84C114D10421F0812F84238F3FD9F43B
:10299000F1100E94551E1E821D827C2DDD82CC828C
:1029A000A8016F2D8D819E812B960FB6F894DEBF06
:1029B0000FBECDBFDF91CF911F910F91FF90DF90A0
:1029C000CF900C942C1B80918402909185020196EB
:1029D0009093850280938402DBCFFC0180819181FA
:1029E0000C94E21DCF93C82F882309F488C0823845
:1029F000C1F40E947E1381FD82C089E30E94101EF3
:102A00000E94811E2FEF81EE94E021508040904083
:102A1000E1F700C0000089E30E94171ECF910C94DB
:102A2000811E8338A1F40E947E1380FD68C083E577
:102A30000E94101E0E94811E2FEF81EE94E0215013
:102A400080409040E1F700C0000083E5E5CF843886
:102A5000A1F40E947E1382FD52C087E40E94101EE2
:102A60000E94811E2FEF81EE94E021508040904023
:102A7000E1F700C0000087E4CFCF8CEF8C0F813AE4
:102A8000B8F48C2F0E940F08811139C06C2F8091EF
:102A90003101909132010E94AB1F882329F08C2FC5
:102AA0000E94171E0E94811E8C2F0E94101EB6CFFE
:102AB00080E28C0F883048F4C77081E001C0880F35
:102AC000CA95EAF70E94381EA9CFEBE5EC0FE33078
:102AD00040F4F0E0EB52FE4F808190E0CF910C94F7
:102AE000A413C85AC73158F4EC2FF0E0EE0FFF1FC3
:102AF000E955FE4F80819181CF910C94BA13CF910B
:102B00000895882309F44BC0823871F40E947E1323
:102B100081FF45C089E30E94101E0E94811E89E347
:102B20000E94171E0C94811E833859F40E947E1354
:102B300080FF35C083E50E94101E0E94811E83E540
:102B4000EFCF843859F40E947E1382FF28C087E4B7
:102B50000E94101E0E94811E87E4E2CF9CEF980F16
:102B6000913AF0F290E2980F983050F4877091E02B
:102B700001C0990F8A95EAF7892F0E943E1ED2CF95
:102B80009BE5980F933020F490E080E00C94A41320
:102B9000885A873120F490E080E00C94BA130895AD
:102BA0001F93CF93DF93182FEB010E94F21420970D
:102BB00031F4812FDF91CF911F910C9481158FE912
:102BC0009FE00197F1F700C000002197F0CF70E07F
:102BD00060E0893311F460E570E00C94D01588232F
:102BE00021F00E94381E0C94811E0895882321F044
:102BF0000E943E1E0C94811E0895882321F00E949D
:102C0000481E0C94811E0895882321F00E944E1EB8
:102C10000C94811E089590E080E00E94A41390E03F
:102C200080E00E94BA130E94551E0E94651E0C94FB
:102C3000811E0E941E1E0C940B160E94451E0C94B1
:102C40001916E92FE295EF70E250EE3070F4F0E0E3
:102C5000EF51F64D0C948528803F19F020F4883E02
:102C600020F481E00895843FE1F380E00895883EF8
:102C7000C0F3813FD1F7F5CF93FB882780F9089502
:102C80000E94E21D0C9421168F929F92AF92BF92E8
:102C9000CF92DF92EF92FF920F931F93CF93DF9328
:102CA0007C01EB01FC011281058102950F700E94ED
:102CB0002E1ED82E8823A1F0D12E112389F08D2F1E
:102CC000807F803429F080E28C0FD12C883040F056
:102CD00082E00E94CC1E0E942E1E91E0D82ED926A2
:102CE000CD2EC2942FE0C222EC2DF0E0E151F64D42
:102CF0000C948528FD2FFF70BF2E8D2F807F19F03B
:102D0000B29490EFB9221123A9F0BB2059F080E2D0
:102D10008C0F883010F0C11109C08B2D0E94381E15
:102D20000E94811E8C2F0E94F21414C08B2D0E94D1
:102D3000481EF6CF8C2F0E948115BB2059F080E2EF
:102D40008C0F883010F0C11137C08B2D0E943E1EB1
:102D50000E94811EEC2DE850FF0B349720F40E9456
:102D60007E130E947404CE010E94211681119EC11F
:102D70001092850210928402DD2009F4A9C10E94FC
:102D80002A1E80FDA5C1F70112820E94241E0E9406
:102D9000B01CC7010E948C180E94241EDF91CF91A5
:102DA0001F910F91FF90EF90DF90CF90BF90AF9069
:102DB0009F908F900C94D11C8B2D0E944E1EC8CFDB
:102DC0002D2F2F70B22E8D2F807F803219F0B2946C
:102DD00080EFB822CC2339F0C13019F1112361F111
:102DE000002321F19FCF112381F0011106C00E9421
:102DF000681E8B290E94EF15ADCF0130C1F70E94EC
:102E0000681E8B290E946E1EA5CF011106C00E946C
:102E1000771E8B2D0E94F6159DCF013009F49ACFB5
:102E2000F6CF112329F0063008F094CF8B2DE2CF96
:102E3000053008F08FCFEDCF002359F3C93349F4A3
:102E40003FEF87EE93E0315080409040E1F700C0C3
:102E500000008C2F0E9481157DCF8D2F8695869541
:102E6000837061F0813009F075CFCE01937011113C
:102E700002C090E080E00E94BA136CCFCE01937044
:102E8000111102C090E080E00E94A41363CF8D2F47
:102E9000837009F043C011115DCF2C2F2295269528
:102EA0002770220F220F6C2F6F70862E912CB12C61
:102EB000A12C022E04C0880C991CAA1CBB1C0A94CD
:102EC000D2F760E070E0CB01C4FF0FC06FE070E0AC
:102ED00080E090E004C0660F771F881F991F2A9535
:102EE000D2F760957095809590952D2F2695269513
:102EF0002370682979298A299B29223049F058F4BE
:102F0000213019F00E94621C25CF0E94501C22CF54
:102F10000E94741C1FCF0E944E1C1CCF869511234B
:102F200011F08D2F8170882309F414CF2C2F229556
:102F300026952770220F220F6C2F6F70862E912CF2
:102F4000B12CA12C022E04C0880C991CAA1CBB1CFD
:102F50000A94D2F760E070E0CB01C4FF0FC06FE0CD
:102F600070E080E090E004C0660F771F881F991F13
:102F70002A95D2F760957095809590952D2F26957E
:102F800026952370682979298A299B29223049F0BE
:102F900058F4213019F00E94271DDCCE0E94151D27
:102FA000D9CE0E94391DD6CE0E948A1CD3CEED2FD9
:102FB000EF70BE2E112329F08E2F0E94B01C8C2F93
:102FC00019CF8C2F0E94F6158B2D0E94D11CC2CEDA
:102FD000C23F99F160F4C03FD9F0C13F39F11123EC
:102FE00009F444C001119ECE8D2F8F7123C0C33FC1
:102FF00049F1C43FA1F7112379F1FD2FFF71BF2ED5
:103000008F2F0E94B01C63E08B2D0E94B71EA2CEB2
:10301000112341F0053008F09DCE8D2F8F710E9455
:10302000F41C98CE063008F095CEF7CF8D2F8F7117
:10303000112359F20E94B01C8DCE8D2F8F71112358
:10304000C9F3C3CF112329F08D2F8F710E949B1CD0
:1030500081CE0E94961C7ECE81E00E94CC1E023062
:1030600008F478CE82E00E94CC1E74CE002359F082
:10307000C93309F0EECE2FEF37EE83E02150304018
:103080008040E1F7E4CE8D2F8F719FCF4D2F4F7091
:103090006C2FC7010E947C040E94C61B5BCE4D2F83
:1030A0004F706C2FC7010E947F0454CE112319F07A
:1030B00001115ECE61CE01115BCE809184029091B0
:1030C0008502029709F054CE8C2F0E94E71550CE4E
:1030D000DF91CF911F910F91FF90EF90DF90CF90F4
:1030E000BF90AF909F908F9008950F931F93CF93B1
:1030F000DF93EC01688179818A810E94EC1D8C014B
:103100000E944B1D0E944D1CB801CE01DF91CF9152
:103110001F910F910C944416CF93DF93EC018B8198
:103120009C81892B29F08881998189238F3F59F4CB
:10313000DF91CF910895CE010E947518CE01DF91E5
:10314000CF910C94FC03CE010E9425048111F3CF92
:103150000E942E1E882361F38A81882349F382E02E
:10316000DF91CF910C94CC1ECF93DF9300D000D091
:103170000F92CDB7DEB70F900F900F900F900F907A
:10318000DF91CF910895CF93DF9300D000D000D08E
:10319000CDB7DEB726960FB6F894DEBF0FBECDBF13
:1031A000DF91CF9108951F93CF93DF93C091860253
:1031B00016E0809187028C1304C0DF91CF911F919C
:1031C0000895D0E01C9FF0011D9FF00D1124E857D9
:1031D000FD4F4081518162817381848195810E947C
:1031E000C3182196C770E5CF4091B8025091B9023B
:1031F0006091BA027091BB028091BC029091BD02B5
:103200000C94C318209186029091870256E02913EE
:1032100002C080E0089530E0529FF001539FF00D0E
:103220001124E857FD4F7181761306C07081781321
:1032300003C07281741304C02F5F3F4F2770E7CF24
:1032400081E008951F93CF93DF938091BD02807F2B
:10325000A9F48091BA02882389F080918602C091F6
:1032600087026091B8027091B902A091BB02B0913F
:10327000BC02D62FD72316E0C81304C0DF91CF912C
:103280001F91089590E0109711F0DF3F19F4019617
:103290008770F2CF189F9001199F300D1124F9010A
:1032A000E857FD4F41814713F2CF40814613EFCFDE
:1032B00042814111ECCF438154814A1B5B0B4F3A51
:1032C000510528F78091BD028F7080618093BD0207
:1032D000F901E357FD4F80818F708061808388EB17
:1032E00092E00E948C18DF91CF911F910C94D3181B
:1032F0008F929F92AF92BF92CF92DF92EF92FF9206
:103300000F931F93CF93DF93CDB7DEB761970FB6BF
:10331000F894DEBF0FBECDBF8C0185E0F801DE0161
:103320001D9601900D928A95E1F7D801EC901196C7
:10333000FC9011971296CC90129788EBA82E82E001
:10334000B82E4091BB025091BC024115510509F4C1
:1033500061C19091B8022091B902892F82238F3FD9
:1033600009F458C113968D909C901497D090BA028E
:10337000F401E41BF50BDD2009F419C18091BD02B5
:10338000382F307FEF3AF10508F0D0C0311189C0F5
:10339000DC2C2F1126C09E1124C0C11022C08F70BA
:1033A00080618093BD020E94F418C5010E948C18B0
:1033B0008091BD02D80115968C938D2D61960FB624
:1033C000F894DEBF0FBECDBFDF91CF911F910F915B
:1033D000FF90EF90DF90CF90BF90AF909F908F9035
:1033E00008958114910429F08F2D8E218F3F09F0CB
:1033F00030C180E080FF15C04C2D6F2D8E2D0E94B6
:103400000219882371F088EB92E00E948C1886E004
:10341000E8EBF2E0DF011D928A95E9F70E94F418CB
:103420003EC0892829F08F2D8E218F3F09F00EC1D3
:1034300080E0B82FB170AB2E80FF29C04C2D6F2DCE
:103440008E2D0E940219B82E811121C0ED86FE86B4
:103450008D859E850E94E21D292F22952F70223096
:1034600050F0243078F49F7051F0F8019581907FEE
:1034700031F4DB2CA2CF9F7011F08823D1F3805E52
:103480008830B8F3C8010E948C18BA2CF2CFCC2037
:1034900009F493CF8091BD0281608093BD02D12C4D
:1034A0008CCF2F1114C09E1112C0C11010C01596E0
:1034B0008C93C8010E948C1886E0F801A8EBB2E05A
:1034C00001900D928A95E1F70E94F41876CFED866F
:1034D000FE868D859E850E944016882319F1CC209A
:1034E00009F18091BD02803270F02091B8023091D4
:1034F000B90238872F8319869B868A868C87CE01EE
:1035000007960E948C1886E0F801A8EBB2E00190C3
:103510000D928A95E1F70E9422190E94F418DD2489
:10352000D3944BCFC8010E948C18F9CF311112C02F
:10353000782D998A888AA7016C2D89890E94B418F0
:1035400088EB92E00E948C1886E0F50111928A9532
:10355000E9F764CF2F110FC09E110DC0C1100BC031
:1035600015968C93C8010E948C1886E0F501119283
:103570008A95E9F722CFED86FE868D859E850E948D
:103580004016882379F2CC2069F28091BD02803206
:1035900008F4B9CF2091B8023091B9023A83298357
:1035A0001B829D828C828E83CE010196AACFEF3A38
:1035B000F10510F5DC2CCC2009F4B4CF2F110BC091
:1035C0009E1109C086E0F801A8EBB2E001900D92CF
:1035D0008A95E1F7F2CEED86FE868D859E850E9466
:1035E0004016811190CF8091BD0281608093BD0211
:1035F000C8010E948C18E1CE782D998A888AA7018B
:103600006C2D89890E94B41886E0D5011D928A9597
:10361000E9F75ACFCC2009F485CFED86FE868D855B
:103620009E850E944016D82E882309F47BCF86E021
:10363000F801A8EBB2E001900D928A95E1F788EBD2
:1036400092E00E94ED140E9422193ECF81E08C2569
:10365000F0CE81E08C25CECE1F93CF93DF93CDB7F4
:10366000DEB72C970FB6F894DEBF0FBECDBF4F83E9
:10367000588769877A878B879C87CE0107960E9437
:103680007819882369F08A859B85892B39F04F81C9
:103690005885842F85238F3F09F071C016E05FC0E5
:1036A00086E0FE013796DE01119601900D928A9513
:1036B000E1F78A859B85892B89F38F8198858923FA
:1036C0008F3F61F32091870230E0C9010196877036
:1036D0009927409186024817190671F40E941D1619
:1036E000109287021092860286E0E8EBF2E0DF019A
:1036F0001D928A95E9F7D2CF96E0929FD001939FD1
:10370000B00D1124A857BD4FFE01319601900D92C6
:103710009A95E1F7809387020E94D318BFCF819FCB
:10372000C001112488579D4F0E9478198823E9F021
:10373000E09186021E9FF0011124E857FD4F408161
:10374000518162817381848195810E94C318809127
:10375000860290E001968770992780938602809177
:103760008602909187028913DACF2C960FB6F894CF
:10377000DEBF0FBECDBFDF91CF911F910895698548
:103780007A858B859C850E94C31888CFEF92FF9223
:103790000F931F93CF93DF938C01892B81F0F12C32
:1037A000EE24E394E8012196F8018491843770F4C3
:1037B000843008F05FC08130B1F08230A1F1DF9138
:1037C000CF911F910F91FF90EF900895853709F4E5
:1037D0004CC008F43DC09CE7980F903780F78F7776
:1037E0000E94811549C00E5F1F4FFE01849190E237
:1037F000980F983060F48770FE2D01C0FF0F8A95F6
:10380000EAF78F2F0E94581E0E94811E02C00E945C
:10381000F2148F2D815030F2EFE9FFE03197F1F78C
:1038200000C00000F7CF0E5F1F4FFE01849190E2B1
:10383000980F983050F48770FE2D01C0FF0F8A95C5
:10384000EAF78F2F0E945E1EDFCF0E948115E1CF25
:103850000E5F1F4FFE01C491C150D8F28FE99FE067
:103860000197F1F700C00000F7CF0E5F1F4FFE0178
:10387000F490CFCF0E94F2148E01CBCF08950C9418
:103880003E1C0E943F1C6093E0027093E102809313
:10389000E2029093E3020C940B1608950C94411CE1
:1038A0000F931F930091E0021091E1022091E20238
:1038B0003091E302602B712B822B932B1F910F9180
:1038C0000C94411C0F931F930091E0021091E102B0
:1038D0002091E2023091E30260237123822393233B
:1038E0001F910F910C94411C0F931F930091E002C4
:1038F0001091E1022091E2023091E30260277127EA
:10390000822793271F910F910C94411C0C943E1C0D
:103910000C94861C0E94881C6093DC027093DD026C
:103920008093DE029093DF020C940B1660E070E04F
:10393000CB010C948A1C0F931F9341E050E060E090
:1039400070E08A019B0104C0000F111F221F331F6A
:103950008A95D2F7C901B8011F910F910C948A1C66
:103960000F931F9341E050E060E070E004C0440F0B
:10397000551F661F771F8A95D2F78091DC029091C0
:10398000DD02A091DE02B091DF028A019B01082BCB
:10399000192B2A2B3B2BC901B8011F910F910C94B5
:1039A0008A1C0F931F9341E050E060E070E004C078
:1039B000440F551F661F771F8A95D2F7CB01BA01B6
:1039C00060957095809590950091DC021091DD02D4
:1039D0002091DE023091DF02602371238223932342
:1039E0001F910F910C948A1C0F931F9341E050E09C
:1039F00060E070E004C0440F551F661F771F8A9572
:103A0000D2F78091DC029091DD02A091DE02B091AC
:103A1000DF028A019B01082719272A273B27C901B2
:103A2000B8011F910F910C948A1C0F931F93009162
:103A3000DC021091DD022091DE023091DF02602B6A
:103A4000712B822B932B1F910F910C948A1C0F9337
:103A50001F930091DC021091DD022091DE02309173
:103A6000DF0260237123822393231F910F910C9413
:103A70008A1C0F931F930091DC021091DD022091AC
:103A8000DE023091DF0260277127822793271F9182
:103A90000F910C948A1C089527E0929F800D1124A9
:103AA000982F977041E001C0440F9A95EAF78695E8
:103AB0008695869595E0899FF0011124E254FD4F8B
:103AC00090E080E070E05191DF0111979B01082E9A
:103AD00002C0369527950A94E2F721702195252793
:103AE000242325272C9301968530910561F70895AD
:103AF00027E0929F800D1124982F977086958695C8
:103B0000869525E0829FF0011124E254FD4F50E09C
:103B100040E080E0219130E0092E02C036952795E3
:103B20000A94E2F721703327042E01C0220F0A9471
:103B3000EAF7822B4F5F5F4F4530510559F70895E3
:103B4000BF92CF92DF92EF92FF920F931F93CF938A
:103B5000DF938C01C090DC02D090DD02E090DE02A9
:103B6000F090DF028091E0029091E102A091E202E8
:103B7000B091E302C82AD92AEA2AFB2ACFE1D0E091
:103B8000BC2ED701C6010C2E04C0B695A7959795FB
:103B900087950A94D2F780FD0EC0219788F7B12C43
:103BA0008B2DDF91CF911F910F91FF90EF90DF90C0
:103BB000CF90BF900895B8018C2F0E949C0401976C
:103BC00061F3EECFCF93DF93EC010E94A01DBE0105
:103BD000DF91CF910C949C041F93CF93DF93EB0163
:103BE00090918302992331F0CB01DF91CF911F9106
:103BF0000C94E21D882379F0CB010E94A01D182FA0
:103C0000682FCE010E944C1DBE01812FDF91CF9104
:103C10001F910C949C04CB010E94781D182FF4CFA7
:103C2000682F80913101909132010C942B20682FE4
:103C300080913101909132010C94362080913101B4
:103C4000909132010C9441208091E40285958595F4
:103C5000859508958091E402877008959091E4021B
:103C6000977081E009F480E0089580910803089539
:103C700090910803892B8093080308958095909173
:103C80000803982390930803089510920803089559
:103C900090910703892B8093070308958095909155
:103CA000070398239093070308951092070308953C
:103CB00090910603892B8093060308958095909137
:103CC000060398239093060308951092060308951F
:103CD0008091E502089508950C946B1E9091E50281
:103CE000981721F08093E5020C946C1E0895809142
:103CF000E502882329F01092E50280E00C946C1E06
:103D00000895E0913101F0913201809108038083A0
:103D1000E0913101F0913201808190910703892B6C
:103D20008083E0913101F09132018081909106030E
:103D3000892B80839091E502992381F0E0913101F4
:103D4000F09132018081892B8083809131019091A3
:103D500032010E94971F81110E94771E80913101CC
:103D6000909132010C948A1308950C94B41E98E03B
:103D7000899F90011124622B6093E4020E94B01C81
:103D80008091E4028595859585950C94B51E1092D9
:103D9000E40280E00C94B51E9091E40280958923A2
:103DA0008093E402282F277071F4282F082E000C2E
:103DB000330B9217130639F08595859585950E94EA
:103DC000D11C0C94C71E089580E008956FEF7FEF1B
:103DD00090E080E00C94572990E080E00E94332925
:103DE00021E08B3E9E4F09F020E0822F089582E073
:103DF00090E00C94252983E090E00C942529CF9342
:103E000084E090E00E942529C82F81E290E00E9482
:103E10002529982F8C2FCF910895CF93C92F682FE4
:103E200084E090E00E9439296C2F81E290E0CF91EC
:103E30000C943929AB01BC018FE090E00C944B2924
:103E4000AB01BC0183E190E00C944B2960E070E091
:103E5000CB010C94201F60E070E0CB010E941A1F80
:103E60000C94261F6BEE7EEF90E080E00E945729B5
:103E700060E082E090E00E94392960E083E090E019
:103E80000E9439291092E0021092E1021092E2029F
:103E90001092E30260E084E090E00E94392960E043
:103EA00081E290E00E94392960E085E090E00E9484
:103EB000392960E086E090E00E9439296FEF87E0C1
:103EC00090E00E94392940E050E0BA0188E090E09B
:103ED0000E944B2960E08DE090E00E94392940E08B
:103EE00050E0BA0188E190E00E944B2960E087E150
:103EF00090E00E94392940E050E0BA018CE190E066
:103F00000E944B2960E080E290E00E94392940E065
:103F100050E0BA0188E190E00E944B290C942B1FDD
:103F20000C94321F682F8EE090E00C943929FC012C
:103F3000329680913D01882321F0809181039EE19A
:103F400087FF96E080E0915008F4089521912223A4
:103F5000D1F38F5FF8CF662301F120913D01222339
:103F6000F1F02091810327FF1AC0462F4695469510
:103F700046954E3190F4677021E030E002C0220F88
:103F8000331F6A95E2F7840F911DFC01828190E056
:103F90002823392381E0232B69F480E00895FC0174
:103FA000329608962191261721F0E817F907D1F7E4
:103FB000F4CF81E008959C01FC0132969FEF80E0F0
:103FC0004191461751F09F3F19F4411101C0982FBC
:103FD0008F5F8630A9F79F3F09F40895290F311D9F
:103FE00097FD3A95F90162830895FC01329608968F
:103FF0002191261303C0DF0111971C92E817F907DE
:10400000B9F70895E62FE695E695E695EE3168F462
:10401000E80FF92FF11D677021E030E001C0220F99
:104020006A95EAF78281822B82830895E62FE695CE
:10403000E695E695EE3170F4E80FF92FF11D677003
:1040400021E030E001C0220F6A95EAF720958281D5
:1040500028232283089520913D01222329F02091D5
:10406000810327FD0C9402200C94DB1F20913D015D
:10407000222329F02091810327FD0C9416200C9413
:10408000F51FFC01329680913D01882351F080910B
:10409000810387FF06C08EE1DF011D928A95E9F753
:1040A000089586E0F9CF089508950C9454208091E6
:1040B0008703843049F10E94552080E00E947404F7
:1040C00010920A0388E190E020E40FB6F894A895D6
:1040D000809360000FBE2093600083B7817F84606F
:1040E00083BF83B7816083BF7894889583B78E7FC1
:1040F00083BF0FB6F894A895809160008861809383
:104100006000109260000FBE08950895CF930E9442
:1041100053200E94E1060E948520C0E08C2F0E945F
:104120008806811105C0CF5FC630C1F7CF910895D1
:1041300081E0FCCF08950C949A200E941D160E94E5
:104140007E130E9474040C949B201F921FB61F9232
:1041500011248F939F93AF93BF9380910A03811192
:1041600013C080917D0390917E03A0917F03B09155
:1041700080034196A11DB11D80937D0390937E0322
:10418000A0937F03B0938003BF91AF919F918F91D4
:104190001F901FBE1F90189582E084BD93E095BDCF
:1041A0009AEF97BD80936E0008952FB7F894809191
:1041B0007D0390917E03A0917F03B09180032FBF78
:1041C00008952FB7F89460917D0370917E038091DC
:1041D0007F03909180032FBF08959C014FB7F894FF
:1041E00080917D0390917E03A0917F03B091800325
:1041F0004FBF821B930B089578941F921FB61F9296
:1042000011248F939F93AF93BF9380917D039091DF
:104210007E03A0917F03B09180030196A11DB11D83
:1042200080937D0390937E03A0937F03B0938003DC
:10423000BF91AF919F918F911F901FBE1F901895B6
:1042400081E08093E00080E28093D8001092C90062
:104250008FE19EE40197F1F700C0000087E090EB4A
:10426000DC018093900390939103A0939203B09309
:10427000930388E19CE00FB6F894A89580936000C2
:104280000FBE90936000FFCF9093D9018093D80127
:1042900008950C94E61E0E94E1068FE39CE90197C5
:1042A000F1F700C000000E94E10680E00E9488064D
:1042B00080FF04C00E9449210C94202108950E948F
:1042C000EC1E811102C00E94901F0E94F71E809375
:1042D00009030E94FF1E90938203809381030E9432
:1042E000FB1E682F70E090E080E00E944E1C609101
:1042F000DC027091DD028091DE029091DF020C946D
:10430000881C80912B0308950895CF93DF9300D0EC
:104310000F92CDB7DEB790918703943019F589835A
:104320007B836A8382E08093E9008FEF9091E800BD
:10433000815095FD06C095ED9A95F1F70000811129
:10434000F5CF8091E80085FF0DC050E040E063E0CC
:1043500070E0CE0101960E9490238091E8008E7754
:104360008093E8000F900F900F90DF91CF91089508
:10437000BC0184E00C948521BC0183E00C94852170
:10438000CF93DF93EC0180913D018823B1F18091BF
:10439000810387FF32C060E282E08093E9008FEF03
:1043A0009091E800815095FD06C095ED9A95F1F742
:1043B00000008111F5CF8091E80085FF1BC080913E
:1043C0003D0170E050E040E0811104C050E040E069
:1043D00068E070E0CE010E9490238091E8008E7723
:1043E0008093E80080E2FE01ABE0B3E001900D9223
:1043F0008A95E1F7DF91CF91089568E081E0CDCF14
:1044000080918603811109C00E9420250E947D258C
:104410008091E20084608093E20008951092860308
:10442000089508950895089542E061EC81E00E94A6
:104430009C2442E261EC82E00C949C2480918903EC
:10444000833009F45FC030F48130C1F1823009F467
:104450009BC008958A3009F487C08B3009F46DC081
:10446000893009F04EC080918803813209F049C03B
:1044700080918C0390918D03029708F042C0809147
:10448000E800877F8093E8008091E80082FF35C0D4
:104490009091F3008091F200029729F48091F1004D
:1044A0008B7F813021F48091F10080932B038091E8
:1044B000E8008B778093E8000C94D02480918803E7
:1044C000813AF9F48091E800877F8093E800809139
:1044D0008C0390918D03892B61F460E28BE093E073
:1044E00070E00E94DF238091E8008B778093E800E2
:1044F000089560E090E080E0F3CF80918703811120
:10450000C3CF089580918803813AD9F780918C03B5
:1045100090918D03892BA9F78091E800877F809384
:10452000E8008091E80080FFFCCF80913D018093FE
:10453000F1008091E8008E77BDCF809188038132B1
:1045400001F780918C0390918D03892BD1F6809196
:10455000E800877F8093E8000E94D02480918A033E
:1045600080933D010C941D1680918803813249F699
:104570008091E800877F8093E8000E94D02480919A
:104580008B0380932C03089580918803813A09F06E
:10459000B8CF8091E800877F8093E8008091E800A1
:1045A00080FFFCCF80912C03C2CF84B7877F84BF6C
:1045B0000FB6F894A89580916000886180936000A0
:1045C000109260000FBE80E890E00FB6F8948093E0
:1045D0006100909361000FBE0E94F1130E9420259C
:1045E0000E947D258091E20084608093E2007894AF
:1045F0000E9406280E94011483E391E00E9479132F
:10460000809187038530A9F00E940B140E94FF134C
:104610000E940014F5CF0E945720809185038823C3
:1046200041F00E948620882321F00E947A230E9474
:104630001D1680918703853071F30E949D20E4CF81
:104640000C942223292F33272330310519F168F4E4
:104650002130310509F444C02230310509F445C048
:1046600090E080E030E020E025C02132310549F1C2
:1046700022323105A9F780E490E02AED35E061159A
:104680007105C1F08DE690E02DE635E061307105F1
:1046900089F0E6CF99278130910581F0009729F0C4
:1046A0000297F1F6ECEDF4E002C0ECE1F5E0849164
:1046B00090E09F01FA01318320830895E8EFF4E050
:1046C000F6CF89E090E022E335E06115710591F3C2
:1046D00089E090E02BE435E06130710559F3C0CFFB
:1046E00082E190E02BE535E0E5CF8BE390E020E23E
:1046F00035E0E0CF80E189BD82E189BD09B400FEEB
:10470000FDCF8091D8008F7D8093D8008091E0000C
:1047100082608093E0008091E00081FDFCCF0895ED
:10472000AF92BF92CF92DF92FF920F931F93CF93DE
:10473000DF936C01EB018A010E94EF24F82E8111B6
:1047400023C00115110539F0F80180819181C81B42
:10475000D90BC80ED91EB12CA12C2097A9F080919D
:10476000E80085FD22C08091E8008E778093E80004
:1047700001151105A1F0F80180819181A80EB91EE3
:10478000B182A08285E0F82E8F2DDF91CF911F910D
:104790000F91FF90DF90CF90BF90AF9008950E944F
:1047A000EF248823D1F2F82EEFCFF60181916F012B
:1047B0008093F1002197FFEFAF1ABF0ACECFFC0123
:1047C00080918E0390918F0386179707A0F0611553
:1047D000710529F49091E8009E779093E80090E0AD
:1047E0006115710551F4911108C08091E80082FFB4
:1047F00034C080E00895BC01F2CF80918703882304
:10480000C1F18530C1F18091E80083FD30C0809115
:10481000E80082FDEACF8091E80080FFE1CF80913F
:10482000F3002091F200382F6115710519F028303E
:10483000310558F091E02830310509F090E02091E1
:10484000E8002E772093E800CBCF81918093F10090
:10485000615071092F5F3F4FE7CF80918703882315
:1048600041F0853041F08091E80083FFBECF81E0C8
:10487000089582E0089583E00895FC0180918E03FD
:1048800090918F0386179707A0F06115710529F4A1
:104890008091E8008E778093E80090E061157105C3
:1048A00051F4911108C08091E80082FF35C080E08A
:1048B0000895BC01F2CF809187038823C9F1853028
:1048C000C9F18091E80083FD31C08091E80082FD4C
:1048D000EACF8091E80080FFE1CF8091F300209142
:1048E000F200382F6115710519F02830310558F0A4
:1048F00091E02830310509F090E08091E8008E7752
:104900008093E800CBCF84918093F1003196615081
:1049100071092F5F3F4FE6CF80918703882341F0D5
:10492000853041F08091E80083FFBDCF81E008959C
:1049300082E0089583E00895982F973028F08F70D3
:104940008093E90081E008959093E900242F762F69
:1049500050E0981731F07091EC002091ED005091EB
:10496000F00021FD02C09F5FE8CF3091EB003E7F59
:104970003093EB003091ED003D7F3093ED003091AE
:10498000EB0031603093EB007093EC002093ED006E
:104990005093F0002091EE0027FDE5CF80E00895D0
:1049A0008091880387FF13C08091E80082FF06C0D2
:1049B0008091E8008B778093E80004C080918703A2
:1049C0008111F2CF0895809187038823D9F38091D4
:1049D000E80080FFF8CF8091E8008E77ECCF20913F
:1049E000E4003091E50095E6A9012091EC00822FCA
:1049F000817020FF06C08091E80080FF06C080E043
:104A000008952091E80022FD1AC080918703882331
:104A100089F0853089F08091EB0085FD0FC02091F1
:104A2000E4003091E50042175307F9F29150E1F6A6
:104A300084E0089582E0089583E0089581E0089578
:104A40000E948E250E949625E0EEF0E08081816034
:104A50008083E8EDF0E080818F77808319BCA7ED3B
:104A6000B0E08C918E7F8C9380818F7E80831092BA
:104A7000860308950F931F93CF93DF930E948E2593
:104A80000E949625C8EDD0E088818F778883888141
:104A90008068888388818F7D888319BC1092870302
:104AA00010928303109285031092840300EE10E0AD
:104AB000F80180818B7F808388818160888342E0D8
:104AC00060E080E00E949C24E1EEF0E080818E7F37
:104AD0008083E2EEF0E08081816080838081886065
:104AE0008083F80180818E7F8083888180618883C4
:104AF000DF91CF911F910F910895E8EDF0E0808153
:104B00008F7E8083E7EDF0E080818160808384E0A8
:104B100082BF81E0809386030C943A25E8EDF0E0B3
:104B200080818E7F80831092E20008951092DA00D7
:104B30001092E10008951F920F920FB60F92112468
:104B40002F933F934F935F936F937F938F939F9395
:104B5000AF93BF93EF93FF938091E10082FF0BC06F
:104B60008091E20082FF07C08091E1008B7F8093FB
:104B7000E1000E9405288091DA0080FF19C0809131
:104B8000D80080FF15C08091DA008E7F8093DA0014
:104B90008091D90080FF96C080E189BD82E189BD06
:104BA00009B400FEFDCF81E0809387030E940022BC
:104BB0008091E10080FF19C08091E20080FF15C064
:104BC0008091E2008E7F8093E2008091E20080611C
:104BD0008093E2008091D80080628093D80019BC55
:104BE00085E0809387030E9412228091E10084FF78
:104BF0002BC08091E20084FF27C080E189BD82E163
:104C000089BD89B5982F917080FFFBCF8091D80026
:104C10008F7D8093D8008091E1008F7E8093E100AA
:104C20008091E2008F7E8093E2008091E2008160BB
:104C30008093E20080918303882309F449C084E0D3
:104C4000809387030E9413228091E10083FF29C093
:104C50008091E20083FF25C08091E100877F8093EF
:104C6000E10082E080938703109283038091E1004A
:104C70008E7F8093E1008091E2008E7F8093E2003E
:104C80008091E20080618093E20042E060E080E099
:104C90000E949C248091F00088608093F0000E9424
:104CA0001122FF91EF91BF91AF919F918F917F91D1
:104CB0006F915F914F913F912F910F900FBE0F9089
:104CC0001F90189519BC109287030E940E2270CF76
:104CD0008091E30087FD93E090938703B3CF1F9209
:104CE0000F920FB60F9211242F933F934F935F9320
:104CF0006F937F938F939F93AF93BF93CF93DF93E4
:104D0000EF93FF93D091E900DF708091EC00C82F02
:104D1000C17080FDC0E81092E9008091F000877FAB
:104D20008093F00078940E94B3261092E90080915D
:104D3000F00088608093F000CD2BCF70C093E90025
:104D4000FF91EF91DF91CF91BF91AF919F918F91A3
:104D50007F916F915F914F913F912F910F900FBE77
:104D60000F901F9018951F93CF93DF93CDB7DEB7A9
:104D7000AA970FB6F894DEBF0FBECDBF88E893E0C8
:104D80002091F100FC012193CF01F3E080399F07CE
:104D9000B9F70E941E228091E80083FF1EC1809116
:104DA0008803909189039A3008F017C1E92FF0E049
:104DB000E150F64D0C948528803899F0823809F03E
:104DC0000CC180918C038F70873008F006C18093EE
:104DD000E9008091EB0085FB882780F91092E900BB
:104DE00006C0809184039091850391118260909117
:104DF000E800977F9093E8008093F1001092F10013
:104E00008091E8008E77E5C0882309F4D3C0823012
:104E100009F0E3C080918A038111D6C080918C0390
:104E20008F702FEF280F263008F0D7C08093E9004D
:104E30002091EB0020FFC8C0933031F48091EB004B
:104E400080628093EB00C0C09091EB0090619093E2
:104E5000EB0021E030E001C0220F8A95EAF72093B1
:104E6000EA001092EA008091EB008860EACF81119D
:104E7000B4C010918A031F778091E3008078812B62
:104E80008093E3008091E800877F8093E8000E9490
:104E9000D0248091E80080FFFCCF8091E3008068FF
:104EA0008093E30082E0111183E08093870395C033
:104EB0008058823008F091C080918A0390918B03D2
:104EC0008C3D23E09207A1F583E08A838AE28983FF
:104ED0004FB7F894DE01139620E03EE051E2E32F55
:104EE000F0E050935700E49120FF03C0E295EF708B
:104EF0003F5FEF708E2F90E0EA30C0F0C7968D9341
:104F00009D932F5F243159F74FBF8091E800877F31
:104F10008093E8006AE270E0CE0101960E94DF23F0
:104F20008091E8008B778093E80057C0C096E7CF68
:104F300060918C0370918D03AE014F5F5F4F0E94B3
:104F40002023BC01892B09F448C09091E800977F89
:104F50009093E80089819A810E943D24E1CF8038B6
:104F6000E1F58091E800877F8093E80080918303DA
:104F70008093F10045CF811130C090918A03923027
:104F800060F58091E800877F8093E8009093830329
:104F90000E94D02480918303882311F084E005C00F
:104FA0008091E30087FDFACF81E0809387030E9420
:104FB000142213C080918A03813079F481E0933008
:104FC00009F080E0809385031092E9008091E80069
:104FD000877F8093E8000E94D0248091E80083FFBF
:104FE0000AC08091E800877F8093E8008091EB0001
:104FF00080628093EB00AA960FB6F894DEBF0FBED6
:10500000CDBFDF91CF911F9108950895CF938091E7
:1050100087038823A1F0C091E900CF709091EC0044
:10502000892F817090FD80E8C82B1092E900809153
:10503000E80083FD0E94B326CF70C093E900CF91B2
:105040000895991B79E004C0991F961708F0961BE4
:10505000881F7A95C9F78095089587FB082E062644
:1050600087FD819567FD61950E9421280EF4919539
:1050700007FC81950895AA1BBB1B51E107C0AA1F1D
:10508000BB1FA617B70710F0A61BB70B881F991FE9
:105090005A95A9F780959095BC01CD01089597FB8D
:1050A000072E16F4009407D077FD09D00E943B2804
:1050B00007FC05D03EF4909581959F4F089570951B
:1050C00061957F4F0895A1E21A2EAA1BBB1BFD011B
:1050D0000DC0AA1FBB1FEE1FFF1FA217B307E407D7
:1050E000F50720F0A21BB30BE40BF50B661F771F2F
:1050F000881F991F1A9469F760957095809590950F
:105100009B01AC01BD01CF010895EE0FFF1F05907B
:10511000F491E02D09940E949328332312F48A1B02
:105120009B0B0C94A428A29FB001B39FC001A39F26
:10513000700D811D1124911DB29F700D811D1124D0
:10514000911D08950E949328B7FF0895821B930B29
:1051500008950E949328A59F900DB49F900DA49F41
:10516000800D911D11240895B7FF0C94A9280E9469
:10517000A928821B930B08958F929F92AF92BF92A2
:10518000CF92DF92EF92FF92CF93DF93EC01688191
:1051900079818A819B81611571058105910521F4D1
:1051A00064E279ED8BE597E02DE133EF41E050E0EB
:1051B0000E946D2949015A019B01AC01A7EAB1E4A3
:1051C0000E94A9286B017C01ACEEB4EFA50194010B
:1051D0000E94B728DC01CB018C0D9D1DAE1DBF1DAB
:1051E000B7FF03C00197A109B04888839983AA83B8
:1051F000BB839F77DF91CF91FF90EF90DF90CF90AF
:10520000BF90AF909F908F9008950E94BC28089502
:1052100080E091E00E94BC280895B0E0A0E0809377
:10522000000190930101A0930201B093030108953E
:10523000FC014150504030F001900616D1F73197F3
:10524000CF010895882799270895F999FECF92BD37
:1052500081BDF89A992780B50895A6E1B0E044E0B1
:1052600050E00C945F29A8E1B0E042E050E00C94DB
:105270005F29262FF999FECF92BD81BDF89A01973B
:1052800000B4021639F01FBA20BD0FB6F894FA9A8E
:10529000F99A0FBE08950396272F0E943A290E947B
:1052A0003929252F0E943A29242F0C943A29019656
:1052B000272F0E943A290C943929DC01CB01FC01EB
:1052C000F999FECF06C0F2BDE1BDF89A319600B45F
:1052D0000D9241505040B8F70895052E97FB1EF4EB
:1052E00000940E94842957FD07D00E94632807FC80
:1052F00003D04EF40C948429509540953095219517
:105300003F4F4F4F5F4F08959095809570956195F1
:105310007F4F8F4F9F4F0895F894FFCFC107B80775
:10532000C407B60709080908B60709080908E0070D
:105330000908EB07F6070908090809080908B6076C
:1053400009080908B6070908D20709080908070863
:1053500007080708070807080708070807080708D5
:1053600001080908C107B40709080908090809085C
:1053700009080908090809080908090801080908AD
:105380000908B607090805080508050805080508FD
:1053900005080508050805080108730F7B0F820F33
:1053A000870F8C0F910F960F9B0FA00FA50FAA0FC1
:1053B000AF0FB30FB80FBB0FBE0FC10FC40FC60F97
:1053C000C90F2C162C163516351637163516351608
:1053D00035162C162C163C16351635163C167A1634
:1053E0007A16E016E0162D17AA16AA16AA1647175F
:1053F000D717E817E8174618AA16AA164F18DC267A
:105400000427ED270427ED2737275827ED27AF2757
:02541000BB27B8
:1054120001000000C4002A0000BE002A0000B800FB
:105422002B0000B200290000AC004C000001010278
:10543200001500151501191A1B1C1D1E1F20212203
:1054420001E6028121C0218421BC21B82101E200B0
:10545200E900EA00B500B600B700CD008301CC0038
:105462008A019201940121022302240225022602CA
:1054720027022A02B300B4006F00700081828334D5
:105482009392F535F697F49466C691900001020264
:1054920002020606060909090909090F0F0F0F0F73
:1054A2000F15151518191919191919191919192377
:1054B20024252525252525E200E900EA00B500B6C8
:1054C20000B700CD008301CC008A01920194012132
:1054D20002230224022502260227022A02B300B472
:0854E200006F0070008182835D
:00000001FF
