:100000000C94E9020C9430030C9430030C943003EC
:100010000C9430030C9430030C9430030C94300394
:100020000C9430030C9430030C94E9250C94BD26F9
:100030000C942D210C9430030C9430030C94300359
:100040000C9430030C9430030C9430030C94300364
:100050000C9430030C9484210C9430030C943003E2
:100060000C9430030C9430030C9430030C94300344
:100070000C9430030C9430030C9430030C94300334
:100080000C9430030C9430030C9430030C94300324
:100090000C9430030C9430030C9430030C94300314
:1000A0000C9430030C9430030C94300336003772F8
:1000B00000002D002E0000001A00080000001400AF
:1000C0001A000000160007000000270026000000AC
:1000D00012001300000014001A0008001500170099
:1000E0001C00180004431600070009000A000B005A
:1000F0000D001D621B000600190005001100100014
:10010000E000E200000000002C41000033000C0081
:100110001200130036003400000000000E000F0033
:10012000284237720000000000001E001F0020005F
:100130002100220023002400AE00AA00A900AC0088
:10014000AB0000002D000451000000000000000082
:1001500000000000E30000000000000001000000BB
:10016000010025002600270000000100000000001B
:100170002E002F00300031000000000000001E02A1
:100180001F02200221022202230224023A003B0025
:100190003C003D003E003F002D0240004100420077
:1001A0004300440045000000010001000000000081
:1001B00001000000010025022602270200000100C4
:1001C000000000002E022F02300231020000000069
:1001D00000000000000000000000000000004A00D5
:1001E00000000000000000000000000050000000BF
:1001F00000000000000000000000000000000000FF
:100200000000000000000000390052004D004B00CB
:10021000000000000000000051004F004E003100BF
:10022000000000000000005C000000000000000072
:10023000B20000000000000000000000000000000C
:1002400000000000000000000000000000000000AE
:10025000000000000000000000000000000000009E
:10026000000000000000000000000000000000008E
:10027000000000000000000000001E0F0500047FC9
:100280003F1F643214643214783C1E1E140A052287
:1002900023252628292A2C2D2F3032333536383A7B
:1002A0003B3D3E4042434547494A4C4E50515355D1
:1002B00057595A5C5E6062646668696B6D6F7173F2
:1002C0007577797B7D7F81838587898A8C8E9092F3
:1002D0009496989A9C9E9FA1A3A5A7A8AAACAEAFFE
:1002E000B1B3B4B6B8B9BBBCBEBFC1C2C3C5C6C743
:1002F000C9CACBCCCDCED0D1D2D2D3D4D5D6D7D7F4
:10030000D8D9D9DADADBDBDBDCDCDCDCDCDDDDDD3B
:10031000DDDCDCDCDCDCDBDBDBDADAD9D9D8D7D737
:10032000D6D5D4D3D2D2D1D0CECDCCCBCAC9C7C6E4
:10033000C5C3C2C1BFBEBCBBB9B8B6B4B3B1AFAE22
:10034000ACAAA8A7A5A3A19F9E9C9A9896949290C8
:100350008E8C8A89878583817F7D7B7977757371A0
:100360006F6D6B6968666462605E5C5A595755537D
:1003700051504E4C4A4947454342403E3D3B3A3836
:1003800036353332302F2D2C2A292826252322FFDB
:10039000AA7F554000010101010101010101020292
:1003A0000202020202020203030303030303030423
:1003B00004040404040405050505050606060606EE
:1003C000070707070708080808090909090A0A0AA8
:1003D0000B0B0B0C0C0C0D0D0D0E0E0E0F0F0F104A
:1003E00010111111121213131414151516161717D4
:1003F000181819191A1A1B1B1C1D1D1E1E1F202040
:10040000212222232424252626272829292A2B2C89
:100410002D2D2E2F30313232333435363738393AAC
:100420003B3C3D3E3F404142434445464748494AA4
:100430004C4D4E4F50515354555658595A5B5D5E72
:100440005F616264656668696B6C6D6F707273750D
:1004500077787A7B7D7E8082838587888A8C8E8F71
:1004600091939596989A9C9EA0A2A3A5A7A9ABAD9F
:10047000AFB1B3B5B7BABCBEC0C2C4C6C9CBCDCF8D
:10048000D1D4D6D8DBDDDFE2E4E7E9EBEEF0F3F53B
:10049000F8FAFDFF1A03710061007A0020006B007A
:1004A0006500790062006F00610072006400000066
:1004B000220377006800790064006F006200650025
:1004C0006100720073006500780070006C006F00BE
:1004D000640000000403090409023B00020100A0BB
:1004E000FA090400000103010100092111010001C2
:1004F0002240000705810308000A090401000103E6
:10050000000000092111010001226D00070582038E
:1005100020000A12011001000000083174010001DE
:10052000000102000105010980A101850319012ACA
:10053000B700150126B700950175108100C0050CA4
:100540000901A101850419012AA002150126A002B2
:10055000950175108100C005010906A101850505F9
:100560000719E029E71500250195087501810205A5
:1005700007190029EF1500250195F0750181020585
:1005800008190129059505750191029501750391D9
:1005900001C005010906A101050719E029E71500B9
:1005A00025019508750181029501750881010507EE
:1005B000190029FF150026FF009506750881000522
:1005C0000819012905950575019102950175039199
:1005D00001C011241FBECFEFDAE0DEBFCDBF04B6ED
:1005E00003FE27C08091980390919903A0919A03EC
:1005F000B0919B038730904BA740B04BD1F4109241
:1006000098031092990310929A0310929B0314BEC0
:1006100084B7877F84BF0FB6F894A8958091600057
:10062000886180936000109260000FBEE0E0F8E304
:10063000099511E0A0E0B1E0E6E8F4E502C005901C
:100640000D92A23EB107D9F723E0A2EEB1E001C0BE
:100650001D92A839B207E1F70E9425230C94DA29EC
:100660000C940000CF93DF939C013A9521153F41F4
:1006700068F5EC01CC27D170DC01AA27B270AC017F
:10068000442754709C012227387094FF11C080E1E8
:10069000CD2B09F480E0AB2B09F08062452B09F0EB
:1006A0008064232B09F08068FB01DF91CF910994CE
:1006B00081E0CD2B09F480E0AB2B09F08260452B63
:1006C00009F08460232B81F38860EECFDF91CF9116
:1006D0000895CF93DF93EC01805E9109089720F095
:1006E00062EB78E1209711F460E676E1CE010E949A
:1006F00032038C2FDF91CF910C946315CF93DF934E
:10070000EC010E94F215CE01805E9109089720F05D
:1007100069EB78E1209711F467E676E1CE01DF918D
:10072000CF910C94320381E0089581E008950C94F8
:10073000950308950C9499031F93CF93DF9300D0F2
:1007400000D00F92CDB7DEB749835A836B833091C7
:100750008D0289819A8131111DC06623B9F022234F
:10076000A9F00E94F81D182F682F89819A810E9494
:10077000A41D69817A81812F0F900F900F900F90A7
:100780000F90DF91CF911F910C946D040E94D01DAA
:10079000182FEFCF0E94F81D69817A81EDCFFC01FF
:1007A000262F408151816281738184810C949C0346
:1007B000CF93DF93EC0160E00E94CF03BE01DF9195
:1007C000CF910C949A030E9487060C94AC060E9469
:1007D000A6120C94AF0608950E94D2180E94EB0353
:1007E0002FEF84E39CE0215080409040E1F700C06F
:1007F00000000C94A8210F931F93CF93DF938C01DB
:1008000061E00E94CF03EC01B8010E9497038823A6
:1008100009F441C0B801CE010E94D2128823D9F157
:10082000B801CE010E94E7108823A9F1B801CE01DA
:100830000E943911882379F1B801CE010E945C121F
:10084000882349F1B801CE010E94820F882319F153
:10085000F8018281882361F0CB35FDE5DF0721F1C6
:1008600070F4C115ECE5DE07A1F0CF3DDC45C9F021
:10087000C801DF91CF911F910F910C949303CC3558
:100880008DE5D807A1F0CD35DD4591F70E949F1E7B
:10089000EFCF0E94EC0380E0DF91CF911F910F9189
:1008A00008950E941820F7CF0E94A81EE1CF0E9451
:1008B000AB1EDECF08950C945A0481E008950C9489
:1008C0005D04CF93C82F0E945B048C2FCF910C94B2
:1008D0005F0490E080E008950895972F70E027E08E
:1008E000929F600D711D1124FB019AE2899FE00D1A
:1008F000F11D1124EE0FFF1FEA52FF4F85919491D5
:100900000895FC01EE0FFF1FE658FD4F859194916D
:100910000895CF93DF930E946D040E949505EC012A
:10092000811520E5920708F041C0811530E4930756
:1009300008F0B4C0803E910518F5803C910508F0A0
:100940009DC0883A910570F4853A910508F08EC0F3
:1009500081309105F9F00097E9F00497D8F4D0E0E0
:10096000C0E018C08F3B9105D0F7C85AD0E0CC0F3B
:10097000DD1FC85BDE4F0990D881C02DD4640AC04A
:100980008115904258F4C11581E0D80718F4C83E8B
:10099000D10528F7CE01DF91CF910895C11590E3DD
:1009A000D90708F071C0CE019F706AC0811525E596
:1009B000920758F5811534E5930708F09EC081151C
:1009C00042E5940750F4C11581E5D80708F469C0E1
:1009D000DC2FCC27C16FD06ADDCF982F96959695E6
:1009E0009E0123703327C115D34508F077C0C1E0BD
:1009F000D0E002C0CC0FDD1F2A95E2F720E2929FE3
:100A0000C0011124C82BD92B67C0C11589E5D807AF
:100A1000A8F4C11598E5D90708F074C0C11526E5FA
:100A2000D20708F09CCF8C2F0E942C06C82FD0E054
:100A3000DC2FCC27CC27DF71D062ACCFC1153AE5D3
:100A4000D30708F464C0CE0190568115904208F097
:100A500086CF8D2F8F710E942C0690E0982F8827CB
:100A600088279F719C012C2BE901E6CFC55AD0E065
:100A7000CA58DE4FC881D0E0D0648CCF805C910929
:100A80000E948104EC0186CFCE019927D3FF03C0D9
:100A9000EC01D86C7FCFEC01D06C7CCFDF70D06ADA
:100AA00079CFCE01E4E096958795EA95E1F78370DA
:100AB0002C2F26952695237090E2299F90011124D2
:100AC000382B8C2F8370C1E0D0E002C0CC0FDD1F2B
:100AD0008A95E2F7C22BD32BDC685CCFC1E0D0E073
:100AE00002C0CC0FDD1F2A95E2F730E2939FC001D0
:100AF0001124C82BD92BDA684DCFD82FCC27C46F3F
:100B0000D06A48CFDC2FCC27C06FD06A43CF8C2F60
:100B10008F700E942C0634E0D695C7953A95E1F780
:100B2000CF709C2FEC01D06935CF82389105B1F19F
:100B3000B0F48133910509F475C048F48932910508
:100B400009F469C08A32910509F473C008958533A8
:100B5000910509F459C08933910501F10895833E47
:100B60009105A9F138F4803E9105F9F0823E910596
:100B700049F10895863E9105A9F1873E9105C9F195
:100B8000843E910519F52091360321FF1FC0809105
:100B9000350384FD14C087EE90E00895209135035D
:100BA0002370A1F080EE90E008952091350320FDA0
:100BB00047C03091360330FF09C024FF44C090E0A5
:100BC00080E004C02091350322FDF7CF08952091E5
:100BD000350322FD3BC03091360330FDE3CF24FFC7
:100BE000F5CFEDCF2091350323FFF0CF24FDE7CFE4
:100BF000D2CF2091350323FD2CC03091360331FF35
:100C0000EECF84EE90E008952091350325FFDECFEE
:100C100089E290E008952091350325FFD7CF85E341
:100C200090E008952091350326FFD0CF8AE290E02E
:100C300008952091350326FFC9CF81E390E0089500
:100C400089E390E0089583EE90E0089582EE90E0CD
:100C5000089586EE90E008959091350392FF06C0C6
:100C6000282F28712830F9F4877F846093FF06C00D
:100C7000282F28712831F1F4877E84612091360372
:100C800020FF06C0382F38713830D9F4877F816053
:100C900021FF06C0282F28712831D1F4877E816179
:100CA00094FD877E0895282F24712430F9F68B7FD8
:100CB0008860DCCF282F2471243101F78B7E886176
:100CC000DDCF382F3171313019F78E7F8860E0CF5A
:100CD000282F2171213121F78E7E8861E1CF0C947C
:100CE0006D1F0E940A078FE39CE90197F1F700C08E
:100CF00000000E940A0780E00E94B10680FF04C045
:100D00000E946F060C94A82108950C9471060E940D
:100D1000731F811102C00E9418200E947E1F8093C1
:100D200011030E94861F90933603809335030E941F
:100D300085060E94821F682F70E090E080E00E948C
:100D4000A61C6091E4027091E5028091E602909108
:100D5000E7020C94E01C08950C94AB0608950C94E3
:100D6000AE06E82FF0E0E35CFC4F80810895089523
:100D700080EA8A95F1F7089500C008950C94B806AA
:100D8000F894E82FE295EF70F0E031A1282F2F7052
:100D900081E090E001C0880F2A95EAF7982F90959E
:100DA000932391A392A1892B82A3789408950F9302
:100DB0001F93CF93DF9384EF0E94C00684E90E94C3
:100DC000C00686E60E94C00686EC0E94C00681E945
:100DD0000E94C00680E90E94C006C9E7D1E000E891
:100DE00011E089910E94C0060C171D07D1F7E7E3B7
:100DF000F3E0ADE3B3E011921D9283E0ED33F80729
:100E0000D1F786E00E948107DF91CF911F910F916A
:100E10000C94E303CF92DF92EF92FF920F931F9314
:100E2000CF93DF93C0E8D1E007E313E0D12CEE24A9
:100E3000E394F12C8991F894E82FE295EF70F0E0BB
:100E400021A18F70A70102C0440F551F8A95E2F7B8
:100E5000CA01922F982B91A392A18095892382A3F6
:100E600078940E94BC06E9E7F1E030E020E0C12C74
:100E70004191A42FA295AF70B0E090968C9190E034
:100E80004F7002C0959587954A95E2F780FD35C071
:100E90008E2D022E01C0880F0A94EAF7C82A2F5F10
:100EA0003F4F2730310521F7FE01319780810E94A5
:100EB000C0060E94BE06F8018081C81601F1C082FA
:100EC00081E0D82A0F5F1F4FF1E0C638DF0709F035
:100ED000B1CF2D2D46E06DE373E087E393E00E94F0
:100EE00082070E94E7038D2DDF91CF911F910F9113
:100EF000FF90EF90DF90CF90089580E0CFCF80E01B
:100F0000E0CF0895FF920F931F93CF93DF93F82EB6
:100F1000092F162FD72FC42F222349F081E0809369
:100F2000E6010E945D219093E5018093E4018091A8
:100F3000E6018823A1F08091E4019091E5010E94EF
:100F40007521069760F0EF2DF02FA12FBD2FCE0F4A
:100F5000DF2FD11DEC17FD0741F41092E601DF9160
:100F6000CF911F910F91FF90089581918D93F2CFB2
:100F70000F931F9341E050E060E070E08A019B0115
:100F800004C0000F111F221F331F8A95D2F7C90119
:100F9000B8010E94A61C1F910F910C94D218EBEF80
:100FA000E80FEF3308F05AC0F0E0E452F64D0C942D
:100FB000D3280E94182081E0089580911103807F3A
:100FC0008093110381E08093E70108950E94EC0370
:100FD000F2CF90911103892F8E7F90FF81608093D3
:100FE000110380FDE8CF817F80931103E4CF9091BE
:100FF0001103892F8D7F91FF82608093110381FF00
:10100000DACF809111038160EFCF90911103892F86
:101010008B7F92FF84608093110382FDF2CFCBCF50
:1010200090911103892F877F93FF8860809311032C
:1010300083FDE7CFC0CF0E94D21890913503892F4E
:1010400097FB87F9805880933503B5CF80E00E94E5
:10105000B807B1CF8953FBCF8D51F9CF80E0089508
:1010600080E008950C943008CF93C82F8091E70159
:10107000882331F0813099F01092E70180E00DC0B3
:101080000E94AE1E8232D1F78C2F0E94300881114F
:1010900016C08C2F0E94CF078170CF9108950E94B7
:1010A000AE1E823289F38C2F0E943208811105C056
:1010B000C43171F038F4CB3079F781E0EDCF81E0C5
:1010C00090E0EACFC93221F0C833B9F380E0E4CF31
:1010D0001092E701FBCFEF92FF920F931F93CF93F4
:1010E000DF93EB01E82FD11110C0442321F0F0E091
:1010F000EC56FC4FE4916E2F7E2F8E2FDF91CF9117
:101100001F910F91FF90EF9008950D2F10E0282F61
:1011100030E0442329F02C563C4FF901249130E073
:10112000F6E0CF9FC0011124EFEFF0E0BF010E9475
:101130008928AB018C2F90E0880F991FA5E5A49F0B
:10114000B001A59F700D1124861B970B982F990F46
:10115000980FBF01601B710B629FD001639FB00DA0
:10116000729FB00D11248B2F9D9FB0011124672F0A
:101170007727EF01C61BD70BBE01629FE001639F7B
:10118000D00D729FD00D11247F01E91AF108E09E65
:10119000B001E19E700DF09E700D1124672F77272E
:1011A000E61BF70BE29F8001E39F100DF29F100DED
:1011B0001124E12F722F4230510599F048F4411566
:1011C000510569F04130510581F0EB2F8D2F07C09B
:1011D0004430510569F080F046305105B1F76E2F6B
:1011E0008DCFE22F7B2F812FFACFE22F7D2FF7CFEC
:1011F000EB2F822F712FF3CF7B2F822FED2FEFCF8D
:1012000041E00C946B0808950C940009CF93DF9390
:10121000762FE901682F842F0E940409798368835F
:101220008A83DF91CF91089580914303982F9E7F09
:1012300029F4817082608093430308958635E8F332
:1012400081708465F8CF88E090E00C947B29CF9280
:10125000DF92EF92FF926B017C010E941409B701AB
:10126000A60188E090E0FF90EF90DF90CF900C9483
:101270009929E3E4F3E083E0808311828FEF828396
:101280008383148260817181828193810C94270908
:101290008091430380FF02C08695089580E0089501
:1012A00090914703933018F49F5F909347038823EE
:1012B00051F06091430370914403809145039091F4
:1012C00046030C942709089581E00C9450099091ED
:1012D0004703992319F0915090934703882351F0C5
:1012E00060914303709144038091450390914603BC
:1012F0000C942709089581E00C94670970E00C9420
:101300004F1060912B018091430380FF0AC08091B0
:101310002A0123E0829FC0011124885B9C4F0C941A
:101320007E0980912C0190912D0123E0829FF00194
:101330001124E85BFC4F891750F71182108212824A
:101340008F5F3396F8CF9091430390FF14C0909134
:101350002C0120912D0133E0939FF0011124E85BD3
:10136000FC4F921710F00C948109818360834283B3
:101370009F5F3396F6CF0895CF93DF9300D00F92FF
:10138000CDB7DEB79091430390FF0AC09E012F5F57
:101390003F4F0E9406094B8169818A810E94A309FF
:1013A0000F900F900F90DF91CF910895CF93DF931F
:1013B000EC01EC81F0E0E157FD4F4491E3E4F3E010
:1013C000628181810E94BC098C818F5F8C83DF9157
:1013D000CF910895CF93DF93EC01E3E4F3E04381F1
:1013E00062818C810E94BC098C818F5F8C83DF912C
:1013F000CF9108950F931F93CF93DF9300D00F9257
:10140000CDB7DEB78C018091E80181110AC09E0141
:101410002F5F3F4F4FEF6FEF0E9406098A81809345
:10142000E801F8016481613069F08091E80140E0F1
:10143000662361F040E0623011F44091E80180E001
:1014400060E004C06091E80140E080E00E94A309F0
:10145000F801848190E0019663E070E00E949D288D
:1014600084830F900F900F90DF91CF911F910F9178
:101470000895AF92BF92CF92DF92EF92FF920F93B7
:101480001F93CF93DF9300D00F92CDB7DEB7182F05
:10149000F62E042FE22E9091430390FF29C0E92FEE
:1014A000E695AE2FB0E0AA57BE4F8C9180935B02B9
:1014B0009E7F923059F59E012F5F3F4F812F0E94F2
:1014C00006094B8169818A810E94A3091093440314
:1014D000F092450300934603EE2051F060914303E0
:1014E0007091440380914503909146030E9427091F
:1014F0000F900F900F90DF91CF911F910F91FF9060
:10150000EF90DF90CF90BF90AF900895823019F4A4
:1015100000914603DBCF863019F410914403D6CFF7
:101520008930D9F3893191F6E9518E2F8170D82E07
:10153000E695F0E0E157FC4FA590B490C12CBB2498
:1015400060912E01C61618F00E948109BFCF2C2D84
:1015500030E0A29EC001A39E900DB29E900D11247A
:1015600070E00E948928812FD11013C0860F40910E
:101570002C01420F532F511D9A01220F331F240FAC
:10158000351F285B3C4F402F6F2D0E940609C394E6
:10159000D7CF861BECCFE3E4F3E09181282F438182
:1015A000628188E0890F0C94390A81E00C94CB0A9F
:1015B000E3E4F3E09181282F4381628188EF890F72
:1015C0000C94390A81E00C94D80AE3E4F3E06281D8
:1015D00028E0620F08F46FEF282F438181810C947B
:1015E000390A81E00C94E50AE3E4F3E0628128E043
:1015F000621B08F460E0282F438181810C94390A32
:1016000081E00C94F40AE3E4F3E0438128E0420F24
:1016100008F44FEF282F628181810C94390A81E010
:101620000C94030BE3E4F3E0438128E0421B08F44D
:1016300040E0282F628181810C94390A81E00C946A
:10164000120B20E00C94390AEF92FF921F93CF9374
:10165000DF93EC0110E0EE24EA94F12C60912E016E
:10166000161770F00E9481099A818C8190FF27C023
:101670008F5F8C83DF91CF911F91FF90EF90089542
:1016800020912C01422F410F5527551FCA019A0165
:10169000220F331F280F391F285B3C4F70E0C70112
:1016A0000E949D28962F8C814091460360914503AE
:1016B000199F800D11240E9406091F5FCFCF815012
:1016C000D8CFAF92BF92CF92DF92EF92FF920F935B
:1016D0001F93CF93DF93FC0182810FEF80FF01E026
:1016E00010E045E1A42E80912E011817C8F00E9449
:1016F00081098091EA01013009F055C0811102C0D1
:1017000080912E0181508093EA01DF91CF911F914A
:101710000F91FF90EF90DF90CF90BF90AF90089522
:10172000C0912C01C12ED12CCC0DDD2DD11DCE01AF
:10173000880F991FC80FD91FC85BDC4F1982188208
:101740001A8234E0E32EF12CB12C8091EA018B0D4A
:1017500086311CF16A2D0E947B28892F082E000CEF
:10176000990BC816D90691F4809146038E9DA0016D
:101770008F9D500D112455954795559547959E0180
:1017800060914503809144030E940609B00EF1E088
:10179000EF1AF108D1F61F5FA6CF87FFDFCF909138
:1017A0002E01890FDBCF90E0019660912E0170E051
:1017B0000E949D28A8CF0F931F93CF93DF93809112
:1017C0002C0190912D0123E0829FF0011124E85B10
:1017D000FC4F891740F1C0E0D3E060912E01C6179D
:1017E00040F10E948109209128018091E901820F36
:1017F0008093E90190912901920F90932901191684
:1018000054F4082E000C990B40912E014150550BB9
:10181000841795071CF0219520932801DF91CF9123
:101820001F910F9108951182108212828F5F33965B
:10183000D0CF0C2F10E070E0C8010E949D282091AD
:101840002C01820F482F50E02091E901022E000C5C
:10185000330B02171307BCF020912901022E000C54
:10186000330B201731077CF08D9F90011124285BEA
:101870003C4F4091460360914503809144030E9490
:101880000609CF5FAACFFA01EE0FFF1FE40FF51F85
:10189000E85BFC4F118210821282F3CF8F929F92ED
:1018A000AF92BF92CF92DF92EF92FF920F931F936E
:1018B000CF93DF93EC014C81042F10E09801D80105
:1018C0000E94E1289B01AC010E94F7284B015C01BA
:1018D000E0E2F0E0E01BF10BA5E5B0E0AC019B011C
:1018E0000E94F7286B017C019F01DF010E94D9282B
:1018F0009B01AC010E9402299B01AC01280D391DFE
:101900004A1D5B1DC701B6010E94B128F22E822F2D
:1019100090E039E23F1560F143E0249F90011124EB
:1019200035952795122F109500E085E5E82EEF18E4
:1019300080912E01081758F10E9481099C8181E055
:10194000992319F0903219F48FEF80932701809139
:101950002701890F8C83DF91CF911F910F91FF9009
:10196000EF90DF90CF90BF90AF909F908F900895B1
:1019700025E530E0B901681B790B9B01220F331F6D
:10198000260F371F37FFCCCF2F5F3F4FC9CF8E2D8C
:1019900001FD8F2D20912C01622F600F7727771F7B
:1019A0009B01220F331F260F371F285B3C4F412F0F
:1019B000609145030E9406090F5FBACF0F931F93F2
:1019C000CF93DF93EC0110E000E090912E0190178F
:1019D000110609F06CF40E9481098C8190E0019657
:1019E000817099278C83DF91CF911F910F9108957A
:1019F00020912C01A801420F511D9A01220F331F83
:101A0000240F351F285B3C4F4C816091450380912A
:101A1000440396959017110651F04CF0442349F079
:101A2000409146030E9406090F5F1F4FCECF44230B
:101A3000B9F340E0F7CF4F925F926F927F928F920F
:101A40009F92AF92BF92CF92DF92EF92FF920F934D
:101A50001F93CF93DF93FC016280448081E08483F5
:101A6000EFE8F2E07490EEE0F3E0E491812C75E0B1
:101A7000972EF2E0CF2EDD24D394AA24AA94B12C81
:101A800055245A94E7190E2F10E080912E018816E4
:101A900090F0DF91CF911F910F91FF90EF90DF9029
:101AA000CF90BF90AF909F908F907F906F905F90FE
:101AB0004F900C948109E82CF12C82E0861568F097
:101AC0009E9CF0019F9CF00D1124E551FE4F8091EA
:101AD00044038083809145038183411023C09E9CF1
:101AE000F0019F9CF00D1124E551FE4F13821282EC
:101AF00020912C01C701820F911D9C01220F331FE1
:101B0000280F391F285B3C4F9E9CF0019F9CF00DD5
:101B10001124E551FE4F4281618180810E940609B6
:101B20008394B3CF9E9CE0019F9CD00D1124C5519E
:101B3000DE4F8B818823E9F081508B83859DC00126
:101B400011246C8170E00E948928FB01FF27E15776
:101B5000FD4F8491E82FE719E59DC0011124B801DC
:101B60000E94892880914603689FB00111247A83DE
:101B7000BFCF0E94562920914603269521582C9DBF
:101B8000A0012D9D500D1124452F55278417950731
:101B90000CF0AECF82E0861588F40E945629B5017C
:101BA0000E949D2888830E945629209145032695EE
:101BB000622F70E00E949D28280F29839E9CF001CF
:101BC0009F9CF00D1124E551FE4F12828091460337
:101BD000893C58F088EC9E9CF0019F9CF00D1124EC
:101BE000E551FE4F8483838383CF8431A0F784E162
:101BF000F2CFE3E4F3E080818E7F808360817181A6
:101C0000828193810E94270910925C022FEF80E766
:101C100092E0215080409040E1F700C000000C9419
:101C2000810960914303669570E04BE050E08FE2DC
:101C300091E00E946629892B19F481E080935C026F
:101C40000E945D21909355028093540208959091D3
:101C5000430390FF35C09170811128C0926090932A
:101C60004303662351F060914303709144038091D4
:101C70004503909146030E942709609143036695AE
:101C800070E04BE050E08FE291E00E946629892BE2
:101C9000A1F010925C0281E08093570240914603CC
:101CA00060914503809144030C94210B8B3210F01A
:101CB0009465D5CF880F982BD2CF0E94110EEBCF11
:101CC0000895682F90914303969581E0890F8B3298
:101CD00008F081E00C94270E81E00C94610E682FCF
:101CE0009091430396958FEF890F09F48AE20C9443
:101CF000270E81E00C946F0E61E00C94270EE3E454
:101D0000F3E080818160808386950C947C0E8091C5
:101D1000430380FD0C94F90D0C947F0E60E00C944D
:101D2000270E80915A0281112EC00E94731F8111CB
:101D300004C00E9418200E9439090E942309609360
:101D400043037093440380934503909346036E7F4F
:101D500061F40E9439090E94230960934303709340
:101D6000440380934503909346030E941409109204
:101D70005C028091430380FF03C086950E948E0E13
:101D800081E080935A0208950F931F93CF93DF93BE
:101D900080915C02882309F496C080915B02E091F7
:101DA0004303E695E81BE0935602823091F5F0E09C
:101DB000E557FD4FE491CE2FD0E006ED19E080917C
:101DC0005702882361F0109257020E945D21909380
:101DD00055028093540210925902109258020E94A8
:101DE0005D21E0915402F09155028E1B9F0B8F3FB5
:101DF0009F4708F068C0EC0FFD1FF0935502E09379
:101E0000540284E592E0F801DF91CF911F910F9188
:101E10000994863049F4F0E0E857FD4FE491CE2F65
:101E2000D0E00AEE19E0CBCF893051F4E695F0E02E
:101E3000EB57FD4FE491CE2FD0E004E21BE0BFCF83
:101E40008F3051F4E695F0E0EE57FD4FE491CE2F40
:101E5000D0E001E61BE0B3CF853149F4F0E0E15872
:101E6000FD4FE491CE2FD0E00BED1BE0A8CFC8E2F0
:101E7000D0E00EE41CE0883109F4A1CF833239F4BC
:101E8000EDE7F2E0C591D4910AEF19E098CFC4EFE5
:101E9000D1E00EED1CE0843209F491CFC0EDD7E023
:101EA00003E019E0853209F08ACF8E2F63E00E94AB
:101EB0006F28E92FF0E0E658FD4FE491CE2FD0E0F7
:101EC0000BE11DE07CCFDF91CF911F910F91089521
:101ED000FA01811101C0FB010994CF93DF93C82F50
:101EE000D62F0E9448098C1740F00E9448098D1790
:101EF00020F4DF91CF910C946C0E8C2FDF91CF9159
:101F00000C947C0E1F93CF93DF93EC01FB011281A5
:101F1000112309F4C2C00E94AE1E8272CD3CFCE5C2
:101F2000DF0709F4A0C008F044C0C73CECE5DE07B9
:101F300009F485C0F0F4C43C9CE5D90709F475C0E8
:101F400048F4C33CDC4509F46CC0812FDF91CF918C
:101F50001F910895C53C9CE5D90709F46BC042EE7A
:101F60005AE065ED7AE0C63CDC4579F70E94680FDF
:101F70005AC0CA3CFCE5DF0709F46BC068F4C83CF2
:101F8000ECE5DE0709F460C041EF5AE060E07BE079
:101F9000C93CDC4559F3D9CFCB3C9CE5D90709F4C2
:101FA0005DC04BE759E064E679E0CC3CDC45F1F2FA
:101FB000CCCFC23DFCE5DF0709F464C098F4CF3C08
:101FC0009CE5D90709F458C008F452C0C03DFCE5AF
:101FD000DF0709F454C0C13DDC4509F0B6CF6EE01F
:101FE00089E01CC0C53D9CE5D90709F451C058F4EF
:101FF000C33DFCE5DF0709F448C0C43DDC4509F0FA
:10200000A4CF88E136C0C63D9CE5D90709F443C09A
:102010006AE285E2CE35DD4509F097CF0E946D0F6B
:1020200002C00E94870E10E090CF49E75EE06CE6A8
:102030007EE09CCF4CE65EE069E77EE097CF45ED21
:102040005AE062EE7AE092CF40E05BE061EF7AE046
:102050008DCF4EE15BE06FE07BE088CF4FE05BE04F
:102060006EE17BE083CF44E659E06BE779E07ECF19
:1020700081E00E947C0ED7CF65E082E0CFCF68E0A0
:1020800086E0CCCF64E18FE0C9CF67E185E1C6CFC0
:1020900062E289E1C3CF83E2ECCF11E056CF879AA9
:1020A00041B34F7751B35068EFB7F8949B01220FBB
:1020B000331F260F371F280F391F2817390741F400
:1020C000EFBF8FE594E00197F1F700C0000008959D
:1020D000DC016D91CD0178E051BB000000C067FFCD
:1020E00041BB660F000000C000C000C041BB00C083
:1020F0007A9591F7E2CF0F931F93CF93DF93C42F7D
:10210000D22FFC0182818823C9F040935F020E9494
:102110005D2190935E0280935D0280E28C0F883097
:1021200008F050C0C77081E001C0880FCA95EAF777
:10213000DF91CF911F910F910C94601610915F0267
:10214000141335C080915D0290915E020E9475214A
:102150008F3A910560F5C0E2CD0F1D17B9F080E20E
:10216000810F883040F4177081E001C0880F1A9504
:10217000EAF70E946716C83048F481E09D2F9770F7
:1021800001C0880F9A95EAF70E946016802F0E947E
:102190005816C830B8F4D77081E001C0880FDA95BE
:1021A000EAF7DF91CF911F910F910C94671680E2AF
:1021B0008C0F883038F4C77081E001C0880FCA9551
:1021C000EAF7EFCFDF91CF911F910F9108950F9311
:1021D0009C01CB01243F4CE5340759F1A8F4293D7B
:1021E000FCE53F0701F12A3D4CE53407D1F1283DDC
:1021F0003C4591F406E221EE41EE68ED7CE50E945B
:102200007B1080E00F910895263FFCE53F07E9F041
:10221000B0F0273F3C45F9F0FC018281882339F179
:1022200010925F02EFCF07E225EE45EE69ED7CE507
:10223000E6CF06E221EE40EE64EF7CE5E0CF07E278
:1022400025EE44EE65EF7CE5DACF06E221EE42EEC4
:1022500066EF7CE5D4CF07E225EE46EE67EF7CE53E
:10226000CECF08E221E045EE6AED7CE5C8CF81E003
:10227000C9CFCF93DF93EC01FB018281882309F45E
:1022800019C1C230FCE5DF07C0F1C6319CE5D907B2
:1022900030F09E012B5F3C452930310570F50E94DE
:1022A000861F9093360380933503C031ECE5DE073B
:1022B00009F4CFC008F05BC0C8308CE5D80709F43A
:1022C000B6C088F5C430ECE5DE0709F4A8C0C0F458
:1022D000C2308CE5D80709F49CC080913503826038
:1022E000C330DC4509F498C08091350390913603E2
:1022F0000E94941F0E94D21880E0DF91CF91089530
:10230000809135038061C630ECE5DE0709F484C0B6
:10231000809135038860C730DC4508F47DC080912A
:102320003503806279C0CC308CE5D80709F489C0C8
:1023300070F4809135038C60CA30ECE5DE0709F457
:102340006BC008F478C0809135038E7F65C0CE30B5
:102350008CE5D80709F479C0809135038B7FCF30A5
:10236000DC4508F459C0809135038F7E55C0CC3FC1
:10237000ECE5DE0709F457C030F5C3318CE5D8072A
:1023800009F46FC078F4C131ECE5DE0709F465C0EB
:10239000C231DC4509F0A8CF0E94D21880913503E4
:1023A0008F773AC0C5318CE5D80709F462C008F4CC
:1023B00076C0809136038160CB3FDC4509F094CF35
:1023C0008093360391CFC115FDE5DF0709F44DC0B9
:1023D00088F4809136038D7FCE3F9CE5D90781F349
:1023E000809136038E7FCF3FDC4550F380913603DA
:1023F0008360E6CFC230FDE5DF0709F459C008F479
:1024000044C080E0C330DD4509F06ECF0E941A2041
:102410006BCF8091350381608093350365CF8091C8
:1024200035038460F9CF809136038260C9CF8091F3
:1024300035038064F1CF0E94D21880913503806803
:10244000EBCF809135038D7FE7CF80913503877F78
:10245000E3CF809135038F7DDFCF809135038F7B74
:10246000DBCF80913503837FD7CF809136038C7F7C
:10247000A7CF8091350382FB992790F921E092271D
:1024800090FB82F990FB83F9C7CF80913603982F98
:10249000909591708E7F892B90FB81F991CF0E944E
:1024A000D21890913503892F97FB87F98058B4CFC4
:1024B00081E0ACCF81E021CFCF93DF93EB01863178
:1024C0009C4511F50E94AE1E9A81992399F08A7A53
:1024D00091E009F490E090936002811109C089E2D3
:1024E0000E94681E0E94FE1E80E0DF91CF91089539
:1024F00085E3F6CF80916002811104C089E20E94D9
:102500006F1EF0CF85E3FBCF81E0EFCFCF939091AB
:102510007102992321F0811116C010927102CF919E
:102520000895EC2FF0E0EE0FFF1FEF59FD4F808173
:1025300091810E9469030E94FE1ECF5F809171020B
:10254000C81778F3EACFC0E0F9CF089580913A0137
:10255000882399F080917202882379F08091760225
:1025600090917702009749F00E9475214A9728F0D0
:102570001092720281E00C948612089510927202F9
:1025800010923A01109277021092760281E00C9438
:10259000861280913A0181110C94BE1281E08093E1
:1025A0003A0108955F926F927F928F929F92AF92BD
:1025B000BF92CF92DF92EF92FF920F931F93CF9330
:1025C000DF937C016B0110927302883F4CE5940706
:1025D000C1F4FB01C281CC2349F181E080933A012F
:1025E0008C2FDF91CF911F910F91FF90EF90DF9093
:1025F000CF90BF90AF909F908F907F906F905F90A3
:102600000895893FFCE59F0739F4FB01C281CC2383
:1026100069F00E94BE12E4CF8A3F9C4539F4FB0169
:10262000C281CC2319F00E94C912DACFD0913A01AD
:10263000C1E0DD23A9F21092750210927402C0E08D
:1026400055E0752E88248394912C66246394009120
:102650007402109175020730110588F080917302A1
:10266000882309F497C00E945D219093770280939C
:10267000760280E00E94861281E0C827B1CF709E6A
:10268000F001719EF00D1124EC5FFE4F808191816D
:102690003FEF20E0E22FF0E0EE0FFF1FE80FF91F01
:1026A00045915491E416F50609F4322F452B11F0AB
:1026B0002F5FF0CF3F3FD1F4512CC529DD2351F0DE
:1026C000709EF001719EF00D1124EC5FFE4FD1E081
:1026D00084818111D0E0D170809174029091750253
:1026E00001969093750280937402B1CF509072025C
:1026F000F6019281709EF001719EF00D1124EC5F45
:10270000FE4F8481540101C0AA0C3A95EAF799233F
:10271000E1F0A82AA482552079F2C40102C0880FF2
:10272000991F2A95E2F70197A816190631F68281BA
:102730009381009729F00E94690360927302BDCFD4
:1027400061E0C8010E94A512F8CFA40102C0440FA5
:10275000551F2A95E2F79A01215031098217130675
:10276000B9F482819381009771F00E947E03709E7C
:10277000F001719EF00D1124EC5FFE4FA094848156
:10278000A822A4829ACF60E0C8010E94A512EFCFD0
:10279000512CEDCFC1110EC081E00E948612DD23C5
:1027A00009F46ACF109277021092760281E080934A
:1027B000720262CFF6018281882309F45DCF809195
:1027C0007202882309F458CF0E945D21909377020A
:1027D00080937602E0917102E83008F04DCF81E0FD
:1027E0008E0F80937102F0E0EE0FFF1FEF59FD4F47
:1027F000F182E08241CF90937D0280937C02089524
:10280000E0917C02F0917D02309721F00190F081FF
:10281000E02D099480E00895E0917C02F0917D0222
:10282000309799F020914701222359F020913503E8
:1028300027FF07C0DC012C9111962C93119725E0FE
:102840002C930280F381E02D0994089520917A025F
:1028500030917B022817390771F090937B028093A7
:102860007A02E0917C02F0917D02309721F006809F
:10287000F781E02D09940895209178023091790232
:102880002817390771F09093790280937802E091CC
:102890007C02F0917D02309721F00084F185E02DDB
:1028A000099408950E9469216093890270938A02B5
:1028B00080938B0290938C026093850270938602C2
:1028C0008093870290938802089585B7806885BFBA
:1028D00085B7806885BF0895089508950C946C1499
:1028E00008950C9470140E9465148BE69FE10E9479
:1028F000CC210E946D140C946E1481E008950C9408
:102900007D14089508950E9481140C9482140E94ED
:1029100054210E94D7060E94910E0C947114AF921C
:10292000BF92CF92DF92EF92FF920F931F93CF93BC
:10293000DF93CDB7DEB72A970FB6F894DEBF0FBE90
:10294000CDBF0E940A0781110E9452148FE7A82E62
:1029500082E0B82E10E000E0C02E802F0E94B10669
:10296000E82EF501F1905F01F81609F44DC0809151
:10297000110381FD0E94B7068F2D8E25D12CFF24D7
:10298000F394982F9F21D9F10E947F14882399F006
:10299000DE82CF82EF2081E009F480E088870E9408
:1029A0005D218160782F9A8789874E815F81688554
:1029B0008A850E942C15F801E158FD4F8081F82688
:1029C000F0820E94C40E0E94001490917E0289172A
:1029D00091F10E94001480937E022A960FB6F8941B
:1029E000DEBF0FBECDBFDF91CF911F910F91FF9042
:1029F000EF90DF90CF90BF90AF900C946104D39490
:102A0000FF0CF7E0DF12BDCF0F5F1F4F063011053F
:102A100009F0A2CF8FEF89838A831B820E945D21F8
:102A20008160782F9D838C8349815A816B818D8150
:102A30000E942C15C6CF2A960FB6F894DEBF0FBEA3
:102A4000CDBFDF91CF911F910F91FF90EF90DF905D
:102A5000CF90BF90AF900895DF92EF92FF920F93C7
:102A60001F93CF93DF93CDB7DEB72B970FB6F894B4
:102A7000DEBF0FBECDBF7A878B87F42E052F162FB2
:102A8000E72ED82E61110E94CE1E1E821D827E2D41
:102A9000EC82DD824F2D502F612F8D2D9E812B9644
:102AA0000FB6F894DEBF0FBECDBFDF91CF911F915F
:102AB0000F91FF90EF90DF900C94841BFC018081BC
:102AC00091810C943A1ECF93C82F882309F488C0B3
:102AD0008238C1F40E94001481FD82C089E30E9403
:102AE000681E0E94FE1E2FEF81EE94E02150804070
:102AF0009040E1F700C0000089E30E946F1ECF9173
:102B00000C94FE1E8338A1F40E94001480FD68C05E
:102B100083E50E94681E0E94FE1E2FEF81EE94E066
:102B2000215080409040E1F700C0000083E5E5CFF0
:102B30008438A1F40E94001482FD52C087E40E94F0
:102B4000681E0E94FE1E2FEF81EE94E0215080400F
:102B50009040E1F700C0000087E4CFCF8CEF8C0FEE
:102B6000813AB8F48C2F0E943408811139C06C2F3F
:102B700080913B0190913C010E943320882329F0F1
:102B80008C2F0E946F1E0E94FE1E8C2F0E94681EBA
:102B9000B6CF80E28C0F883048F4C77081E001C066
:102BA000880FCA95EAF70E94B11EA9CFEBE5EC0F9A
:102BB000E33040F4F0E0E152FE4F808190E0CF91AD
:102BC0000C942614C85AC73158F4EC2FF0E0EE0FDD
:102BD000FF1FEF54FE4F80819181CF910C943C14E4
:102BE000CF910895882309F44BC0823871F40E9474
:102BF000001481FF45C089E30E94681E0E94FE1EEA
:102C000089E30E946F1E0C94FE1E833859F40E94C3
:102C1000001480FF35C083E50E94681E0E94FE1EDE
:102C200083E5EFCF843859F40E94001482FF28C056
:102C300087E40E94681E0E94FE1E87E4E2CF9CEF9C
:102C4000980F913AF0F290E2980F983050F4877014
:102C500091E001C0990F8A95EAF7892F0E94B71E6B
:102C6000D2CF9BE5980F933020F490E080E00C9455
:102C70002614885A873120F490E080E00C943C14AC
:102C800008951F93CF93DF93182FEB010E946315D4
:102C9000209731F4812FDF91CF911F910C94F21581
:102CA0008FE99FE00197F1F700C000002197F0CF76
:102CB00070E060E0893311F460E570E00C94411637
:102CC000882321F00E94B11E0C94FE1E08958823D3
:102CD00021F00E94B71E0C94FE1E0895BF92CF9261
:102CE000DF92EF92FF920F931F93CF93DF937C01BC
:102CF000D62FC72FFC011281058102950F700E940B
:102D0000861ED82E8823A1F0D12E112389F08C2F76
:102D1000807F803429F080E28D0FD12C883040F004
:102D200082E00E944F1F0E94861E91E0D82ED92675
:102D3000CC2EC2949FE0C922EC2DF0E0E55EF54D6B
:102D40000C94D3280C2F0F70C07F11F00295007FD8
:102D50001123A9F0002359F080E28D0F883010F084
:102D6000D11109C0802F0E94B11E0E94FE1E8D2F1E
:102D70000E94631514C0802F0E94C11EF6CF8D2FB4
:102D80000E94F215002359F080E28D0F883010F078
:102D9000D1112CC0802F0E94B71E0E94FE1E2C2D28
:102DA0002850330B2430310520F40E9400140E9477
:102DB0006104DD2009F48DC10E94821E80FD89C15D
:102DC000F70112820E947C1E0E94081DC7010E940A
:102DD0008A180E947C1EDF91CF911F910F91FF9066
:102DE000EF90DF90CF90BF900C94291D802F0E9410
:102DF000C71ED3CFFC2FFF70BF2EC07FC03219F08B
:102E0000B29480EFB822DD2339F0D13019F11123CB
:102E100061F1002321F1ABCF112381F0011106C034
:102E20000E94E11E8B290E946016B9CF0130C1F7C4
:102E30000E94E11E8B290E94E71EB1CF011106C03E
:102E40000E94F41E8B2D0E946716A9CF013009F451
:102E5000A6CFF6CF112329F0063008F0A0CF8B2D96
:102E6000E2CF053008F09BCFEDCF002359F3D933E3
:102E700049F42FEF37EE83E0215030408040E1F7F6
:102E800000C000008D2F0E94F21589CF8C2F8695EF
:102E90008695837069F0813009F081CF8D2F9C2F4A
:102EA0009370111102C090E080E00E943C1477CF33
:102EB0008D2F9C2F9370111102C090E080E00E9432
:102EC00026146DCF8C2F837009F041C0111167CF8C
:102ED0004D2F429546954770440F440F0D2F0F70AC
:102EE00010E030E020E0042E04C0000F111F221F6C
:102EF000331F0A94D2F760E070E0CB01D4FF0FC01B
:102F00006FE070E080E090E004C0660F771F881FDC
:102F1000991F4A95D2F76095709580959095C695C2
:102F2000C695C370602B712B822B932BC23049F056
:102F300058F4C13019F00E94BA1C31CF0E94A81C6D
:102F40002ECF0E94CC1C2BCF0E94A61C28CF86958A
:102F5000112311F08C2F8170882309F420CF4D2F7D
:102F6000429546954770440F440F0D2F0F7010E0A7
:102F700030E020E0042E04C0000F111F221F331F79
:102F80000A94D2F760E070E0CB01D4FF0FC06FE08D
:102F900070E080E090E004C0660F771F881F991FE3
:102FA0004A95D2F76095709580959095C695C6958F
:102FB000C370602B712B822B932BC23049F058F4D5
:102FC000C13019F00E947F1DEACE0E946D1DE7CE30
:102FD0000E94911DE4CE0E94E21CE1CECF7011232D
:102FE00029F08C2F0E94081D8D2F1DCF8D2F0E9440
:102FF00067168C2F0E94291DD2CED23F89F160F432
:10300000D03FC9F0D13F29F1112309F442C0011189
:10301000AECE8C2F8F7121C0D33F39F1D43FA1F7B1
:10302000112369F1CF718C2F0E94081D63E08C2F52
:103030000E94341FB4CE112341F0053008F0AFCE0A
:103040008C2F8F710E944C1DAACE063008F0A7CE9F
:10305000F7CF8C2F8F71112369F20E94081D9FCE2C
:103060008C2F8F711123C9F3C5CF112329F08C2F19
:103070008F710E94F31C93CE0E94EE1C90CE81E0D3
:103080000E944F1F023008F48ACE82E00E944F1F38
:1030900086CE002359F0D93309F0F4CE9FEFE7EE46
:1030A000F3E09150E040F040E1F7EACE8C2F8F71D1
:1030B000A1CF4C2F4F706D2FC7010E9469040E9451
:1030C0001E1C6DCE4C2F4F706D2FC7010E946C04DB
:1030D00066CEDF91CF911F910F91FF90EF90DF901F
:1030E000CF90BF9008950F931F93CF93DF93EC0180
:1030F000688179818A810E94441E8C010E94A31DEF
:103100000E94A51CB801CE01DF91CF911F910F91B4
:103110000C946E16CF93DF93EC018B819C81892BED
:1031200029F08881998189238F3F59F4DF91CF91CC
:103130000895CE010E947318CE01DF91CF910C94B7
:10314000D803CE010E94FB038111F3CF0E94861E9B
:10315000882361F38A81882349F382E0DF91CF914C
:103160000C944F1F882321F00E94C11E0C94FE1E58
:103170000895882321F00E94C71E0C94FE1E089516
:1031800090E080E00E94261490E080E00E943C14D1
:103190000E94CE1E0E94DE1E0C94FE1E0E94761E11
:1031A0000C94C0180E94BE1E0C94CE18E92FE29514
:1031B000EF70E250EE3070F4F0E0E55DF54D0C9408
:1031C000D328803F19F020F4883E20F481E0089550
:1031D000843FE1F380E00895883EC0F3813FD1F75A
:1031E000F5CF93FB882780F908950E943A1E0C942E
:1031F000D618CF93DF9300D000D00F92CDB7DEB7B3
:103200000F900F900F900F900F90DF91CF91089536
:10321000CF93DF9300D000D000D0CDB7DEB7269695
:103220000FB6F894DEBF0FBECDBFDF91CF910895EA
:103230001F93CF93DF93C0918E0216E080918F028F
:103240008C1304C0DF91CF911F910895D0E01C9F93
:10325000F0011D9FF00D1124E057FD4F4081518179
:1032600062817381848195810E9408192196C770BB
:10327000E5CF4091C0025091C1026091C2027091AD
:10328000C3028091C4029091C5020C940819209148
:103290008E0290918F0256E0291302C080E00895BB
:1032A00030E0529FF001539FF00D1124E057FD4F85
:1032B0007181761306C07081781303C07281741314
:1032C00004C02F5F3F4F2770E7CF81E008951F9321
:1032D000CF93DF938091C502807FA9F48091C202D1
:1032E000882389F080918E02C0918F026091C00284
:1032F0007091C102A091C302B091C402D62FD7230E
:1033000016E0C81304C0DF91CF911F91089590E09B
:10331000109711F0DF3F19F401968770F2CF189FD4
:103320009001199F300D1124F901E057FD4F4181A3
:103330004713F2CF40814613EFCF42814111ECCFCA
:10334000438154814A1B5B0B4F3A510528F780910A
:10335000C5028F7080618093C502F901EB56FD4F65
:1033600080818F708061808380EC92E00E948A1857
:10337000DF91CF911F910C9418198F929F92AF9269
:10338000BF92CF92DF92EF92FF920F931F93CF9352
:10339000DF93CDB7DEB761970FB6F894DEBF0FBEEF
:1033A000CDBF8C0185E0F801DE011D9601900D92E4
:1033B0008A95E1F7D801EC901196FC90119712963E
:1033C000CC90129780ECA82E82E0B82E4091C302D8
:1033D0005091C4024115510509F474C19091C00285
:1033E0002091C102892F82238F3F09F46BC113966C
:1033F0008D909C901497D090C202F401E41BF50BC1
:10340000DD2009F40AC18091C502382F307FEF3AE0
:10341000F10508F0C1C0311189C0DC2C2F1126C084
:103420009E1124C0C11022C08F7080618093C5029C
:103430000E943919C5010E948A188091C502D801DD
:1034400015968C938D2D61960FB6F894DEBF0FBE46
:10345000CDBFDF91CF911F910F91FF90EF90DF9043
:10346000CF90BF90AF909F908F900895811491045A
:1034700029F08F2D8E218F3F09F043C180E080FF1E
:1034800015C04C2D6F2D8E2D0E944719882371F089
:1034900080EC92E00E948A1886E0E0ECF2E0DF0126
:1034A0001D928A95E9F70E9439193EC0892829F0B2
:1034B0008F2D8E218F3F09F021C180E0B82FB17090
:1034C000AB2E80FF29C04C2D6F2D8E2D0E944719E9
:1034D000B82E811121C0ED86FE868D859E850E94C5
:1034E0003A1E292F22952F70223050F0243078F484
:1034F0009F7051F0F8019581907F31F4DB2CA2CFC1
:103500009F7011F08823D1F3805E8830B8F3C80132
:103510000E948A18BA2CF2CFCC2009F493CF809164
:10352000C50281608093C502D12C8CCF2F1105C0BC
:103530009E1103C0CC2009F48DC0ED86FE868D85DA
:103540009E850E94F518882319F1CC2009F18091FD
:10355000C502803270F02091C0023091C1023887DC
:103560002F8319869B868A868C87CE0107960E94B8
:103570008A1886E0F801A0ECB2E001900D928A95DD
:10358000E1F70E9467190E943919DD24D3945ACFBC
:10359000C8010E948A18F9CF311112C0782D998A7A
:1035A000888AA7016C2D89890E94F91880EC92E025
:1035B0000E948A1886E0F50111928A95E9F773CF87
:1035C0002F110FC09E110DC0C1100BC015968C930A
:1035D000C8010E948A1886E0F50111928A95E9F7E0
:1035E00031CFED86FE868D859E850E94F518882355
:1035F00079F2CC2069F28091C502803208F4B9CF0B
:103600002091C0023091C1023A8329831B829D829E
:103610008C828E83CE010196AACFEF3AF10508F095
:1036200043C0DC2CCC2009F4B3CF2F112CC09E1149
:103630002AC08091C50280FD1DC0982F907FD1F0D7
:1036400015968C931597903F39F0982F907F905F47
:103650008F70892B15968C93C8010E948A1886E07A
:10366000F801A0ECB2E001900D928A95E1F70E947A
:103670003919E8CE86E0F801A0ECB2E001900D9295
:103680008A95E1F7DFCEED86FE868D859E850E94C8
:10369000F51881116ECF8091C50281608093C502BB
:1036A000C8010E948A18CECE782D998A888AA701EF
:1036B0006C2D89890E94F91886E0F50111928A958E
:1036C000E9F7D5CFCC2009F463CFED86FE868D8552
:1036D0009E850E94F518D82E882309F459CF86E0DC
:1036E000F801A0ECB2E001900D928A95E1F780EC30
:1036F00092E00E945E150E946719B9CF81E08C2587
:10370000DDCE81E08C25BBCE1F93CF93DF93CDB769
:10371000DEB72C970FB6F894DEBF0FBECDBF4F8338
:10372000588769877A878B879C87CE0107960E9486
:10373000BD19882369F08A859B85892B39F04F81D3
:103740005885842F85238F3F09F071C016E05FC034
:1037500086E0FE013796DE01119601900D928A9562
:10376000E1F78A859B85892B89F38F819885892349
:103770008F3F61F320918F0230E0C901019687707D
:10378000992740918E024817190671F40E94D218A9
:1037900010928F0210928E0286E0E0ECF2E0DF01E0
:1037A0001D928A95E9F7D2CF96E0929FD001939F20
:1037B000B00D1124A057BD4FFE01319601900D921E
:1037C0009A95E1F780938F020E941819BFCF819FCD
:1037D000C001112480579D4F0E94BD198823E9F034
:1037E000E0918E021E9FF0011124E057FD4F4081B1
:1037F000518162817381848195810E940819809131
:103800008E0290E001968770992780938E028091B6
:103810008E0290918F028913DACF2C960FB6F8940E
:10382000DEBF0FBECDBFDF91CF911F910895698597
:103830007A858B859C850E94081988CFEF92FF922C
:103840000F931F93CF93DF938C01892B81F0F12C81
:10385000EE24E394E8012196F8018491843770F412
:10386000843008F05FC08130B1F08230A1F1DF9187
:10387000CF911F910F91FF90EF900895853709F434
:103880004CC008F43DC09CE7980F903780F78F77C5
:103890000E94F21549C00E5F1F4FFE01849190E215
:1038A000980F983060F48770FE2D01C0FF0F8A9545
:1038B000EAF78F2F0E94D11E0E94FE1E02C00E94B6
:1038C00063158F2D815030F2EFE9FFE03197F1F76A
:1038D00000C00000F7CF0E5F1F4FFE01849190E201
:1038E000980F983050F48770FE2D01C0FF0F8A9515
:1038F000EAF78F2F0E94D71EDFCF0E94F215E1CF8B
:103900000E5F1F4FFE01C491C150D8F28FE99FE0B6
:103910000197F1F700C00000F7CF0E5F1F4FFE01C7
:10392000F490CFCF0E9463158E01CBCF08950C94F5
:10393000961C0E94971C6093E8027093E9028093A2
:10394000EA029093EB020C94C01808950C94991C11
:103950000F931F930091E8021091E9022091EA026F
:103960003091EB02602B712B822B932B1F910F91C7
:103970000C94991C0F931F930091E8021091E90297
:103980002091EA023091EB0260237123822393237A
:103990001F910F910C94991C0F931F930091E802B3
:1039A0001091E9022091EA023091EB026027712721
:1039B000822793271F910F910C94991C0C94961CAD
:1039C0000C94DE1C0E94E01C6093E4027093E502FC
:1039D0008093E6029093E7020C94C01860E070E0D8
:1039E000CB010C94E21C0F931F9341E050E060E088
:1039F00070E08A019B0104C0000F111F221F331FBA
:103A00008A95D2F7C901B8011F910F910C94E21C5D
:103A10000F931F9341E050E060E070E004C0440F5A
:103A2000551F661F771F8A95D2F78091E402909107
:103A3000E502A091E602B091E7028A019B01082B02
:103A4000192B2A2B3B2BC901B8011F910F910C9404
:103A5000E21C0F931F9341E050E060E070E004C06F
:103A6000440F551F661F771F8A95D2F7CB01BA0105
:103A700060957095809590950091E4021091E50213
:103A80002091E6023091E702602371238223932381
:103A90001F910F910C94E21C0F931F9341E050E093
:103AA00060E070E004C0440F551F661F771F8A95C1
:103AB000D2F78091E4029091E502A091E602B091E4
:103AC000E7028A019B01082719272A273B27C901FA
:103AD000B8011F910F910C94E21C0F931F9300915A
:103AE000E4021091E5022091E6023091E702602B9A
:103AF000712B822B932B1F910F910C94E21C0F932F
:103B00001F930091E4021091E5022091E6023091AA
:103B1000E70260237123822393231F910F910C945A
:103B2000E21C0F931F930091E4021091E502209193
:103B3000E6023091E70260277127822793271F91C1
:103B40000F910C94E21C089527E0929F800D1124A0
:103B5000982F977041E001C0440F9A95EAF7869537
:103B60008695869595E0899FF0011124EA53FD4FD3
:103B700090E080E070E05191DF0111979B01082EE9
:103B800002C0369527950A94E2F7217021952527E2
:103B9000242325272C9301968530910561F70895FC
:103BA00027E0929F800D1124982F97708695869517
:103BB000869525E0829FF0011124EA53FD4F50E0E5
:103BC00040E080E0219130E0092E02C03695279533
:103BD0000A94E2F721703327042E01C0220F0A94C1
:103BE000EAF7822B4F5F5F4F4530510559F7089533
:103BF000BF92CF92DF92EF92FF920F931F93CF93DA
:103C0000DF938C01C090E402D090E502E090E602E0
:103C1000F090E7028091E8029091E902A091EA0217
:103C2000B091EB02C82AD92AEA2AFB2ACFE1D0E0D8
:103C3000BC2ED701C6010C2E04C0B695A79597954A
:103C400087950A94D2F780FD0EC0219788F7B12C92
:103C50008B2DDF91CF911F910F91FF90EF90DF900F
:103C6000CF90BF900895B8018C2F0E9489040197CE
:103C700061F3EECFCF93DF93EC010E94F81DBE01FC
:103C8000DF91CF910C9489041F93CF93DF93EB01C5
:103C900090918D02992331F0CB01DF91CF911F914B
:103CA0000C943A1E882379F0CB010E94F81D182F3E
:103CB000682FCE010E94A41DBE01812FDF91CF91FC
:103CC0001F910C948904CB010E94D01D182FF4CFB2
:103CD000682F80913B0190913C010C94B320682F98
:103CE00080913B0190913C010C94BE2080913B015E
:103CF00090913C010C94C9208091EC0285958595AA
:103D0000859508958091EC02877008959091EC025A
:103D1000977081E009F480E008959091360392FB5A
:103D2000222720F9281751F080FB92F9909336034F
:103D300080913503909136030C94941F08958091DF
:103D4000360382FB882780F991E089270C948D1E29
:103D500081E00C948D1E80E00C948D1E80911003E8
:103D6000089590911003892B8093100308958095F6
:103D700090911003982390931003089510921003CC
:103D8000089590910F03892B80930F0308958095D8
:103D900090910F03982390930F03089510920F03AF
:103DA000089590910E03892B80930E0308958095BA
:103DB00090910E03982390930E03089510920E0392
:103DC00008958091ED02089508950C94E41E909159
:103DD000360392FD08C09091ED02981721F0809370
:103DE000ED020C94E51E08958091ED02882329F0E0
:103DF0001092ED0280E00C94E51E0895E0913B01E5
:103E0000F0913C01809110038083E0913B01F0919F
:103E10003C01808190910F03892B8083E0913B01CD
:103E2000F0913C01808190910E03892B80839091C9
:103E3000ED02992381F0E0913B01F0913C018081FA
:103E4000892B808380913B0190913C010E941F202F
:103E500081110E94F41E80913B0190913C010C94D1
:103E60000C1408950C94311F9091360392FD10C0EC
:103E700098E0899F90011124622B6093EC020E94CC
:103E8000081D8091EC028595859585950C94321FCF
:103E90000C94081D1092EC0280E00C94321F90915B
:103EA000EC02809589238093EC02282F277039F447
:103EB000282F082E000C330B9217130621F4909133
:103EC000360392FF07C08595859585950E94291D2B
:103ED0000C944A1F089580E008956FEF7FEF90E003
:103EE00080E00C94A52990E080E00E94812921E0E7
:103EF0008A3E9E4F09F020E0822F089582E090E0F4
:103F00000C94732983E090E00C947329CF9384E0A0
:103F100090E00E947329C82F82E290E00E947329EA
:103F2000982F8C2FCF910895CF93C92F682F84E0BD
:103F300090E00E9487296C2F82E290E0CF910C9450
:103F40008729AB01BC018FE090E00C949929AB016B
:103F5000BC0183E190E00C94992960E070E0CB0112
:103F60000C94A71F60E070E0CB010E94A11F0C948D
:103F7000AD1F6AEE7EEF90E080E00E94A52960E030
:103F800082E090E00E94872960E083E090E00E9458
:103F900087291092E8021092E9021092EA02109228
:103FA000EB0260E084E090E00E94872960E082E21A
:103FB00090E00E94872960E085E090E00E948729D8
:103FC00060E086E090E00E9487296FEF87E090E054
:103FD0000E94872940E050E0BA0188E090E00E940A
:103FE000992960E08DE090E00E94872940E050E050
:103FF000BA0188E190E00E94992960E087E190E0B1
:104000000E94872940E050E0BA018CE190E00E94D4
:10401000992970E060E080E290E00E94A52940E0EC
:1040200050E0BA0188E190E00E9499290C94B21FF7
:104030000C94B91F682F8EE090E00C948729FC0146
:10404000329680914701882321F0809135039EE1CB
:1040500087FF96E080E0915008F408952191222393
:10406000D1F38F5FF8CF662301F12091470122231E
:10407000F1F02091350327FF1AC0462F469546954B
:1040800046954E3190F4677021E030E002C0220F77
:10409000331F6A95E2F7840F911DFC01828190E045
:1040A0002823392381E0232B69F480E00895FC0163
:1040B000329608962191261721F0E817F907D1F7D3
:1040C000F4CF81E008959C01FC0132969FEF80E0DF
:1040D0004191461751F09F3F19F4411101C0982FAB
:1040E0008F5F8630A9F79F3F09F40895290F311D8E
:1040F00097FD3A95F90162830895FC01329608967E
:104100002191261303C0DF0111971C92E817F907CC
:10411000B9F70895E62FE695E695E695EE3168F451
:10412000E80FF92FF11D677021E030E001C0220F88
:104130006A95EAF78281822B82830895E62FE695BD
:10414000E695E695EE3170F4E80FF92FF11D6770F2
:1041500021E030E001C0220F6A95EAF720958281C4
:1041600028232283089520914701222329F02091BA
:10417000350327FD0C948A200C946320209147017D
:10418000222329F02091350327FD0C949E200C94C6
:104190007D20FC01329680914701882351F0809167
:1041A000350387FF06C08EE1DF011D928A95E9F78E
:1041B000089586E0F9CF089508950C94DC2080914D
:1041C0008F03843049F10E94DD2080E00E94610469
:1041D0001092120388E190E020E40FB6F894A895BD
:1041E000809360000FBE2093600083B7817F84605E
:1041F00083BF83B7816083BF7894889583B78E7FB0
:1042000083BF0FB6F894A895809160008861809371
:104210006000109260000FBE08950895CF930E9431
:10422000DB200E940A070E940D21C0E08C2F0E9413
:10423000B106811105C0CF5FC630C1F7CF91089597
:1042400081E0FCCF08950C9422210E94D2180E9494
:1042500000140E9461040C9423211F921FB61F9228
:1042600011248F939F93AF93BF9380911203811179
:1042700013C08091870390918803A0918903B09126
:104280008A034196A11DB11D8093870390938803F3
:10429000A0938903B0938A03BF91AF919F918F91AF
:1042A0001F901FBE1F90189582E084BD93E095BDBE
:1042B0009AEF97BD80936E0008952FB7F894809180
:1042C000870390918803A0918903B0918A032FBF3F
:1042D00008952FB7F89460918703709188038091B7
:1042E000890390918A032FBF08959C014FB7F894DA
:1042F0008091870390918803A0918903B0918A03EC
:104300004FBF821B930B089578941F921FB61F9284
:1043100011248F939F93AF93BF93809187039091C4
:104320008803A0918903B0918A030196A11DB11D54
:104330008093870390938803A0938903B0938A03A3
:10434000BF91AF919F918F911F901FBE1F901895A5
:1043500081E08093E00080E28093D8001092C90051
:104360008FE19EE40197F1F700C0000087E090EB39
:10437000DC018093980390939903A0939A03B093E0
:104380009B0388E19CE00FB6F894A89580936000A9
:104390000FBE90936000FFCF9093E3018093E20102
:1043A00008958091330308950895CF93DF9300D04B
:1043B0000F92CDB7DEB790918F03943019F58983B2
:1043C0007B836A8382E08093E9008FEF9091E8001D
:1043D000815095FD06C095ED9A95F1F70000811189
:1043E000F5CF8091E80085FF0DC050E040E063E02C
:1043F00070E0CE0101960E94DE238091E8008E7766
:104400008093E8000F900F900F90DF91CF91089567
:10441000BC0184E00C94D521BC0183E00C94D5212F
:10442000CF93DF93EC01809147018823B1F1809114
:10443000350387FF32C060E282E08093E9008FEFAE
:104440009091E800815095FD06C095ED9A95F1F7A1
:1044500000008111F5CF8091E80085FF1BC080919D
:10446000470170E050E040E0811104C050E040E0BE
:1044700068E070E0CE010E94DE238091E8008E7734
:104480008093E80080E2FE01A3E1B3E001900D9289
:104490008A95E1F7DF91CF91089568E081E0CDCF73
:1044A00080918E03811109C00E946E250E94CB2548
:1044B0008091E20084608093E200089510928E0360
:1044C000089508950895089542E061EC81E00E9406
:1044D000EA2442E261EC82E00C94EA2480919103A8
:1044E000833009F45FC030F48130C1F1823009F4C7
:1044F0009BC008958A3009F487C08B3009F46DC0E1
:10450000893009F04EC080919003813209F049C092
:104510008091940390919503029708F042C0809196
:10452000E800877F8093E8008091E80082FF35C033
:104530009091F3008091F200029729F48091F100AC
:104540008B7F813021F48091F1008093330380913F
:10455000E8008B778093E8000C941E2580919003EF
:10456000813AF9F48091E800877F8093E800809198
:10457000940390919503892B61F460E283E193E0C9
:1045800070E00E942D248091E8008B778093E800F2
:10459000089560E090E080E0F3CF80918F03811177
:1045A000C3CF089580919003813AD9F78091940305
:1045B00090919503892BA9F78091E800877F8093DC
:1045C000E8008091E80080FFFCCF80914701809354
:1045D000F1008091E8008E77BDCF80919003813209
:1045E00001F78091940390919503892BD1F68091E6
:1045F000E800877F8093E8000E941E258091920347
:10460000809347010C94D21880919003813249F62F
:104610008091E800877F8093E8000E941E258091AA
:10462000930380933403089580919003813A09F0B5
:10463000B8CF8091E800877F8093E8008091E80000
:1046400080FFFCCF80913403C2CF84B7877F84BFC3
:104650000FB6F894A89580916000886180936000FF
:10466000109260000FBE80E890E00FB6F89480933F
:104670006100909361000FBE0E9473140E946E252A
:104680000E94CB258091E20084608093E2007894C0
:104690000E9454280E9487148DE391E00E94FB132E
:1046A00080918F03853099F00E948F140E948314AB
:1046B000F7CF0E94DF2080918D03882341F00E9474
:1046C0000E21882321F00E94C8230E94D2188091D5
:1046D0008F03853071F30E942521E6CF0C9470235F
:1046E000292F33272330310519F168F421303105A2
:1046F00009F444C02230310509F445C090E080E05F
:1047000030E020E025C02132310549F12232310567
:10471000A9F780E490E022E935E061157105C1F068
:104720008DE690E025E235E06130710589F0E6CF55
:1047300099278130910581F0009729F00297F1F6D1
:10474000E4E9F4E002C0E4EDF4E0849190E09F013C
:10475000FA01318320830895E0EBF4E0F6CF89E09D
:1047600090E02AEE34E06115710591F389E090E064
:1047700023E035E06130710559F3C0CF82E190E06C
:1047800023E135E0E5CF8BE390E028ED34E0E0CFA6
:1047900080E189BD82E189BD09B400FEFDCF809131
:1047A000D8008F7D8093D8008091E0008260809354
:1047B000E0008091E00081FDFCCF0895AF92BF92B0
:1047C000CF92DF92FF920F931F93CF93DF936C01F1
:1047D000EB018A010E943D25F82E811123C00115AD
:1047E000110539F0F80180819181C81BD90BC80EE1
:1047F000D91EB12CA12C2097A9F08091E80085FD4D
:1048000022C08091E8008E778093E80001151105A1
:10481000A1F0F80180819181A80EB91EB182A08219
:1048200085E0F82E8F2DDF91CF911F910F91FF9092
:10483000DF90CF90BF90AF9008950E943D258823D0
:10484000D1F2F82EEFCFF60181916F018093F10044
:104850002197FFEFAF1ABF0ACECFFC0180919603DC
:104860009091970386179707A0F06115710529F4B9
:104870009091E8009E779093E80090E061157105B3
:1048800051F4911108C08091E80082FF34C080E0AB
:104890000895BC01F2CF80918F038823C1F1853048
:1048A000C1F18091E80083FD30C08091E80082FD75
:1048B000EACF8091E80080FFE1CF8091F300209162
:1048C000F200382F6115710519F02830310558F0C4
:1048D00091E02830310509F090E02091E8002E7732
:1048E0002093E800CBCF81918093F1006150710952
:1048F0002F5F3F4FE7CF80918F03882341F08530B2
:1049000041F08091E80083FFBECF81E0089582E00E
:10491000089583E00895FC01809196039091970398
:1049200086179707A0F06115710529F48091E800BA
:104930008E778093E80090E06115710551F4911134
:1049400008C08091E80082FF35C080E00895BC0176
:10495000F2CF80918F038823C9F18530C9F180910E
:10496000E80083FD31C08091E80082FDEACF8091AC
:10497000E80080FFE1CF8091F3002091F200382F12
:104980006115710519F02830310558F091E0283093
:10499000310509F090E08091E8008E778093E8007F
:1049A000CBCF84918093F1003196615071092F5FD4
:1049B0003F4FE6CF80918F03882341F0853041F04F
:1049C0008091E80083FFBDCF81E0089582E00895E3
:1049D00083E00895982F973028F08F708093E90036
:1049E00081E008959093E900242F762F50E09817E6
:1049F00031F07091EC002091ED005091F00021FD1C
:104A000002C09F5FE8CF3091EB003E7F3093EB0018
:104A10003091ED003D7F3093ED003091EB0031603F
:104A20003093EB007093EC002093ED005093F00076
:104A30002091EE0027FDE5CF80E00895809190035E
:104A400087FF13C08091E80082FF06C08091E800D4
:104A50008B778093E80004C080918F038111F2CF9F
:104A6000089580918F038823D9F38091E80080FF17
:104A7000F8CF8091E8008E77ECCF2091E400309160
:104A8000E50095E6A9012091EC00822F817020FFBE
:104A900006C08091E80080FF06C080E00895209164
:104AA000E80022FD1AC080918F03882389F08530A9
:104AB00089F08091EB0085FD0FC02091E4003091DA
:104AC000E50042175307F9F29150E1F684E00895AA
:104AD00082E0089583E0089581E008950E94DC2536
:104AE0000E94E425E0EEF0E0808181608083E8EDC3
:104AF000F0E080818F77808319BCA7EDB0E08C91C6
:104B00008E7F8C9380818F7E808310928E03089598
:104B10000F931F93CF93DF930E94DC250E94E4251F
:104B2000C8EDD0E088818F7788838881806888830A
:104B300088818F7D888319BC10928F0310928B031C
:104B400010928D0310928C0300EE10E0F80180812A
:104B50008B7F808388818160888342E060E080E091
:104B60000E94EA24E1EEF0E080818E7F8083E2EE15
:104B7000F0E0808181608083808188608083F8019B
:104B800080818E7F8083888180618883DF91CF914F
:104B90001F910F910895E8EDF0E080818F7E808372
:104BA000E7EDF0E080818160808384E082BF81E076
:104BB00080938E030C948825E8EDF0E080818E7F51
:104BC00080831092E20008951092DA001092E100C2
:104BD00008951F920F920FB60F9211242F933F93B7
:104BE0004F935F936F937F938F939F93AF93BF93F5
:104BF000EF93FF938091E10082FF0BC08091E20070
:104C000082FF07C08091E1008B7F8093E1000E94CA
:104C100053288091DA0080FF19C08091D80080FF6E
:104C200015C08091DA008E7F8093DA008091D900E0
:104C300080FF96C080E189BD82E189BD09B400FE94
:104C4000FDCF81E080938F030E9450228091E1008C
:104C500080FF19C08091E20080FF15C08091E200C2
:104C60008E7F8093E2008091E20080618093E20079
:104C70008091D80080628093D80019BC85E0809331
:104C80008F030E9462228091E10084FF2BC08091FB
:104C9000E20084FF27C080E189BD82E189BD89B53A
:104CA000982F917080FFFBCF8091D8008F7D8093EB
:104CB000D8008091E1008F7E8093E1008091E20036
:104CC0008F7E8093E2008091E20081608093E20019
:104CD00080918B03882309F449C084E080938F037B
:104CE0000E9463228091E10083FF29C08091E2004D
:104CF00083FF25C08091E100877F8093E10082E0FF
:104D000080938F0310928B038091E1008E7F8093BC
:104D1000E1008091E2008E7F8093E2008091E200CA
:104D200080618093E20042E060E080E00E94EA243B
:104D30008091F00088608093F0000E946122FF91D2
:104D4000EF91BF91AF919F918F917F916F915F9103
:104D50004F913F912F910F900FBE0F901F9018957C
:104D600019BC10928F030E945E2270CF8091E300E5
:104D700087FD93E090938F03B3CF1F920F920FB6EE
:104D80000F9211242F933F934F935F936F937F93D1
:104D90008F939F93AF93BF93CF93DF93EF93FF9343
:104DA000D091E900DF708091EC00C82FC17080FDC8
:104DB000C0E81092E9008091F000877F8093F000B6
:104DC00078940E9401271092E9008091F000886099
:104DD0008093F000CD2BCF70C093E900FF91EF914D
:104DE000DF91CF91BF91AF919F918F917F916F9103
:104DF0005F914F913F912F910F900FBE0F901F9099
:104E000018951F93CF93DF93CDB7DEB7AA970FB650
:104E1000F894DEBF0FBECDBF80E993E02091F10092
:104E2000FC012193CF01F3E088399F07B9F70E9475
:104E30006E228091E80083FF1EC1809190039091C3
:104E400091039A3008F017C1E92FF0E0E75CF54DC7
:104E50000C94D328803899F0823809F00CC18091E5
:104E600094038F70873008F006C18093E900809129
:104E7000EB0085FB882780F91092E90006C080913D
:104E80008C0390918D03911182609091E800977F3F
:104E90009093E8008093F1001092F1008091E80077
:104EA0008E77E5C0882309F4D3C0823009F0E3C0CF
:104EB000809192038111D6C0809194038F702FEF5F
:104EC000280F263008F0D7C08093E9002091EB002E
:104ED00020FFC8C0933031F48091EB008062809352
:104EE000EB00C0C09091EB0090619093EB0021E04B
:104EF00030E001C0220F8A95EAF72093EA00109271
:104F0000EA008091EB008860EACF8111B4C0109173
:104F100092031F778091E3008078812B8093E300D8
:104F20008091E800877F8093E8000E941E25809191
:104F3000E80080FFFCCF8091E30080688093E3006D
:104F400082E0111183E080938F0395C080588230F6
:104F500008F091C080919203909193038C3D23E0DF
:104F60009207A1F583E08A838AE289834FB7F89498
:104F7000DE01139620E03EE051E2E32FF0E0509393
:104F80005700E49120FF03C0E295EF703F5FEF70A0
:104F90008E2F90E0EA30C0F0C7968D939D932F5FDF
:104FA000243159F74FBF8091E800877F8093E80054
:104FB0006AE270E0CE0101960E942D248091E80003
:104FC0008B778093E80057C0C096E7CF6091940339
:104FD00070919503AE014F5F5F4F0E946E23BC013D
:104FE000892B09F448C09091E800977F9093E800DE
:104FF00089819A810E948B24E1CF8038E1F58091EC
:10500000E800877F8093E80080918B038093F10014
:1050100045CF811130C090919203923060F580911C
:10502000E800877F8093E80090938B030E941E2501
:1050300080918B03882311F084E005C08091E30008
:1050400087FDFACF81E080938F030E94642213C012
:1050500080919203813079F481E0933009F080E00F
:1050600080938D031092E9008091E800877F809300
:10507000E8000E941E258091E80083FF0AC080910D
:10508000E800877F8093E8008091EB008062809346
:10509000EB00AA960FB6F894DEBF0FBECDBFDF912E
:1050A000CF911F9108950895CF9380918F03882306
:1050B000A1F0C091E900CF709091EC00892F817030
:1050C00090FD80E8C82B1092E9008091E80083FDF4
:1050D0000E940127CF70C093E900CF910895991BDA
:1050E00079E004C0991F961708F0961B881F7A95DF
:1050F000C9F78095089587FB082E062687FD8195C0
:1051000067FD61950E946F280EF4919507FC8195CB
:105110000895AA1BBB1B51E107C0AA1FBB1FA617FE
:10512000B70710F0A61BB70B881F991F5A95A9F750
:1051300080959095BC01CD01089597FB072E16F43C
:10514000009407D077FD09D00E94892807FC05D07C
:105150003EF4909581959F4F0895709561957F4F8E
:105160000895A1E21A2EAA1BBB1BFD010DC0AA1FA8
:10517000BB1FEE1FFF1FA217B307E407F50720F0C0
:10518000A21BB30BE40BF50B661F771F881F991F3B
:105190001A9469F760957095809590959B01AC0184
:1051A000BD01CF010895EE0FFF1F0590F491E02D92
:1051B00009940E94E128332312F48A1B9B0B0C9460
:1051C000F228A29FB001B39FC001A39F700D811D63
:1051D0001124911DB29F700D811D1124911D089500
:1051E0000E94E128B7FF0895821B930B08950E9447
:1051F000E128A59F900DB49F900DA49F800D911D57
:1052000011240895B7FF0C94F7280E94F728821BF9
:10521000930B08958F929F92AF92BF92CF92DF929D
:10522000EF92FF92CF93DF93EC01688179818A81BD
:105230009B81611571058105910521F464E279ED89
:105240008BE597E02DE133EF41E050E00E94BB2970
:1052500049015A019B01AC01A7EAB1E40E94F72879
:105260006B017C01ACEEB4EFA50194010E9405290D
:10527000DC01CB018C0D9D1DAE1DBF1DB7FF03C012
:105280000197A109B04888839983AA83BB839F773C
:10529000DF91CF91FF90EF90DF90CF90BF90AF90D4
:1052A0009F908F9008950E940A29089580E091E0D0
:1052B0000E940A290895B0E0A0E080930001909335
:1052C0000101A0930201B09303010895FC01415034
:1052D000504030F001900616D1F73197CF01089574
:1052E000882799270895F999FECF92BD81BDF89A34
:1052F000992780B50895A6E1B0E044E050E00C9411
:10530000AD29A8E1B0E042E050E00C94AD29262F91
:10531000F999FECF92BD81BDF89A019700B40216AB
:1053200039F01FBA20BD0FB6F894FA9AF99A0FBE59
:1053300008950396272F0E9488290E948729252FE8
:105340000E948829242F0C9488290196272F0E94D7
:1053500088290C948729DC01CB01FC01F999FECF47
:1053600006C0F2BDE1BDF89A319600B40D924150ED
:105370005040B8F70895052E97FB1EF400940E9444
:10538000D22957FD07D00E94B12807FC03D04EF464
:105390000C94D22950954095309521953F4F4F4F11
:1053A0005F4F089590958095709561957F4F8F4FD1
:1053B0009F4F0895F894FFCFE607DD07E907DB0765
:1053C0002E082E08DB072E082E0805082E081008C8
:1053D0001B082E082E082E082E08DB072E082E0884
:1053E000DB072E08F7072E082E082C082C082C089F
:1053F0002C082C082C082C082C082C0826082E0811
:10540000E607D9072E082E082E082E082E082E088B
:105410002E082E082E082E0826082E082E08DB0738
:105420002E082A082A082A082A082A082A082A08E8
:105430002A082A082608A216A216FA16FA164617ED
:10544000CF16CF16CF166217EE17FD17FD17591896
:10545000CF16CF166218E118E118EA18EA18EC180E
:10546000EA18EA18EA18E118E118F118EA18EA1837
:10547000F1182A2752273B2852273B288527A627A1
:065480003B28FD2709286E
:1054860001000000D0002A0000CA002A0000C40063
:105496002B0000BE00290000B800350000B2004C09
:1054A6000000AC00380000010102001500151501CE
:1054B600191A1B1C1D1E1F20212201EE02D12110CC
:1054C60022D4210C22082201E200E900EA00B500FC
:1054D600B600B700CD008301CC008A019201940189
:1054E6002102230224022502260227022A02B300F1
:1054F600B4006F007000818283349392F535F6977D
:10550600F49466C69190000102020202060606099C
:1055160009090909090F0F0F0F0F0F15151518198E
:105526001919191919191919192324252525252594
:1055360025E200E900EA00B500B600B700CD008319
:1055460001CC008A01920194012102230224022542
:1055560002260227022A02B300B4006F00700081FF
:0255660082833E
:00000001FF
