:100000000C9460010C94A7010C94A7010C94A70117
:100010000C94A7010C94A7010C94A7010C94A701C0
:100020000C94A7010C94A7010C94C7180C949B196D
:100030000C943C140C94A7010C94A7010C94A701F8
:100040000C94A7010C94A7010C94A7010C94A70190
:100050000C94A7010C9493140C94A7010C94A70181
:100060000C94A7010C94A7010C94A7010C94A70170
:100070000C94A7010C94A7010C94A7010C94A70160
:100080000C94A7010C94A7010C94A7010C94A70150
:100090000C94A7010C94A7010C94A7010C94A70140
:1000A0000C94A7010C94A7010C94A7010000140064
:1000B0001A000800150017001C0018000C001200A0
:1000C00013002A00E00004001600070009000A00DF
:1000D0000B000D000E000F0000000000E1001D6489
:1000E0001B68060019420543114110002C0028002E
:1000F0000000000000001E001F0020002100220060
:1001000023002400250026002700350001002F00D1
:1001100030003800310001002D002E003300340083
:1001200000000000010001000100010001000100C9
:1001300001003600370001000000000000001E0230
:100140001F0220022102220223022402250226028B
:100150002702350201002F0230023802310201006D
:100160002D022E023302340200000000010036028C
:10017000370201000100010001000100010001003F
:1001800000000000000029003A003B003C003D0058
:100190003E003F0040004100420043002B00A90008
:1001A000AA00A800010001005000510052004F00B9
:1001B000000000000100E200E30001000100010076
:1001C000010001000100005C000000000E034E0071
:1001D0006F006D0075003300300000001E037200D8
:1001E000650063006F006D00700069006C006500C1
:1001F00020006B006500790073000000040309040F
:1002000009023B00020100A0FA09040000010301F9
:1002100001000921110100012240000705810308A6
:10022000000A090401000103000000092111010076
:10023000012232000705820320000A120100020099
:100240000000084B52314E01000102000105010976
:1002500080A101850319012AB700150126B7009571
:100260000175108100C0050C0901A1018504190167
:100270002AA002150126A002950175108100C00573
:10028000010906A101050719E029E71500250195D7
:10029000087501810295017508810105071900297A
:1002A000FF150026FF009506750881000508190155
:1002B0002905950575019102950175039101C0000D
:1002C00011241FBECFEFDAE0DEBFCDBF04B603FEC0
:1002D00027C08091310290913202A0913302B091F7
:1002E00034028730904BA740B04BD1F410923102CA
:1002F00010923202109233021092340214BE84B76C
:10030000877F84BF0FB6F894A895809160008861BC
:1003100080936000109260000FBEE0E0F8E3099562
:1003200011E0A0E0B1E0E0E9F7E302C005900D9232
:10033000AE37B107D9F722E0AEE7B1E001C01D92B8
:10034000A133B207E1F70E9430110C94A21B0C9468
:10035000000081E0089581E008950C94AB010895B8
:100360000C94AF011F93CF93DF9300D000D00F9276
:10037000CDB7DEB749835A836B8330918001898181
:100380009A8131111DC06623B9F02223A9F00E9481
:10039000B807182F682F89819A810E9464076981A4
:1003A0007A81812F0F900F900F900F900F90DF9117
:1003B000CF911F910C949F0E0E949007182FEFCFA2
:1003C0000E94B80769817A81EDCFFC01262F408118
:1003D00051816281738184810C94B20181E008951E
:1003E000CF93DF93EC0160E00E94E501BE01DF9155
:1003F000CF910C94B0010E94AB0F0E946C020C9440
:10040000D00F0C94D30F08950E940D060E94030292
:100410002FEF84E39CE0215080409040E1F700C042
:1004200000000C94B7140F931F93CF93DF938C01AC
:1004300061E00E94E501EC01B8010E94AD01882352
:10044000A9F1B801CE010E94A711882379F1B80162
:10045000CE010E94F911882349F1B801CE010E9412
:100460002313882319F1F8018281882361F0CB35A9
:10047000FDE5DF0721F170F4C115ECE5DE07A1F021
:10048000CF3DDC45C9F0C801DF91CF911F910F919D
:100490000C94A901CC358DE5D807A1F0CD35DD450B
:1004A00091F70E94590BEFCF0E94040280E0DF9188
:1004B000CF911F910F9108950E94C30CF7CF0E9416
:1004C000620BE1CF0E94650BDECF08950C946502AC
:1004D00081E008950C9468020895CF93C82F0E947C
:1004E00066028C2FCF910C946A02CF93DF93CDB725
:1004F000DEB72B970FB6F894DEBF0FBECDBF4F838C
:10050000588769877A878B8761110E94880B1E82C2
:100510001D8285E0FE013796DE01119601900D9255
:100520008A95E1F78C819D81892B89F449815A81D3
:100530006B817C818D819E810E94880A2B960FB6EB
:10054000F894DEBF0FBECDBFDF91CF9108958981B2
:100550009A8189238F3F51F3CE0101960E94EE01CB
:100560008111E4CFEBCFFC01808191810C94FA07DB
:10057000CF93C82F882309F483C08238C1F40E9426
:10058000521381FD7DC089E30E94220B0E94AB0BB8
:100590002FEF81EE94E0215080409040E1F700C0C1
:1005A000000089E30E94290BCF910C94AB0B833898
:1005B000A1F40E94521380FD63C083E50E94220BC8
:1005C0000E94AB0B2FEF81EE94E0215080409040D1
:1005D000E1F700C0000083E5E5CF8438A1F40E9474
:1005E000521382FD4DC087E40E94220B0E94AB0B88
:1005F0002FEF81EE94E0215080409040E1F700C061
:10060000000087E4CFCF8CEF8C0F813A90F46C2FF1
:1006100080910001909101010E94A713882329F085
:100620008C2F0E94290B0E94AB0B8C2F0E94220B57
:10063000BBCF80E28C0F883048F4C77081E001C0E6
:10064000880FCA95EAF70E946B0BAECFEBE5EC0F73
:10065000E33040F4F0E0E55CFE4F808190E0CF9124
:100660000C946913C85AC73158F4EC2FF0E0EE0F20
:10067000FF1FE35FFE4F80819181CF910C947F1328
:10068000CF910895882309F44BC0823871F40E94F9
:10069000521381FF45C089E30E94220B0E94AB0BDD
:1006A00089E30E94290B0C94AB0B833859F40E9408
:1006B000521380FF35C083E50E94220B0E94AB0BD2
:1006C00083E5EFCF843859F40E94521382FF28C08B
:1006D00087E40E94220B0E94AB0B87E4E2CF9CEFE1
:1006E000980F913AF0F290E2980F983050F487709A
:1006F00091E001C0990F8A95EAF7892F0E94710B4A
:10070000D2CF9BE5980F933020F490E080E00C94DA
:100710006913885A873120F490E080E00C947F13AD
:1007200008951F93CF93DF93182FEB010E94B80217
:10073000209731F4812FDF91CF911F910C944203C8
:100740008FE99FE00197F1F700C000002197F0CFFB
:1007500070E060E0893311F460E570E00C9491037F
:10076000882321F00E946B0B0C94AB0B0895882317
:1007700021F00E94710B0C94AB0B0895BF92CF92A5
:10078000DF92EF92FF920F931F93CF93DF936C0151
:10079000D62FC72FFC011281058102950F700E9490
:1007A000400BE82E8823A1F0E12E112389F08C2F35
:1007B000807F803429F080E28D0FE12C883040F07A
:1007C00082E00E94FC0B0E94400B91E0E82EE9269B
:1007D000BC2EB2949FE0B922FBE0FB1598F1EB2D03
:1007E000F0E0EC55F44E0C944D1B0C2F0F70C07FB5
:1007F00011F00295007F1123A9F0002359F080E247
:100800008D0F883010F0D11109C0802F0E946B0B22
:100810000E94AB0B8D2F0E94B80214C0802F0E9443
:100820007B0BF6CF8D2F0E944203002359F080E20C
:100830008D0F883010F0D1112CC0802F0E94710BC9
:100840000E94AB0B2B2D2850330B2430310520F4A4
:100850000E9452130E946D02EE2009F483C10E948F
:100860003C0B80FD7FC1F60112820E94360B0E9474
:10087000C806C6010E94D3050E94360BDF91CF91B6
:100880001F910F91FF90EF90DF90CF90BF900C944D
:10089000E906802F0E94810BD3CF2C2F2F70F22ED0
:1008A000C07FC03219F0F29480EFF822DD2369F0A6
:1008B000D13049F1112391F1002351F1F6018581E5
:1008C00080FFA8CF8F70858323C0112381F0011191
:1008D00006C00E948E0B8F290E94B003B3CF013057
:1008E000C1F70E948E0B8F290E94940BABCF011190
:1008F00006C00E94A10B8F2D0E94B703A3CF013029
:1009000009F4A0CFF6CF112329F0063008F09ACFD2
:100910008F2DE2CF053008F095CFEDCF002359F3AE
:10092000D93349F4FFEF27EE33E0F1502040304057
:10093000E1F700C000008D2F0E94420383CF8C2F6F
:1009400086958695837069F0813009F07BCF8D2F75
:100950009C2F9370111102C090E080E00E947F13E1
:1009600071CF8D2F9C2F9370111102C090E080E009
:100970000E94691367CF8C2F837009F041C0111159
:1009800061CF4D2F429546954770440F440F0D2F70
:100990000F7010E030E020E0042E04C0000F111FA3
:1009A000221F331F0A94D2F760E070E0CB01D4FF1E
:1009B0000FC06FE070E080E090E004C0660F771F2A
:1009C000881F991F4A95D2F76095709580959095EC
:1009D000C695C695C370602B712B822B932BC230AA
:1009E00049F058F4C13019F00E947A062BCF0E94CA
:1009F000680628CF0E948C0625CF0E94660622CF6B
:100A00008695112311F08C2F8170882309F41ACF59
:100A10004D2F429546954770440F440F0D2F0F7090
:100A200010E030E020E0042E04C0000F111F221F50
:100A3000331F0A94D2F760E070E0CB01D4FF0FC0FF
:100A40006FE070E080E090E004C0660F771F881FC1
:100A5000991F4A95D2F76095709580959095C695A7
:100A6000C695C370602B712B822B932BC23049F03B
:100A700058F4C13019F00E943F07E4CE0E942D07C0
:100A8000E1CE0E945107DECE0E94A206DBCECF70DF
:100A9000112329F08C2F0E94C8068D2F1DCF8D2F7A
:100AA0000E94B7038C2F0E94E906CCCED23F89F179
:100AB00060F4D03FC9F0D13F29F1112309F442C0BD
:100AC0000111A8CE8C2F8F7121C0D33F39F1D43FB3
:100AD000A1F7112369F1CF718C2F0E94C80663E042
:100AE0008C2F0E94E10BAECE112341F0053008F0AF
:100AF000A9CE8C2F8F710E940C07A4CE063008F06F
:100B0000A1CEF7CF8C2F8F71112369F20E94C806F6
:100B100099CE8C2F8F711123C9F3C5CF112329F0E2
:100B20008C2F8F710E94B3068DCE0E94AE068ACEA6
:100B300081E00E94FC0B023008F484CE82E00E9427
:100B4000FC0B80CE002359F0D93309F0F4CE8FEF9F
:100B500097EEE3E081509040E040E1F7EACE8C2F41
:100B60008F71A1CFDF91CF911F910F91FF90EF90E7
:100B7000DF90CF90BF9008950F931F93CF93DF9393
:100B8000EC01688179818A810E9404088C010E94AD
:100B900063070E946506B801CE01DF91CF911F91D6
:100BA0000F910C94BE03CF93DF93EC018B819C815A
:100BB000892B29F08881998189238F3F59F4DF910E
:100BC000CF910895CE010E94BC05CE01DF91CF9157
:100BD0000C94F001CE010E9413028111F3CF0E9408
:100BE000400B882361F38A81882349F382E0DF91F7
:100BF000CF910C94FC0B90E080E00E94691390E090
:100C000080E00E947F130E94880B0E948B0B0C9443
:100C1000AB0B0E94300B0C94FB050E94780B0C94DC
:100C20000906E92FE295EF70E250EE3070F4F0E043
:100C3000E055F44E0C944D1B803F19F020F4883E93
:100C400020F481E00895843FE1F380E00895883E38
:100C5000C0F3813FD1F7F5CF93FB882780F9089542
:100C6000FC01808191810E94FA070C941106CF93B8
:100C7000DF9300D000D00F92CDB7DEB70F900F906A
:100C80000F900F900F90DF91CF910895CF93DF9346
:100C900000D000D000D0CDB7DEB726960FB6F894BE
:100CA000DEBF0FBECDBFDF91CF91089508950C94A4
:100CB00056060E94570660939E0170939F01809391
:100CC000A0019093A1010C94FB0508950C94590682
:100CD0000F931F9300919E0110919F012091A001FD
:100CE0003091A101602B712B822B932B1F910F91BF
:100CF0000C9459060F931F9300919E0110919F0130
:100D00002091A0013091A1016023712382239323BC
:100D10001F910F910C9459060F931F9300919E0100
:100D200010919F012091A0013091A10160277127AE
:100D3000822793271F910F910C9459060C94560605
:100D40000C949E060E94A00660939A0170939B01EA
:100D500080939C0190939D010C94FB0560E070E0F2
:100D6000CB010C94A2060F931F9341E050E060E08A
:100D700070E08A019B0104C0000F111F221F331F66
:100D80008A95D2F7C901B8011F910F910C94A20660
:100D90000F931F9341E050E060E070E004C0440F07
:100DA000551F661F771F8A95D2F780919A019091FF
:100DB0009B01A0919C01B0919D018A019B01082B90
:100DC000192B2A2B3B2BC901B8011F910F910C94B1
:100DD000A2060F931F9341E050E060E070E004C072
:100DE000440F551F661F771F8A95D2F7CB01BA01B2
:100DF000609570958095909500919A0110919B0156
:100E000020919C0130919D016023712382239323C3
:100E10001F910F910C94A2060F931F9341E050E095
:100E200060E070E004C0440F551F661F771F8A956D
:100E3000D2F780919A0190919B01A0919C01B09171
:100E40009D018A019B01082719272A273B27C901F1
:100E5000B8011F910F910C94A2060F931F9300915C
:100E60009A0110919B0120919C0130919D01602B72
:100E7000712B822B932B1F910F910C94A2060F9331
:100E80001F9300919A0110919B0120919C01309138
:100E90009D0160237123822393231F910F910C9452
:100EA000A2060F931F9300919A0110919B0120912C
:100EB0009C0130919D0160277127822793271F9104
:100EC0000F910C94A20608952CE0929F800D11249E
:100ED000982F977041E001C0440F9A95EAF78695E4
:100EE0008695869595E0899FF0011124EF57FE4F76
:100EF00090E080E070E05191DF0111979B01082E96
:100F000002C0369527950A94E2F72170219525278E
:100F1000242325272C9301968530910561F70895A8
:100F20002CE0929F800D1124982F977086958695BE
:100F3000869525E0829FF0011124EF57FE4F50E087
:100F400040E080E0219130E0092E02C036952795DF
:100F50000A94E2F721703327042E01C0220F0A946D
:100F6000EAF7822B4F5F5F4F4530510559F70895DF
:100F7000BF92CF92DF92EF92FF920F931F93CF9386
:100F8000DF938C01C0909A01D0909B01E0909C016E
:100F9000F0909D0180919E0190919F01A091A001F0
:100FA000B091A101C82AD92AEA2AFB2ACFE1D0E0D0
:100FB000BC2ED701C6010C2E04C0B695A7959795F7
:100FC00087950A94D2F780FD0EC0219788F7B12C3F
:100FD0008B2DDF91CF911F910F91FF90EF90DF90BC
:100FE000CF90BF900895B8018C2F0E94B30E019747
:100FF00061F3EECFCF93DF93EC010E94B807BE01FF
:10100000DF91CF910C94B30E1F93CF93DF93EB013D
:1010100090918001992331F0CB01DF91CF911F9105
:101020000C94FA07882379F0CB010E94B807182F97
:10103000682FCE010E946407BE01812FDF91CF91FE
:101040001F910C94B30ECB010E949007182FF4CF80
:101050001F93CF93DF93C091A20116E08091A3016B
:101060008C1304C0DF91CF911F910895D0E01C9F95
:10107000F0011D9FF00D1124EC55FE4F4081518170
:1010800062817381848195810E9446062196C77092
:10109000E5CF4091D4015091D5016091D601709176
:1010A000D7018091D8019091D9010C9446062091E6
:1010B000A2019091A30156E0291302C080E0089597
:1010C00030E0529FF001539FF00D1124EC55FE4F7C
:1010D0007181761306C07081781303C07281741316
:1010E00004C02F5F3F4F2770E7CF81E008951F9323
:1010F000CF93DF938091D901807FA9F48091D601AD
:10110000882389F08091A201C091A3016091D4014C
:101110007091D501A091D701B091D801D62FD723D6
:1011200016E0C81304C0DF91CF911F91089590E09D
:10113000109711F0DF3F19F401968770F2CF189FD6
:101140009001199F300D1124F901EC55FE4F41819A
:101150004713F2CF40814613EFCF42814111ECCFCC
:10116000438154814A1B5B0B483C510528F7809111
:10117000D9018F7080618093D901F901E755FE4F45
:1011800080818F708061808384ED91E00E94D3051F
:10119000DF91CF911F910C9428088F929F92AF926C
:1011A000BF92CF92DF92EF92FF920F931F93CF9354
:1011B000DF93CDB7DEB761970FB6F894DEBF0FBEF1
:1011C000CDBF8C0185E0F801DE011D9601900D92E6
:1011D0008A95E1F7D8011296EC90129784EDA82E2B
:1011E00081E0B82E4091D7015091D80141155105A9
:1011F00009F46FC19091D4012091D501892F8223E8
:101200008F3F09F466C1CC901196DC90119713962C
:101210008D909C901497F090D601F401E41BF50B8F
:10122000FF2009F404C18091D901382F307FE83CB8
:10123000F10508F0BEC0311189C0FE2CD21226C0C3
:101240009C1124C0E11022C08F7080618093D9016D
:101250000E944908C5010E94D3058091D901D80197
:1012600015968C938F2D61960FB6F894DEBF0FBE46
:10127000CDBFDF91CF911F910F91FF90EF90DF9045
:10128000CF90BF90AF909F908F900895811491045C
:1012900029F08D2D8C218F3F09F037C180E080FF30
:1012A00015C04E2D6D2D8C2D0E945708882371F08E
:1012B00084ED91E00E94D30586E0E4EDF1E0DF01EA
:1012C0001D928A95E9F70E9449083EC0892829F0B5
:1012D0008D2D8C218F3F09F015C180E0B82FB170A2
:1012E000AB2E80FF29C04E2D6D2D8C2D0E945708EE
:1012F000B82E811121C0CD86DE868D859E850E9407
:10130000FA07292F22952F70223050F0243078F4DC
:101310009F7051F0F8019581907F31F4FB2CA2CFA2
:101320009F7011F08823D1F3805E8830B8F3C80134
:101330000E94D305BA2CF2CFEE2009F493CF80910E
:10134000D90181608093D901F12C8CCFD21205C0D4
:101350009C1103C0EE2009F487C0C8010E9430062A
:10136000882319F1EE2009F18091D901803270F0C3
:101370002091D4013091D50138872F8319869B861F
:101380008A868C87CE0107960E94D30586E0F801F5
:10139000A4EDB1E001900D928A95E1F70E947708E3
:1013A0000E944908FF24F3945DCFC8010E94D30531
:1013B000F9CF311112C0782D998A888AA6016E2D35
:1013C00089890E94370684ED91E00E94D30586E06A
:1013D000F50111928A95E9F776CFD2120FC09C11D0
:1013E0000DC0E1100BC015968C93C8010E94D30567
:1013F00086E0F50111928A95E9F734CFC8010E9481
:101400003006882391F2EE2081F28091D90180325A
:1014100008F4BCCF2091D4013091D5013A832983BF
:101420001B829D828C828E83CE010196ADCFE83CDB
:10143000F10508F040C0FE2CEE2009F4B6CFD21220
:101440002CC09C112AC08091D90180FD1DC0982F0D
:10145000907FD1F015968C931597903F39F0982F87
:10146000907F905F8F70892B15968C93C8010E9496
:10147000D30586E0F801A4EDB1E001900D928A95C4
:10148000E1F70E944908EECE86E0F801A4EDB1E054
:1014900001900D928A95E1F7E5CEC8010E943006D1
:1014A000811174CF8091D90181608093D901C801E5
:1014B0000E94D305D7CE782D998A888AA6016E2DF1
:1014C00089890E94370686E0F50111928A95E9F72D
:1014D000D8CFEE2009F469CFC8010E943006F82E5B
:1014E000882309F462CF86E0F801A4EDB1E0019011
:1014F0000D928A95E1F784ED91E00E94B3020E947B
:101500007708BFCF81E08E25E9CE81E08E25C7CE5A
:101510001F93CF93DF93CDB7DEB72C970FB6F89418
:10152000DEBF0FBECDBF4F83588769877A878B8711
:101530009C87CE0107960E94CD08882369F08A8592
:101540009B85892B39F04F815885842F85238F3FC8
:1015500009F071C016E05FC086E0FE013796DE013B
:10156000119601900D928A95E1F78A859B85892BCA
:1015700089F38F81988589238F3F61F32091A3019F
:1015800030E0C9010196877099274091A201481760
:10159000190671F40E940D061092A3011092A20187
:1015A00086E0E4EDF1E0DF011D928A95E9F7D2CF04
:1015B00096E0929FD001939FB00D1124AC55BE4F81
:1015C000FE01319601900D929A95E1F78093A30167
:1015D0000E942808BFCF819FC00111248C559E4FC7
:1015E0000E94CD088823E9F0E091A2011E9FF0013E
:1015F0001124EC55FE4F40815181628173818481B9
:1016000095810E9446068091A20190E00196877024
:1016100099278093A2018091A2019091A30189133F
:10162000DACF2C960FB6F894DEBF0FBECDBFDF9198
:10163000CF911F91089569857A858B859C850E943D
:10164000460688CF682F80910001909101010C948B
:10165000DD13682F80910001909101010C94DF133C
:1016600080910001909101010C94E1138091DA01C5
:1016700085958595859508958091DA0187700895FF
:101680009091DA01977081E009F480E008959091DB
:10169000130292FB222720F9281751F080FB92F9C0
:1016A0009093130280911202909113020C943F0CBC
:1016B00008958091130282FB882780F991E08927A1
:1016C0000C94470B81E00C94470B80E00C94470B83
:1016D0008091E60108959091E601892B8093E601BF
:1016E000089580959091E60198239093E6010895DE
:1016F0001092E60108959091E501892B8093E50110
:10170000089580959091E50198239093E5010895BF
:101710001092E50108951092E40108958091DB0193
:10172000089508950C94910B9091130292FD08C0B6
:101730009091DB01981721F08093DB010C94920BC0
:1017400008958091DB01882329F01092DB0180E06D
:101750000C94920B0895E0910001F09101018091A9
:10176000E6018083E0910001F09101018081909178
:10177000E501892B8083E0910001F09101018081D6
:101780009091E401892B80839091DB01992381F072
:10179000E0910001F09101018081892B808380918B
:1017A0000001909101010E94951381110E94A10BEB
:1017B00080910001909101010C945E1308950C94A6
:1017C000DE0B9091130292FD10C098E0899F90016A
:1017D0001124622B6093DA010E94C8068091DA011D
:1017E0008595859585950C94DF0B0C94C806109211
:1017F000DA0180E00C94DF0B9091DA018095892367
:101800008093DA01282F277039F4282F082E000C36
:10181000330B9217130621F49091130292FF07C025
:101820008595859585950E94E9060C94F70B08959A
:101830006FEF7FEF90E080E00C948C1B90E080E0F5
:101840000E94681B21E0893E9E4F09F020E0822F14
:10185000089582E090E00C94601B83E090E00C948B
:10186000601BCF9384E090E00E94601BC82F82E24F
:1018700090E00E94601B982F8C2FCF910895CF93FA
:10188000C92F682F84E090E00E946E1B6C2F82E2CB
:1018900090E0CF910C946E1BAB01BC018FE090E007
:1018A0000C94801BAB01BC0183E190E00C94801B85
:1018B00060E070E0CB010C94520C60E070E0CB0172
:1018C0000E944C0C0C94580C69EE7EEF90E080E086
:1018D0000E948C1B60E082E090E00E946E1B60E042
:1018E00083E090E00E946E1B10929E0110929F0177
:1018F0001092A0011092A10160E084E090E00E94AB
:101900006E1B60E082E290E00E946E1B60E085E06A
:1019100090E00E946E1B60E086E090E00E946E1BEB
:101920006FEF87E090E00E946E1B40E050E0BA014C
:1019300088E090E00E94801B60E08DE090E00E94D3
:101940006E1B40E050E0BA0188E190E00E94801BED
:1019500060E087E190E00E946E1B40E050E0BA0139
:101960008CE190E00E94801B70E060E080E290E0FB
:101970000E948C1B40E050E0BA0188E190E00E9498
:10198000801B0C945D0C0C94640C682F8EE090E02E
:101990000C946E1B0E9478146093F2017093F30113
:1019A0008093F4019093F5016093EE017093EF0141
:1019B0008093F0019093F101089585B7806885BF09
:1019C00085B7806885BF0895089508950C94E40C48
:1019D00008950C94E80C0E94DD0C81E99FE00E94C0
:1019E000C8140E94E50C0C94E60C81E008950C9458
:1019F000F50C089508950E94F90C0C94FA0C0E94BD
:101A000063140E948F100C94E90C8F929F92AF92F6
:101A1000BF92CF92DF92EF92FF920F931F93CF93DB
:101A2000DF93CDB7DEB72A970FB6F894DEBF0FBEAF
:101A3000CDBF0E94AB1081110E94CA0C58EE852EBA
:101A400051E0952E10E000E0A02E802F0E94D50FCF
:101A50006C01F401E190F1904F01E816F90609F4E8
:101A60005AC08091F60181FD0E94DE0FC7018C25CE
:101A70009D25B12CEE24E394F12C9C012E213F21D5
:101A8000232B09F442C00E94F70C8823A9F0BE82E0
:101A9000AF82CE20DF2081E0CD2809F480E0888766
:101AA0000E946C148160782F9A8789874E815F81AC
:101AB00068858A850E947502000F111FF801E851A0
:101AC000FE4F80819181E826F926F182E0820E9412
:101AD00052139091E7018917A9F10E945213809344
:101AE000E7012A960FB6F894DEBF0FBECDBFDF9197
:101AF000CF911F910F91FF90EF90DF90CF90BF900B
:101B0000AF909F908F900C946D02B394EE0CFF1CDD
:101B1000FCE0BF12B2CF0F5F1F4F0330110509F079
:101B200093CF8FEF89838A831B820E946C1481601C
:101B3000782F9D838C8349815A816B818D810E948E
:101B40007502C5CF2A960FB6F894DEBF0FBECDBF83
:101B5000DF91CF911F910F91FF90EF90DF90CF9089
:101B6000BF90AF909F908F900895CF93DF930E9486
:101B7000B70EEC01811522E59207E8F5811531E5F4
:101B8000930708F0ACC0883E910510F5803E9105A2
:101B900070F5883A910570F4853A910508F078C09F
:101BA0008130910521F1009711F1049700F5D0E003
:101BB000C0E01DC08F3B9105D0F7C85AD0E0CC0FD4
:101BC000DD1FC25CDE4F0990D881C02DD4640FC0E8
:101BD000811540E5940708F066C0C11580E4D80778
:101BE00008F05EC0CE019A9581159F4100F7CE01A5
:101BF000DF91CF910895811536E5930718F581158A
:101C000045E5940708F083C0C11584E5D80708F0BE
:101C100079C09C2F969596959E0123703327C11508
:101C2000D34508F461C0C1E0D0E002C0CC0FDD1F95
:101C30002A95E2F730E2939FC0011124C82BD92BDB
:101C4000DA68D5CFC1158AE5D80778F4C11599E5CA
:101C5000D90708F066C0C11528E5D20708F4A7CF58
:101C6000DC2FCC27C06FD06AC2CFCE019056811531
:101C7000904208F09CCF8D2F8F710E944E0F90E004
:101C8000982F882788279F719C012C2BE90147C03A
:101C9000C55AD0E0C459DE4FC881D0E0D064A7CF88
:101CA000DF70D06AA4CFE4E096958795EA95E1F7D6
:101CB00083702C2F26952695237040E2249F900157
:101CC0001124382B8C2F8370C1E0D0E002C0CC0FE0
:101CD000DD1F8A95E2F7C22BD32BDC6888CFD82F83
:101CE000CC27C16FD06A83CFC1E0D0E002C0CC0F57
:101CF000DD1F2A95E2F720E2929FC0011124C82B34
:101D0000D92BEBCFDC2FCC27C46FD06A70CF0E94C9
:101D10004E0FC82FD0E0DC2FCC27CC27DF71D0624C
:101D200066CF8C2F8F700E944E0F34E0D695C795EA
:101D30003A95E1F7CF709C2FEC01D06958CF972FDF
:101D400070E02CE0929F600D711D1124FB0194E264
:101D5000899FE00DF11D1124EE0FFF1FE455FF4F89
:101D60008591949108950E949F0E0C94B50D823830
:101D70009105B1F1B0F48133910509F475C048F4CF
:101D80008932910509F469C08A32910509F473C05A
:101D900008958533910509F459C08933910501F1FE
:101DA0000895833E9105A9F138F4803E9105F9F03C
:101DB000823E910549F10895863E9105A9F1873E3D
:101DC0009105C9F1843E910519F52091130221FF77
:101DD0001FC08091120284FD14C087EE90E0089528
:101DE000209112022370A1F080EE90E008952091DE
:101DF000120220FD47C03091130230FF09C024FFBA
:101E000044C090E080E004C02091120222FDF7CF90
:101E100008952091120222FD3BC03091130230FD43
:101E2000E3CF24FFF5CFEDCF2091120223FFF0CFB7
:101E300024FDE7CFD2CF2091120223FD2CC0309198
:101E4000130231FFEECF84EE90E00895209112024C
:101E500025FFDECF89E290E008952091120225FF50
:101E6000D7CF85E390E008952091120226FFD0CFCE
:101E70008AE290E008952091120226FFC9CF81E303
:101E800090E0089589E390E0089583EE90E008954E
:101E900082EE90E0089586EE90E00895909112020F
:101EA00092FF06C0282F28712830F9F4877F8460BC
:101EB00093FF06C0282F28712831F1F4877E8461B2
:101EC0002091130220FF06C0382F38713830D9F422
:101ED000877F816021FF06C0282F28712831D1F427
:101EE000877E816194FD877E0895282F2471243098
:101EF000F9F68B7F8860DCCF282F2471243101F71D
:101F00008B7E8861DDCF382F3171313019F78E7FAC
:101F10008860E0CF282F2171213121F78E7E8861E2
:101F2000E1CF80E008950C94180C0E94AB108FE371
:101F30009CE90197F1F700C000000E94AB1080E01F
:101F40000E94D50F93FF04C00E94930F0C94B71406
:101F500008950C94950F0E941E0C811102C00E94DE
:101F6000C30C0E94290C8093F6010E94310C9093BF
:101F70001302809312020E94A90F0E942D0C682F59
:101F800070E090E080E00E94660660919A01709196
:101F90009B0180919C0190919D010C94A006089555
:101FA0000C94CF0F08950C94D20FE82FF0E0EE0FB1
:101FB000FF1FE65EFD4F808191810895089580EABC
:101FC0008A95F1F7089500C008950C94DF0FF894F6
:101FD000E82FE295EF70F0E031A1282F2F7081E01B
:101FE00090E001C0880F2A95EAF7982F90959323E7
:101FF00091A392A1892B82A378940895CF93DF9324
:1020000082E30E94E70F81E30E94E70F87EF0E94BF
:10201000E70FCFE6D1E089918F3F11F00E94E70FE3
:1020200081E0CB37D807B9F7DF91CF910895AF9210
:10203000BF92CF92DF92EF92FF920F931F93CF93B5
:10204000DF938C01B62EC62FD0E0CE0185589E4F6F
:102050007C01FC0120812F3F09F453C0F894E22F4A
:10206000E295EF70F0E031A12F7081E090E001C0C7
:10207000880F2A95EAF7932F982B91A392A1809528
:10208000892382A378940E94E30FEFE6F1E030E029
:1020900020E0D12CC12C41E050E081918F3FE1F153
:1020A000A82FA295AF70B0E090966C9170E08F7001
:1020B00002C0759567958A95E2F760FD2DC0CA014B
:1020C000022E02C0880F991F0A94E2F7C82AD92A63
:1020D0002F5F3F4F2C30310501F7F70180818F3F93
:1020E00011F00E94E70F61E0C114D10409F460E02F
:1020F0008B2D0E94E50FCC0FDD1FC00FD11FD982A1
:10210000C882DF91CF911F910F91FF90EF90DF90E8
:10211000CF90BF90AF90089590E080E0D7CF0E941D
:10212000FE0FA4E1B2E011961C921E92EAE1F2E0E9
:102130001182108213961C921E92129713821282A1
:1021400015961C921E9214971582148283E00E94A9
:10215000F6100C94FB01FF920F931F93CF93DF9324
:1021600000D000D000D0CDB7DEB78E010F5F1F4F7B
:1021700086E0F80111928A95E9F760E0C8010E94B3
:10218000171061E0C8010E94171062E0C8010E94A8
:10219000171046E050E0B80184E192E00E94531B22
:1021A000FF24F394009709F4F12C892B41F086E089
:1021B000F801A4E1B2E001900D928A95E1F72F2D8C
:1021C00043E06AE172E084E192E00E94F7100E942D
:1021D00001028F2D26960FB6F894DEBF0FBECDBF3D
:1021E000DF91CF911F910F91FF9008950895FF9275
:1021F0000F931F93CF93DF93F82E092F162FD72F0E
:10220000C42F222349F081E08093F9010E946C14CD
:102210009093F8018093F7018091F9018823A1F050
:102220008091F7019091F8010E948414059760F065
:10223000EF2DF02FA12FBD2F90E080E0D0E08C1784
:102240009D0744F01092F901DF91CF911F910F91FA
:10225000FF900895219131912D933D930196EFCFF9
:102260000E94E8130E9406160E941F160E94311653
:102270000E94FB0CFBCF0F931F93CF93DF93C42FD0
:10228000D22FFC0182818823C9F04093FC010E9477
:102290006C149093FB018093FA0180E28C0F8830DC
:1022A00008F050C0C77081E001C0880FCA95EAF7F6
:1022B000DF91CF911F910F910C94B0031091FC010D
:1022C000141335C08091FA019091FB010E9484148F
:1022D000883C910560F5C0E2CD0F1D17B9F080E292
:1022E000810F883040F4177081E001C0880F1A9583
:1022F000EAF70E94B703C83048F481E09D2F977039
:1023000001C0880F9A95EAF70E94B003802F0E94BF
:10231000A803C830B8F4D77081E001C0880FDA95FF
:10232000EAF7DF91CF911F910F910C94B70380E2F0
:102330008C0F883038F4C77081E001C0880FCA95CF
:10234000EAF7EFCFDF91CF911F910F9108950F938F
:102350009C01CB01243F4CE5340759F1A8F4293DF9
:10236000FCE53F0701F12A3D4CE53407D1F1283D5A
:102370003C4591F406E221EE41EE68ED7CE50E94D9
:102380003B1180E00F910895263FFCE53F07E9F0FF
:10239000B0F0273F3C45F9F0FC018281882339F1F8
:1023A0001092FC01EFCF07E225EE45EE69ED7CE5EA
:1023B000E6CF06E221EE40EE64EF7CE5E0CF07E2F7
:1023C00025EE44EE65EF7CE5DACF06E221EE42EE43
:1023D00066EF7CE5D4CF07E225EE46EE67EF7CE5BD
:1023E000CECF08E221E045EE6AED7CE5C8CF81E082
:1023F000C9CFCF93DF93EC01FB018281882309F4DD
:1024000020C1C430FDE5DF07C8F5CB3F9CE5D90707
:1024100030F49E0122503C452431310598F50E944C
:10242000310C9093130280931202C031FCE5DF0758
:1024300009F4E0C008F061C0C8309CE5D90709F490
:10244000CBC088F5C430FCE5DF0709F4B3C0E8F47D
:10245000C2309CE5D90709F4A7C0809112028260BE
:10246000C330DC4509F4A3C080911202909113029D
:102470000E943F0C0E940D0680E004C0C236EDE5CC
:10248000DE0769F2DF91CF91089580911202806199
:10249000C630FCE5DF0709F48AC008F48FC08091DC
:1024A0001202806284C0809112028D7FCC309CE544
:1024B000D90709F47CC070F4809112028C60CA3094
:1024C000FCE5DF0709F473C008F48AC080911202AA
:1024D0008E7F6DC080911202877FCE309CE5D90738
:1024E00009F465C0809112028B7FCF30DC4508F47F
:1024F0005EC0809112028F7E5AC0CD3FFCE5DF079F
:1025000009F474C040F5C4319CE5D90709F48AC0C8
:1025100058F4C231FCE5DF0709F474C008F46EC05A
:1025200080911202837F43C0CB3F9CE5D90709F419
:1025300049C008F04DC0C531DC4509F095CF809108
:10254000120282FB992790F921E0922790FB82F9F1
:1025500090FB83F92CC0C1308DE5D80709F458C031
:1025600088F4809113028360CF3FECE5DE0769F1C8
:10257000809113028D7FC115DD4538F180911302E2
:102580008C7F23C0C3308DE5D80709F458C008F408
:1025900052C0C236DD4509F067CF90911202892FF3
:1025A0008F7E94FF806103C08091120281608093CE
:1025B00012025ACF809112028460F9CF80911202E8
:1025C0008860F5CF809113028160809313024CCF15
:1025D000809113028260F9CF809112028064E7CF6C
:1025E0000E940D06809112028068E1CF8091130253
:1025F0008E7FEBCF809112028F7DD9CF8091120216
:102600008F7BD5CF0E940D06809112028F77CFCF9E
:1026100080911302982F909591708E7F892B90FB5B
:1026200081F9D3CF0E940D0690911202892F97FB5A
:1026300087F98058BCCF81E00E94C50C15CF80E09F
:10264000FBCF81E01FCFCF93DF93EB0186319C4519
:1026500011F50E94680B9A81992399F08A7A91E08A
:1026600009F490E09093FD01811109C089E20E9474
:10267000220B0E94AB0B80E0DF91CF91089585E3A0
:10268000F6CF8091FD01811104C089E20E94290BDF
:10269000F0CF85E3FBCF81E0EFCF909303028093EF
:1026A00002020895E0910202F0910302309721F0B6
:1026B0000190F081E02D099480E00895E0910202FC
:1026C000F0910302309721F00280F381E02D09940C
:1026D000089520910002309101022817390771F006
:1026E0009093010280930002E0910202F0910302B4
:1026F000309721F00680F781E02D0994089520910C
:10270000FE013091FF012817390771F09093FF0106
:102710008093FE01E0910202F0910302309721F0D4
:102720000084F185E02D099408959C012E5F3F4FB0
:10273000AC01485F5F4F80E02417350709F4089526
:10274000F90191919F019923B9F38F5FF5CF66232A
:1027500049F0FC01329608962191261729F0E817D6
:10276000F907D1F780E0089581E008959C01FC010C
:1027700032969FEF80E04191461751F09F3F19F448
:10278000411101C0982F8F5F8630A9F79F3F09F450
:102790000895290F311D97FD3A95F9016283089537
:1027A000FC01329608962191261303C0DF01119790
:1027B0001C92E817F907B9F708950C94B6130C9416
:1027C000D013029626E0FC0111922A95E9F70895AC
:1027D0000895089508950C94EA1380912802843096
:1027E00049F10E94EB1380E00E946D0210920402F6
:1027F00088E190E020E40FB6F894A89580936000FB
:102800000FBE2093600083B7817F846083BF83B74E
:10281000816083BF7894889583B78E7F83BF0FB61E
:10282000F894A89580916000886180936000109270
:1028300060000FBE08950895CF930E94E9130E948F
:10284000AB100E941B14C0E08C2F0E94D50F892B67
:1028500031F4CF5FC330C1F780E0CF91089581E0BC
:10286000FCCF08950C9431140E940D060E9452135F
:102870000E946D020C9432141F921FB61F921124F5
:102880008F939F93AF93BF9380910402811113C0E4
:102890008091200290912102A0912202B091230206
:1028A0004196A11DB11D8093200290932102A09317
:1028B0002202B0932302BF91AF919F918F911F90FD
:1028C0001FBE1F90189582E084BD93E095BD9AEFDE
:1028D00097BD80936E0008952FB7F89480912002E1
:1028E00090912102A0912202B09123022FBF08955E
:1028F0002FB7F894609120027091210280912202FA
:10290000909123022FBF08959C014FB7F8948091B6
:10291000200290912102A0912202B09123024FBF88
:10292000821B930B089578941F921FB61F92112457
:102930008F939F93AF93BF93809120029091210238
:10294000A0912202B09123020196A11DB11D809396
:10295000200290932102A0932202B0932302BF9100
:10296000AF919F918F911F901FBE1F90189587E781
:1029700097E7909301088093000888E19AE00FB6EA
:10298000F894A895809360000FBE90936000FFCFED
:1029900090937F0180937E010895809110020895A5
:1029A00090912802943031F58093050270930702CC
:1029B0006093060282E08093E9008FEF9091E80037
:1029C000815095FD06C095ED9A95F1F700008111B3
:1029D000F5CF8091E80085FF0DC050E040E063E056
:1029E00070E085E092E00E94BC168091E8008E774E
:1029F0008093E8000895BC0184E00C94D014BC01DD
:102A000083E00C94D014CF93DF93EC0181E08093AA
:102A1000E9008FEF9091E800815095FD06C095ED9B
:102A20009A95F1F700008111F5CF8091E80085FFBC
:102A300014C050E040E068E070E0CE010E94BC1697
:102A40008091E8008E778093E80088E0FE01A8E09E
:102A5000B2E001900D928A95E1F7DF91CF91089550
:102A6000089580912702811109C00E944C180E948C
:102A7000A9188091E20084608093E200089510928A
:102A80002702089508950895089542E061EC81E0D9
:102A90000E94C81742E261EC82E00C94C817809152
:102AA0002A02833009F45FC030F48130C1F18230F2
:102AB00009F49BC008958A3009F487C08B3009F46B
:102AC0006DC0893009F04EC080912902813209F031
:102AD00049C080912D0290912E02029708F042C0C9
:102AE0008091E800877F8093E8008091E80082FF72
:102AF00035C09091F3008091F200029729F4809103
:102B0000F1008B7F813021F48091F10080931002DD
:102B10008091E8008B778093E8000C94FC178091FB
:102B20002902813AF9F48091E800877F8093E800D8
:102B300080912D0290912E02892B61F468E088E04B
:102B400092E070E00E940B178091E8008B778093F1
:102B5000E800089560E090E080E0F3CF80912802E3
:102B60008111C3CF089580912902813AD9F78091CC
:102B70002D0290912E02892BA9F78091E800877F82
:102B80008093E8008091E80080FFFCCF80910C01E9
:102B90008093F1008091E8008E77BDCF809129026B
:102BA000813201F780912D0290912E02892BD1F66E
:102BB0008091E800877F8093E8000E94FC17809155
:102BC0002B0280930C010C940D0680912902813216
:102BD00049F68091E800877F8093E8000E94FC1707
:102BE00080912C0280931102089580912902813AEC
:102BF00009F0B8CF8091E800877F8093E80080914A
:102C0000E80080FFFCCF80911102C2CF84B7877F9C
:102C100084BF0FB6F894A895809160008861809376
:102C20006000109260000FBE80E890E00FB6F8944C
:102C300080936100909361000FBE0C94EB0C0E9496
:102C40004C180E94A918E2EEF0E080818460808335
:102C500078940E94321B0E94FF0C82E091E00C9459
:102C60004D1380912802853031F4809128028530FF
:102C700021F00E9434140C94050D0E94ED138091F4
:102C80002602882391F30E941C14882371F30E946A
:102C9000A6160E940D06E9CF0C944E16292F332755
:102CA0002330310519F168F42130310509F444C0AD
:102CB0002230310509F445C090E080E030E020E0AA
:102CC00025C02132310549F122323105A9F780E4CE
:102CD00090E02FE732E061157105C1F082E390E0EA
:102CE0002DE432E06130710589F0E6CF992781301B
:102CF000910581F0009729F00297F1F6ECECF1E0F4
:102D000002C0ECEFF1E0849190E09F01FA01318381
:102D100020830895ECEDF1E0F6CF89E090E022E128
:102D200032E06115710591F389E090E02BE232E029
:102D30006130710559F3C0CF82E190E02BE332E0BE
:102D4000E5CF8BE390E020E032E0E0CF80E189BD89
:102D500082E189BD09B400FEFDCF8091D8008F7D4E
:102D60008093D8008091E00082608093E0008091A1
:102D7000E00081FDFCCF0895AF92BF92CF92DF9229
:102D8000FF920F931F93CF93DF936C01EB018A01A6
:102D90000E941B18F82E811123C00115110539F06E
:102DA000F80180819181C81BD90BC80ED91EB12CA6
:102DB000A12C2097A9F08091E80085FD22C0809188
:102DC000E8008E778093E80001151105A1F0F80165
:102DD00080819181A80EB91EB182A08285E0F82E73
:102DE0008F2DDF91CF911F910F91FF90DF90CF90AA
:102DF000BF90AF9008950E941B188823D1F2F82E3F
:102E0000EFCFF60181916F018093F1002197FFEFE1
:102E1000AF1ABF0ACECFFC0180912F0290913002F1
:102E200086179707A0F06115710529F49091E800C5
:102E30009E779093E80090E06115710551F491112F
:102E400008C08091E80082FF34C080E00895BC0192
:102E5000F2CF809128028823C1F18530C1F18091A1
:102E6000E80083FD30C08091E80082FDEACF8091C8
:102E7000E80080FFE1CF8091F3002091F200382F2D
:102E80006115710519F02830310558F091E02830AE
:102E9000310509F090E02091E8002E772093E800BA
:102EA000CBCF81918093F100615071092F5F3F4F2B
:102EB000E7CF80912802882341F0853041F080914E
:102EC000E80083FFBECF81E0089582E0089583E0AB
:102ED0000895FC0180912F02909130028617970788
:102EE000A0F06115710529F48091E8008E77809338
:102EF000E80090E06115710551F4911108C08091CE
:102F0000E80082FF35C080E00895BC01F2CF8091D7
:102F100028028823C9F18530C9F18091E80083FD3A
:102F200031C08091E80082FDEACF8091E80080FF07
:102F3000E1CF8091F3002091F200382F61157105E7
:102F400019F02830310558F091E02830310509F0AA
:102F500090E08091E8008E778093E800CBCF849159
:102F60008093F1003196615071092F5F3F4FE6CF9A
:102F700080912802882341F0853041F08091E8005B
:102F800083FFBDCF81E0089582E0089583E0089536
:102F9000982F973028F08F708093E90081E0089592
:102FA0009093E900242F762F50E0981731F070911C
:102FB000EC002091ED005091F00021FD02C09F5FD8
:102FC000E8CF3091EB003E7F3093EB003091ED0085
:102FD0003D7F3093ED003091EB0031603093EB009A
:102FE0007093EC002093ED005093F0002091EE00E0
:102FF00027FDE5CF80E008958091290287FF13C067
:103000008091E80082FF06C08091E8008B77809372
:10301000E80004C0809128028111F2CF08958091C8
:1030200028028823D9F38091E80080FFF8CF8091AF
:10303000E8008E77ECCF2091E4003091E50095E632
:10304000A9012091EC00822F817020FF06C08091A1
:10305000E80080FF06C080E008952091E80022FD8E
:103060001AC080912802882389F0853089F08091E8
:10307000EB0085FD0FC02091E4003091E500421780
:103080005307F9F29150E1F684E0089582E0089543
:1030900083E0089581E008950E94BA180E94C21842
:1030A000E0EEF0E0808181608083E8EDF0E08081F7
:1030B0008F77808319BCA7EDB0E08C918E7F8C93C5
:1030C00080818F7E80831092270208950F931F9333
:1030D000CF93DF930E94BA180E94C218C8EDD0E0C7
:1030E00088818F77888388818068888388818F7DB5
:1030F000888319BC10922802109224021092260292
:103100001092250200EE10E0F80180818B7F808311
:1031100088818160888342E060E080E00E94C81777
:10312000E1EEF0E080818E7F8083E2EEF0E080814E
:1031300081608083808188608083F80180818E7FB8
:103140008083888180618883DF91CF911F910F9167
:103150000895E8EDF0E080818F7E8083E7EDF0E078
:1031600080818160808384E082BF81E08093270238
:103170000C946618E8EDF0E080818E7F80831092D9
:10318000E20008951092DA001092E10008951F9273
:103190000F920FB60F9211242F933F934F935F938B
:1031A0006F937F938F939F93AF93BF93EF93FF930F
:1031B0008091E10082FF0BC08091E20082FF07C096
:1031C0008091E1008B7F8093E1000E94311B809110
:1031D000DA0080FF19C08091D80080FF15C080916F
:1031E000DA008E7F8093DA008091D90080FF96C04C
:1031F00080E189BD82E189BD09B400FEFDCF81E097
:10320000809328020E9431158091E10080FF19C04F
:103210008091E20080FF15C08091E2008E7F809354
:10322000E2008091E20080618093E2008091D8000A
:1032300080628093D80019BC85E0809328020E94A8
:1032400043158091E10084FF2BC08091E20084FF50
:1032500027C080E189BD82E189BD89B5982F917031
:1032600080FFFBCF8091D8008F7D8093D800809124
:10327000E1008F7E8093E1008091E2008F7E809359
:10328000E2008091E20081608093E200809124025C
:10329000882309F449C084E0809328020E944415E1
:1032A0008091E10083FF29C08091E20083FF25C067
:1032B0008091E100877F8093E10082E08093280283
:1032C000109224028091E1008E7F8093E100809132
:1032D000E2008E7F8093E2008091E2008061809323
:1032E000E20042E060E080E00E94C8178091F000B8
:1032F00088608093F0000E944215FF91EF91BF918A
:10330000AF919F918F917F916F915F914F913F917D
:103310002F910F900FBE0F901F90189519BC10920F
:1033200028020E943F1570CF8091E30087FD93E053
:1033300090932802B3CF1F920F920FB60F921124D1
:103340002F933F934F935F936F937F938F939F93AD
:10335000AF93BF93CF93DF93EF93FF93D091E900A7
:10336000DF708091EC00C82FC17080FDC0E8109222
:10337000E9008091F000877F8093F00078940E94AC
:10338000DF191092E9008091F00088608093F000CE
:10339000CD2BCF70C093E900FF91EF91DF91CF91DA
:1033A000BF91AF919F918F917F916F915F914F915D
:1033B0003F912F910F900FBE0F901F9018951F9364
:1033C000CF93DF93CDB7DEB7AA970FB6F894DEBFE1
:1033D0000FBECDBF89E292E02091F100FC01219364
:1033E000CF01F2E081339F07B9F70E944F1580911A
:1033F000E80083FF1EC18091290290912A029A3031
:1034000008F017C1E92FF0E0E254F44E0C944D1B84
:10341000803899F0823809F00CC180912D028F70AC
:10342000873008F006C18093E9008091EB0085FBAE
:10343000882780F91092E90006C0809125029091BA
:103440002602911182609091E800977F9093E800A6
:103450008093F1001092F1008091E8008E77E5C032
:10346000882309F4D3C0823009F0E3C080912B0295
:103470008111D6C080912D028F702FEF280F26303A
:1034800008F0D7C08093E9002091EB0020FFC8C06E
:10349000933031F48091EB0080628093EB00C0C0E8
:1034A0009091EB0090619093EB0021E030E001C03F
:1034B000220F8A95EAF72093EA001092EA008091A1
:1034C000EB008860EACF8111B4C010912B021F7706
:1034D0008091E3008078812B8093E3008091E80065
:1034E000877F8093E8000E94FC178091E80080FFAE
:1034F000FCCF8091E30080688093E30082E01111AB
:1035000083E08093280295C08058823008F091C0F3
:1035100080912B0290912C028C3D23E09207A1F523
:1035200083E08A838AE289834FB7F894DE01139699
:1035300020E03EE051E2E32FF0E050935700E491A9
:1035400020FF03C0E295EF703F5FEF708E2F90E099
:10355000EA30C0F0C7968D939D932F5F243159F7C1
:103560004FBF8091E800877F8093E8006AE270E0B7
:10357000CE0101960E940B178091E8008B77809313
:10358000E80057C0C096E7CF60912D0270912E02DF
:10359000AE014F5F5F4F0E944C16BC01892B09F4AE
:1035A00048C09091E800977F9093E80089819A81C4
:1035B0000E946917E1CF8038E1F58091E800877FAC
:1035C0008093E800809124028093F10045CF81111F
:1035D00030C090912B02923060F58091E800877F97
:1035E0008093E800909324020E94FC1780912402AB
:1035F000882311F084E005C08091E30087FDFACFB5
:1036000081E0809328020E94451513C080912B020F
:10361000813079F481E0933009F080E080932602D4
:103620001092E9008091E800877F8093E8000E9473
:10363000FC178091E80083FF0AC08091E800877F33
:103640008093E8008091EB0080628093EB00AA9663
:103650000FB6F894DEBF0FBECDBFDF91CF911F91A3
:1036600008950895CF93809128028823A1F0C091F6
:10367000E900CF709091EC00892F817090FD80E877
:10368000C82B1092E9008091E80083FD0E94DF19A9
:10369000CF70C093E900CF910895EE0FFF1F059002
:1036A000F491E02D0994FB01DC0104C08D9101909F
:1036B000801921F441505040C8F7881B990B089598
:1036C000F999FECF92BD81BDF89A992780B50895EA
:1036D000A8E1B0E042E050E00C94941B262FF99949
:1036E000FECF92BD81BDF89A019700B4021639F061
:1036F0001FBA20BD0FB6F894FA9AF99A0FBE089532
:103700000396272F0E946F1B0E946E1B252F0E947D
:103710006F1B242F0C946F1B0196272F0E946F1B89
:103720000C946E1BDC01CB01FC01F999FECF06C0A5
:10373000F2BDE1BDF89A319600B40D92415050406F
:10374000B8F70895F894FFCFF503F5034D044D0441
:103750009F04220422042204BB0447055605560593
:103760001C061C0625062506270625062506250611
:103770001C061C062C06250625062C06081A301ADF
:10378000191B301A191B631A841A191BDB1AE71A42
:10379000DC01CD1403153015FF14FB1401E200E920
:1037A00000EA00B500B600B700CD008301CC008A66
:1037B00001920194012102230224022502260227FC
:1037C000022A02B300B4006F007000818283E2001D
:1037D000E900EA00B500B600B700CD008301CC00D7
:1037E0008A01920194012102230224022502260269
:1037F00027022A02B300B4006F0070008182839216
:0E380000939190946697C6343536333231F783
:00000001FF
