:100000000C94D9010C9420020C9420020C94200230
:100010000C9420020C9420020C9420020C942002D8
:100020000C9420020C9420020C94A9160C946516D2
:100030000C94A4170C9420020C9420020C9420021F
:100040000C9420020C9420020C9420020C942002A8
:100050000C9420020C9480170C9420020C94200223
:100060000C9420020C9420020C9420020C94200288
:100070000C9420020C9420020C9420020C94200278
:100080000C9420020C9420020C9420020C94200268
:100090000C9420020C9420020C9420020C94200258
:1000A0000C9420020C9420020C942002050109807B
:1000B000A101850319012AB700150126B700950192
:1000C00075108100C0050C0901A101850419012AE0
:1000D000A002150126A002950175108100C00660DE
:1000E000FF0961A1010962150026FF00952075082E
:1000F00081020963150026FF00952075089102C052
:1001000005010906A101050719E029E715002501E8
:10011000950875018102950175088101050719008F
:1001200029FF150026FF00950675088100050819AE
:10013000012905950575019102950175039101C08D
:1001400000000000000000000000000000000000AF
:10015000000000000000000000000000000000009F
:10016000000000007E0F00D4FFFFFFC700000078F2
:1001700000000000000000002A2B28000000000002
:100180000000000000000000000000290000000046
:100190002C1E3420212224342627252E362D3738B4
:1001A000271E1F202122232425263333362E3738BD
:1001B0001F0405060708090A0B0C0D0E0F1011127B
:1001C000131415161718191A1B1C1D2F3130232D47
:1001D000350405060708090A0B0C0D0E0F10111245
:1001E000131415161718191A1B1C1D2F3130354CF6
:1001F000000014001A000800150017001C00180069
:100200000C00120013002A00E00004001600070092
:1002100009000A000B000D000E000F000000000096
:10022000E1001D001B000600190005001100100070
:100230002C00280000000000000001000100010067
:1002400001000100010001000100010001000100A6
:100250000100010001000100010001000100010096
:100260000100010000000000010001000100010088
:100270000100010001000100010001000000000078
:100280000000010001000100010001000100010067
:100290000100010001000100010001000100010056
:1002A0000100010001000100010001000000000048
:1002B0000100010001000100010001000100010036
:1002C0000100010000000000000001000100010029
:1002D0000100010001000100010001000100010016
:1002E0000100010001000100010001000100010006
:1002F00001000100000000000100010001000100F8
:1003000001000100010001000100010000000000E7
:1003100009025B00030100A0FA09040000010301C7
:100320000100092111010001224000070581030895
:10033000000A090401000203000000092111010064
:100340000122220007058203200001070503032084
:10035000000109040200010300000009211101004D
:10036000012232000705840320000A120100020066
:100370000000084B52314E0100010200010E034EF5
:10038000006F006D0075003300300000001E037226
:1003900000650063006F006D00700069006C00650F
:1003A0000020006B00650079007300000004030961
:1003B000040011241FBECFEFDAE0DEBFCDBF04B6CC
:1003C00003FE27C08091F4019091F501A091F60100
:1003D000B091F7018730904BA740B04BD1F4109209
:1003E000F4011092F5011092F6011092F70114BE7B
:1003F00084B7877F84BF0FB6F894A895809160007A
:10040000886180936000109260000FBEE0E0F8E326
:10041000099511E0A0E0B1E0E4E1F7E302C0059046
:100420000D92AA35B107D9F721E0AAE5B1E001C0E4
:100430001D92A43FB207E1F70E94CB170C94511B09
:100440000C940000E8EDF0E080818E7F80831092B4
:10045000E2001092DA001092E100A0EEB0E08C9180
:1004600081608C9380818F77808319BCA7EDB0E089
:100470008C918E7F8C9380818F7E80831092D501AA
:1004800008952091E4003091E50095E6A9012091BE
:10049000EC00822F817020FF06C08091E80080FF71
:1004A00006C080E008952091E80022FD1AC08091E6
:1004B000E201882389F0853089F08091EB0085FD89
:1004C0000FC02091E4003091E50042175307F9F284
:1004D0009150E1F684E0089582E0089583E0089564
:1004E00081E00895EF92FF920F931F93CF937C01C9
:1004F0008B010E944102C82F811117C08091E80032
:1005000085FD0BC08091E8008E778093E8000E9403
:100510004102882399F3C82F08C0F70181917F0118
:100520008093F1000150110949F78C2FCF911F9151
:100530000F91FF90EF9008958091E40187FF13C021
:100540008091E80082FF06C08091E8008B7780935D
:10055000E80004C08091E2018111F2CF08958091FA
:10056000E2018823D9F38091E80080FFF8CF8091E1
:10057000E8008E77ECCF982F9093E900242F762F08
:1005800050E0891731F07091EC002091ED0050910E
:10059000F00021FD07C09F5F973071F78093E9005D
:1005A00081E008953091EB003E7F3093EB00309175
:1005B000ED003D7F3093ED003091EB0031603093E2
:1005C000EB007093EC002093ED005093F00020912D
:1005D000EE0027FDE0CF80E00895CF92DF92EF920A
:1005E000FF920F931F93CF93DF93C8EDD0E08881E4
:1005F0008F7E8883E7EDF0E080818160808384E0F6
:1006000082BF81E08093D50188818E7F888302EE4E
:1006100010E0F80110821092DA0081EEC82ED12C81
:10062000F601108288818F7788838881806888832B
:1006300088818F7D888319BC1092E2011092E301BA
:100640001092E1011092E00190EEE92EF12CF701F9
:1006500080818B7F808388818160888342E060E035
:1006600080E00E94BB02F60180818E7F8083F801CA
:10067000808181608083808188608083F7018081B0
:100680008E7F8083888180618883DF91CF911F91E5
:100690000F91FF90EF90DF90CF900895FC01809133
:1006A000EA019091EB0186179707A0F0611571059B
:1006B00029F49091E8009E779093E80090E061150E
:1006C000710551F4911108C08091E80082FF34C097
:1006D00080E00895BC01F2CF8091E2018823C1F14E
:1006E0008530C1F18091E80083FD30C08091E80041
:1006F00082FDEACF8091E80080FFE1CF8091F30096
:100700002091F200382F6115710519F0283031055C
:1007100058F091E02830310509F090E02091E80090
:100720002E772093E800CBCF81918093F100615028
:1007300071092F5F3F4FE7CF8091E201882341F09D
:10074000853041F08091E80083FFBECF81E00895BD
:1007500082E0089583E0089508958091D701089577
:1007600087E797E7909301088093000888E19AE073
:100770000FB6F894A895809360000FBE9093600028
:10078000FFCF2FB7F8948091EC019091ED01A091EB
:10079000EE01B091EF012FBF08952091CF0130916C
:1007A000D0012817390771F09093D0018093CF01C1
:1007B000E091CD01F091CE01309721F00084F185D8
:1007C000E02D099408952091CB013091CC01281798
:1007D000390771F09093CC018093CB01E091CD016A
:1007E000F091CE01309721F00680F781E02D099439
:1007F0000895E091CD01F091CE01309721F0019064
:10080000F081E02D099480E0089580E00895F89447
:10081000E82FE295EF70F0E031A1282F2F7081E0F2
:1008200090E001C0880F2A95EAF7982F90959323BE
:1008300091A392A1892B82A3789408959091B501F8
:1008400092FF06C0282F28712830F9F4877F846032
:1008500093FF06C0282F28712831F1F4877E846128
:100860002091B60120FF06C0382F38713830D9F4F6
:10087000877F816021FF06C0282F28712831D1F49D
:10088000877E816194FD877E0895282F247124300E
:10089000F9F68B7F8860DCCF282F2471243101F793
:1008A0008B7E8861DDCF382F3171313019F78E7F23
:1008B0008860E0CF282F2171213121F78E7E886159
:1008C000E1CFCF93DF93EC0182389105A9F1D8F500
:1008D0008133910509F496C048F58932910509F4F0
:1008E0008AC08A9709F495C0C11522E5D20708F09D
:1008F000B6C0C11531E5D30708F026C1C83ED10501
:1009000008F09CC0C03ED10560F5C83AD10508F09A
:1009100087C0C53AD10508F0EFC0C130D10509F153
:100920002097F9F0C430D105E0F440C0853391053B
:1009300009F45AC0C997C1F68091B501837089F056
:10094000C0EED0E00EC0833E910599F170F4803E78
:10095000910501F1823E910539F68091B50182FD44
:1009600021C0CE01DF91CF910895863E910561F1BE
:10097000873E910571F1843E910509F0B5CF8091D4
:10098000B60181FFEECF8091B501C7EED0E084FDC6
:100990000DC0E7CF8091B50180FD07C19091B601F0
:1009A00090FFDFCFC3EED0E084FFDBCFD0E0C0E02C
:1009B000D8CF8091B50182FDFBC09091B60190FD2A
:1009C000BFCF84FFCECFF2CF8091B50183FDDDCFC5
:1009D000C8CF8091B50183FDEEC09091B60191FF23
:1009E000F0CFC4EED0E0BDCF8091B50185FFB9CF87
:1009F000C9E2D0E0B6CF8091B50185FFB2CFC5E3A3
:100A0000D0E0AFCF8091B50186FFABCFCAE2D0E096
:100A1000A8CF8091B50186FFA4CFC1E3D0E0A1CFDC
:100A2000CF3BD10518F6C85AD0E0CC0FDD1FC25F0E
:100A3000DE4F0990D881C02DD46493CFC11540E515
:100A4000D40708F064C0C11580E4D80708F05CC082
:100A5000CE019A9581159F4108F483CFA7CFC11588
:100A600036E5D30718F5C11545E5D40708F084C06D
:100A7000C11584E5D80708F07AC09C2F9695969505
:100A80009E0123703327C115D34508F462C0C1E02D
:100A9000D0E002C0CC0FDD1F2A95E2F730E2939F31
:100AA000C0011124C82BD92BDA685BCFC1158AE5A8
:100AB000D80778F4C11599E5D90708F068C0C115C1
:100AC00028E5D20708F472CFDC2FCC27C06FD06A9C
:100AD00048CFCE0190568115904208F067CF8D2FF8
:100AE0008F710E941E0490E0982F882788279F719D
:100AF0009C012C2BE90149C0C55AD0E0C55FDE4FEF
:100B0000C881D0E0D0642DCFDF70D06A2ACFCE016B
:100B1000E4E096958795EA95E1F783702C2F26956A
:100B20002695237040E2249F90011124382B8C2FAE
:100B30008370C1E0D0E002C0CC0FDD1F8A95E2F7E0
:100B4000C22BD32BDC680DCFDC2FCC27C16FD06A32
:100B500008CFC1E0D0E002C0CC0FDD1F2A95E2F73C
:100B600020E2929FC0011124C82BD92BEBCFDC2FA0
:100B7000CC27C46FD06AF5CE8C2F0E941E04C82FDC
:100B8000D0E0DC2FCC27CC27DF71D062EACE8C2FCF
:100B90008F700E941E0434E0D695C7953A95E1F710
:100BA000CF709C2FEC01D069DCCEC9E3D0E0D9CE68
:100BB000C2EED0E0D6CEC6EED0E0D3CE8091B0016A
:100BC00081111092B00108958091AF019091AE0112
:100BD000892B9091AD01892B80935C019091B0019C
:100BE000992391F0892B80935C0120E08EE591E0C0
:100BF000FC013191CF0131112F5FF1E084369F0765
:100C0000B9F721110E94DE05E091CD01F091CE01EE
:100C1000309731F00280F381E02D8CE591E009946A
:100C20000895EEE5F1E09191891303C0DF0111977A
:100C30001C9291E0E436F907B1F70895AEE5B1E012
:100C4000EFEF90E02D91821751F0EF3F19F4211151
:100C500001C0E92F9F5F9630A9F7EF3F09F408958F
:100C60000E2E000CFF0BE45AFE4F828308958091F4
:100C7000AB0190917A01981301C008958F5F87703E
:100C8000FACF2CE0929F800D1124982F97708695B3
:100C90008695869523E0829FF0011124EB59FE4F43
:100CA00050E040E080E0219130E0092E02C036950E
:100CB00027950A94E2F721703327042E01C0220FF2
:100CC0000A94EAF7822B4F5F5F4F4330510559F783
:100CD00008952CE0929F800D1124982F977041E089
:100CE00001C0440F9A95EAF786958695869593E01C
:100CF000899FF0011124EB59FE4F90E080E070E0F5
:100D00005191DF0111979B01082E02C0369527955E
:100D10000A94E2F7217021952527242325272C9377
:100D200001968330910561F7089590E080E00E947C
:100D3000E30390E080E00E94CD031092AE01109298
:100D4000AD010C94E4058093F3010C949506809119
:100D5000F301982F9670963019F488600C94A306CE
:100D6000877FFCCF21E030E001C0220F8A95EAF7AF
:100D700020958091F30182230C94A3069091AC01FD
:100D8000809589238093AC01282F277039F4282F70
:100D9000082E000C330B9217130621F49091B60124
:100DA00092FF07C08595859585950E94B2061092A1
:100DB000AC01089521E030E001C0220F8A95EAF7E6
:100DC0008091F301822B0C94A3068093B1010C94C3
:100DD0009506882341F080959091AF0189238093F7
:100DE000AF010C94E4050895882339F09091AF0188
:100DF000982B9093AF010C94E4050895882309F48F
:100E000052C0823871F40E94F90381FF4CC089E31B
:100E10000E941E060E94E40589E30E9411060C94BC
:100E2000E405833859F40E94F90380FF3CC083E550
:100E30000E941E060E94E40583E5EFCF843859F432
:100E40000E94F90382FF2FC087E40E941E060E94C1
:100E5000E40587E4E2CF9CEF980F913AF0F290E23C
:100E6000980F983088F4877021E030E0A90102C023
:100E7000440F551F8A95E2F7CA0180959091AF0102
:100E800089238093AF01CBCF9BE5980F933020F45B
:100E900090E080E00C94E303885A873120F490E0DE
:100EA00080E00C94CD0308959091E201943029F5EF
:100EB0008093D2017093D4016093D3019093E900A1
:100EC0008FEF9091E800815095FD06C095ED9A95C1
:100ED000F1F700008111F5CF8091E80085FF0DC08A
:100EE00050E040E063E070E082ED91E00E94720229
:100EF0008091E8008E778093E8000895BC0184E03B
:100F00000C945407BC0183E00C945407CF93DF93F7
:100F1000EC0181E08093E9008FEF9091E80081502F
:100F200095FD06C095ED9A95F1F700008111F5CF7A
:100F30008091E80085FF14C050E040E068E070E078
:100F4000CE010E9472028091E8008E778093E800C3
:100F500088E0FE01A8EDB1E001900D928A95E1F7DD
:100F6000DF91CF910895CF93C82F882309F488C0CB
:100F70008238C1F40E94F90381FD82C089E30E9496
:100F80001E060E94E4052FEF81EE94E02150804080
:100F90009040E1F700C0000089E30E941106CF9164
:100FA0000C94E4058338A1F40E94F90380FD68C025
:100FB00083E50E941E060E94E4052FEF81EE94E077
:100FC000215080409040E1F700C0000083E5E5CF6C
:100FD0008438A1F40E94F90382FD52C087E40E9484
:100FE0001E060E94E4052FEF81EE94E02150804020
:100FF0009040E1F700C0000087E4CFCF8CEF8C0F6A
:10100000813A68F4EEE5F1E08191C81799F121E0A9
:10101000E436F207C9F78C2F0E941E06C0CF80E28B
:101020008C0F883068F4C77021E030E001C0220FD7
:10103000CA95EAF78091AF01822B8093AF01AFCFC1
:10104000EBE5EC0FE33040F4F0E0E55FFE4F80812C
:1010500090E0CF910C94E303C85AC73188F4EC2F89
:10106000F0E0EE0FFF1FE25FFE4F80819181CF9194
:101070000C94CD038C2F0E9411060E94E405CBCF67
:10108000CF9108951F93CF93DF93182FD0E0C0E046
:10109000893311F4C0E5D0E0812F0E94B307209777
:1010A00031F4812FDF91CF911F910C94FE068FE9CF
:1010B0009FE00197F1F700C000002197F0CF0F9358
:1010C0001F93CF93DF93C62FD42F022FFC01828171
:1010D0008823A1F06093F2010E94C1039093F10173
:1010E0008093F001C77081E001C0880FCA95EAF7CC
:1010F000DF91CF911F910F910C94F4068091F20132
:10110000681340C02091F0013091F1014FB7F8947D
:101110008091EC019091ED01A091EE01B091EF0171
:101120004FBF821B930B883C910560F510E21D0FA9
:101130006D17B9F080E2860F883040F4C77081E007
:1011400001C0880FCA95EAF70E94E906183048F4F2
:1011500081E09D2F977001C0880F9A95EAF70E9451
:10116000F406802F0E944208183098F4D77081E06E
:1011700001C0880FDA95EAF7DF91CF911F910F91A7
:101180000C94E906C77081E001C0880FCA95EAF7A0
:10119000F3CFDF91CF911F910F910895CF93DF93FC
:1011A000C7E4D1E060E0CE010E94101B2196C1157A
:1011B00084E0D807B9F7DF91CF9108956F927F92BD
:1011C0008F929F92AF92BF92CF92DF92EF92FF9257
:1011D0000F931F93CF93DF9380EFC82E81E0D82E1B
:1011E00097E8E92EF12CE701C854D10936011BC05C
:1011F000F50185909490692DC8010E94101B682DFF
:10120000C80101960E94101B82E0A80EB11C0E5F5F
:101210001F4FC017D10761F788E1680E711C6896EF
:10122000CE15DF0529F08E01085111095301E0CFD9
:101230007E0188E4E80EF11C88E4C80ED11C87EA20
:10124000E81681E0F80679F6DF91CF911F910F91B2
:10125000FF90EF90DF90CF90BF90AF909F908F90D6
:101260007F906F900895CF93C82F6FEF811161E247
:1012700083E290E00E94101B6FEFC11160E184E2F5
:1012800090E00E94101B6FEFC11164E285E290E0D4
:10129000CF910C94101B80E00E94330960E086E23D
:1012A00090E00E94101B0E94DE080E94CE0881E0A0
:1012B0000C943309CF93C091B601C2FB992790F9E2
:1012C000981781F080FBC2F9C093B6016091B50117
:1012D00084E090E00E94101B6C2F82E290E0CF919E
:1012E0000C94101BCF9108950F931F93CF93DF930E
:1012F000C42FD0E0CC0FDD1F28E1629FC00DD11DAF
:10130000112438E4839FC00DD11D1124CE0187968E
:101310000E94021B082F10E0102F0027CE01889694
:101320000E94021B9801282BC901DF91CF911F91C8
:101330000F910895462F843038F4733028F46C30C0
:1013400018F4672F0C94740990E080E00895CF9210
:10135000DF92FF920F931F93CF93DF936C01009165
:10136000F3018091B101082BC7E0D0E010E0FC2E22
:10137000C8010C2E02C0959587950A94E2F780FD6E
:101380000CC02197A0F7F12C8F2DDF91CF911F91E9
:101390000F91FF90DF90CF900895B6018C2F0E949F
:1013A0009A090E946104019761F3EECFCF93DF9316
:1013B000EC010E94A709BE010E949A09DF91CF911A
:1013C0000C946104FC01808191810E94D609292F2F
:1013D0002F7092959F7092509E3078F4E92FF0E034
:1013E000ED5AF44E0C94F51A803F19F020F4883E23
:1013F00020F481E00895843FE1F380E00895883E81
:10140000C0F3813FD1F7F5CF822F869586958695DB
:10141000089583E290E00E94021B813289F484E205
:1014200090E00E94021B803159F485E290E00E9416
:10143000021B91E0843209F090E0892F81700895B9
:1014400080E0FCCFCF9384E090E00E94021BC82F85
:1014500082E290E00E94021B982F8C2FCF9108957A
:101460006F927F928F929F92AF92BF92CF92DF92B4
:10147000EF92FF920F931F93CF93DF9300D000D092
:1014800000D0CDB7DEB78E010F5F1F4F86E0F801A9
:1014900011928A95E9F78CE3E82E81E0F82E680135
:1014A0009FE3692E91E0792E88248394912CF70193
:1014B00081917F018F3F09F44BC0F894E82FE295AA
:1014C000EF70F0E021A18F70A40102C0440F551FFE
:1014D0008A95E2F7CA01922F982B91A392A1809549
:1014E000892382A3789400C0EFE3F1E030E020E0AC
:1014F000B12CA12C81918F3F09F47FC0A82FA29518
:10150000AF70B0E090964C9150E08F7002C055954E
:1015100047958A95E2F740FD70C0C401022E02C0D3
:10152000880F991F0A94E2F7A82AB92A2F5F3F4F24
:101530002C303105F9F6F701319780818F3F11F09A
:101540000E94070450EA5A95F1F7F601B182A08291
:10155000F2E0CF0ED11C6E147F0409F0A8CF46E054
:1015600050E0B80187EB91E00E94441BFF24F39404
:10157000009709F4F12C892B09F442C086E0F801A8
:10158000A7EBB1E001900D928A95E1F781E080939D
:10159000B4010E94C1039093B3018093B2012091E2
:1015A000B2013091B3014FB7F8948091EC01909162
:1015B000ED01A091EE01B091EF014FBF821B930BA3
:1015C000059710F18091B7019091B8019093C601F1
:1015D0008093C5018091B9019091BA019093C8019F
:1015E0008093C7018091BB019091BC019093CA0187
:1015F0008093C9011092B40107C090E080E094CFBD
:101600008091B4018111CBCF8F2D26960FB6F8941F
:10161000DEBF0FBECDBFDF91CF911F910F91FF9025
:10162000EF90DF90CF90BF90AF909F908F907F9082
:101630006F90089569EE7EEF90E080E00E942E1B8F
:1016400060E082E090E00E94101B60E083E090E0A8
:101650000E94101B1092B10160E084E090E00E94B3
:10166000101B60E082E290E00E94101B60E085E0C9
:1016700090E00E94101B60E086E090E00E94101B4A
:101680006FEF87E090E00E94101B40E050E0BA014D
:1016900088E090E00E94221B60E08DE090E00E94D4
:1016A000101B40E050E0BA0188E190E00E94221B4C
:1016B00060E087E190E00E94101B40E050E0BA013A
:1016C0008CE190E00E94221B70E060E080E290E0FC
:1016D0000E942E1B40E050E0BA0188E190E00E9499
:1016E000221B80E00E9433090E944B0940E050E039
:1016F000BA018FE090E00E94221B40E050E0BA0166
:1017000083E190E00C94221B1092AF01EEE5F1E032
:1017100086E0DF011D928A95E9F70C9495061F93E8
:10172000CF93DF93CDB7DEB7AA970FB6F894DEBF9D
:101730000FBECDBF84EE91E02091F100DC012D932E
:10174000CD01B1E08C3E9B07B9F78091E501833074
:1017500009F471C0B8F4813009F448C0823009F44A
:10176000B2C08091E80083FF3AC18091E40190917A
:10177000E5019A3008F033C1E92FF0E0EF59F44E5B
:101780000C94F51A8A3009F48DC08B3009F470C0BE
:10179000893039F78091E401813219F78091E801AD
:1017A0009091E901009711F00297D9F68091E80035
:1017B000877F8093E8008091E80082FF37C0909196
:1017C000F3008091F200029729F48091F1008B7F61
:1017D000813021F48091F1008093D7018091E8005D
:1017E0008B778093E8000E949C02BBCF8091E4013C
:1017F000813A09F0B6CF8091E800877F8093E800B6
:101800008091E8019091E901892B61F468E088ED0D
:1018100091E070E00E944E038091E8008B77809306
:10182000E8009FCF60E090E080E0F3CF8091E2019C
:101830008111C1CF96CF8091E401813A09F091CF17
:101840008091E8019091E901892B09F08ACF80917C
:10185000E800877F8093E8008091E80080FFFCCF5C
:1018600080910A018093F1008091E8008E77B9CFD2
:101870008091E401813209F074CF8091E801909168
:10188000E901892B09F06DCF8091E800877F809373
:10189000E8000E949C028091E60180930A010E9468
:1018A000840B5FCF8091E401813209F05ACF80919F
:1018B000E800877F8093E8000E949C028091E70106
:1018C0008093D6014ECF8091E401813A09F049CF4F
:1018D0008091E800877F8093E8008091E80080FF96
:1018E000FCCF8091D601BECF803899F0823809F0C4
:1018F00076C08091E8018F70873008F070C08093C7
:10190000E9008091EB0085FB882780F91092E900BF
:1019100006C08091E0019091E10191118260909167
:10192000E800977F9093E8008093F1001092F10017
:101930008091E8008E77B5C1882309F4A2C1823076
:1019400009F04DC08091E6018111A6C18091E801A6
:101950008F702FEF280F263008F041C08093E900E8
:101960002091EB0020FF98C1933031F48091EB007F
:1019700080628093EB0090C19091EB009061909316
:10198000EB0021E030E001C0220F8A95EAF72093B6
:10199000EA001092EA008091EB008860EACF8111A2
:1019A0001EC01091E6011F778091E3008078812BA3
:1019B0008093E3008091E800877F8093E8000E9495
:1019C0009C028091E80080FFFCCF8091E30080685A
:1019D0008093E30082E0111183E08093E201809123
:1019E000E80083FF0AC08091E800877F8093E800C9
:1019F0008091EB0080628093EB00AA960FB6F8947A
:101A0000DEBF0FBECDBFDF91CF911F9108958058EB
:101A1000823028F72091E6013091E7012C3DE3E088
:101A20003E07A1F583E08A838AE289834FB7F89461
:101A3000DE01139620E03EE051E2E32FF0E0509308
:101A40005700E49120FF03C0E295EF703F5FEF7015
:101A50008E2F90E0EA30C0F0C7968D939D932F5F54
:101A6000243159F74FBF8091E800877F8093E800C9
:101A70006AE270E0CE0101960E944E038091E80078
:101A80008B778093E800ABCFC096E7CF8091E801D9
:101A90009091E901432F55274330510509F44AC07D
:101AA00078F54130510509F47AC08BE590E0E0E12A
:101AB000F3E04230510509F092CF2091E800277FF2
:101AC0002093E8002091EA013091EB0182179307FF
:101AD00008F49C0140E02115310509F065C0411171
:101AE00063C08091E80082FDC9CF8091E201882324
:101AF00029F2853019F28091E80083FFF2CFBECF42
:101B00004132510509F43CC04232510509F067CF1A
:101B10008330910508F063CFFC01EE0FFF1FE25BFD
:101B2000FE4F0190F081E02D855B9E4FDC018C9192
:101B300090E01AC0332721303105D1F0211531054D
:101B400061F02230310509F04ACFEDE7F3E0E4918E
:101B50008E2F90E0EDE7F3E007C0EDEAF3E0E491CB
:101B60008E2F90E0EDEAF3E0009709F438CFA5CF8F
:101B7000EDE8F3E0E4918E2F90E0EDE8F3E0F4CFB0
:101B80008330910508F02BCF880F991FFC01EC5A88
:101B9000FE4F0190F081E02D89E090E08ECF82E150
:101BA00090E0EBE6F3E089CF8091E201882309F42D
:101BB00065CF853009F462CF8091E80083FD5ECF68
:101BC0008091E80082FD8DCF8091E80080FF83CF77
:101BD0009091F3008091F2002115310519F08830C1
:101BE000910550F041E0089709F040E08091E8004D
:101BF0008E778093E8006FCF44914093F100319647
:101C0000215031090196E8CF803809F0E8CE809163
:101C1000E800877F8093E8008091E3018093F100E2
:101C200087CE8111DCCE1091E601123008F0D7CEBC
:101C30008091E800877F8093E8001093E3010E9481
:101C40009C02112311F084E005C08091E30087FD20
:101C5000FACF81E08093E20142E061EC81E00E94F2
:101C6000BB0242E261EC84E00E94BB0242E261EC12
:101C700082E00E94BB0242E260EC83E00E94BB0271
:101C8000AECE8091E601813009F0A9CE81E093309B
:101C900009F080E08093E1011092E9008091E80072
:101CA000877F8093E8000E949C0299CE3F924F92DA
:101CB0005F926F927F928F929F92AF92BF92CF92DC
:101CC000DF92EF92FF920F931F93CF93DF9300D099
:101CD00000D00F92CDB7DEB78C01FC0183819481D7
:101CE000892B31F08081918189238F3F09F004C5D0
:101CF0000F900F900F900F900F90DF91CF911F9149
:101D00000F91FF90EF90DF90CF90BF90AF909F909A
:101D10008F907F906F905F904F903F9008950E94BA
:101D2000A709F82E682F89819A810E946906698126
:101D30007A818F2D0E949A097C01F8018281882383
:101D400009F4CDC4970122513F452031310508F0F7
:101D500099C48FEF93E00E94021BFEEEEF0E57E452
:101D6000852E99249394882381F18091AC0187700A
:101D700009F4BECFF8018281882309F4B9CF82E04B
:101D80000F900F900F900F900F90DF91CF911F91B8
:101D90000F91FF90EF90DF90CF90BF90AF909F900A
:101DA0008F907F906F905F904F903F900C94BE0605
:101DB000811424E09206C9F2C4010E94021B811121
:101DC00001C0EA943FEF831A930AE110F1CF1C821D
:101DD0001B82442443944AE0342E74018FEFE81AA6
:101DE000F80AC4010E94021B89831A82882309F41D
:101DF000BCCF9FEF980F933000F58A83498292E021
:101E0000890E911CC7010E94021B8B83882309F451
:101E1000ACCFFE0131967F01F70120812223E9F248
:101E2000213009F049C091818281913041F4F2E082
:101E3000EF0EF11C0E94420809C04701EACF923020
:101E400049F422E0E20EF11C0E94B3073FEFE31ACF
:101E5000F30AE2CF933031F432E0E30EF11C0E943A
:101E6000FE06F4CF943021F08FEFE81AF80AEECF97
:101E700092E0E90EF11C30E020E0B7016F5F7F4F88
:101E8000F70141818053990B8A30910550F0215020
:101E90003109E0F28FE99FE00197F1F700C00000FF
:101EA000F6CF329EF001339EF00D11249C012E0FCF
:101EB0003F1F842F7B01E1CFE22FF0E0E059FE4F7E
:101EC0005490822F86958695869590E0FC01E05A85
:101ED000FE4F64902770712C022E02C07594679497
:101EE0000A94E2F7E1E06E227724FC01E05BFE4F0A
:101EF000A490B12C022E02C0B594A7940A94E2F7E4
:101F0000F1E0AF22BB24FC01E05CFE4FC490D12C79
:101F100002C0D594C7942A95E2F721E0C222DD24BD
:101F20006114710419F081EE0E94B307A114B10489
:101F300019F086EE0E94B307852D0E944208AB2857
:101F400019F086EE0E94FE06672819F081EE0E94C5
:101F5000FE06CD2809F47ACF8CE26CCF81E00E9496
:101F6000DA060E94A70601CF81E00E94B206F9CFEF
:101F700082E0F5CF95EFE9169CE5F90609F46AC011
:101F800008F464C027E245EE66EEF6EFEF16FCE5D6
:101F9000FF0609F4A0C3882309F4BFC31092F2011D
:101FA00023E0E2162DE5F20608F05BC03AEFE316F7
:101FB0003CE5F30630F4C70182509C45449708F095
:101FC00056C00E94220A9093B6018093B50190E119
:101FD000E9169CE5F90609F431C108F0A3C0F8E060
:101FE000EF16FCE5FF0609F41BC108F06CC034E0F5
:101FF000E3163CE5F30609F405C108F04EC092E093
:10200000E9169CE5F90609F4F7C08091B5018260F4
:10201000E3E0EE16ECE5FE0609F4F1C06091B501CF
:10202000F090B60184E090E00E94101B6F2D82E2D8
:1020300090E00E94101B0E94840B97CE27E245EE91
:1020400065EE49C326E241EE60EE45C327E245EE68
:1020500064EE41C326E241EE62EE3DC328E241E078
:10206000EFCF81E6E8168DE5F80609F4AACFF6E190
:10207000EF16FCE5FF0609F05DC38091AF018A7A97
:1020800091E009F490E0909364018111FCC089E231
:102090000E941E060E94E40568CE8091B501806111
:1020A000F6E0EF16FCE5FF0609F4A9C08091B50142
:1020B000886027E0E2162CE5F20608F4A0C08091C3
:1020C000B50180629CC08091B5018D7F3CE0E31634
:1020D0003CE5F30609F493C078F48091B5018C6077
:1020E0009AE0E9169CE5F90609F489C008F49CC059
:1020F0008091B5018E7F83C08091B501877FFEE01E
:10210000EF16FCE5FF0609F47AC08091B5018B7FDC
:102110002FE0E2162CE5F20608F471C08091B501BB
:102120008F7E6DC03CEFE3163CE5F30609F482C0F8
:10213000A0F594E1E9169CE5F90609F493C098F43A
:10214000F2E1EF16FCE5FF0609F47CC08091B501D1
:102150008F7B23E1E2162CE5F20608F450C0809153
:10216000B501837F4CC03AEFE3163CE5F30609F472
:102170004DC008F051C095E1E9169CE5F90609F05B
:102180004DCF8091B50182FB992790F921E09227EC
:1021900090FB82F990FB83F932C0E114EDE5FE0675
:1021A00009F456C0A0F48091B60183602EEFE216C8
:1021B0002CE5F20671F18091B6018D7F3FEFE316B9
:1021C0003CE5F30630F18091B6018C7F22C082E0BD
:1021D000E8168DE5F80609F454C008F44CC0E1E6B1
:1021E000EE16EDE5FE0609F019CF9091B501892FA5
:1021F0008F7E94FF806103C08091B50181608093E0
:10220000B5010CCF8091B5018460F9CF8091B60102
:1022100081608093B60102CF8091B6018260F9CFD0
:102220008091B5018064EBCF0E94840B8091B50151
:102230008068E5CF8091B6018E7FEBCF8091B501AC
:102240008F7DDDCF0E94840B8091B5018F77D7CF32
:102250008091B601982F909591708E7F892B90FB7D
:1022600081F9D7CF0E94840B9091B501892F97FBFC
:1022700087F98058C4CF61E08EE090E00E94101B87
:10228000CDCE60E0F9CF85E303CF85E350C20E9455
:10229000840B2FEF34E38CE0215030408040E1F795
:1022A00000C000000E94B00381E06AC280E068C202
:1022B000C7010E944106D82E74C22F2D2F70C22E46
:1022C0008F2D807F19F0C29490EFC922DD20C9F0D4
:1022D000CC2069F080E28E0D883010F081100BC0A8
:1022E0008091AF01C82AC092AF010E94E4058E2DF3
:1022F0000E94B30719C08091AE01C82AC092AE01F6
:10230000F4CF8E2D0E94FE06CC2071F0C09480E2A6
:102310008E0D883010F081103DC08091AF01C82231
:10232000C092AF010E94E405292D2850330B2430C0
:10233000310510F40E94F903AA2009F4D9CC809148
:10234000AC0180FDD5CCF8011282859585958595E7
:102350000E94DA06C8010E94560E8091AC01859554
:10236000859585950F900F900F900F900F90DF91AE
:10237000CF911F910F91FF90EF90DF90CF90BF9082
:10238000AF909F908F907F906F905F904F903F9015
:102390000C94B2068091AE01C822C092AE01C2CFA9
:1023A0003F2D3F70B32E8F2D807F803219F0B29475
:1023B00080EFB822882071F081E0881681F1DD205D
:1023C000D9F1CC2091F1F801858180FF90CF8F70F9
:1023D00085832BC0DD20B1F09091B0018B2D892B2E
:1023E000C11003C00E94F4069FCFE1E0CE12FACFE5
:1023F0002091B60122FD98CF981709F495CF8093CC
:10240000B00192CFC11006C00E94DE058B2D0E9444
:10241000E9068ACFF1E0CF1609F486CFF5CFDD20AB
:1024200031F025E02C1508F47FCF8B2DDBCF34E085
:102430003C1508F479CFEACFCC2041F3F9E38F12B1
:1024400009C02FEF37EE83E0215030408040E1F7A4
:1024500000C000008E2D0E94FE0666CF8F2D86954F
:102460008695837061F0813009F05ECFC70193706B
:10247000D11002C090E080E00E94CD0355CFC7018B
:102480009370D11002C090E080E00E94E3034CCF33
:102490008F2D837091F5D11047CF4E2D42954695E3
:1024A0004770440F440F8E2D8F70042E01C0880F8B
:1024B0000A94EAF72E2D2071E4FE07C02FE030E0E9
:1024C00001C0220F4A95EAF720953F2D36953695A3
:1024D0003370323069F050F44091B101313029F05D
:1024E000822B84230E94E5061FCF842B822BFACFF8
:1024F000282B8091B1018227F5CF8695DD2011F040
:102500008F2D8170882309F40FCF4E2D429546956B
:102510004770440F440F8E2D8F70042E01C0880F1A
:102520000A94EAF72E2D2071E4FE07C02FE030E078
:1025300001C0220F4A95EAF720953F2D3695369532
:102540003370323069F050F44091F301313029F0AA
:10255000822B84230E94A306E7CE842B822BFACF02
:10256000282B8091F3018227F5CF9F2D9F70F92EA4
:10257000DD2029F0892F0E94DA068E2D33CF8E2D93
:102580000E94E9068F2D0E94B206CECE8E2DE2EF7C
:102590008E1609F44BC0E81570F0F0EF8F1639F184
:1025A00021EF8216D9F1DD2009F45CC0C1109FCE65
:1025B0008F2D8F7138C033EF8316E9F194EF8912B4
:1025C000F2CFDD2009F443C02F2D2F71F22E822F80
:1025D0000E94DA068091B60182FD07C038E0F39EC2
:1025E000C001112483608093AC018F2D1CC0DD20BD
:1025F00081F0E4E0EC1508F497CE2F2D2F7181E0E7
:1026000090E001C0880F2A95EAF79091F30189279D
:10261000A1CFF5E0FC1508F487CEEFCF8F2D8F7199
:10262000DD2009F4B0CF0E94DA067ECE8F2D8F71A7
:10263000DD20C9F3A8CF80E0DD2009F48BCF9F2DEA
:102640009F7181E001C0880F9A95EAF783CF81E0FE
:102650000E94BE0681E08C1508F066CE82E00E94E2
:10266000BE0662CECC2059F0893309F0F3CE9FEF3D
:10267000E7EEF3E09150E040F040E1F7E9CE8F2D36
:102680008F7181CFF0E1EF16FFE5FF0609F466CC0C
:1026900021E1E2162FE5F20609F46ACC93EFE91680
:1026A0009CE5F90609F4CECC08F064CCF8EDEF1601
:1026B000FCE5FF0609F4C2CC29EDE2162CE5F20692
:1026C00009F4CCCC37EDE3163CE5F30609F063CC16
:1026D00026E241EE61EEC8010E945F0846CB30E180
:1026E000E3163FE5F30609F43FCC91E1E9169FE5D7
:1026F000F906A1F682E039CC85E0DE011196019061
:102700000D928A95E1F7F801228189819A81211140
:1027100006CB0E944106F82E0ACBF6E1EF16FCE547
:10272000FF0681F5809164018111AFCD89E20E949D
:102730001106B0CC2AE5E2162DE5F20609F4B4CD77
:1027400068F4E1148CE5F80609F4A1CD9EEDE916D4
:102750009CE5F906B9F40E941A0B07CBEBE5EE16DF
:10276000EDE5FE0609F4A2CDFCE5EF16FDE5FF065A
:1027700049F48091B60182FB882780F991E089278E
:102780000E945A09F8018281E080F180882309F4CF
:102790008FCDC7010E94A709D82E682FC7010E94BC
:1027A0006906B7018D2D0E949A090E9461047C017F
:1027B000882EF801D280C580C2943FE0C322809168
:1027C000AC018770A1F0AD2CDD2091F08F2D807FC2
:1027D000803421F080E28E0D883048F082E00E9443
:1027E000BE068091AC018770AA24A3948111A12C0C
:1027F0009F2C92942FE09222FBE0F91508F494CDDF
:10280000E92DF0E0E559F44E0C94F51A1F93CF939F
:10281000DF9380917901807FA9F4809176018823EC
:1028200089F08091AB01D0917A016091740170912F
:102830007501A0917701B0917801C62FC72316E0EA
:10284000D81304C0DF91CF911F91089590E01097A5
:1028500011F0CF3F19F401968770F2CF189F9001C5
:10286000199F300D1124F901E558FE4F418147139E
:10287000F2CF40814613EFCF42814111ECCF43812B
:1028800054814A1B5B0B483C510528F78091790124
:102890008F70806180937901F901E058FE4F80814B
:1028A0008F708061808384E791E00E94560EDF91F3
:1028B000CF911F910C943706AF92BF92CF92DF92C7
:1028C000EF92FF920F931F93CF93DF93CDB7DEB7B5
:1028D00061970FB6F894DEBF0FBECDBF8C0185E0C7
:1028E000F801DE011D9601900D928A95E1F7F8013D
:1028F000E28084E7A82E81E0B82E60917701709184
:1029000078016115710509F432C19091740140910B
:102910007501892F84238F3F09F429C120813181DA
:10292000C380D480F0907601F601E61BF70BFF2000
:1029300009F4E8C080917901582F507FE83CF105F7
:1029400008F0ABC0511177C0FE2C431321C0921385
:102950001FC0E1101DC08F70806180937901C50197
:102960000E94560E80917901F80185838F2D619622
:102970000FB6F894DEBF0FBECDBFDF91CF911F9190
:102980000F91FF90EF90DF90CF90BF90AF900895A0
:10299000CD2829F0822F83238F3F09F003C180E0E7
:1029A000F82FF170DF2E80FF3CC08091AB01409189
:1029B0007A0156E0841315C02D873E878D859E854C
:1029C0000E94D609292F22952F702230F0F0243052
:1029D00018F59F70F1F0F8019581907FD1F4D12C1A
:1029E0001EC090E0589FF001599FF00D1124E5584A
:1029F000FE4F6181361306C06081261303C06281D9
:102A0000E6120FC001968770D5CF9F7011F0882312
:102A100031F3805E883018F3C8010E94560EFD2CF9
:102A2000A5CFEE2009F4A2CF809179018160809337
:102A30007901F12C9BCF431306C0921304C0F80117
:102A4000EE2009F479C0C8010E94E209882309F147
:102A5000EE20F9F080917901803270F020917401BC
:102A60003091750138872F831986DB86CA868C875B
:102A7000CE0107960E94560E86E0F801A4E7B1E069
:102A800001900D928A95E1F70E940614FF24F394B9
:102A90006DCFC8010E94560EF9CF51110AC084E7CC
:102AA00091E00E94560E86E0F50111928A95E9F7B1
:102AB000C0CF43130FC092130DC0E1100BC0F8013B
:102AC0008583C8010E94560E86E0F50111928A9511
:102AD000E9F74CCFC8010E94E2098823D1F2EE2029
:102AE000C1F280917901803238F2209174013091E5
:102AF00075013A8329831B82DD82CC828E83CE01CD
:102B00000196B8CFE83CF105F8F6FE2CEE2009F26C
:102B100043131FC092131DC08091790180FD10C026
:102B2000982F907F69F0F8018583903F31F0982FBE
:102B3000907F905F8F70892B8583C8010E94560E0D
:102B400086E0F801A4E7B1E001900D928A95E1F7E3
:102B50000DCFC8010E94E20981118ECF80917901C9
:102B6000816080937901C8010E94560EFFCEEE204D
:102B700009F48FCFC8010E94E209F82E882309F4D6
:102B800088CF86E0F801A4E7B1E001900D928A9524
:102B9000E1F780917401909175010E94D6090E941D
:102BA0000614E4CE81E08E25FBCE1F93CF93DF93F6
:102BB000CDB7DEB767970FB6F894DEBF0FBECDBFB7
:102BC0004B8B5C8B6D8B7E8B8F8B61111092AE016A
:102BD0001A8A198A85E0FE017396DE011D9601901E
:102BE0000D928A95E1F786E0FE013D96DE0117968B
:102BF00001900D928A95E1F7CE0107960E945C1430
:102C0000882389F016E08091AB0190917A018913B5
:102C100049C067960FB6F894DEBF0FBECDBFDF91F7
:102C2000CF911F91089586E0FE013796DE0111963F
:102C300001900D928A95E1F78A859B85892B11F386
:102C40008F81988589238F3FE9F220917A0130E0C6
:102C5000C9010196877099274091AB014817190661
:102C600071F40E94840B10927A011092AB0186E0FD
:102C7000E4E7F1E0DF011D928A95E9F7C3CF96E022
:102C8000929FD001939FB00D1124A558BE4FFE0115
:102C9000319601900D929A95E1F780937A010E9406
:102CA0003706B0CF819FC001112485589E4F0E94E6
:102CB0005C14882309F4ADCF8091AB0190E00196BC
:102CC000877099278093AB019ECF1F920F920FB60A
:102CD0000F9211242F933F934F935F936F937F93A2
:102CE0008F939F93AF93BF93CF93DF93EF93FF9314
:102CF000D091E900DF708091EC00C82FC17080FD99
:102D0000C0E81092E9008091F000877F8093F00086
:102D100078940E948F0B1092E9008091F0008860F7
:102D20008093F000CD2BCF70C093E900FF91EF911D
:102D3000DF91CF91BF91AF919F918F917F916F91D3
:102D40005F914F913F912F910F900FBE0F901F9069
:102D500018951F920F920FB60F9211242F933F9345
:102D60004F935F936F937F938F939F93AF93BF9393
:102D7000EF93FF938091E10082FF09C08091E20010
:102D800082FF05C08091E1008B7F8093E1008091FC
:102D9000DA0080FF24C08091D80080FF20C080919D
:102DA000DA008E7F8093DA008091D90080FF9BC08B
:102DB00080E189BD82E189BD09B400FEFDCF81E0DB
:102DC0008093E2018091D501811109C00E94220205
:102DD0000E94ED028091E20084608093E200809185
:102DE000E10080FF17C08091E20080FF13C0809156
:102DF000E2008E7F8093E2008091E2008061809308
:102E0000E2008091D80080628093D80019BC85E0F0
:102E10008093E2018091E10084FF29C08091E2006B
:102E200084FF25C080E189BD82E189BD89B5982FE5
:102E3000917080FFFBCF8091D8008F7D8093D80068
:102E40008091E1008F7E8093E1008091E2008F7E8F
:102E50008093E2008091E20081608093E2008091A3
:102E6000E301882309F445C084E08093E201809166
:102E7000E10083FF27C08091E20083FF23C080919F
:102E8000E100877F8093E10082E08093E20110926D
:102E9000E3018091E1008E7F8093E1008091E20068
:102EA0008E7F8093E2008091E20080618093E20057
:102EB00042E060E080E00E94BB028091F000886008
:102EC0008093F000FF91EF91BF91AF919F918F910F
:102ED0007F916F915F914F913F912F910F900FBE16
:102EE0000F901F90189519BC1092E2011092D50115
:102EF00076CF8091E30087FD93E09093E201B7CF16
:102F000078941F921FB61F9211248F939F93AF93B3
:102F1000BF938091EC019091ED01A091EE01B091F1
:102F2000EF010196A11DB11D8093EC019093ED017D
:102F3000A093EE01B093EF01BF91AF919F918F915C
:102F40001F901FBE1F9018951F921FB61F9211242D
:102F50008F939F93AF93BF938091D101811113C041
:102F60008091EC019091ED01A091EE01B091EF0103
:102F70004196A11DB11D8093EC019093ED01A093AA
:102F8000EE01B093EF01BF91AF919F918F911F9090
:102F90001FBE1F901895CDB7DEB7AA970FB6F8944D
:102FA000DEBF0FBECDBF84B7877F84BF0FB6F89456
:102FB000A895809160008861809360001092600005
:102FC0000FBE80E890E00FB6F89480936100909374
:102FD00061000FBE85B7806885BF85B7806885BFF3
:102FE00085E094E090935B0180935A010E94220255
:102FF0000E94ED028091E20084608093E200789468
:103000008091E2018823A1F01091E9001F70909156
:10301000EC00892F817090FD80E8182B1092E90058
:103020008091E80083FD0E948F0B1F701093E900D0
:1030300082E084BD93E095BD9AEF97BD80936E00CA
:103040000E94090A811102C00E944B0982E30E947A
:10305000070481E30E94070487EF0E9407040FE33F
:1030600011E0F80181918F018F3F11F00E94070458
:10307000F1E00B341F07A9F71092B8011092B701C5
:103080001092C6011092C5011092BA011092B901B6
:103090001092C8011092C7011092BC011092BB019E
:1030A0001092CA011092C90190E080E00E940A1BB0
:1030B000893E9E4F21F40E94090A811102C00E949C
:1030C0001A0B82E090E00E94021B8093BE010E94D6
:1030D000220A9093B6018093B5010E94300A8FE3D3
:1030E0009CE90197F1F700C000000E94300A80912E
:1030F000C5019091C60193FF08C06FEF7FEF90E08C
:1031000080E00E942E1B0E94B00383E090E00E94AA
:10311000021B0E94E50680E091E09093CE0180932F
:10312000CD0158E1E52EF12C60E4662E70E1772E9A
:10313000E2E1BE2EF0E1AF2E8091E201853049F44C
:103140008091E201853009F488C00E94840B0E94BE
:10315000F9030E94300A882359F08FB7F894409100
:10316000EC015091ED016091EE017091EF018FBF84
:10317000A5ECB1E0EFEBF1E010E000E0702F8D91F5
:103180009D91219131912817390709F4C1C0282751
:10319000392760E0CC24C394D12CA60142235323C9
:1031A000452B09F4AFC069A37AA3960128233923DC
:1031B00091E0232B09F490E09BA30E94C10381605E
:1031C000782F9DA38CA349A15AA16BA18DA10E9428
:1031D000D515000F111FF801E154FE4F8081918138
:1031E000C826D926D182C0820E94F9039091BD01E0
:1031F000891721F00E94F9038093BD018091E201BB
:10320000843009F099CF83E08093E9008091E80051
:1032100082FF92CF8091E80090E085FF0CC00E9471
:10322000410230E2C32ED12C8E010F5F1F4F882345
:1032300009F48FC091E08091E8008B778093E800DB
:10324000992309F479CFE981E150E33108F0FEC018
:10325000F0E0E958F44E0C94F51A8091E2018430C4
:1032600009F11092D1010FB6F894A895E092600090
:103270000FBE6092600083B7817F846083BF83B795
:10328000816083BF7894889583B78E7F83BF0FB6A4
:10329000F894A895809160008861809360001092F6
:1032A00060000FBE8091E101882309F449CF0E949C
:1032B000300A8091C7019091C8012091C5013091D9
:1032C000C601822B932B2091C9013091CA01822B18
:1032D000932B892B09F434CF79BCB9BC09B400FE17
:1032E000FDCF8091D8008F7D8093D8008091E00041
:1032F00082608093E0008091E00081FDFCCF0E941D
:10330000840B1ECF6F5FCC0CDD1C6C3009F045CFF9
:103310000F5F1F4F0330110509F030CF8FEF8EA3E1
:103320008FA318A60E94C1038160782F9AA789A74E
:103330004EA15FA168A58AA50E94D51555CF8091A1
:10334000F100F80181938F01F1E0CF1AD10809F45F
:1033500071CF8091E80085FDF2CF8091E8008B77F6
:103360008093E8000E944102882399F363CF1A8278
:1033700089E08B8336C08A81823009F42DC1833085
:10338000A9F0813009F062C02FB7F8946091EC0188
:103390007091ED018091EE019091EF012FBF0E949D
:1033A000FB1A6B837C838D839E831BC08091C50138
:1033B0009091C6019827892798279C838B838091B9
:1033C000C7019091C8019827892798279E838D83EC
:1033D0008091C9019091CA019827892798279887D9
:1033E0008F838091E201843009F0A6CE1091E9002C
:1033F0001F709091EC00892F817090FD80E8182B50
:1034000082E08093E9008091E80080FF0DC050E0E9
:1034100040E060E270E0CE0101960E94720280916D
:10342000E8008E778093E8001F701093E90084CE47
:103430008A81823059F46B817C818D819E810E94CA
:10344000FB1A86E290E00E94101BCBCF8FEF89839E
:10345000C8CF4C816B818A810E9474099827892783
:1034600098279E838D83BDCF0D811E811027012754
:1034700010278A81CB8028E1C29E6001112498E444
:10348000899FC00CD11C11248C8190E0880F991F5A
:10349000C80ED91E612FC60187960E94101B602F8F
:1034A000C6018896D0CF0E94DE089BCFAA8299CF12
:1034B00082E08A8389EB5DCFCA80DB80DC24CD2467
:1034C000DC248E010F5F1F4F8C80800E912E911C8B
:1034D000C601895B9E4F0815190509F482CFE9EBF7
:1034E000CE16E2E0DE0650F40E94021BF80184834F
:1034F000FFEFCF1ADF0A0F5F1F4FEACFF8011482E8
:10350000F7CF0A811B81102701271027CE010196D2
:103510004C01CC80C00ED12ED11CC801895B9E4FBE
:10352000C016D10609F45DCF093BE2E01E0720F486
:10353000F40164810E94101BFFEF8F1A9F0A0F5F36
:103540001F4FEBCF0E94CE084CCF84E08A8349CF37
:10355000CA80DB80DC24CD24DC248E010F5F1F4F6A
:103560008C80800E912E911CC60187968016910644
:1035700009F437CF20E2C21621E0D20650F40E94AF
:10358000021BF8018483FFEFCF1ADF0A0F5F1F4F82
:10359000EBCFF8011482F7CF0A811B811027012796
:1035A0001027CE0101964C01CC80C00ED12ED11C2B
:1035B000C80187960C151D0509F413CF0032E1E010
:1035C0001E0720F4F40164810E94101BFFEF8F1A84
:1035D0009F0A0F5F1F4FECCF86E290E00E94021B14
:1035E0001B821C821D828E83FCCEEE0FFF1F059076
:1035F000F491E02D09946927962769277827872772
:1036000078270895F999FECF92BD81BDF89A992740
:1036100080B50895A8E1B0E042E050E00C94361B7C
:10362000262FF999FECF92BD81BDF89A019700B47B
:10363000021639F01FBA20BD0FB6F894FA9AF99A1B
:103640000FBE08950396272F0E94111B0E94101B86
:10365000252F0E94111B242F0C94111B0196272F3C
:103660000E94111B0C94101BDC01CB01FC01F99989
:10367000FECF06C0F2BDE1BDF89A319600B40D92BE
:1036800041505040B8F70895FB01DC0104C08D9112
:103690000190801921F441505040C8F7881B990BC4
:1036A0000895F894FFCFF409F409FD09FD09FF0915
:1036B000FD09FD09FD09F409F409040AFD09FD09E4
:1036C000040A740C9C0CEF0C9C0CEF0CCF0C070D37
:1036D000EF0C040E110E5D115D11D011D0112E12E0
:1036E0009411941194114812B512C612C612B7194A
:1036F000BB19181A291A341A531A261A261A261A06
:10370000261A261A561A581A5C1A811AA21AA51ACB
:04371000A81ACC1A0D
:10371400AD038607AC0382077E0701818283E20042
:10372400E900EA00B500B600B700CD008301CC0083
:103734008A01920194012102230224022502260215
:1037440027022A02B300B4006F0070003231F792EE
:10375400939190946697C6343536334022320001F3
:0A376400DE00AC0022033B035B0310
:00000001FF
