:100000000C94D9010C94F6010C94F6010C94F601B1
:100010000C94F6010C94F6010C94F6010C94F60184
:100020000C94F6010C94F6010C944A160C940616E6
:100030000C9447170C94F6010C94F6010C94F601FD
:100040000C94F6010C94F6010C94F6010C94F60154
:100050000C94F6010C9423170C94F6010C94F60101
:100060000C94F6010C94F6010C94F6010C94F60134
:100070000C94F6010C94F6010C94F6010C94F60124
:100080000C94F6010C94F6010C94F6010C94F60114
:100090000C94F6010C94F6010C94F6010C94F60104
:1000A0000C94F6010C94F6010C94F60105010980FC
:1000B000A101850319012AB700150126B700950192
:1000C00075108100C0050C0901A101850419012AE0
:1000D000A002150126A002950175108100C00660DE
:1000E000FF0961A1010962150026FF00952075082E
:1000F00081020963150026FF00952075089102C052
:1001000005010906A101050719E029E715002501E8
:10011000950875018102950175088101050719008F
:1001200029FF150026FF00950675088100050819AE
:10013000012905950575019102950175039101C08D
:1001400000000000000000000000000000000000AF
:10015000000000000000000000000000000000009F
:10016000000000007E0F00D4FFFFFFC700000078F2
:1001700000000000000000002A2B28000000000002
:100180000000000000000000000000290000000046
:100190002C1E3420212224342627252E362D3738B4
:1001A000271E1F202122232425263333362E3738BD
:1001B0001F0405060708090A0B0C0D0E0F1011127B
:1001C000131415161718191A1B1C1D2F3130232D47
:1001D000350405060708090A0B0C0D0E0F10111245
:1001E000131415161718191A1B1C1D2F3130354CF6
:1001F000000014001A000800150017001C00180069
:100200000C00120013002A00E00004001600070092
:1002100009000A000B000D000E000F00E1000000B5
:100220001D001B00060019000500110010002C0025
:100230002800000000000000000001000100010093
:1002400001000100010001000100010001000100A6
:100250000100010001000100010001000100010096
:100260000100010001000000010001000100010087
:100270000100010001000100010000000000000079
:100280000000010001000100010001000100010067
:100290000100010001000100010001000100010056
:1002A0000100010001000100010001000100000047
:1002B0000100010001000100010001000100010036
:1002C000010000000000000000000100010001002A
:1002D0000100010001000100010001000100010016
:1002E0000100010001000100010001000100010006
:1002F00001000100010000000100010001000100F7
:1003000001000100010001000100000000000000E8
:1003100009025B00030100A0FA09040000010301C7
:100320000100092111010001224000070581030895
:10033000000109040100020300000009211101006D
:100340000122220007058203200001070503032084
:10035000000109040200010300000009211101004D
:10036000012232000705840320000112010002006F
:100370000000084B52314E0100010200010E034EF5
:10038000006F006D0075003300300000001E037226
:1003900000650063006F006D00700069006C00650F
:1003A0000020006B00650079007300000004030961
:1003B000040011241FBECFEFDAE0DEBFCDBF11E095
:1003C000A0E0B1E0EEEDF6E302C005900D92AC3591
:1003D000B107D9F721E0ACE5B1E001C01D92AF3F14
:1003E000B207E1F70E946E170C94441B0C940000B6
:1003F000E8EDF0E080818E7F80831092E200109221
:10040000DA001092E100A0EEB0E08C9181608C9354
:1004100080818F77808319BCA7EDB0E08C918E7FAF
:100420008C9380818F7E80831092E00108952091CB
:10043000E4003091E50095E6A9012091EC00822FBF
:10044000817020FF06C08091E80080FF06C080E038
:1004500008952091E80022FD1AC08091ED018823C3
:1004600089F0853089F08091EB0085FD0FC02091E7
:10047000E4003091E50042175307F9F29150E1F69C
:1004800084E0089582E0089583E0089581E008956E
:10049000EF92FF920F931F93CF937C018B010E94E9
:1004A0001702C82F811117C08091E80085FD0BC08D
:1004B0008091E8008E778093E8000E9417028823DD
:1004C00099F3C82F08C0F70181917F018093F10053
:1004D0000150110949F78C2FCF911F910F91FF9077
:1004E000EF9008958091EF0187FF13C08091E8009D
:1004F00082FF06C08091E8008B778093E80004C0FB
:100500008091ED018111F2CF08958091ED01882352
:10051000D9F38091E80080FFF8CF8091E8008E77D2
:10052000ECCF982F9093E900242F762F50E0891775
:1005300031F07091EC002091ED005091F00021FD20
:1005400007C09F5F973071F78093E90081E00895BD
:100550003091EB003E7F3093EB003091ED003D7F1A
:100560003093ED003091EB0031603093EB007093ED
:10057000EC002093ED005093F0002091EE0027FD59
:10058000E0CF80E00895B0E0A0E0E9ECF2E00C9468
:10059000C81AC8EDD0E088818F7E8883E7EDF0E04F
:1005A00080818160808384E082BF81E08093E0016C
:1005B00088818E7F888302EE10E0F801108210920D
:1005C000DA0081EEC82ED12CF601108288818F7757
:1005D000888388818068888388818F7D888319BC1F
:1005E0001092ED011092EE011092EC011092EB01CD
:1005F00090EEE92EF12CF70180818B7F808388813A
:100600008160888342E060E080E00E949102F60110
:1006100080818E7F8083F8018081816080838081EA
:1006200088608083F70180818E7F808388818061EC
:100630008883CDB7DEB7E8E00C94E41AFC01809122
:10064000F5019091F60186179707A0F061157105E5
:1006500029F49091E8009E779093E80090E061156E
:10066000710551F4911108C08091E80082FF34C0F7
:1006700080E00895BC01F2CF8091ED018823C1F1A3
:100680008530C1F18091E80083FD30C08091E800A1
:1006900082FDEACF8091E80080FFE1CF8091F300F6
:1006A0002091F200382F6115710519F028303105BD
:1006B00058F091E02830310509F090E02091E800F1
:1006C0002E772093E800CBCF81918093F100615089
:1006D00071092F5F3F4FE7CF8091ED01882341F0F3
:1006E000853041F08091E80083FFBECF81E008951E
:1006F00082E0089583E00895089508958091E201CD
:10070000089587E797E7909301088093000888E1B0
:100710009AE00FB6F894A895809360000FBE90936E
:100720006000FFCF2FB7F8948091F7019091F80106
:10073000A091F901B091FA012FBF08959C01FC012D
:1007400032969FEF80E04191461751F09F3F19F498
:10075000411101C0982F8F5F8630A9F79F3F09F4A0
:100760000895290F311D97FD3A95F9016283089587
:100770002091DA013091DB012817390771F090934D
:10078000DB018093DA01E091D801F091D901309733
:1007900021F00084F185E02D099508952091D6017E
:1007A0003091D7012817390771F09093D7018093C2
:1007B000D601E091D801F091D901309721F006805F
:1007C000F781E02D09950895E091D801F091D901C4
:1007D000309729F00190F081E02D0995089580E08F
:1007E000089580E00895F894E82FE295EF70F0E026
:1007F00031A1282F2F7081E090E001C0880F2A9549
:10080000EAF7982F9095932391A392A1892B82A325
:10081000789408959091C40192FF06C0282F287102
:100820002830F9F4877F846093FF06C0282F287151
:100830002831F1F4877E84612091C50120FF06C034
:10084000382F38713830D9F4877F816021FF06C096
:10085000282F28712831D1F4877E816194FD877E0D
:100860000895282F24712430F9F68B7F8860DCCF1F
:10087000282F2471243101F78B7E8861DDCF382F3A
:100880003171313019F78E7F8860E0CF282F2171C8
:10089000213121F78E7E8861E1CFCF93DF93EC0188
:1008A00082389105B1F108F040C08133910509F417
:1008B0009DC048F58932910509F48DC08A9709F4E5
:1008C0009CC0C11522E5D20708F0BDC0C11531E5B5
:1008D000D30708F024C1C83ED10508F0A3C0C13E2B
:1008E000D10588F5C83AD10508F08EC0C53AD105C2
:1008F00008F0F6C0C130D10531F1209721F1C430A4
:10090000D10508F545C08533910509F45FC0C99745
:10091000C1F68091C401837009F036C18091C50190
:1009200083FF11C0C9E2D0E00EC0833E910599F16A
:1009300070F4803E910501F1823E910511F680919F
:10094000C40182FD21C0CE01DF91CF910895863E82
:10095000910561F1873E910571F1843E910509F0A1
:10096000B0CF8091C50181FFEECF8091C401C7EE69
:10097000D0E084FD0DC0E7CF8091C40180FD33C07D
:100980009091C50190FFDFCFC3EED0E084FFDBCFB5
:10099000D0E0C0E0D8CF8091C40182FDF2C0909138
:1009A000C50190FDF1C084FFCECFF2CF8091C4018C
:1009B00083FDDDCFC8CF8091C40183FDE8C0909155
:1009C000C50191FFF0CFC4EED0E0BDCF8091C4014E
:1009D00085FFB9CFA7CF8091C40185FDDBC0809191
:1009E000C50183FFB0CFC9E3D0E0ADCF8091C40192
:1009F00086FFA9CFCAE2D0E0A6CF8091C40186FFCE
:100A0000A2CFC1E3D0E09FCFCF3BD10508F6C85AB3
:100A1000D0E0CC0FDD1FC05FDE4F0990D881C02D24
:100A2000D46491CFC11540E5D40708F064C0C11566
:100A300080E4D80708F05CC0CE019A9581159F41EB
:100A400008F481CFA5CFC11536E5D30718F5C11538
:100A500045E5D40708F07CC0C11584E5D80708F047
:100A600072C09E01237033279C2F96959695C115D1
:100A7000D34508F459C0C1E0D0E002C0CC0FDD1F5F
:100A80002A95E2F730E2939FC0011124C82BD92B9D
:100A9000DA6859CFC1158AE5D80778F4C11529E578
:100AA000D20708F060C0C11538E5D30708F470CF4D
:100AB000DC2FCC27C06FD06A46CFCE01905681156F
:100AC000904208F065CF8D2F8F710E940A0490E04C
:100AD000982F882788279F719C012C2BE90141C002
:100AE000C55AD0E0C35FDE4FC881D0E0D0642BCFC1
:100AF000DF70D06A28CFCE018370992721E030E0E3
:100B000002C0220F331F8A95E2F7C695C69580E290
:100B1000C89FE0011124C22BD32BDD6814CFDC2F3A
:100B2000CC27C16FD06A0FCFC1E0D0E002C0CC0F9C
:100B3000DD1F2A95E2F720E2929FC0011124C82B05
:100B4000D92BDC6800CFDC2FCC27C46FD06AFBCE5A
:100B50008C2F0E940A04C82FD0E0DC2FCC27CC2792
:100B6000DF71D062F0CE8C2F8F700E940A0434E0C7
:100B7000D695C7953A95E1F7CF709C2FEC01D069D7
:100B8000E2CEC2EED0E0DFCEC0EED0E0DCCEC6EEEC
:100B9000D0E0D9CEC5E3D0E0D6CE8091B9018111A5
:100BA0001092B901089580959091B801982390937F
:100BB000B80108958091AD0190917C01981301C016
:100BC00008958F5F8770FACF292F933078F58C3096
:100BD00068F590E03CE0239F800D911D1124682F63
:100BE000677023E0969587952A95E1F7FC01EE0F53
:100BF000FF1FE80FF91FE959FE4F50E040E080E089
:100C0000219130E0062E02C0369527950A94E2F72E
:100C100021703327042E01C0220F0A94EAF7822B99
:100C20004F5F5F4F4330510559F7089580E00895B5
:100C3000292F933098F58C3088F590E03CE0239F85
:100C4000800D911D1124282F277041E001C0440F11
:100C50002A95EAF723E0969587952A95E1F7FC0116
:100C6000EE0FFF1FE80FF91FE959FE4F30E020E0BB
:100C700070E05191DF011197CB01022E02C09695D1
:100C800087950A94E2F781708195852784238527CB
:100C90008C932F5F3F4F2330310559F70895809390
:100CA000DD017093DF016093DE018091ED018430FE
:100CB000F9F48093E9008FEF9091E800815095FD61
:100CC00006C095ED9A95F1F700008111F5CF80915E
:100CD000E80085FF0DC050E040E063E070E08DED7E
:100CE00091E00E9448028091E8008E778093E800AE
:100CF0000895BC0184E00E944F060895BC0183E082
:100D00000E944F060895CF93DF93EC0181E080931A
:100D1000E9008FEF9091E800815095FD06C095EDB8
:100D20009A95F1F700008111F5CF8091E80085FFD9
:100D300014C050E040E068E070E0CE010E9448023C
:100D40008091E8008E778093E80088E0FE01A3EEB2
:100D5000B1E001900D928A95E1F7DF91CF9108956E
:100D6000CF93DF93C7E4D1E060E0CE010E94031B84
:100D70002196C11584E0D807B9F7DF91CF91089586
:100D80001F93CF93DF93122F8430E0F46330D0F4BD
:100D90004C30C0F4C42FD0E0CC0FDD1F98E1699F28
:100DA000C00DD11D112498E4899FC00DD11D1124BF
:100DB000632FCE0187960E94031B612FCE01889678
:100DC0000E94031BDF91CF911F910895AF92BF92B4
:100DD000CF92DF92EF92FF921F93CF93DF9380EF3A
:100DE000C82E81E0D82ED0E07601C0E014C0F50115
:100DF00025913491412F6C2F8D2F0E94C00682E0E7
:100E0000A80EB11C1F5F1C3091F788E1E80EF11CA1
:100E1000CF5FC33019F0570110E0E9CFDF5F88E4FE
:100E2000C80ED11CD43001F7DF91CF911F91FF90F4
:100E3000EF90DF90CF90BF90AF900895CF93C82FE1
:100E40006FEF811162E283E290E00E94031B6FEF7B
:100E5000C11164E084E290E00E94031B6FEFC111B6
:100E600065E085E290E00E94031BCF91089580E049
:100E70000E941E0760E086E290E00E94031B0E9431
:100E8000E6060E94B00681E00E941E0708950F93B7
:100E90001F93CF93DF93843030F5633020F54C30CF
:100EA00010F5C42FD0E0CC0FDD1F28E1629FC00DEC
:100EB000D11D112438E4839FC00DD11D1124CE0112
:100EC00087960E94F51A082F10E0102F0027CE01F8
:100ED00088960E94F51A9801282BC901DF91CF91BD
:100EE0001F910F91089590E080E0F8CF462F843055
:100EF00040F4733030F46C3020F4672F0E944707C1
:100F0000089590E080E00895CF92DF92FF920F93D2
:100F10001F93CF93DF936C010091FE018091BA0182
:100F2000082BC7E0D0E010E0FC2EC8010C2E02C058
:100F3000959587950A94E2F780FD0CC02197A0F75C
:100F4000F12C8F2DDF91CF911F910F91FF90DF90AA
:100F5000CF900895B6018C2F0E9476070E944D0411
:100F6000019761F3EECFCF93DF93EC010E948407EA
:100F7000BE010E9476070E944D04DF91CF91089533
:100F8000FC0183819481892B29F0808191818923BF
:100F90008F3F51F480E00895843FE1F717C0883E09
:100FA000A8F0813FB9F712C0808191810E94B307F8
:100FB00092959F70963099F358F4925F9F7092309B
:100FC00048F7803F19F040F7883E20F781E0089508
:100FD0009A5FF4CF83E290E00E94F51A823289F49E
:100FE00084E290E00E94F51A843059F485E290E0A2
:100FF0000E94F51A91E0853009F090E0892F817008
:10100000089580E0FCCFCF9384E090E00E94F51A31
:10101000C82F82E290E00E94F51A982F8C2FCF9172
:1010200008958091B8019091B701892B80935E015A
:101030009091B901992391F0892B80935E0120E072
:1010400080E691E0FC013191CF0131112F5FF1E099
:1010500086369F07B9F721110E94CD0548E050E080
:101060006FEA71E08EE591E00E94371B892BA9F0B1
:1010700088E0EEE5F1E0AFEAB1E001900D928A95EB
:10108000E1F7E091D801F091D901309731F0028079
:10109000F381E02D8EE591E00995089590E080E0E0
:1010A0000E94CE0390E080E00E94B8031092B70146
:1010B0000E94110808958093FE010E944E08089531
:1010C0008091FE01982F9670963021F488600E94DE
:1010D0005B080895877FFBCF21E030E001C0220F3D
:1010E0008A95EAF720958091FE0182230E945B0891
:1010F00008959091AE01809589238093AE01282FA9
:10110000277091F4282F082E000C330B921713062A
:1011100059F09091C50192FF07C0859585958595F9
:101120000E946C081092AE010895CF93C091C50142
:10113000C2FB992790F9981791F080FBC2F9C093F0
:10114000C5016091C40184E090E00E94031B6C2FF4
:1011500082E290E00E94031B82E00E947908CF9116
:10116000089521E030E001C0220F8A95EAF78091CE
:10117000FE01822B0E945B0808958093BA010E94B1
:101180004E0808951092B801E0E6F1E086E0DF0134
:101190001D928A95E9F70E944E080895AAE2B0E0F0
:1011A000E4EDF8E00C94CD1A8FEE91E02091F1007F
:1011B000DC012D93CD01B1E0873F9B07B9F780910A
:1011C000F001833009F472C0B8F4813009F449C0E9
:1011D000823009F4B3C08091E80083FF8BC2809114
:1011E000EF019091F0019A3008F084C2E92FF0E00D
:1011F000EA5BF44E0C94B11A8A3009F48EC08B303D
:1012000009F471C0893039F78091EF01813219F703
:101210008091F3019091F401009711F00297D9F6B3
:101220008091E800877F8093E8008091E80082FF4A
:1012300038C09091F3008091F200029731F48091D0
:10124000F100813011F0863021F48091F10080931B
:10125000E2018091E8008B778093E8000E9472029F
:10126000BACF8091EF01813A09F0B5CF8091E800C3
:10127000877F8093E8008091F3019091F401892B9E
:1012800061F468E083EE91E070E00E941E038091BB
:10129000E8008B778093E8009ECF60E090E080E0EC
:1012A000F3CF8091ED018111C0CF95CF8091EF01F7
:1012B000813A09F090CF8091F3019091F401892B4C
:1012C00009F089CF8091E800877F8093E8008091C2
:1012D000E80080FFFCCF80910C018093F1008091A9
:1012E000E8008E77B9CF8091EF01813209F073CF9A
:1012F0008091F3019091F401892B09F06CCF8091DA
:10130000E800877F8093E8000E9472028091F101DB
:1013100080930C010E94C2085ECF8091EF01813260
:1013200009F059CF8091E800877F8093E8000E9400
:1013300072028091F2018093E1014DCF8091EF0123
:10134000813A09F048CF8091E800877F8093E800D8
:101350008091E80080FFFCCF8091E101BECF803812
:1013600099F0823809F0C6C18091F3018F708730FF
:1013700008F0C0C18093E9008091EB0085FB8827CD
:1013800080F91092E90006C08091EB019091EC0188
:10139000911182609091E800977F9093E80080938C
:1013A000F1001092F1008091E8008E779FC18823B0
:1013B00009F48DC1823009F09DC18091F101811144
:1013C00090C18091F3018F702FEF280F263008F025
:1013D00091C18093E9002091EB0020FF82C19330FE
:1013E00031F48091EB0080628093EB007AC19091A0
:1013F000EB0090619093EB0021E030E001C0220F00
:101400008A95EAF72093EA001092EA008091EB00B7
:101410008860EACF81116EC11091F1011F77809130
:10142000E3008078812B8093E3008091E800877F40
:101430008093E8000E9472028091E80080FFFCCF58
:101440008091E30080688093E30082E0111183E0E3
:101450008093ED014FC18058823008F04BC120913C
:10146000F1013091F2012C3DE3E03E07A1F583E06C
:101470008A838AE289834FB7F894DE01139620E0CD
:101480003EE051E2E32FF0E050935700E49120FF5B
:1014900003C0E295EF703F5FEF708E2F90E0EA306F
:1014A000C0F0C7968D939D932F5F243159F74FBF9E
:1014B0008091E800877F8093E8006AE270E0CE01C7
:1014C00001960E941E038091E8008B778093E800CC
:1014D00011C1C096E7CF8091F3019091F401432FA1
:1014E00055274330510509F44AC078F5413051057C
:1014F00009F47AC08BE590E0E0E1F3E04230510579
:1015000009F0F8C02091E800277F2093E80020919F
:10151000F5013091F6018217930708F49C0140E031
:101520002115310509F065C0411163C08091E800C3
:1015300082FDC9CF8091ED01882329F2853019F20F
:101540008091E80083FFF2CFBECF4132510509F40C
:101550003CC04232510509F0CDC08330910508F0FE
:10156000C9C0FC01EE0FFF1FE05BFE4F0190F08150
:10157000E02D835B9E4FDC018C9190E01AC03327F5
:1015800021303105D1F02115310561F022303105CE
:1015900009F0B0C0EDE7F3E0E4918E2F90E0EDE7C5
:1015A000F3E007C0EDEAF3E0E4918E2F90E0EDEA7E
:1015B000F3E0009709F49EC0A5CFEDE8F3E0E491D5
:1015C0008E2F90E0EDE8F3E0F4CF8330910508F042
:1015D00091C0880F991FFC01EA5AFE4F0190F081DB
:1015E000E02D89E090E08ECF82E190E0EBE6F3E041
:1015F00089CF8091ED01882309F465CF853009F406
:1016000062CF8091E80083FD5ECF8091E80082FD8B
:101610008DCF8091E80080FF83CF9091F30080917F
:10162000F2002115310519F08830910550F041E0A4
:10163000089709F040E08091E8008E778093E800F9
:101640006FCF44914093F1003196215031090196BA
:10165000E8CF803809F04EC08091E800877F809302
:10166000E8008091EE018093F1009DCE811142C08F
:101670001091F1011230F0F58091E800877F80939E
:10168000E8001093EE010E947202112311F084E031
:1016900005C08091E30087FDFACF81E08093ED01E2
:1016A00042E061EC81E00E94910242E261EC84E060
:1016B0000E94910242E261EC82E00E94910242E2C9
:1016C00060EC83E00E9491028091ED0113C0809153
:1016D000F101813079F481E0933009F080E080936A
:1016E000EC011092E9008091E800877F8093E80088
:1016F0000E9472028091E80083FF0AC08091E80096
:10170000877F8093E8008091EB0080628093EB00FC
:10171000AA96E3E00C94E91A0E94C2082FEF84E332
:101720009CE0215080409040E1F700C0000088E13B
:101730009AE00FB6F894A895809360000FBE90933E
:101740006000FFCF882321F00E94D3050E9411087A
:101750000895882339F09091B801982B9093B8019F
:101760000E9411080895882391F19CEF980F913AF7
:1017700080F4E0E6F1E026E631E09191891303C0C0
:10178000DF0111971C922E173F07B9F70E9411082D
:10179000089590E2980F983050F4877091E001C05E
:1017A000990F8A95EAF7892F0E94D305EFCF9BE521
:1017B000980F933028F490E080E00E94CE030895C3
:1017C000885A873120F490E080E00E94B8030895A1
:1017D000CF93C82F8823B1F08CEF8C0F813A00F59E
:1017E000E0E6F1E086E691E0DF012D91C21761F0BD
:1017F0008A179B07D1F76C2F8EE591E00E949E031C
:101800000E941108CF9108952191C21303C0DF01F6
:1018100011971C928E179F07B9F70E941108EBCF02
:1018200080E28C0F883068F4C77021E030E001C09E
:10183000220FCA95EAF78091B801822B8093B801F4
:10184000DFCFEBE5EC0FE33040F4F0E0E35FFE4F79
:10185000808190E00E94CE03D5CFC85AC73190F660
:10186000EC2FF0E0EE0FFF1FE05FFE4F80819181D3
:101870000E94B803C7CF1F93CF93DF93182FD0E0F8
:10188000C0E0893311F4C0E5D0E0812F0E94E80B5D
:10189000209739F4812F0E94B30BDF91CF911F91D4
:1018A00008958FE99FE00197F1F700C000002197AC
:1018B000EFCF0F931F93CF93DF93C62FD42F022F19
:1018C000FC0182818823A9F06093FD010E949203AC
:1018D0009093FC018093FB01C77081E001C0880FE9
:1018E000CA95EAF70E94A90BDF91CF911F910F9142
:1018F00008958091FD0168133DC02091FB01309156
:10190000FC014FB7F8948091F7019091F801A091F4
:10191000F901B091FA014FBF821B930B883C9105EE
:1019200048F510E21D0F6D17B9F080E2860F883080
:1019300040F4C77081E001C0880FCA95EAF70E94A1
:10194000A20B183048F481E09D2F977001C0880FDA
:101950009A95EAF70E94A90B802F0E943B0C183041
:1019600018F6D77081E001C0880FDA95EAF70E9477
:10197000A20BBACFC77081E001C0880FCA95EAF701
:10198000F6CFA6E0B0E0E7ECFCE00C94C21A8E01C2
:101990000F5F1F4F86E0F80111928A95E9F79EE3E9
:1019A000E92E91E0F92E680121E4622E21E0722EE9
:1019B00088248394912CF70181917F018F3F09F452
:1019C00046C0F894E82FE295EF70F0E021A18F7007
:1019D000A40102C0440F551F8A95E2F7CA01922F55
:1019E000982B91A392A18095892382A3789400C01B
:1019F000E1E4F1E021E030E0B12CA12C41914F3F36
:101A000009F471C0A42FA295AF70B0E090968C91AC
:101A100090E04F7002C0959587954A95E2F780FD5A
:101A200062C0C901A82AB92A220F331F51E0ED3440
:101A3000F50721F7F701319780818F3F11F00E9460
:101A4000F30380EA8A95F1F7F601B182A082F2E011
:101A5000CF0ED11C6E147F0409F0ADCF46E050E0EC
:101A6000B8018EEB91E00E94371B892B09F43EC030
:101A700086E0F801AEEBB1E001900D928A95E1F7B6
:101A800081E08093BD010E9492039093BC018093FA
:101A9000BB012091BB013091BC014FB7F8948091FC
:101AA000F7019091F801A091F901B091FA014FBFAF
:101AB000821B930B0597F0F046E050E06EEB71E06F
:101AC00080ED91E00E94371B892BC9F086E0EEEB98
:101AD000F1E0A0EDB1E001900D928A95E1F781E08F
:101AE0001092BD0108C090E080E09CCF8091BD01C4
:101AF0008111CFCF80E02696EEE00C94DE1A80E0D4
:101B0000EFCF68EE7EEF90E080E00E94211B60E066
:101B100082E090E00E94031B60E083E090E00E947E
:101B2000031B1092BA0160E084E090E00E94031B66
:101B300064E082E290E00E94031B60E085E090E0B8
:101B40000E94031B60E086E090E00E94031B6FEFA1
:101B500087E090E00E94031B40E050E0BA0188E07B
:101B600090E00E94151B60E08DE090E00E94031B56
:101B700040E050E0BA0188E190E00E94151B60E06F
:101B800087E190E00E94031B40E050E0BA018CE145
:101B900090E00E94151B70E060E080E290E00E94FF
:101BA000211B40E050E0BA0188E190E00E94151B43
:101BB00080E00E941E070E94370740E050E0BA0113
:101BC0008FE090E00E94151B40E050E0BA0183E1F5
:101BD00090E00E94151B0895A5E0B0E0E2EFFDE063
:101BE0000C94BF1A8C01FC0183819481892B31F004
:101BF0008081918189238F3F09F07FC52596E1E19E
:101C00000C94DB1A0E948407F82E682F89819A8130
:101C10000E94180669817A818F2D0E9476077C01C7
:101C2000F8018281882309F45BC5970122513F4561
:101C30002031310508F027C58FEF93E00E94F51A97
:101C4000811128C0FEEEEF0E57E4852E992493945F
:101C5000E11032C01C821B82442443944AE0342E9B
:101C600074018FEFE81AF80AC4010E94F51A8983FB
:101C70001A82882379F09FEF980F933058F58A8362
:101C8000498292E0890E911CC7010E94F51A8B834C
:101C9000811121C08091AE01877009F4AFCFF801A6
:101CA0008281882309F4AACF8091C50182FFA6CF43
:101CB00082E00E947908A2CF811424E0920651F3B9
:101CC000C4010E94F51A811101C0EA943FEF831A02
:101CD000930ABECF4701FE0131967F01F7012081B3
:101CE000222309F4BDCF213009F047C091818281C0
:101CF000913031F4F2E0EF0EF11C0E943B0C07C072
:101D0000923049F422E0E20EF11C0E94E80B3FEF12
:101D1000E31AF30AE3CF933031F432E0E30EF11C1F
:101D20000E94B30BF4CF943021F08FEFE81AF80A39
:101D3000EECF92E0E90EF11C30E020E0B7016F5FDA
:101D40007F4FF70141818053990B8A30910550F004
:101D500021503109E0F28FE99FE00197F1F700C0CF
:101D60000000F6CF329EF001339EF00D11249C014D
:101D70002E0F3F1F842F7B01E1CFE22FF0E0E059CF
:101D8000FE4F5490822F86958695869590E0FC01B3
:101D9000E05AFE4F64902770712C022E02C0759499
:101DA00067940A94E2F7E1E06E227724FC01E05B9D
:101DB000FE4FA490B12C022E02C0B594A7940A94B1
:101DC000E2F7F1E0AF22BB24FC01E05CFE4FC490DF
:101DD000D12C02C0D594C7942A95E2F721E0C22203
:101DE000DD246114710419F081EE0E94E80BA11446
:101DF000B10419F086EE0E94E80B852D0E943B0C81
:101E0000A114B10419F086EE0E94B30B61147104A1
:101E100019F081EE0E94B30BC114D10409F477CFFD
:101E20008CE26BCF81E00E94B1080E94600832CF43
:101E300081E00E946C08F9CF82E0F5CF95EFE916BA
:101E40009CE5F90609F46CC008F466C027E245EE8B
:101E500066EEF6EFEF16FCE5FF0609F43DC48823B5
:101E600009F45CC41092FD0123E0E2162DE5F206B0
:101E700008F05DC03AEFE3163CE5F30630F4C70125
:101E800082509C45449708F05FC00E9403089093DD
:101E9000C5018093C401F2E1EF16FCE5FF0609F4E9
:101EA00078C108F0B6C039E0E3163CE5F30609F462
:101EB0004EC108F079C095E0E9169CE5F90609F4F1
:101EC00036C108F05FC0F3E0EF16FCE5FF0609F449
:101ED00026C108F028C18091C401816032E0E31678
:101EE0003CE5F30609F492C06091C401F090C5018D
:101EF00084E090E00E94031B6F2D82E290E00E943C
:101F0000031B0E94C208C6CE27E245EE65EEE4C37D
:101F100026E241EE60EEE0C327E245EE64EEDCC36C
:101F200026E241EE62EED8C328E241E0EFCF85EA37
:101F3000E8168DE5F80609F4A8CFF0F4E1E6EE1610
:101F4000EDE5FE0609F4A1CF96E1E9169CE5F90658
:101F500009F0FDC38091B8018A7A91E009F490E01C
:101F60009093660169E2811165E38EE591E00E943C
:101F70009E030E9411088ECEC7018D5A9D4503977E
:101F800018F783CF87E0E8168CE5F80609F4DBC084
:101F90008091C401806198E0E9169CE5F906B0F1F2
:101FA0008091C401806432C0EDE0EE16ECE5FE06DF
:101FB00009F4D7C0A0F48091C4018E7F2BE0E21613
:101FC0002CE5F20619F18091C4018C603CE0E31627
:101FD0003CE5F306D8F08091C4018D7F17C08FE0F7
:101FE000E8168CE5F80609F4CCC008F4BEC0E0E1C0
:101FF000EE16ECE5FE0609F4C8C08091C4018F7BA3
:10200000F1E1EF16FCE5FF0609F06ECF8093C40105
:102010006BCF2FEFE2162CE5F20609F4C4C0D8F519
:102020008AEFE8168CE5F80609F485C0D0F4E4E1FF
:10203000EE16ECE5FE0609F4C4C008F4B0C025E1D4
:10204000E2162CE5F20609F04FCF8091C40182FB25
:10205000992790F921E0922790FB82F990FB83F970
:10206000D5CF3CEFE3163CE5F30609F482C008F453
:1020700066C09DEFE9169CE5F90609F47EC08091E3
:10208000C5018360EEEFEE16ECE5FE0609F02CCFFD
:102090008093C50129CFF1E6EF16FDE5FF0609F4AF
:1020A0009BC0A0F431E0E3163DE5F30609F492C0CD
:1020B00008F47DC060E092E0E9169DE5F90609F0BC
:1020C00013CF8EE090E00E94031B0ECFEDEAEE16D8
:1020D000EDE5FE0601F168F49091C401892F8E7F31
:1020E00090FF816025EAE2162DE5F20609F48ECF15
:1020F000FBCE3EEAE3163DE5F30679F18FEAE816FA
:102100008DE5F80609F0F0CE9091C501892F877F03
:1021100093FF8860BDCF8091C5018860B9CF809161
:10212000C401826073CF8091C40184606FCF8091BD
:10213000C40188606BCF8091C5018160A9CF809177
:10214000C5018260A5CF8091C40180625FCF0E94EB
:10215000C2088091C401806859CF8091C501877FF2
:1021600097CF8091C4018B7F51CF8091C401877F2D
:102170004DCF8091C5018E7F8BCF8091C5018D7F22
:1021800087CF8091C4018F7E41CF8091C4018F7D24
:102190003DCF0E94C2088091C4018F7737CF8091D4
:1021A000C401837F33CF8091C5018C7F71CF809133
:1021B000C501982F909591708E7F892B90FB81F9A6
:1021C00067CF0E94C2089091C401892F97FB87F9BD
:1021D00080581CCF61E075CF9091C401892F8F7E0C
:1021E00094FF806113CF85E3A4C20E94C208EFEF81
:1021F000F4E32CE0E150F0402040E1F700C00000A3
:102200000E9481038091C50182FB882780F991E0BB
:1022100089270E949508F8018281E080F180882357
:1022200009F445C0C7010E948407D82E682FC70152
:102230000E941806B7018D2D0E9476070E944D045A
:102240007C01882EF801D280B580B2943FE0B322A1
:102250008091AE018770C1F0AD2CDD20B1F08F2DE3
:10226000807F803421F080E28E0D883068F080918C
:10227000C50182FF09C082E00E9479088091AE0109
:102280008770AA24A3948111A12C9F2C92942FE0F3
:102290009222FBE0F91508F479C0E92DF0E0E05B4B
:1022A000F44E0C94B11A81E0B4CF80E0B2CFC701F4
:1022B0000E94E405D82EBECF2F2D2F70C22E8F2D59
:1022C000807F19F0C29490EFC922DD20B9F0CC20B4
:1022D00069F080E28E0D883010F0811009C0809185
:1022E000B801C82AC092B8010E9411088E2D4CC0B6
:1022F0008091B701C82AC092B701F6CF8E2D0E94F7
:10230000B30BCC2009F442C080E28E0D883010F06F
:10231000811004C08C2D0E94D30506C0C09480910A
:10232000B701C822C092B7010E9411082FC03F2DEB
:102330003F70C32E8F2D807F803219F0C29480EFC2
:10234000C822882089F081E0881609F468C0DD2061
:1023500009F472C0BB2009F468C0F801858180FFD0
:10236000C5CF8F70858361C02091C50122FD35C026
:10237000DD2069F1CC2039F08091B801C82AC092E3
:10238000B8010E94110880E00E94E80B292D285016
:10239000330B2430310510F40E94E403AA2009F421
:1023A0002DCC8091AE0180FD29CCF801128285955B
:1023B000859585950E94B108C8010E94EC0D809119
:1023C000AE018595859585950E946C0817CC80E0B7
:1023D0000E94B30BCC20D1F29DCFDD2099F09091DB
:1023E000B9018C2D892BB11003C00E94A90BCECF4F
:1023F000E1E0BE12FACF22FFC9CF981739F28093DD
:10240000B901C4CFB11006C00E94CD058C2D0E9429
:10241000A20BBCCFF1E0BF1609F4B8CFF5CFDD2099
:1024200031F025E02B1508F4B1CF8C2DDECF34E050
:102430003B1508F4ABCFEACFBB2041F3F9E38F1291
:1024400009C02FEF37EE83E0215030408040E1F7A4
:1024500000C000008E2D0E94B30B98CF8F2D869563
:102460008695837061F0813009F090CFC701937039
:10247000D11002C090E080E00E94B80387CFC7016E
:102480009370D11002C090E080E00E94CE037ECF16
:102490008F2D837091F5D11079CF4E2D42954695B1
:1024A0004770440F440F8E2D8F70042E01C0880F8B
:1024B0000A94EAF72E2D2071E4FE07C02FE030E0E9
:1024C00001C0220F4A95EAF720953F2D36953695A3
:1024D0003370323069F050F44091BA01313029F054
:1024E000822B84230E94BD0851CF842B822BFACFEC
:1024F000282B8091BA018227F5CF8695DD2011F037
:102500008F2D8170882309F441CF4E2D4295469539
:102510004770440F440F8E2D8F70042E01C0880F1A
:102520000A94EAF72E2D2071E4FE07C02FE030E078
:1025300001C0220F4A95EAF720953F2D3695369532
:102540003370323069F050F44091FE01313029F09F
:10255000822B84230E945B0819CF842B822BFACF15
:10256000282B8091FE018227F5CF9F2D9F70F92E99
:10257000DD2029F0892F0E94B1088E2D36CF8E2DB7
:102580000E94A20B8F2D0E946C0800CF8E2DE2EFCF
:102590008E16B1F1E81570F0F0EF8F16D1F021EF43
:1025A000821691F0DD2009F45EC0B1109FCE8F2D10
:1025B0008F712AC033EF831651F194EF8912F2CF55
:1025C0008091C50182FD2FC08F2D8F71DD20D9F242
:1025D0001BC0DD2081F0E4E0EB1508F4D7CE2F2DF1
:1025E0002F7181E090E001C0880F2A95EAF7909161
:1025F000FE018927AFCFF5E0FB1508F4C7CEEFCF7A
:102600008F2D8F71D110BFCF0E94B108BFCE80E057
:10261000DD2009F49FCF9F2D9F7181E001C0880FBD
:102620009A95EAF797CFDD2099F02F2D2F71F22E92
:10263000822F0E94B1088091C50182FF07C038E057
:10264000F39EC001112483608093AE018F2DDCCFF7
:1026500081E00E94790881E08B1508F097CE82E036
:102660000E94790893CEBB2059F0893309F0F2CE4D
:102670009FEFE7EEF3E09150E040F040E1F7E8CE65
:102680008F2D8F7180CFF0E1EF16FFE5FF0609F483
:10269000C9CB21E1E2162FE5F20609F4CDCB93EF89
:1026A000E9169CE5F90609F433CC08F0C7CBF8ED40
:1026B000EF16FCE5FF0609F427CC29EDE2162CE520
:1026C000F20609F431CC37EDE3163CE5F30609F0E8
:1026D000C6CB26E241EE61EEC8010E94590CDACA6F
:1026E00030E1E3163FE5F30609F4A2CB91E1E916E8
:1026F0009FE5F906A1F682E09CCB85E0DE0111960C
:1027000001900D928A95E1F7F801228189819A81E1
:10271000211178CA0E94E405F82E7CCAF6E1EF1672
:10272000FCE5FF0609F077CD8091660181115BCD54
:1027300089E2E0E6F1E026E631E09191891303C0F9
:10274000DF0111971C922E173F07B9F712CC2AE52B
:10275000E2162DE5F20609F4A6CD78F4E1148CE535
:10276000F80609F442CD9EEDE9169CE5F90609F05C
:1027700052CD0E94810D0E948C0BECE5EE16EDE52A
:10278000FE0609F43FCD08F490CD27EAE2162DE5C8
:10279000F20689F340CD1F93CF93DF9380917B01A5
:1027A000807F09F049C080917801882309F444C0F2
:1027B0008091AD01D0917C0160917601709177019B
:1027C000A0917901B0917A01C62FC72316E0D817DE
:1027D00099F190E0109711F0CF3F19F401968770AE
:1027E000F6CF189F9001199F300D1124F901E3587D
:1027F000FE4F41814713F2CF40814613EFCF428114
:102800004111ECCF438154814A1B5B0B483C51057D
:1028100028F780917B018F70806180937B01F901A3
:10282000EE57FE4F80818F708061808386E791E054
:102830000E94EC0D0E94DA05DF91CF911F9108955F
:10284000A1E1B0E0E6E2F4E10C94C61A8C0185E067
:10285000F801DE011D9601900D928A95E1F7F801CD
:10286000E28086E7A82E81E0B82E60917901709110
:102870007A016115710509F426C1909176014091A4
:102880007701892F84238F3F09F41DC12081318175
:10289000C380D480F0907801F601E61BF70BFF208F
:1028A00009F4DCC080917B01582F507FE83CF10592
:1028B00008F09FC051116BC0FE2C431314C092133B
:1028C00012C0E11010C08F70806180937B01C50140
:1028D0000E94EC0D80917B01F80185838F2D61961C
:1028E000EAE00C94E21AC114D10429F0822F832368
:1028F0008F3F09F003C180E0F82FF170DF2E80FFD9
:102900003CC08091AD0140917C0156E0841315C01C
:102910002D873E878D859E850E94B307292F22959E
:102920002F702230F0F0243018F59F70F1F0F8018C
:102930009581907FD1F4D12C1EC090E0589FF0017A
:10294000599FF00D1124E358FE4F6181361306C0E4
:102950006081261303C06281E6120FC00196877062
:10296000D5CF9F7011F0882331F3805E883018F343
:10297000C8010E94EC0DFD2CB1CFEE2009F4AECFC2
:1029800080917B01816080937B01F12CA7CF431361
:1029900006C0921304C0F801EE2009F479C0C80102
:1029A0000E94C007882309F1EE20F9F080917B0195
:1029B000803270F0209176013091770138872F8333
:1029C0001986DB86CA868C87CE0107960E94EC0D9D
:1029D00086E0F801A6E7B1E001900D928A95E1F753
:1029E0000E94CB13FF24F39479CFC8010E94EC0D11
:1029F000F9CF51110AC086E791E00E94EC0D86E004
:102A0000F50111928A95E9F7C0CF43130FC09213D5
:102A10000DC0E1100BC0F8018583C8010E94EC0DC8
:102A200086E0F50111928A95E9F758CFC8010E9416
:102A3000C0078823D1F2EE20C1F280917B01803261
:102A400038F220917601309177013A8329831B82F5
:102A5000DD82CC828E83CE010196B8CFE83CF105B1
:102A6000F8F6FE2CEE2009F243131FC092131DC08E
:102A700080917B0180FD10C0982F907F69F0F80154
:102A80008583903F31F0982F907F905F8F70892BD6
:102A90008583C8010E94EC0D86E0F801A6E7B1E04D
:102AA00001900D928A95E1F719CFC8010E94C007E5
:102AB00081118ECF80917B01816080937B01C80161
:102AC0000E94EC0D0BCFEE2009F48FCFC8010E94BD
:102AD000C007F82E882309F488CF86E0F801A6E71E
:102AE000B1E001900D928A95E1F780917601909185
:102AF00077010E94B3070E94CB13F0CE81E08E25B0
:102B0000FBCEA7E1B0E0E7E8F5E10C94CD1A4B8BE2
:102B10005C8B6D8B7E8B8F8B61111092B7011A8A43
:102B2000198A85E0FE017396DE011D9601900D92D3
:102B30008A95E1F786E0FE013D96DE011796019049
:102B40000D928A95E1F7CE0107960E942014882302
:102B500059F016E08091AD0190917C01891343C03A
:102B60006796E3E00C94E91A86E0FE013796DE01F1
:102B7000119601900D928A95E1F78A859B85892BA4
:102B800041F38F81988589238F3F19F320917C0130
:102B900030E0C9010196877099274091AD0148172F
:102BA000190671F40E94C20810927C011092AD01C6
:102BB00086E0E6E7F1E0DF011D928A95E9F7C9CFEB
:102BC00096E0929FD001939FB00D1124A358BE4F61
:102BD000FE01319601900D929A95E1F780937C0168
:102BE0000E94DA05B6CF819FC001112483589E4F01
:102BF0000E942014882309F4B3CF8091AD0190E0A6
:102C00000196877099278093AD01A4CF1F920F92F0
:102C10000FB60F9211242F933F934F935F936F93AF
:102C20007F938F939F93AF93BF93CF93DF93EF9354
:102C3000FF93D091E900DF708091EC00C82FC17044
:102C400080FDC0E81092E9008091F000877F8093BA
:102C5000F00078940E94CE081092E9008091F00074
:102C600088608093F000CD2BCF70C093E900FF9176
:102C7000EF91DF91CF91BF91AF919F918F917F9114
:102C80006F915F914F913F912F910F900FBE0F90D9
:102C90001F9018951F920F920FB60F9211242F9329
:102CA0003F934F935F936F937F938F939F93AF93D4
:102CB000BF93EF93FF938091E10082FF09C0809161
:102CC000E20082FF05C08091E1008B7F8093E100EC
:102CD0008091DA0080FF24C08091D80080FF20C05E
:102CE0008091DA008E7F8093DA008091D90080FF96
:102CF0009DC080E189BD82E189BD09B400FEFDCFA0
:102D000081E08093ED018091E001811109C00E9472
:102D1000F8010E94C3028091E20084608093E20087
:102D20008091E10080FF17C08091E20080FF13C016
:102D30008091E2008E7F8093E2008091E2008061CA
:102D40008093E2008091D80080628093D80019BC03
:102D500085E08093ED018091E10084FF2BC080919C
:102D6000E20084FF27C080E189BD82E189BD89B589
:102D7000982F917080FFFBCF8091D8008F7D80933A
:102D8000D8008091E1008F7E8093E1008091E20085
:102D90008F7E8093E2008091E20081608093E20068
:102DA0008091EE01882309F447C084E08093ED010F
:102DB0008091ED018091E10083FF27C08091E200C6
:102DC00083FF23C08091E100877F8093E10082E050
:102DD0008093ED011092EE018091E1008E7F80934F
:102DE000E1008091E2008E7F8093E2008091E2001A
:102DF00080618093E20042E060E080E00E94910206
:102E00008091F00088608093F000FF91EF91BF9176
:102E1000AF919F918F917F916F915F914F913F9172
:102E20002F910F900FBE0F901F90189519BC109204
:102E3000ED011092E00174CF8091E30087FD93E0F3
:102E40009093ED01B5CF78941F921FB61F92112475
:102E50008F939F93AF93BF938091F7019091F80167
:102E6000A091F901B091FA010196A11DB11D8093C5
:102E7000F7019093F801A093F901B093FA01BF9183
:102E8000AF919F918F911F901FBE1F9018951F9219
:102E90001FB61F9211248F939F93AF93BF9380917E
:102EA000DC01811113C08091F7019091F801A0918C
:102EB000F901B091FA014196A11DB11D8093F7016E
:102EC0009093F801A093F901B093FA01BF91AF91EB
:102ED0009F918F911F901FBE1F901895CDB7DEB7A1
:102EE000AA970FB6F894DEBF0FBECDBF85B7806836
:102EF00085BF85B7806885BF84B7877F84BF0FB6DD
:102F0000F894A89580916000886180936000109289
:102F100060000FBE80E890E00FB6F89480936100E7
:102F2000909361000FBE81EF93E090935D018093D9
:102F30005C010E94F8010E94C3028091E20084605B
:102F40008093E20078948091ED018823A1F01091A4
:102F5000E9001F709091EC00892F817090FD80E84E
:102F6000182B1092E9008091E80083FD0E94CE08A2
:102F70001F701093E90082E084BD93E095BD9AEF45
:102F800097BD80936E000E94EA07811102C00E94E3
:102F9000370782E30E94F30381E30E94F30387EF84
:102FA0000E94F30301E411E07DE4E72E71E0F72EC7
:102FB000D8018D918D018F3F11F00E94F303E0162F
:102FC000F106B1F786E0E0EDF1E0DF01282F1D9278
:102FD0002A95E9F7EEEBF1E0DF011D928A95E9F71A
:102FE00090E080E00E94FD1A883E9E4F21F40E94EE
:102FF000EA07811102C00E94810D82E090E00E94E8
:10300000F51A8093C8010E9403089093C50180932C
:10301000C4010E94C10CEFEFF6E721E0E150F0405F
:103020002040E1F700C000000E94C10C8091D00157
:103030009091D10193FF08C06FEF7FEF90E080E0A7
:103040000E94211B0E94810383E090E00E94F51AF8
:103050000E94BD0880E091E09093D9018093D8014F
:1030600048E1642E712C50E4452E60E1562E80918B
:10307000ED0112E1853009F4D2C00E94C10C20910B
:10308000C9013091CA018091D0019091D1012817D6
:10309000390709F0CEC02091D2013091D30180913F
:1030A000CB019091CC012817390709F0C2C02091BB
:1030B000CD013091CE018091D4019091D501281796
:1030C000390709F0B6C00E9492038C018091C601B5
:1030D0009091C70108171907A1F08FEF89A38AA360
:1030E0001BA20E9492038160782F9DA38CA349A10B
:1030F0005AA16BA18DA10E9481151093C701009365
:10310000C6010E94E4039091CF01891769F0809372
:10311000CF018FB7F8944091F7015091F801609179
:10312000F9017091FA018FBF8091ED01843009F0AF
:103130009ECF83E08093E9008091E80082FF97CFE3
:103140008091E80090E085FF06C00E941702882366
:1031500009F4BEC091E08091E8008B778093E8008D
:10316000992309F484CFE981E150E33108F03BC1B0
:10317000F0E0E45AF44E0C94B11A8091ED018430E1
:1031800009F11092DC010FB6F894A89560926000E6
:103190000FBE4092600083B7817F846083BF83B796
:1031A000816083BF7894889583B78E7F83BF0FB685
:1031B000F894A895809160008861809360001092D7
:1031C00060000FBE8091EC01882349F10E94C10C80
:1031D0008091D2019091D3012091D0013091D10101
:1031E000822B932B2091D4013091D501822B932BEC
:1031F000892BA9F059BC19BD09B400FEFDCF8091FF
:10320000D8008F7D8093D8008091E0008260809309
:10321000E0008091E00081FDFCCF0E94C208809117
:10322000ED01853009F4A9CF0E94C2080E94E40391
:1032300024CF20ED822E21E0922E39ECA32E31E016
:10324000B32E312CD4010D911D914D01F501C1908A
:10325000D1905F01C016D10659F1C026D126212C8C
:10326000EE24E394F12CC6018E219F21892BB1F02D
:103270002EA23FA221E0C8018E219F21892B09F4B3
:1032800020E028A70E9492038160782F9AA789A73F
:103290004EA15FA168A58AA50E9481152394EE0C1A
:1032A000FF1CFCE02F12DFCFF50132971183008362
:1032B000339423E03212C6CF8FB7F8944091F701D0
:1032C0005091F8016091F9017091FA018FBF19CF07
:1032D00000E210E0CE0101967C018091E80085FDBE
:1032E0000AC08091E8008B778093E8000E94170263
:1032F000882399F32FCF8091F100D7018D937D0121
:103300000150110951F726CF1A828AE08B8336C00B
:103310008A81823009F41CC18330A9F0813009F020
:1033200062C02FB7F8946091F7017091F801809115
:10333000F9019091FA012FBF0E94B71A6B837C8329
:103340008D839E831BC08091D0019091D1019827DD
:10335000892798279C838B838091D2019091D301F8
:103360009827892798279E838D838091D4019091F7
:10337000D50198278927982798878F838091ED0119
:10338000843009F074CE1091E9001F709091EC0028
:10339000892F817090FD80E8182B82E08093E900EE
:1033A0008091E80080FF0DC050E040E060E270E0F6
:1033B000CE0101960E9448028091E8008E778093AA
:1033C000E8001F701093E90052CE8A81823059F4D0
:1033D0006B817C818D819E810E94B71A86E290E08C
:1033E0000E94031BCBCF8FEF8983C8CF4C816B81A9
:1033F0008A810E9447079827892798279E838D8373
:10340000BDCF2D813E813227232732274C816B810E
:103410008A810E94C006B2CF0E94E606AFCF5A82D0
:10342000ADCF82E08A8389EB71CFEA80FB80FE24F6
:10343000EF24FE248E010F5F1F4FCC80C00ED12ED3
:10344000D11CC701895B9E4F0C151D0509F496CF51
:10345000B9EBEB16B2E0FB0650F40E94F51AF80146
:103460008483BFEFEB1AFB0A0F5F1F4FEACFD8012F
:1034700014961C92F6CF0A811B8110270127102772
:10348000FE0131966F01EC80E00EF12EF11CC801B7
:10349000895B9E4FE016F10609F470CF093BF2E01C
:1034A0001F0728F4D60114966C910E94031BBFEFEE
:1034B000CB1ADB0A0F5F1F4FEACF0E94B0065ECF28
:1034C00084E08A835BCFEA80FB80FE24EF24FE2425
:1034D0008E010F5F1F4FCC80C00ED12ED11CC701B3
:1034E00087960C151D0509F449CFE0E2EE16E1E0E0
:1034F000FE0658F40E94F51AD80114968C93FFEF3B
:10350000EF1AFF0A0F5F1F4FEACFF8011482F7CFBF
:103510000A811B81102701271027CE0101966C011B
:10352000EC80E00EF12EF11CC80187960E151F05E8
:1035300009F424CF0032A1E01A0720F4F6016481D7
:103540000E94031BFFEFCF1ADF0A0F5F1F4FECCF64
:1035500086E290E00E94F51A1B821C821D828E83F7
:103560000DCFEE0FFF1F0590F491E02D0994692710
:103570009627692778278727782708952F923F92E3
:103580004F925F926F927F928F929F92AF92BF9273
:10359000CF92DF92EF92FF920F931F93CF93DF931F
:1035A000CDB7DEB7CA1BDB0B0FB6F894DEBF0FBE7C
:1035B000CDBF09942A88398848885F846E847D84C9
:1035C0008C849B84AA84B984C884DF80EE80FD80CB
:1035D0000C811B81AA81B981CE0FD11D0FB6F89441
:1035E000DEBF0FBECDBFED010895F999FECF92BDAC
:1035F00081BDF89A992780B50895A8E1B0E042E02E
:1036000050E00C94291B262FF999FECF92BD81BD65
:10361000F89A019700B4021639F01FBA20BD0FB610
:10362000F894FA9AF99A0FBE08950396272F0E94EC
:10363000041B0E94031B252F0E94041B242F0C94A3
:10364000041B0196272F0E94041B0C94031BDC0112
:10365000CB01FC01F999FECF06C0F2BDE1BDF89A9D
:10366000319600B40D9241505040B8F70895FB01D7
:10367000DC0104C08D910190801921F4415050402B
:10368000C8F7881B990B0895F894FFCFAF09D709A5
:103690007A0BD7097A0B0A0A2B0A7A0B290B360BFD
:1036A0005C115C11971197112E12C611C611C6112B
:1036B0004812B512C612C61284198819E519F619EE
:1036C000011A0C1AF319F319F319F319F3190F1A54
:0E36D000111A151A3B1A5D1A601A631A881A2D
:1036DE007E0383067D037E0679067C030181828349
:1036EE00E200E900EA00B500B600B700CD008301A4
:1036FE00CC008A01920194012102230224022502A8
:10370E00260227022A02B300B4006F007000323185
:10371E00F792939190946697C634353633402232A1
:0C372E000001DE00AC0022033B035B0343
:00000001FF
